S02B00002F686F6D652F7069742F4153452F414D69526F2D417070732F636F6E66696775726174696F6E732F87
S3FD08008000000400201D8300081F8300081F8300081F8300081F8300081F8300081F8300081F8300081F8300081F830008151A02081F8300081F8300081F8300081F8300081F8300081F830008D11A02088D1A02081F8300081F8300083523020801230208CD2202089922020865220208712002083920020801200208C91F0208951F02085D1F0208251F0208012C0208A931020839310208C9300208A5200208F52102081F8300081F8300081F8300081F830008612D0208092102081F830008E12B0208F1290208C12B0208BD2902081F8300081F830008952E02081F8300081F83000879210208351A02081F8300081F8300081F8300081F83000820
S3ED080080F81F830008ED1E02081F8300081F8300081F8300081F8300081F8300081F8300081F8300081F830008B91E0208811E0208491E0208111E0208DD1D02081F8300081F8300081F8300081F8300081F8300081F8300081F830008A51D02086D1D0208351D02081F8300081F8300081F8300081F8300081F8300081F8300081F8300081F8300081F8300081F8300081F8300081F8300081F8300081F8300081F8300081F8300081F8300081F8300081F8300081F8300081F8300081F8300081F8300081F8300081F8300081F8300081F8300081F8300081F8300081F8300081F8300081F8300081F830008FF
S3FD0800820072B6374880F30888364880F3098836483649086040F20000CCF200004EF63471CEF200010860BFF34F8FBFF36F8F40F20000C0F2F0004EF68851CEF200010860BFF34F8FBFF36F8F4FF00000E1EE100A4EF63C71CEF200010860062080F31488BFF36F8F1AF008F909F0ACFC4FF055301F491B4A91423CBF41F8040BFAE71D49184A91423CBF41F8040BFAE71A491B4A1B4B9A423EBF51F8040B42F8040BF8E700201849184A91423CBF41F8040BFAE71AF0AAF81AF0DEF8144C154DAC4203DA54F8041B8847F9E707F020FC114C124DAC4203DA54F8041B8847F9E71AF0C8B800040020000800200080000808ED00E0000000200004002072
S3FD080082F854700308000800206016002060160020983F0020E0810008E0810008E0810008E081000870E700F000F8FEE72DE9F04F2DED108AC1F80CD0C3689D46BDEC108ABDE8F08F20F044FC1AF07CF9002383F311882846A047002021F098FBFEE71AF097FE20F049FC20F08FF920F031FC1AF069F900DFFEE70000844641EA000313F003036DD1403A41D351F8043B40F8043B51F8043B40F8043B51F8043B40F8043B51F8043B40F8043B51F8043B40F8043B51F8043B40F8043B51F8043B40F8043B51F8043B40F8043B51F8043B40F8043B51F8043B40F8043B51F8043B40F8043B51F8043B40F8043B51F8043B40F8043B51F8043B40F8043BD4
S3FD080083F051F8043B40F8043B51F8043B40F8043B403ABDD2303211D351F8043B40F8043B51F8043B40F8043B51F8043B40F8043B51F8043B40F8043B103AEDD20C3205D351F8043B40F8043B043AF9D2043208D0D2071CBF11F8013B00F8013B01D30B8803806046704700BF082A13D38B078DD010F003038AD0C3F10403D21ADB071CBF11F8013B00F8013B80D331F8023B20F8023B7BE7043AD9D3013A11F8013B00F8013BF9D20B7803704B7843708B7883706046704700000000000000000000000000000000000000000000000000000000A2EB0300704700BF02780B78012A28BF9A42F5D16DE9044540EA0104CDE902676FF0000C4FEA4472FC
S3FD080084E812B380EA010414F0070F6AD100F0070420F0070004F0030521F007014FEAC505F0E8042314F0040FF1E804670CFA05F462EA040266EA04060AD063EA0403624667EA0407664603E0F0E80423F1E8046782FA4CF582EA0604A4FA8CF46CBB83FA4CF583EA0705A5FA8CF595B950E9022351E9026782FA4CF582EA0604A4FA8CF483FA4CF583EA0705A5FA8CF52543DBD09CB92DBAB5FA85F424F0070427FA04F1DDE9026723FA04F303F0FF0001F0FF01FDE80445A0EB0100704724BAB4FA84F424F0070426FA04F1DDE9026722FA04F202F0FF0001F0FF01FDE80445A0EB0100704714F0030F3CD110F0030428D150F8082B51F8083B82FA57
S3FD080085E04CF582EA0305A5FA8CF55DB950F8042C51F8043C82FA4CF582EA0305A5FA8CF5002DE8D02DBAB5FA85F424F0070423FA04F122FA04F202F0FF0001F0FF01FDE80445A0EB010070474FEAC40420F0030050F8082B21F0030151F8083B0CFA04F462EA040263EA0403C9E710F003041AD0A1EB040120F00300E40750F8042B06D00FD28B785FFAA2F4E41A06D12BB1CB785FFAB2F4E41A00D11BB920465DF8104B704701F1040150F8042BCC0721F0030151F8043B48D824D222F07F4482FA4CF594EA1325A5FA8CF50AD165B951F8043B84EA0204B4EB036F0ED150F8042BEBE74FEA132355E035F07F454DD10878FDE80445C0F100007047FC
S3FD080086D84FEA126203F0FF0347E002EA1C4482FA4CF594EA1345A5FA8CF50AD165B951F8043B84EA0204B4EB034F0CD150F8042BEBE74FEA134330E015EA1C4528D10B884FEA124229E04FEA124203EA1C4324E002F0FF0482FA4CF594EA1365A5FA8CF50AD165B951F8043B84EA0204B4EB032F09D150F8042BEBE74FEA13630DE015F0FF0F05D10B684FEA122223F07F4304E04FF00000FDE80445704712BA1BBA82FA4CF482EA0304A4FA8CF5B5FA85F402FA04F203FA04F34FEA1260FDE80445A0EB1360704700000000000000000000000000000000000000000000000000000000000000000000000090F800F06DE9024520F007016FF0000CB4
S3FD080087D010F0070491F820F040F049804FF000046FF00700D1E9002391F840F000F1080082FA4CF2A4FA8CF283FA4CF3A2FA8CF34BBBD1E9022382FA4CF200F10800A4FA8CF283FA4CF3A2FA8CF3E3B9D1E9042382FA4CF200F10800A4FA8CF283FA4CF3A2FA8CF37BB9D1E9062301F1200182FA4CF200F10800A4FA8CF283FA4CF3A2FA8CF3002BC6D0002A04BF04301A4612BAB2FA82F2FDE8024500EBD2007047D1E9002304F00305C4F100004FEAC50514F0040F91F840F00CFA05F562EA05021CBF63EA050362464FF00004A9E70000000001F0FF01102A2BDB10F0070F08D010F8013B013A8B422DD010F0070F42B3F6D1F0B441EA012141EA20
S3FD080088C8014122F007047FF000070023F0E80256083C85EA010586EA010685FA47F5A3FA87F586FA47F6A5FA87F68EB9EED1F0BC01F0FF0102F0070232B110F8013B013A83EA010313B1F8D10020704701387047002D06BF35460338073815F0010F07D1013015F4807F02BF013015F4C03F0130F0BC0138704700BF81F0004102E000BF83F0004330B54FEA41044FEA430594EA050F08BF90EA020F1FBF54EA000C55EA020C7FEA645C7FEA655C00F0E2804FEA5454D4EB5555B8BF6D420CDD2C4480EA020281EA030382EA000083EA010180EA020281EA0303362D88BF30BD11F0004F4FEA01314FF4801C4CEA113102D0404261EB410113F0004F23
S3FD080089C04FEA03334CEA133302D0524263EB430394EA050F00F0A780A4F10104D5F1200E0DDB02FA0EFC22FA05F2801841F1000103FA0EF2801843FA05F359410EE0A5F120050EF1200E012A03FA0EFC28BF4CF0020C43FA05F3C01851EBE37101F0004507D54FF0000EDCF1000C7EEB00006EEB0101B1F5801F1BD3B1F5001F0CD349085FEA30004FEA3C0C04F101044FEA445212F5800F80F09A80BCF1004F08BF5FEA500C50F1000041EB045141EA050130BD5FEA4C0C404141EB0101013C28BFB1F5801FE9D291F0000F04BF01460020B1FA81F308BF2033A3F10B03B3F120020CDA0C3208DD02F1140CC2F10C0201FA0CF021FA02F10CE002F1B0
S3FD08008AB81402D8BFC2F1200C01FA02F120FA0CFCDCBF41EA0C019040E41AA2BF01EB0451294330BD6FEA04041F3C1CDA0C340EDC04F11404C4F1200220FA04F001FA02F340EA030021FA04F345EA030130BDC4F10C04C4F1200220FA02F001FA04F340EA0300294630BD21FA04F0294630BD94F0000F83F4801306BF81F480110134013D4EE77FEA645C18BF7FEA655C29D094EA050F08BF90EA020F05D054EA000C04BF1946104630BD91EA030F1EBF0021002030BD5FEA545C05D14000494128BF41F0004130BD14F580043CBF01F5801130BD01F0004545F0FE4141F470014FF0000030BD7FEA645C1ABF194610467FEA655C1CBF0B46024650EABC
S3FD08008BB0013406BF52EA033591EA030F41F4002130BD00BF90F0000F04BF0021704730B54FF4806404F132044FF000054FF0000150E700BF90F0000F04BF0021704730B54FF4806404F1320410F0004548BF40424FF000013EE700BF42004FEAE2014FEA31014FEA02701FBF12F07F4393F07F4F81F06051704732F07F4208BF704793F07F4F04BF41F40021704730B54FF4607401F0004521F000411CE700BF50EA010208BF704730B54FF000050AE050EA010208BF704730B511F0004502D5404261EB41014FF4806404F132045FEA915C3FF4D8AE4FF003025FEADC0C18BF03325FEADC0C18BF033202EBDC02C2F1200300FA03FC20FA02F001FA51
S3FD08008CA803FE40EA0E0021FA02F11444BDE600BF70B54FF0FF0C4CF4E06C1CEA11541DBF1CEA135594EA0C0F95EA0C0F00F0DEF82C4481EA030621EA4C5123EA4C5350EA013518BF52EA033541F4801143F4801338D0A0FB02CE4FF00005E1FB02E506F00042E0FB03E54FF00006E1FB03569CF0000F18BF4EF0010EA4F1FF04B6F5007F64F5407404D25FEA4E0E6D4146EB060642EAC62141EA55514FEAC52040EA5E504FEACE2EB4F1FD0C88BFBCF5E06F1ED8BEF1004F08BF5FEA500E50F1000041EB045170BD06F0004646EA010140EA020081EA0301B4EB5C04C2BFD4EB0C0541EA045170BD41F480114FF0000E013C00F3AB8014F1360FDEBF06
S3FD08008DA0002001F0004170BDC4F10004203C35DA0C341BDC04F11404C4F1200500FA05F320FA04F001FA05F240EA020001F0004221F0004110EBD37021FA04F642EB06015EEA430E08BF20EAD37070BDC4F10C04C4F1200500FA04F320FA05F001FA04F240EA020001F0004110EBD37041F100015EEA430E08BF20EAD37070BDC4F1200500FA05F24EEA020E20FA04F301FA05F243EA020321FA04F001F0004121FA04F220EA020000EBD3705EEA430E08BF20EAD37070BD94F0000F0FD101F00046400041EB010111F4801F08BF013CF7D041EA060195F0000F18BF704703F00046520043EB030313F4801F08BF013DF7D043EA0603704794EA0C0F8F
S3FD08008E980CEA135518BF95EA0C0F0CD050EA410618BF52EA4306D1D181EA030101F000414FF0000070BD50EA410606BF1046194652EA430619D094EA0C0F02D150EA013613D195EA0C0F05D152EA03361CBF104619460AD181EA030101F0004141F0FE4141F470014FF0000070BD41F0FE4141F4780170BD70B54FF0FF0C4CF4E06C1CEA11541DBF1CEA135594EA0C0F95EA0C0F00F0A7F8A4EB050481EA030E52EA03354FEA013100F088804FEA03334FF0805545EA131343EA12634FEA022245EA111545EA10654FEA00260EF000419D4208BF964244F1FD0404F5407402D25B084FEA3202B61A65EB03055B084FEA32024FF480104FF4002CB6EB0A
S3FD08008F90020E75EB030E22BFB61A754640EA0C005B084FEA3202B6EB020E75EB030E22BFB61A754640EA5C005B084FEA3202B6EB020E75EB030E22BFB61A754640EA9C005B084FEA3202B6EB020E75EB030E22BFB61A754640EADC0055EA060E18D04FEA051545EA16754FEA06164FEAC30343EA52734FEAC2025FEA1C1CC0D111F4801F0BD141EA00014FF000004FF0004CB6E711F4801F04BF01430020B4F1FD0C88BFBCF5E06F3FF6AFAEB5EB030C04BFB6EB020C5FEA500C50F1000041EB045170BD0EF0004E4EEA113114EB5C04C2BFD4EB0C0541EA045170BD41F480114FF0000E013C90E645EA060E8DE60CEA135594EA0C0F08BF95EA0C0F9E
S3FD080090883FF43BAF94EA0C0F0AD150EA01347FF434AF95EA0C0F7FF425AF104619462CE795EA0C0F06D152EA03353FF4FDAE1046194622E750EA410618BF52EA43067FF4C5AE50EA41047FF40DAF52EA43057FF4EBAE12E74FF0FF3C06E000BF4FF0010C02E000BF4FF0010C4DF804CD4FEA410C7FEA6C5C4FEA430C18BF7FEA6C5C1BD001B050EA410C0CBF52EA430C91EA030F02BF90EA020F0020704710F1000F91EA030F58BF994208BF90422CBFD8176FEAE37040F0010070474FEA410C7FEA6C5C02D150EA013C07D14FEA430C7FEA6C5CD6D152EA033CD3D05DF8040B704700BF8446104662468C461946634600E000BF01B5FFF7B7FF0028F8
S3FD0800918048BF10F1000F01BD4DF808EDFFF7F4FF0CBF012000205DF808FB00BF4DF808EDFFF7EAFF34BF012000205DF808FB00BF4DF808EDFFF7E0FF94BF012000205DF808FB00BF4DF808EDFFF7CEFF94BF012000205DF808FB00BF4DF808EDFFF7C4FF34BF012000205DF808FB00BF4FEA410C7FEA6C5C02D150EA013C0AD14FEA430C7FEA6C5C02D152EA033C02D14FF0000070474FF0010070474A0011D212F5001211D20DD56FF47873B3EB62520ED44FEAC12343F0004343EA505323FA02F070474FF00000704750EA013002D14FF0FF3070474FF0000070474FEA4102B2F1E04324BFB3F5001CDCF1FE5C0DD901F0004C4FEAC0024CEA5070FE
S3FD08009278B2F1004F40EB830008BF20F00100704711F0804F21D113F13872BCBF01F00040704741F480114FEA5252C2F11802C2F1200C10FA0CF320FA02F018BF40F001004FEAC1234FEAD32303FA0CFC40EA0C0023FA02F34FEA4303CCE77FEA625307D150EA01331EBF4FF0FE4040F44000704701F0004040F0FE4040F40000704700BF53B94AB9002908BF00281CBF4FF0FF314FF0FF3000F0A4B9ADF1080C6DE904CE00F03CF8DDF804E0DDE9022304B0704738B50022002304460D46FFF733FF28B920462946BDE8384000F00AB8204605F1004100F005F8404261EB410138BD00BFD0B50C4B002206460F46FFF7A9FCFFF757FF0446FFF72AFC96
S3FD08009370074B0022FFF7A0FC02460B4630463946FFF7E2FAFFF748FF2146D0BD0000F03D0000F0412DE9F047089D04468C46002B40F083808A42174647D9B2FA82F242B1C2F1200024FA00F09140974040EA010C94404FEA1748230CBCFBF8F61FFA87FE08FB16C143EA014306FB0EF1994209D9FB1806F1FF3080F01981994240F21681023E3B445B1AA4B2B3FBF8F008FB103344EA034400FB0EFEA64509D93C1900F1FF3380F00581A64540F2028102383C4440EA0640A4EB0E0400261DB1D4400023C5E900433146BDE8F08702B9FFDEB2FA82F2002A50D1CB1B4FEA174E1FFA87F80126B3FBFEFC210C0EFB1C3341EA034108FB0CF38B4207D9E5
S3FD0800946879180CF1FF3002D28B4200F2E9808446C91AA3B2B1FBFEF00EFB101143EA014408FB00F8A04507D93C1900F1FF3302D2A04500F2D9801846A4EB080440EA0C40BFE78B4209D9002D00F0B1800026C5E9000130463146BDE8F087B3FA83F6002E4AD18B4202D3824200F2B880841A61EB030101208C46002DA8D0C5E9004CA5E7C2F1200320FA03F6974001FA02F04FEA174ED9403043030CB1FBFEF61FFA87F80EFB161143EA014306FB08F1994204FA02F409D9FB1806F1FF3C80F08D80994240F28A80023E3B445B1A81B2B3FBFEF00EFB103341EA034100FB08F38B4207D9791800F1FF3C73D28B4271D902383944CB1A40EA064678E7A8
S3FD08009560C6F1200C03FA06F422FA0CF31C4320FA0CF701FA06F34FEA144E21FA0CF11F433B0CB1FBFEF91FFA84F80EFB191143EA014109FB08FA8A4502FA06F200FA06F308D9611809F1FF3048D28A4546D9A9F102092144A1EB0A01BFB2B1FBFEF00EFB101147EA014700FB08F8B84507D9E71900F1FF312ED2B8452CD90238274440EA0940A7EB0807A0FB02894F45C64649461AD317D05DB1B3EB0E0267EB010707FA0CFCF2404CEA0202F740C5E9002700263146BDE8F0872E4628460BE70646E9E61846FDE64345E5D2B8EB020E69EB04010138DFE70846D2E760468DE78146B9E7664675E730464AE7ACF1020C394413E702383C4424E700BF50
S3FD08009658704700BF4FEA410212F5001215D211D56FF47873B3EB625212D94FEAC12343F0004343EA505311F0004F23FA02F018BF404270474FF00000704750EA013005D111F0004008BF6FF0004070474FF00000704700BF80F0004002E000BF81F0004142001FBF5FEA410392EA030F7FEA226C7FEA236C6AD04FEA1262D2EB1363C1BFD218414048404140B8BF5B42192B88BF704710F0004F40F4000020F07F4018BF404211F0004F41F4000121F07F4118BF494292EA030F3FD0A2F1010241FA03FC10EB0C00C3F1200301FA03F100F0004302D5494260EB4000B0F5000F13D3B0F1807F06D340084FEA310102F10102FE2A51D2B1F1004F40EB1B
S3FD08009750C25008BF20F0010040EA03007047490040EB0000013A28BFB0F5000FEDD2B0FA80FCACF1080CB2EB0C0200FA0CF0AABF00EBC25052421843BCBFD0401843704792F0000F81F4000106BF80F400000132013BB5E74FEA41037FEA226C18BF7FEA236C21D092EA030F04D092F0000F08BF0846704790EA010F1CBF0020704712F07F4F04D1400028BF40F00040704712F100723CBF00F50000704700F0004343F0FE4040F4000070477FEA226216BF08467FEA23630146420206BF5FEA412390EA010F40F4800070474FF0000304E000BF10F0004348BF40425FEA000C08BF704743F0964301464FF000001CE050EA010208BF70474FF00003BA
S3FD080098480AE000BF50EA010208BF704711F0004302D5404261EB41015FEA010C02BF84460146002043F0B64308BFA3F18053A3F50003BCFA8CF2083AA3EBC25310DB01FA02FC634400FA02FCC2F12002BCF1004F20FA02F243EB020008BF20F00100704702F1200201FA02FCC2F1200250EA4C0021FA02F243EB020008BF20EADC7070477BB972B90029BEBF00204FF0004106E008BF00281CBF6FF000414FF0FF30FFF7B7BEADF1080C6DE904CE002909DB002B1ADBFFF74BFDDDF804E0DDE9022304B07047404261EB4101002B1BDBFFF73EFDDDF804E0DDE9022304B0404261EB4101524263EB43037047524263EB4303FFF72DFDDDF804E0DDE906
S3FD08009940022304B0404261EB41017047524263EB4303FFF71FFDDDF804E0DDE9022304B0524263EB43037047D0B5FFF74DF90C4B002206460F46FFF79FF9FFF74DFC0446FFF720F9074B0022FFF796F902460B4630463946FEF7D8FFFFF73EFC2146D0BD0000F03D0000F041D1E90C30184700BF90F8A030ABB9D0F888202AB9102380F8A030D0E926301847D0E923139942F5D8D0F8843033B10A4493428CBF11231023EDE77047CA420CBF1023112380F8A030D0E92630184700BF90F8A8309BB9C26D2AB9102380F8A830D0E928301847D0E918139942F5D8836D33B10A4493428CBF11231023EEE77047CA420CBF1023112380F8A830D0E928300B
S3FD08009A38184700BF07EE900ADFED076AB8EE677AC7EE267AB7EE007A77EE877AC7EE277A17EE900A704700BF00007A44014818F02DBD00BFF823002038B505460B481BF089FB0B4B1C6814B905E024681CB1A388AB42FAD304D105481AF040FB204638BD024800241AF03AFB204638BD242500204425002008B5EFF30583C3F3080363B9EFF311832BB118F001FDBDE808401EF05BBEBDE808401AF0B7BFBDE8084018F0F5BC00BF10B5094C1EF09CFE236813B120461EF0EBFE00220023C4E908230448BDE81040002118F0E1BC00BF002400200823002008B5EFF30583C3F3080363B9EFF311832BB118F0ADFCBDE808401EF02BBEBDE808401AF0DB
S3FD08009B30B3BFBDE8084018F0A1BC00BF30B50D4D83B06B680446002289211BF0FDFD0DF107026B6820468E211BF01AFE9DF807200AB903B030BD6B6820468E211BF0ECFD03B030BD5C0800202DE9F041022982B0804614461F466AD155680E4628468749FEF79AFC002860D085492846FEF794FC48B384492846FEF78FFC002800F0EF8081492846FEF788FC002800F0DA807F492846FEF781FC002800F0E3807C492846FEF77AFC002800F0E0807A492846FEF773FC002800F0D78077492846FEF76CFC002834D10826754C754B2360754D0123E3606268002128461BF0EAFD2068FFF795FF6268012128461BF0E2FD2068FFF78DFF6268022128460E
S3FD08009C281BF0DAFD2068FFF785FF6268032128461BF0D2FD2068FFF77DFFB11E62682846062900F2A880DFE801F0848A6C78727E58000126CBE722685D4940461FF080FC5C4940461FF07CFC5B4940461FF078FC5A4940461FF074FC594940461FF070FC584940461FF06CFC574940461FF068FC564940461FF064FC554940461FF060FC544940461FF05CFC534940461FF058FC524940461FF054FC514940461FF050FC504940461FF04CFC4F4940461FF048FC4E4940461FF044FC4D4940461FF040FC4C4940461FF03CFC002F46D00023C7E90033022002B0BDE8F08100211BF06CFD454B4146454A684608F080FE0020DDE900232060E06097B3F5
S3FD08009D20C7E9002302B0BDE8F08100211BF058FD3D4B4146EAE703211BF052FD3B4B4146E4E701211BF04CFD394B4146DEE702211BF046FD374B4146D8E703211BF040FD354B4146D2E702211BF03AFD334B4146CCE70426154C324B23601023314DE3603FE70220BAE7384602B0BDE8F081032631E70526EEE70726ECE70626EAE701211BF01EFD284B4146B0E700BFBCF60208C4F60208CCF60208D4F60208DCF60208E4F60208ECF60208F4F602085C0800205009002044090020FCF7020810F802081CF8020824F8020848F8020850F8020874F802087CF80208A0F80208A8F80208CCF80208D4F80208F8F8020800F9020824F902082CF902084F
S3FD08009E1850F9020858F90208DCF70208E80800205CF702089CF702087CF70208BCF702081CF702083CF702084C0900203C090020FCF6020870B51B4C04F11005E161C0E901524FF080432669DD680660322A38BF322215F002057060206101EB02001BD1022658631D61DE60586A401A824200D970BD3220DD680130AD0701EB00060ED55E635D6A6D1AAA42F4D93228F0D9E36A43F00103E36270BD03481EF0A9FB03481EF0A6FB202D00202C0E0308700E030838B505460C461EF0A5FC002D43D02B78043B012B3FD86B6ADA68920736D0DA6892073BD1186910F003002ED0D3F8C011D3F8C421D3F8C801D3F8CC51206120206561186118698507DC
S3FD08009F1003D1586940F0100058612079C1F340031B01C1F3800520F0300043EA45130343980623712AD5A368C90861F31C03A3602379110A62F30303120C237121706280002038BD1A699507C5D1012038BD0E481EF052FBD3F8B011D3F8B421D3F8B801D3F8BC51206120206561D860D8688007CBD1586940F002005861C6E72389490D61F30A032381D3E77C0E0308426A0B7870B4946813F0200FC4F30164C3F3001318D048685B0043EAC00343F00403D1E90265087802EB041243F0010300F00F00C2F88401C2F88861C2F88C5170BCC2F88031704788885B0043EA4053E7E700BF224B8260F0B40226012503F1200480F82650046186845E6ACF
S3FD0800A008C16103F1380100F1100500248842C0E90563C0E90F44426435605D6227D0D9688162CB6A13B15C6CA24219D30363C8621149CA68002300F138074FF0FF36002400250132C0E9164587638664C0E91333F0BCCA60C36243657047596C8A4203D21C461B6B002BF8D103632063E0E71C669C66DDE7202D00201830002008B51EF0C9FB074B1868984208D002681A6000215360BDE8084041631EF000BC08BD00BFFC08002070B40D4D05F11006EC68334605E013F8011B10F8012B914206D1A342F7D3007810B9EE6070BC7047044BAB6040F20112AA80012070BC7047283000207CF902084FF08043091A5B6A181A884201D200207047044BFA
S3FD0800A100044A9A6040F201129A800120704700BF2830002090F9020808B507EE900A2DED028BFBEECB7A9FED098A094B67EE887A002908BF194617EE900A884707EE900A87EE880ABDEC028B08BD00BF0000C842D5A70208F8B5302383F3118818F094FF1EF046FD694A1078431E012B00F2CB80674951604C68946000230128D3607CD0D069036043638363C3630364436250690D68B0FBF5F35F1EB7F5803F80F0A68003FB05F3984240F0A180CD68D669C86AB76205F00F03013C012BF462706077D0022B76D000234C6904F00F00012803D0022803D143F0200343F01003C86900F00F07012F03D0022F03D143F4007343F480734F6A07F00F0C9C
S3FD0800A1F8BCF1010F04D0BCF1020F03D143F4005343F4805392F818C0BCF1000F50D005F0F005102D03D0202D03D143F0080343F0040304F0F004102C03D0202C03D143F0800343F0400300F0F00010284BD0202847D007F0F007102F03D0202F4DD143F40043486B43F48043336220F0FF000124002374613361F0600B6B43F40043736427E0264BD569186C40F002001864186E40F002001866186E186A40F002001862186A20F0020018621B6A1D4B536146F66800A861E8616EE7002343F0010386E7496B336221F0FF0301217161C6F810C0F36085233360022313701FF0E3FD0020F8BD43F4006307F0F007102F43F48063B3D1B6E70B481EF036
S3FD0800A2F08BF9486B3362012420F0FF03002074613061F360B4E706481EF07EF920170020040900200038024000BD01053C0E03084C0E030808B5302383F3118818F0ACFE1EF05EFC124B1A78511E01291DD8022A08D0012100221970DA605A60BDE808401FF0A4BDDA69187E00211160D160116100B15164074A116C21F002011164116E21F002011166126EE3E703481EF044F92017002000380240680E030870B5302305460C46164683F3118818F075FE1EF027FC1EF03BFA002D52D02B78022B4DD103232B702378686AAE600122C5E903240BB140F48070D5E9073212686188D660516010601068256AE66840F001001060D4E90420013945EA13
S3FD0800A3E8015100251D60D860A0691861A08B5862E08B9862D4E9095046F08066D96246F4807651001D6358635E6010D442F4407242F001029A601EF0D3FB18F00BF9104B1A689A4213D1002383F3118870BD22F0804140F2033021F002010143024399609A60E8E7052BAFD006481EF0D9F8D96893688A689A42E6D203481EF0D1F800BF202D00208C0E0308180D030870B5302383F31188244C18F003FE1EF0B5FBA3682068002B17DBA0423AD15A1C002A8260C8BF836013DD1EF06FF91C4D00241EF08FFB18F0C7F82B68AB4221D1002383F31188204670BDA04222D00133A360036823605C601EF0EAF9A3680022013B93424263A360DFDA0D4DEA
S3FD0800A4E0EE6834606368736005201E60746366601EF0BAFB746BD6E7EA689B6892689A42D8D205481EF080F804481EF07DF800BFFC300020202D00203C0D03081C0E030838B504460D46302383F3118818F0ACFD1EF05EFB1EF072F9A368002B236811DB9C4208BFA56025D11EF01AF91EF03CFB18F074F8114B1A689A4213D1002383F3118838BD9C4215D0A5606FF001056068436863601C601EF095F9456323689C42F5D1E1E7D96893688A689A42E6D204481EF03AF803481EF037F800BF202D00203C0D0308CC0D030870B53023064683F3118818F069FD1EF01BFB1EF0CFF81E4B9A68002A14DB1C689C4232D1551E002DA56012DB194C0025DB
S3FD0800A5D81EF0F6FA18F02EF82368A34218D1002383F31188284670BD196899421DD0511E9960AEB10F4CE26813605868506053633146026005205A601EF0A6FB0546DFE7E2689B6892689A42E1D207481DF0F0FF044C9A604FF0FF35D2E704481DF0E8FFFC300020202D00203C0D0308FC0D030808B5302383F3118818F01AFD1EF0CCFA0E4B1868984205D002681A60536000211EF09CF81EF0ACFA17F0E4FF084B1A689A4203D1002383F3118808BDD96893688A689A42F6D203481DF0BAFFFC080020202D0020480D030870B5302383F311880F4C18F0EDFC1EF09FFAE5681EF0B2F80023EE6BEB631EF083FA17F0BBFF2368A34204D1002383F318
S3FD0800A6D01188304670BDE2689B6892689A42F5D202481DF091FF00BF202D0020540D030870B5144C3023E56883F3118818F0C4FC1EF076FAEE6B6EB10023EB631EF05CFA17F094FF2368A3420CD1002383F31188304670BD4FF0FF336B630A201EF09CFAEE6BE9E7E2689B6892689A42EDD202481DF062FF202D0020540D030838B5154C3023E56883F3118818F096FC1EF048FAEB6B03F00502052A05D005236B630B201EF07AFAEB6B23F00503EB631EF024FA17F05CFF2368A34204D1002383F31188052038BDE2689B6892689A42F5D202481DF032FF202D0020540D030810B53023044683F3118818F067FC1EF019FA1EF02DF8236813B12046C7
S3FD0800A7C81EF07CF800220023C4E908231EF0F8F917F030FF084B1A689A4205D1002383F31188C4E90C3310BDD96893688A689A42F4D202481DF004FF202D0020A80D030800B170470EB400B582B004AA0649074801921EF0D9FA6FF001001FF02FF902B05DF804EB03B07047A4F902084825002070B50446003886B018BF01200D4616460B490C4A7A23FFF7DBFFA1880296002320688DF81550CDE9003341F050017724022305AA8DF814401AF0B4FC06B070BDA4F90208C4F902082DE9F043DFF86C90DFF86C800446003887B00D461E4618BF01204146174657234A46FFF7B1FF2068003818BF01204A4641465823FFF7A8FF4A46414659230120CD
S3FD0800A8C0FFF7A2FF3F88A1880296002320688DF81670CDE900333E0A41F04001032305AA8DF815608DF814501AF078FC07B0BDE8F08300BF08FA0208A4F90208F0B50E4687B017461D46044618B10068003818BF01200E4A0E494423FFF776FF281E18BF01200A4A0A494523FFF76EFF0C9B0095CDE901730DF1170220688DF8176001235A211AF04BFC07B0F0BD00BF48FA0208A4F902082DE9F04387B004AF8846BD6A14469946064618B10068003818BF0120144A15495823FFF747FF124A124959230120FFF741FF04F1080303F4FC73ADEB030D4946631C22460DF111007B608DF81080FDF7E5FC029500217B68306804AACDE900115A211AF040
S3FD0800A9B811FC0C37BD46BDE8F08300BF48FA0208A4F9020838B50D46044620B163681B682B60002038BD0848084A90F8F0350849022B08BF00F20C60CD231EF0B9FD6FF001001FF043F8E9E74825002088FA0208ACFA020838B5836804460BB14368E3B1114D124A95F8F0351149022B08BF05F20C6041F2490318BF28461EF099FD6FF001001FF023F8238CD5F81026626043F004032384C5F8104638BD028CA3F582731A42DDD1004DEEE748250020C8FA0208ACFA0208F0B5A04CA04BC4F8C83783B004F5FA630022C4F8D0379D48C4F8CC270DF1070118F0E0FC9DF80730012B11D094F8F035974A9849022B08BF04F20C6040F2092318BF204611
S3FD0800AAB01EF05AFD6FF001001EF0E4FF91480DF1070118F0C5FC9DF807307BB194F8F0358A4A8B49022B0CBF8B48854840F20B231EF042FD6FF001001EF0CCFF87480DF1070118F0ADFC9DF807307BB194F8F0357E4A7F49022B0CBF7F48794840F20F231EF02AFD6FF001001EF0B4FF7C480DF1070118F095FC9DF807307BB194F8F035724A7349022B0CBF73486D4840F213231EF012FD6FF001001EF09CFF714C72487249734B0022226000250024C1E9004502601B60302787F311886E4E6E4C6F4D18F08AFA1EF03CF8336803F00F0304EBC30244F83350566012F01CF887F3118818F07AFA1EF02CF85A4B31681B793B40102B21F00F0001F0B4
S3FD0800ABA80F0100F09380202B00F08E80BB420CBF0322002217F014F8302711F0FFFF87F31188594E18F05CFA1EF00EF8336803F00F0304EBC30244F83350566011F0EEFF87F3118818F04CFA1DF0FEFF404B31681B793B40102B21F00F0001F00F016BD0202B6BD0BB420CBF0322002216F0E8FF302711F0D3FF87F31188444E18F030FA1DF0E2FF336803F00F0304EBC30244F83350566011F0C2FF87F3118818F020FA1DF0D2FF2F4B31681B793B40102B21F00F0001F00F013DD0202B43D0BB420CBF0322002216F0BCFF302711F0A7FF87F311882F4E18F004FA1DF0B6FF336803F00F0304EBC30244F83350566011F096FF87F3118818F0F4F936
S3FD0800ACA01DF0A6FF1A4B31681B793B40102B21F00F0001F00F010FD0202B15D0BB420CBF0322002216F090FF11F07CFF03B0F0BD022273E7012271E70122F3E70122C5E7012297E7022295E70222EBE70222BDE7482500200000101210100308E4FA020800FB020808100308542B00201810030820100308E424002080180020D82400207C1800206C08002030240020E99A010870080020740800207808002030B585B00A469DF80030BDF8044002F03F0523F03F032B4301466FF30A0402A88DF80030ADF80440FDF704FB69460022044818F0EDFCA0F10300B0FA80F0400905B030BD000800200EB410B5044683B070B106AA0F49019220461EF01B
S3FD0800AD981BF80E4920461EF0E3FB03B0BDE8104003B070470A480B4A90F8F0350A49022B08BF00F20C60BE231EF0D2FB6FF001001EF05CFEDFE700BF38FB020898640308482500201CFB0208ACFA0208002908BF322870B504460D46164610D20F48104A90F8F0350F49022B08BF00F20C604FF492731EF0ADFB6FF001001EF037FE0A480A4BC662C0E9084500240025C0E90645BDE87040836208F02BBE00BF4825002064FB0208ACFA020800240020659A00082DE9F04F2DED048B0329BBB00F460446164607D10122314638460EF009FE054600283BD03268154920461EF079FB144920461EF075FB134920461EF071FB124920461EF06DFB114992
S3FD0800AE9020461EF069FB104920461EF065FB3146384601220EF0E8FD012805D002203BB0BDEC048BBDE8F08F00203BB0BDEC048BBDE8F08F80FB0208A0FB0208ACFB0208F8FB020824FC020834FC0208000070420024744970681FF09FFCFEF7B5F908EE100AB0681FF098FCB5EEC08AF1EE10FAD4D95FED0A7AB4EEE78AF1EE10FACDDCFEF7A2F907EE900AF5EEC07AF1EE10FAC4D9F7EE006A86EEA77A5FED138A67EE287AB6EE009A77EE897A17EE900AFEF713FD002908BF322806460F46AED3DFF864A3C748DFF8608335A94FF0FF334FF4807219F04DFEDAF844342D93DAF84C342393DAF854341593DAF8AC34DAF84024319308F59B6BDAF8E7
S3FD0800AF88B4342C922993DAF84824DAF8BC34229208F59C69DAF850241993DBF8003014922093DAF8A824DBF8043030922193DAF8B024D9F8003028921E93DAF8B824D9F8043018921F93DAF810331C93DAF814331D93D8F810331A93D8F814331B93DAF890332E93DAF894332F93DAF898332493DAF89C332593DAF8A0331693DAF8A4331793DAF8E8332A93DAF8EC332B93DAF8F0332693DAF8F4332793DAF8F8331293DAF8FC331393302383F3118818F028F81DF0DAFD394604223046FFF7CFFE32A808F0E2FC68EE288A884F894E78EE897A17EE900AFEF784FC329BFD62C018339BB86143EB0101002200233846F9618149B962C7E9082308F0EE
S3FD0800B08003FD1DF0A1FD17F0D9FA3368B34240F06783002383F3118840F2011019F09CFC35A90546724819F077FD15F0FF0F40F05083302383F3118817F0E6FF1DF098FD32A808F0A5FC329B6D49339A5B184FF0000141EB020232A8CDE9323208F098FD1DF072FD17F0AAFA3368B34240F04183002383F3118823680A21DB6820469847604920461EF030FADAE9C4231C985E49121A1D9863EB000320461EF025FA5B4920461EF021FAD8E9C4231A985649121A1B9863EB000320461EF016FA544920461EF012FADBE90032209852491B1A1093219BD9E9005662EB030311931E9BDDE91078ED1A1F9B3A4666EB0306204643461EF0FAF92A46334668
S3FD0800B178474920461EF0F4F93A464346134340F07481444920461EF0EBF9DAE9E632249841491B1A0093259B179862EB0303DAE9E8560193169BEB1A66EB000008930990DDE900232046DAE9E278DAE9E49B1EF0CFF9DDE90823354920461EF0C9F9DDE90023134340F0E780DFED318AC8EE887A17EE900AFDF70CFD02460B4620462D491EF0B6F92C4920461EF0B2F9DAE9FC32269825491B1A0293279B139862EB0303DAE9FE560393129BEB1A66EB00000A930B90DDE902232046DAE9F878DAE9FA9B1EF096F9DDE90A23184920461EF090F9DDE90223134340F0BB81DFED158AC8EE887A17EE900AFDF7D3FC02460B46204610491EF07DF925E0F0
S3FD0800B2700823002010230020202D0020DD9A0008A086010074FC020884FC020894FC0208A4FC0208B0FC0208C4FC0208F0FC020800FD020814FD020800000000A0FD0208B8FD020898180020181E0020AF4920461EF052F9AE4AAF48AF49DAF83874DAF83C84D2E90032D0E9009B22981B1A0493239B1598D1E9005662EB03030593149BA649EB1A66EB00000C930D90DDE9042320461EF031F9DDE90C23A14920461EF02BF9DDE90423134340F0CD80DFED9D8AC8EE887A17EE900AFDF76EFC06460F4632463B46984920461EF016F9974920461EF012F99648974A9749DAF8A094DAF8A4A4D0E900B0D2E90032009028981B1A0693299B1998D1E987
S3FD0800B368005862EB03030793189B8649EB1A68EB00000E930F90DDE9062320461EF0F0F8DDE90E23804920461EF0EAF8DDE90623134340F077817E4932463B4620461EF0DFF800207FE5DDE90001FEF743FA0346DDE9080108EE903AFEF73CFA07EE900A87EEA87AF7EE007A77EEC77A9FED7B7A67EE877A17EE900AFDF712FC02460B46204670491EF0BCF8DDE90823DDE900018B4208BF8242BFF4F1AE3A466A4920461EF0AEF84246694920461EF0A9F82E9BB9EB03002F9B6BEB0301FEF70BFADDE900BC169A0346BBEB05006CEB06018018179A41EB0202114609EE103AFEF7FAF907EE900AC9EE277A17EE900AFDF7D8FB02460B462046564916
S3FD0800B4601EF082F85549A8EB070220461EF07CF8B8E631462846FEF7E1F90346DDE9100108EE903AFEF7DAF907EE900A88EEA77AF7EE007A77EEC77A9FED4A7A67EE877A17EE900AFDF7B0FB02460B46204644491EF05AF869E6DDE90401FEF7BFF90346DDE90C0108EE903AFEF7B8F907EE900A87EEA87AF7EE007A77EEC77A9FED397A67EE877A17EE900AFDF78EFB02460B4620462E491EF038F8DDE90C23DDE904018B4208BF8242BFF40BAF3A46284920461EF02AF84246274920461EF025F82C9BB9EB03002D9B6BEB0301FEF787F9DDE904BC149A0346BBEB05006CEB06018018159A41EB0202114609EE103AFEF776F907EE900AC9EE277AF4
S3FD0800B55817EE900AFDF754FB02460B46204614491DF0FEFF1349A8EB070220461DF0F8FFD2E600BFC8FD0208E01C0020D81C0020E81C002000FD020814FD020800000000A0FD0208D8FD0208401D0020481D0020501D002028FD020840FD020858FD020870FD020888FD0208D8FC02080000C842DDE90201FEF736F90346DDE90A0108EE903AFEF72FF907EE900A87EEA87AF7EE007A77EEC77A1FED0B7A67EE877A17EE900AFDF705FB02460B4620465E491DF0AFFFDDE90A23DDE902018B4208BF8242BFF41DAE3A46594920461DF0A1FF4246574920461DF09CFF2A9BB9EB03002B9B6BEB0301FEF7FEF8DDE902BC129A0346BBEB05006CEB0601CF
S3FD0800B6508018139A41EB0202114609EE103AFEF7EDF807EE900AC9EE277A17EE900AFDF7CBFA02460B46204644491DF075FF4449A8EB070220461DF06FFFE4E5DDE90E01FEF7D4F80346DDE9060108EE103AFEF7CDF807EE900A88EE277AF7EE007A77EEC77A9FED387A67EE877A17EE900AFDF7A3FA02460B4620462D491DF04DFFDDE90E23DDE906018B4208BF8242BFF45FAE4A46284920461DF03FFF5246264920461DF03AFF309B319ABBEB0300009B63EB0201FEF79BF8DDE906BC189A0346BBEB05006CEB08018018199A41EB0202114608EE103AFEF78AF807EE900AC8EE277A17EE900AFDF768FA02460B46204613491DF012FF1249AAEBBC
S3FD0800B748090220461DF00CFF25E6F068294619F09FF98020FFF7A7BBF2689B6892689A42BFF493AC0A481CF04BFFF2689B6892689A42BFF4B9ACF5E728FD020840FD020858FD020870FD020888FD02080000C842780D03082DE9F04F2DED048B0329B1B00F460446154607D10122294638460EF05FF9064600283BD02A68154920461DF0CFFE144920461DF0CBFE134920461DF0C7FE124920461DF0C3FE114920461DF0BFFE104920461DF0BBFE2946384601220EF03EF9012805D0022031B0BDEC048BBDE8F08F002031B0BDEC048BBDE8F08F80FB0208A0FB0208ACFB0208F8FB020824FC0208E8FD0208000070420024744968681EF0F5FFFDF718
S3FD0800B8400BFD08EE100AA8681EF0EEFFB5EEC08AF1EE10FAD4D95FED0A7AB4EEE78AF1EE10FACDDCFDF7F8FC07EE900AF5EEC07AF1EE10FAC4D9F7EE006A86EEA77A5FED138A67EE287AB6EE009A77EE897A17EE900AFEF769F8002908BF322880468946AED3CC4DCC48CD4FDFF87CA305F5866B2BA94FF0FF334FF4807219F0A1F9DBF800302093DBF804302193D5F83C341F93D5F810330E93D5F814330F93D5F858332493D5F85C332593D5F860331293D5F864331393D5F898332693D5F89C332793D5F8A0331493D5F8A4331593D5F8E033D5F838242293D5F8E4331E922393D5F8E8331893D5F8EC331993D7F810331093D7F814331193D7F823
S3FD0800B93838331693D7F83C331793D7F840330A93D7F844330B93DAF8A0301A93DAF8A4301B93DAF8A8301C93DAF8AC301D93302383F3118817F08CFB1DF03EF9494602224046FFF733FA28A808F046F868EE288ADFF8A092DFF8A08278EE897A17EE900AFDF7E6FF289BC9F82C60C018299BC9F8180043EB0101002200234846C9F81C108949C9F82810C9E9082308F061F81DF0FFF816F037FED8F80030434540F0DB82002383F3118840F2011018F0F9FF2BA906467B4819F0D4F816F0FF0F40F0C482302383F3118817F043FB1DF0F5F828A808F002F8289B7549299A5B184FF0000141EB020228A8CDE9283208F0F5F81DF0CFF816F007FED8F8F8
S3FD0800BA300030434540F0D482002383F3118823680A21DB6820469847674920461DF08CFDD7E9C42310986549121A119863EB000320461DF081FD624920461DF07DFDD5E9C4230E985D49121A0F9863EB000320461DF072FD5B4920461DF06EFDD7E9CE32169859491B1A0093179B0B9862EB0303D7E9D06701930A9BB6EB030967EB0008DDE9002320461DF057FD4A4643464F4920461DF051FDDDE90023134340F09F81DDE900120A9B881B62EB0701C0180B9B41EB03031946FDF7A9FE07EE900AC7EE887A17EE900AFDF787F802460B4620463F491DF031FD3F4920461DF02DFDDAE928321A983C491B1A08931B9B1D9862EB0303DAE92A670993F9
S3FD0800BB28DDE908891C9BF61A67EB000742464B4620461DF015FD3B463249324620461DF00FFD58EA090340F03C81DFED2F8AC8EE887A17EE900AFDF753F802460B4620462A491DF0FDFC2A4920461DF0F9FCD5E9D832129827491B1A0293139B62EB03030393DDE902232046D5E9D467D5E9D6891DF0E6FCDDE90201FDF74CFE09EE100A89EE287ADFED1C7A67EE277A17EE900AFDF726F802460B46204618491DF0D0FCDDE90223134340F0B1812FE0181E00200823002098180020DD9A0008A086010074FC020884FC020894FC020828FE020834FE020844FE020868FE020880FE020888FE02089CFE020800000000B0FE0208C8FE0208DCFE0208A3
S3FD0800BC200000C84228FD02084023002010230020202D0020C9EE087A17EE900AFCF7E4FF02460B462046D7491DF08EFCD64920461DF08AFCD5E9E8321498D4491B1A0493159B62EB03030593DDE904232046D5E9E467D5E9E6891DF077FCDDE90401FDF7DDFD09EE100A89EE287ADFEDC97A67EE277A17EE900AFCF7B7FF02460B462046C4491DF061FCDDE90423134340F01C81C9EE087A17EE900AFCF7A6FF02460B462046B8491DF050FCBB4920461DF04CFCD5E9FA321898B5491B1A0693199B62EB03030793DDE906232046D5E9F667D5E9F8891DF039FCDDE90601FDF79FFD09EE100A89EE287ADFEDAA7A67EE277A17EE900AFCF779FF024640
S3FD0800BD180B462046A5491DF023FCDDE90623134340F0B880C9EE087A17EE900AFCF768FF02460B46204699491DF012FC9D4920461DF00EFC9C4A1E989649D5F82864D5F82C54D2E900321B1A0C931F9B62EB03030D93DDE90C9A20464A465346DBE900781DF0F6FB51464846FDF75CFD09EE100A89EE287ADFED887A67EE277A17EE900AFCF736FF0B460246844920461DF0E0FB59EA0A0351D1C9EE087A17EE900AFCF727FF02460B46204678491DF0D1FB00201BE5DDE90801FDF735FD39460346304608EE903AFDF72EFD07EE900A87EEA87AF7EE007A77EEC77A9FED6F7A67EE877A17EE900AFCF704FF02460B4620466F491DF0AEFBA3E6414641
S3FD0800BE104846FDF713FD0346DDE9000108EE903AFDF70CFD07EE900A88EEA77AF7EE007A77EEC77A9FED5E7A67EE877A17EE900AFCF7E2FE02460B4620465F491DF08CFB3EE632465D4920461DF086FB2A465C4920461DF081FB209BF81A219B68EB0301FDF7E4FC07EE900AC7EE897A17EE900AFCF7C2FE02460B46204652491DF06CFB5149AA1B20461DF067FB88E732464B4920461DF061FB3A46494920461DF05CFB229BB8EB0300239B69EB0301FDF7BEFC07EE900AC7EE897A17EE900AFCF79CFE02460B4620463F491DF046FB3E49BA1B20461DF041FB21E73246384920461DF03BFB3A46364920461DF036FB269BB8EB0300279B69EB030104
S3FD0800BF08FDF798FC07EE900AC7EE897A17EE900AFCF776FE02460B4620462C491DF020FB2B49BA1B20461DF01BFBBDE63246254920461DF015FB3A46234920461DF010FB249BB8EB0300259B69EB0301FDF772FC07EE900AC7EE897A17EE900AFCF750FE02460B46204619491DF0FAFA1849BA1B20461DF0F5FA59E6D8F80C00314618F087FD802039E4D8F80C209B6892689A42BFF41EAD0F481CF033FB00BFA0FD0208F0FE0208DCFE02080000C84228FD020804FF020818FF020850220020D8FC020854FE020840FD020858FD020870FD020888FD0208780D0308D8F80C209B6892689A42BFF425ADD5E72DE9F04F2DED048B032989B00E460446F3
S3FD0800C000154606D10122294630460DF035FD074658B32A687D4920461DF0A6FA7C4920461DF0A2FA7B4920461DF09EFA7A4920461DF09AFA794920461DF096FA784920461DF092FA2946304601220DF015FD012805D0022009B0BDEC048BBDE8F08F002009B0BDEC048BBDE8F08F68681EF0DCFBFDF7F2F808EE100AA8681EF0D5FBB5EEC08AF1EE10FAE4D9DFED667AB4EEE78AF1EE10FADDDCFDF7DFF807EE900AF5EEC07AF1EE10FAD4D9F7EE006A86EEA77A9FED5D9A67EE097AF6EE008A77EEA87A17EE900AFDF750FC002908BF322880468946BED3554E564803A94FF0FF334FF4807218F08DFDD6E9C4AB302383F3118816F0CAFF1CF07CFD7D
S3FD0800C0F8012240464946FEF771FE684607F084FC28EE098A494DDFF83C8178EE287A17EE900AFDF725FC009BEF62C018019BA86143EB0101002200232846E9614049A962C5E9082307F0A4FC1CF042FD16F07AFAD8F8003043454CD1002383F3118840F2011018F03DFC03A90546334818F018FD15F0FF0F36D1302383F3118816F088FF1CF03AFD684607F047FC009B2D49019A5B184FF0000141EB02026846CDE9003207F03AFD1CF014FD16F04CFAD8F80030434527D1002585F3118823680A21DB6820469847204920461DF0D2F9D6E9C423B2EB0A021D49204663EB0B031DF0C8F928463BE7D8F80C00294618F059FC802034E7D8F80C209B68E7
S3FD0800C1F092689A42ACD214481CF006FAD8F80C209B6892689A42D1D2F5E700BF80FB0208A0FB0208ACFB0208F8FB020824FC02082CFF02080000704200247449981800200823002010230020DD9A0008A086010074FC020884FC0208780D0308202D0020F0B50F4687B01546044668B3244B0194002604F536722046039705950096029204931AF05BFB80BBDDE90131552203F8012B9942FBD8302383F3118816F0FCFE1CF0AEFC68461CF0D3FA04461CF094FC16F0CCF9134B1A689A4219D1002383F31188204607B0F0BD0F48104A90F8F0350F49022B08BF00F20C60A7231DF04CF96FF001001DF0D6FBC0E70A481CF094F9D96893688A689A42B5
S3FD0800C2E8E0D207481CF08CF9F5D30008202D00204825002068FF0208ACFA0208E40D0308300D0308436870B505460C467BB11648164A90F8F0351649022B08BF00F20C608B231DF01DF96FF001001DF0A7FB04F1080630466C6018F025FFA36DEB615B682B6204F1180005F108014FF0FF33022218F052FCD4F8B03001333046C4F8B030BDE8704017F0D2BE482500209CFF020800FB0208D0B5C0E90C23D1E900670446302383F3118816F07BFE1CF02DFC104BA36200210020C4E90801C4E906672046E46207F06DFB1CF00BFC16F043F9094B1A689A4203D1002383F31188D0BDD96893688A689A42F6D203481CF019F900BFA9990008202D00202C
S3FD0800C3E0A80D0308F0B5036C83B0044693B14068D3F89410856DD3F89820D5E90267761847F10007CDE90067683072B10A4A6946FFF7B4FF94F8A0302BB9122384F8A030D4E92630984703B0F0BD044A12236946FFF7A4FFEEE700BFE5C3000865C6000838B50C46054648B1092C02D00F2C00D038BD2846BDE838401DF03EBB0848094A90F8F0350849022B08BF00F20C60BA231DF07AF86FF001001DF004FBE4E700BF4825002068FF0208ACFA0208036CB3B18B4234BF00230123426C72B110B4D0E91240844205D88C420BD20C1BA24208D2002318465DF8044B7047184670470123EAE78842F5D9411A8A4238BF0023F0E72DE9F043054683B051
S3FD0800C4D800286BD04068002868D005F10801183018F056FB6868083018F04CFE05F14800FEF758F96868046E0023A542C5F880307DD0504EDFF848814F4F01E0002C60D02346246CAC42F9D12A6C1A6469682A6A8B6D5B6800269A4208462E642AD0EC69444FDFF81C91DFF810812468A3698BB997F8F035022B414640F2E9434A46384608BF3E481DF004F86FF001001DF08EFAA3696968D1F858C0A26A013B002B02F1FF3208BF0126A445A361A2620846DCD1002E37D1C269D0F8B030013A013BC261C0F8B030083017F0B9FD0020C5E90700C5E92600686003B0BDE8F0832548284A90F8F0352449022B08BF00F20C6040F2AA431CF0CDFF6FF08A
S3FD0800C5D001001DF057FA686883E796F8F035022B304640F2DB4308BF1A48424639461CF0BBFF6FF001001DF045FA8DE7203018F01BFC6868C2E72B6C0366A3B1D3F894308BB1816DD5F89820D1E90267F61847F10007CDE9006768304AB10C4A2B466946FFF7A4FE76E76830FEF7B8F872E7084A12236946FFF79AFE6CE700BF4825002000FB0208542B00209CFF0208E5C3000865C6000838B5044680B92E482E4A90F8F0352E49022B08BF00F20C6040F231131CF072FF6FF001001DF0FCF9EFF30583C3F3080333BB264BDB681BB39D68EFF31183002B39D0234B1A7882B322480121FDF7FCF9AB1EFC2B10D91A481A4A90F8F0351E49022B08BF22
S3FD0800C6C800F20C6040F249131CF04AFF6FF001001DF0D4F9EFF3118383B138BD134B1A7832B91C70BDE8384011480121FDF7DAB9BDE838400E480121FDF7D4B92846BDE838401DF02BBA0A481C700121FDF7CAF9CCE7BF201DF022FAC1E700BF48250020DCFF020800FB0208202D00203C25002020250020ACFA020870B50E4615460446A8B1D4F898303BB394F8A02042B115B1284618F06DFB3046BDE8704017F0D6BC1122D4F89C0084F8A0209847EFE70C480C4A90F8F0350C49022B08BF00F20C6040F223331CF0ECFE6FF001001DF076F9D4F89830002BD7D11120FFF75FFFD6E7482500209CFF020800FB020838B5044628B3406818B304F168
S3FD0800C7C00801183018F0E8F96068083018F0DEFC6068256A816DD0F8B0304A68013B9542C0F8B03007D0E3691B689A6A994202F1FF329A62F8D1083017F08CFC0023C4E90733636038BD0948094A90F8F0350949022B08BF00F20C604FF4BD731CF0A4FE6FF001001DF02EF96068C8E7482500209CFF020800FB020810B5044630B1436823B12046FFF7B6FF002010BD0A480B4A90F8F0350A49022B08BF00F20C6040F2E9231CF081FE6FF001001DF00BF92046FFF7A0FF002010BD482500209CFF020800FB020810B5044630B1436823B12046FFF790FF002010BD0A480B4A90F8F0350A49022B08BF00F20C6040F237231CF05BFE6FF001001DF061
S3FD0800C8B8E5F82046FFF77AFF002010BD482500209CFF020800FB020810B5044630B1436823B12046FFF76AFF002010BD0A480B4A90F8F0350A49022B08BF00F20C604FF4F1731CF035FE6FF001001DF0BFF82046FFF754FF002010BD482500209CFF020800FB020838B50D46044688B1D4E90C23D4E90A01521943F100038842C4E90C2301D8A84200D9A562A94238BFE56238BD0848094A90F8F0350849022B08BF00F20C60AF231CF004FE6FF001001DF08EF8DCE700BF482500209CFF020800FB02082DE9F04F87B0CDE90112DDF8408003930546002800F09F804068002800F09B80083018F0F7FB6B682A6A996D4868824200F0ED80EC69606844
S3FD0800C9B0824200F0E1800C6862681AB924686268002AFBD0734EDFF8D891DFF8D8B10027A2698AB999F8F0356F49022B08BF6F484FF48A635A4618BF48461CF0BDFD6FF001001DF047F86B689B6DA34200F08A80A369013B002BA36108BF0127302383F3118816F039FB1CF0EBF804A806F0F8FF1CF0D2F815F00AFE3368B34240F098804FF0000C8CF31188D4E90223DDE904018B42D5F8803008BF824234BFA0EB020AE246A34233D0B8F1000F01D0C8F800A0A36A013BA36228465146FFF757FFD5E90E32D5F88800013342F10002C5E90E32002840D0D5E92332934233D8534558D9A2EB0A0C60452DD2524503D2AAEB030290422CD2A3696968DC
S3FD0800CAA8002B62D0002228460831FFF745FE112007B0BDE8F08F05F14800FDF773FE0023C5F88030C3E73448344A90F8F0353049022B08BF00F20C604FF486631CF040FD6FF001001CF0CAFF686851E75245C5F88CA004D253469A45C5F890A0CED36B689A6DA24218461FD024685DE763680399C5E9074319B1D4E90223C1E90023019B23B1D4E904121846FBF71EFC029A002A3FF462AF636913605EE75245AAD36B689A6DA2421846DFD1A7B9083017F0DEFA002007B0BDE8F08FF2689B6892689A42BFF462AF0E481BF04BFD01F120029AE7246823E7203018F05BF96868E5E703F1080017F0C3FAE52092E700BF202D002000FB0208542B00205F
S3FD0800CBA0482500209CFF02089C0D03082DE9F04383B08846DDF8289016461F460546002800F09B804068002800F09780083018F0DDFA68682B6A826D51688B4200F00B81E9694868834200F0D180146863681BB9246860680028FBD0A369002B00F090806368C5E907431FB1D4E90223C7E90023B8F1000F04D0D4E904124046FBF7A8FB0EB163693360A369013BA361302383F3118816F029FA1BF0DBFF684606F0E8FE1BF0C2FF15F0FAFC7D4B1A689A4240F0C780002686F31188D4E90223DDE900018B42D5F8803008BF824238BF861AA34268D0B9F1000F01D0C9F80060A36A013BA36231462846FFF749FED5E90E32D5F88810013342F10002D3
S3FD0800CC98C5E90E3211B3D5E92332934215D8B34276D8B2421AD2F21A914213D26A68A36902F10801002B40F0988020322846FFF73BFD112003B0BDE8F083B242C5F88C6004D233469E42C5F89060E7D3A369002B4BD06868083017F011FA002003B0BDE8F0835248524A90F8F0355249022B08BF00F20C6040F27F331CF02AFC6FF001001CF0B4FE686855E74848494A90F8F0354849022B08BF00F20C604FF467731CF017FC6FF001001CF0A1FE5DE76B689B6DA3426CD0D5F888302268C5F880202BBBD5F88470D5F89810D2E90223D21943F10003CDE90023002961D0374A69462B4605F14800FFF7FEFA77E76868203018F057F8AEE70C68A369A9
S3FD0800CD90002B7FF435AFC3E7901B814299D2B24285D387E7D5E923C18C45D5D8D5F8847037B303EB0C008742D0D9D2E90223D5F89810121843F10003CDE900230029D0D105F1480011231F4A6946FFF7CFFA48E7D96893688A689A42BFF433AF1A481BF00BFC002266E7083017F08CF9E52079E7D2E902016344C018D5F8982041F10001CDE90001002AACD1002B0CBF1023112305F14800D7E705F14800FDF7BFFC0023C5F880301DE705F148001023CBE700BF202D0020482500209CFF020800FB0208B199000865C600089C0D03082DE9F0468A4683B0164699460746002871D0406800286ED0083018F089F97868816D4B68002B79D03A6AC36D66
S3FD0800CE889A4275D0FB69BD6B1C68FA6BA36A681C03F1FF33A36242F10003A142C7E90E030FD0023542F100022468A36A2846013B0135A362134642F10002A142F4D1C7E90E036368C7E90743B9F1000F03D0D4E90223C9E90023BAF1000F04D0D4E904125046FBF741FA0EB163693360302383F3118816F0C5F81BF077FE684606F084FD1BF05EFE15F096FB234B1A689A423AD1002383F31188DDE90001D4E902458D4208BF844238BF041B786828BF1C46083017F0ECF821463846FFF7ECFC0A9BF3B101201C6003B0BDE8F0861448144A90F8F0351449022B08BF00F20C6040F22B131CF0FEFA6FF001001CF088FD78687DE7083017F0CBF80020BD
S3FD0800CF8003B0BDE8F086012003B0BDE8F086D96893688A689A42BFD205481BF035FB00BF202D0020482500209CFF020800FB02089C0D0308F0B50D4685B016461F46044668B343685BB303A800903B46324629462046FFF743FF002833D0236C13B1039A934231D3626C92B1D4E912018842039B04D898422FD9CD1AAA4227D39942A364194602D2E1648B4222D88A4220D30A9B13B10A9A039B1360002005B0F0BD1348134A90F8F0351349022B08BF00F20C6040F2A9231CF098FA6FF001001CF022FDC1E7E52005B0F0BD1020E6E7994204D3112005B0F0BD994205D2191A8A4219460346D0D3CEE71946CFE700BF482500209CFF020800FB0208D8
S3FD0800D0782DE9F04182B00D46089F16469846044678B143686BB100974346324629462046FFF7E0FE00280CBFE520002002B0BDE8F0810948094A90F8F0350949022B08BF00F20C6040F222231CF052FA6FF001001CF0DCFCDFE700BF482500209CFF020800FB02082DE9F04182B00D46089F16469846044678B143686BB100974346324629462046FFF7AEFE00280CBFE520002002B0BDE8F0810948094A90F8F0350949022B08BF00F20C6040F2CD131CF020FA6FF001001CF0AAFCDFE700BF482500209CFF020800FB02082DE9F04383B08946DDF8288016461F46044600285AD04068002857D0083018F015F8D4E907325968914261D063689B6D1E
S3FD0800D1701D686B68C4E907531FB1D5E90223C7E90023B9F1000F04D0D5E904124846FBF7EFF80EB16B693360302383F3118815F073FF1BF025FD684606F032FC1BF00CFD15F044FA294B1A689A4246D1002686F31188D5E90223DDE900018B4208BF8242A36BA96A38BF861AE26B6068013301F1FF3142F10002A9620830C4E90E3216F091FF31462046FFF791FBB8F1000F20D0C8F80060012003B0BDE8F0831448154A90F8F0351449022B08BF00F20C60D9231CF0A2F96FF001001CF02CFC606895E76068826D9A429BD1083016F06BFF0020E1E7012003B0BDE8F083D96893688A689A42B3D205481BF0D7F900BF202D0020482500209CFF020841
S3FD0800D26800FB02089C0D0308F0B50D4685B016461F46044670B3436863B303A800903B46324629462046FFF757FF002834D0236C13B1039A934232D3626C9AB1D4E912018842039B04D898422BD9CD1AAA4230D39942A36406D21A469342E26402D9112005B0F0BD0A9B13B10A9A039B1360002005B0F0BD1048114A90F8F0351049022B08BF00F20C6040F25B231CF039F96FF001001CF0C3FBC0E7E52005B0F0BD1020E6E79942DED2191A8A42D8D31A460346D2E79942F7D3D2E7482500209CFF020800FB02082DE9F04182B00D46089F16469846044678B143686BB100974346324629462046FFF7F8FE00280CBFE520002002B0BDE8F0810948B1
S3FD0800D360094A90F8F0350949022B08BF00F20C6040F202231CF0F8F86FF001001CF082FBDFE700BF482500209CFF020800FB02082DE9F04182B00D46089F16469846044678B143686BB100974346324629462046FFF7C6FE00280CBFE520002002B0BDE8F0810948094A90F8F0350949022B08BF00F20C6040F2AD131CF0C6F86FF001001CF050FBDFE700BF482500209CFF020800FB02082DE9F04F2DED028B00F124030446194608EE103A9C484FF0FF3383B0012217F0F5FBA368002B00F0A780E1682046984740F00105DFF8748298F80030002B62D0924EF36893F8259019F004093ED14FF0300A11E0D4E9043220469847D4E90E32013342F1D9
S3FD0800D4580002C4E90E3240F00105F36893F825305B0729D44FF0FF31284617F0B3F9C2070146E5D58AF3118815F002FE1BF0B4FBD4F830B0C4F830901BF09AFB15F0D2F83368B34269D189F311881BF0010F23D11BF0020FD9D060680F21FEF7C5FFF36893F825305B07D5D560680F21FEF7BCFFA36923B198F80010E2692046984718EE101A684817F05CFB002003B0BDEC028BBDE8F04F1CF0CABA60680921FEF7A4FFB3E7624817F046FE218C614B01311B6889B221841BB95AE01B68002B57D01A8C9142F9D001398A422FD15A4B1E687EB3337A6BBB7268009219461A4618463768B847A0F12003DBB2012B40F290805248524A90F8F035524976
S3FD0800D550022B08BF00F20C6067231CF005F86FF001001CF08FFA012333720DE04FF0FF355AE7F2689B6892689A4290D247481BF043F82120FFF76EF83E4816F0C3FD4FF0FF31012017F0DCF8302383F3118815F073FD1BF025FB236B354E23F0040323631BF00AFB15F042F83368B34243D1002383F3118837E7314B1E68002E36D0337A022B22D07368009301232849376818460422B847B8B1202814D0212831D02848284A90F8F0352849022B08BF00F20C6090231BF0B1FF6FF001001CF03BFA02233372B9E701203072B6E71D481D4A90F8F0351D49022B08BF00F20C608B231BF09BFF6FF001001CF025FACBE70F480421FCF734FAA0E7F2686D
S3FD0800D6489B6892689A42B6D294E70223337298F80030002B94D1212388F8003090E721287FF47DAF0223034833720121FCF71AFAEDE700BF20250020202D0020242500203425002040250020482500201400030800FB0208A80D03083C250020036810B5044683B10E480F4A90F8F0350E49022B08BF00F20C604FF48D731BF051FF6FF001001CF0DBF9094817F05CFD084B07481A6822601C6016F019FD002010BD00BF48250020DCFF020800FB02082425002034250020836DB3B18B4234BF00230123C26D72B110B4D0E91840844205D88C420BD20C1BA24208D2002318465DF8044B7047184670470123EAE78842F5D9411A8A4238BF0023F0E7C7
S3FD0800D74010B5044682B00C30019017F01FFDE369019823B9A36A3BB9184602B010BD16F0D9FCF12002B010BD16F0D4FCF32002B010BD00BF10B5044608B323681D4A934232D01D4A934233D01C4A93422ED01C4A934212D01B481C4A90F8F0351B49022B08BF00F20C6040F2A1431BF0DDFE6FF001001CF067F9FF2010BD002010BD1148114A90F8F0351149022B08BF00F20C6040F296431BF0C8FE6FF001001CF052F92368044A9342CCD1032010BD012010BD022010BD8C0F0308780F0308B40F0308A00F0308482500204C00030800FB020838B50D460446E0B1E36D83B1D4E918218A420CD8A16D134429BB5A1C0AD0D4E90801C01841F100017C
S3FD0800D838C5E9000138BDA36D002BF2D14FF0FF324FF0FF33C5E9002338BD0B480B4A90F8F0350B49022B08BF00F20C604FF449731BF07EFE6FF001001CF008F9D0E78B4228BF0B46D5E700BF482500204C00030800FB020810B50446002833D02046FFF76DFF01280CD1E269136A1BB39968C4E901319C60A368002B37D05C60146210BD2046FFF75BFF0228EDD01948194A90F8F0351949022B08BF00F20C6040F2C5131BF046FE6FF001001CF0D0F8E269136A002BDBD1D369002BD8D19369A3B1A3609461DAE70A480B4A90F8F0350A49022B08BF00F20C604FF4E2731BF029FE6FF001001CF0B3F8B9E794615462146210BD482500204C0003088A
S3FD0800D93000FB020838B50D46044688B1D4E91023D4E90E01521943F100038842C4E9102301D8A84200D9A563A94238BFE56338BD0848094A90F8F0350849022B08BF00F20C6040F20B131BF0F7FD6FF001001CF081F8DBE7482500204C00030800FB020838B5044600283ED0E069083017F0F6FB6368002B30D0A2689A60A268E069C169A14227D0056AA54218D0F2B15360D0E90E32013342F10002C0E90E32083016F0A1FBD4E91432013342F100010022C4E91431C4E90122E261A26238BD994214BF194600210162002AE0D14362002BDED09A60DCE7C361D8E7E069A26882619AB153606368CBE70948094A90F8F0350949022B08BF00F20C60E1
S3FD0800DA28C8231BF09DFD6FF001001CF027F8AFE71346B8E7482500204C00030800FB02082DE9F0410D4682B016461F460446002865D004F10C084046002D47D017F092FBE369002B73D0022D45D12046FFF78CFF4FF0F108302383F3118815F001FB1BF0B3F8684605F0C0FF1BF09AF814F0D2FD434B1A689A4274D1002585F31188DDE90001D4E908238B4208BF824238BF851A04F16800FCF776FE0EB1636B336007B13D6029462046FFF731FFB8F1000F20D1E36DF3B1D4E918218A423BD8AA4258D9481B834236D2A94255D33AE017F048FA38B3E3695BB3404616F008FB4FF0F108404602B0BDE8F0811120FEF7A7FD4FF0110800234046A3622B
S3FD0800DB2002B0BDE8F0812148214A90F8F0352149022B08BF00F20C6040F227431BF014FD6FF001001BF09EFF87E74FF0F208404602B0BDE8F0814FF000088FE7A9422566DBD22A4695426566D7D2D4F8A030002BCED094F8A8204FF01108002ACDD1D4F8A40084F8A8809847C7E7D96893688A689A4285D208481AF037FDA942BDD2A91A8B42E2D3DEE700BF202D0020482500204C00030800FB0208900D03082DE9F0410D4682B0174698460446002861D004F10C063046002D40D017F0D8FAE369002B6ED0022D3ED12046FFF7D2FEF126302383F3118815F048FA1AF0FAFF684605F007FF1AF0E1FF14F019FD3A4B1A689A4261D1002585F31188E9
S3FD0800DC18DDE90001D4E908238B4208BF824238BF851AB8F1000F01D0C8F8005029462046FFF77CFE26B9A36DC3B1AB4216D210260023A36277B1636B3B60304602B0BDE8F08117F095F950B3E3696BB3304616F055FAF126304602B0BDE8F081E36D002BE6D0D4E918218A4220D8AA422FD9481B83421BD2A9422CD31FE01948194A90F8F0351949022B08BF00F20C6040F2BB231BF05EFC6FF001001BF0E8FE8BE7F226304602B0BDE8F081002694E7A9422566BED22A4695426566BAD21126B8E7D96893688A689A4298D208481AF091FCA942AED2A91A8B42F0D3ECE700BF202D0020482500204C00030800FB0208900D03082DE9F0410D4682B0E4
S3FD0800DD1090461F46044600284ED004F10C063046002D3AD017F032FAE369002B42D0022D38D12046FFF72CFEF1260023A362B8F1000F02D0636BC8F80030302383F3118815F09AF91AF04CFF684605F059FE1AF033FF14F06BFC244A136893423BD1002585F31188DDE90001D4E908238B4208BF824238BF851A29462046FFF7D3FD07B13D60304602B0BDE8F08117F0F5F8E8B1E3693BB1304616F0B5F9F126304602B0BDE8F0810026C0E71048114A90F8F0351049022B08BF00F20C6040F23F231BF0CBFB6FF001001BF055FE9EE7F226304602B0BDE8F081D2689B6892689A42BED205481AF009FC00BF202D0020482500204C00030800FB0208A4
S3FD0800DE08900D03082DE9F0410D4682B090461F46044600284ED004F10C063046002D3AD017F0B0F9E369002B42D0022D38D12046FFF7AAFDF1260023A362B8F1000F02D0636BC8F80030302383F3118815F018F91AF0CAFE684605F0D7FD1AF0B1FE14F0E9FB244A136893423BD1002585F31188DDE90001D4E908238B4208BF824238BF851A29462046FFF751FD07B13D60304602B0BDE8F08117F073F8E8B1E3693BB1304616F033F9F126304602B0BDE8F0810026C0E71048114A90F8F0351049022B08BF00F20C604FF4C3731BF049FB6FF001001BF0D3FD9EE7F226304602B0BDE8F081D2689B6892689A42BED205481AF087FB00BF202D0020DD
S3FD0800DF00482500204C00030800FB0208900D030838B50446E0B1E369A26CE06CD3E90C15013145F10005013240F10000C3E90C15D96AC4E91220986AFBF7E8FDE069083016F0E8F804F10C00BDE8384016F0E2B80848094A90F8F0350849022B08BF00F20C60AE231BF000FB6FF001001BF08AFDD1E700BF482500204C00030800FB0208F8B50D4617461E46044630B3002D36D00023C4E90133E561302383F3118815F073F81AF025FE04F1200005F031FD1AF00BFE14F043FB1E4B1A689A4230D1002282F311883EB1EFF30581C1F3080101B9DA68C4E90A266763F8BD1648164A90F8F0351649022B08BF00F20C608D231BF0BBFA6FF001001BF013
S3FD0800DFF845FD002DC8D10D480D4A90F8F0350D49022B08BF00F20C608E231BF0A9FA6FF001001BF033FDB7E7D968926889689142C9D205481AF0ECFA202D0020482500204C00030800FB0208900D03082DE9F04184B00D460A9F164698460446002871D0002D00F08380236B002B00F094802946434632462046FFF787FFE16DA765B1B1D4E91832934212D819448FB1B9420FD3D4E90823D4F8A010D21943F10003CDE90223002946D104F168001023A3E03946002934D105F1080017F06CF8E369DA69002A7DD069462046FFF7A6FBE3699D6902A92846FFF7A0FBDDE90067DDE902239F4208BF96420CD277E0AD682846FFF793FBDDE90223DDE921
S3FD0800E0F000679F4208BF96426BD3E269D3699D4202A9EED199686360D46100297BD0A1604C609C6056E0D4E90823D4F8A000521843F10003CDE9022300285AD0384A234602A904F16800FEF721F9B7E73548364A90F8F0353549022B08BF00F20C604FF474731BF009FA6FF001001BF093FC002D7FF47DAF2B482C4A90F8F0352B49022B08BF00F20C6040F2D1331BF0F5F96FF001001BF07FFC236B002B7FF46CAF002E3FF469AF1F48204A90F8F0351F49022B08BF00F20C6040F2D2331BF0DDF96FF001001BF067FC56E79A69EAB1A260C3E9064454602046FFF7A3FE002004B0BDE8F081D5B16B68A56093B163609C606C60F0E7B9420CBF1023F5
S3FD0800E1E8112304F168000C4A02A9FEF7C3F859E79C615C62DC61E1E7E3699C61EBE7546283E7E269D36979E7F9990008482500204C00030800FB020865C600082DE9F041069E0D46174698460446B8B14DB3206B00283AD043463A4629462046FFF79CFE05F10800A66516F09DFF2046FFF71AFB2046FFF759FE0020BDE8F0811D481E4A90F8F0351D49022B08BF00F20C6040F289231BF075F96FF001001BF0FFFB002DD5D11448144A90F8F0351449022B08BF00F20C6040F28A231BF062F96FF001001BF0ECFB206B0028C4D1002FC2D00948094A90F8F0350949022B08BF00F20C6040F28B231BF04CF96FF001001BF0D6FBB0E700BF4825002000
S3FD0800E2E04C00030800FB0208F8B50D4616461F460446A8B13DB3206B002838D03B46324629462046FFF73CFE05F1080016F03EFF2046FFF7BBFA2046FFF7FAFD0020F8BD1D481E4A90F8F0351D49022B08BF00F20C6040F203231BF017F96FF001001BF0A1FB002DD7D11448144A90F8F0351449022B08BF00F20C604FF401731BF004F96FF001001BF08EFB206B0028C6D1002EC4D00948094A90F8F0350949022B08BF00F20C6040F205231BF0EEF86FF001001BF078FBB2E700BF482500204C00030800FB0208F8B50E4617461D460446C8B15EB3236B002B3CD02B463A4631462046FFF7DEFD06F1080016F0E0FEE269536A002B42D06360204656
S3FD0800E3D89C605462FFF798FD0020F8BD2048214A90F8F0352049022B08BF00F20C6040F24B131BF0B5F86FF001001BF03FFB002ED3D11748174A90F8F0351749022B08BF00F20C604FF4A6731BF0A2F86FF001001BF02CFB236B002BC2D1002FC0D00C480C4A90F8F0350C49022B08BF00F20C6040F24D131BF08CF86FF001001BF016FBAEE7204694615462FFF756FD0020F8BD482500204C00030800FB020810B51446CAB1D4F8283304F54A709B689847D4F8683304F55A709B689847D4F8B03304F56C709B689847D4F8003404F580609B68BDE8104018470848084A90F8F0350849022B08BF00F20C60F5231BF051F86FF001001BF0DBFAD4E7DD
S3FD0800E4D0482500208800030800FB02082DE9F04F87B014460391002A00F05A81039B9A0740F18180B34EDFF8008306F20C6904F580670023D4F800240093156819461A463846A84794F8E8340546F3B1E5281ED096F8F035A849022B0CBF484630461BF01BF845B196F8F035A449022B0CBF484630461BF011F896F8F035022B41460CBF484630461BF008F8D3E7E528D1D1994FDFF8949207F20C6B04F56C7805AED4F8B02300960023156819461A464046A84794F8E8340546002B00F09F80E52800F09F8097F8F0350599022B404600F0BF80FDF774FF8A4A8B4B8B49002808BF1A4638461AF0D9FF6DB197F8F035874A8849022B884B00F0E580E2
S3FD0800E5C8102D08BF1A4638461AF0CAFF97F8F035022B49460CBF584638461AF0C1FFC2E7E52840F0AC80039B23F002030393039B5B0749D504F59667384616F0C3FDD4F8C05404F5956B0026BDB305F10C0A504616F0B8FDD4F8C414AA68C4F8C0248D42AE6042D0D4F8C8148D4208BFC4F8C864D4F8CC148D4214BF5660C4F8CC645046D5E9088915F062FD384615F05FFD504616F098FDEA69934505D1D5E90801494508BF404524D0504615F050FD384616F089FDD4F8C054002DC7D1384615F046FD039B23F004030393039B53B14B48039A90F8F0355249022B08BF00F20C601AF05FFF062007B0BDE8F08FC4F8C464BFE7E96AEE616E63002905
S3FD0800E6C0D5D0A86AFBF722FAD1E7E5287FF44FAF3C4FDFF8288107F20C6904F55A75D4F8682300960023D2F800B019461A462846D84794F8E834F3B1E5281ED097F8F0350598022BD4E9EA3139D09847FAF77CFA02460B46384641461AF026FFDFE7FDF7B5FE2C4B2A4A2C49002808BF1A4658461AF01AFF3FE7E528D1D1224E2B4F06F20C6804F54A750023D4F828230093D2F8009019461A462846C84794F8E834002B3FF442AFE528394630463FF440AF96F8F035022B08BF40461AF0F6FEE3E79847FAF742FA02460B46484641461AF0ECFEA5E7102D08BF1A4658461AF0E5FE19E70848134A90F8F0351249022B08BF00F20C6077231AF0D8FEAC
S3FD0800E7B86FF001001BF062F994E600BF48250020E8000308F0000308C4000308CC00030808010308D400030814010308DC00030848010308400103088800030800FB020898640308280103082DE9F8430C46002900F07981C54BC64ADB68B4F81803DA61FBF72AF90546002800F00581D4F82C3304F54A779BB1BF4E96F8F035BE4ABF49022B0CBFBE48BB4840F25E531AF090FE6FF001001BF01AF9002D00F0068138462946FDF757FDD4F86C3304F55A779BB1B04E96F8F035B04AB049022B0CBFB048AC484FF4B4631AF073FE6FF001001BF0FDF8002D00F00481AA4BC4F8A83300233846C4F8AC332946FDF734FDD4F8B433D4E9C78704F56C7909
S3FD0800E8B09BB19E4E96F8F0359D4A9E49022B0CBF9D489A4840F2E7531AF04EFE6FF001001BF0D8F8002D00F0018100234FF0FF32C4E9FC87C4E9FE2348462946FDF70EFDD4F80434D4F82483D4E9C79604F5806783B18A488A4A90F8F0358A49022B08BF00F20C6040F277631AF026FE6FF001001BF0B0F8D4F8403483B18048804A90F8F0358049022B08BF00F20C6040F279631AF012FE6FF001001BF09CF8D4F8803483B17648764A90F8F0357649022B08BF00F20C6040F27C631AF0FEFD6FF001001BF088F8002D48D000234FF0FF32C4F8886405F10806C4F88C24C4F89034C4F89834C4F89C3484F8A034C4F88494C4F89484C4F8045430466B
S3FD0800E9A816F0F0FBAA6D2B6E5168C4F82014C4F81C2433B923E0D3F89410D4F89424914203D218461B6C002BF5D1C4F84034076404F5816105F118004FF0FF33022216F00BF9EA69D5F8B030013201333046EA61C5F8B03015F08AFB0620BDE8F8832F66E6E74848484A90F8F0354849022B08BF00F20C6040F27E631AF0A2FD6FF001001BF02CF8A4E73F4E434A96F8F0353F49022B08BF06F20C604FF0590318BF30461AF08EFD6FF001001BF018F8D4F82C3304F54A77002B7FF4E7AE96F8F035324A3249022B0CBF32482E4840F25F531AF077FD6FF001001BF001F838460021FDF741FCD4F86C3304F55A77002B7FF4E9AE96F8F035244A254943
S3FD0800EAA0022B0CBF2448214840F2A1531AF05CFD6FF001001AF0E6FF204BC4F8A83300213846C4F8AC13FDF721FCD4F8B433D4E9C78704F56C79002B7FF4ECAE96F8F035134A1449022B0CBF134810484FF4BD631AF03AFD6FF001001AF0C4FFEDE60B4E0F4A96F8F0350B49022B0CBF06F20C6030464F231AF028FD6FF001001AF0B2FF74E600BF202D0020040F0308482500209CFF020800FB0208542B00203D9A00088800030810B514463AB1D4F8180304F54771BDE8104016F01FB80C480C4990F8F0350C4A022B08BF00F20C6040F245131AF0FAFC6FF001001AF084FFD4F8180304F54771BDE8104016F006B84825002000FB02088001030883
S3FD0800EB982DE9F04F0D468BB01446002A00F0C980AE0700F195806B0740F18280D4F8903463B3D4F868240023566801211A4604F58D60B047F128064640F0CD8094F81835E3B19D4F9D4997F8F035022B0CBF07F20C6038461AF0BCFC102E97F8F03500F05283112E00F0D781002E00F03283022B934900F0D48190481AF0AAFCD4F828346BB3D4F8003404F580685E68404608AB00220121B047F128064640F0938094F81835E3B1844F874997F8F035022B0CBF07F20C6038461AF08BFC102E97F8F03500F01C83112E00F0FC82002E00F00683022B7B4900F0F98277481AF079FCD4F8D03363B1D4F8A82308AB56680121002204F56A70B047F12826
S3FD0800EC90064640F09580D4F878335BB1D4F850230023566801211A4604F55470B047F128064666D125F0040555B16548684990F8F035022B2A4608BF00F20C601AF04CFC06200BB0BDE8F08F302383F3118814F0D3F9DFF8AC8119F083FF0023D4F82863C4F8283319F068FF13F0A0FCD8F80030434540F0D182002383F31188F00700F15681B10700F17C81720700F185804EB14B48504990F8F035022B08BF00F20C601AF01AFC25F0020539E745484A4A90F8F0354A49022B08BF00F20C6067231AF00BFC6FF001001AF095FE25E704F20C4015F0D8F994F81835002B84D066E704F2744015F0CFF994F81835002B3FF44AAF2BE704F5577015F0A6
S3FD0800ED88C5F994F81835002B90D0002E8ED12E4F354997F8F035022B0CBF07F20C6038461AF0DEFB97F8F0353049022B0CBF304825481AF0D5FB79E704F56D7015F0A6F994F81835002B3FF462AF002E7FF45FAF1D4E284996F8F035022B00F0188230461AF0BEFB96F8F035022B00F019829DED087A9FED216AB8EE477AF7EE006AC7EE067A77EEA67AC6EEA77A17EE900AF9F7F7FE02460B460C4818491AF0A1FB36E71748B4F8489316F0ADF9164B1F6817B92CE03F6857B3BB889945FAD826D1104815F064F936E000BF48250020180203084C0203086402030884020308E40103088001030800FB02087C02030844010308542B002074020308C6
S3FD0800EE8000007A442C0103082425002038250020202D0020BB4815F03DF9BB48BB4A90F8F035BB49022B08BF00F20C6096231AF05BFB6FF001001AF0E5FD002794F81835002B40F0FB8104F58D684046FEF738FCF12808D1D4F868240023D2F8049002211A464046C847D4F86834D4F84C230092D3F80090404604230022394604F58068C8474046FEF71CFCF12808D1D4F800240023D2F8049002211A464046C847D4F80034D4F84C230092D3F80090404604230022394604F56A78C8474046FEF700FCF12808D1D4F8A8230023D2F8049002211A464046C847D4F8A8334FF00009CDF80090D3F800A040464A460423394604F55478D0474046FEF7A7
S3FD0800EF78E3FBF12808D1D4F850234B460221D2F8049040461A46C847D4F8503300220092394640461F6826F004060423B847002E3FF4C4AEB8E6022B78497FF42CAE78481AF0D6FA2AE6302383F3118814F060F819F012FE04A804F01FFD19F0F9FD13F031FBD8F80030434540F0B981002383F3118894F8183553B16548049A90F8F0356849022B08BF00F20C601AF0B1FA26F00106B1077FF584AE302383F3118814F037F819F0E9FD06A804F0F6FC19F0D0FD13F008FBD8F80030434540F09A81002383F3118894F8183553B15148069A90F8F0355549022B08BF00F20C601AF088FAD4E9CE32D4F83003013342F10002C4E9CE32083016F08EF897
S3FD0800F070D4F830B3DBF85870D7F800A0DAF81820DAF804306AB10BF1080015F043F8D4E9D032013342F10002C4E9D03226F002063AE63BB1DDE90601DAE90223994208BF9042E8D37B68002B00F05F81DDE90601D7E90223994208BF904280F05681DAF800303B60D44601E01F461B685A68002AFAD0D3E9029A514508BF4845F4D2CCF80030C7F800C0DBF85800DBF860908445E24600F03E81DBF85C30DDE90612013308BF01238245CBF85C30CAF8043018BFDAF80030CAE902124FF00001CAF8141014BF9969DBF81C10CAF81810DAE908320133CAF82030DAF8283042F10002CAF8242033B1DBE92A32013342F10002CBE92A32DBF8B030CAF87D
S3FD0800F1682830B9F1000F00F0E08052462B46B2464D460394994616463FE000BF24250020482500208001030800FB020838020308542B0020C0010308D4010308D5E923329342D5F884402ED81F446CB3BC422BD82746D5F880303BB1D3E90201DDE906238B4208BF824214D2DDE90623D5F89810D21943F10003CDE90823002900F08B807A4A2B4608A905F14800FDF7C3F8C5F880602D6C002D00F09580D5F88870002FCCD1D5F884402746002FF2D0D1E706F20C601AF0A5F996F8F035022B7FF4E7AD9DED087A9FED6A6AB8EE477AF7EE006AC7EE067A77EEA67AC6EEA77A17EE900AF9F7DEFC02460B46624863491AF088F91DE5022B61497FF450
S3FD0800F26007AD5E481AF080F905E5022B5E497FF4CEACA0E6022B089940464BD0FEF73EFA5A4E5B4A5B49002818BF32465A481AF06BF9F0E4022B59497FF4EAACE1E7022B56497FF4B4AC86E6D8F80C209B6892689A42BFF428AD524819F0A6F9302383F3118813F0E1FE19F093FC08A804F0A0FB19F07AFC13F0B2F9D8F8003043456AD1002383F311884448089A90F8F0354549022B08BF00F20C601AF036F9E3E5424ABC420CBF1023112308A905F14800FDF735F870E7FEF7F2F9344E354A3549002818BF32462D481AF01FF9A4E4039C56464D46DBE92832013342F100020BF11800CBE928320021FAF7B1FBD4F83003083014F0E0FEA2E6D8F8B1
S3FD0800F3580C209B6892689A42BFF440AE294819F04FF9D8F80C209B6892689A42BFF45FAEF4E7DBF86090CBF858A0B9F1000F13D0D9F8941081B1DDE90623D9F89800521843F10003CDE9082380B11B4A4B4608A90BF16800FCF7E6FFDBF85800A7E6D8F80C209B6892689A428ED2CFE7104A122308A90BF16800FCF7D5FFEDE7B199000800007A44542B00202C0103083802030844010308C4000308CC0003086C0203084825002020020308A80D0308D401030865C60008840D0308E5C3000810B50C4671B1104B104ADB68D4F81803DA6104F547714FF0FF33022215F0E6FB022010BD0A480B4A90F8F0350A49022B08BF00F20C604D231AF08CF86D
S3FD0800F4506FF001001AF016FBDFE700BF202D0020F00E0308482500208001030800FB02082DE9F84F674E684C684B694A6949DFF8C4A1096000254FF000084FF0000906F13000C2E90A55C2E90689C2E90889306015601D607B2204F10800C6E90455C6E90C55C6E91055C6E90289C6E90889C6E90E89C6E914897560B561B562B564B565C3E90689C3E90889C3E90A55A280CAF800A0256013F030F82268E56104F1280304F1180004F12001C4E90C89C4E90E55C4E91289C4E91755C4E92089C4E92289C4E92455C4E92655C4E92889C4E92A89C4E90811E56225642565A566C4F8B050A061A365A36282B13B483C4A90F8F0353B49022B08BF00F23C
S3FD0800F5480C604FF4AF731AF00BF86FF001001AF095FA364815F016FE354A13682BB19888A18888424BD301D9236014602F4814F0CDFD73687BB12A482E4A90F8F0352A49022B08BF00F20C60872319F0E9FF6FF001001AF073FA224DDFF898801B4FDFF88890BB463F68002F4AD07B687BB195F8F035022B28464FF08A0308BF1E484246494619F0CDFF6FF001001AF057FAB742E7D195F8F0351449022B08BF16484FF08B03424618BF284619F0BAFF6FF001001AF044FAD2E79A88914240F23B8218461B68002BF7D10460B0E700BFB81D00204023002010230020002400200823002048250020DCFF020800FB02082425002044250020BC020308EC
S3FD0800F640542B0020F8230020E748E84D15F09EFDA36DE5481A68CBF800201E6014F05AFD05F5367280212846C5F8D872FCF7F0FDDF4BE049C5F8E03200220023DE4CC5F8DC02C5E9C423C5F8F01205F53670C5F8E452C5F8EC52C5F8F452A5F8F872C5F8E842FDF7FFFF01237B20C5F818A385F81835FAF7DDF90646002800F0E38100244FF000084FF00009CC4BDFF884A3C5F83063C5F85033C5E9CE89C5E9D089C5E9D544C748C5F84C434FF07B0B4FF0FF37A5F848B312F028FFC24BC5F8A833C5E9DC89C5E9DE44C5E9E044C5E9E489C5E9E689C5E9E889C5E9EB44AAF16C00C5F86C43C5F88C43C5F8887312F00DFFB64BC5F80034C5E9F28963
S3FD0800F738C5E9F444C5E9F644C5E9FA89C5E9FC89C5E9FE89C5E9F874AAF11400C5F8C443C5F80444C5F8084412F0F2FE5346E3E80889A84EC5F81C44C3E90089A64BC5F86834C5F82844C5F82C44C5F83044C5F83444C5F83C44C5F83874C5F85844C5F85C44C5F86074C5F86444C5F86C44C5F870440AF15400CAE90A89CAE90C8912F0C7FEC5F88444C5F89044C5F89444C5F89844C5F89C44C5F8A444C5F8A074C5F8C044C5F8C444C5F8C874C5F8CC44C5F8D044C5F8F844C5F8FC44C5F80045C5F80445C5F80845C5F80C4585F8104506F536724221CAE91A89CAE92289CAE92489CAE92689CAE93289CAE934893046C6F8D842FCF711FD7949F9
S3FD0800F830794A7A4BC6F8DC02C6F8E012C6F8E822C6F8F032C6E9C48906F53670C6F8E462C6F8EC62C6F8F462A6F8F842FDF722FF6F49704A704BC6F82813012086F8E804C6F86823C6F8B033C6E9C744C6E9D144C6E9D474C6E9D689C6E9D889C6E9E144C6E9E474C6E9E689C6E9E889C6E9EA44C6E9F344C6E9F674C6E9F889C6E9FA89A6F818B3C6F82443C6F82C43C6F86C43C6F8B443C6F8F043C6F8F443D6F8DC52DFF880C1C6F8F87306F5866006F5876106F58C6206F58D63C0E90089C1E90089C2E90089C3E90089C6F8FC43C6F80444C6F81C44C6F82044C6F82874C6F82C44C6F84044C6F84844C6F87044C6F87444C6F87844C6F87C4486
