S02B00002F686F6D652F7069742F4153452F414D69526F2D417070732F636F6E66696775726174696F6E732F87
S3FD0800600000040020396200083B6200083B6200083B6200083B6200083B6200083B6200083B6200083B6200083B620008759D01083B6200083B6200083B6200083B6200083B6200083B6200083B62000875A801083B6200083B62000845AC01080DAC0108D5AB01089DAB010865AB0108F5A90108D5A90108B5A9010895A9010875A9010855A9010835A901083B62000895B2010825B20108B5B1010815AA0108F1AA01083B6200083B6200083B6200083B620008D1AC01083B6200083B6200083B6200083B62000871AF0108ADAE01083B6200083B620008190F0208F90E02083B62000871AA01083B6200083B6200083B6200083B6200083B620008DE
S36D080060F83B6200083B6200083B6200083B6200083B6200083B6200083B6200083B6200083B6200083B62000815A90108F5A80108D5A8010845AA01083B6200083B6200083B6200083B6200083B6200083B6200083B6200083B6200083B6200083B6200083B6200083B62000819
S3FD0800616072B6264880F30888254880F30988254825490860022080F31488BFF36F8F13F053FE01F075FF4FF0553020491B4A91423CBF41F8040BFAE71D49194A91423CBF41F8040BFAE71B491B4A1C4B9A423EBF51F8040B42F8040BF8E700201849194A91423CBF41F8040BFAE713F0F5FD13F029FE154C154DAC4203DA54F8041B8847F9E707F0DBFD124C124DAC4203DA54F8041B8847F9E713F013BE000000040020000800200060000808ED00E0000000200004002000EA020800080020D4130020D81300203C3600206061000860610008606100086061000892E700F000F8FEE72DE9F04FC1F80CD0C3689D46BDE8F08F15F098F813F012FEDE
S3FD08006258002383F311882846A047002017F084FAFEE713F019FE15F09DF813F0E1FF15F085F813F0FFFD00DFFEE7000080F0004002E000BF81F0004142001FBF5FEA410392EA030F7FEA226C7FEA236C6AD04FEA1262D2EB1363C1BFD218414048404140B8BF5B42192B88BF704710F0004F40F4000020F07F4018BF404211F0004F41F4000121F07F4118BF494292EA030F3FD0A2F1010241FA03FC10EB0C00C3F1200301FA03F100F0004302D5494260EB4000B0F5000F13D3B0F1807F06D340084FEA310102F10102FE2A51D2B1F1004F40EBC25008BF20F0010040EA03007047490040EB0000013A28BFB0F5000FEDD2B0FA80FCACF1080CB2EB96
S3FD080063500C0200FA0CF0AABF00EBC25052421843BCBFD0401843704792F0000F81F4000106BF80F400000132013BB5E74FEA41037FEA226C18BF7FEA236C21D092EA030F04D092F0000F08BF0846704790EA010F1CBF0020704712F07F4F04D1400028BF40F00040704712F100723CBF00F50000704700F0004343F0FE4040F4000070477FEA226216BF08467FEA23630146420206BF5FEA412390EA010F40F4800070474FF0000304E000BF10F0004348BF40425FEA000C08BF704743F0964301464FF000001CE050EA010208BF70474FF000030AE000BF50EA010208BF704711F0004302D5404261EB41015FEA010C02BF84460146002043F0B64336
S3FD0800644808BFA3F18053A3F50003BCFA8CF2083AA3EBC25310DB01FA02FC634400FA02FCC2F12002BCF1004F20FA02F243EB020008BF20F00100704702F1200201FA02FCC2F1200250EA4C0021FA02F243EB020008BF20EADC7070474FF0FF0C1CEAD0521EBF1CEAD15392EA0C0F93EA0C0F6FD01A4480EA010C400218BF5FEA41211ED04FF0006343EA501043EA5111A0FB01310CF00040B1F5000F3EBF490041EAD3715B0040EA010062F17F02FD2A1DD8B3F1004F40EBC25008BF20F00100704790F0000F0CF0004C08BF49024CEA502040EA51207F3AC2BFD2F1FF0340EAC250704740F400004FF00003013A5DDC12F1190FDCBF00F00040704748
S3FD08006540C2F10002410021FA02F1C2F1200200FA02FC5FEA310040F1000053EA4C0308BF20EADC70704792F0000F00F0004C02BF400010F4000F013AF9D040EA0C0093F0000F01F0004C02BF490011F4000F013BF9D041EA0C018FE70CEAD15392EA0C0F18BF93EA0C0F0AD030F0004C18BF31F0004CD8D180EA010000F00040704790F0000F17BF90F0004F084691F0000F91F0004F14D092EA0C0F01D142020FD193EA0C0F03D14B0218BF084608D180EA010000F0004040F0FE4040F40000704740F0FE4040F4400070474FF0FF0C1CEAD0521EBF1CEAD15392EA0C0F93EA0C0F69D0A2EB030280EA010C49024FEA402037D04FF0805343EA11114C
S3FD0800663843EA10130CF000408B4238BF5B0042F17D024FF4000C8B4224BF5B1A40EA0C00B3EB510F24BFA3EB510340EA5C00B3EB910F24BFA3EB910340EA9C00B3EBD10F24BFA3EBD10340EADC001B0118BF5FEA1C1CE0D1FD2A3FF650AF8B4240EBC25008BF20F0010070470CF0004C4CEA50207F32C2BFD2F1FF0340EAC250704740F400004FF00003013A37E792F0000F00F0004C02BF400010F4000F013AF9D040EA0C0093F0000F01F0004C02BF490011F4000F013BF9D041EA0C0195E70CEAD15392EA0C0F08D142027FF47DAF93EA0C0F7FF470AF084676E793EA0C0F04D14B023FF44CAF08466EE730F0004C18BF31F0004CCAD130F000423F
S3FD080067307FF45CAF31F000437FF43CAF5FE700BF4FF0FF3C06E000BF4FF0010C02E000BF4FF0010C4DF804CD4FEA40024FEA41037FEA226C18BF7FEA236C11D001B052EA530C18BF90EA010F58BFB2EB030088BFC81738BF6FEAE17018BF40F0010070477FEA226C02D15FEA402C05D17FEA236CE4D15FEA412CE1D05DF8040B704700BF844608466146FFE70FB5FFF7C9FF002848BF10F1000F0FBD4DF808EDFFF7F4FF0CBF012000205DF808FB00BF4DF808EDFFF7EAFF34BF012000205DF808FB00BF4DF808EDFFF7E0FF94BF012000205DF808FB00BF4DF808EDFFF7D2FF94BF012000205DF808FB00BF4DF808EDFFF7C8FF34BF012000205DF822
S3FD0800682808FB00BF4FEA40024FEA41037FEA226C02D15FEA402C08D17FEA236C02D15FEA412C02D14FF0000070474FF0010070474FEA410212F5001215D211D56FF47873B3EB625212D94FEAC12343F0004343EA505311F0004F23FA02F018BF404270474FF00000704750EA013005D111F0004008BF6FF0004070474FF00000704700BF4FEA4002B2F1FE4F0FD34FF09E03B3EB12620DD94FEA002343F0004310F0004F23FA02F018BF404270474FF00000704712F1610F01D1420205D110F0004008BF6FF0004070474FF00000704742000ED2B2F1FE4F0BD34FF09E03B3EB126209D44FEA002343F0004323FA02F070474FF00000704712F1610F41
S3FD0800692001D1420202D14FF0FF3070474FF00000704700BFD0B500F0D5FA00220B4B06460F4600F027FB00F0D5FD044600F0A8FA0022074B00F01EFB02460B463046394600F060F900F0C6FD2146D0BD0000F03D0000F041844641EA000313F0030349D1403A23D30B6803604B6843608B688360CB68C3600B6903614B6943618B698361CB69C3610B6A03624B6A43628B6A8362CB6AC3620B6B03634B6B43638B6B8363CB6BC36340304031403ADBD230320BD30B6803604B6843608B688360CB68C36010301031103AF3D20C3205D351F8043B40F8043B043AF9D2043208D0D2071CBF11F8013B00F8013B01D30B8803806046704700BF082A13D386
S3FD08006A188B07B1D010F00303AED0C3F10403D21ADB071CBF11F8013B00F8013BA4D331F8023B20F8023B9FE7043AD9D3013A11F8013B00F8013BF9D20B7803704B7843708B7883706046704780EA010C1CF0030F37D110F0030C20F0030021F0030150F8042B08BF51F8043B0ED08CF0030C6FF07F434FEACC0C23FA0CFC51F8043B42EA0C0243EA0C0300BFA2F1013C9A4201BF2CEA020C1CF0803F50F8042B51F8043BF2D04FEA02604FEA1222012828BFB0EB036F08BF1B0AF4D003F0FF03000EC01A704710F0030F0AD010F8012B11F8013B012A28BF9A42F4D0A2EB030070474DF8045D50F8042B01F0030521F0030151F8043B022D26D04DD82D
S3FD08006B1022F07F45B5EB132FA2F1013C2CEA020C0DD11CF0803C08BF51F8043B0AD185EA0205B5EB036F0CD150F8042BE8E74FEA13235BE03CF07F4C54D10B784FEA126554E04FEA126503F0FF034FE04FEA0245A2F1013C4FEA15452CEA020CB5EB134F18D11CF0803C08BF51F8043B07D185EA0205B5EB034F09D150F8042BE6E75FEA0C4C2FD10B884FEA12452FE04FEA03434FEA12454FEA134328E000BF02F0FF05B5EB136FA2F1013C2CEA020C0DD11CF0803C08BF51F8043B0AD185EA0205B5EB032F0AD150F8042BE8E74FEA13630DE012F0FF0F06D051F8043B4FEA122523F07F4303E04FF0000020BC704705F0FF0203F0FF00012828BF77
S3FD08006C08904204BF2D0A1B0AF4D0A2EB000020BC704700BF81F0004102E000BF83F0004330B54FEA41044FEA430594EA050F08BF90EA020F1FBF54EA000C55EA020C7FEA645C7FEA655C00F0E2804FEA5454D4EB5555B8BF6D420CDD2C4480EA020281EA030382EA000083EA010180EA020281EA0303362D88BF30BD11F0004F4FEA01314FF4801C4CEA113102D0404261EB410113F0004F4FEA03334CEA133302D0524263EB430394EA050F00F0A780A4F10104D5F1200E0DDB02FA0EFC22FA05F2801841F1000103FA0EF2801843FA05F359410EE0A5F120050EF1200E012A03FA0EFC28BF4CF0020C43FA05F3C01851EBE37101F0004507D54FF055
S3FD08006D00000EDCF1000C7EEB00006EEB0101B1F5801F1BD3B1F5001F0CD349085FEA30004FEA3C0C04F101044FEA445212F5800F80F09A80BCF1004F08BF5FEA500C50F1000041EB045141EA050130BD5FEA4C0C404141EB0101013C28BFB1F5801FE9D291F0000F04BF01460020B1FA81F308BF2033A3F10B03B3F120020CDA0C3208DD02F1140CC2F10C0201FA0CF021FA02F10CE002F11402D8BFC2F1200C01FA02F120FA0CFCDCBF41EA0C019040E41AA2BF01EB0451294330BD6FEA04041F3C1CDA0C340EDC04F11404C4F1200220FA04F001FA02F340EA030021FA04F345EA030130BDC4F10C04C4F1200220FA02F001FA04F340EA0300294674
S3FD08006DF830BD21FA04F0294630BD94F0000F83F4801306BF81F480110134013D4EE77FEA645C18BF7FEA655C29D094EA050F08BF90EA020F05D054EA000C04BF1946104630BD91EA030F1EBF0021002030BD5FEA545C05D14000494128BF41F0004130BD14F580043CBF01F5801130BD01F0004545F0FE4141F470014FF0000030BD7FEA645C1ABF194610467FEA655C1CBF0B46024650EA013406BF52EA033591EA030F41F4002130BD00BF90F0000F04BF0021704730B54FF4806404F132044FF000054FF0000150E700BF90F0000F04BF0021704730B54FF4806404F1320410F0004548BF40424FF000013EE700BF42004FEAE2014FEA31014FEAF7
S3FD08006EF002701FBF12F07F4393F07F4F81F06051704732F07F4208BF704793F07F4F04BF41F40021704730B54FF4607401F0004521F000411CE700BF50EA010208BF704730B54FF000050AE050EA010208BF704730B511F0004502D5404261EB41014FF4806404F132045FEA915C3FF4D8AE4FF003025FEADC0C18BF03325FEADC0C18BF033202EBDC02C2F1200300FA03FC20FA02F001FA03FE40EA0E0021FA02F11444BDE600BF70B54FF0FF0C4CF4E06C1CEA11541DBF1CEA135594EA0C0F95EA0C0F00F0DEF82C4481EA030621EA4C5123EA4C5350EA013518BF52EA033541F4801143F4801338D0A0FB02CE4FF00005E1FB02E506F00042E0FBA1
S3FD08006FE803E54FF00006E1FB03569CF0000F18BF4EF0010EA4F1FF04B6F5007F64F5407404D25FEA4E0E6D4146EB060642EAC62141EA55514FEAC52040EA5E504FEACE2EB4F1FD0C88BFBCF5E06F1ED8BEF1004F08BF5FEA500E50F1000041EB045170BD06F0004646EA010140EA020081EA0301B4EB5C04C2BFD4EB0C0541EA045170BD41F480114FF0000E013C00F3AB8014F1360FDEBF002001F0004170BDC4F10004203C35DA0C341BDC04F11404C4F1200500FA05F320FA04F001FA05F240EA020001F0004221F0004110EBD37021FA04F642EB06015EEA430E08BF20EAD37070BDC4F10C04C4F1200500FA04F320FA05F001FA04F240EA02001C
S3FD080070E001F0004110EBD37041F100015EEA430E08BF20EAD37070BDC4F1200500FA05F24EEA020E20FA04F301FA05F243EA020321FA04F001F0004121FA04F220EA020000EBD3705EEA430E08BF20EAD37070BD94F0000F0FD101F00046400041EB010111F4801F08BF013CF7D041EA060195F0000F18BF704703F00046520043EB030313F4801F08BF013DF7D043EA0603704794EA0C0F0CEA135518BF95EA0C0F0CD050EA410618BF52EA4306D1D181EA030101F000414FF0000070BD50EA410606BF1046194652EA430619D094EA0C0F02D150EA013613D195EA0C0F05D152EA03361CBF104619460AD181EA030101F0004141F0FE4141F4700185
S3FD080071D84FF0000070BD41F0FE4141F4780170BD70B54FF0FF0C4CF4E06C1CEA11541DBF1CEA135594EA0C0F95EA0C0F00F0A7F8A4EB050481EA030E52EA03354FEA013100F088804FEA03334FF0805545EA131343EA12634FEA022245EA111545EA10654FEA00260EF000419D4208BF964244F1FD0404F5407402D25B084FEA3202B61A65EB03055B084FEA32024FF480104FF4002CB6EB020E75EB030E22BFB61A754640EA0C005B084FEA3202B6EB020E75EB030E22BFB61A754640EA5C005B084FEA3202B6EB020E75EB030E22BFB61A754640EA9C005B084FEA3202B6EB020E75EB030E22BFB61A754640EADC0055EA060E18D04FEA051545EA03
S3FD080072D016754FEA06164FEAC30343EA52734FEAC2025FEA1C1CC0D111F4801F0BD141EA00014FF000004FF0004CB6E711F4801F04BF01430020B4F1FD0C88BFBCF5E06F3FF6AFAEB5EB030C04BFB6EB020C5FEA500C50F1000041EB045170BD0EF0004E4EEA113114EB5C04C2BFD4EB0C0541EA045170BD41F480114FF0000E013C90E645EA060E8DE60CEA135594EA0C0F08BF95EA0C0F3FF43BAF94EA0C0F0AD150EA01347FF434AF95EA0C0F7FF425AF104619462CE795EA0C0F06D152EA03353FF4FDAE1046194622E750EA410618BF52EA43067FF4C5AE50EA41047FF40DAF52EA43057FF4EBAE12E74FF0FF3C06E000BF4FF0010C02E000BF41
S3FD080073C84FF0010C4DF804CD4FEA410C7FEA6C5C4FEA430C18BF7FEA6C5C1BD001B050EA410C0CBF52EA430C91EA030F02BF90EA020F0020704710F1000F91EA030F58BF994208BF90422CBFD8176FEAE37040F0010070474FEA410C7FEA6C5C02D150EA013C07D14FEA430C7FEA6C5CD6D152EA033CD3D05DF8040B704700BF8446104662468C461946634600E000BF01B5FFF7B7FF002848BF10F1000F01BD4DF808EDFFF7F4FF0CBF012000205DF808FB00BF4DF808EDFFF7EAFF34BF012000205DF808FB00BF4DF808EDFFF7E0FF94BF012000205DF808FB00BF4DF808EDFFF7CEFF94BF012000205DF808FB00BF4DF808EDFFF7C4FF34BF012073
S3FD080074C000205DF808FB00BF4FEA410C7FEA6C5C02D150EA013C0AD14FEA430C7FEA6C5C02D152EA033C02D14FF0000070474FF0010070474A0011D212F5001211D20DD56FF47873B3EB62520ED44FEAC12343F0004343EA505323FA02F070474FF00000704750EA013002D14FF0FF3070474FF0000070474FEA4102B2F1E04324BFB3F5001CDCF1FE5C0DD901F0004C4FEAC0024CEA5070B2F1004F40EB830008BF20F00100704711F0804F21D113F13872BCBF01F00040704741F480114FEA5252C2F11802C2F1200C10FA0CF320FA02F018BF40F001004FEAC1234FEAD32303FA0CFC40EA0C0023FA02F34FEA4303CCE77FEA625307D150EA013326
S3FD080075B81EBF4FF0FE4040F44000704701F0004040F0FE4040F40000704700BF7BB972B90029BEBF00204FF0004106E008BF00281CBF6FF000414FF0FF3000F0F1B9ADF1080C6DE904CE002909DB002B1ADB00F085F8DDF804E0DDE9022304B07047404261EB4101002B1BDB00F078F8DDF804E0DDE9022304B0404261EB4101524263EB43037047524263EB430300F067F8DDF804E0DDE9022304B0404261EB41017047524263EB430300F059F8DDF804E0DDE9022304B0524263EB4303704753B94AB9002908BF00281CBF4FF0FF314FF0FF3000F0A6B9ADF1080C6DE904CE00F03EF8DDF804E0DDE9022304B0704738B50C460546214628460022B3
S3FD080076B00023FFF7E1FE28B928462146BDE8384000F00AB8284604F1004100F005F8404261EB410138BD00BFD0B500220B4B06460F46FFF757FCFFF705FF0446FFF7D8FB0022074BFFF74EFC02460B4630463946FFF790FAFFF7F6FE2146D0BD0000F03D0000F0412DE9F047089E0D4604468E46002B40F083808A42174647D9B2FA82F34BB1C3F1200105FA03FE20FA01F19F4041EA0E0E9C404FEA1748BEFBF8FC1FFA87F908FB1CE20CFB09F0210C41EA024290420AD9BA180CF1FF3180F01881904240F21581ACF1020C3A44121AB2FBF8F008FB102200FB09F1A4B244EA0244A14209D93C1900F1FF3280F00381A14240F2008102383C44641A57
S3FD080077A8002140EA0C401EB10022DC40C6E90042BDE8F08702B9FFDEB2FA82F3002B4FD18D1A01214FEA124E1FFA82F8B5FBFEFC0EFB1C5508FB0CF0220C42EA0545A84207D97D190CF1FF3202D2A84200F2E98094462D1AB5FBFEF00EFB105508FB00F8A4B244EA0544A04507D93C1900F1FF3202D2A04500F2D9801046A4EB080440EA0C40C0E78B4208D9002E00F0B1800021C6E900050846BDE8F087B3FA83F100294BD1AB4202D3824200F2B980841A65EB030301209E46002EAAD0C6E9004EA7E79F40C3F12002D1404FEA174EB1FBFEF01FFA87F80EFB101124FA02F29D4000FB08FC2A43150C45EA0145AC4504FA03F409D97D1900F1FF31D1
S3FD080078A080F08F80AC4540F28C8002383D44A5EB0C05B5FBFEF10EFB115C01FB08F995B245EA0C45A94507D97D1901F1FF3274D2A94572D902393D44A5EB090541EA004178E7C1F120078B4022FA07FC4CEA030C25FA07F44FEA1C4EB4FBFEF91FFA8CF80EFB194420FA07F309FB08FA8D401D432B0C43EA0444A24502FA01F200FA01F309D91CEB040409F1FF3048D2A24546D9A9F102096444A4EB0A04B4FBFEF00EFB104400FB08FAADB245EA0444A24508D91CEB040400F1FF352DD2A2452BD90238644440EA0940A0FB0289A4EB0A044C45C6464D4619D316D05EB1B3EB0E0264EB050404FA07F722FA01F31F43CC40C6E900740021BDE8F087CF
S3FD08007998314630460CE78C46EBE61046FFE64345E6D2B8EB020E69EB0C050138E0E72846D3E711468CE78146B9E7084673E7084649E7ACF1020C3D4413E702383C4424E7704700BF30B40C4605460FCD0FC495E8030084E8030030BC704700BFD1E90C30184700BF90F8A030ABB9D0F888202AB9102380F8A030D0E926301847D0E923139942F5D8D0F8843033B10A4493428CBF11231023EDE77047CA420CBF1023112380F8A030D0E92630184700BF90F8A8309BB9C26D2AB9102380F8A830D0E928301847D0E918139942F5D8836D33B10A4493428CBF11231023EEE77047CA420CBF1023112380F8A830D0E92830184700BF08B5FEF7B1FC064977
S3FD08007A90FEF7BAFD4FF07E51FEF7FAFB01464FF07E50FEF7B1FD08BD00007A4438B505460B4814F067FE0B4B1C6814B905E024681CB1A388AB42FAD304D1054813F06EFF204638BD0024024813F068FF204638BDB4210020D4210020014812F0F1BC00BFA820002008B5EFF30583C3F3080363B9EFF311832BB112F0E3FCBDE8084012F019BCBDE8084013F05DBDBDE8084012F0D7BC00BF10B5094C12F05AFC236813B1204612F07BFD002200230021C4E90823BDE81040024812F0C3BC00BFB0200020B81F002008B5EFF30583C3F3080363B9EFF311832BB112F08FFCBDE8084012F0E9BBBDE8084013F055BDBDE8084012F083BC00BF03460122EF
S3FD08007B88F0B400254027114C00F1D40643F8044B436000F10C0400F19403C164027200F1300100F154024561C0E90344856287630664C0E90822F0BCC0E91133C0E90C11C06200658261C361C3637047ECA40208B2F57F4FF8B5154628BF4FF47F454FF08043322D38BF32251B4C4E19A183826004F110024260DA68276912F002020760786020611BD10220B6B25E631A61D8605A6A521A92B2954200D9F8BD01F1330080B2DA6892070DD558635A6A521A92B295420AD9E36A43F00103E362F8BD074812F030F9064812F02DF9013080B28142E7D1044812F026F9E028002080A10208CCA102083CA0020870B505460C4612F0B3FB002D43D02B7832
S3FD08007C80043B012B3FD86B6ADA68910736D0DA6892073BD1186910F003002ED02020D3F8C011D3F8C421D3F8C861D3F8CC51C4E9046518611869850703D1586940F0100058612079C1F340031B01C1F3800520F0300043EA45130343980623712AD5A368C90861F31C03A36000202379110A62F30303120C23712170628070BD1A699207C5D1012070BD0E4812F0D0F82020D3F8B011D3F8B421D3F8B861D3F8BC51C4E90465D860D8688607CBD1586940F002005861C6E72389490D61F30A032381D3E7D8A10208426A0B7870B4946813F0200FC4F30164C3F3001318D048685B0043EAC00343F00403087802EB041243F0010300F00F00D1E90265DC
S3FD08007D78C2F88401C2F88861C2F88C51C2F8803170BC704788885B0043EA4053E7E700BFF0B54FF461644268274DC2F31A03A5FB0323264E9B09A6FB0326F60A04FB16330778234C07F1500C4578A4FB03248278C1F814C090F801C06409604640090138DFF87CE005F00F05013D8861C4EB0410A3EB800302F01F023EF815E0C1E90325CCF3001C013A0B60BB07C1E90146C1F820C0724407F2BC700BD10E4B0E4C03FB00F3B4EBB30F04D2012D00DD0132CA61F0BD084B094C03FB00F3B4EB331FF6D3012DF3DCF3E700BFD34D6210C5B3A29189888888295C8FC2285C8F020AD7A3001CA402082DE9F0410126294C06FA00F503462068054218BFCC
S3FD08007E70002001D0BDE8F081DFF890E028432060DEF81400DFF888C09F1944F8371040EA060804EBC7070CEB03107A6067688268CEF814801742DEF814104FEA031314D00E214FF0000E0CEB030672682F43767B15685CF803C0B14025F00F0567601560CCF80410C2F800E0CCE74FF0A00EC27B5109890002F1604801F1604102F01F0201F5614106FA02F208F5614888F800E3C1F880210A60D3E7402B00200010024094A2020870B4022501260024204B858403F120050561826080F826605E6AC16103F1380100F110058842C0E90563C0E90F44426435605D6227D0D968CB6A816213B15C6CA24219D30363C86200234FF0FF36002400250F490C
S3FD08007F68C0E91645CA6886640132CA6000F13802C0E9143370BCC362C36482637047596C8A4203D21C461B6B002BF8D103632063E0E71C669C66DDE7E0280020082B002008B512F019FA074B1868984208D00021026853601A604163BDE8084012F050BA08BD00BF3809002070B40D4D05F110063346EC6805E013F8011B10F8012B914206D1A342F7D3007810B9EE6070BC704740F20112034B0120AA80AB6070BC7047182B0020688C02084FF080435B6A091A1B1A89B29BB28B4201D20020704740F20111034B034A012099809A60704700BF182B00207C8C020810B5094C002918BF0C46FEF7D1F94FF06A51FEF725FA0549FEF722FAA0470349AC
S3FD08008060FEF7D2FA10BD00BF291402080000C8421B4A1346116841F0010111601A689107FCD500201968164A01F0F90119605860536813F00C0FFBD11168114B41F4803111601A689203FCD559680D4A41F4E8115960196841F08071196013689B01FCD51221084B0848506019605368044943F0020353604B6803F00C03082BFAD17047001002400020024000641D00302370B583F31188244C11F0D3FE13F057F9A3682068002B17DBA0423AD15A1C002A8260C8BF836013DD12F015F900241B4D13F031F911F0ABFE2B68AB4221D1002383F31188204670BDA04222D00133A36003685C60236012F090F90022A3684263013B9342A360DFDA0D4DD4
S3FD080081580520EE683460636873601E607463666014F0C2F9746BD6E7EA689B6892689A42D8D2054811F096FE044811F093FE00BF542C0020E028002078A0020870A1020838B504460D46302383F3118811F07CFE13F000F912F018F9A368002B236811DB9C4208BFA56025D112F0C0F813F0DEF811F058FE114B1A689A4213D1002383F3118838BD9C4215D0A5606FF001056068436863601C6012F03BF9456323689C42F5D1E1E7D96893688A689A42E6D2044811F050FE034811F04DFE00BFE028002078A0020820A1020838B53023044683F3118811F039FE13F0BDF812F075F81E4B9A681968002A13DB994231D1501E0028886011DB0024194DEA
S3FD0800825013F098F811F012FE2B68AB4217D1002383F31188204638BD99421DD0511E9960ACB1104D2146EA68052013605C685363546022605A6015F083FA0446E0E7EA689B6892689A42E2D2074811F007FE4FF0FF34044D9A60D3E7044811F0FFFD00BF542C0020E028002078A0020850A1020808B5302383F3118811F0EAFD13F06EF80E4B1868984205D00268002153601A6012F042F813F04EF811F0C8FD084B1A689A4203D1002383F3118808BDD96893688A689A42F6D2034811F0D0FD38090020E028002084A0020838B5302383F3118811F0BEFD13F042F812F05AF800220C4CE368DD6BDA6313F025F811F09FFD2368A34204D1002383F325
S3FD080083481188284638BDE2689B6892689A42F5D2024811F0A7FD00BFE028002090A0020870B5144C3023E56883F3118811F094FD13F018F8EE6B6EB10023EB6312F0FEFF11F078FD2368A3420CD1002383F31188304670BD4FF0FF330A206B6314F0A4F8EE6BE9E7E2689B6892689A42EDD2024811F078FDE028002090A0020838B5154C3023E56883F3118811F066FD12F0EAFFEB6B03F00502052A05D005230B206B6314F082F8EB6B23F00503EB6312F0C6FF11F040FD2368A34204D1002383F31188052038BDE2689B6892689A42F5D2024811F048FDE028002090A0020810B53023044683F3118811F037FD12F0BBFF11F0D3FF236813B1204650
S3FD0800844012F0F4F800220023C4E9082312F09AFF11F014FD084B1A689A4205D1002383F31188C4E90C3310BDD96893688A689A42F4D2024811F01AFDE0280020FCA0020808B512F07FFF11F0F9FC084B1A689A4203D1002383F3118808BDD96893688A689A42F6D2024811F001FD00BFE0280020C0A0020800B170470EB400B582B004AA06490748019217F07FFB6FF0010015F04FF902B05DF804EB03B07047908C0208D82100202DE9F04F83B00F469B4604460C9E0192002800F09C80664DD4F81490D5F80CA0D14503D004F10C0014F03AF9731C0CD00021DFF884C15F480023ECFB06015E4AFFF7A6F80646002850D094F80080B8F1020F4BD1EC
S3FD08008538302383F3118811F0AFFC12F033FF032300227F0023702784A260676B12F016FF11F090FC2B68AB4240F08480002383F311884D4A944277D04FF080435B6A4FF0300B9BB2019302E0002383F311888BF3118811F089FC12F00DFFBB69980702D43B6899051BD54FF08043019A5B6A9B1A4CF24F329BB2934251D812F0E7FE11F061FC2B68AB42DFD0EA689B6892689A42DAD2364811F06EFC354811F06BFC7B68314643F400737B603B6804F11C0043F480733B6015F050FA421C064608BF4FF0050884F8008012F0C1FE11F03BFC2B68AB423BD1002383F31188D14503D004F10C0013F0C7F9731C2BD0002E14BF6FF07F00002003B0BDE85A
S3FD08008630F08F1E481E4A90F820351E49022B08BF00F23C5040F2151317F0AEFE6FF0010015F08EF851E74FF005084FF0FF36CCE7019AC4E90933C4E90B2B81E7EA689B6892689A42BFF476AFA7E76FF07E0003B0BDE8F08FEA689B6892689A42BED20A4811F00CFCE02800203F420F0040420F00001400209CA00208E8A10208D8210020B08C0208D48C020848A00208F0B5044616460D467727003885B018BF01207A23094A0A49FFF7EEFEA18800960223206841F0500103AA8DF80D508DF80C70FFF7F9FE05B0F0BD00BFF08C0208908C020838B5836804460BB14368E3B1114D124A95F820351149022B18BF284641F2490308BF05F23C5017F010
S3FD080087283FFE6FF0010015F01FF8238CD5F8402543F0040323846260C5F8404538BD028CA3F582731A42DDD1004DEEE7D8210020348D0208D48C02080022F0B57A4C7B4883B004F5E063C4F8F806C4F8003778480DF10701C4F8FC2617F07EFF9DF80730012B11D094F82035724A022B18BF204640F20923704908BF04F23C5017F000FE6FF0010014F0E0FF6C480DF1070117F063FF9DF807307BB194F82035654A022B654940F20B230CBF65485F4817F0E8FD6FF0010014F0C8FF62480DF1070117F04BFF9DF807307BB194F82035594A022B594940F20F230CBF5948534817F0D0FD6FF0010014F0B0FF0025574B57481D60574C584A5849594BFF
S3FD080088203027046011601B6087F31188564E11F037FB12F0BBFD3368544C03F00F03544D04EBC302566044F833500CF05BF887F3118811F025FB12F0A9FD424B31681B7921F00F003B40102B01F00F0166D0202B62D0BB420CBF0322002211F003FC30270CF040F887F31188424E11F009FB12F08DFD3368404903F00F0304EBC30244F8331056600CF02EF887F3118811F0F8FA12F07CFD284B31681B7921F00F003B40102B01F00F013DD0202B3FD0BB420CBF0322002211F0D6FB30270CF013F887F311882E4E11F0DCFA12F060FD336803F00F0304EBC30244F8335056600CF002F887F3118811F0CCFA12F050FD174B31681B7921F00F003B4017
S3FD08008918102B01F00F010FD0202B11D0BB420CBF0322002211F0AAFB0BF0E8FF03B0F0BD02229EE701229CE70122F3E70122C5E70222EFE70222C1E7D8210020000010129CA40208508D02086C8D020894A4020814270020A4A40208D0160020A4210020A8210020842100200000C07FCC1600207C080020E020002021150108800800209D2401088408002070B584B09DF80030BDF804400688857823F03F0343F00303002269466FF30A040848ADF808608DF80A508DF80030ADF804400FF06DF9A0F10300B0FA80F0400904B070BD000800202DE9F041804617460C4682B0002935D02349204617F0D4FC20463A68214917F0CFFC012809DD0025F4
S3FD08008A10461E23683D212046DB6801359847B542F7D12046184917F0BFFC7A681AB12046174917F0B9FC6D462046134917F0B4FC28463A462146FB68984720462946002208F038FB95E8030088E80300404602B0BDE8F0810B480C4A90F820350B49022B08BF00F23C50622317F096FC6FF0010014F076FEB8E700BFB8DE0208B08D0208A48D0208D8210020888D0208D48C020830B5014683B063B16D461C462846084AFFF79AFF95E8030084E80300002003B030BD6846024AFFF78FFF002003B030BD2409002030B5014683B063B16D461C462846084AFFF780FF95E8030084E80300002003B030BD6846024AFFF775FF002003B030BD100900207A
S3FD08008B0830B5014683B063B16D461C462846084AFFF766FF95E8030084E80300002003B030BD6846024AFFF75BFF002003B030BDFC0800202DE9F043002480468DB02146202204A8CDE902441EF0D2F821466B4604AA4046CDE90044FFF7D2FFDDE90113039A009D114481461D4404AA6B460391404621460295FFF7A9FFDDE902568446009F01986B46214604AA06443D44404649EA0C04CDE90256FFF77EFFDDE901630546039A009932440B4440460749CDE902322C4317F0F4FB4046054A02A908F07DFA20460DB0BDE8F08300BFB8DE0208BC8D020800B583B00146044A6846FFF7FFFE002003B05DF804FB00BF2409002000B583B00146044A61
S3FD08008C006846FFF7F1FE002003B05DF804FB00BF1009002000B583B00146044A6846FFF7E3FE002003B05DF804FB00BFFC0800200CB430B504460D4683B0A8B12B68204601332B60114917F0AFFB07AA20461049019216F0B9FF20460E4917F0A5FB03B0BDE8304002B070470B480C4A90F820350B49022B08BF00F23C508D2317F094FB6FF0010014F074FDD8E700BFCC8D0208D88D0208B8DE0208D8210020888D0208D48C02080EB410B5044683B070B106AA20460F49019216F087FF20460D4917F073FB03B0BDE8104003B070470A480B4A90F820350A49022B08BF00F23C50BE2317F062FB6FF0010014F042FDDFE700BFE88D0208B8DE020806
S3FD08008CF8D8210020888D0208D48C0208002908BF32282DE9704304460D46164610D21048104A90F820351049022B08BF00F23C504FF4927317F03CFB6FF0010014F01CFD4FF000084FF000090848094BC0E90689C0E90845C0E90A36BDE8704308F0CEBAD8210020148E0208D48C0208B0200020E97A00082DE9F04F03290E4604461546BBB006D101222946304607F029FE002834D02A681349204617F00AFB1249204617F006FB1149204617F002FB1049204617F0FEFA0F49204617F0FAFA0E49204617F0F6FA29463046012207F009FE012803D002203BB0BDE8F08F00203BB0BDE8F08F00BF308E0208508E02085C8E0208A88E0208D48E020846
S3FD08008DF0E48E0208686818F03BFBFEF79BFB0646A86818F035FB8046894630460021FDF7EFFC0028D9D13046BB49FDF7FDFC0028D3D149464046FEF785FB00210546FDF7DFFC07460028C8D129464FF07E50FDF7E3FBB249FDF72CFB4FF07C51FDF720FAFDF770FD002908BF322880468946B4D3DFF8ECA24FF0FF330AF5816B4FF48072A74835A912F08AFCDBF80030A54D2093DBF80430DAF810242193DAF814341E921F93DAF840321A93DAF844321B93D5F840321C93D5F844321D93D5F8C0322E93D5F8C4322F93D5F8C8322493D5F8CC322593D5F8D0321693D5F8D4321793D5F818332A93D5F81C332B93D5F820332693D5F824332793D5F886
S3FD08008EE828331293D5F82C331393D5F870332C93D5F874332D93D5F878332293D5F87C332393D5F880331493D5F884331593D5F8D8333093D5F8DC333193D5F8E0332893D5F8E4332993D5F8E8331893D5F8EC331993302383F3118810F0AEFF12F032FA042249464046FFF7D9FE32A808F092F96C493046FDF7A0FA4FF07C51FDF794F9FDF7E4FC4FF000084FF00009684B329ADF62339F801847EB0101664A664F98611846C3E90889D9619A6208F0AFF912F0F5F910F06FFF3B68BB4240F04383002383F3118840F2011013F0FAFA804635A9554812F0B3FB18F0FF0F40F02C83302383F3118810F068FF12F0ECF932A808F051F94FF0000C51498D
S3FD08008FE0329B339A5B1842EB0C0232A83293339208F03EFA12F0C6F910F040FF3B68BB4240F01D83002383F3118823680A21DB68204698474449204617F0C6F9D5E990231C992046521A1D9963EB01033F4917F0BBF93F49204617F0B7F9DAE990231A992046521A1B9963EB0103384917F0ACF93849204617F0A8F9DBE90032209836491B1A0F6810934B682199204662EB010211921E9ADDE9109ABF1A1F9A2F4963EB02084A46534617F08FF93A46434620462B4917F089F94A465346134340F077812849204617F080F9D5E9B232D5E9AEAB2499D5F8D0025B1A0093259BD5F8D49262EB03030193169B1799C31A69EB0101D5F8C0721A900893B4
S3FD080090D80991DDE900231A4920461097D5F8C47217F05EF9DDE908232046164917F058F9DDE90023134340F0EC804FF0000825E00000704200247449B81F0020E8160020C01F0020257B0008E0280020A0860100248F0208348F0208448F0208548F0208A81F0020608F0208748F0208A08F0208B08F0208C48F0208981B002031464046FDF756FAFDF7C2FE02460B462046994917F01EF99849204617F01AF9D5E9C832D5E9C4AB2699D5F828035B1A0293279BD5F82C9362EB03030393129B1399C31A69EB0101D5F8187308900A930B91DDE902238A4920460097D5F81C7317F0F8F8DDE90A232046864917F0F2F8DDE90223134340F073814FF0C6
S3FD080091D0000831464046FDF717FAFDF783FE02460B462046794917F0DFF87C49204617F0DBF8D5E9DE32D5E9DAAB2299D5F880035B1A0493239BD5F8849362EB03030593149B1599C31A69EB0101D5F8707302900C930D91DDE904236A4920460097D5F8747317F0B9F8DDE90C232046664917F0B3F8DDE90423134340F0DA804FF0000831464046FDF7D8F9FDF744FE8046894642464B465949204617F09EF85C49204617F09AF8D5E9F832D5E9F4A62899D5F8E8035B1A0693299BD5F8EC7362EB03030793189B1999C31A67EB010102900E930F91DDE906234B4920460096D5E9F66517F07AF8DDE90E232046474917F074F8DDE90623134340F0F7
S3FD080092C84F8142464B4620463E4917F069F8002078E5DDE90001FDF799F88046DDE90801FDF794F84146FDF78BF901464FF07E50FCF7C8FF3949FDF7CFF8FDF7EFFD02460B462046364917F04BF8DDE90823DDE900018B4208BF8242BFF418AF52462046304917F03DF85A4620462F4917F038F8109B2E9A981A2F9A67EB0201FDF766F80346DDE900011A9F169AC71B61EB0901B818179A1F4641EB02021146FDF756F801463846FDF74CF9FDF7B8FD02460B4620461E4917F014F820461D49ABEB0A0217F00EF8E2E641463846FDF73FF80746DDE91001FDF73AF801463846FDF730F901464FF07E50FCF76DFF0C49FDF774F8FDF794FD02460B4666
S3FD080093C020460E4916F0F0FF6AE600BF5090020868900208B08F0208C48F020878900208889002080000C842D88F0208F08F0208089002082090020838900208888F0208DDE90401FDF706F88046DDE90C01FDF701F84146FDF7F8F801464FF07E50FCF735FF8A49FDF73CF8FDF75CFD02460B462046874916F0B8FFDDE90C23DDE904018B4208BF8242BFF403AF52462046814916F0AAFF5A4620467F4916F0A5FF009B2C9A981A2D9A67EB0201FCF7D3FF0346DDE90401029F149AC71B61EB0901B818159A1F4641EB02021146FCF7C3FF01463846FDF7B9F8FDF725FD02460B4620466E4916F081FF20466D49ABEB0A0216F07BFFCDE6DDE902013F
S3FD080094B8FCF7ACFF8046DDE90A01FCF7A7FF4146FDF79EF801464FF07E50FCF7DBFE5D49FCF7E2FFFDF702FD02460B4620465A4916F05EFFDDE90A23DDE902018B4208BF8242BFF46AAE52462046544916F050FF5A462046524916F04BFF009B2A9A981A2B9A67EB0201FCF779FF0346DDE90201089F129AC71B61EB0901B818139A1F4641EB02021146FCF769FF01463846FDF75FF8FDF7CBFC02460B462046414916F027FF20464049ABEB0A0216F021FF34E6DDE90E01FCF752FF8346DDE90601FCF74DFF01465846FDF743F801464FF07E50FCF780FE2F49FCF787FFFDF7A7FC02460B4620462C4916F003FFDDE90E23DDE906018B4208BF82424E
S3FD080095B0BFF48BAE52462046264916F0F5FEDDF800B020465A46244916F0EEFE3099319B701A65EB0301FCF71DFFDDE9061205460298189B0E1A62EB0701F018199B41EB03031946FCF70EFF01462846FDF704F8FDF770FC02460B462046144916F0CCFE20461349ABEB0A0216F0C6FE55E6F868414611F0FFFF8020FFF7D0BBFA689B6892689A42BFF4B7AC0A4810F037FCFA689B6892689A42BFF4DDACF5E70000C842D88F0208F08F0208089002082090020838900208CCA002082DE9F04F03290E4604461546B1B006D101222946304607F0ABF9002834D02A681349204616F08CFE1249204616F088FE1149204616F084FE1049204616F080FE08
S3FD080096A80F49204616F07CFE0E49204616F078FE29463046012207F08BF9012803D0022031B0BDE8F08F002031B0BDE8F08F00BF308E0208508E02085C8E0208A88E0208D48E020898900208686817F0BDFEFDF71DFF0646A86817F0B7FE8046894630460021FDF771F80028D9D13046C149FDF77FF80028D3D149464046FDF707FF00210546FDF761F882460028C8D129464FF07E50FCF765FFB849FCF7AEFE4FF07C51FCF7A2FDFDF7F2F8002908BF322880468946B4D3B14F4FF0FF334FF48072B0482BA912F00FF8D7F84032AE4D1093D7F84432DFF8E4B21193D7F868321693D7F86C321793D7F870320C93D7F874320D93D5F840320E93D5F81C
S3FD080097A044320F93D5F888322493D5F88C322593D5F890321293D5F894321393D5F8C8322693D5F8CC322793D5F8D0321493D5F8D4321593D5F810332293D5F814332393D5F818331893D5F81C331993D5F860332093D5F864332193D5F868331E93D5F86C331F93DBF8A0301A93DBF8A4301B93DBF8A8301C93DBF8AC301D93302383F3118810F03DFB11F0C1FD022240464946FFF768FA28A807F021FD79493046FCF72FFE4FF07C51FCF723FDFDF773F884468E4600200021289A754B1CEB02029A61299ADFF800C2DFF80082C3E908014EEB02021846C3F82CA0DA61C3F828C007F039FD11F07FFD10F0F9FAD8F80030434540F0D982002383F32E
S3FD08009898118840F2011012F083FE81462BA9604811F03CFF19F0FF0F40F0C282302383F3118810F0F1FA11F075FD28A807F0DAFC4FF0000C5949289B299A5B1842EB0C0228A82893299207F0C7FD11F04FFD10F0C9FAD8F80030434540F0B382002383F3118823680A21DB68204698474C49204616F04EFDD7E9902310992046521A119963EB0103474916F043FD4749204616F03FFDD5E990230E992046521A0F9963EB0103404916F034FD4049204616F030FDD7E99A321699D7F870825B1A0093179B0D9962EB030301930C9BD7F87472B8EB030A67EB0109DDE900233549204616F017FD52464B462046324916F011FDDDE90023134340F0878144
S3FD08009990DDE900120C9BB1EB080062EB0701C0180D9B41EB03031946FCF734FD3146FCF72BFEFDF797FA02460B462046244916F0F3FC2449204616F0EFFCDBE928201A99DBF8A830521A0A921B9ADBF8AC1060EB02020B921C9A1D98B3EB020861EB0009DDE90AAB184952465B46204616F0D4FC4B4642462046154916F0CEFC5AEA0B0340F027810023009328E000BF0000704200247449E8160020B81F0020981B0020C01F0020A0860100248F0208348F0208448F0208D8900208E4900208F49002081891020830910208389102084C910208F01F0020257B0008E0280020DDF8008031464046FCF7C8FDFDF734FA02460B462046BA4916F090FCBB
S3FD08009A88B949204616F08CFCD5E9A432D5E9A09AD5E9A2B7129920465B1A0293139BB34962EB03030393DDE9022316F079FCDDE90201FCF7ABFC41468046FCF7A1FDAC49FCF7EAFCFDF70AFA02460B462046A94916F066FCDDE90223134340F0858140463146FCF78DFDFDF7F9F902460B462046A14916F055FCA149204616F051FCD5E9B432D5E9B09AD5E9B2B7149920465B1A0493159B954962EB03030593DDE9042316F03EFCDDE90401FCF770FC00998046FCF766FD8E49FCF7AFFCFDF7CFF902460B4620468B4916F02BFCDDE90423134340F0268140463146FCF752FDFDF7BEF902460B462046844916F01AFC8449204616F016FCD5E9C6327C
S3FD08009B80D5E9C29AD5E9C4B7189920465B1A0693199B784962EB03030793DDE9062316F003FCDDE90601FCF735FC00998046FCF72BFD7149FCF774FCFDF794F902460B4620466E4916F0F0FBDDE90623134340F0A88040463146FCF717FDFDF783F902460B462046664916F0DFFB6849204616F0DBFBD5E9DA32D5E9D689D5E9D8AB1E9920465B1A08931F9B5A4962EB03030993DDE9082316F0C8FBDDE90801FCF7FAFB00990546FCF7F0FC5349FCF739FCFDF759F902460B462046504916F0B5FBDDE90823134349D131462846FCF7DDFCFDF749F902460B462046494916F0A5FB002032E5DDE90A01FCF7D5FB0746494600904046FCF7CFFB39462A
S3FD08009C78FCF7C6FC01464FF07E50FCF703FB3C49FCF70AFCFDF72AF902460B4620463E4916F086FBE6E649465046FCF7B7FB8146DDE90001FCF7B2FB01464846FCF7A8FC01464FF07E50FCF7E5FA2D49FCF7ECFBFDF70CF902460B462046304916F068FB5AE6424620462E4916F062FB4A4620462C4916F05DFB209BBAEB0300219B6BEB0301FCF78BFB2946FCF782FCFDF7EEF802460B462046244916F04AFB20462349A9EB080216F044FB91E74A4620461C4916F03EFB524620461A4916F039FB229B239ABBEB030067EB0201FCF767FB4146FCF75EFCFDF7CAF802460B462046124916F026FB20461149AAEB090216F020FB33E700BF6091020807
S3FD08009D70789102088C9102080000C842D88F020850900208A0910208B4910208C8910208888F020804910208F08F02080890020820900208389002084A4620462F4916F0FBFA524620462E4916F0F6FA269B279ABBEB030067EB0201FCF724FB4146FCF71BFCFDF787F802460B462046254916F0E3FA20462449AAEB090216F0DDFAB5E64A4620461D4916F0D7FA524620461C4916F0D2FA249B259ABBEB030067EB0201FCF700FB4146FCF7F7FBFDF763F802460B462046134916F0BFFA20461249AAEB090216F0B9FA56E6D8F80C00494611F0F1FB802040E4D8F80C209B6892689A42BFF420AD094810F029F8D8F80C209B6892689A42BFF446ADEA
S3FD08009E68F4E700BFF08F0208089002082090020838900208CCA002082DE9F04F03290E460446154689B005D101222946304606F09FFD38B32A687B49204616F081FA7A49204616F07DFA7949204616F079FA7849204616F075FA7749204616F071FA7649204616F06DFA29463046012206F080FD012803D0022009B0BDE8F08F002009B0BDE8F08F686817F0BFFAFDF71FFB0346A8681D4617F0B8FA06460F4628460021FCF772FC0028E5D128466449FCF780FC0028DFD130463946FDF708FB00210646FCF762FC83460028D4D131464FF07E50FCF766FB5A49FCF7AFFA4FF07C51FCF7A3F9FCF7F3FC002908BF322806460F46C0D3DFF870814FF026
S3FD08009F60FF334FF48072514803A911F00FFCD8E9909A302383F311880FF092FF11F016FA012239463046FEF7BDFE684607F076F928464549FCF784FA4FF07C51FCF778F9FCF7C8FC00260027009A019D404B801845EB01013F4A404D98611846C3E90867C3F82CB0D9619A6207F094F911F0DAF90FF054FF2B68AB4249D1002383F3118840F2011012F0E0FA064603A92F4811F099FB16F0FF0F34D1302383F3118800260FF04EFF11F0D2F9684607F037F92B49009B019A5B1846EB020268460093019207F026FA11F0AEF90FF028FF2B68AB4225D1002585F3118823680A21DB68204698471F49204616F0AFF9D8E99023B2EB090220461B4963EBEA
S3FD0800A0580A0316F0A5F928463DE7E868314611F0DDFA802037E7EA689B6892689A42B0D213480FF017FFEA689B6892689A42D4D2F6E700BF308E0208508E02085C8E0208A88E0208D48E0208DC9102080000704200247449B81F0020C01F0020257B0008E0280020A0860100248F0208348F0208CCA00208E8160020F0B50F461546044687B068B30026244A04F50273204601940397059500960492029311F0F9FD80BBDDE90132552103F8011B9A42FBD8302383F311880FF0C8FE11F04CF9684610F075F9044611F032F90FF0ACFE134B1A689A4219D1002383F31188204607B0F0BD0F48104A90F820350F49022B08BF00F23C50A72316F02CF992
S3FD0800A1506FF0010013F00CFBC0E70A480FF0A6FED96893688A689A42E0D207480FF09EFE81B20008E0280020D821002018920208D48C020838A102086CA00208436870B505460C467BB11648164A90F820351649022B08BF00F23C508B2316F0FDF86FF0010013F0DDFA04F1080630466C6012F0E1FAA36D04F118005A6805F10801C5E907324FF0FF33022211F0D8FAD4F8B03030460133C4F8B030BDE8704011F0DEBBD82100204C9202086C8D0208D0B5D1E900670446C0E90C23302383F311880FF047FE11F0CBF8002100200F4BC4E90801A3622046C4E90667E46207F063F811F0A9F80FF023FE094B1A689A4203D1002383F31188D0BDD968C6
S3FD0800A24893688A689A42F6D203480FF02BFE00BFF5790008E0280020FCA00208F0B5036C044683B093B14068D3F89410856DD3F89820D5E90267761847F10007CDE90067683082B169460B4AFFF7B4FF94F8A0303BB91222D4F89830D4F89C0084F8A020984703B0F0BD12236946034AFFF7A2FFECE700BF65A20008E1A4000838B505460C4648B1092C02D00F2C00D038BD2846BDE8384011F0ACBD0848094A90F820350849022B08BF00F23C50BA2316F058F86FF0010013F038FAE4E700BFD821002018920208D48C02080346006C98B1884234BF002001205A6C62B110B4D3E912439C4205D88C4208D20C1BA24205D2002010BC70477047012079
S3FD0800A340EDE78B42F8D9591A8A4238BF0020F3E72DE9F043054683B000286AD04068002867D005F10801183011F0DCF96868083012F008FA05F14800FEF754F800236868C5F88030046EA5427CD04F4EDFF844814E4F01E0002C5FD02346246CAC42F9D12A6C1A64002669682A6A8B6D08465B682E649A4229D0EC69434FDFF81891DFF80C812468A3698BB997F820354146022B4A4640F2E94314BF38463D4815F0E4FF6FF0010013F0C4F9A3696968D1F858C0A26A013B002B08BF0126013AA4450846A361A262DDD1002E37D1C269D0F8B030013A013BC261C0F8B030083011F0C6FA0020C5E90700C5E92600686003B0BDE8F0832548274A90F89E
S3FD0800A43820352449022B08BF00F23C5040F2AA4315F0AEFF6FF0010013F08EF9686884E796F820354246022B394640F2DB4314BF3046194815F09CFF6FF0010013F07CF98EE7203011F05CFA6868C2E72B6C0366A3B1D3F894308BB1816DD5F89820D1E90267F61847F10007CDE9006768304AB12B4669460A4AFFF7A5FE77E76830FDF7B5FF73E712236946064AFFF79BFE6DE7D82100206C8D0208142700204C92020865A20008E1A4000838B5044680B92E482E4A90F820352E49022B08BF00F23C5040F2311315F054FF6FF0010013F034F9EFF30583C3F3080333BB264BDB681BB39D68EFF31183002B39D0234B1A7882B301212248FDF7E2FAB0
S3FD0800A530AB1EFC2B10D91A481A4A90F820351E49022B08BF00F23C5040F2491315F02CFF6FF0010013F00CF9EFF3118383B138BD134B1A7832B91C700121BDE838401148FDF7C0BA0121BDE838400E48FDF7BABA2846BDE8384011F0ABBC012109481C70FDF7B0FACCE7BF2011F0A2FCC1E700BFD82100208C9202086C8D0208E0280020CC210020B0210020D48C020870B50E4615460446A8B1D4F898303BB394F8A02042B115B1284611F0AFF93046BDE8704011F0E4B91122D4F89C0084F8A0209847EFE70C480C4A90F820350C49022B08BF00F23C5040F2233315F0CEFE6FF0010013F0AEF8D4F89830002BD7D11120FFF75FFFD6E7D821002029
S3FD0800A6284C9202086C8D020838B5044628B3406818B304F10801183011F070F86068083012F09CF86068256A816DD0F8B0304A68013B9542C0F8B03007D0E3691B689A6A994202F1FF329A62F8D1083011F09AF90023C4E90733636038BD0948094A90F820350949022B08BF00F23C504FF4BD7315F086FE6FF0010013F066F86068C8E7D82100204C9202086C8D020810B5044630B1436823B12046FFF7B6FF002010BD0A480B4A90F820350A49022B08BF00F23C5040F2E92315F063FE6FF0010013F043F82046FFF7A0FF002010BDD82100204C9202086C8D020810B5044630B1436823B12046FFF790FF002010BD0A480B4A90F820350A49022B85
S3FD0800A72008BF00F23C5040F2372315F03DFE6FF0010013F01DF82046FFF77AFF002010BDD82100204C9202086C8D020810B5044630B1436823B12046FFF76AFF002010BD0A480B4A90F820350A49022B08BF00F23C504FF4F17315F017FE6FF0010012F0F7FF2046FFF754FF002010BDD82100204C9202086C8D020838B504460D4688B1D4E90C23D4E90A01521943F100038842C4E90C2301D8A84200D9A562A94238BFE56238BD0848094A90F820350849022B08BF00F23C50AF2315F0E6FD6FF0010012F0C6FFDCE700BFD82100204C9202086C8D02082DE9F04F87B00546CDE90112DDF840800393002800F09F804068002800F09B80083011F081
S3FD0800A818B5FF6B682A6A996D4868824200F0ED80EC696068824200F0E1800C6862681AB924686268002AFBD00027734EDFF8D491DFF8D4B1A2698AB999F820355A46022B18BF48464FF48A636C4908BF6C4815F09FFD6FF0010012F07FFF6B689B6DA34200F08A80A3693022013B002B08BF0127A36182F311880FF007FB10F08BFD04A806F0F0FC10F072FD0FF0ECFA3368B34240F098804FF0000C8CF31188D4E90223DDE904018B42D5F8803008BF82422CBFE246A0EB020AA34233D0B8F1000F01D0C8F800A0A36A2846013BA3625146FFF757FFD5E90E32D5F88800013342F10002C5E90E32002840D0D5E92332934233D8534558D9A2EB0A0CF0
S3FD0800A91060452DD2524503D2AAEB030290422CD2A3696968002B62D0002228460831FFF745FE112007B0BDE8F08F05F14800FDF771FD0023C5F88030C3E73448344A90F820353049022B08BF00F23C504FF4866315F022FD6FF0010012F002FF686851E75245C5F88CA004D253469A45C5F890A0CED36B689A6D1846A2421FD024685DE763680399C5E9074319B1D4E90223C1E90023019B23B1D4E904121846FBF7E2FF029A002A3FF462AF636913605EE75245AAD36B689A6D1846A242DFD1A7B9083010F0ECFF002007B0BDE8F08FF2689B6892689A42BFF462AF0E480FF05FFA01F120029AE7246823E7203010F09DFF6868E5E703F1080010F065
S3FD0800AA08D1FFE52092E700BFE02800206C8D020814270020D82100204C920208F0A002082DE9F04383B0884616461F460546DDF82890002800F09B804068002800F09780083011F09BFE68682B6A826D51688B4200F00C81E9694868834200F0D380146863681BB9246860680028FBD0A369002B00F090806368C5E907431FB1D4E90223C7E90023B8F1000F04D0D4E904124046FBF76CFF0EB163693360A3693022013BA36182F311880FF0F7F910F07BFC684606F0E0FB10F062FC0FF0DCF97D4B1A689A4240F0C880002686F31188D4E90223DDE900018B42D5F8803008BF824238BF861AA34268D0B9F1000F01D0C9F80060A36A3146013BA3627E
S3FD0800AB002846FFF749FED5E90E32D5F88810013342F10002C5E90E3211B3D5E92332934215D8B34278D8B2421AD2F21A914213D26A68A36902F10801002B40F0998020322846FFF73BFD112003B0BDE8F083B242C5F88C6004D233469E42C5F89060E7D3A369002B4DD06868083010F01FFF002003B0BDE8F0835248524A90F820355249022B08BF00F23C5040F27F3315F00CFC6FF0010012F0ECFD686855E74848494A90F820354849022B08BF00F23C504FF4677315F0F9FB6FF0010012F0D9FD5DE76B689B6DA3426DD02268D5F88830C5F880203BBBD5F8841002F10803D3E900235218D5F8981043F10003CDE90023002960D069462B46354A17
S3FD0800ABF805F14800FFF7FEFA75E76868203010F097FEACE70C68A369002B7FF433AFC1E7901B814297D2B24283D385E7D5E923718F42D3D8D5F8841029B33B449942CFD9D2E90201C018D5F8983041F10001CDE90001002BD1D1112305F1480069461E4AFFF7D0FA47E7D96893688A689A42BFF432AF1A480FF01EF9002265E7083010F099FEE52078E73B44D2E90201D5F89820C01841F10001CDE90001002AADD1002B0CBF1023112305F14800D7E705F14800FDF7BCFB0023C5F880301CE7102305F14800CBE7E0280020D82100204C9202086C8D0208FD790008E1A40008F0A002082DE9F0468A4616469946074683B0002873D04068002870D0EE
S3FD0800ACF0083011F047FD7868816D4B68002B7BD03A6AC36D9A4277D0FB69BD6B1C68FA6BA36A681C03F1FF33A36242F10003A142C7E90E0310D0023542F1000224682846A36A013503F1FF33A362134642F10002A142F3D1C7E90E036368C7E90743B9F1000F03D0D4E90223C9E90023BAF1000F04D0D4E904125046FBF704FE0EB163693360302383F311880FF092F810F016FB684606F07BFA10F0FDFA0FF077F8244B1A689A423BD1002383F31188DDE9000104F10805D5E900458D4208BF84422CBF1C46041B7868083010F0F8FD21463846FFF7EAFC0A9BF3B101201C6003B0BDE8F0861448144A90F820351449022B08BF00F23C5040F22B13BC
S3FD0800ADE815F0DEFA6FF0010012F0BEFC78687BE7083010F0D7FD002003B0BDE8F086012003B0BDE8F086D96893688A689A42BED205480FF047F800BFE0280020D82100204C9202086C8D0208F0A00208F0B50D4616461F46044685B068B343685BB303A800903B46324629462046FFF741FF002833D0236C13B1039A934234D3626C92B1D4E912018842039B04D8984232D9CD1AAA422AD39942A364194602D2E1648B4225D88A4223D30A9BD3B10020039B0A9A136005B0F0BD1448144A90F820351449022B08BF00F23C5040F2A92315F078FA6FF0010012F058FCC1E7E52005B0F0BD184605B0F0BD1020E3E7994204D3112005B0F0BD994205D2E4
S3FD0800AEE0191A8A4219460346CDD3CBE71946CCE7D82100204C9202086C8D02082DE9F04182B00D46164698460446089F78B143686BB143463246294620460097FFF7DCFE00280CBFE520002002B0BDE8F0810948094A90F820350949022B08BF00F23C5040F2222315F030FA6FF0010012F010FCDFE700BFD82100204C9202086C8D02082DE9F04182B00D46164698460446089F78B143686BB143463246294620460097FFF7AAFE00280CBFE520002002B0BDE8F0810948094A90F820350949022B08BF00F23C5040F2CD1315F0FEF96FF0010012F0DEFBDFE700BFD82100204C9202086C8D02082DE9F04383B0894616461F460446DDF82880002893
S3FD0800AFD85AD04068002857D0083011F0CFFBD4E907325968914261D063689B6D1D686B68C4E907531FB1D5E90223C7E90023B9F1000F04D0D5E904124846FBF7AFFC0EB16B693360302383F311880EF03DFF10F0C1F9684606F026F910F0A8F90EF022FF294B1A689A4246D1002686F31188D5E90223DDE900018B4208BF8242A36B38BF861AA96AE26B0133606801F1FF3142F10002A9620830C4E90E3210F09BFC31462046FFF78DFBB8F1000F20D00120C8F8006003B0BDE8F0831448154A90F820351449022B08BF00F23C50D92315F080F96FF0010012F060FB606895E76068826D9A429BD1083010F075FC0020E1E7012003B0BDE8F083D96861
S3FD0800B0D093688A689A42B3D205480EF0E7FE00BFE0280020D82100204C9202086C8D0208F0A00208F0B50D4616461F46044685B070B3436863B303A800903B46324629462046FFF757FF002834D0236C13B1039A934235D3626C9AB1D4E912018842039B04D898422ED9CD1AAA4233D39942A36406D21A469342E26402D9112005B0F0BD0A9BD3B10020039B0A9A136005B0F0BD1248134A90F820351249022B08BF00F23C5040F25B2315F017F96FF0010012F0F7FAC0E7E52005B0F0BD0A9805B0F0BD1020E3E79942DBD2191A8A42D5D31A460346CFE79942F7D3CFE700BFD82100204C9202086C8D02082DE9F04182B00D46164698460446089FFB
S3FD0800B1C878B143686BB143463246294620460097FFF7F4FE00280CBFE520002002B0BDE8F0810948094A90F820350949022B08BF00F23C5040F2022315F0D2F86FF0010012F0B2FADFE700BFD82100204C9202086C8D02082DE9F04182B00D46164698460446089F78B143686BB143463246294620460097FFF7C2FE00280CBFE520002002B0BDE8F0810948094A90F820350949022B08BF00F23C5040F2AD1315F0A0F86FF0010012F080FADFE700BFD82100204C9202086C8D02082DE9F04F044600F1240385B01946039301224FF0FF33994810F078FAA368002B00F0A4802046E168984740F00105DFF8708298F80030002B5FD0914EF36893F8B9
S3FD0800B2C0259019F004093ED14FF0300A11E0D4E9043220469847D4E90E32013342F10002C4E90E3240F00105F36893F825305B0729D44FF0FF31284612F0B8FAC2070146E5D58AF311880EF0CBFD10F04FF8D4F830B0C4F8309010F035F80EF0AFFD3368B34266D189F311881BF0010F20D11BF0020FD9D00F216068FEF7C4FFF36893F825305B07D5D50F216068FEF7BBFFA36923B1204698F80010E26998470399674810F0E0F9002005B0BDE8F04F12F000BA09216068FEF7A6FFB6E7624811F002FA218C614B01311B6889B221841BB95AE01B68002B57D01A8C9142F9D001398A422FD15A4B1E687EB3337A6BBB72681946009218461A46376838
S3FD0800B3B8B847A0F12002D2B2012A40F290805248524A90F820355249022B08BF00F23C50672314F0E5FF6FF0010012F0C5F9012333720DE04FF0FF355DE7F2689B6892689A4293D247480EF055FD2120FFF76CF83E4810F0CFFA4FF0FF31012012F0E4F9302383F311880EF03FFD0FF0C3FF236B354E23F0040323630FF0A8FF0EF022FD3368B34243D1002383F311883AE7314B1E68002E36D0337A022B22D00123726818460092274904223768B847B8B1202814D0212831D02848284A90F820352849022B08BF00F23C50902314F091FF6FF0010012F071F902233372B9E701203072B6E71D481D4A90F820351D49022B08BF00F23C508B2314F080
S3FD0800B4B07BFF6FF0010012F05BF9CBE704210F48FCF718FBA0E7F2689B6892689A42B6D294E70223337298F80030002B94D1212388F8003090E721287FF47DAF0223012102483372FCF7FEFAEDE700BFB0210020E0280020B4210020C4210020D0210020D8210020C49202086C8D0208FCA00208CC210020036810B5044683B10E480F4A90F820350E49022B08BF00F23C504FF48D7314F031FF6FF0010012F011F9094811F018F9084B07481A681C60226010F025FA002010BD00BFD82100208C9202086C8D0208B4210020C42100200346806D98B1884234BF00200120DA6D62B110B4D3E918439C4205D88C4208D20C1BA24205D2002010BC7047F3
S3FD0800B5A870470120EDE78B42F8D9591A8A4238BF0020F3E738B5044600F10C05284611F0DDF8E36913B9A06A28B938BD284610F0E9F9F12038BD284610F0E4F9F32038BD10B5044608B323681D4A934232D01D4A934233D01C4A93422ED01C4A934212D01B481C4A90F820351B49022B08BF00F23C5040F2A14314F0C3FE6FF0010012F0A3F8FF2010BD002010BD1148114A90F820351149022B08BF00F23C5040F2964314F0AEFE6FF0010012F08EF82368044A9342CCD1032010BD012010BD022010BDB8A30208A4A30208E0A30208CCA30208D8210020FC9202086C8D020838B504460D46E0B1E36D83B1D4E918218A420CD8A16D134429BB5A1C24
S3FD0800B6A00AD0D4E90801C01841F10001C5E9000138BDA36D002BF2D14FF0FF324FF0FF33C5E9002338BD0B480B4A90F820350B49022B08BF00F23C504FF4497314F064FE6FF0010012F044F8D0E78B4228BF0B46D5E700BFD8210020FC9202086C8D020810B50446002833D02046FFF76DFF01280CD1E269136A1BB39968C4E901319C60A368002B37D05C60146210BD2046FFF75BFF0228EDD01948194A90F820351949022B08BF00F23C5040F2C51314F02CFE6FF0010012F00CF8E269136A002BDBD1D369002BD8D19369A3B1A3609461DAE70A480B4A90F820350A49022B08BF00F23C504FF4E27314F00FFE6FF0010011F0EFFFB9E794615462CD
S3FD0800B798146210BDD8210020FC9202086C8D020838B504460D4688B1D4E91023D4E90E01521943F100038842C4E9102301D8A84200D9A563A94238BFE56338BD0848094A90F820350849022B08BF00F23C5040F20B1314F0DDFD6FF0010011F0BDFFDBE7D8210020FC9202086C8D020838B5044600283DD0E069083010F0B8FF6368002B2FD0A268E0699A60A268C169A14226D0056AA54217D0EAB15360D0E90E32013342F10002C0E90E32083010F0B3F8D4E91431002201335141C4E91431C4E90122E261A26238BD994214BF194600210162002AE1D14362002BDFD09A60DDE7C361D9E7E069A26882619AB153606368CCE709480A4A90F82035CC
S3FD0800B8900949022B08BF00F23C50C82314F084FD6FF0010011F064FFB0E71346B9E700BFD8210020FC9202086C8D02082DE9F0410D4616461F46044682B0002865D004F10C084046002D47D010F054FFE369002B73D0022D45D12046FFF78CFF4FF0F108302383F311880EF0D3FA0FF057FD684605F0BCFC0FF03EFD0EF0B8FA434B1A689A4274D1002585F31188DDE90001D4E908238B4208BF824238BF851A04F16800FCF778FD0EB1636B336007B13D6029462046FFF731FFB8F1000F20D1E36DF3B1D4E918218A423BD8AA4258D9481B834236D2A94255D33AE010F07AF838B3E3695BB340464FF0F10810F018F8404602B0BDE8F0811120FEF75C
S3FD0800B988ABFD4FF0110800234046A36202B0BDE8F0812148214A90F820352149022B08BF00F23C5040F2274314F0FAFC6FF0010011F0DAFE87E74FF0F208404602B0BDE8F0814FF000088FE7A9422566DBD22A4695426566D7D2D4F8A030002BCED094F8A8204FF01108002ACDD1D4F8A40084F8A8809847C7E7D96893688A689A4285D208480EF04FFAA942BDD2A91A8B42E2D3DEE700BFE0280020D8210020FC9202086C8D0208E4A002082DE9F0410D4617469846044682B0002861D004F10C063046002D40D010F09AFEE369002B6ED0022D3ED12046FFF7D2FEF126302383F311880EF01AFA0FF09EFC684605F003FC0FF085FC0EF0FFF93A4B5C
S3FD0800BA801A689A4261D1002585F31188DDE90001D4E908238B4208BF824238BF851AB8F1000F01D0C8F8005029462046FFF77CFE26B9A36DC3B1AB4216D210260023A36277B13046636B3B6002B0BDE8F0810FF0C7FF50B3E3696BB330460FF067FFF126304602B0BDE8F081E36D002BE6D0D4E918218A4220D8AA422FD9481B83421BD2A9422CD31FE01948194A90F820351949022B08BF00F23C5040F2BB2314F044FC6FF0010011F024FE8BE7F226304602B0BDE8F081002694E7A9422566BED22A4695426566BAD21126B8E7D96893688A689A4298D208480EF0A9F9A942AED2A91A8B42F0D3ECE700BFE0280020D8210020FC9202086C8D02081C
S3FD0800BB78E4A002082DE9F0410D4690461F46044682B000284ED004F10C063046002D3AD010F0F4FDE369002B42D0022D38D12046FFF72CFEF1260023A362B8F1000F02D0636BC8F80030302383F311880EF06CF90FF0F0FB684605F055FB0FF0D7FB0EF051F9244A136893423BD1002585F31188DDE90001D4E908238B4208BF824238BF851A29462046FFF7D3FD07B13D60304602B0BDE8F0810FF027FFE8B1E3693BB13046F1260FF0C6FE304602B0BDE8F0810026C0E71048114A90F820351049022B08BF00F23C5040F23F2314F0B1FB6FF0010011F091FD9EE7F226304602B0BDE8F081D2689B6892689A42BED205480EF021F900BFE028002000
S3FD0800BC70D8210020FC9202086C8D0208E4A002082DE9F0410D4690461F46044682B000284ED004F10C063046002D3AD010F072FDE369002B42D0022D38D12046FFF7AAFDF1260023A362B8F1000F02D0636BC8F80030302383F311880EF0EAF80FF06EFB684605F0D3FA0FF055FB0EF0CFF8244A136893423BD1002585F31188DDE90001D4E908238B4208BF824238BF851A29462046FFF751FD07B13D60304602B0BDE8F0810FF0A5FEE8B1E3693BB13046F1260FF044FE304602B0BDE8F0810026C0E71048114A90F820351049022B08BF00F23C504FF4C37314F02FFB6FF0010011F00FFD9EE7F226304602B0BDE8F081D2689B6892689A42BED2D7
S3FD0800BD6805480EF09FF800BFE0280020D8210020FC9202086C8D0208E4A0020838B50446E0B1E369A26CD3E90C15E06C013145F10005013240F10000C3E90C15D96AC4E91220986AFBF7D2FEE06908300FF0FAFD04F10C00BDE838400FF0F4BD0848094A90F820350849022B08BF00F23C50AE2314F0E6FA6FF0010011F0C6FCD1E700BFD8210020FC9202086C8D0208F8B50D4617461E46044630B3002D36D00023E561C4E90133302383F311880EF045F80FF0C9FA04F1200005F02DFA0FF0AFFA0EF029F81E4B1A689A4230D1002282F311883EB1EFF30581C1F3080101B9DA68C4E90A266763F8BD1648164A90F820351649022B08BF00F23C50DE
S3FD0800BE608D2314F0A1FA6FF0010011F081FC002DC8D10D480D4A90F820350D49022B08BF00F23C508E2314F08FFA6FF0010011F06FFCB7E7D968926889689142C9D205480EF004F8E0280020D8210020FC9202086C8D0208E4A002082DE9F04184B00D461646984604460A9F002871D0002D00F08380236B002B00F094802946434632462046FFF787FFE16DA765B1B1D4E91832934212D819448FB1B9420FD3D4E90823D4F8A010D21943F10003CDE90223002946D1102304F16800A3E03946002934D105F1080010F02EFCE369DA69002A7DD069462046FFF7A6FBE36902A99D692846FFF7A0FBDDE90067DDE902239F4208BF96420DD277E0AD68FC
S3FD0800BF5802A92846FFF792FBDDE90223DDE900679F4208BF96426AD3E269D3699D42EED199686360D46100297BD0A1604C609C6056E0D4E90823D4F8A000521843F10003CDE9022300285AD02346384A02A904F16800FEF727F9B7E73548364A90F820353549022B08BF00F23C504FF4747314F0EFF96FF0010011F0CFFB002D7FF47DAF2B482C4A90F820352B49022B08BF00F23C5040F2D13314F0DBF96FF0010011F0BBFB236B002B7FF46CAF002E3FF469AF1F48204A90F820351F49022B08BF00F23C5040F2D23314F0C3F96FF0010011F0A3FB56E79A69EAB1A260C3E9064454602046FFF7A3FE002004B0BDE8F081D5B16B68A56093B1636080
S3FD0800C0509C606C60F0E7B9420CBF1023112304F168000C4A02A9FEF7C9F859E79C615C62DC61E1E7E3699C61EBE7546283E7E269D36979E7457A0008D8210020FC9202086C8D0208E1A400082DE9F041069E0D46174698460446B8B14DB3206B00283AD043463A4629462046FFF79CFE05F10800A66510F05FFB2046FFF71AFB2046FFF759FE0020BDE8F0811D481E4A90F820351D49022B08BF00F23C5040F2892314F05BF96FF0010011F03BFB002DD5D11448144A90F820351449022B08BF00F23C5040F28A2314F048F96FF0010011F028FB206B0028C4D1002FC2D00948094A90F820350949022B08BF00F23C5040F28B2314F032F96FF00100DF
S3FD0800C14811F012FBB0E700BFD8210020FC9202086C8D0208F8B50D4616461F460446A8B13DB3206B002838D03B46324629462046FFF73CFE05F1080010F000FB2046FFF7BBFA2046FFF7FAFD0020F8BD1D481E4A90F820351D49022B08BF00F23C5040F2032314F0FDF86FF0010011F0DDFA002DD7D11448144A90F820351449022B08BF00F23C504FF4017314F0EAF86FF0010011F0CAFA206B0028C6D1002EC4D00948094A90F820350949022B08BF00F23C5040F2052314F0D4F86FF0010011F0B4FAB2E700BFD8210020FC9202086C8D0208F8B50E4617461D460446C8B15EB3236B002B3CD02B463A4631462046FFF7DEFD06F1080010F0A2FA68
S3FD0800C240E269536A002B42D0636020469C605462FFF798FD0020F8BD2048214A90F820352049022B08BF00F23C5040F24B1314F09BF86FF0010011F07BFA002ED3D11748174A90F820351749022B08BF00F23C504FF4A67314F088F86FF0010011F068FA236B002BC2D1002FC0D00C480C4A90F820350C49022B08BF00F23C5040F24D1314F072F86FF0010011F052FAAEE7204694615462FFF756FD0020F8BDD8210020FC9202086C8D020810B51446CAB1D4F8583204F516709B689847D4F8983204F526709B689847D4F8E03204F538709B689847D4F8303304F54C709B68BDE8104018470848084A90F820350849022B08BF00F23C50F52314F03C
S3FD0800C33837F86FF0010011F017FAD4E7D8210020389302086C8D02082DE9F04F87B014460391002A00F05B81039B9A0740F18180B34EDFF8008306F23C5904F54C770023D4F830230093156819461A463846A84794F818340546F3B1E5281ED096F82035A849022B0CBF4846304614F001F845B196F82035A449022B0CBF4846304613F0F7FF96F820354146022B0CBF4846304613F0EEFFD3E7E528D1D1994FDFF8949207F23C5B04F5387805AE0023D4F8E0220096156819461A464046A84794F818340546002B00F0A080E52800F0A08097F820354046022B059900F0C080FDF77CFF8A4A8B4B8B49002808BF1A46384613F0BFFF6DB197F8203540
S3FD0800C430874A022B8749884B00F0E680102D08BF1A46384613F0B0FF97F820354946022B0CBF5846384613F0A7FFC2E7E52840F0AD80039B23F002030393039B5B074AD504F57877384610F085F9D4F8F053002604F5767B002D37D005F10C0A504610F079F9D4F8F413AA688D42C4F8F023AE6042D0D4F8F8138D4208BFC4F8F863D4F8FC1350468D4214BF5660C4F8FC63D5E908890FF073FA38460FF070FA504610F059F9EA69934505D1D5E90801494508BF404524D050460FF061FA384610F04AF9D4F8F053002DC7D138460FF057FA039B23F004030393039B53B14B48039A90F820355249022B08BF00F23C5013F044FF062007B0BDE8F08FB3
S3FD0800C528C4F8F463BFE7E96AEE616E630029D5D0A86AFBF70BFBD1E7E5287FF44EAF3C4FDFF8248107F23C5904F526750023D4F8982200961946D2F800B028461A46D84794F81834F3B1E5281ED097F820350598022BD4E9B63139D09847FAF7AFFC02460B463846414613F00BFFDFE7FDF7BCFE2B4B2A4A2B49002808BF1A46584613F0FFFE3EE7E528D1D1214E2B4F06F23C5804F516750023D4F8582200931946D2F8009028461A46C84794F81834002B3FF441AFE5283FF441AF96F820353946022B0CBF4046304613F0DBFEE3E79847FAF775FC02460B464846414613F0D1FEA5E7102D08BF1A46584613F0CAFE18E70848124A90F82035124941
S3FD0800C620022B08BF00F23C50772313F0BDFE6FF0010011F09DF893E6D821002098930208A0930208749302087C930208B893020884930208C49302088C930208F8930208F0930208389302086C8D0208B8DE0208D89302082DE9F8430C46002900F06D81C04BC14ADB68B4F84802DA61FBF70EFA0546002800F0FB80D4F85C3204F516779BB1BA4E96F82035B94A022B0CBFB948B64840F25E53B84913F076FE6FF0010011F056F8002D00F0FC8038462946FDF75DFDD4F89C3204F526779BB1AB4E96F82035AB4A022B0CBFAA48A8484FF4B463A94913F059FE6FF0010011F039F8002D00F0FA800022A54B3846C4E9B6322946FDF73CFDD4E993878E
S3FD0800C718D4F8E43204F538799BB19A4E96F82035994A022B0CBF9948964840F2E753984913F036FE6FF0010011F016F8002D00F0F78000234FF0FF32C4E9C8874846C4E9CA232946FDF716FDD4E99369D4F83433D4F8548204F54C7783B18648864A90F820358749022B08BF00F23C5040F2776313F00EFE6FF0010010F0EEFFD4F8703383B17C487C4A90F820357D49022B08BF00F23C5040F2796313F0FAFD6FF0010010F0DAFFD4F8B03383B17248724A90F820357349022B08BF00F23C5040F27C6313F0E6FD6FF0010010F0C6FF002D40D000234FF0FF32C4E9ED6905F10806C4E9EF23C4E9F23384F8D0333046C4F8C483C4F834530FF0BAFF29
S3FD0800C810AA6D2B6E5168C4E9D32133B923E0D3F89410D4F8C423914203D218461B6C002BF5D1C4F87033076404F54E7105F118004FF0FF3302220EF0A1FFEA69D5F8B030013201333046EA61C5F8B0300FF0A6F80620BDE8F8832F66E6E74848484A90F820354949022B08BF00F23C5040F27E6313F092FD6FF0010010F072FFACE73F4E434A96F820354049022B18BF30464FF0590308BF06F23C5013F07EFD6FF0010010F05EFFD4F85C3204F51677002B7FF4F1AE96F82035324A022B334940F25F530CBF30482D4813F067FD6FF0010010F047FF38460021FDF751FCD4F89C3204F52677002B7FF4F3AE96F82035244A022B254940F2A1530CBF95
S3FD0800C9082248204813F04CFD6FF0010010F02CFF0021204B3846C4E9B631FDF733FCD4E99387D4F8E43204F53879002B7FF4F6AE96F82035144A022B15494FF4BD630CBF1248104813F02CFD6FF0010010F00CFFF7E60C4E104A96F820350D49022B18BF30464FF04F0308BF06F23C5013F018FD6FF0010010F0F8FE7EE600BFE028002070A20208D82100204C920208142700206C8D0208897A00083893020810B514463AB1D4F8480204F51371BDE810400EF0B5BE0C480C4990F820350C4A022B08BF00F23C5040F2451313F0EAFC6FF0010010F0CAFED4F8480204F51371BDE810400EF09CBED82100206C8D0208309402082DE9F04F0D461446EB
S3FD0800CA008BB0002A00F0C980AE0700F195806B0740F18280D4F8C03363B30023D4F898131A464E6804F566700121B047F128064640F0CD8094F84834E3B19C4F9C4997F82035022B14BF384607F23C5013F0ACFC102E97F8203500F05183112E00F0D581002E00F03183022B924900F0D2818F4813F09AFCD4F858336BB3D4F8303304F54C785E6840460022012108ABB047F128064640F0938094F84834E3B1834F864997F82035022B14BF384607F23C5013F07BFC102E97F8203500F01B83112E00F0FB82002E00F00583022B7A4900F0F882764813F069FCD4F8003363B1D4F8D8220121566808AB002204F53670B047F128064640F09580D4F8F0
S3FD0800CAF8A8325BB10023D4F880121A464E6804F520700121B047F128064666D125F0040555B164482A4690F820356649022B08BF00F23C5013F03CFC06200BB0BDE8F08F302383F311880DF0AFF90EF033FC0023DFF8A081D4F85862C4F858320EF016FC0DF090F9D8F80030434540F0D082002383F31188F00700F15481B10700F17A81720700F184804EB14A484F4990F82035022B08BF00F23C5013F00AFC25F0020539E74448494A90F820354949022B08BF00F23C50672313F0FBFB6FF0010010F0DBFD25E704F54F700EF0F4FE94F84834002B84D066E704F569700EF0EBFE94F84834002B3FF44AAF2BE704F523700EF0E1FE94F84834002B7D
S3FD0800CBF090D0002E8ED12D4F344997F82035022B14BF384607F23C5013F0CEFB97F820352F49022B0CBF2F48244813F0C5FB79E704F539700EF0C2FE94F84834002B3FF462AF002E7FF45FAF1C4E274996F82035022B00F01882304613F0AEFB96F82035022B00F019820898F9F7CAFB1F49F9F7D3FC4FF07E51F9F713FB01464FF07E50F9F7CAFCFAF736F902460B460B48184913F092FB37E71748B4F878920FF07AFD154B1F6817B92BE03F684FB3BB889945FAD825D10F480EF081FE35E0D8210020C8940208FC940208149502083495020894940208309402086C8D02082C950208F4930208142700202495020800007A44DC930208B4210020D8
S3FD0800CCE8C8210020E0280020BC480EF05BFEBC48BC4A90F82035BC49022B08BF00F23C50962313F04DFB6FF0010010F02DFD002794F84834002B40F0FC8104F566784046FEF748FCF12808D10023D4F898131A46D1F8049040460221C847D4F87C22D4F898330092404600223946D3F8009004F54C780423C8474046FEF72CFCF12808D10023D4F830131A46D1F8049040460221C847D4F87C22D4F830330092404600223946D3F8009004F536780423C8474046FEF710FCF12808D10023D4F8D8121A46D1F8049040460221C8474FF00009D4F8D832CDF8009040464A463946D3F800A004F520780423D0474046FEF7F3FBF12808D14B46D4F88022FF
S3FD0800CDE00221D2F8049040461A46C8470022D4F880320092394640461F6826F004060423B847002E3FF4C6AEBAE6022B79497FF42EAE794813F0C8FA2CE6302383F311880DF03EF80EF0C2FA04A804F027FA0EF0A9FA0DF023F8D8F80030434540F0BA81002383F3118894F8483453B16648049A90F820356949022B08BF00F23C5013F0A3FA26F00106B1077FF586AE302383F311880DF015F80EF099FA06A804F0FEF90EF080FA0CF0FAFFD8F80030434540F09B81002383F3118894F8483453B15248069A90F820355649022B08BF00F23C5013F07AFAD4E99A32D4F86002013342F10002C4E99A3208300FF05CFCD4F860B2DBF85870D7F800A060
S3FD0800CED8DAF81820DAF804306AB10BF108000EF061FDD4E99C32013342F10002C4E99C3226F002063CE63BB1DDE90601DAE90223994208BF9042E8D37B68002B00F06081DDE90601D7E90223994208BF904280F05781DAF80030D4463B6001E01F461B685A68002AFAD0D3E9029A514508BF4845F4D2CCF80030C7F800C0DBF85800E2468445DBF8609000F03F81DBF85C300027591C05BF01231946CBF85C10CBF85C308245DDE90623CAE9022318BFDAF80030CAF8041014BF9969DBF81C10DAE908320133CAF82030DAF8283042F10002CAF81470CAF81810CAF8242033B1DBE92A32013342F10002CBE92A32DBF8B030CAF82830B9F1000F00F021
S3FD0800CFD0DF8052462B46B2464D461646994603943FE000BFB4210020D8210020309402086C8D0208E8940208142700207094020884940208D5E923329342D5F884402ED81F446CB3BC422BD82746D5F880303BB1D3E90201DDE906238B4208BF824214D2DDE90623D5F89810D21943F10003CDE90823002900F08A802B467A4A08A905F14800FDF7D3F8C5F880602D6C002D00F09480D5F88870002FCCD1D5F884402746002FF2D0D1E706F23C5013F095F996F82035022B7FF4E7AD0898F9F7B1F96A49F9F7BAFA4FF07E51F9F7FAF801464FF07E50F9F7B1FAF9F71DFF02460B466348634913F079F91EE5022B62497FF408AD5E4813F071F906E5EA
S3FD0800D0C8022B5F497FF4CFAC9FE6022B404608994BD0FEF74FFA5B4B5B4A5C49002808BF1A465B4813F05CF9F1E4022B59497FF4EBACE1E7022B57497FF4B5AC85E6D8F80C209B6892689A42BFF429AD52480CF0C9FE302383F311880CF0BEFE0EF042F908A804F0A7F80EF029F90CF0A3FED8F8003043456AD1002383F311884448089A90F820354549022B08BF00F23C5013F027F9E2E5BC420CBF10231123404A08A905F14800FDF746F871E7FEF703FA354B354A3649002808BF1A462E4813F010F9A5E456464D46039CDBE92832013342F100020BF118000021CBE92832FAF7A6FCD4F8600208300EF0FDFBA1E6D8F80C209B6892689A42BFF426
S3FD0800D1C03FAE2A480CF072FED8F80C209B6892689A42BFF45EAEF4E7DBF86090CBF858A0B9F1000F13D0D9F8941081B1DDE906235218D9F8981043F10003CDE9082381B14B461B4A08A90BF16800FCF7F7FFDBF85800A6E6D8F80C209B6892689A428ED2CFE71223104A08A90BF16800FCF7E6FFEDE700BFFD79000800007A4414270020DC930208E8940208F49302087C930208749302081C950208D8210020D0940208FCA0020884940208E1A40008D8A0020865A2000810B50C4671B1104B1049DA68D4F84802D1614FF0FF33022204F513710EF07CFA022010BD0A480B4A90F820350A49022B08BF00F23C504D2313F07CF86FF0010010F05CFA62
S3FD0800D2B8DFE700BFE02800205CA20208D8210020309402086C8D02082DE9F84F00254FF000084FF000097B21634E644A644C654B1560C2E90A55C2E90689C2E9088906F13000614A614F30601D6004F10800C6E90455C6E90C55C6E91055C6E90289C6E90889C6E90E89C6E914897560B561B562B564B565C3E90689C3E90889C3E90A55A180126025603F600CF020FF226804F1280304F1180004F12001C4E90C89C4E90E55C4E91289C4E91755C4E92089C4E92289C4E92455C4E92655C4E92889C4E92A89C4E90811E561E56225642565A566C4F8B050A061A365A36282B13C483D4A90F820353C49022B08BF00F23C504FF4AF7312F0FDFF6FF0D9
S3FD0800D3B0010010F0DDF937480FF0E4F9364A13682BB19888A18888424CD301D92360146030480EF0EBFA73687BB12B482F4A90F820352B49022B08BF00F23C50872312F0DBFF6FF0010010F0BBF9DFF88C80DFF89C901B4DDFF888A0AB462D68002D49D06B687BB198F820354A46022B51464FF08A0314BF40461E4812F0BEFF6FF0010010F09EF9B542E7D198F820354A46022B18BF40464FF08B03114908BF144812F0ABFF6FF0010010F08BF9D2E79A88914240F2048218461B68002BF7D10460AFE7381B0020B0200020F01F0020C01F0020B81F0020A8200020D82100208C9202086C8D0208B4210020D42100206C95020814270020C6480FF041
S3FD0800D4A86DF9A36DC54C1A68C348CBF800201E600EF078FA802104F502722046C4F80852FCF702FE014600220023BD48BD4EC4F80C12BD49C4E99023C4F81002C4F81862C4F82012C4F81442C4F81C42C4F82442A4F8285204F50270FEF710F801237B20C4F8487284F84834FAF7CCFA0646002800F0AC8100254FF000084FF000094FF07B0A4FF0FF37A94BC4F86062C4F88032C4E99A89C4E99C89C4E9A155A448A4F878A2C4F87C520CF019FEA24BC4E9A889C4F8D832C4E9AA55C4E9AC55C4E9B089C4E9B289C4E9B489C4E9B7559A48C4F89C52C4F8BC52C4F8B8720CF0FFFD974BC4E9BE89C4F83033C4E9C055C4E9C255C4E9C689C4E9C889B7
S3FD0800D5A0C4E9CA89C4E9C475C4E9CD558E48C4F8F4520CF0E7FD8D4BC4E9D489C4F89833C4E9D655C4E9D855C4E9DC89C4E9DE89C4E9E089C4E9DA75C4E9E255C4E9E475C4E9E7558248C4F84C530CF0CBFD814B814EE3E802894221C4E9EE89C4E9F055C4E9F255C4E9F689C4E9F889C4E9FA89C4E9F475C4E9FC55C4E9FE75C3E9008906F50272C4F8B453C4F80054C4F82854C4F82C54C4F83054C4F83454C4F83854C4F83C5484F840543046C6F80852FCF73FFD6A496A4A6B4BC6F80C02C6F81012C6F81822C6F82032C6E9908906F50270C6F81462C6F81C62C6F82462A6F82852FDF750FF0120604B6049614AC6F8E032C6E99355C6E99D55E0
S3FD0800D698C6E9A075C6E9A289C6E9A489C6E9AD55C6E9B075C6E9B289C6E9B489C6E9B655C6E9BF55C6E9C275C6E9C489C6E9C689524BA6F848A2C6F85452C6F85C52C6F89C52C6F8E452C6F8205386F81804C6F85812C6F89822C6F82453D6F80C42C6E9CA75C6E9D355C6E9D675C6E9D889C6E9DA89C6E9E489C6E9E689C6E9E855C6E9EA55C6E9EC55C6E9EE57C6E9F055C6E9F255C6F83453C6F87053C6F8785386F8D053C6F83033002C00F0B58000257B233348A6F8DC33C6F8D8530CF017FD0020002104272F4BD6F8D823E3E80201C6E9FD55C3E90001C6F8F053C6F8FC53C6F80044C6F8047482B12748284A90F820352749022B08BF00F248
S3FD0800D7903C504FF4E17312F007FE6FF001000FF0E7FF22480EF0EEFF214A1368002B7BD09888B6F8DC13884251D36CD93AE000BFF81F0020E816002075D20008F9C90008A5C90008CCA3020874190020E0A30208CC190020A4A30208241A0020B8A302088C1A0020001B0020981B002075C6000851C30008E9C20008ACA30208D4A30208E8A30208C0A30208781F0020A01F0020D82100208C9202086C8D0208B4210020C82100202949C6F8D833116028480EF0B5F8284805F0D6F9274805F0D3F9BDE8F84F264805F0CEB99A88914238D918461B68002BF8D11D4B0360E7E73FF4B0AD2360FBE51E481F4A90F820351E49022B08BF00F23C50F2235E
