S02B00002F686F6D652F7069742F4153452F414D69526F2D417070732F636F6E66696775726174696F6E732F87
S3FD0800600000040020396200083B6200083B6200083B6200083B6200083B6200083B6200083B6200083B6200083B620008599901083B6200083B6200083B6200083B6200083B6200083B6200083B620008E19A01083B6200083B620008399F0108019F0108C99E0108919E0108599E0108E99C0108C99C0108A99C0108899C0108699C0108499C0108299C01083B620008A9AC010839AC0108C9AB0108099D0108E59D01083B6200083B6200083B6200083B620008A5A601083B6200083B6200083B6200083B62000845A9010881A801083B6200083B620008B1A401086D9901083B620008659D01083B6200083B6200083B6200083B6200083B62000859
S36D080060F83B6200083B6200083B6200083B6200083B6200083B6200083B6200083B6200083B6200083B620008099C0108E99B0108C99B0108399D01083B6200083B6200083B6200083B6200083B6200083B6200083B6200083B6200083B6200083B6200083B6200083B6200087D
S3FD0800616072B6264880F30888254880F30988254825490860022080F31488BFF36F8F13F083FF0AF08FF84FF0553020491B4A91423CBF41F8040BFAE71D49194A91423CBF41F8040BFAE71B491B4A1C4B9A423EBF51F8040B42F8040BF8E700201849194A91423CBF41F8040BFAE713F025FF13F059FF154C154DAC4203DA54F8041B8847F9E707F0DFFC124C124DAC4203DA54F8041B8847F9E713F043BF000000040020000800200060000808ED00E00000002000040020A0FE0208000800203C14002040140020F43500206061000860610008606100086061000892E700F000F8FEE72DE9F04FC1F80CD0C3689D46BDE8F08F1AF0A8FD13F0FAFFBA
S3FD08006258002383F311882846A047002014F0D8FDFEE714F08DFC1AF0ADFD1AF0EDFA1AF095FD13F0E7FF00DFFEE7000080F0004002E000BF81F0004142001FBF5FEA410392EA030F7FEA226C7FEA236C6AD04FEA1262D2EB1363C1BFD218414048404140B8BF5B42192B88BF704710F0004F40F4000020F07F4018BF404211F0004F41F4000121F07F4118BF494292EA030F3FD0A2F1010241FA03FC10EB0C00C3F1200301FA03F100F0004302D5494260EB4000B0F5000F13D3B0F1807F06D340084FEA310102F10102FE2A51D2B1F1004F40EBC25008BF20F0010040EA03007047490040EB0000013A28BFB0F5000FEDD2B0FA80FCACF1080CB2EBA3
S3FD080063500C0200FA0CF0AABF00EBC25052421843BCBFD0401843704792F0000F81F4000106BF80F400000132013BB5E74FEA41037FEA226C18BF7FEA236C21D092EA030F04D092F0000F08BF0846704790EA010F1CBF0020704712F07F4F04D1400028BF40F00040704712F100723CBF00F50000704700F0004343F0FE4040F4000070477FEA226216BF08467FEA23630146420206BF5FEA412390EA010F40F4800070474FF0000304E000BF10F0004348BF40425FEA000C08BF704743F0964301464FF000001CE050EA010208BF70474FF000030AE000BF50EA010208BF704711F0004302D5404261EB41015FEA010C02BF84460146002043F0B64336
S3FD0800644808BFA3F18053A3F50003BCFA8CF2083AA3EBC25310DB01FA02FC634400FA02FCC2F12002BCF1004F20FA02F243EB020008BF20F00100704702F1200201FA02FCC2F1200250EA4C0021FA02F243EB020008BF20EADC7070474FF0FF0C1CEAD0521EBF1CEAD15392EA0C0F93EA0C0F6FD01A4480EA010C400218BF5FEA41211ED04FF0006343EA501043EA5111A0FB01310CF00040B1F5000F3EBF490041EAD3715B0040EA010062F17F02FD2A1DD8B3F1004F40EBC25008BF20F00100704790F0000F0CF0004C08BF49024CEA502040EA51207F3AC2BFD2F1FF0340EAC250704740F400004FF00003013A5DDC12F1190FDCBF00F00040704748
S3FD08006540C2F10002410021FA02F1C2F1200200FA02FC5FEA310040F1000053EA4C0308BF20EADC70704792F0000F00F0004C02BF400010F4000F013AF9D040EA0C0093F0000F01F0004C02BF490011F4000F013BF9D041EA0C018FE70CEAD15392EA0C0F18BF93EA0C0F0AD030F0004C18BF31F0004CD8D180EA010000F00040704790F0000F17BF90F0004F084691F0000F91F0004F14D092EA0C0F01D142020FD193EA0C0F03D14B0218BF084608D180EA010000F0004040F0FE4040F40000704740F0FE4040F4400070474FF0FF0C1CEAD0521EBF1CEAD15392EA0C0F93EA0C0F69D0A2EB030280EA010C49024FEA402037D04FF0805343EA11114C
S3FD0800663843EA10130CF000408B4238BF5B0042F17D024FF4000C8B4224BF5B1A40EA0C00B3EB510F24BFA3EB510340EA5C00B3EB910F24BFA3EB910340EA9C00B3EBD10F24BFA3EBD10340EADC001B0118BF5FEA1C1CE0D1FD2A3FF650AF8B4240EBC25008BF20F0010070470CF0004C4CEA50207F32C2BFD2F1FF0340EAC250704740F400004FF00003013A37E792F0000F00F0004C02BF400010F4000F013AF9D040EA0C0093F0000F01F0004C02BF490011F4000F013BF9D041EA0C0195E70CEAD15392EA0C0F08D142027FF47DAF93EA0C0F7FF470AF084676E793EA0C0F04D14B023FF44CAF08466EE730F0004C18BF31F0004CCAD130F000423F
S3FD080067307FF45CAF31F000437FF43CAF5FE700BF4FF0FF3C06E000BF4FF0010C02E000BF4FF0010C4DF804CD4FEA40024FEA41037FEA226C18BF7FEA236C11D001B052EA530C18BF90EA010F58BFB2EB030088BFC81738BF6FEAE17018BF40F0010070477FEA226C02D15FEA402C05D17FEA236CE4D15FEA412CE1D05DF8040B704700BF844608466146FFE70FB5FFF7C9FF002848BF10F1000F0FBD4DF808EDFFF7F4FF0CBF012000205DF808FB00BF4DF808EDFFF7EAFF34BF012000205DF808FB00BF4DF808EDFFF7E0FF94BF012000205DF808FB00BF4DF808EDFFF7D2FF94BF012000205DF808FB00BF4DF808EDFFF7C8FF34BF012000205DF822
S3FD0800682808FB00BF4FEA40024FEA41037FEA226C02D15FEA402C08D17FEA236C02D15FEA412C02D14FF0000070474FF0010070474FEA410212F5001215D211D56FF47873B3EB625212D94FEAC12343F0004343EA505311F0004F23FA02F018BF404270474FF00000704750EA013005D111F0004008BF6FF0004070474FF00000704700BF4FEA4002B2F1FE4F0FD34FF09E03B3EB12620DD94FEA002343F0004310F0004F23FA02F018BF404270474FF00000704712F1610F01D1420205D110F0004008BF6FF0004070474FF00000704742000ED2B2F1FE4F0BD34FF09E03B3EB126209D44FEA002343F0004323FA02F070474FF00000704712F1610F41
S3FD0800692001D1420202D14FF0FF3070474FF00000704700BFD0B500F0D5FA00220B4B06460F4600F027FB00F0D5FD044600F0A8FA0022074B00F01EFB02460B463046394600F060F900F0C6FD2146D0BD0000F03D0000F041844641EA000313F0030349D1403A23D30B6803604B6843608B688360CB68C3600B6903614B6943618B698361CB69C3610B6A03624B6A43628B6A8362CB6AC3620B6B03634B6B43638B6B8363CB6BC36340304031403ADBD230320BD30B6803604B6843608B688360CB68C36010301031103AF3D20C3205D351F8043B40F8043B043AF9D2043208D0D2071CBF11F8013B00F8013B01D30B8803806046704700BF082A13D386
S3FD08006A188B07B1D010F00303AED0C3F10403D21ADB071CBF11F8013B00F8013BA4D331F8023B20F8023B9FE7043AD9D3013A11F8013B00F8013BF9D20B7803704B7843708B7883706046704780EA010C1CF0030F37D110F0030C20F0030021F0030150F8042B08BF51F8043B0ED08CF0030C6FF07F434FEACC0C23FA0CFC51F8043B42EA0C0243EA0C0300BFA2F1013C9A4201BF2CEA020C1CF0803F50F8042B51F8043BF2D04FEA02604FEA1222012828BFB0EB036F08BF1B0AF4D003F0FF03000EC01A704710F0030F0AD010F8012B11F8013B012A28BF9A42F4D0A2EB030070474DF8045D50F8042B01F0030521F0030151F8043B022D26D04DD82D
S3FD08006B1022F07F45B5EB132FA2F1013C2CEA020C0DD11CF0803C08BF51F8043B0AD185EA0205B5EB036F0CD150F8042BE8E74FEA13235BE03CF07F4C54D10B784FEA126554E04FEA126503F0FF034FE04FEA0245A2F1013C4FEA15452CEA020CB5EB134F18D11CF0803C08BF51F8043B07D185EA0205B5EB034F09D150F8042BE6E75FEA0C4C2FD10B884FEA12452FE04FEA03434FEA12454FEA134328E000BF02F0FF05B5EB136FA2F1013C2CEA020C0DD11CF0803C08BF51F8043B0AD185EA0205B5EB032F0AD150F8042BE8E74FEA13630DE012F0FF0F06D051F8043B4FEA122523F07F4303E04FF0000020BC704705F0FF0203F0FF00012828BF77
S3FD08006C08904204BF2D0A1B0AF4D0A2EB000020BC704700BF81F0004102E000BF83F0004330B54FEA41044FEA430594EA050F08BF90EA020F1FBF54EA000C55EA020C7FEA645C7FEA655C00F0E2804FEA5454D4EB5555B8BF6D420CDD2C4480EA020281EA030382EA000083EA010180EA020281EA0303362D88BF30BD11F0004F4FEA01314FF4801C4CEA113102D0404261EB410113F0004F4FEA03334CEA133302D0524263EB430394EA050F00F0A780A4F10104D5F1200E0DDB02FA0EFC22FA05F2801841F1000103FA0EF2801843FA05F359410EE0A5F120050EF1200E012A03FA0EFC28BF4CF0020C43FA05F3C01851EBE37101F0004507D54FF055
S3FD08006D00000EDCF1000C7EEB00006EEB0101B1F5801F1BD3B1F5001F0CD349085FEA30004FEA3C0C04F101044FEA445212F5800F80F09A80BCF1004F08BF5FEA500C50F1000041EB045141EA050130BD5FEA4C0C404141EB0101013C28BFB1F5801FE9D291F0000F04BF01460020B1FA81F308BF2033A3F10B03B3F120020CDA0C3208DD02F1140CC2F10C0201FA0CF021FA02F10CE002F11402D8BFC2F1200C01FA02F120FA0CFCDCBF41EA0C019040E41AA2BF01EB0451294330BD6FEA04041F3C1CDA0C340EDC04F11404C4F1200220FA04F001FA02F340EA030021FA04F345EA030130BDC4F10C04C4F1200220FA02F001FA04F340EA0300294674
S3FD08006DF830BD21FA04F0294630BD94F0000F83F4801306BF81F480110134013D4EE77FEA645C18BF7FEA655C29D094EA050F08BF90EA020F05D054EA000C04BF1946104630BD91EA030F1EBF0021002030BD5FEA545C05D14000494128BF41F0004130BD14F580043CBF01F5801130BD01F0004545F0FE4141F470014FF0000030BD7FEA645C1ABF194610467FEA655C1CBF0B46024650EA013406BF52EA033591EA030F41F4002130BD00BF90F0000F04BF0021704730B54FF4806404F132044FF000054FF0000150E700BF90F0000F04BF0021704730B54FF4806404F1320410F0004548BF40424FF000013EE700BF42004FEAE2014FEA31014FEAF7
S3FD08006EF002701FBF12F07F4393F07F4F81F06051704732F07F4208BF704793F07F4F04BF41F40021704730B54FF4607401F0004521F000411CE700BF50EA010208BF704730B54FF000050AE050EA010208BF704730B511F0004502D5404261EB41014FF4806404F132045FEA915C3FF4D8AE4FF003025FEADC0C18BF03325FEADC0C18BF033202EBDC02C2F1200300FA03FC20FA02F001FA03FE40EA0E0021FA02F11444BDE600BF70B54FF0FF0C4CF4E06C1CEA11541DBF1CEA135594EA0C0F95EA0C0F00F0DEF82C4481EA030621EA4C5123EA4C5350EA013518BF52EA033541F4801143F4801338D0A0FB02CE4FF00005E1FB02E506F00042E0FBA1
S3FD08006FE803E54FF00006E1FB03569CF0000F18BF4EF0010EA4F1FF04B6F5007F64F5407404D25FEA4E0E6D4146EB060642EAC62141EA55514FEAC52040EA5E504FEACE2EB4F1FD0C88BFBCF5E06F1ED8BEF1004F08BF5FEA500E50F1000041EB045170BD06F0004646EA010140EA020081EA0301B4EB5C04C2BFD4EB0C0541EA045170BD41F480114FF0000E013C00F3AB8014F1360FDEBF002001F0004170BDC4F10004203C35DA0C341BDC04F11404C4F1200500FA05F320FA04F001FA05F240EA020001F0004221F0004110EBD37021FA04F642EB06015EEA430E08BF20EAD37070BDC4F10C04C4F1200500FA04F320FA05F001FA04F240EA02001C
S3FD080070E001F0004110EBD37041F100015EEA430E08BF20EAD37070BDC4F1200500FA05F24EEA020E20FA04F301FA05F243EA020321FA04F001F0004121FA04F220EA020000EBD3705EEA430E08BF20EAD37070BD94F0000F0FD101F00046400041EB010111F4801F08BF013CF7D041EA060195F0000F18BF704703F00046520043EB030313F4801F08BF013DF7D043EA0603704794EA0C0F0CEA135518BF95EA0C0F0CD050EA410618BF52EA4306D1D181EA030101F000414FF0000070BD50EA410606BF1046194652EA430619D094EA0C0F02D150EA013613D195EA0C0F05D152EA03361CBF104619460AD181EA030101F0004141F0FE4141F4700185
S3FD080071D84FF0000070BD41F0FE4141F4780170BD70B54FF0FF0C4CF4E06C1CEA11541DBF1CEA135594EA0C0F95EA0C0F00F0A7F8A4EB050481EA030E52EA03354FEA013100F088804FEA03334FF0805545EA131343EA12634FEA022245EA111545EA10654FEA00260EF000419D4208BF964244F1FD0404F5407402D25B084FEA3202B61A65EB03055B084FEA32024FF480104FF4002CB6EB020E75EB030E22BFB61A754640EA0C005B084FEA3202B6EB020E75EB030E22BFB61A754640EA5C005B084FEA3202B6EB020E75EB030E22BFB61A754640EA9C005B084FEA3202B6EB020E75EB030E22BFB61A754640EADC0055EA060E18D04FEA051545EA03
S3FD080072D016754FEA06164FEAC30343EA52734FEAC2025FEA1C1CC0D111F4801F0BD141EA00014FF000004FF0004CB6E711F4801F04BF01430020B4F1FD0C88BFBCF5E06F3FF6AFAEB5EB030C04BFB6EB020C5FEA500C50F1000041EB045170BD0EF0004E4EEA113114EB5C04C2BFD4EB0C0541EA045170BD41F480114FF0000E013C90E645EA060E8DE60CEA135594EA0C0F08BF95EA0C0F3FF43BAF94EA0C0F0AD150EA01347FF434AF95EA0C0F7FF425AF104619462CE795EA0C0F06D152EA03353FF4FDAE1046194622E750EA410618BF52EA43067FF4C5AE50EA41047FF40DAF52EA43057FF4EBAE12E74FF0FF3C06E000BF4FF0010C02E000BF41
S3FD080073C84FF0010C4DF804CD4FEA410C7FEA6C5C4FEA430C18BF7FEA6C5C1BD001B050EA410C0CBF52EA430C91EA030F02BF90EA020F0020704710F1000F91EA030F58BF994208BF90422CBFD8176FEAE37040F0010070474FEA410C7FEA6C5C02D150EA013C07D14FEA430C7FEA6C5CD6D152EA033CD3D05DF8040B704700BF8446104662468C461946634600E000BF01B5FFF7B7FF002848BF10F1000F01BD4DF808EDFFF7F4FF0CBF012000205DF808FB00BF4DF808EDFFF7EAFF34BF012000205DF808FB00BF4DF808EDFFF7E0FF94BF012000205DF808FB00BF4DF808EDFFF7CEFF94BF012000205DF808FB00BF4DF808EDFFF7C4FF34BF012073
S3FD080074C000205DF808FB00BF4FEA410C7FEA6C5C02D150EA013C0AD14FEA430C7FEA6C5C02D152EA033C02D14FF0000070474FF0010070474A0011D212F5001211D20DD56FF47873B3EB62520ED44FEAC12343F0004343EA505323FA02F070474FF00000704750EA013002D14FF0FF3070474FF0000070474FEA4102B2F1E04324BFB3F5001CDCF1FE5C0DD901F0004C4FEAC0024CEA5070B2F1004F40EB830008BF20F00100704711F0804F21D113F13872BCBF01F00040704741F480114FEA5252C2F11802C2F1200C10FA0CF320FA02F018BF40F001004FEAC1234FEAD32303FA0CFC40EA0C0023FA02F34FEA4303CCE77FEA625307D150EA013326
S3FD080075B81EBF4FF0FE4040F44000704701F0004040F0FE4040F40000704700BF7BB972B90029BEBF00204FF0004106E008BF00281CBF6FF000414FF0FF3000F0F1B9ADF1080C6DE904CE002909DB002B1ADB00F085F8DDF804E0DDE9022304B07047404261EB4101002B1BDB00F078F8DDF804E0DDE9022304B0404261EB4101524263EB43037047524263EB430300F067F8DDF804E0DDE9022304B0404261EB41017047524263EB430300F059F8DDF804E0DDE9022304B0524263EB4303704753B94AB9002908BF00281CBF4FF0FF314FF0FF3000F0A6B9ADF1080C6DE904CE00F03EF8DDF804E0DDE9022304B0704738B50C460546214628460022B3
S3FD080076B00023FFF7E1FE28B928462146BDE8384000F00AB8284604F1004100F005F8404261EB410138BD00BFD0B500220B4B06460F46FFF757FCFFF705FF0446FFF7D8FB0022074BFFF74EFC02460B4630463946FFF790FAFFF7F6FE2146D0BD0000F03D0000F0412DE9F047089E0D4604468E46002B40F083808A42174647D9B2FA82F34BB1C3F1200105FA03FE20FA01F19F4041EA0E0E9C404FEA1748BEFBF8FC1FFA87F908FB1CE20CFB09F0210C41EA024290420AD9BA180CF1FF3180F01881904240F21581ACF1020C3A44121AB2FBF8F008FB102200FB09F1A4B244EA0244A14209D93C1900F1FF3280F00381A14240F2008102383C44641A57
S3FD080077A8002140EA0C401EB10022DC40C6E90042BDE8F08702B9FFDEB2FA82F3002B4FD18D1A01214FEA124E1FFA82F8B5FBFEFC0EFB1C5508FB0CF0220C42EA0545A84207D97D190CF1FF3202D2A84200F2E98094462D1AB5FBFEF00EFB105508FB00F8A4B244EA0544A04507D93C1900F1FF3202D2A04500F2D9801046A4EB080440EA0C40C0E78B4208D9002E00F0B1800021C6E900050846BDE8F087B3FA83F100294BD1AB4202D3824200F2B980841A65EB030301209E46002EAAD0C6E9004EA7E79F40C3F12002D1404FEA174EB1FBFEF01FFA87F80EFB101124FA02F29D4000FB08FC2A43150C45EA0145AC4504FA03F409D97D1900F1FF31D1
S3FD080078A080F08F80AC4540F28C8002383D44A5EB0C05B5FBFEF10EFB115C01FB08F995B245EA0C45A94507D97D1901F1FF3274D2A94572D902393D44A5EB090541EA004178E7C1F120078B4022FA07FC4CEA030C25FA07F44FEA1C4EB4FBFEF91FFA8CF80EFB194420FA07F309FB08FA8D401D432B0C43EA0444A24502FA01F200FA01F309D91CEB040409F1FF3048D2A24546D9A9F102096444A4EB0A04B4FBFEF00EFB104400FB08FAADB245EA0444A24508D91CEB040400F1FF352DD2A2452BD90238644440EA0940A0FB0289A4EB0A044C45C6464D4619D316D05EB1B3EB0E0264EB050404FA07F722FA01F31F43CC40C6E900740021BDE8F087CF
S3FD08007998314630460CE78C46EBE61046FFE64345E6D2B8EB020E69EB0C050138E0E72846D3E711468CE78146B9E7084673E7084649E7ACF1020C3D4413E702383C4424E7704700BF2DE9F0410126294C06FA00F52268154218BF002001D0BDE8F0810346DFF898C02A432260DCF814009A1944F83210204F204940EA060E04EBC202516007EB0310CCF814E08268D4F804E0DCF814101EEA020F4FEA031312D00E214FF0000CFE187268FF58767B45EA0E031568B14025F00F05636015607960C2F800C0CBE74FF0A00CC27B5109890002F1604801F1604102F01F0201F5614106FA02F208F5614888F800C3C1F880210A60D5E7D02A002024B30208C7
S3FD08007A90801500200010024030B40C4605460FCD0FC495E8030084E8030030BC704700BFD1E90C30184700BF90F8A030ABB9D0F888202AB9102380F8A030D0E926301847D0E923139942F5D8D0F8843033B10A4493428CBF11231023EDE77047CA420CBF1023112380F8A030D0E92630184700BF90F8A8309BB9C26D2AB9102380F8A830D0E928301847D0E918139942F5D8836D33B10A4493428CBF11231023EEE77047CA420CBF1023112380F8A830D0E92830184700BF08B5FEF753FC0649FEF75CFD4FF07E51FEF79CFB01464FF07E50FEF753FD08BD00007A44014812F0B3BA00BF3820002038B505460B4815F0F1F80B4B1C6814B905E0246847
S3FD08007B881CB1A388AB42FAD304D1054814F0DAFA204638BD0024024814F0D4FA204638BD442100206421002008B5EFF30583C3F3080363B9EFF311832BB112F087FABDE8084018F0C7BEBDE8084014F08FBDBDE8084012F07BBA00BF10B5094C18F008FF236813B1204618F057FF002200230021C4E90823BDE81040024812F067BA00BF40200020481F002008B5EFF30583C3F3080363B9EFF311832BB112F033FABDE8084018F097BEBDE8084014F087BDBDE8084012F027BA00BF30B5014683B06BB16D461C4628460023084A08F079FF95E8030084E80300002003B030BD6846034A08F06EFF002003B030BD00BF6009002030B5014683B06BB10E
S3FD08007C806D461C4628460023084A08F05DFF95E8030084E80300002003B030BD6846034A08F052FF002003B030BD00BF3809002030B5014683B06BB16D461C4628460023084A08F041FF95E8030084E80300002003B030BD6846034A08F036FF002003B030BD00BF2409002030B5014683B06BB16D461C4628460023084A08F025FF95E8030084E80300002003B030BD6846034A08F01AFF002003B030BD00BF1009002000B583B0014600236846034A08F00CFF002003B05DF804FB6009002000B583B0014600236846034A08F0FEFE002003B05DF804FB3809002000B583B0014600236846034A08F0F0FE002003B05DF804FB2409002000B583B037
S3FD08007D78014600236846034A08F0E2FE002003B05DF804FB100900202DE9F0410229044616461D4682B022D1D2F804803B494046FEF75AFE074600284AD040463849FEF753FE074600285AD040463649FEF74CFE0746002859D040463349FEF745FE074628B92146314EDFF8F4C02F4B35E032682F49204619F084FC2E49204619F080FC2D49204619F07CFC2C49204619F078FC2B49204619F074FC2A49204619F070FC2949204619F06CFC2849204619F068FC2749204619F064FC2046264919F060FC4DB300230220C5E9003302B0BDE8F0812146164EDFF888C0104B68461E4AC6F800C008F075FE37602DB10020C5E9000002B0BDE8F0812846F4
S3FD08007E7002B0BDE8F08121460A4EDFF860C0064BE7E72146074EDFF858C0044BE1E70220D7E700BFF09C0208F89C0208009D0208089D020840160020109D0208249D0208309D0208389D0208609D0208689D0208909D0208989D0208C09D0208C89D02084C090020B4090020A8090020AC090020B00900200023FFF753BF00BF2DE9F041002780468CB03946202204A8CDE902771FF03EFF39466B4604AA4046CDE90077FFF7EAFEDDE90113039A009D11441D4404AA6B4603910446394640460295FFF7BFFEDDE90113039A009D114406461D4404AA6B460391404639460295FFF794FE039A0099384D34430646DDE901030244194403926B4604AA90
S3FD08007F680291404602210595FFF70EFF039A0099304D34430646DDE901030244194403926B4604AA0291404602210595FFF7FCFE039A0099284D34430646DDE901030244194403926B4604AA0291404602210595FFF7EAFE039A0099204D34430646DDE901030244194403926B4604AA0291404602210595FFF7D8FE84463946019F00983443DDE902563E44154F6B4604AA0544404644EA0C04CDE902560597FFF71CFEDDE901630546039A009932440B4440460C49CDE902322C4319F06AFB40460A4A02A908F027FD20460CB0BDE8F08100BFF09C0208F89C0208009D0208089D020844AC02086CF00208F09D0208B2F57F4FF8B5154628BF4FF4BD
S3FD080080607F454FF08043322D38BF32251B4C4E19A183826004F110024260DA68276912F002020760786020611BD10220B6B25E631A61D8605A6A521A92B2954200D9F8BD01F1330080B2DA6892070DD558635A6A521A92B295420AD9E36A43F00103E362F8BD074818F086FB064818F083FB013080B28142E7D1044818F07CFB7028002018B2020878B20208ECB0020870B505460C4618F081FC002D43D02B78043B012B3FD86B6ADA68910736D0DA6892073BD1186910F003002ED02020D3F8C011D3F8C421D3F8C861D3F8CC51C4E9046518611869850703D1586940F0100058612079C1F340031B01C1F3800520F0300043EA45130343980623711B
S3FD080081582AD5A368C90861F31C03A36000202379110A62F30303120C23712170628070BD1A699207C5D1012070BD0E4818F026FB2020D3F8B011D3F8B421D3F8B861D3F8BC51C4E90465D860D8688607CBD1586940F002005861C6E72389490D61F30A032381D3E784B20208426A0B7870B4946813F0200FC4F30164C3F3001318D048685B0043EAC00343F00403087802EB041243F0010300F00F00D1E90265C2F88401C2F88861C2F88C51C2F8803170BC704788885B0043EA4053E7E700BFF0B54FF461644268274DC2F31A03A5FB0323264E9B09A6FB0326F60A04FB16330778234C07F1500C4578A4FB03248278C1F814C090F801C06409604683
S3FD0800825040090138DFF87CE005F00F05013D8861C4EB0410A3EB800302F01F023EF815E0C1E90325CCF3001C013A0B60BB07C1E90146C1F820C0724407F2BC700BD10E4B0E4C03FB00F3B4EBB30F04D2012D00DD0132CA61F0BD084B094C03FB00F3B4EB331FF6D3012DF3DCF3E700BFD34D6210C5B3A29189888888295C8FC2285C8F020AD7A300ACB4020870B4022501260024204B858403F120050561826080F826605E6AC16103F1380100F110058842C0E90563C0E90F44426435605D6227D0D968CB6A816213B15C6CA24219D30363C86200234FF0FF36002400250F49C0E91645CA6886640132CA6000F13802C0E9143370BCC362C36482630A
S3FD080083487047596C8A4203D21C461B6B002BF8D103632063E0E71C669C66DDE770280020982A002008B518F043FB074B1868984208D00021026853601A604163BDE8084018F07ABB08BD00BF7409002070B40D4D05F110063346EC6805E013F8011B10F8012B914206D1A342F7D3007810B9EE6070BC704740F20112034B0120AA80AB6070BC7047A82A0020009E02084FF080435B6A091A1B1A89B29BB28B4201D20020704740F20111034B034A012099809A60704700BFA82A0020149E020810B5094C002918BF0C46FDF7EFFF4FF06A51FEF743F80549FEF740F8A0470349FEF7F0F810BD00BFB12402080000C842302370B583F31188244C12F0E8
S3FD08008440A3FB18F0C3FCA3682068002B17DBA0423AD15A1C002A8260C8BF836013DD18F07DFA00241B4D18F09DFC11F0EFFE2B68AB4221D1002383F31188204670BDA04222D00133A36003685C60236018F0F8FA0022A3684263013B9342A360DFDA0D4D0520EE683460636873601E607463666018F0C8FC746BD6E7EA689B6892689A42D8D2054818F086F9044818F083F900BFE42B0020702800201CB1020808B2020838B504460D46302383F3118812F04CFB18F06CFC18F080FAA368002B236811DB9C4208BFA56025D118F028FA18F04AFC11F09CFE114B1A689A4213D1002383F3118838BD9C4215D0A5606FF001056068436863601C6018F0C2
S3FD08008538A3FA456323689C42F5D1E1E7D96893688A689A42E6D2044818F040F9034818F03DF900BF702800201CB10208B8B1020838B53023044683F3118812F009FB18F029FC18F0DDF91E4B9A681968002A13DB994231D1501E0028886011DB0024194D18F004FC11F056FE2B68AB4217D1002383F31188204638BD99421DD0511E9960ACB1104D2146EA68052013605C685363546022605A6018F06DFC0446E0E7EA689B6892689A42E2D2074818F0F7F84FF0FF34044D9A60D3E7044818F0EFF800BFE42B0020702800201CB10208E8B1020808B5302383F3118812F0BAFA18F0DAFB0E4B1868984205D00268002153601A6018F0AAF918F0BAFB1F
S3FD0800863011F00CFE084B1A689A4203D1002383F3118808BDD96893688A689A42F6D2034818F0C0F8740900207028002028B1020838B5302383F3118812F08EFA18F0AEFB18F0C2F900220C4CE368DD6BDA6318F091FB11F0E3FD2368A34204D1002383F31188284638BDE2689B6892689A42F5D2024818F097F800BF7028002034B1020870B5144C3023E56883F3118812F064FA18F084FBEE6B6EB10023EB6318F06AFB11F0BCFD2368A3420CD1002383F31188304670BD4FF0FF330A206B6318F0AAFBEE6BE9E7E2689B6892689A42EDD2024818F068F87028002034B1020838B5154C3023E56883F3118812F036FA18F056FBEB6B03F00502052AC3
S3FD0800872805D005230B206B6318F088FBEB6B23F00503EB6318F032FB11F084FD2368A34204D1002383F31188052038BDE2689B6892689A42F5D2024818F038F87028002034B1020810B53023044683F3118812F007FA18F027FB18F03BF9236813B1204618F08AF900220023C4E9082318F006FB11F058FD084B1A689A4205D1002383F31188C4E90C3310BDD96893688A689A42F4D2024818F00AF87028002094B1020808B518F0EBFA11F03DFD084B1A689A4203D1002383F3118808BDD96893688A689A42F6D2024817F0F1FF00BF7028002058B1020800B170470EB400B582B004AA06490748019218F083FB6FF0010012F0FFFA02B05DF804EBB8
S3FD0800882003B07047289E020868210020F0B50446003887B018BF01200D4616467A230B4A0B49FFF7DBFF00237727A1880296206841F05001CDE9003305AA02238DF815508DF8147014F086FB07B0F0BD489E0208289E02082DE9F0430446DFF86C90DFF86C80003887B00D461E4618BF01204146174657234A46FFF7B1FF20684A46003818BF012041465823FFF7A8FF4A46414659230120FFF7A2FF00233F88A188029620683E0ACDE9003341F04001032305AA8DF816708DF815608DF8145014F04AFB07B0BDE8F08300BF8C9E0208289E020838B5836804460BB14368E3B1114D124A95F820351149022B18BF284641F2490308BF05F23C5018F098
S3FD08008918EFFE6FF0010012F07BFA238CD5F8402543F0040323846260C5F8404538BD028CA3F582731A42DDD1004DEEE768210020CC9E0208E89E020870B584B09DF80030BDF804400688857823F03F0343F00303002269466FF30A040848ADF808608DF80A508DF80030ADF8044013F003F8A0F10300B0FA80F0400904B070BD000800200EB410B5044683B070B106AA20460F49019218F0B5FA20460D4918F0A1FE03B0BDE8104003B070470A480B4A90F820350A49022B08BF00F23C50BE2318F090FE6FF0010012F01CFADFE700BF209F02086CF0020868210020049F0208E89E0208002908BF32282DE9704304460D46164610D21048104A90F851
S3FD08008A1020351049022B08BF00F23C504FF4927318F06AFE6FF0010012F0F6F94FF000084FF000090848094BC0E90689C0E90845C0E90A36BDE8704308F09AB9682100204C9F0208E89E020840200020697B00082DE9F04F03290E4604461546BBB006D101222946304607F053FC002834D02A681349204618F038FE1249204618F034FE1149204618F030FE1049204618F02CFE0F49204618F028FE0E49204618F024FE29463046012207F033FC012803D002203BB0BDE8F08F00203BB0BDE8F08F00BF689F0208889F0208949F0208E09F02080CA002081CA00208686819F005FDFEF721FD0646A86819F0FFFC8046894630460021FDF775FE00285D
S3FD08008B08D9D13046BB49FDF783FE0028D3D149464046FEF70BFD00210546FDF765FE07460028C8D129464FF07E50FDF769FDB249FDF7B2FC4FF07C51FDF7A6FBFDF7F6FE002908BF322880468946B4D3DFF8ECA24FF0FF330AF5816B4FF48072A74835A913F0A0FEDBF80030A54D2093DBF80430DAF810242193DAF814341E921F93DAF840321A93DAF844321B93D5F840321C93D5F844321D93D5F8C0322E93D5F8C4322F93D5F8C8322493D5F8CC322593D5F8D0321693D5F8D4321793D5F818332A93D5F81C332B93D5F820332693D5F824332793D5F828331293D5F82C331393D5F870332C93D5F874332D93D5F878332293D5F87C332393D5F81D
S3FD08008C0080331493D5F884331593D5F8D8333093D5F8DC333193D5F8E0332893D5F8E4332993D5F8E8331893D5F8EC331993302383F3118811F0A8FF18F0C8F8042249464046FFF7D9FE32A808F05EF86C493046FDF726FC4FF07C51FDF71AFBFDF76AFE4FF000084FF00009684B329ADF62339F801847EB0101664A664F98611846C3E90889D9619A6208F07BF818F08BF811F0DDFA3B68BB4240F04383002383F3118840F2011013F0F2FC804635A9554813F0C9FD18F0FF0F40F02C83302383F3118811F062FF18F082F832A808F01DF84FF0000C5149329B339A5B1842EB0C0232A83293339208F00AF918F05CF811F0AEFA3B68BB4240F01D8380
S3FD08008CF8002383F3118823680A21DB68204698474449204618F0F4FCD5E990231C992046521A1D9963EB01033F4918F0E9FC3F49204618F0E5FCDAE990231A992046521A1B9963EB0103384918F0DAFC3849204618F0D6FCDBE90032209836491B1A0F6810934B682199204662EB010211921E9ADDE9109ABF1A1F9A2F4963EB02084A46534618F0BDFC3A46434620462B4918F0B7FC4A465346134340F077812849204618F0AEFCD5E9B232D5E9AEAB2499D5F8D0025B1A0093259BD5F8D49262EB03030193169B1799C31A69EB0101D5F8C0721A9008930991DDE900231A4920461097D5F8C47218F08CFCDDE908232046164918F086FCDDE90023AC
S3FD08008DF0134340F0EC804FF0000825E00000704200247449481F002078160020501F0020E17B000870280020A08601005CA002086CA002087CA002088CA00208381F002098A00208ACA00208D8A00208E8A00208FCA00208281B002031464046FDF7DCFBFEF748F802460B462046994918F04CFC9849204618F048FCD5E9C832D5E9C4AB2699D5F828035B1A0293279BD5F82C9362EB03030393129B1399C31A69EB0101D5F8187308900A930B91DDE902238A4920460097D5F81C7318F026FCDDE90A232046864918F020FCDDE90223134340F073814FF0000831464046FDF79DFBFEF709F802460B462046794918F00DFC7C49204618F009FCD5E92E
S3FD08008EE8DE32D5E9DAAB2299D5F880035B1A0493239BD5F8849362EB03030593149B1599C31A69EB0101D5F8707302900C930D91DDE904236A4920460097D5F8747318F0E7FBDDE90C232046664918F0E1FBDDE90423134340F0DA804FF0000831464046FDF75EFBFDF7CAFF8046894642464B465949204618F0CCFB5C49204618F0C8FBD5E9F832D5E9F4A62899D5F8E8035B1A0693299BD5F8EC7362EB03030793189B1999C31A67EB010102900E930F91DDE906234B4920460096D5E9F66518F0A8FBDDE90E232046474918F0A2FBDDE90623134340F04F8142464B4620463E4918F097FB002078E5DDE90001FDF71FFA8046DDE90801FDF71AFA2A
S3FD08008FE04146FDF711FB01464FF07E50FDF74EF93949FDF755FAFDF775FF02460B462046364918F079FBDDE90823DDE900018B4208BF8242BFF418AF52462046304918F06BFB5A4620462F4918F066FB109B2E9A981A2F9A67EB0201FDF7ECF90346DDE900011A9F169AC71B61EB0901B818179A1F4641EB02021146FDF7DCF901463846FDF7D2FAFDF73EFF02460B4620461E4918F042FB20461D49ABEB0A0218F03CFBE2E641463846FDF7C5F90746DDE91001FDF7C0F901463846FDF7B6FA01464FF07E50FDF7F3F80C49FDF7FAF9FDF71AFF02460B4620460E4918F01EFB6AE600BF88A10208A0A10208E8A00208FCA00208B0A10208C0A10208B0
S3FD080090D80000C84210A1020828A1020840A1020858A1020870A10208C0A00208DDE90401FDF78CF98046DDE90C01FDF787F94146FDF77EFA01464FF07E50FDF7BBF88A49FDF7C2F9FDF7E2FE02460B462046874918F0E6FADDE90C23DDE904018B4208BF8242BFF403AF52462046814918F0D8FA5A4620467F4918F0D3FA009B2C9A981A2D9A67EB0201FDF759F90346DDE90401029F149AC71B61EB0901B818159A1F4641EB02021146FDF749F901463846FDF73FFAFDF7ABFE02460B4620466E4918F0AFFA20466D49ABEB0A0218F0A9FACDE6DDE90201FDF732F98046DDE90A01FDF72DF94146FDF724FA01464FF07E50FDF761F85D49FDF768F9E8
S3FD080091D0FDF788FE02460B4620465A4918F08CFADDE90A23DDE902018B4208BF8242BFF46AAE52462046544918F07EFA5A462046524918F079FA009B2A9A981A2B9A67EB0201FDF7FFF80346DDE90201089F129AC71B61EB0901B818139A1F4641EB02021146FDF7EFF801463846FDF7E5F9FDF751FE02460B462046414918F055FA20464049ABEB0A0218F04FFA34E6DDE90E01FDF7D8F88346DDE90601FDF7D3F801465846FDF7C9F901464FF07E50FDF706F82F49FDF70DF9FDF72DFE02460B4620462C4918F031FADDE90E23DDE906018B4208BF8242BFF48BAE52462046264918F023FADDF800B020465A46244918F01CFA3099319B701A65EB06
S3FD080092C80301FDF7A3F8DDE9061205460298189B0E1A62EB0701F018199B41EB03031946FDF794F801462846FDF78AF9FDF7F6FD02460B462046144918F0FAF920461349ABEB0A0218F0F4F955E6F868414613F015FA8020FFF7D0BBFA689B6892689A42BFF4B7AC0A4817F051FAFA689B6892689A42BFF4DDACF5E70000C84210A1020828A1020840A1020858A1020870A1020864B102082DE9F04F03290E4604461546B1B006D101222946304606F0D5FF002834D02A681349204618F0BAF91249204618F0B6F91149204618F0B2F91049204618F0AEF90F49204618F0AAF90E49204618F0A6F929463046012206F0B5FF012803D0022031B0BDE8F2
S3FD080093C0F08F002031B0BDE8F08F00BF689F0208889F0208949F0208E09F02080CA00208D0A10208686819F087F8FEF7A3F80646A86819F081F88046894630460021FDF7F7F90028D9D13046C149FDF705FA0028D3D149464046FEF78DF800210546FDF7E7F982460028C8D129464FF07E50FDF7EBF8B849FDF734F84FF07C51FCF728FFFDF778FA002908BF322880468946B4D3B14F4FF0FF334FF48072B0482BA913F025FAD7F84032AE4D1093D7F84432DFF8E4B21193D7F868321693D7F86C321793D7F870320C93D7F874320D93D5F840320E93D5F844320F93D5F888322493D5F88C322593D5F890321293D5F894321393D5F8C8322693D5F84F
S3FD080094B8CC322793D5F8D0321493D5F8D4321593D5F810332293D5F814332393D5F818331893D5F81C331993D5F860332093D5F864332193D5F868331E93D5F86C331F93DBF8A0301A93DBF8A4301B93DBF8A8301C93DBF8AC301D93302383F3118811F037FB17F057FC022240464946FFF768FA28A807F0EDFB79493046FCF7B5FF4FF07C51FCF7A9FEFDF7F9F984468E4600200021289A754B1CEB02029A61299ADFF800C2DFF80082C3E908014EEB02021846C3F82CA0DA61C3F828C007F005FC17F015FC10F067FED8F80030434540F0D982002383F3118840F2011013F07BF881462BA9604813F052F919F0FF0F40F0C282302383F3118811F0CE
S3FD080095B0EBFA17F00BFC28A807F0A6FB4FF0000C5949289B299A5B1842EB0C0228A82893299207F093FC17F0E5FB10F037FED8F80030434540F0B382002383F3118823680A21DB68204698474C49204618F07CF8D7E9902310992046521A119963EB0103474918F071F84749204618F06DF8D5E990230E992046521A0F9963EB0103404918F062F84049204618F05EF8D7E99A321699D7F870825B1A0093179B0D9962EB030301930C9BD7F87472B8EB030A67EB0109DDE900233549204618F045F852464B462046324918F03FF8DDE90023134340F08781DDE900120C9BB1EB080062EB0701C0180D9B41EB03031946FCF7BAFE3146FCF7B1FFFDF754
S3FD080096A81DFC02460B462046244918F021F82449204618F01DF8DBE928201A99DBF8A830521A0A921B9ADBF8AC1060EB02020B921C9A1D98B3EB020861EB0009DDE90AAB184952465B46204618F002F84B4642462046154917F0FCFF5AEA0B0340F027810023009328E000BF000070420024744978160020481F0020281B0020501F0020A08601005CA002086CA002087CA0020810A202081CA202082CA2020850A2020868A2020870A2020884A20208801F0020E17B000870280020DDF8008031464046FCF74EFFFDF7BAFB02460B462046BA4917F0BEFFB949204617F0BAFFD5E9A432D5E9A09AD5E9A2B7129920465B1A0293139BB34962EB03037F
S3FD080097A00393DDE9022317F0A7FFDDE90201FCF731FE41468046FCF727FFAC49FCF770FEFDF790FB02460B462046A94917F094FFDDE90223134340F0858140463146FCF713FFFDF77FFB02460B462046A14917F083FFA149204617F07FFFD5E9B432D5E9B09AD5E9B2B7149920465B1A0493159B954962EB03030593DDE9042317F06CFFDDE90401FCF7F6FD00998046FCF7ECFE8E49FCF735FEFDF755FB02460B4620468B4917F059FFDDE90423134340F0268140463146FCF7D8FEFDF744FB02460B462046844917F048FF8449204617F044FFD5E9C632D5E9C29AD5E9C4B7189920465B1A0693199B784962EB03030793DDE9062317F031FFDDE966
S3FD080098980601FCF7BBFD00998046FCF7B1FE7149FCF7FAFDFDF71AFB02460B4620466E4917F01EFFDDE90623134340F0A88040463146FCF79DFEFDF709FB02460B462046664917F00DFF6849204617F009FFD5E9DA32D5E9D689D5E9D8AB1E9920465B1A08931F9B5A4962EB03030993DDE9082317F0F6FEDDE90801FCF780FD00990546FCF776FE5349FCF7BFFDFDF7DFFA02460B462046504917F0E3FEDDE90823134349D131462846FCF763FEFDF7CFFA02460B462046494917F0D3FE002032E5DDE90A01FCF75BFD0746494600904046FCF755FD3946FCF74CFE01464FF07E50FCF789FC3C49FCF790FDFDF7B0FA02460B4620463E4917F0B4FE26
S3FD08009990E6E649465046FCF73DFD8146DDE90001FCF738FD01464846FCF72EFE01464FF07E50FCF76BFC2D49FCF772FDFDF792FA02460B462046304917F096FE5AE6424620462E4917F090FE4A4620462C4917F08BFE209BBAEB0300219B6BEB0301FCF711FD2946FCF708FEFDF774FA02460B462046244917F078FE20462349A9EB080217F072FE91E74A4620461C4917F06CFE524620461A4917F067FE229B239ABBEB030067EB0201FCF7EDFC4146FCF7E4FDFDF750FA02460B462046124917F054FE20461149AAEB090217F04EFE33E700BF98A20208B0A20208C4A202080000C84210A1020888A10208D8A20208ECA2020800A30208C0A002082F
S3FD08009A883CA2020828A1020840A1020858A1020870A102084A4620462F4917F029FE524620462E4917F024FE269B279ABBEB030067EB0201FCF7AAFC4146FCF7A1FDFDF70DFA02460B462046254917F011FE20462449AAEB090217F00BFEB5E64A4620461D4917F005FE524620461C4917F000FE249B259ABBEB030067EB0201FCF786FC4146FCF77DFDFDF7E9F902460B462046134917F0EDFD20461249AAEB090217F0E7FD56E6D8F80C00494612F007FE802040E4D8F80C209B6892689A42BFF420AD094816F043FED8F80C209B6892689A42BFF446ADF4E700BF28A1020840A1020858A1020870A1020864B102082DE9F04F03290E460446154603
S3FD08009B8089B005D101222946304606F0C9FB38B32A687B49204617F0AFFD7A49204617F0ABFD7949204617F0A7FD7849204617F0A3FD7749204617F09FFD7649204617F09BFD29463046012206F0AAFB012803D0022009B0BDE8F08F002009B0BDE8F08F686818F089FCFDF7A5FC0346A8681D4618F082FC06460F4628460021FCF7F8FD0028E5D128466449FCF706FE0028DFD130463946FDF78EFC00210646FCF7E8FD83460028D4D131464FF07E50FCF7ECFC5A49FCF735FC4FF07C51FCF729FBFCF779FE002908BF322806460F46C0D3DFF870814FF0FF334FF48072514803A912F025FED8E9909A302383F3118810F08CFF17F0ACF80122394683
S3FD08009C783046FEF7BDFE684607F042F828464549FCF70AFC4FF07C51FCF7FEFAFCF74EFE00260027009A019D404B801845EB01013F4A404D98611846C3E90867C3F82CB0D9619A6207F060F817F070F810F0C2FA2B68AB4249D1002383F3118840F2011012F0D8FC064603A92F4812F0AFFD16F0FF0F34D1302383F31188002610F048FF17F068F8684607F003F82B49009B019A5B1846EB020268460093019207F0F2F817F044F810F096FA2B68AB4225D1002585F3118823680A21DB68204698471F49204617F0DDFCD8E99023B2EB090220461B4963EB0A0317F0D3FC28463DE7E868314612F0F3FC802037E7EA689B6892689A42B0D2134816F07D
S3FD08009D7031FDEA689B6892689A42D4D2F6E700BF689F0208889F0208949F0208E09F02080CA0020814A302080000704200247449481F0020501F0020E17B000870280020A08601005CA002086CA0020864B1020878160020F0B50F461546044687B068B30026244A04F50273204601940397059500960492029313F0C3FC80BBDDE90132552103F8011B9A42FBD8302383F3118810F0C2FE16F0E2FF684616F007FE044616F0C8FF10F01AFA134B1A689A4219D1002383F31188204607B0F0BD0F48104A90F820350F49022B08BF00F23C50A72317F05AFC6FF0010010F0E6FFC0E70A4816F0C0FCD96893688A689A42E0D2074816F0B8FC75AF0008EA
S3FD08009E68702800206821002050A30208E89E0208D0B1020810B10208436870B505460C467BB11648164A90F820351649022B08BF00F23C508B2317F02BFC6FF0010010F0B7FF04F1080630466C6012F055FFA36D04F118005A6805F10801C5E907324FF0FF33022212F0EEFCD4F8B03030460133C4F8B030BDE8704012F034B96821002084A30208C4A30208D0B5D1E900670446C0E90C23302383F3118810F041FE16F061FF002100200F4BC4E90801A3622046C4E90667E46206F02FFF16F03FFF10F091F9094B1A689A4203D1002383F31188D0BDD96893688A689A42F6D2034816F045FC00BFB17A00087028002094B10208F0B5036C044683B047
S3FD08009F6093B14068D3F89410856DD3F89820D5E90267761847F10007CDE90067683082B169460B4AFFF7B4FF94F8A0303BB91222D4F89830D4F89C0084F8A020984703B0F0BD12236946034AFFF7A2FFECE700BF599F0008D5A1000838B505460C4648B1092C02D00F2C00D038BD2846BDE8384014F0ECB80848094A90F820350849022B08BF00F23C50BA2317F086FB6FF0010010F012FFE4E700BF6821002050A30208E89E02080346006C98B1884234BF002001205A6C62B110B4D3E912439C4205D88C4208D20C1BA24205D2002010BC704770470120EDE78B42F8D9591A8A4238BF0020F3E72DE9F043054683B000286AD04068002867D005F107
S3FD0800A0580801183012F0F2FB6868083012F07CFE05F14800FEF77EFB00236868C5F88030046EA5427CD04F4EDFF844814E4F01E0002C5FD02346246CAC42F9D12A6C1A64002669682A6A8B6D08465B682E649A4229D0EC69434FDFF81891DFF80C812468A3698BB997F820354146022B4A4640F2E94314BF38463D4817F012FB6FF0010010F09EFEA3696968D1F858C0A26A013B002B08BF0126013AA4450846A361A262DDD1002E37D1C269D0F8B030013A013BC261C0F8B030083012F01CF80020C5E90700C5E92600686003B0BDE8F0832548274A90F820352449022B08BF00F23C5040F2AA4317F0DCFA6FF0010010F068FE686884E796F8203522
S3FD0800A1504246022B394640F2DB4314BF3046194817F0CAFA6FF0010010F056FE8EE7203012F0B8FC6868C2E72B6C0366A3B1D3F894308BB1816DD5F89820D1E90267F61847F10007CDE9006768304AB12B4669460A4AFFF7A5FE77E76830FEF7DFFA73E712236946064AFFF79BFE6DE768210020C4A30208A426002084A30208599F0008D5A1000838B5044680B92E482E4A90F820352E49022B08BF00F23C5040F2311317F082FA6FF0010010F00EFEEFF30583C3F3080333BB264BDB681BB39D68EFF31183002B39D0234B1A7882B301212248FDF7C6FCAB1EFC2B10D91A481A4A90F820351E49022B08BF00F23C5040F2491317F05AFA6FF00100D9
S3FD0800A24810F0E6FDEFF3118383B138BD134B1A7832B91C700121BDE838401148FDF7A4BC0121BDE838400E48FDF79EBC2846BDE8384013F0EBBF012109481C70FDF794FCCCE7BF2013F0E2FFC1E700BF68210020E0A30208C4A30208702800205C21002040210020E89E020870B50E4615460446A8B1D4F898303BB394F8A02042B115B1284612F00BFC3046BDE8704011F03ABF1122D4F89C0084F8A0209847EFE70C480C4A90F820350C49022B08BF00F23C5040F2233317F0FCF96FF0010010F088FDD4F89830002BD7D11120FFF75FFFD6E76821002084A30208C4A3020838B5044628B3406818B304F10801183012F086FA6068083012F010FDE6
S3FD0800A3406068256A816DD0F8B0304A68013B9542C0F8B03007D0E3691B689A6A994202F1FF329A62F8D1083011F0F0FE0023C4E90733636038BD0948094A90F820350949022B08BF00F23C504FF4BD7317F0B4F96FF0010010F040FD6068C8E76821002084A30208C4A3020810B5044630B1436823B12046FFF7B6FF002010BD0A480B4A90F820350A49022B08BF00F23C5040F2E92317F091F96FF0010010F01DFD2046FFF7A0FF002010BD6821002084A30208C4A3020810B5044630B1436823B12046FFF790FF002010BD0A480B4A90F820350A49022B08BF00F23C5040F2372317F06BF96FF0010010F0F7FC2046FFF77AFF002010BD6821002034
S3FD0800A43884A30208C4A3020810B5044630B1436823B12046FFF76AFF002010BD0A480B4A90F820350A49022B08BF00F23C504FF4F17317F045F96FF0010010F0D1FC2046FFF754FF002010BD6821002084A30208C4A3020838B504460D4688B1D4E90C23D4E90A01521943F100038842C4E90C2301D8A84200D9A562A94238BFE56238BD0848094A90F820350849022B08BF00F23C50AF2317F014F96FF0010010F0A0FCDCE700BF6821002084A30208C4A302082DE9F04F87B00546CDE90112DDF840800393002800F09F804068002800F09B80083012F029FC6B682A6A996D4868824200F0ED80EC696068824200F0E1800C6862681AB9246862688D
S3FD0800A530002AFBD00027734EDFF8D491DFF8D4B1A2698AB999F820355A46022B18BF48464FF48A636C4908BF6C4817F0CDF86FF0010010F059FC6B689B6DA34200F08A80A3693022013B002B08BF0127A36182F3118810F001FB16F021FC04A806F0BCFB16F008FC0FF05AFE3368B34240F098804FF0000C8CF31188D4E90223DDE904018B42D5F8803008BF82422CBFE246A0EB020AA34233D0B8F1000F01D0C8F800A0A36A2846013BA3625146FFF757FFD5E90E32D5F88800013342F10002C5E90E32002840D0D5E92332934233D8534558D9A2EB0A0C60452DD2524503D2AAEB030290422CD2A3696968002B62D0002228460831FFF745FE112011
S3FD0800A62807B0BDE8F08F05F14800FEF79BF80023C5F88030C3E73448344A90F820353049022B08BF00F23C504FF4866317F050F86FF0010010F0DCFB686851E75245C5F88CA004D253469A45C5F890A0CED36B689A6D1846A2421FD024685DE763680399C5E9074319B1D4E90223C1E90023019B23B1D4E904121846FCF768F9029A002A3FF462AF636913605EE75245AAD36B689A6D1846A242DFD1A7B9083011F042FD002007B0BDE8F08FF2689B6892689A42BFF462AF0E4816F079F801F120029AE7246823E7203012F0F9F96868E5E703F1080011F027FDE52092E700BF70280020C4A30208A42600206821002084A3020888B102082DE9F043EA
S3FD0800A72083B0884616461F460546DDF82890002800F09B804068002800F09780083012F00FFB68682B6A826D51688B4200F00C81E9694868834200F0D380146863681BB9246860680028FBD0A369002B00F090806368C5E907431FB1D4E90223C7E90023B8F1000F04D0D4E904124046FCF7F2F80EB163693360A3693022013BA36182F3118810F0F1F916F011FB684606F0ACFA16F0F8FA0FF04AFD7D4B1A689A4240F0C880002686F31188D4E90223DDE900018B42D5F8803008BF824238BF861AA34268D0B9F1000F01D0C9F80060A36A3146013BA3622846FFF749FED5E90E32D5F88810013342F10002C5E90E3211B3D5E92332934215D8B3428E
S3FD0800A81878D8B2421AD2F21A914213D26A68A36902F10801002B40F0998020322846FFF73BFD112003B0BDE8F083B242C5F88C6004D233469E42C5F89060E7D3A369002B4DD06868083011F075FC002003B0BDE8F0835248524A90F820355249022B08BF00F23C5040F27F3316F03AFF6FF0010010F0C6FA686855E74848494A90F820354849022B08BF00F23C504FF4677316F027FF6FF0010010F0B3FA5DE76B689B6DA3426DD02268D5F88830C5F880203BBBD5F8841002F10803D3E900235218D5F8981043F10003CDE90023002960D069462B46354A05F14800FFF7FEFA75E76868203012F0F3F8ACE70C68A369002B7FF433AFC1E7901B814254
S3FD0800A91097D2B24283D385E7D5E923718F42D3D8D5F8841029B33B449942CFD9D2E90201C018D5F8983041F10001CDE90001002BD1D1112305F1480069461E4AFFF7D0FA47E7D96893688A689A42BFF432AF1A4815F038FF002265E7083011F0EFFBE52078E73B44D2E90201D5F89820C01841F10001CDE90001002AADD1002B0CBF1023112305F14800D7E705F14800FDF7E6FE0023C5F880301CE7102305F14800CBE7702800206821002084A30208C4A30208B97A0008D5A1000888B102082DE9F0468A4616469946074683B0002873D04068002870D0083012F0BBF97868816D4B68002B7BD03A6AC36D9A4277D0FB69BD6B1C68FA6BA36A681C07
S3FD0800AA0803F1FF33A36242F10003A142C7E90E0310D0023542F1000224682846A36A013503F1FF33A362134642F10002A142F3D1C7E90E036368C7E90743B9F1000F03D0D4E90223C9E90023BAF1000F04D0D4E904125046FBF78AFF0EB163693360302383F3118810F08CF816F0ACF9684606F047F916F093F90FF0E5FB244B1A689A423BD1002383F31188DDE9000104F10805D5E900458D4208BF84422CBF1C46041B7868083011F04EFB21463846FFF7EAFC0A9BF3B101201C6003B0BDE8F0861448144A90F820351449022B08BF00F23C5040F22B1316F00CFE6FF0010010F098F978687BE7083011F02DFB002003B0BDE8F086012003B0BDE8C4
S3FD0800AB00F086D96893688A689A42BED2054815F061FE00BF702800206821002084A30208C4A3020888B10208F0B50D4616461F46044685B068B343685BB303A800903B46324629462046FFF741FF002833D0236C13B1039A934234D3626C92B1D4E912018842039B04D8984232D9CD1AAA422AD39942A364194602D2E1648B4225D88A4223D30A9BD3B10020039B0A9A136005B0F0BD1448144A90F820351449022B08BF00F23C5040F2A92316F0A6FD6FF0010010F032F9C1E7E52005B0F0BD184605B0F0BD1020E3E7994204D3112005B0F0BD994205D2191A8A4219460346CDD3CBE71946CCE76821002084A30208C4A302082DE9F04182B00D46AD
S3FD0800ABF8164698460446089F78B143686BB143463246294620460097FFF7DCFE00280CBFE520002002B0BDE8F0810948094A90F820350949022B08BF00F23C5040F2222316F05EFD6FF0010010F0EAF8DFE700BF6821002084A30208C4A302082DE9F04182B00D46164698460446089F78B143686BB143463246294620460097FFF7AAFE00280CBFE520002002B0BDE8F0810948094A90F820350949022B08BF00F23C5040F2CD1316F02CFD6FF0010010F0B8F8DFE700BF6821002084A30208C4A302082DE9F04383B0894616461F460446DDF8288000285AD04068002857D0083012F043F8D4E907325968914261D063689B6D1D686B68C4E907533A
S3FD0800ACF01FB1D5E90223C7E90023B9F1000F04D0D5E904124846FBF735FE0EB16B693360302383F311880FF037FF16F057F8684605F0F2FF16F03EF80FF090FA294B1A689A4246D1002686F31188D5E90223DDE900018B4208BF8242A36B38BF861AA96AE26B0133606801F1FF3142F10002A9620830C4E90E3211F0F1F931462046FFF78DFBB8F1000F20D00120C8F8006003B0BDE8F0831448154A90F820351449022B08BF00F23C50D92316F0AEFC6FF0010010F03AF8606895E76068826D9A429BD1083011F0CBF90020E1E7012003B0BDE8F083D96893688A689A42B3D2054815F001FD00BF702800206821002084A30208C4A3020888B1020817
S3FD0800ADE8F0B50D4616461F46044685B070B3436863B303A800903B46324629462046FFF757FF002834D0236C13B1039A934235D3626C9AB1D4E912018842039B04D898422ED9CD1AAA4233D39942A36406D21A469342E26402D9112005B0F0BD0A9BD3B10020039B0A9A136005B0F0BD1248134A90F820351249022B08BF00F23C5040F25B2316F045FC6FF001000FF0D1FFC0E7E52005B0F0BD0A9805B0F0BD1020E3E79942DBD2191A8A42D5D31A460346CFE79942F7D3CFE700BF6821002084A30208C4A302082DE9F04182B00D46164698460446089F78B143686BB143463246294620460097FFF7F4FE00280CBFE520002002B0BDE8F08109481E
S3FD0800AEE0094A90F820350949022B08BF00F23C5040F2022316F000FC6FF001000FF08CFFDFE700BF6821002084A30208C4A302082DE9F04182B00D46164698460446089F78B143686BB143463246294620460097FFF7C2FE00280CBFE520002002B0BDE8F0810948094A90F820350949022B08BF00F23C5040F2AD1316F0CEFB6FF001000FF05AFFDFE700BF6821002084A30208C4A302082DE9F04F044600F1240385B01946039301224FF0FF33994811F08EFCA368002B00F0A4802046E168984740F00105DFF8708298F80030002B5FD0914EF36893F8259019F004093ED14FF0300A11E0D4E9043220469847D4E90E32013342F10002C4E90E3287
S3FD0800AFD840F00105F36893F825305B0729D44FF0FF31284611F050FAC2070146E5D58AF311880FF0C5FD15F0E5FED4F830B0C4F8309015F0CBFE0FF01DF93368B34266D189F311881BF0010F20D11BF0020FD9D00F216068FEF7C4FFF36893F825305B07D5D50F216068FEF7BBFFA36923B1204698F80010E26998470399674811F0F6FB002005B0BDE8F04F0FF0DABE09216068FEF7A6FFB6E7624811F076FE218C614B01311B6889B221841BB95AE01B68002B57D01A8C9142F9D001398A422FD15A4B1E687EB3337A6BBB72681946009218461A463768B847A0F12002D2B2012A40F290805248524A90F820355249022B08BF00F23C50672316F0F4
S3FD0800B0D013FB6FF001000FF09FFE012333720DE04FF0FF355DE7F2689B6892689A4293D2474815F06FFB2120FFF76CF83E4811F025F84FF0FF31012011F07CF9302383F311880FF039FD15F059FE236B354E23F00403236315F03EFE0FF090F83368B34243D1002383F311883AE7314B1E68002E36D0337A022B22D00123726818460092274904223768B847B8B1202814D0212831D02848284A90F820352849022B08BF00F23C50902316F0BFFA6FF001000FF04BFE02233372B9E701203072B6E71D481D4A90F820351D49022B08BF00F23C508B2316F0A9FA6FF001000FF035FECBE704210F48FCF7FCFCA0E7F2689B6892689A42B6D294E70223D7
S3FD0800B1C8337298F80030002B94D1212388F8003090E721287FF47DAF0223012102483372FCF7E2FCEDE700BF40210020702800204421002054210020602100206821002018A40208C4A3020894B102085C210020036810B5044683B10E480F4A90F820350E49022B08BF00F23C504FF48D7316F05FFA6FF001000FF0EBFD094811F08CFD084B07481A681C60226010F07BFF002010BD00BF68210020E0A30208C4A3020844210020542100200346806D98B1884234BF00200120DA6D62B110B4D3E918439C4205D88C4208D20C1BA24205D2002010BC704770470120EDE78B42F8D9591A8A4238BF0020F3E738B5044600F10C05284611F051FDE369B9
S3FD0800B2C013B9A06A28B938BD284610F03FFFF12038BD284610F03AFFF32038BD10B5044608B323681D4A934232D01D4A934233D01C4A93422ED01C4A934212D01B481C4A90F820351B49022B08BF00F23C5040F2A14316F0F1F96FF001000FF07DFDFF2010BD002010BD1148114A90F820351149022B08BF00F23C5040F2964316F0DCF96FF001000FF068FD2368044A9342CCD1032010BD012010BD022010BD48B4020834B4020870B402085CB402086821002050A40208C4A3020838B504460D46E0B1E36D83B1D4E918218A420CD8A16D134429BB5A1C0AD0D4E90801C01841F10001C5E9000138BDA36D002BF2D14FF0FF324FF0FF33C5E90023A5
S3FD0800B3B838BD0B480B4A90F820350B49022B08BF00F23C504FF4497316F092F96FF001000FF01EFDD0E78B4228BF0B46D5E700BF6821002050A40208C4A3020810B50446002833D02046FFF76DFF01280CD1E269136A1BB39968C4E901319C60A368002B37D05C60146210BD2046FFF75BFF0228EDD01948194A90F820351949022B08BF00F23C5040F2C51316F05AF96FF001000FF0E6FCE269136A002BDBD1D369002BD8D19369A3B1A3609461DAE70A480B4A90F820350A49022B08BF00F23C504FF4E27316F03DF96FF001000FF0C9FCB9E794615462146210BD6821002050A40208C4A3020838B504460D4688B1D4E91023D4E90E01521943F1CD
S3FD0800B4B000038842C4E9102301D8A84200D9A563A94238BFE56338BD0848094A90F820350849022B08BF00F23C5040F20B1316F00BF96FF001000FF097FCDBE76821002050A40208C4A3020838B5044600283DD0E069083011F02CFC6368002B2FD0A268E0699A60A268C169A14226D0056AA54217D0EAB15360D0E90E32013342F10002C0E90E32083010F009FED4E91431002201335141C4E91431C4E90122E261A26238BD994214BF194600210162002AE1D14362002BDFD09A60DDE7C361D9E7E069A26882619AB153606368CCE709480A4A90F820350949022B08BF00F23C50C82316F0B2F86FF001000FF03EFCB0E71346B9E700BF68210020A9
S3FD0800B5A850A40208C4A302082DE9F0410D4616461F46044682B0002865D004F10C084046002D47D011F0C8FBE369002B73D0022D45D12046FFF78CFF4FF0F108302383F311880FF0CDFA15F0EDFB684605F088FB15F0D4FB0EF026FE434B1A689A4274D1002585F31188DDE90001D4E908238B4208BF824238BF851A04F16800FDF7A2F80EB1636B336007B13D6029462046FFF731FFB8F1000F20D1E36DF3B1D4E918218A423BD8AA4258D9481B834236D2A94255D33AE011F07CFA38B3E3695BB340464FF0F10810F06EFD404602B0BDE8F0811120FEF7ABFD4FF0110800234046A36202B0BDE8F0812148214A90F820352149022B08BF00F23C506D
S3FD0800B6A040F2274316F028F86FF001000FF0B4FB87E74FF0F208404602B0BDE8F0814FF000088FE7A9422566DBD22A4695426566D7D2D4F8A030002BCED094F8A8204FF01108002ACDD1D4F8A40084F8A8809847C7E7D96893688A689A4285D2084815F069F8A942BDD2A91A8B42E2D3DEE700BF702800206821002050A40208C4A302087CB102082DE9F0410D4617469846044682B0002861D004F10C063046002D40D011F00EFBE369002B6ED0022D3ED12046FFF7D2FEF126302383F311880FF014FA15F034FB684605F0CFFA15F01BFB0EF06DFD3A4B1A689A4261D1002585F31188DDE90001D4E908238B4208BF824238BF851AB8F1000F01D0C2
S3FD0800B798C8F8005029462046FFF77CFE26B9A36DC3B1AB4216D210260023A36277B13046636B3B6002B0BDE8F08111F0C9F950B3E3696BB3304610F0BDFCF126304602B0BDE8F081E36D002BE6D0D4E918218A4220D8AA422FD9481B83421BD2A9422CD31FE01948194A90F820351949022B08BF00F23C5040F2BB2315F072FF6FF001000FF0FEFA8BE7F226304602B0BDE8F081002694E7A9422566BED22A4695426566BAD21126B8E7D96893688A689A4298D2084814F0C3FFA942AED2A91A8B42F0D3ECE700BF702800206821002050A40208C4A302087CB102082DE9F0410D4690461F46044682B000284ED004F10C063046002D3AD011F068FA9C
S3FD0800B890E369002B42D0022D38D12046FFF72CFEF1260023A362B8F1000F02D0636BC8F80030302383F311880FF066F915F086FA684605F021FA15F06DFA0EF0BFFC244A136893423BD1002585F31188DDE90001D4E908238B4208BF824238BF851A29462046FFF7D3FD07B13D60304602B0BDE8F08111F029F9E8B1E3693BB13046F12610F01CFC304602B0BDE8F0810026C0E71048114A90F820351049022B08BF00F23C5040F23F2315F0DFFE6FF001000FF06BFA9EE7F226304602B0BDE8F081D2689B6892689A42BED2054814F03BFF00BF702800206821002050A40208C4A302087CB102082DE9F0410D4690461F46044682B000284ED004F15D
S3FD0800B9880C063046002D3AD011F0E6F9E369002B42D0022D38D12046FFF7AAFDF1260023A362B8F1000F02D0636BC8F80030302383F311880FF0E4F815F004FA684605F09FF915F0EBF90EF03DFC244A136893423BD1002585F31188DDE90001D4E908238B4208BF824238BF851A29462046FFF751FD07B13D60304602B0BDE8F08111F0A7F8E8B1E3693BB13046F12610F09AFB304602B0BDE8F0810026C0E71048114A90F820351049022B08BF00F23C504FF4C37315F05DFE6FF001000FF0E9F99EE7F226304602B0BDE8F081D2689B6892689A42BED2054814F0B9FE00BF702800206821002050A40208C4A302087CB1020838B50446E0B1E36978
S3FD0800BA80A26CD3E90C15E06C013145F10005013240F10000C3E90C15D96AC4E91220986AFCF7B6F8E069083010F050FB04F10C00BDE8384010F04ABB0848094A90F820350849022B08BF00F23C50AE2315F014FE6FF001000FF0A0F9D1E700BF6821002050A40208C4A30208F8B50D4617461E46044630B3002D36D00023E561C4E90133302383F311880FF03FF815F05FF904F1200005F0F9F815F045F90EF097FB1E4B1A689A4230D1002282F311883EB1EFF30581C1F3080101B9DA68C4E90A266763F8BD1648164A90F820351649022B08BF00F23C508D2315F0CFFD6FF001000FF05BF9002DC8D10D480D4A90F820350D49022B08BF00F23C503C
S3FD0800BB788E2315F0BDFD6FF001000FF049F9B7E7D968926889689142C9D2054814F01EFE702800206821002050A40208C4A302087CB102082DE9F04184B00D461646984604460A9F002871D0002D00F08380236B002B00F094802946434632462046FFF787FFE16DA765B1B1D4E91832934212D819448FB1B9420FD3D4E90823D4F8A010D21943F10003CDE90223002946D1102304F16800A3E03946002934D105F1080011F0A2F8E369DA69002A7DD069462046FFF7A6FBE36902A99D692846FFF7A0FBDDE90067DDE902239F4208BF96420DD277E0AD6802A92846FFF792FBDDE90223DDE900679F4208BF96426AD3E269D3699D42EED19968636096
S3FD0800BC70D46100297BD0A1604C609C6056E0D4E90823D4F8A000521843F10003CDE9022300285AD02346384A02A904F16800FEF727F9B7E73548364A90F820353549022B08BF00F23C504FF4747315F01DFD6FF001000FF0A9F8002D7FF47DAF2B482C4A90F820352B49022B08BF00F23C5040F2D13315F009FD6FF001000FF095F8236B002B7FF46CAF002E3FF469AF1F48204A90F820351F49022B08BF00F23C5040F2D23315F0F1FC6FF001000FF07DF856E79A69EAB1A260C3E9064454602046FFF7A3FE002004B0BDE8F081D5B16B68A56093B163609C606C60F0E7B9420CBF1023112304F168000C4A02A9FEF7C9F859E79C615C62DC61E1E7CE
S3FD0800BD68E3699C61EBE7546283E7E269D36979E7017B00086821002050A40208C4A30208D5A100082DE9F041069E0D46174698460446B8B14DB3206B00283AD043463A4629462046FFF79CFE05F10800A66510F0D3FF2046FFF71AFB2046FFF759FE0020BDE8F0811D481E4A90F820351D49022B08BF00F23C5040F2892315F089FC6FF001000FF015F8002DD5D11448144A90F820351449022B08BF00F23C5040F28A2315F076FC6FF001000FF002F8206B0028C4D1002FC2D00948094A90F820350949022B08BF00F23C5040F28B2315F060FC6FF001000EF0ECFFB0E700BF6821002050A40208C4A30208F8B50D4616461F460446A8B13DB3206BAA
S3FD0800BE60002838D03B46324629462046FFF73CFE05F1080010F074FF2046FFF7BBFA2046FFF7FAFD0020F8BD1D481E4A90F820351D49022B08BF00F23C5040F2032315F02BFC6FF001000EF0B7FF002DD7D11448144A90F820351449022B08BF00F23C504FF4017315F018FC6FF001000EF0A4FF206B0028C6D1002EC4D00948094A90F820350949022B08BF00F23C5040F2052315F002FC6FF001000EF08EFFB2E700BF6821002050A40208C4A30208F8B50E4617461D460446C8B15EB3236B002B3CD02B463A4631462046FFF7DEFD06F1080010F016FFE269536A002B42D0636020469C605462FFF798FD0020F8BD2048214A90F820352049022B02
S3FD0800BF5808BF00F23C5040F24B1315F0C9FB6FF001000EF055FF002ED3D11748174A90F820351749022B08BF00F23C504FF4A67315F0B6FB6FF001000EF042FF236B002BC2D1002FC0D00C480C4A90F820350C49022B08BF00F23C5040F24D1315F0A0FB6FF001000EF02CFFAEE7204694615462FFF756FD0020F8BD6821002050A40208C4A3020810B51446CAB1D4F8583204F516709B689847D4F8983204F526709B689847D4F8E03204F538709B689847D4F8303304F54C709B68BDE8104018470848084A90F820350849022B08BF00F23C50F52315F065FB6FF001000EF0F1FED4E7682100208CA40208C4A302082DE9F04F87B014460391002AFE
S3FD0800C05000F05B81039B9A0740F18180B34EDFF8008306F23C5904F54C770023D4F830230093156819461A463846A84794F818340546F3B1E5281ED096F82035A849022B0CBF4846304615F02FFB45B196F82035A449022B0CBF4846304615F025FB96F820354146022B0CBF4846304615F01CFBD3E7E528D1D1994FDFF8949207F23C5B04F5387805AE0023D4F8E0220096156819461A464046A84794F818340546002B00F0A080E52800F0A08097F820354046022B059900F0C080FDF77CFF8A4A8B4B8B49002808BF1A46384615F0EDFA6DB197F82035874A022B8749884B00F0E680102D08BF1A46384615F0DEFA97F820354946022B0CBF5846A8
S3FD0800C148384615F0D5FAC2E7E52840F0AD80039B23F002030393039B5B074AD504F57877384610F0F9FDD4F8F053002604F5767B002D37D005F10C0A504610F0EDFDD4F8F413AA688D42C4F8F023AE6042D0D4F8F8138D4208BFC4F8F863D4F8FC1350468D4214BF5660C4F8FC63D5E908890FF0C9FF38460FF0C6FF504610F0CDFDEA69934505D1D5E90801494508BF404524D050460FF0B7FF384610F0BEFDD4F8F053002DC7D138460FF0ADFF039B23F004030393039B53B14B48039A90F820355249022B08BF00F23C5015F072FA062007B0BDE8F08FC4F8F463BFE7E96AEE616E630029D5D0A86AFBF7EFFCD1E7E5287FF44EAF3C4FDFF824816B
S3FD0800C24007F23C5904F526750023D4F8982200961946D2F800B028461A46D84794F81834F3B1E5281ED097F820350598022BD4E9B63139D09847FAF735FE02460B463846414615F039FADFE7FDF7BCFE2B4B2A4A2B49002808BF1A46584615F02DFA3EE7E528D1D1214E2B4F06F23C5804F516750023D4F8582200931946D2F8009028461A46C84794F81834002B3FF441AFE5283FF441AF96F820353946022B0CBF4046304615F009FAE3E79847FAF7FBFD02460B464846414615F0FFF9A5E7102D08BF1A46584615F0F8F918E70848124A90F820351249022B08BF00F23C50772315F0EBF96FF001000EF077FD93E668210020ECA40208F4A402085F
S3FD0800C338C8A40208D0A402080CA50208D8A4020818A50208E0A402084CA5020844A502088CA40208C4A302086CF002082CA502082DE9F8430C46002900F06D81C04BC14ADB68B4F84802DA61FBF7F8FB0546002800F0FB80D4F85C3204F516779BB1BA4E96F82035B94A022B0CBFB948B64840F25E53B84915F0A4F96FF001000EF030FD002D00F0FC8038462946FDF75DFDD4F89C3204F526779BB1AB4E96F82035AB4A022B0CBFAA48A8484FF4B463A94915F087F96FF001000EF013FD002D00F0FA800022A54B3846C4E9B6322946FDF73CFDD4E99387D4F8E43204F538799BB19A4E96F82035994A022B0CBF9948964840F2E753984915F064F92D
S3FD0800C4306FF001000EF0F0FC002D00F0F78000234FF0FF32C4E9C8874846C4E9CA232946FDF716FDD4E99369D4F83433D4F8548204F54C7783B18648864A90F820358749022B08BF00F23C5040F2776315F03CF96FF001000EF0C8FCD4F8703383B17C487C4A90F820357D49022B08BF00F23C5040F2796315F028F96FF001000EF0B4FCD4F8B03383B17248724A90F820357349022B08BF00F23C5040F27C6315F014F96FF001000EF0A0FC002D40D000234FF0FF32C4E9ED6905F10806C4E9EF23C4E9F23384F8D0333046C4F8C483C4F8345310F02EFCAA6D2B6E5168C4E9D32133B923E0D3F89410D4F8C423914203D218461B6C002BF5D1C4F831
S3FD0800C5287033076404F54E7105F118004FF0FF33022210F0B7F9EA69D5F8B030013201333046EA61C5F8B0300FF0FCFD0620BDE8F8832F66E6E74848484A90F820354949022B08BF00F23C5040F27E6315F0C0F86FF001000EF04CFCACE73F4E434A96F820354049022B18BF30464FF0590308BF06F23C5015F0ACF86FF001000EF038FCD4F85C3204F51677002B7FF4F1AE96F82035324A022B334940F25F530CBF30482D4815F095F86FF001000EF021FC38460021FDF751FCD4F89C3204F52677002B7FF4F3AE96F82035244A022B254940F2A1530CBF2248204815F07AF86FF001000EF006FC0021204B3846C4E9B631FDF733FCD4E99387D4F85B
S3FD0800C620E43204F53879002B7FF4F6AE96F82035144A022B15494FF4BD630CBF1248104815F05AF86FF001000EF0E6FBF7E60C4E104A96F820350D49022B18BF30464FF04F0308BF06F23C5015F046F86FF001000EF0D2FB7EE600BF7028002000B302086821002084A30208A4260020C4A30208457B00088CA4020810B514463AB1D4F8480204F51371BDE8104010F0CBB80C480C4990F820350C4A022B08BF00F23C5040F2451315F018F86FF001000EF0A4FBD4F8480204F51371BDE8104010F0B2B868210020C4A3020884A502082DE9F04F0D4614468BB0002A00F0C980AE0700F195806B0740F18280D4F8C03363B30023D4F898131A464E68B0
S3FD0800C71804F566700121B047F128064640F0CD8094F84834E3B19C4F9C4997F82035022B14BF384607F23C5014F0DAFF102E97F8203500F05183112E00F0D581002E00F03183022B924900F0D2818F4814F0C8FFD4F858336BB3D4F8303304F54C785E6840460022012108ABB047F128064640F0938094F84834E3B1834F864997F82035022B14BF384607F23C5014F0A9FF102E97F8203500F01B83112E00F0FB82002E00F00583022B7A4900F0F882764814F097FFD4F8003363B1D4F8D8220121566808AB002204F53670B047F128064640F09580D4F8A8325BB10023D4F880121A464E6804F520700121B047F128064666D125F0040555B164480B
S3FD0800C8102A4690F820356649022B08BF00F23C5014F06AFF06200BB0BDE8F08F302383F311880EF0A9F914F0C9FA0023DFF8A081D4F85862C4F8583214F0ACFA0DF0FEFCD8F80030434540F0D082002383F31188F00700F15481B10700F17A81720700F184804EB14A484F4990F82035022B08BF00F23C5014F038FF25F0020539E74448494A90F820354949022B08BF00F23C50672314F029FF6FF001000EF0B5FA25E704F54F700FF04AFC94F84834002B84D066E704F569700FF041FC94F84834002B3FF44AAF2BE704F523700FF037FC94F84834002B90D0002E8ED12D4F344997F82035022B14BF384607F23C5014F0FCFE97F820352F49022B93
S3FD0800C9080CBF2F48244814F0F3FE79E704F539700FF018FC94F84834002B3FF462AF002E7FF45FAF1C4E274996F82035022B00F01882304614F0DCFE96F82035022B00F019820898F9F750FD1F49F9F759FE4FF07E51F9F799FC01464FF07E50F9F750FEFAF7BCFA02460B460B48184914F0C0FE37E71748B4F8789210F0EEF9154B1F6817B92BE03F684FB3BB889945FAD825D10F480FF0D7FB35E0682100201CA6020850A6020868A6020888A60208E8A5020884A50208C4A3020880A6020848A50208A426002078A6020800007A4430A50208442100205821002070280020BC480FF0B1FBBC48BC4A90F82035BC49022B08BF00F23C50962314F060
S3FD0800CA007BFE6FF001000EF007FA002794F84834002B40F0FC8104F566784046FEF748FCF12808D10023D4F898131A46D1F8049040460221C847D4F87C22D4F898330092404600223946D3F8009004F54C780423C8474046FEF72CFCF12808D10023D4F830131A46D1F8049040460221C847D4F87C22D4F830330092404600223946D3F8009004F536780423C8474046FEF710FCF12808D10023D4F8D8121A46D1F8049040460221C8474FF00009D4F8D832CDF8009040464A463946D3F800A004F520780423D0474046FEF7F3FBF12808D14B46D4F880220221D2F8049040461A46C8470022D4F880320092394640461F6826F004060423B847002EE1
S3FD0800CAF83FF4C6AEBAE6022B79497FF42EAE794814F0F6FD2CE6302383F311880EF038F814F058F904A804F0F3F814F03FF90DF091FBD8F80030434540F0BA81002383F3118894F8483453B16648049A90F820356949022B08BF00F23C5014F0D1FD26F00106B1077FF586AE302383F311880EF00FF814F02FF906A804F0CAF814F016F90DF068FBD8F80030434540F09B81002383F3118894F8483453B15248069A90F820355649022B08BF00F23C5014F0A8FDD4E99A32D4F86002013342F10002C4E99A32083010F0D0F8D4F860B2DBF85870D7F800A0DAF81820DAF804306AB10BF108000FF0B7FAD4E99C32013342F10002C4E99C3226F00206AD
S3FD0800CBF03CE63BB1DDE90601DAE90223994208BF9042E8D37B68002B00F06081DDE90601D7E90223994208BF904280F05781DAF80030D4463B6001E01F461B685A68002AFAD0D3E9029A514508BF4845F4D2CCF80030C7F800C0DBF85800E2468445DBF8609000F03F81DBF85C300027591C05BF01231946CBF85C10CBF85C308245DDE90623CAE9022318BFDAF80030CAF8041014BF9969DBF81C10DAE908320133CAF82030DAF8283042F10002CAF81470CAF81810CAF8242033B1DBE92A32013342F10002CBE92A32DBF8B030CAF82830B9F1000F00F0DF8052462B46B2464D461646994603943FE000BF442100206821002084A50208C4A30208AF
S3FD0800CCE83CA60208A4260020C4A50208D8A50208D5E923329342D5F884402ED81F446CB3BC422BD82746D5F880303BB1D3E90201DDE906238B4208BF824214D2DDE90623D5F89810D21943F10003CDE90823002900F08A802B467A4A08A905F14800FDF7D3F8C5F880602D6C002D00F09480D5F88870002FCCD1D5F884402746002FF2D0D1E706F23C5014F0C3FC96F82035022B7FF4E7AD0898F9F737FB6A49F9F740FC4FF07E51F9F780FA01464FF07E50F9F737FCFAF7A3F802460B466348634914F0A7FC1EE5022B62497FF408AD5E4814F09FFC06E5022B5F497FF4CFAC9FE6022B404608994BD0FEF74FFA5B4B5B4A5C49002808BF1A465B488B
S3FD0800CDE014F08AFCF1E4022B59497FF4EBACE1E7022B57497FF4B5AC85E6D8F80C209B6892689A42BFF429AD524813F0E3FC302383F311880DF0B8FE13F0D8FF08A803F073FF13F0BFFF0DF011FAD8F8003043456AD1002383F311884448089A90F820354549022B08BF00F23C5014F055FCE2E5BC420CBF10231123404A08A905F14800FDF746F871E7FEF703FA354B354A3649002808BF1A462E4814F03EFCA5E456464D46039CDBE92832013342F100020BF118000021CBE92832FAF78AFED4F8600208300FF053F9A1E6D8F80C209B6892689A42BFF43FAE2A4813F08CFCD8F80C209B6892689A42BFF45EAEF4E7DBF86090CBF858A0B9F1000FEE
S3FD0800CED813D0D9F8941081B1DDE906235218D9F8981043F10003CDE9082381B14B461B4A08A90BF16800FCF7F7FFDBF85800A6E6D8F80C209B6892689A428ED2CFE71223104A08A90BF16800FCF7E6FFEDE700BFB97A000800007A44A426002030A502083CA6020848A50208D0A40208C8A4020870A602086821002024A6020894B10208D8A50208D5A1000870B10208599F000810B50C4671B1104B1049DA68D4F84802D1614FF0FF33022204F513710FF092FC022010BD0A480B4A90F820350A49022B08BF00F23C504D2314F0AAFB6FF001000DF036FFDFE700BF70280020ECB202086821002084A50208C4A302082DE9F84F00254FF000084FF021
S3FD0800CFD000097B21634E644A644C654B1560C2E90A55C2E90689C2E9088906F13000614A614F30601D6004F10800C6E90455C6E90C55C6E91055C6E90289C6E90889C6E90E89C6E914897560B561B562B564B565C3E90689C3E90889C3E90A55A180126025603F600DF090F8226804F1280304F1180004F12001C4E90C89C4E90E55C4E91289C4E91755C4E92089C4E92289C4E92455C4E92655C4E92889C4E92A89C4E90811E561E56225642565A566C4F8B050A061A365A36282B13C483D4A90F820353C49022B08BF00F23C504FF4AF7314F02BFB6FF001000DF0B7FE37480FF058FE364A13682BB19888A18888424CD301D92360146030480FF0FD
S3FD0800D0C841F873687BB12B482F4A90F820352B49022B08BF00F23C50872314F009FB6FF001000DF095FEDFF88C80DFF89C901B4DDFF888A0AB462D68002D49D06B687BB198F820354A46022B51464FF08A0314BF40461E4814F0ECFA6FF001000DF078FEB542E7D198F820354A46022B18BF40464FF08B03114908BF144814F0D9FA6FF001000DF065FED2E79A88914240F2048218461B68002BF7D10460AFE7C81A002040200020801F0020501F0020481F00203820002068210020E0A30208C4A302084421002064210020C0A60208A4260020C6480FF0E1FDA36DC54C1A68C348CBF800201E600EF0CEFF802104F502722046C4F80852FCF702FE39
S3FD0800D1C0014600220023BD48BD4EC4F80C12BD49C4E99023C4F81002C4F81862C4F82012C4F81442C4F81C42C4F82442A4F8285204F50270FEF710F801237B20C4F8487284F84834FAF7B6FC0646002800F0AC8100254FF000084FF000094FF07B0A4FF0FF37A94BC4F86062C4F88032C4E99A89C4E99C89C4E9A155A448A4F878A2C4F87C520CF089FFA24BC4E9A889C4F8D832C4E9AA55C4E9AC55C4E9B089C4E9B289C4E9B489C4E9B7559A48C4F89C52C4F8BC52C4F8B8720CF06FFF974BC4E9BE89C4F83033C4E9C055C4E9C255C4E9C689C4E9C889C4E9CA89C4E9C475C4E9CD558E48C4F8F4520CF057FF8D4BC4E9D489C4F89833C4E9D65515
S3FD0800D2B8C4E9D855C4E9DC89C4E9DE89C4E9E089C4E9DA75C4E9E255C4E9E475C4E9E7558248C4F84C530CF03BFF814B814EE3E802894221C4E9EE89C4E9F055C4E9F255C4E9F689C4E9F889C4E9FA89C4E9F475C4E9FC55C4E9FE75C3E9008906F50272C4F8B453C4F80054C4F82854C4F82C54C4F83054C4F83454C4F83854C4F83C5484F840543046C6F80852FCF73FFD6A496A4A6B4BC6F80C02C6F81012C6F81822C6F82032C6E9908906F50270C6F81462C6F81C62C6F82462A6F82852FDF750FF0120604B6049614AC6F8E032C6E99355C6E99D55C6E9A075C6E9A289C6E9A489C6E9AD55C6E9B075C6E9B289C6E9B489C6E9B655C6E9BF55B5
S3FD0800D3B0C6E9C275C6E9C489C6E9C689524BA6F848A2C6F85452C6F85C52C6F89C52C6F8E452C6F8205386F81804C6F85812C6F89822C6F82453D6F80C42C6E9CA75C6E9D355C6E9D675C6E9D889C6E9DA89C6E9E489C6E9E689C6E9E855C6E9EA55C6E9EC55C6E9EE57C6E9F055C6E9F255C6F83453C6F87053C6F8785386F8D053C6F83033002C00F0B58000257B233348A6F8DC33C6F8D8530CF087FE0020002104272F4BD6F8D823E3E80201C6E9FD55C3E90001C6F8F053C6F8FC53C6F80044C6F8047482B12748284A90F820352749022B08BF00F23C504FF4E17314F035F96FF001000DF0C1FC22480FF062FC214A1368002B7BD09888B6F8B4
S3FD0800D4A8DC13884251D36CD93AE000BF881F00207816002069CF0008EDC6000899C600085CB402080419002070B402085C19002034B40208B419002048B402081C1A0020901A0020281B002069C3000845C00008DDBF00083CB4020864B4020878B4020850B40208081F0020301F002068210020E0A30208C4A3020844210020582100202949C6F8D833116028480EF00BFE284805F0A2F8274805F09FF8BDE8F84F264805F09AB89A88914238D918461B68002BF8D11D4B0360E7E73FF4B0AD2360FBE51E481F4A90F820351E49022B08BF00F23C50F22314F0BCF86FF001000DF048FC42E612480EF0DEFD0023C6F80034C6F80434CCE70C4B13606F
S3FD0800D5A0C6E71048124A90F820351049022B08BF00F23C506E2314F09FF86FF001000DF02BFC39E7E1D0024AC6F8D8330260AFE7001F002044210020A4080020B0080020BC08002068210020F8A60208C4A3020834A7020870B5148CC4F30A049CB91546127F02F00F028A4201D0022070BD40F2FF7605F12801F9F7ADF92B8C204666F30A032B8470BD012070BD00BF30232DE9F04183F311880DF0A7FA13F0C7FB7E490B7A5A1E012A00F20C82012B05D17B4B9A6942F480429A619B6900204026012542F22C144FF0FF0E4FF0020CD1F8D830734F03F56142A7FB0232D1F8D430120C9A601E615D61DC6018601A685B6881F8DCE081F808C013F0EB
S3FD0800D69885FB0CF0D7FD694B1A689A4240F02D82002585F31188664C664A636866499A4228BF1A468B4294BF0123022362602372302383F311880DF05BFA13F07BFB5F490A78531E012B00F22082012A4B6B4C6000F0808162685A48551E854200F277814FF6C0755868267A284058605868524D40F02400AA4258601ADDB01E012800F26681022E00F05981192000FB02F24D48B0FBF2F502FB1502002A40F058814FF48042A8B20B25104340F400401D6217E0012E40F04C81434D5200B5FBF2F002FB1052002A40F0438182B2032A40F23F812520B2F5805F1862C2F30B0080F03781D86120781A68022892B200F07181032800F07881012800F0DF
S3FD0800D790718102261A601A6842F001021A600E7014F06EF8302383F311882D4C0DF0ECF913F00CFB25786B1E012B00F2B7814FF0FF33284A012DA363626000F05A8118210B46D4E90B5025F4706520F47060C4E90B501078E56A002800F03381206B45F0240540F02400C4E90B505578E069002D00F01D81538A21F0440143F00303016043600223237014F019F80020124C134B25681349134AAB612369C5E9071260605BB3A16821E000BFA014002000100240C5B3A291702800207C090020801A0600A0860100681400207F1A0600005125028015002064B502080008002041A30108B1A2010871A2010813465A69C3E904011946002AF8D12261C6
