S02B00002F686F6D652F7069742F4153452F414D69526F2D417070732F636F6E66696775726174696F6E732F87
S3FD0800600000040020396200083B6200083B6200083B6200083B6200083B6200083B6200083B6200083B6200083B620008A10701083B6200083B6200083B6200083B6200083B6200083B6200083B620008290901083B6200083B620008810D0108490D0108110D0108D90C0108A10C0108310B0108110B0108F10A0108D10A0108B10A0108910A0108710A01083B620008C11F0108511F0108E11E0108510B01082D0C01083B6200083B6200083B6200083B620008FD1901083B6200083B6200083B6200083B6200089D1C0108D91B01083B6200083B62000809180108B50701083B620008AD0B01083B6200083B6200083B6200083B6200083B620008BA
S36D080060F83B6200083B6200083B6200083B6200083B6200083B6200083B6200083B6200083B6200083B620008510A0108310A0108110A0108810B01083B6200083B6200083B6200083B6200083B6200083B6200083B6200083B6200083B6200083B6200083B6200083B620008A3
S3FD0800616072B6264880F30888254880F30988254825490860022080F31488BFF36F8F0AF0A7FE02F029F84FF0553020491B4A91423CBF41F8040BFAE71D49194A91423CBF41F8040BFAE71B491B4A1C4B9A423EBF51F8040B42F8040BF8E700201849194A91423CBF41F8040BFAE70AF049FE0AF07DFE154C154DAC4203DA54F8041B8847F9E707F053FF124C124DAC4203DA54F8041B8847F9E70AF067BE000000040020000800200060000808ED00E000000020000400207039020800080020D4120020D8120020683200206061000860610008606100086061000892E700F000F8FEE72DE9F04FC1F80CD0C3689D46BDE8F08F0BF02EFF0AF07EFEAE
S3FD08006258002383F311882846A04700200CF064FAFEE70AF085FE0BF081FF0AF0A1FE0BF01BFF0AF06BFE00DFFEE7000080F0004002E000BF81F0004142001FBF5FEA410392EA030F7FEA226C7FEA236C6AD04FEA1262D2EB1363C1BFD218414048404140B8BF5B42192B88BF704710F0004F40F4000020F07F4018BF404211F0004F41F4000121F07F4118BF494292EA030F3FD0A2F1010241FA03FC10EB0C00C3F1200301FA03F100F0004302D5494260EB4000B0F5000F13D3B0F1807F06D340084FEA310102F10102FE2A51D2B1F1004F40EBC25008BF20F0010040EA03007047490040EB0000013A28BFB0F5000FEDD2B0FA80FCACF1080CB2EBD0
S3FD080063500C0200FA0CF0AABF00EBC25052421843BCBFD0401843704792F0000F81F4000106BF80F400000132013BB5E74FEA41037FEA226C18BF7FEA236C21D092EA030F04D092F0000F08BF0846704790EA010F1CBF0020704712F07F4F04D1400028BF40F00040704712F100723CBF00F50000704700F0004343F0FE4040F4000070477FEA226216BF08467FEA23630146420206BF5FEA412390EA010F40F4800070474FF0000304E000BF10F0004348BF40425FEA000C08BF704743F0964301464FF000001CE050EA010208BF70474FF000030AE000BF50EA010208BF704711F0004302D5404261EB41015FEA010C02BF84460146002043F0B64336
S3FD0800644808BFA3F18053A3F50003BCFA8CF2083AA3EBC25310DB01FA02FC634400FA02FCC2F12002BCF1004F20FA02F243EB020008BF20F00100704702F1200201FA02FCC2F1200250EA4C0021FA02F243EB020008BF20EADC7070474FF0FF0C1CEAD0521EBF1CEAD15392EA0C0F93EA0C0F6FD01A4480EA010C400218BF5FEA41211ED04FF0006343EA501043EA5111A0FB01310CF00040B1F5000F3EBF490041EAD3715B0040EA010062F17F02FD2A1DD8B3F1004F40EBC25008BF20F00100704790F0000F0CF0004C08BF49024CEA502040EA51207F3AC2BFD2F1FF0340EAC250704740F400004FF00003013A5DDC12F1190FDCBF00F00040704748
S3FD08006540C2F10002410021FA02F1C2F1200200FA02FC5FEA310040F1000053EA4C0308BF20EADC70704792F0000F00F0004C02BF400010F4000F013AF9D040EA0C0093F0000F01F0004C02BF490011F4000F013BF9D041EA0C018FE70CEAD15392EA0C0F18BF93EA0C0F0AD030F0004C18BF31F0004CD8D180EA010000F00040704790F0000F17BF90F0004F084691F0000F91F0004F14D092EA0C0F01D142020FD193EA0C0F03D14B0218BF084608D180EA010000F0004040F0FE4040F40000704740F0FE4040F4400070474FF0FF0C1CEAD0521EBF1CEAD15392EA0C0F93EA0C0F69D0A2EB030280EA010C49024FEA402037D04FF0805343EA11114C
S3FD0800663843EA10130CF000408B4238BF5B0042F17D024FF4000C8B4224BF5B1A40EA0C00B3EB510F24BFA3EB510340EA5C00B3EB910F24BFA3EB910340EA9C00B3EBD10F24BFA3EBD10340EADC001B0118BF5FEA1C1CE0D1FD2A3FF650AF8B4240EBC25008BF20F0010070470CF0004C4CEA50207F32C2BFD2F1FF0340EAC250704740F400004FF00003013A37E792F0000F00F0004C02BF400010F4000F013AF9D040EA0C0093F0000F01F0004C02BF490011F4000F013BF9D041EA0C0195E70CEAD15392EA0C0F08D142027FF47DAF93EA0C0F7FF470AF084676E793EA0C0F04D14B023FF44CAF08466EE730F0004C18BF31F0004CCAD130F000423F
S3FD080067307FF45CAF31F000437FF43CAF5FE700BF4FF0FF3C06E000BF4FF0010C02E000BF4FF0010C4DF804CD4FEA40024FEA41037FEA226C18BF7FEA236C11D001B052EA530C18BF90EA010F58BFB2EB030088BFC81738BF6FEAE17018BF40F0010070477FEA226C02D15FEA402C05D17FEA236CE4D15FEA412CE1D05DF8040B704700BF844608466146FFE70FB5FFF7C9FF002848BF10F1000F0FBD4DF808EDFFF7F4FF0CBF012000205DF808FB00BF4DF808EDFFF7EAFF34BF012000205DF808FB00BF4DF808EDFFF7E0FF94BF012000205DF808FB00BF4DF808EDFFF7D2FF94BF012000205DF808FB00BF4DF808EDFFF7C8FF34BF012000205DF822
S3FD0800682808FB00BF4FEA40024FEA41037FEA226C02D15FEA402C08D17FEA236C02D15FEA412C02D14FF0000070474FF0010070474FEA410212F5001215D211D56FF47873B3EB625212D94FEAC12343F0004343EA505311F0004F23FA02F018BF404270474FF00000704750EA013005D111F0004008BF6FF0004070474FF00000704700BF4FEA4002B2F1FE4F0FD34FF09E03B3EB12620DD94FEA002343F0004310F0004F23FA02F018BF404270474FF00000704712F1610F01D1420205D110F0004008BF6FF0004070474FF000007047D0B500F0D5FA00220B4B06460F4600F027FB00F0D5FD044600F0A8FA0022074B00F01EFB02460B4630463946E9
S3FD0800692000F060F900F0C6FD2146D0BD0000F03D0000F041844641EA000313F0030349D1403A23D30B6803604B6843608B688360CB68C3600B6903614B6943618B698361CB69C3610B6A03624B6A43628B6A8362CB6AC3620B6B03634B6B43638B6B8363CB6BC36340304031403ADBD230320BD30B6803604B6843608B688360CB68C36010301031103AF3D20C3205D351F8043B40F8043B043AF9D2043208D0D2071CBF11F8013B00F8013B01D30B8803806046704700BF082A13D38B07B1D010F00303AED0C3F10403D21ADB071CBF11F8013B00F8013BA4D331F8023B20F8023B9FE7043AD9D3013A11F8013B00F8013BF9D20B7803704B78437060
S3FD08006A188B7883706046704780EA010C1CF0030F37D110F0030C20F0030021F0030150F8042B08BF51F8043B0ED08CF0030C6FF07F434FEACC0C23FA0CFC51F8043B42EA0C0243EA0C0300BFA2F1013C9A4201BF2CEA020C1CF0803F50F8042B51F8043BF2D04FEA02604FEA1222012828BFB0EB036F08BF1B0AF4D003F0FF03000EC01A704710F0030F0AD010F8012B11F8013B012A28BF9A42F4D0A2EB030070474DF8045D50F8042B01F0030521F0030151F8043B022D26D04DD822F07F45B5EB132FA2F1013C2CEA020C0DD11CF0803C08BF51F8043B0AD185EA0205B5EB036F0CD150F8042BE8E74FEA13235BE03CF07F4C54D10B784FEA12650E
S3FD08006B1054E04FEA126503F0FF034FE04FEA0245A2F1013C4FEA15452CEA020CB5EB134F18D11CF0803C08BF51F8043B07D185EA0205B5EB034F09D150F8042BE6E75FEA0C4C2FD10B884FEA12452FE04FEA03434FEA12454FEA134328E000BF02F0FF05B5EB136FA2F1013C2CEA020C0DD11CF0803C08BF51F8043B0AD185EA0205B5EB032F0AD150F8042BE8E74FEA13630DE012F0FF0F06D051F8043B4FEA122523F07F4303E04FF0000020BC704705F0FF0203F0FF00012828BF904204BF2D0A1B0AF4D0A2EB000020BC704700BF81F0004102E000BF83F0004330B54FEA41044FEA430594EA050F08BF90EA020F1FBF54EA000C55EA020C7FEA54
S3FD08006C08645C7FEA655C00F0E2804FEA5454D4EB5555B8BF6D420CDD2C4480EA020281EA030382EA000083EA010180EA020281EA0303362D88BF30BD11F0004F4FEA01314FF4801C4CEA113102D0404261EB410113F0004F4FEA03334CEA133302D0524263EB430394EA050F00F0A780A4F10104D5F1200E0DDB02FA0EFC22FA05F2801841F1000103FA0EF2801843FA05F359410EE0A5F120050EF1200E012A03FA0EFC28BF4CF0020C43FA05F3C01851EBE37101F0004507D54FF0000EDCF1000C7EEB00006EEB0101B1F5801F1BD3B1F5001F0CD349085FEA30004FEA3C0C04F101044FEA445212F5800F80F09A80BCF1004F08BF5FEA500C50F139
S3FD08006D00000041EB045141EA050130BD5FEA4C0C404141EB0101013C28BFB1F5801FE9D291F0000F04BF01460020B1FA81F308BF2033A3F10B03B3F120020CDA0C3208DD02F1140CC2F10C0201FA0CF021FA02F10CE002F11402D8BFC2F1200C01FA02F120FA0CFCDCBF41EA0C019040E41AA2BF01EB0451294330BD6FEA04041F3C1CDA0C340EDC04F11404C4F1200220FA04F001FA02F340EA030021FA04F345EA030130BDC4F10C04C4F1200220FA02F001FA04F340EA0300294630BD21FA04F0294630BD94F0000F83F4801306BF81F480110134013D4EE77FEA645C18BF7FEA655C29D094EA050F08BF90EA020F05D054EA000C04BF19461046CD
S3FD08006DF830BD91EA030F1EBF0021002030BD5FEA545C05D14000494128BF41F0004130BD14F580043CBF01F5801130BD01F0004545F0FE4141F470014FF0000030BD7FEA645C1ABF194610467FEA655C1CBF0B46024650EA013406BF52EA033591EA030F41F4002130BD00BF90F0000F04BF0021704730B54FF4806404F132044FF000054FF0000150E700BF90F0000F04BF0021704730B54FF4806404F1320410F0004548BF40424FF000013EE700BF42004FEAE2014FEA31014FEA02701FBF12F07F4393F07F4F81F06051704732F07F4208BF704793F07F4F04BF41F40021704730B54FF4607401F0004521F000411CE700BF50EA010208BF70473C
S3FD08006EF030B54FF000050AE050EA010208BF704730B511F0004502D5404261EB41014FF4806404F132045FEA915C3FF4D8AE4FF003025FEADC0C18BF03325FEADC0C18BF033202EBDC02C2F1200300FA03FC20FA02F001FA03FE40EA0E0021FA02F11444BDE600BF70B54FF0FF0C4CF4E06C1CEA11541DBF1CEA135594EA0C0F95EA0C0F00F0DEF82C4481EA030621EA4C5123EA4C5350EA013518BF52EA033541F4801143F4801338D0A0FB02CE4FF00005E1FB02E506F00042E0FB03E54FF00006E1FB03569CF0000F18BF4EF0010EA4F1FF04B6F5007F64F5407404D25FEA4E0E6D4146EB060642EAC62141EA55514FEAC52040EA5E504FEACE2EFD
S3FD08006FE8B4F1FD0C88BFBCF5E06F1ED8BEF1004F08BF5FEA500E50F1000041EB045170BD06F0004646EA010140EA020081EA0301B4EB5C04C2BFD4EB0C0541EA045170BD41F480114FF0000E013C00F3AB8014F1360FDEBF002001F0004170BDC4F10004203C35DA0C341BDC04F11404C4F1200500FA05F320FA04F001FA05F240EA020001F0004221F0004110EBD37021FA04F642EB06015EEA430E08BF20EAD37070BDC4F10C04C4F1200500FA04F320FA05F001FA04F240EA020001F0004110EBD37041F100015EEA430E08BF20EAD37070BDC4F1200500FA05F24EEA020E20FA04F301FA05F243EA020321FA04F001F0004121FA04F220EA02005E
S3FD080070E000EBD3705EEA430E08BF20EAD37070BD94F0000F0FD101F00046400041EB010111F4801F08BF013CF7D041EA060195F0000F18BF704703F00046520043EB030313F4801F08BF013DF7D043EA0603704794EA0C0F0CEA135518BF95EA0C0F0CD050EA410618BF52EA4306D1D181EA030101F000414FF0000070BD50EA410606BF1046194652EA430619D094EA0C0F02D150EA013613D195EA0C0F05D152EA03361CBF104619460AD181EA030101F0004141F0FE4141F470014FF0000070BD41F0FE4141F4780170BD70B54FF0FF0C4CF4E06C1CEA11541DBF1CEA135594EA0C0F95EA0C0F00F0A7F8A4EB050481EA030E52EA03354FEA01318C
S3FD080071D800F088804FEA03334FF0805545EA131343EA12634FEA022245EA111545EA10654FEA00260EF000419D4208BF964244F1FD0404F5407402D25B084FEA3202B61A65EB03055B084FEA32024FF480104FF4002CB6EB020E75EB030E22BFB61A754640EA0C005B084FEA3202B6EB020E75EB030E22BFB61A754640EA5C005B084FEA3202B6EB020E75EB030E22BFB61A754640EA9C005B084FEA3202B6EB020E75EB030E22BFB61A754640EADC0055EA060E18D04FEA051545EA16754FEA06164FEAC30343EA52734FEAC2025FEA1C1CC0D111F4801F0BD141EA00014FF000004FF0004CB6E711F4801F04BF01430020B4F1FD0C88BFBCF5E06F6C
S3FD080072D03FF6AFAEB5EB030C04BFB6EB020C5FEA500C50F1000041EB045170BD0EF0004E4EEA113114EB5C04C2BFD4EB0C0541EA045170BD41F480114FF0000E013C90E645EA060E8DE60CEA135594EA0C0F08BF95EA0C0F3FF43BAF94EA0C0F0AD150EA01347FF434AF95EA0C0F7FF425AF104619462CE795EA0C0F06D152EA03353FF4FDAE1046194622E750EA410618BF52EA43067FF4C5AE50EA41047FF40DAF52EA43057FF4EBAE12E74FF0FF3C06E000BF4FF0010C02E000BF4FF0010C4DF804CD4FEA410C7FEA6C5C4FEA430C18BF7FEA6C5C1BD001B050EA410C0CBF52EA430C91EA030F02BF90EA020F0020704710F1000F91EA030F58BF6E
S3FD080073C8994208BF90422CBFD8176FEAE37040F0010070474FEA410C7FEA6C5C02D150EA013C07D14FEA430C7FEA6C5CD6D152EA033CD3D05DF8040B704700BF8446104662468C461946634600E000BF01B5FFF7B7FF002848BF10F1000F01BD4DF808EDFFF7F4FF0CBF012000205DF808FB00BF4DF808EDFFF7EAFF34BF012000205DF808FB00BF4DF808EDFFF7E0FF94BF012000205DF808FB00BF4DF808EDFFF7CEFF94BF012000205DF808FB00BF4DF808EDFFF7C4FF34BF012000205DF808FB00BF4FEA410C7FEA6C5C02D150EA013C0AD14FEA430C7FEA6C5C02D152EA033C02D14FF0000070474FF0010070474A0011D212F5001211D20DD514
S3FD080074C06FF47873B3EB62520ED44FEAC12343F0004343EA505323FA02F070474FF00000704750EA013002D14FF0FF3070474FF0000070474FEA4102B2F1E04324BFB3F5001CDCF1FE5C0DD901F0004C4FEAC0024CEA5070B2F1004F40EB830008BF20F00100704711F0804F21D113F13872BCBF01F00040704741F480114FEA5252C2F11802C2F1200C10FA0CF320FA02F018BF40F001004FEAC1234FEAD32303FA0CFC40EA0C0023FA02F34FEA4303CCE77FEA625307D150EA01331EBF4FF0FE4040F44000704701F0004040F0FE4040F40000704700BF7BB972B90029BEBF00204FF0004106E008BF00281CBF6FF000414FF0FF3000F0F1B9ADF1A2
S3FD080075B8080C6DE904CE002909DB002B1ADB00F085F8DDF804E0DDE9022304B07047404261EB4101002B1BDB00F078F8DDF804E0DDE9022304B0404261EB4101524263EB43037047524263EB430300F067F8DDF804E0DDE9022304B0404261EB41017047524263EB430300F059F8DDF804E0DDE9022304B0524263EB4303704753B94AB9002908BF00281CBF4FF0FF314FF0FF3000F0A6B9ADF1080C6DE904CE00F03EF8DDF804E0DDE9022304B0704738B50C4605462146284600220023FFF7E1FE28B928462146BDE8384000F00AB8284604F1004100F005F8404261EB410138BD00BFD0B500220B4B06460F46FFF757FCFFF705FF0446FFF7D8FB56
S3FD080076B00022074BFFF74EFC02460B4630463946FFF790FAFFF7F6FE2146D0BD0000F03D0000F0412DE9F047089E0D4604468E46002B40F083808A42174647D9B2FA82F34BB1C3F1200105FA03FE20FA01F19F4041EA0E0E9C404FEA1748BEFBF8FC1FFA87F908FB1CE20CFB09F0210C41EA024290420AD9BA180CF1FF3180F01881904240F21581ACF1020C3A44121AB2FBF8F008FB102200FB09F1A4B244EA0244A14209D93C1900F1FF3280F00381A14240F2008102383C44641A002140EA0C401EB10022DC40C6E90042BDE8F08702B9FFDEB2FA82F3002B4FD18D1A01214FEA124E1FFA82F8B5FBFEFC0EFB1C5508FB0CF0220C42EA0545A842C2
S3FD080077A807D97D190CF1FF3202D2A84200F2E98094462D1AB5FBFEF00EFB105508FB00F8A4B244EA0544A04507D93C1900F1FF3202D2A04500F2D9801046A4EB080440EA0C40C0E78B4208D9002E00F0B1800021C6E900050846BDE8F087B3FA83F100294BD1AB4202D3824200F2B980841A65EB030301209E46002EAAD0C6E9004EA7E79F40C3F12002D1404FEA174EB1FBFEF01FFA87F80EFB101124FA02F29D4000FB08FC2A43150C45EA0145AC4504FA03F409D97D1900F1FF3180F08F80AC4540F28C8002383D44A5EB0C05B5FBFEF10EFB115C01FB08F995B245EA0C45A94507D97D1901F1FF3274D2A94572D902393D44A5EB090541EA00417D
S3FD080078A078E7C1F120078B4022FA07FC4CEA030C25FA07F44FEA1C4EB4FBFEF91FFA8CF80EFB194420FA07F309FB08FA8D401D432B0C43EA0444A24502FA01F200FA01F309D91CEB040409F1FF3048D2A24546D9A9F102096444A4EB0A04B4FBFEF00EFB104400FB08FAADB245EA0444A24508D91CEB040400F1FF352DD2A2452BD90238644440EA0940A0FB0289A4EB0A044C45C6464D4619D316D05EB1B3EB0E0264EB050404FA07F722FA01F31F43CC40C6E900740021BDE8F087314630460CE78C46EBE61046FFE64345E6D2B8EB020E69EB0C050138E0E72846D3E711468CE78146B9E7084673E7084649E7ACF1020C3D4413E702383C4424E7FE
S3FD08007998704700BFF0B54FF461644268274DC2F31A03A5FB0323264E9B09A6FB0326F60A04FB16330778234C07F1500C4578A4FB03248278C1F814C090F801C06409604640090138DFF87CE005F00F05013D8861C4EB0410A3EB800302F01F023EF815E0C1E90325CCF3001C013A0B60BB07C1E90146C1F820C0724407F2BC700BD10E4B0E4C03FB00F3B4EBB30F04D2012D00DD0132CA61F0BD084B094C03FB00F3B4EB331FF6D3012DF3DCF3E700BFD34D6210C5B3A29189888888295C8FC2285C8F020AD7A300382302082DE9F0410126294C06FA00F52268154218BF002001D0BDE8F0810346DFF898C02A432260DCF814009A1944F83210204F5F
S3FD08007A90204940EA060E04EBC202516007EB0310CCF814E08268D4F804E0DCF814101EEA020F4FEA031312D00E214FF0000CFE187268FF58767B45EA0E031568B14025F00F05636015607960C2F800C0CBE74FF0A00CC27B5109890002F1604801F1604102F01F0201F5614106FA02F208F5614888F800C3C1F880210A60D5E798300020E0210208201400200010024030B40C4605460FCD0FC495E8030084E8030030BC704700BF836933B1002219461A70DB68CA60002BF9D1002383610370704700BFD1E90C30184700BF90F8A030ABB9D0F888202AB9102380F8A030D0E926301847D0E923139942F5D8D0F8843033B10A4493428CBF1123102326
S3FD08007B88EDE77047CA420CBF1023112380F8A030D0E92630184700BF90F8A8309BB9C26D2AB9102380F8A830D0E928301847D0E918139942F5D8836D33B10A4493428CBF11231023EEE77047CA420CBF1023112380F8A830D0E92830184700BF70B51A4E044609F059FA3368F068B34224D183680021A2686163934219D209F0BFF901230146054684F824302046F46009F064F9EFF309832A6A243B9A4205D829462046BDE87040FEF708BB08480FF08DFE2046BDE8704009F0E2B99A6883689342D7D203480FF081FE00BF602E002068040208BC20020810B5094C002918BF0C46FEF7C3FB4FF06A51FEF717FC0549FEF714FCA0470349FEF7C4FC23
S3FD08007C8010BD00BF2D8C01080000C84238B505460B480AF01DFC0B4B1C6814B905E024681CB1A388AB42FAD304D105480AF086FB204638BD002402480AF080FB204638BD342700204827002038B505460B480AF0FFFB0B4B1C6814B905E024681CB1A388AB42FAD304D105480AF068FB204638BD002402480AF062FB204638BD34270020542700202DE9F0410F468046487C45460130C0B211460024787402E00134322C40D095F848671035002EF7D14FF0010CC3F3050308EB041686F849370A79250105F24A7086F848C702F00F0210314044FEF7F0FDBB6933B92BE096F8492748780132904203D01946DB68002BF5D105F5E965454408EB041428
S3FD08007D78C4F85437CD603B78032B01D0BDE8F0813A7C7B7CB3EB520FF8D101233B7008F566700821BDE8F04109F04EBA3B78032B08D005233B70BDE8F08105F5E9654544BD61E0E704223B7C3A70B0EB530FDDD13846BDE8F041FFF7B1BE00BF08B5EFF30583C3F3080363B9EFF311832BB109F02BFABDE8084009F069B9BDE808400AF021BABDE8084009F01FBA00BF0A4A0B68B2F8FE26013393420B6000D0704710B50C46D1E9010109F00FFA0023C4E90033C4E9023310BD00BF58270020B2F57F4FF8B5154628BF4FF47F454FF08043322D38BF32251B4C4E19A183826004F110024260DA68276912F002020760786020611BD10220B6B25E6319
S3FD08007E701A61D8605A6A521A92B2954200D9F8BD01F1330080B2DA6892070DD558635A6A521A92B295420AD9E36A43F00103E362F8BD07480FF054FD06480FF051FD013080B28142E7D104480FF04AFD602E0020D820020838210208A81F0208F8B51D4F4FF080423B4653F8105F526A9D421FFA82FC0A4629D0BB8B0646ACEB03039BB2CB1834BF1C460C46A868A04205D916E0AE4211D02D68241AA8688442F8D84FF0FF31B460AA686B68141B356073601E60C5E90164B961F8BD07480FF011FD604609F082F83D69A868E7E76146BDE8F840FFF778BF602E0020B41F0208F8B5302383F3118809F00AF809F042FB4FF08043294C5D6A09F0F4F89A
S3FD08007F682368ADB213B1204609F098FA002609F0EBF8244B47F6FF712148C4E90466E360FFF7A0FF0023204F204C3A88AA1A92B212F1010C43EB06014FEA4C13B3EB0C034FEA411262EB01025802520242EAD35210EB0C0341EB02024FEA821E98014EEA936EC31A6EEB020213EB0C0042EB010110F1FF304FF000030D4A41F1FF31FFF725FBD4E90023801843EB0101C4E900013D8009F0DBFA08F0A3FF86F31188F8BD082700204D7F0008042700202827002040420F0070B505460C4609F095F8002D43D02B78043B012B3FD86B6ADA68910736D0DA6892073BD1186910F003002ED02020D3F8C011D3F8C421D3F8C861D3F8CC51C4E904651861C6
S3FD080080601869850703D1586940F0100058612079C1F340031B01C1F3800520F0300043EA45130343980623712AD5A368C90861F31C03A36000202379110A62F30303120C23712170628070BD1A699207C5D1012070BD0E480FF04CFC2020D3F8B011D3F8B421D3F8B861D3F8BC51C4E90465D860D8688607CBD1586940F002005861C6E72389490D61F30A032381D3E744210208426A0B7870B4946813F0200FC4F30164C3F3001318D048685B0043EAC00343F00403087802EB041243F0010300F00F00D1E90265C2F88401C2F88861C2F88C51C2F8803170BC704788885B0043EA4053E7E700BF70B4022501260024204B858403F12005056182603C
S3FD0800815880F826605E6AC16103F1380100F110058842C0E90563C0E90F44426435605D6227D0D968CB6A816213B15C6CA24219D30363C86200234FF0FF36002400250F49C0E91645CA6886640132CA6000F13802C0E9143370BCC362C36482637047596C8A4203D21C461B6B002BF8D103632063E0E71C669C66DDE7602E0020883000201B4A1346116841F0010111601A689107FCD500201968164A01F0F90119605860536813F00C0FFBD11168114B41F4803111601A689203FCD559680D4A41F4E8115960196841F08071196013689B01FCD51221084B0848506019605368044943F0020353604B6803F00C03082BFAD170470010024000200240A6
S3FD0800825000641D0070B5164D3023EE6883F3118808F08AFE09F086FFF06B80B1444220EA0403F363044009F01BFF08F06BFE2B68AB420CD1002383F31188204670BD4FF0FF330A20736308F027FFF06BE6E7EA689B6892689A42EDD202480FF051FB00BF602E0020E81F020810B53023044683F3118808F059FE09F055FF08F041FF236813B1204609F0E6F800220023C4E9082309F0E6FE08F036FE084B1A689A4205D1002383F31188C4E90C3310BDD96893688A689A42F4D202480FF022FB602E00204820020838B5EFF30583C3F3080323BBEFF31183DBB9044618B30D46302383F3118808F021FE09F01DFF2946204608F05BFF08F0BFFE09F0D8
S3FD08008348B3FE08F003FE0E4B1A689A4210D1002383F3118838BD08F04BFFBDE8384008F0ADBEBDE8384008F043BF06480FF0ECFAD96893688A689A42E9D203480FF0E4FA602E0020B0200208E81F020808B509F08BFE08F0DBFD084B1A689A4203D1002383F3118808BDD96893688A689A42F6D202480FF0C9FA00BF602E00202420020870B5104E3023F46883F3118808F0D0FD09F0CCFE2546A46A002CFBD109F064FE08F0B4FD3368B34204D1002383F31188284670BDF2689B6892689A42F5D202480FF0A2FA602E00201820020800B170470EB400B582B004AA0649074801920FF0D3FA6FF001000AF07FF902B05DF804EB03B07047780402085D
S3FD080084405827002038B5836804460BB14368E3B1114D124A95F820351149022B18BF284641F2490308BF05F23C500FF0A1FE6FF001000AF05DF9238CD5F8402543F0040323846260C5F8404538BD028CA3F582731A42DDD1004DEEE75827002098040208B404020870B584B09DF80030BDF804400688857823F03F0343F00303002269466FF30A040848ADF808608DF80A508DF80030ADF804400EF06BFAA0F10300B0FA80F0400904B070BD0008002030B5002587B0134C039100F54271CDE901010592009504940AF008F8B0B9DDE90132552103F8011B9A42FBD8302383F3118808F02BFD09F027FE684608F024FE044609F007FE204607B030BD9A
S3FD0800853802480FF009FA00BFFD8E00088420020810B5144652B1D4F8F84634B1206803689B6898472469002CF8D110BD0848094A90F820350849022B08BF00F23C5040F29D330FF019FE6FF001000AF0D5F8E2E758270020D00402080405020810B50C46D1B1164B1649DA6804F553731846D1616C22002115F0A4FF0146D4F848030EF021FDD4F848030FF09BF90121D4F848030FF04EF9022010BD0A480B4A90F820350A49022B08BF00F23C5054230FF0E4FD6FF001000AF0A0F8D3E700BF602E00206821020858270020200502080405020810B5144632B1D4F848030021BDE810400FF026B90B480C4990F820350B4A022B08BF00F23C50A823BD
S3FD080086300FF0BEFD6FF001000AF07AF8D4F848030021BDE810400FF00FB900BF5827002004050208200502082DE9F047089C002850D001284BD10D464D48002116461F460EF0FAF8014600283DD0E27D90F800C0C2F38013E08AB1F804E0C2F340121B012CF03F0C43EA4213C0F38A0243EA0C0362F30A0E0B70A1F804E03D480EF064F8302383F3118808F05FFC09F05BFD2268384B02F10109C4F80090B3F8FEA609F0EFFC08F03FFC344B1A689A4258D14FF0000888F31188D14548D02020C4E90156E760BDE8F08739462846FFF76BFB2120BDE8F08763687BB12648284A90F820352749022B08BF00F23C50A1230FF048FD6FF001000AF004F833
S3FD08008728A3687BB11D481F4A90F820351E49022B08BF00F23C50A2230FF036FD6FF0010009F0F2FFE36893B11448164A90F820351549022B08BF00F23C50A3230FF024FD6FF0010009F0E0FF2020BDE8F0872020BDE8F08728463146FFF728FB4046C4E90088C4E90288B7E7D96893688A689A42A1D206480FF0D8F80008002058270020602E002058050208040502083020020810B5044608B1036883B91448144A90F820351449022B08BF00F23C5040F2AA430FF0EAFC6FF0010009F0A6FF302383F3118808F0BFFB08F0F7FE012123680A4803F00F03994008F01FFD08F0D7FE08F09FFB002383F3118810BD00BF58270020AC050208B40402080E
S3FD080088206027002038B5044680B92E482E4A90F820352E49022B08BF00F23C5040F231130FF0B6FC6FF0010009F072FFEFF30583C3F3080333BB264BDB681BB39D68EFF31183002B39D0234B1A7882B301212248FFF7B0FAAB1EFC2B10D91A481A4A90F820351E49022B08BF00F23C5040F249130FF08EFC6FF0010009F04AFFEFF3118383B138BD134B1A7832B91C700121BDE838401148FFF78EBA0121BDE838400E48FFF788BA2846BDE8384009F0B7BE012109481C70FFF77EFACCE7BF2009F0AEFEC1E700BF58270020C805020804050208602E00204C27002030270020B40402082DE9F84F8B46002800F0CB80BBF1000F00F0DC807B4C7C4909
S3FD08008918E3687C4AD9613023CBF8442383F3118808F026FB09F022FC08F00EFC764A0BF54F7351685360CBF84C1309F0B5FB08F005FB2368A34240F0CF80002282F311885B460BF5207183F8682A20338B42FAD1DBF8F866002E68D0684FDFF8B0A1B089FFF7A6F9044600287DD0D6E90053D3F800900DB16B6883B197F820355146022B18BF384640F25E535D4A08BF5D480FF003FC6FF0010009F0BFFE002C51D0B9F1000F10D197F820355146022B18BF38464FF4AC63524A08BF52480FF0EDFB6FF0010009F0A9FE0DB16B6883B197F820355146022B18BF38464FF08B03484A08BF48480FF0D9FB6FF0010009F095FE04F1080840466C6009F079
S3FD08008A105FFDA36D4A46596804F11800C5E907314FF0FF3305F1080109F090FCD4F8B03040460133C4F8B03009F0C0FC3669002E99D10BF56670082302220BF5677109F07DFCDBF8B003BDE8F88F97F820355146022B18BF384640F25F532B4A08BF2B480FF09EFB6FF0010009F05AFE9BE797F820355146022B18BF384640F20133244A08BF22480FF08CFB6FF0010009F048FE6FE71C481E4A90F820351E49022B08BF00F23C5040F2E7230FF07AFB6FF0010009F036FEBBF1000F7FF424AF1148144A90F820351349022B08BF00F23C504FF43A730FF065FB6FF0010009F021FE11E7E2689B6892689A42BFF42BAF0A480EF027FF00BF602E002060
S3FD08008B0874210208118D0008000800205827002000060208942C0020D004020804050208542002082DE9F04F8046894681B0002876D0B9F1000F00F08880D8F8080098F80420C0F3835AC0F3826BC0F31C035146DE464C4600254FF0FF3CC0F38F1002F00F0207E0BCF1FF3F04F120042BD00135142D2FD094F8686AB71E032FF2D894F86B7A8F42EED194F8697A8742EAD194F86A7A7745E6D1990600F09080042E40F0A18009EB451393F8782A93F8793A6801B3EB520F6BD100F66820484401B0BDE8F04FFEF7B3BF002ED1D14FFA85FC0135142DCFD1BCF1FF3F5CD00220002109EB4C14C3F38F1584F8680A980684F8791A84F86ABA84F86BAA89
S3FD08008C00C4F87C1A4FEA4C1C84F8695A33D0C4F87C2A484642460CF6682C09EB0C0101B0BDE8F04FFFF76EB83648374A90F820353649022B08BF00F23C5040F235130FF0B7FA6FF0010009F073FDB9F1000F7FF478AF2C482C4A90F820352C49022B08BF00F23C504FF49B730FF0A2FA6FF0010009F05EFD65E703230CF5276C84F8683A09EB0C00013A08F11001FDF753FE98F8173084F8783A01B0BDE8F08F19481A4A90F820351949022B08BF00F23C504FF4A1730FF07DFA6FF0010001B0BDE8F04F09F036BD052E0CBF0423032309EB451484F8683A013A04F5276008F11001FDF729FE98F8173084F8783AD4E709EB4516D6F87C1A48468C1831
S3FD08008CF8C6F87C4A424606F668218CE758270020D00402080405020838B505460C4669B3002D3ED0AB68C3F38352C3F31C030F2A09D8DFE802F05C09080908090809480908090809080938BD94F8F4060028FAD0D4F8F0260138C0B202EB4000C3F38F13023A01E09042EED032F8021F9942F9D121462846BDE83840FFF7DCBE29482A4A90F820352949022B08BF00F23C5040F2A7230FF011FA6FF0010009F0CDFC002DC0D12048204A90F820352049022B08BF00F23C504FF42A730FF0FEF96FF0010009F0BAFCAEE7D4F8B423002ABBD0C3F38F1302E09268002AB5D0116889889942F8D121462846BDE83840FFF7A3BE94F844070028A7D0D4F87D
S3FD08008DF040270138C0B202EB4000C3F38F13023A01E090429BD032F8021F9942F9D121462846BDE83840FFF789BE00BF58270020D0040208040502082DE9F8430E461446804628B308EB4418D8F8804ADCB100204746814601E01C462846D7F87C3A00F108059D422CBF1A1A0822304404F1020128BF1D46FDF766FDE36884F80090C4F80C90002BE7D10023C8F8803ABDE8F8830848094A90F820350849022B08BF00F23C505E230FF08CF96FF0010009F048FCC8E700BF58270020D00402080405020838B505460C4648B1092C02D00F2C00D038BD2846BDE8384009F072BB0848094A90F820350849022B08BF00F23C50BA230FF066F96FF00100E0
S3FD08008EE809F022FCE4E700BF5827002040060208B40402082DE9F04F044600F1240385B01946039301224FF0FF33AE4809F01AFAA368002B00F0A4802046E168984740F00105DFF8C88298F80030002B5FD0A64EF36893F8259019F004093ED14FF0300A11E0D4E9043220469847D4E90E32013342F10002C4E90E3240F00105F36893F825305B0729D44FF0FF31284609F010F9C2070146E5D58AF3118807F0F9FF09F0F5F8D4F830B0C4F8309009F08DF807F0DDFF3368B34266D189F311881BF0010F20D11BF0020FD9D00F216068FFF77CFFF36893F825305B07D5D50F216068FFF773FFA36923B1204698F80010E269984703997C4809F082F94A
S3FD08008FE0002005B0BDE8F04F09F0A2BB09216068FFF75EFFB6E7774809F06AFA218C764B01311B6889B221841BB97CE01B68002B79D01A8C9142F9D001398A422FD16F4B1E687EB3337A6BBB72681946009218461A463768B847A0F12002D2B2012A40F2BB806748674A90F820356749022B08BF00F23C5067230FF0ABF86FF0010009F067FB012333720DE04FF0FF355DE7F2689B6892689A4293D25C480EF069FC2120FFF7D0FB524E534809F098F93023D6F80C9083F3118807F06FFF09F06BF8D9F83C30D9070BD401234FF0FF310B20C9F8343008F039FA002805DBD9F83C3023F00103C9F83C3008F0F3FF07F043FF3368B34253D1002383F329
S3FD080090D81188302383F3118807F04AFF09F046F8236B23F00403236308F0DEFF07F02EFF3368B34246D1002383F3118818E7354B1E68002E44D0337A022B22D001237268184600922B4904223768B847B8B1202814D0212839D02C482C4A90F820352C49022B08BF00F23C5090230FF035F86FF0010009F0F1FA0223337297E70120307294E72148214A90F820352149022B08BF00F23C508B230FF01FF86FF0010009F0DBFACBE7F2689B6892689A42A6D21A480EF0E2FBF2689B6892689A42B3D26FE704210C48FEF71AFE70E70223337298F80030002B7FF46AAF212388F8003065E721287FF452AF0223012102483372FEF705FEECE730270020EF
S3FD080091D0602E002034270020442700205027002058270020740602080405020848200208E81F02084C270020036810B5044683B10E480F4A90F820350E49022B08BF00F23C504FF48D730EF0CBFF6FF0010009F087FA094809F054F9084B07481A681C60226009F0C3F8002010BD00BF58270020C805020804050208342700204427002038B504460D4660B1006850B10022C16A4563C261C1B90C3009F0A8F80020206038BD0C480C4A90F820350C49022B08BF00F23C504FF48C730EF092FF6FF0010009F04EFA2068E1E7806AFFF73BF82068E1E700BF58270020AC06020804050208F8B504460D46002835D0DDB12868C8B10C3009F0D5F860B3AF
S3FD080092C82868C3699C4207D1D0E90867D5E902239F4208BF964234D00C3009F06BF82B68D869844214BFF120F420F8BD1648174A90F820351649022B08BF00F23C5040F201130EF051FF6FF0010009F00DFA28680C3009F0A9F80028D2D1F220F8BD0A480A4A90F820350A49022B08BF00F23C504FF480730EF038FF6FF0010009F0F4F9B7E70020F8BD00BF58270020AC060208040502082DE9F04383B00D4691461E460446DDF82880002846D0002D56D004F10807384609F0A8F8A369002B66D003F10C002B6009F0A0F800222868E16983688842A361826063D0216A884208BF2262626A90420BBF0023002263625A60B9F1000F07D0016B00290D
S3FD080093C054D0426B4846FDF7B5FA2868D0E90823C5E902230EB1436B3360B8F1000F05D0C36AB3FA83F35B0988F800300C3008F0E5FF384608F0E2FF012003B0BDE8F0832648274A90F820352649022B08BF00F23C509E230EF0CCFE6FF0010009F088F9002DA8D11D481E4A90F820351D49022B08BF00F23C509F230EF0BAFE04F108076FF0010009F074F9384609F041F8A369002B98D13846019308F0B0FF019B18462B6003B0BDE8F083E2619DE70B480C4A90F820350B49022B08BF00F23C50C6230EF096FE6FF0010009F052F92868016B426B4846FDF74EFA286897E758270020AC060208040502082DE9F04F0C4691468DB0002A00F0AB802E
S3FD080094B8A30740F1A48009F56E730493DFF878A109F57E73DFF874B10593DFF874810027059A3B460498009708A9FFF73BFF002800F08D80032609F2F733029309F20F430393029A4C4912F8013FB74203EB4303029201EB0302C85C51789378FCB28DF81C008DF81D108DF81E300EDB4DE080F84C1392F84C33013403F00F03E4B243EA0515B44282F84C533FDAAAFB042303F0FE0505EB5305651B0CABEDB201205A4641461D448A2315F8145CFEF757FF472C8CBF002001208B235A464146FEF74EFF8C235A4641460120FEF748FFC4F147039BB203EB43035B08DAB209EB020014F0010F02F101024FEA15114A44BFD1DBB24B4493F84C23013408
S3FD080095B0E4B222F00F02B44283F84D5383F84C23BFDBDDE90223934206F1030607F1030793D109F55371D9F848030DF00FFDD9F848030EF089F9089B002B3FF474AF08A90498FFF75DFE014600287FF46AAF08A8FFF726FE65E702200DB0BDE8F08F0948094A90F820350949022B08BF00F23C5073230EF0C5FD6FF0010009F081F843E7001F0208582700202005020804050208ABAAAAAAE8060208780402082DE9F041884617461D46044600286BD0002F58D07DB94748474A90F820354749022B08BF00F23C506F230EF09BFD6FF0010009F057F8002604F10800A4F80480266007F021FC002000212368C4E90666C4E90866C4E90A75C4E90C017F
S3FD080096A8C4E90E0183B13448364A90F820353449022B08BF00F23C504FF4E1730EF074FD6FF0010009F030F82F4808F0FDFE2F4B1D682DB1A988A28891420BD33AD9256029481C6008F066FE0020BDE8F081AB889A422ED929462D68002DF8D122480C6008F058FE2846BDE8F0811B481B4A90F820351B49022B08BF00F23C506E230EF043FD6FF0010008F0FFFF95E71248134A90F820351249022B08BF00F23C5069230EF032FD6FF0010008F0EEFF002F83D1DBE708D10C4808F02DFE0023F020C4E90A33BDE8F081256007480C6008F022FE0020BDE8F08100BF58270020AC06020804050208C8050208342700204827002010B5044608B3236827
S3FD080097A01D4A934232D01D4A934233D01C4A93422ED01C4A934212D01B481C4A90F820351B49022B08BF00F23C5040F2A1430EF0EFFC6FF0010008F0ABFFFF2010BD002010BD1148114A90F820351149022B08BF00F23C5040F296430EF0DAFC6FF0010008F096FF2368044A9342CCD1032010BD012010BD022010BDF8220208F0220208082302080023020858270020280702080405020838B504460D46E0B1E36D83B1D4E918218A420CD8A16D134429BB5A1C0AD0D4E90801C01841F10001C5E9000138BDA36D002BF2D14FF0FF324FF0FF33C5E9002338BD0B480B4A90F820350B49022B08BF00F23C504FF449730EF090FC6FF0010008F04CFF5D
S3FD08009898D0E78B4228BF0B46D5E700BF58270020280702080405020810B50446002833D02046FFF76DFF01280CD1E269136A1BB39968C4E901319C60A368002B37D05C60146210BD2046FFF75BFF0228EDD01948194A90F820351949022B08BF00F23C5040F2C5130EF058FC6FF0010008F014FFE269136A002BDBD1D369002BD8D19369A3B1A3609461DAE70A480B4A90F820350A49022B08BF00F23C504FF4E2730EF03BFC6FF0010008F0F7FEB9E794615462146210BD58270020280702080405020838B504460D4688B1D4E91023D4E90E01521943F100038842C4E9102301D8A84200D9A563A94238BFE56338BD0848094A90F820350849022BF9
S3FD0800999008BF00F23C5040F20B130EF009FC6FF0010008F0C5FEDBE758270020280702080405020838B5044600283DD0E069083008F086FD6368002B2FD0A268E0699A60A268C169A14226D0056AA54217D0EAB15360D0E90E32013342F10002C0E90E32083008F0E3FCD4E91431002201335141C4E91431C4E90122E261A26238BD994214BF194600210162002AE1D14362002BDFD09A60DDE7C361D9E7E069A26882619AB153606368CCE709480A4A90F820350949022B08BF00F23C50C8230EF0B0FB6FF0010008F06CFEB0E71346B9E700BF58270020280702080405020838B50446E0B1E369A26CD3E90C15E06C013145F10005013240F10000BB
S3FD08009A88C3E90C15D96AC4E91220986AFEF73EFCE069083008F08EFC04F10C00BDE8384008F088BC0848094A90F820350849022B08BF00F23C50AE230EF076FB6FF0010008F032FED1E700BF58270020280702080405020870B5148CC4F30A049CB91546127F02F00F028A4201D0022070BD40F2FF7605F12801FCF719FF2B8C204666F30A032B8470BD012070BD00BF10B5044688B1236AA4F1640293424FF0000009D2013BA4F1650213F8011F552918BF01309A42F8D110BD0848084A90F820350849022B08BF00F23C506E230EF02DFB6FF0010008F0E9FDDCE75827002064070208B404020838B50546B8B1A5F164031C462D6AA542A3EB0500FC
S3FD08009B802B4602D30BE09C4209D019781A46552903F10103F7D0013A521B801A38BD002038BD0848084A90F820350849022B08BF00F23C505F230EF0FBFA6FF0010008F0B7FDD6E75827002064070208B404020810B58CB001AA00210EF0F8FA01A803A9FDF7DCFE03A80FF06BFA04460DF06AFC0A4B5A689206FCD55A68094942F010025A600A68210CA4B29161D4615A6822F010025A600DF02CFC0CB010BD00280040381300202DE9F0418EB006460DF04AFC1C4B5A681207FCD51A4A53689B06FCD5194B1B689F69DD69D3F810805C699969DA6905EB074502EB01429542F2D10DF007FC00231149124A04EB084401FB0424104A6846A2FB04245F
S3FD08009C7805A90095A40B01930FF006F858B1214605A803AA0EF09EFA314603A8FDF782FE0EB0BDE8F08106480DF056FE002800403813002018FCFFFFB8A8B90383DE1B43542102084FF08042194B526A1B8870B5D21A002392B2561C43F1000173019B1B4FEA411262EB010204465202580242EAD352831941EB02029501980145EA9365C31A65EB0202981942EB010110F1FF304FF00003074A41F1FF31FDF78FFC064AD2E90032C01842EB0101C4E9000170BD0427002040420F00282700202DE9F0410D4616461F46044682B0002865D004F10C084046002D47D008F0BEFBE369002B73D0022D45D12046FFF728FE4FF0F108302383F3118807F07E
S3FD08009D7003F908F0FFF96846FFF7A0FF08F098F907F0E8F8434B1A689A4274D1002585F31188DDE90001D4E908238B4208BF824238BF851A04F16800FEF786FA0EB1636B336007B13D6029462046FFF7CDFDB8F1000F20D1E36DF3B1D4E918218A423BD8AA4258D9481B834236D2A94255D33AE008F046FB38B3E3695BB340464FF0F10808F0E4FA404602B0BDE8F0811120FEF711FD4FF0110800234046A36202B0BDE8F0812148214A90F820352149022B08BF00F23C5040F227430EF0C2F96FF0010008F07EFC87E74FF0F208404602B0BDE8F0814FF000088FE7A9422566DBD22A4695426566D7D2D4F8A030002BCED094F8A8204FF01108002AB1
S3FD08009E68CDD1D4F8A40084F8A8809847C7E7D96893688A689A4285D208480DF065FDA942BDD2A91A8B42E2D3DEE700BF602E00205827002028070208040502083C2002082DE9F0410D4617469846044682B0002861D004F10C063046002D40D008F004FBE369002B6ED0022D3ED12046FFF76EFDF126302383F3118807F04AF808F046F96846FFF7E7FE08F0DFF807F02FF83A4B1A689A4261D1002585F31188DDE90001D4E908238B4208BF824238BF851AB8F1000F01D0C8F8005029462046FFF718FD26B9A36DC3B1AB4216D210260023A36277B13046636B3B6002B0BDE8F08108F093FA50B3E3696BB3304608F033FAF126304602B0BDE8F08147
S3FD08009F60E36D002BE6D0D4E918218A4220D8AA422FD9481B83421BD2A9422CD31FE01948194A90F820351949022B08BF00F23C5040F2BB230EF00CF96FF0010008F0C8FB8BE7F226304602B0BDE8F081002694E7A9422566BED22A4695426566BAD21126B8E7D96893688A689A4298D208480DF0BFFCA942AED2A91A8B42F0D3ECE700BF602E00205827002028070208040502083C2002082DE9F0410D4690461F46044682B000284ED004F10C063046002D3AD008F05EFAE369002B42D0022D38D12046FFF7C8FCF1260023A362B8F1000F02D0636BC8F80030302383F3118806F09CFF08F098F86846FFF739FE08F031F806F081FF244A136893421F
S3FD0800A0583BD1002585F31188DDE90001D4E908238B4208BF824238BF851A29462046FFF76FFC07B13D60304602B0BDE8F08108F0F3F9E8B1E3693BB13046F12608F092F9304602B0BDE8F0810026C0E71048114A90F820351049022B08BF00F23C5040F23F230EF079F86FF0010008F035FB9EE7F226304602B0BDE8F081D2689B6892689A42BED205480DF037FC00BF602E00205827002028070208040502083C2002082DE9F0410D4690461F46044682B000284ED004F10C063046002D3AD008F0DCF9E369002B42D0022D38D12046FFF746FCF1260023A362B8F1000F02D0636BC8F80030302383F3118806F01AFF08F016F86846FFF7B7FD07F027
S3FD0800A150AFFF06F0FFFE244A136893423BD1002585F31188DDE90001D4E908238B4208BF824238BF851A29462046FFF7EDFB07B13D60304602B0BDE8F08108F071F9E8B1E3693BB13046F12608F010F9304602B0BDE8F0810026C0E71048114A90F820351049022B08BF00F23C504FF4C3730DF0F7FF6FF0010008F0B3FA9EE7F226304602B0BDE8F081D2689B6892689A42BED205480DF0B5FB00BF602E00205827002028070208040502083C200208F8B50D4617461E46044630B3002D36D00023E561C4E90133302383F3118806F0ADFE07F0A9FF04F12000FFF749FD07F041FF06F091FE1E4B1A689A4230D1002282F311883EB1EFF30581C1F39A
S3FD0800A248080101B9DA68C4E90A266763F8BD1648164A90F820351649022B08BF00F23C508D230DF0A1FF6FF0010008F05DFA002DC8D10D480D4A90F820350D49022B08BF00F23C508E230DF08FFF6FF0010008F04BFAB7E7D968926889689142C9D205480DF052FB602E00205827002028070208040502083C2002082DE9F041069E0D46174698460446B8B14DB3206B00283AD043463A4629462046FFF78CFF05F10800A66508F0F1F82046FFF7DEFA2046FFF7B9FB0020BDE8F0811D481E4A90F820351D49022B08BF00F23C5040F289230DF04BFF6FF0010008F007FA002DD5D11448144A90F820351449022B08BF00F23C5040F28A230DF038FF91
S3FD0800A3406FF0010008F0F4F9206B0028C4D1002FC2D00948094A90F820350949022B08BF00F23C5040F28B230DF022FF6FF0010008F0DEF9B0E700BF582700202807020804050208F8B50D4616461F460446A8B13DB3206B002838D03B46324629462046FFF72CFF05F1080008F092F82046FFF77FFA2046FFF75AFB0020F8BD1D481E4A90F820351D49022B08BF00F23C5040F203230DF0EDFE6FF0010008F0A9F9002DD7D11448144A90F820351449022B08BF00F23C504FF401730DF0DAFE6FF0010008F096F9206B0028C6D1002EC4D00948094A90F820350949022B08BF00F23C5040F205230DF0C4FE6FF0010008F080F9B2E700BF58270020A1
S3FD0800A4382807020804050208F8B50E4617461D460446C8B15EB3236B002B3CD02B463A4631462046FFF7CEFE06F1080008F034F8E269536A002B42D0636020469C605462FFF7F8FA0020F8BD2048214A90F820352049022B08BF00F23C5040F24B130DF08BFE6FF0010008F047F9002ED3D11748174A90F820351749022B08BF00F23C504FF4A6730DF078FE6FF0010008F034F9236B002BC2D1002FC0D00C480C4A90F820350C49022B08BF00F23C5040F24D130DF062FE6FF0010008F01EF9AEE7204694615462FFF7B6FA0020F8BD5827002028070208040502082DE9F043044683B00FE0DDE90089D4E90623994508BF904521D3D4E90A310020E7
S3FD0800A5309847D4E90823134337D06846FFF7BEFBD4E9080150EA0103E7D0D4E90623DDE9008952EA030506D110EB080241EB0903C4E90623DDE7994508BF904520D200216FF00200B2EB080663EB0907B94208BFB0421BD206F0E4FD236813B1204606F089FF06F0DDFD0022244B20466FF00201C4E90442E360FDF791FC03B0BDE8F083121841EB0303C4E90623B2E77B017201921B43EAD66363EB070351025B0243EAD2530A460021921947EB03039D01900145EA9265821A124865EB0303921947EB0303101843EB01010E4A0023FDF71AF8054606F0A5FD236813B1204606F04AFF06F09EFD0022084B2946204624616261E360FDF753FC03B06A
S3FD0800A628BDE8F0830DB600083F420F0040420F00D1B50008D0B5D1E900670446C0E90C23302383F3118806F093FC07F08FFD002100200F4BC4E90801A3622046C4E90667E462FFF751FF07F01FFD06F06FFC094B1A689A4203D1002383F31188D0BDD96893688A689A42F6D203480DF05DF900BF517B0008602E0020482002082DE9F04F99B002AF93467962002A00F039827B6A9B0700F13D817B6A58071FD50BF5DD633B620BF5CE630BF58C68FB61D8F8283063B1D8F80020002354680121404607F13002A0470646002800F07E813B6A08F1B00802333B62FB694345E7D1DBF8B493B9F1000F38D0DFF83CA404E0D9F80890B9F1000F30D0D9F82A
S3FD0800A72000007A6AC36A1A42F4D0D9F80430C7F814D0073323F00703ADEB030D02ABDBF8B8533B620BF56E733B61002D00F0D582DBF8C833002B00F0E583DBF8D833002B00F0E583D9F800307A6ADB6AD9F8089022EA0303D7F814D07B62B9F1000FCED1DBF8F8A6BAF1000F00F0D0800023564697F80790FB6106E0FB6936690133FB61002E00F0C38073687A6A1B681A42F3D03B7F0BEB030292F809337A610133DBB282F80933B27B9A42E6D8B368C7F810D0073323F00703ADEB030D02AB0025984607F12C0207F1300ABA613E6200243B6A414618685346026800941668BA69B047E52800F08680002108462826FB6A9BF80823C3F3C7045B0747
S3FD0800A8183B6A02F007029B8918BF01344FEA831343EA8263DBF8502318BFE4B202F06042134363F31C01C7E90E019AE80300A7F84410090C6FF00102CBF85033386487F84610BC4807F1380164F3470987F8479087F838600CF0A0F89BF85033F96A64F30503A9422A468BF8503343D907F15003AE4607F148061D4632E0082210460EEB0204E4B20021C6E90011C6E9021197F8483040F0200023F02F030343D7F84CC087F84830DBF8503308EB0E0163F31C0C2846C7F84CC0FCF731F86FF0010231469C480CF069F89BF85033F96A18463F3363F305008C4222468BF850030BD2964608329142C9D8CCB2A4EB0E0202F00F00D2B2C7E72C462546F3
S3FD0800A9106CE73E6A7A697368D7F810D01B6882F809437A6A22EA03037B6235E7DBF8B0035C37BD46BDE8F08F302383F3118806F01BFB07F017FCDBF8A84324F00802CBF8A82307F0ADFB06F0FDFA7D4A04F008041368934240F06B84002383F31188002C3FF4A5AE9946A3F26C43A3EB0B03D8463B6207E009F10109B9F1140F08F1200800F09F8398F8683A5FFA89FA012BF1D198F86B3A0F2BEDD801A252F823F000BF2BAC000861AB000885A9000861AB000885A9000861AB000885A9000861AB0008A3AC000861AB000885A9000861AB000885A9000861AB000885A9000861AB0008D7F83090C7F818D009F1070222F00702ADEB020D02AB184665
S3FD0800AA084A46D8F830103B61FBF790FF002004464FF0280C3B6A9BF808131A8801F00701920142F0007242EA8162DBF85013C9F3C70501F0604119F0070F42EA010218BF01353B7D18BFEDB207F1380162F31C00BC6365F347038C60CBF85023C1F80B406FF00102F86337483B7587F8473087F838C00BF099FF9BF8502365F305028BF85023B9F1000F40D0314607F148053E6907F1500A2FE0082213468C18E4B20020C5E90000C5E9020097F848E043F020002EF02F030343D7F84CC0DBF85003314460F31C0C504687F84830C7F84CC0FBF72DFF6FF0010229461A480BF065FF9BF85033A1451A4603F13F0363F305028BF850230AD92146083405
S3FD0800AB00A145CCD85FFA89F4621A02F00F03D2B2C9E77B6AD7F818D023F0040308F10C007B6207F04BFCE5E50A480B4A90F820350A49022B08BF00F23C5040F21A330DF037FB6FF0010007F0F3FDB4E500080020602E002058270020D00402080405020800240BF26C46304607F082FC3B6AA6F10C019A19002800F0A8803369002B40F0A180F569002D40F09D8004EB84060BEBC60606F5CE6658463A60396152463146FEF742F9B0220BEB491308F5276193F8783AD1E90001C7E9020198F8691AD8F87C0AF961B861002100204FF0FF3A02FB04B202F5906C98F86BEAC2F86454C2F86854C2F87C54CCE90001C2F8906402F5946C02F59566C2F80C
S3FD0800ABF88854C2F88C54CCE90001C6E9000102F5966CDE07CCE90001C2F89C54C2F898A400F16182FA6904F55D7304262BF813205AE20BF5E363524619465846BB61FEF7F7F898F8690AFDF743F80646002800F0E582CBF8006700230122002506F108000026D8F87C1A0BF5E064C4E90456C4E90223F96107F030FCDBF80057AB6DD3F800A0DAF81830002B00F05A8105F1080007F098FBD4E90432013342F10002C4E90432002388F8683A70E65B46002498F8690AD3F8B823D2699288824200F0E0820134032C03F11003F3D15FE6304607F079FB0134032C06F1B0067FF448AF04220BEB491388F8682A93F8782A98F8793AB3EB520F7FF44AAECD
S3FD0800ACF008F66820FCF71EFF44E63B69BB6007F12C0300933A6AB96807F13003FEF726FB00283FF427AD2B013B6007F1380300249846C7F818903B685B44FB613B6BDBF850235907C3F3C705BB699BF808131B6822F0E1529B8801F007014FEA831322F4FF1243EA816322F4FE5243EA0203CBF85033FB6918BF0135D3F8B80318BFEDB2FEF712FD03280AD8DFE800F0968E86020522BBF8523362F38913ABF852330023C8E90033C8E90233F96B97F83830DBF8502323F02F0362F31C01BBF8522343F0280387F8383002F4E073B3F5A07FF9630FD1FB6907F14806D3F8B8033146FEF731FD96E803000B0C3864A7F8441087F8463097F82C306FF0FF
S3FD0800ADE8010243EA45034146504687F847300BF0DBFD9BF850333A6B65F30503A2428BF8503355D907F1480607F1500930E0121B02F00F01D5B20020C6E90000C6E9020097F848E041F020002EF02F010143FB6CDBF8500387F84810396A60F31C0321444846FB64FBF772FD6FF00102314650460BF0AAFD9BF850232C44104602F13F013A6BE4B261F3050094428BF850031FD204F108019142CAD2082529462A46CAE70322BBF8523362F38913ABF852337AE70722BBF8523362F38913ABF8523372E70122BBF8523362F38913ABF852336AE7FB69D3F8B8334BB1BB69B9681868FEF7F3F918B9BBF852339A0519D5DBF8B833FBB1DBF8C833F3B129
S3FD0800AEE0DBF8D833002B7FF421AF0BF576710023BA69106800933A6AFEF730FA00287FF412AFD7F818902DE4BB69B8685968FEF79FF9DBF8B833002BDFD13969E7E70BF57271E4E70BF572730125BB60E7E60BF576730225BB60E2E6DAF80430002B00F07A8108F52763D3E900013B61DAE90223994208BF9042FFF495AEFB697BB9BC48BC4A90F82035BC49022B08BF00F23C504A230DF01DF96FF0010007F0D9FBDAF81030002B00F0D581AC6D6368002B00F0B1813B69D3E90001D4E90223994208BF904280F0A781DAF80060266001E0344636687368002BFAD0D6E90223994208BF9042F4D2CAF80060C4F800A0AB6D2E6E9A4500F09281EB6DD5
S3FD0800AFD8FC69013305BF01221346EB65EA65CAF804303B69B969D3E90023DAF81000CAE902232246FBF79AFCAB6DCAF814409A4516BFDAF80030E9699969DAE908320133CAF82030DAF8283042F10002CAF81810CAF8242033B1D5E92A32013342F10002C5E92A32D5F8B030CAF82830002E00F0438153463C69AA461D4633E0D6E923218A42D6F884E033D803EB020CBEF1000F2FD0E6452DD8F446D6F880303BB1D3E90201D4E900238B4208BF824216D2D4E90023D6F8981012EB0C0243F10003C7E91223002900F00B8133466E4A07F1480106F14800FFF7C6FAC6F88050366C002E00F00981D6F88830002BC7D1D6F884E0F446BCF1000FF1D023
S3FD0800B0D0CEE77B6A23F002037B62FFF7F0BA2E460EF1FF3EBEF1060F3FF6D7AD01A353F82EF000BF0BB200089BAC0008CFB100089BAC000839B100089BAC000811B10008B02303FB04B4524BF869C4F86034FCF7B5FD0023D4F86044009301463346BA6938692468A047B0E5B02300224FF0FF3503FB04B33968C3F8C05401F599604549C3F8B824C3F86014C3F8BC24C3F8C4245844FDF7A9F8302383F3118805F004FF07F000F807F14800FEF7A0FD06F098FF05F0E8FE384B1A689A4240F0E380002585F31188F869FCF779FDD7E912238446D7E902018B424FF0B00308BF824228BF2A4603FB04B438BF821AD4F86044009233466146BA693869A6
S3FD0800B1C82468A04765E5B02200254FF0FF3302FB04B4244AC4F8C034C4F86024C4F8B854C4F8BC54C4F8C454F869FCF74BFDD4F86034009501461C68BA6933463869A04747E5B02303FB04B4174B81E70E480F4A90F820350E49022B08BF00F23C50F2230CF0C2FF6FF0010007F07EFA09E508F527633B618DE6D2689B6892689A42BFF48FAB0A480CF080FB582700208007020804050208597B000808230208F8220208602E0020F0220208002302084820020804EB84050BEBC50505F57A75524629465846FDF7CDFD0BEB0413D3F8B83324012946186BD8F87C2A04F56E74FBF746FBD8F87C1A0BEB0400FDF7CEFFF1E4F4450CBF102311232E4A03
S3FD0800B2C007F1480106F14800FFF7B8F9F0E65546D5E92832013342F1000205F118000021C5E92832FCF776FDDBF80007083007F065F8D2E42E6EC5F858A0002E3FF46BAED6F8941000293FF466AE3B69D3E900235218D6F8981043F10003C7E9122311B33346164A07F1480105F16800FFF786F951E61348134A90F820351349022B08BF00F23C504B230CF033FF6FF0010007F0EFF919E6DB6892689B689342BFF417AF0A480CF0F5FA1223034A07F1480105F16800FFF763F92EE62588000891B3000858270020800702080405020854200208F0B5036C044683B093B14068D3F89410856DD3F89820D5E90267761847F10007CDE90067683082B114
S3FD0800B3B869460B4AFFF73EF994F8A0303BB91222D4F89830D4F89C0084F8A020984703B0F0BD12236946034AFFF72CF9ECE700BF91B30008258800082DE9F04184B00D461646984604460A9F002871D0002D00F08380236B002B00F094802946434632462046FEF7EFFEE16DA765B1B1D4E91832934212D819448FB1B9420FD3D4E90823D4F8A010D21943F10003CDE90223002946D1102304F16800A3E03946002934D105F1080007F038F8E369DA69002A7DD069462046FEF7E2F9E36902A99D692846FEF7DCF9DDE90067DDE902239F4208BF96420DD277E0AD6802A92846FEF7CEF9DDE90223DDE900679F4208BF96426AD3E269D3699D42EED137
S3FD0800B4B099686360D46100297BD0A1604C609C6056E0D4E90823D4F8A000521843F10003CDE9022300285AD02346384A02A904F16800FFF7ABF8B7E73548364A90F820353549022B08BF00F23C504FF474730CF057FE6FF0010007F013F9002D7FF47DAF2B482C4A90F820352B49022B08BF00F23C5040F2D1330CF043FE6FF0010007F0FFF8236B002B7FF46CAF002E3FF469AF1F48204A90F820351F49022B08BF00F23C5040F2D2330CF02BFE6FF0010007F0E7F856E79A69EAB1A260C3E9064454602046FEF77BFA002004B0BDE8F081D5B16B68A56093B163609C606C60F0E7B9420CBF1023112304F168000C4A02A9FFF74DF859E79C615C623D
S3FD0800B5A8DC61E1E7E3699C61EBE7546283E7E269D36979E7A17B00085827002028070208040502082588000838B505460C46302383F3118805F0C6FC05F0FEFFD4E90A3128469847D4E90823134307D105F0DEFF05F0A6FC002383F3118838BD2046FEF783FFF3E710B530230C4683F3118805F0A9FC05F0E1FF2046FEF776FF05F0C6FF05F08EFC002383F3118810BD2DE9F041804682B06846FEF73DFBD8E90023DDE90001994208BF904240D26FF0020600270FE06FF00201082005F062FF6846FEF729FBD8E90023DDE90001994208BF90422CD2141A63EB0105AF4208BFA642E8D36B016201121B43EAD46363EB050351025B0243EAD2530A461A
S3FD0800B6A00021121945EB03039E01900146EA9266821A0A4866EB0303121945EB0303101843EB0101064A0023FBF7B4FF0146082005F02AFF02B0BDE8F08100BF3F420F0040420F002DE9F04F0446AFB0002800F05C82BA4BDFF804E3DFF804C315AF1AAE93E803000E908DF83C10BEE80F000FC7BCE80F000FC69CE80300DEF800E0DFF8E4C227F802EB46F8040B10AD4FEA1E4E318087F800E0BCE80F000FC5DCF8003025F8023B1B0C2B70FCF73EFE002800F04782A34B4FF000080793234645464646C24647464FF0300904469B46D4E91631ED18A36A41EB07073BB100219B6A0131002BFBD18E4238BF0E46E069002800F0488111F043F880450A
S3FD0800B79838BF80460CF0FCF884422DD089F3118805F0E6FB06F0E2FCE36A0A936BB106F07BFC05F0CBFB079B1A689A420A9B40F0D8818AF311881C46CCE7236B002B40F02681A46A002CF8D10CF0DAF8044606F063FC05F0B3FB079A1368934240F0CB818AF31188002CB5D15C4601360EA811F009F882461AA811F005F8814610A811F001F8079A814538BF8146114606FB0A8AD2F8D800D2F8C030D1F8DC10D2F8C420CA4538BFCA461B1841EB02025B190C93204642EB070365490D930CF0ADFC0AF10103834205460B9308D9236820212046DB689847AA4505F10105F6D15C4920460CF09AFCFCF7A4FD0546002800F0E180DFF87C91DFF87C815E
S3FD0800B890AA6A1646FAB10027B66A0137002EFBD1002F00F09B81002300E0926A0133BB42FBD1136B43B1414620460CF079FC013F064408D0AA6AEEE7494620460CF070FC013F0644F6D145490EAA20460CF068FC0346EA6915A8002A08BF02463F4920461E440CF05DFC0B9B0644B34208D9236820212046DB689847B24506F10106F6D16A6C374920460CF04BFCD5E91601FAF779FD0D9906460C98FAF774FD01463046FAF76AFE2F49FAF7B3FDFBF7B3FA02460B462846CDE90823FEF710F9FAF750FD296AA5F1640B0646ABEB0100FAF748FD01463046FAF750FE2249FAF799FDFBF799FA064628460F46FEF7F8F8014628460A91FEF7C7F8DDE9FE
S3FD0800B9880823296A0390ABEB010B0A9920460291CDE900671649CDF810B00CF005FC0BF0F7FF85424DD0302383F3118805F0E0FA06F0DCFBEE6A3EB306F076FB05F0C6FA079A1368934240F0E580002383F31188354659E7BC080208602E0020BC070208C4070208E8070208EC0702080000C842F0070208C4080208D8080208F0080208E0070208D80702082B6B53B9AD6A002DFAD10BF0BDFF054604E015A8B5E61C46DDE61D4606F040FB05F090FA079A1368934240F0C880002383F31188002D7FF423AF204668491AAA0CF0AEFB0B9B0546834208D9236820212046DB689847AA4505F10105F6D1DDE90C01FAF7CFFC0646079BD3E93001FAF71A
S3FD0800BA80C9FC3146FAF7C0FD5A49FAF709FDFBF709FA0B460246584920460CF089FB2046534910AA0CF084FB0B9B0546834208D9236820212046DB689847AA4505F10105F6D1079B20AFD3E93601FAF7A3FC3146FAF79AFD4749FAF7E3FCFBF7E3F93D4602460B46204644490CF062FB204643490CF05EFB32224FF46163204640490CF057FB079BDFF81C91D3F8B4E0DFF818810EF1FF3CA9FB0C2C4FEA1C1C0CF1010CBCF1320F8CBFBA46C246364E0FCE0FC50FCE0FC50FCE0FC596E8030045F8040B73466246298020462F49CDF800A00CF02FFB079B2046D3F8CC305A1EA9FB021212090132322A98BF4746284900970CF01FFB00202FB0BDE8FE
S3FD0800BB78F08F07999268C96889689142BFF421AE21480BF0E1FED1689B6889689942BFF42FAEF5E7D2689B6892689A42BFF415AFEEE71A481A4A90F820351A49022B08BF00F23C504FF479730CF0F6FA6FF0010006F0B2FD91E5D2689B6892689A42BFF432AFD5E73E467AE600250F4B804601262F4607930AE600BFE80702080000C842140802082C08020844080208040902086C080208940802081820020858270020AC050208B4040208602E0020398EE338501602082DE9F0470E461746054682B000285AD0BE4210D93548364A90F820353549022B08BF00F23C504FF434730CF0ABFA6FF0010006F067FD26F00F04A7422CD9DFF8C090DFF872
S3FD0800BC70C080DFF8C0A007E022784146284601340CF096FAA7421DD022070BD1A64204D22B680A212846DB6898472246494628460CF086FAA30704D12B6820212846DB689847A642E0D95146284601340CF078FAA742E1D1BE1B04D02B680A212846DB68984730461349FBF7C1FFFBF7E3F83246CDE90001284610490CF062FA02B0BDE8F0870948094A90F820350949022B08BF00F23C5040F2CF230CF052FA6FF0010006F00EFD92E700BF58270020AC050208B4040208B18B0108500902083C09020848090208440902082DE9F0470F461646054684B0002800F09381012F40F3A481D6F804809A494046FAF762FE0446002800F001824046974992
S3FD0800BD68FAF75AFE0446002800F0F08140469449FAF752FE0446002800F0FA8140469149FAF74AFE0446002800F0F88140468E49FAF742FE0446002800F0F68140468B49FAF73AFE0446002800F0F48140468849FAF732FE0446002800F0F88140468549FAF72AFE0446002800F0F68140468249FAF722FE0446002800F0F48140467F49FAF71AFE0446002800F0F28140467C49FAF712FE0446002800F0F08140467949FAF70AFE0446002800F0CA8140467649FAF702FE0446002800F0E68140467349FAF7FAFD0446002800F0E48140467049FAF7F2FD0446002800F0EA8140466D49FAF7EAFD0446002800F0E88140466A49FAF7E2FD04460028C2
S3FD0800BE6000F0E68140466749FAF7DAFD0446002800F0E48140466449FAF7D2FD0446002800F0E28140466149FAF7CAFD0446002800F0E08198F800302D2B40F0B58198F80130742B40F0B08198F80230002B40F0AB81284656490CF07BF90024554F564EDFF89481DFF894A1DFF8949104E05AF8246059F8247001340021B81BFBF7BEFEFAF7E0FF3346CDE9020122464146284600970CF05DF9072CE9D10024474F484EDFF86081DFF860A1DFF8609104E05AF8246059F8247001340021B81BFBF79EFEFAF7C0FF3346CDE9020122464146284600970CF03DF9072CE9D13A4F3A4C3B49381BFBF78BFEFAF7ADFF394E2246394C3B46CDE9000138492F
S3FD0800BF5828460CF029F9301B3249FBF77BFEFAF79DFF344F2246344C3346CDE90001334928460CF019F92B49381BFBF76BFEFAF78DFF2F4E22462F4C3B46CDE900012E4928460CF009F92349301BFBF75BFEFAF77DFF2246CDE900013346284627490CF0FBF80024C6E000BF68090208700902087809020880090208880902089009020898090208A0090208A8090208B0090208B8090208C0090208C8090208D0090208D8090208E0090208E8090208F0090208F8090208000A02080C0A0208000008080060000800000120000000206404020860610008B18B01086839020868040208840A0208D412002000080020A40A020868320020D812002046
S3FD0800C050C40A0208E40A02083C0A0208901E0208AC1E0208600A0208C81E0208E41E02087B487C4A90F820357B49022B08BF00F23C5040F2F9230CF093F86FF0010006F04FFB012F3FF75CAE3268744928460CF087F8734928460CF083F8724928460CF07FF8714928460CF07BF8704928460CF077F86F4928460CF073F86E4928460CF06FF86D4928460CF06BF86C4928460CF067F86B4928460CF063F86A4928460CF05FF8694928460CF05BF8684928460CF057F8674928460CF053F8664928460CF04FF8654928460CF04BF8644928460CF047F8634928460CF043F8624928460CF03FF8614928460CF03BF831463846012204F0C4FA01280CBFB3
S3FD0800C14800240224204604B0BDE8F0872846594A5949FFF767FD204604B0BDE8F0872846564A5749FFF75EFD204604B0BDE8F0872846544A5449FFF755FDE3E72846534A5349FFF74FFDDDE72846524A5249FFF749FDD7E72846514A5149FFF743FDD1E72846504A5049FFF73DFDCBE728464F4A4F49FFF737FDC5E728464E4A4E49FFF731FDBFE728464D4A4D49FFF72BFDB9E728464C4A4C49FFF725FDB3E728464B4A4B49FFF71FFDADE728464A4A4A49FFF719FDA7E72846494A4949FFF713FDA1E740464849FAF708FC00287FF441AF4CE62846454A4549FFF705FD93E72846444A4449FFF7FFFC8DE72846434A4349FFF7F9FC87E72846424A43
S3FD0800C2404249FFF7F3FC81E72846414A4149FFF7EDFC7BE72846404A4049FFF7E7FC75E758270020AC050208B4040208040B0208180B0208240B0208340B0208500B0208600B0208940B0208A40B0208D40B0208FC0B0208080C02082C0C0208500C0208580C02089C0C0208A80C0208F00C0208F80C02084C0D0208540D020800000000000000000000080800600008000000000000000000000000000000000000000000000000000000000000000000000000000000000000000000000000000000000000000000000120000000200000000000000000000000000000000000000000000000000000000000000000040A0208000000000000000035
S3FD0800C338000000000000000064040208606100086839020868040208D41200200008002068320020D812002070B50E4615460446002845D000222946304604F0ABF9002856D16D682E782D2E2AD028465A49FAF74BFB58B32D2E03D16B78642B00F0998028465649FAF740FB002800F096802D2E00F0858028465249FAF736FB002800F086802D2E03D16B78722B00F0888028464C49FAF729FB002840F08680022106E06B78682BD1D1AB78002BCED11021464805F028FF454BD86806F0DEF8002070BD4348444A90F820354349022B08BF00F23C5040F24D230BF0CFFE6FF0010006F08BF900222946304604F054F90028A8D02A68204639490BF017
S3FD0800C430BFFE204638490BF0BBFE204637490BF0B7FE204636490BF0B3FE204635490BF0AFFE204634490BF0ABFE204633490BF0A7FE204632490BF0A3FE204631490BF09FFE204630490BF09BFE20462F490BF097FE20462E490BF093FE20462D490BF08FFE20462C490BF08BFE20462B490BF087FE29463046002204F010F901280CBF0020022070BD6B78742B7FF477AFAB78002B7FF473AF04218DE7AB78002B7FF463AF082187E7AB78002B3FF47BAF72E72A4620461A490BF063FE022070BD00BF580F0208640F0208700F0208840F020864270020602E002058270020AC050208B4040208040B0208180B02089C0D0208340B0208A80D0208FD
S3FD0800C528BC0D0208E00D0208180E02082C0E0208500E0208940E0208AC0E0208D40E0208200F0208340F0208900F02082DE9F04F8846164604468FB0002800F0F680B8F1010F06DDBC497068FAF756FA0546002841D03268B94920460BF016FEB84920460BF012FEB74920460BF00EFEB64920460BF00AFEB54920460BF006FEB44920460BF002FEB34920460BF0FEFDB24920460BF0FAFDB14920460BF0F6FDB04920460BF0F2FDAF4920460BF0EEFDAE4920460BF0EAFD2046AD490BF0E6FD022531464046012204F06EF8012808BF002528460FB0BDE8F08FB8F1040FBAD105A8FDF70DFBF0680CF036FBD6F808900746A0494846FAF701FA002836
S3FD0800C62040F0A98040F26B739F4240F3A480A7F26C720A92DDE908735FFA83FB7B1E9BB202F26C790BF1010A1E2B1FFA89F95FFA8AFA0FD99148924A90F820359149022B08BF00F23C5042230BF0A2FD6FF0010006F05EF8BBF10B0F0FD98848884A90F820358849022B08BF00F23C5043230BF08FFD6FF0010006F04BF86421824BBAF1020FA3FB09034FEA531001FB109998BF0AF10C0A0AF1010202EB42037B491FFA89F902EB8302BFB2A1FB022107EB090303EB990303EB9003754AA3EB400303EB9103A2FB0301581A01EB50018908C1EBC1015B1A0533A2FB0301581A01EB50018908C1EBC1015B1A0133DBB2A2FB0312991A02EB51029208ED
S3FD0800C718C2EBC2029B1ADBB205A80B93FDF754FA05A8FDF77BFADDE90671DDE90932019120460899059C0091CDE902745B49013302F26C720BF030FD49E75248584A90F820355249022B08BF00F23C5040F2E1130BF022FD6FF0010005F0DEFFF7E648465049FAF751F960B148464F49FAF74CF9F8B9002F1DDD1F2F43DCDDE9093208974EE7002F15DD0C2F30DC791E089F0A9A7B1E5FFA81FB9BB202F26C720BF1010A1E2B09915FFA8AFA1FFA82F93FF646AF67E748463D49FAF727F948B9002F33DA4A462046F3683A490BF0E6FC022506E748463849FAF718F968BB002FF0DB3B2FEEDC06970A9ADDE9087319E748462E49FAF70AF90028BED0CA
S3FD0800C81048462C49FAF704F990B148462B49FAF7FFF80028E7D048462949FAF7F9F80028D2D13B2FD0DC05970A9ADDE90873FBE6172FEADC07970A9ADDE90873F4E648461F49FAF7E5F80028BED1002FE9DABBE7A80F0208040B0208180B0208240B0208340B0208541002086C10020898100208B0100208BC100208CC100208D8100208E4100208F4100208B40F02085827002008100208B40402081F85EB51CDCCCCCC2549922424100208AC050208BC0F020868110208C40F0208DC0F0208CC0F0208D40F02080CB470B50C46054682B0002832D007AB2146284601930BF061FC064608BB34462B6820212846DB68013498471E2CF7D1731C1E2B00
S3FD0800C908C6F11D0688BF00261E44019A069928460BF05AF82B6804460A212846DB6898470136A01902B0BDE8704002B070472B6820212846DB68013698471D2ED5D9E4E70848094A90F820350849022B08BF00F23C504FF480730BF027FC6FF0010005F0E3FEBAE758270020AC050208B4040208F8B50E4617460446002837D02FB30325236831462046DB689847013DF8D123682021DB68204698473A4620461C490BF003FC071D4F2F054608D8236820212046DB6898474B2D05F1050706D1236820460A21DB689847781CF8BD3D46236831462046DB6801359847502DF7D17B1C502BC7F14F0788BF00271F44E7E709480A4A90F820350949022B5E
S3FD0800CA0008BF00F23C50CC230BF0D2FB6FF0010005F08EFEB6E700BFE807020858270020AC050208B40402082DE9F04F04460D46DFF8D0A3A1B0002800F0F6822946B94A2046FFF799FFB84BB84AB9492046FFF741FFB84BB54AB8492046FFF73BFFB74BB24AB7492046FFF735FFB64BAF4AB6492046FFF72FFF4823B44AB5492046FFF729FFDFF884E3B34ADFF88083B24F0B92AEEB0202CDE90CE2B049DFF874E30E97A8EB0707CDE90F87AD4ADFF868831191AEEB0101CDE912E1AA4FDFF85CE31492A8EB0202CDE91582A749DFF850831797AEEB0707CDE918E7A44AA54F1A91A8EB0101DFF83CE3CDE91B81A2491D92BA1ACDE91E72A1EB0E07DF
S3FD0800CAF8CDF820E04FF0010C0023A046A94608A809910DF1740E7FB9BCF1080F00F10C003BD00CEB4C0220A901EB820252F8587C0CF1010C002FEFD0BCF1080F27D0024614E01569A94219D84468594538BF5946A54294BFC1EB0501C1EB04018F4234BF00277F1A87600C32964510D051690029F9D00168D2F80CB05945E2D24468A345F1D81569AC42E0D90C329645EED1BCF1080F3B4400F10C00C3D19B0A784A79494046FFF79BFE4946774A4046FFF7E8FE764A774B1168444699424D4619D1117953790529907992F807C000F04482042900F07682032900F06B82022900F082826C4A6D4F6D4E01290CBF11463946079634E240466A490BF003
S3FD0800CBF0DFFA684B07932946684A2046FFF7BCFE674B01274FF000084FF003094FF0040B1E46644A6449029320460223CDE9037BCDE90098FFF756FE3B46CDE901865F4A5F492046CDE903790097FFF74BFE0222079E07235B49019220465B4ACDF800800296FFF73FFE02220823584900922046554ACDF804800296FFF734FE544B2F4A54492046FFF72EFE0923534A534900932046534BCDE90197FFF724FE514A524B524900922046524AFFF71CFE2946514A2046FFF769FE3B4620464F4A4F49CDF800B0FFF70FFEBAF8FC36002B00F0B48020464B4A4B49FFF705FEBAF8FE36484A49492046FFF7FEFD2946484A2046FFF74BFE08A8FCF79EFFB6
S3FD0800CCE8DDE90C230E990B9F03F26C730132002900F09C80012900F0D981022900F0DC81032900F0D181042900F0E2813A48DFF80CC105290CBF0146614688E0A8110208B4110208E8070208CC110208D8110208001202080C1202081812020828120208301202084012020848120208000000000000000000000000000000000000000000000000000000000000000000000120581202086012020864120208C00100084C422D4120110208341102082C110208F81202082C1302084C130208701202084013020854130208741302088C1302088013020898130208A4130208AC130208E0120208EC1202084C110208D8130208B8130208CC130208CD
S3FD0800CDE0C4130208E4130208EC130208F4130208FC130208001402081C140208281402088411020858270020000000000000000000000000000000000000000000000000000000209C1102082046B14AB149FFF751FD4AE7B049CDE9017100922046AF4AAF49FFF747FDDDE908232046CDE90032AC490A9BAC4AFFF73DFD01232046AB4AAB49FFF737FD4FF46162322300922046A84AA949FFF72EFD302383F31188DFF834A304F079F805F075F908A8FCF716FF05F00EF904F05EF8DAF80030534540F011814FF0000B8BF31188DDE90889142340464946994AFAF7BDFB494607464FF47A7240460023FAF7B5FB4046049249460023934AFAF7AEFB21
S3FD0800CED8104619464FF47A720023FAF7A7FB84464946404600238D4ACDF80CC0FAF79EFB10461946884A0023FAF798FB78A3D3E90023844649464046CDF808C0FAF78EFB10461946814A0023FAF788FB84464946404614237B4ACDF804C0FAF77FFB104619466BA3D3E90023FAF778FB3B460090774A20467749FFF7C1FC774A724B10680293F9F7A3FF754ACDE9000120467449FFF7B4FC29462046724AFFF701FD724B724A2046DB687249FFF7A8FCDAF8B430DFF82C8208AF03F1FF3EA8FB0E2E3A46DFF820924FEA1E1E0EF1010EBEF1320F98BF4A461646DFF810C20093BCE80F000FC7BCE80F000FC7BCE80F000FC79CE8030047F8040B7346A3
S3FD0800CFD0398020465D495E4A0196FFF77BFCDAF8CC2008AE531EA8FB03131B090133322B98BF4E462046CDE900265649544AFFF769FC29462046544AFFF7B6FC534B2046534A5449FFF75EFC5A4629462046FFF7ABFC21B0BDE8F08F9AF820354E4A022B18BF50464FF491734C4908BF0AF23C500BF0B6F86FF0010005F072FBF6E4484A11460792474F484A97F80AE0CDF810E097F809E0CDE9000CCDE9021E20464349FFF730FC7B7A012B03D0204640490BF097F83C4A3F4BD17B107B0291977B3E490197527B012818BF0B46009220463B4A3B49FFF717FCA6E5314A3A490792D1E73949C0E63949BEE62D4A39490792C9E73849B8E6DAF80C20D6
S3FD0800D0C89B6892689A42BFF4E8AE35480AF03CFC3449ACE6244A34490792B7E7AFF3008000A493D6000000000C140208001402088C1102083C140208501402086814020858140208001502087014020888140208A01402080060D71D40420F0000879303B8140208D414020800270020F4140208081502082415020888300020FC1302083815020864150208481502088015020898150208AC150208E8070208B4150208AC050208B40402082C110208C0010008701202088C120208981202084C11020850110208E0120208EC120208181102086C1102089411020804110208641102080C2002087811020824110208602E0020398EE3385016020867
S3FD0800D1C00409020810B5044628B120462D21FFF72BFC002010BD0B480B4A90F820350B49022B08BF00F23C504FF40D730AF0E0FF6FF0010005F09CFA20462D21FFF714FC002010BD58270020AC050208B40402082DE9F04F9A4E9B4DD6F8F8360446AB428846174683B000F0498131D823F48013B3F1985F00F0EC80934D04F13709424648460321FCF74AFC84F83A00002800F0A18002287BD03023D5F80C9083F3118803F08AFE04F086FFD9F83C30002B40F0C78104F01DFF03F06DFE2B68AB4240F0C984002383F311883B6003B0BDE8F08F7E4A9342D0D196F82035022B4FF0300300F0428283F3118803F066FE04F062FF4FF08043744DD3F8A6
S3FD0800D2B8249004F0F9FE03F049FE2B68AB4240F0E184002383F311886F496B481FFA89F20AF06AFF302383F3118803F049FE04F045FF03F031FF236813B1204604F0D6F804F0DAFE03F02AFE2B68AB4240F08F84002383F31188032304F1370984F83430616B484605F0B8FA4846FBF7BFF896F82035002840F05B82022B58490CBF584851480AF039FF002156480AF0DBF8564BC6F8F83677E796F82035022B4FF0300300F0CA8183F3118803F00AFE04F006FF4FF08043D3F8248004F09EFE03F0EEFD2B68AB4240F06384002383F3118847491FFA88F23C480AF00FFF60E796F82035022B4FF0300300F08D8183F3118803F0E7FD04F0E3FE4FF0C6
S3FD0800D3B080435F6A04F07CFE03F0CCFD2B68AB4240F04884002383F3118837492C48BAB20AF0EEFE94F83730022B84F8343000F0DF8103F0FD02012A00F02E82002384F8343096F820352D49022B00F0F08120480AF0D6FE214BC6F8F83603B0BDE8F08F96F820352649022B14BF304606F23C500AF0C6FE2546302383F3118803F0A4FD04F0A0FE03F08CFE55F8183B13B1204604F030F803F084FE00221A4B25610E4DE36042F2107120466261FAF737FD04F027FE03F077FD2B68AB4240F00884002383F31188104B04F13709C6F8F836DEE65827002000003213602E0020001042130C16020818160208942C0020A823020800204213901602088B
S3FD0800D4A8281602087C160208D0150208C528010802001113022380F83430B6F8FC36A0F8353096F82035022B4FF0300300F0458183F3118803F04CFD04F048FE4FF08043C34DD3F8249004F0DFFD03F02FFD2B68AB4240F0CE83002383F31188BD49B4F83530BD481FFA89F20AF04EFE04F13709616B484605F0B8F94846FAF7BFFF96F82035002840F05B81022BB4490CBFB448B1480AF039FEA246302383F3118803F017FD04F013FE03F0FFFD5AF8183B13B1204603F0A3FF03F0F7FD0023DFF8DCB2C4E904A342F210712046C4F80CB0FAF7A9FC04F099FD03F0E9FC2B68AB4240F0AB83002383F31188302383F31188DFF878A203F0EDFC04F07D
S3FD0800D5A0E9FD03F0D5FDDAF8003013B1504603F079FF03F0CDFD0022944B4FF47A719448CAF81030CAF81420CAF80CB0FAF77EFC04F06EFD03F0BEFC2B68AB4240F09C83002383F31188626BB6F8FE36C2F30F22A287884A0133A6F8FE36C6F8F8261EE6C3F1000823EA0802C9F83C2008EA030804F04EFD03F09EFC2B68AB4240F02183002383F31188636AC7F8008018EA030F00F04E8196F82035022B4FF0300300F0DC8183F3118803F097FC04F093FD4FF08043D3F8248004F02BFD03F07BFC2B68AB4240F00583002383F311886A4964481FFA88F20AF09CFDD6F8F836674A934200F0E481664A934200F0A28196F820356449022B0CBF5C4860
S3FD0800D69859480AF089FD624BC6F8F83604F11C0004F0F0FD626A3B6823EA02033B6003B0BDE8F08F83F3118803F05AFC04F056FD4FF080435F6A04F0EFFC03F03FFC2B68AB4240F0EC82002383F311885149BAB247480AF061FD71E683F3118803F040FC04F03CFD4FF08043D3F8248004F0D4FC03F024FC2B68AB4240F0CA82002383F3118845491FFA88F239480AF045FD96E583F3118803F024FC04F020FD4FF080432F4DD3F8249004F0B7FC03F007FC2B68AB4240F0D782002383F3118837491FFA89F22B480AF028FDBCE583F3118803F007FC04F003FD4FF08043214DD3F8249004F09AFC03F0EAFB2B68AB4240F0B382002383F311881B4994
S3FD0800D790B4F835301FFA89F21B480AF009FDB9E694F8382094F8393043EA0223A4F8353096F82035022B00F03F82B4F835201E490F480AF0F5FC134BD6F8F8269A4200F0528196F820351949022B7FF410AE0A480AF0E6FC0EE6022B15490CBF064804480AF0DEFC23E500BF602E0020E015020858270020F0150208942C0020EC250020F025002000003113BC1602080200111300004113841602080010421328160208901602080C1602084816020858160208FC150208C5280108032B28D196F82035C949022B0CBFC948C9480AF0A9FC302383F3118803F088FB04F084FC03F070FC236813B1204603F015FE04F019FC03F069FB2B68AB4240F078
