S02B00002F686F6D652F7069742F4153452F414D69526F2D417070732F636F6E66696775726174696F6E732F87
S3FD0800600000040020396200083B6200083B6200083B6200083B6200083B6200083B6200083B6200083B6200083B62000841F101083B6200083B6200083B6200083B6200083B6200083B6200083B6200087DF201083B6200083B62000821F80108E9F70108B1F7010879F7010841F70108D1F50108B1F5010891F5010871F5010851F5010831F5010811F501083B620008110A0208A109020831090208F1F50108CDF601083B6200083B6200083B6200083B62000855F101083B6200083B6200081109020829070208F1080208F50602083B6200083B620008210202083B6200083B6200084DF601083B6200083B6200083B6200083B6200083B620008B1
S36D080060F83B6200083B6200083B6200083B620008150402083B6200083B6200083B6200083B6200083B620008F1F40108D1F40108B1F4010821F601083B6200083B6200083B6200083B6200083B6200083B6200083B6200083B6200083B6200083B6200083B6200083B620008FC
S3FD0800616072B6264880F30888254880F30988254825490860022080F31488BFF36F8F19F0F7FB09F033FF4FF0553020491B4A91423CBF41F8040BFAE71D49194A91423CBF41F8040BFAE71B491B4A1C4B9A423EBF51F8040B42F8040BF8E700201849194A91423CBF41F8040BFAE719F099FB19F0CDFB154C154DAC4203DA54F8041B8847F9E707F0EFFD124C124DAC4203DA54F8041B8847F9E719F0B7BB000000040020000800200060000808ED00E0000000200004002050570308000800209415002098150020543700206061000860610008606100086061000892E700F000F8FEE72DE9F04FC1F80CD0C3689D46BDE8F08F1EF046FE19F0F6FB68
S3FD08006258002383F311882846A04700201AF04CFCFEE719F0FDFB1EF04BFE19F0FFFB1EF033FE19F0E3FB00DFFEE7000080F0004002E000BF81F0004142001FBF5FEA410392EA030F7FEA226C7FEA236C6AD04FEA1262D2EB1363C1BFD218414048404140B8BF5B42192B88BF704710F0004F40F4000020F07F4018BF404211F0004F41F4000121F07F4118BF494292EA030F3FD0A2F1010241FA03FC10EB0C00C3F1200301FA03F100F0004302D5494260EB4000B0F5000F13D3B0F1807F06D340084FEA310102F10102FE2A51D2B1F1004F40EBC25008BF20F0010040EA03007047490040EB0000013A28BFB0F5000FEDD2B0FA80FCACF1080CB2EB60
S3FD080063500C0200FA0CF0AABF00EBC25052421843BCBFD0401843704792F0000F81F4000106BF80F400000132013BB5E74FEA41037FEA226C18BF7FEA236C21D092EA030F04D092F0000F08BF0846704790EA010F1CBF0020704712F07F4F04D1400028BF40F00040704712F100723CBF00F50000704700F0004343F0FE4040F4000070477FEA226216BF08467FEA23630146420206BF5FEA412390EA010F40F4800070474FF0000304E000BF10F0004348BF40425FEA000C08BF704743F0964301464FF000001CE050EA010208BF70474FF000030AE000BF50EA010208BF704711F0004302D5404261EB41015FEA010C02BF84460146002043F0B64336
S3FD0800644808BFA3F18053A3F50003BCFA8CF2083AA3EBC25310DB01FA02FC634400FA02FCC2F12002BCF1004F20FA02F243EB020008BF20F00100704702F1200201FA02FCC2F1200250EA4C0021FA02F243EB020008BF20EADC7070474FF0FF0C1CEAD0521EBF1CEAD15392EA0C0F93EA0C0F6FD01A4480EA010C400218BF5FEA41211ED04FF0006343EA501043EA5111A0FB01310CF00040B1F5000F3EBF490041EAD3715B0040EA010062F17F02FD2A1DD8B3F1004F40EBC25008BF20F00100704790F0000F0CF0004C08BF49024CEA502040EA51207F3AC2BFD2F1FF0340EAC250704740F400004FF00003013A5DDC12F1190FDCBF00F00040704748
S3FD08006540C2F10002410021FA02F1C2F1200200FA02FC5FEA310040F1000053EA4C0308BF20EADC70704792F0000F00F0004C02BF400010F4000F013AF9D040EA0C0093F0000F01F0004C02BF490011F4000F013BF9D041EA0C018FE70CEAD15392EA0C0F18BF93EA0C0F0AD030F0004C18BF31F0004CD8D180EA010000F00040704790F0000F17BF90F0004F084691F0000F91F0004F14D092EA0C0F01D142020FD193EA0C0F03D14B0218BF084608D180EA010000F0004040F0FE4040F40000704740F0FE4040F4400070474FF0FF0C1CEAD0521EBF1CEAD15392EA0C0F93EA0C0F69D0A2EB030280EA010C49024FEA402037D04FF0805343EA11114C
S3FD0800663843EA10130CF000408B4238BF5B0042F17D024FF4000C8B4224BF5B1A40EA0C00B3EB510F24BFA3EB510340EA5C00B3EB910F24BFA3EB910340EA9C00B3EBD10F24BFA3EBD10340EADC001B0118BF5FEA1C1CE0D1FD2A3FF650AF8B4240EBC25008BF20F0010070470CF0004C4CEA50207F32C2BFD2F1FF0340EAC250704740F400004FF00003013A37E792F0000F00F0004C02BF400010F4000F013AF9D040EA0C0093F0000F01F0004C02BF490011F4000F013BF9D041EA0C0195E70CEAD15392EA0C0F08D142027FF47DAF93EA0C0F7FF470AF084676E793EA0C0F04D14B023FF44CAF08466EE730F0004C18BF31F0004CCAD130F000423F
S3FD080067307FF45CAF31F000437FF43CAF5FE700BF4FF0FF3C06E000BF4FF0010C02E000BF4FF0010C4DF804CD4FEA40024FEA41037FEA226C18BF7FEA236C11D001B052EA530C18BF90EA010F58BFB2EB030088BFC81738BF6FEAE17018BF40F0010070477FEA226C02D15FEA402C05D17FEA236CE4D15FEA412CE1D05DF8040B704700BF844608466146FFE70FB5FFF7C9FF002848BF10F1000F0FBD4DF808EDFFF7F4FF0CBF012000205DF808FB00BF4DF808EDFFF7EAFF34BF012000205DF808FB00BF4DF808EDFFF7E0FF94BF012000205DF808FB00BF4DF808EDFFF7D2FF94BF012000205DF808FB00BF4DF808EDFFF7C8FF34BF012000205DF822
S3FD0800682808FB00BF4FEA40024FEA41037FEA226C02D15FEA402C08D17FEA236C02D15FEA412C02D14FF0000070474FF0010070474FEA410212F5001215D211D56FF47873B3EB625212D94FEAC12343F0004343EA505311F0004F23FA02F018BF404270474FF00000704750EA013005D111F0004008BF6FF0004070474FF00000704700BF4FEA4002B2F1FE4F0FD34FF09E03B3EB12620DD94FEA002343F0004310F0004F23FA02F018BF404270474FF00000704712F1610F01D1420205D110F0004008BF6FF0004070474FF00000704742000ED2B2F1FE4F0BD34FF09E03B3EB126209D44FEA002343F0004323FA02F070474FF00000704712F1610F41
S3FD0800692001D1420202D14FF0FF3070474FF00000704700BFD0B500F0D5FA00220B4B06460F4600F027FB00F0D5FD044600F0A8FA0022074B00F01EFB02460B463046394600F060F900F0C6FD2146D0BD0000F03D0000F041844641EA000313F0030349D1403A23D30B6803604B6843608B688360CB68C3600B6903614B6943618B698361CB69C3610B6A03624B6A43628B6A8362CB6AC3620B6B03634B6B43638B6B8363CB6BC36340304031403ADBD230320BD30B6803604B6843608B688360CB68C36010301031103AF3D20C3205D351F8043B40F8043B043AF9D2043208D0D2071CBF11F8013B00F8013B01D30B8803806046704700BF082A13D386
S3FD08006A188B07B1D010F00303AED0C3F10403D21ADB071CBF11F8013B00F8013BA4D331F8023B20F8023B9FE7043AD9D3013A11F8013B00F8013BF9D20B7803704B7843708B7883706046704780EA010C1CF0030F37D110F0030C20F0030021F0030150F8042B08BF51F8043B0ED08CF0030C6FF07F434FEACC0C23FA0CFC51F8043B42EA0C0243EA0C0300BFA2F1013C9A4201BF2CEA020C1CF0803F50F8042B51F8043BF2D04FEA02604FEA1222012828BFB0EB036F08BF1B0AF4D003F0FF03000EC01A704710F0030F0AD010F8012B11F8013B012A28BF9A42F4D0A2EB030070474DF8045D50F8042B01F0030521F0030151F8043B022D26D04DD82D
S3FD08006B1022F07F45B5EB132FA2F1013C2CEA020C0DD11CF0803C08BF51F8043B0AD185EA0205B5EB036F0CD150F8042BE8E74FEA13235BE03CF07F4C54D10B784FEA126554E04FEA126503F0FF034FE04FEA0245A2F1013C4FEA15452CEA020CB5EB134F18D11CF0803C08BF51F8043B07D185EA0205B5EB034F09D150F8042BE6E75FEA0C4C2FD10B884FEA12452FE04FEA03434FEA12454FEA134328E000BF02F0FF05B5EB136FA2F1013C2CEA020C0DD11CF0803C08BF51F8043B0AD185EA0205B5EB032F0AD150F8042BE8E74FEA13630DE012F0FF0F06D051F8043B4FEA122523F07F4303E04FF0000020BC704705F0FF0203F0FF00012828BF77
S3FD08006C08904204BF2D0A1B0AF4D0A2EB000020BC704700BF81F0004102E000BF83F0004330B54FEA41044FEA430594EA050F08BF90EA020F1FBF54EA000C55EA020C7FEA645C7FEA655C00F0E2804FEA5454D4EB5555B8BF6D420CDD2C4480EA020281EA030382EA000083EA010180EA020281EA0303362D88BF30BD11F0004F4FEA01314FF4801C4CEA113102D0404261EB410113F0004F4FEA03334CEA133302D0524263EB430394EA050F00F0A780A4F10104D5F1200E0DDB02FA0EFC22FA05F2801841F1000103FA0EF2801843FA05F359410EE0A5F120050EF1200E012A03FA0EFC28BF4CF0020C43FA05F3C01851EBE37101F0004507D54FF055
S3FD08006D00000EDCF1000C7EEB00006EEB0101B1F5801F1BD3B1F5001F0CD349085FEA30004FEA3C0C04F101044FEA445212F5800F80F09A80BCF1004F08BF5FEA500C50F1000041EB045141EA050130BD5FEA4C0C404141EB0101013C28BFB1F5801FE9D291F0000F04BF01460020B1FA81F308BF2033A3F10B03B3F120020CDA0C3208DD02F1140CC2F10C0201FA0CF021FA02F10CE002F11402D8BFC2F1200C01FA02F120FA0CFCDCBF41EA0C019040E41AA2BF01EB0451294330BD6FEA04041F3C1CDA0C340EDC04F11404C4F1200220FA04F001FA02F340EA030021FA04F345EA030130BDC4F10C04C4F1200220FA02F001FA04F340EA0300294674
S3FD08006DF830BD21FA04F0294630BD94F0000F83F4801306BF81F480110134013D4EE77FEA645C18BF7FEA655C29D094EA050F08BF90EA020F05D054EA000C04BF1946104630BD91EA030F1EBF0021002030BD5FEA545C05D14000494128BF41F0004130BD14F580043CBF01F5801130BD01F0004545F0FE4141F470014FF0000030BD7FEA645C1ABF194610467FEA655C1CBF0B46024650EA013406BF52EA033591EA030F41F4002130BD00BF90F0000F04BF0021704730B54FF4806404F132044FF000054FF0000150E700BF90F0000F04BF0021704730B54FF4806404F1320410F0004548BF40424FF000013EE700BF42004FEAE2014FEA31014FEAF7
S3FD08006EF002701FBF12F07F4393F07F4F81F06051704732F07F4208BF704793F07F4F04BF41F40021704730B54FF4607401F0004521F000411CE700BF50EA010208BF704730B54FF000050AE050EA010208BF704730B511F0004502D5404261EB41014FF4806404F132045FEA915C3FF4D8AE4FF003025FEADC0C18BF03325FEADC0C18BF033202EBDC02C2F1200300FA03FC20FA02F001FA03FE40EA0E0021FA02F11444BDE600BF70B54FF0FF0C4CF4E06C1CEA11541DBF1CEA135594EA0C0F95EA0C0F00F0DEF82C4481EA030621EA4C5123EA4C5350EA013518BF52EA033541F4801143F4801338D0A0FB02CE4FF00005E1FB02E506F00042E0FBA1
S3FD08006FE803E54FF00006E1FB03569CF0000F18BF4EF0010EA4F1FF04B6F5007F64F5407404D25FEA4E0E6D4146EB060642EAC62141EA55514FEAC52040EA5E504FEACE2EB4F1FD0C88BFBCF5E06F1ED8BEF1004F08BF5FEA500E50F1000041EB045170BD06F0004646EA010140EA020081EA0301B4EB5C04C2BFD4EB0C0541EA045170BD41F480114FF0000E013C00F3AB8014F1360FDEBF002001F0004170BDC4F10004203C35DA0C341BDC04F11404C4F1200500FA05F320FA04F001FA05F240EA020001F0004221F0004110EBD37021FA04F642EB06015EEA430E08BF20EAD37070BDC4F10C04C4F1200500FA04F320FA05F001FA04F240EA02001C
S3FD080070E001F0004110EBD37041F100015EEA430E08BF20EAD37070BDC4F1200500FA05F24EEA020E20FA04F301FA05F243EA020321FA04F001F0004121FA04F220EA020000EBD3705EEA430E08BF20EAD37070BD94F0000F0FD101F00046400041EB010111F4801F08BF013CF7D041EA060195F0000F18BF704703F00046520043EB030313F4801F08BF013DF7D043EA0603704794EA0C0F0CEA135518BF95EA0C0F0CD050EA410618BF52EA4306D1D181EA030101F000414FF0000070BD50EA410606BF1046194652EA430619D094EA0C0F02D150EA013613D195EA0C0F05D152EA03361CBF104619460AD181EA030101F0004141F0FE4141F4700185
S3FD080071D84FF0000070BD41F0FE4141F4780170BD70B54FF0FF0C4CF4E06C1CEA11541DBF1CEA135594EA0C0F95EA0C0F00F0A7F8A4EB050481EA030E52EA03354FEA013100F088804FEA03334FF0805545EA131343EA12634FEA022245EA111545EA10654FEA00260EF000419D4208BF964244F1FD0404F5407402D25B084FEA3202B61A65EB03055B084FEA32024FF480104FF4002CB6EB020E75EB030E22BFB61A754640EA0C005B084FEA3202B6EB020E75EB030E22BFB61A754640EA5C005B084FEA3202B6EB020E75EB030E22BFB61A754640EA9C005B084FEA3202B6EB020E75EB030E22BFB61A754640EADC0055EA060E18D04FEA051545EA03
S3FD080072D016754FEA06164FEAC30343EA52734FEAC2025FEA1C1CC0D111F4801F0BD141EA00014FF000004FF0004CB6E711F4801F04BF01430020B4F1FD0C88BFBCF5E06F3FF6AFAEB5EB030C04BFB6EB020C5FEA500C50F1000041EB045170BD0EF0004E4EEA113114EB5C04C2BFD4EB0C0541EA045170BD41F480114FF0000E013C90E645EA060E8DE60CEA135594EA0C0F08BF95EA0C0F3FF43BAF94EA0C0F0AD150EA01347FF434AF95EA0C0F7FF425AF104619462CE795EA0C0F06D152EA03353FF4FDAE1046194622E750EA410618BF52EA43067FF4C5AE50EA41047FF40DAF52EA43057FF4EBAE12E74FF0FF3C06E000BF4FF0010C02E000BF41
S3FD080073C84FF0010C4DF804CD4FEA410C7FEA6C5C4FEA430C18BF7FEA6C5C1BD001B050EA410C0CBF52EA430C91EA030F02BF90EA020F0020704710F1000F91EA030F58BF994208BF90422CBFD8176FEAE37040F0010070474FEA410C7FEA6C5C02D150EA013C07D14FEA430C7FEA6C5CD6D152EA033CD3D05DF8040B704700BF8446104662468C461946634600E000BF01B5FFF7B7FF002848BF10F1000F01BD4DF808EDFFF7F4FF0CBF012000205DF808FB00BF4DF808EDFFF7EAFF34BF012000205DF808FB00BF4DF808EDFFF7E0FF94BF012000205DF808FB00BF4DF808EDFFF7CEFF94BF012000205DF808FB00BF4DF808EDFFF7C4FF34BF012073
S3FD080074C000205DF808FB00BF4FEA410C7FEA6C5C02D150EA013C0AD14FEA430C7FEA6C5C02D152EA033C02D14FF0000070474FF0010070474A0011D212F5001211D20DD56FF47873B3EB62520ED44FEAC12343F0004343EA505323FA02F070474FF00000704750EA013002D14FF0FF3070474FF0000070474FEA4102B2F1E04324BFB3F5001CDCF1FE5C0DD901F0004C4FEAC0024CEA5070B2F1004F40EB830008BF20F00100704711F0804F21D113F13872BCBF01F00040704741F480114FEA5252C2F11802C2F1200C10FA0CF320FA02F018BF40F001004FEAC1234FEAD32303FA0CFC40EA0C0023FA02F34FEA4303CCE77FEA625307D150EA013326
S3FD080075B81EBF4FF0FE4040F44000704701F0004040F0FE4040F40000704700BF7BB972B90029BEBF00204FF0004106E008BF00281CBF6FF000414FF0FF3000F0F1B9ADF1080C6DE904CE002909DB002B1ADB00F085F8DDF804E0DDE9022304B07047404261EB4101002B1BDB00F078F8DDF804E0DDE9022304B0404261EB4101524263EB43037047524263EB430300F067F8DDF804E0DDE9022304B0404261EB41017047524263EB430300F059F8DDF804E0DDE9022304B0524263EB4303704753B94AB9002908BF00281CBF4FF0FF314FF0FF3000F0A6B9ADF1080C6DE904CE00F03EF8DDF804E0DDE9022304B0704738B50C460546214628460022B3
S3FD080076B00023FFF7E1FE28B928462146BDE8384000F00AB8284604F1004100F005F8404261EB410138BD00BFD0B500220B4B06460F46FFF757FCFFF705FF0446FFF7D8FB0022074BFFF74EFC02460B4630463946FFF790FAFFF7F6FE2146D0BD0000F03D0000F0412DE9F047089E0D4604468E46002B40F083808A42174647D9B2FA82F34BB1C3F1200105FA03FE20FA01F19F4041EA0E0E9C404FEA1748BEFBF8FC1FFA87F908FB1CE20CFB09F0210C41EA024290420AD9BA180CF1FF3180F01881904240F21581ACF1020C3A44121AB2FBF8F008FB102200FB09F1A4B244EA0244A14209D93C1900F1FF3280F00381A14240F2008102383C44641A57
S3FD080077A8002140EA0C401EB10022DC40C6E90042BDE8F08702B9FFDEB2FA82F3002B4FD18D1A01214FEA124E1FFA82F8B5FBFEFC0EFB1C5508FB0CF0220C42EA0545A84207D97D190CF1FF3202D2A84200F2E98094462D1AB5FBFEF00EFB105508FB00F8A4B244EA0544A04507D93C1900F1FF3202D2A04500F2D9801046A4EB080440EA0C40C0E78B4208D9002E00F0B1800021C6E900050846BDE8F087B3FA83F100294BD1AB4202D3824200F2B980841A65EB030301209E46002EAAD0C6E9004EA7E79F40C3F12002D1404FEA174EB1FBFEF01FFA87F80EFB101124FA02F29D4000FB08FC2A43150C45EA0145AC4504FA03F409D97D1900F1FF31D1
S3FD080078A080F08F80AC4540F28C8002383D44A5EB0C05B5FBFEF10EFB115C01FB08F995B245EA0C45A94507D97D1901F1FF3274D2A94572D902393D44A5EB090541EA004178E7C1F120078B4022FA07FC4CEA030C25FA07F44FEA1C4EB4FBFEF91FFA8CF80EFB194420FA07F309FB08FA8D401D432B0C43EA0444A24502FA01F200FA01F309D91CEB040409F1FF3048D2A24546D9A9F102096444A4EB0A04B4FBFEF00EFB104400FB08FAADB245EA0444A24508D91CEB040400F1FF352DD2A2452BD90238644440EA0940A0FB0289A4EB0A044C45C6464D4619D316D05EB1B3EB0E0264EB050404FA07F722FA01F31F43CC40C6E900740021BDE8F087CF
S3FD08007998314630460CE78C46EBE61046FFE64345E6D2B8EB020E69EB0C050138E0E72846D3E711468CE78146B9E7084673E7084649E7ACF1020C3D4413E702383C4424E7704700BF30B40C4605460FCD0FC495E8030084E8030030BC704700BFD1E90C30184700BF90F8A030ABB9D0F888202AB9102380F8A030D0E926301847D0E923139942F5D8D0F8843033B10A4493428CBF11231023EDE77047CA420CBF1023112380F8A030D0E92630184700BF90F8A8309BB9C26D2AB9102380F8A830D0E928301847D0E918139942F5D8836D33B10A4493428CBF11231023EEE77047CA420CBF1023112380F8A830D0E92830184700BF08B5FEF7B1FC064977
S3FD08007A90FEF7BAFD4FF07E51FEF7FAFB01464FF07E50FEF7B1FD08BD00007A44014818F013B900BFC021002038B505460B4819F085FF0B4B1C6814B905E024681CB1A388AB42FAD304D1054819F06EF9204638BD0024024819F068F9204638BDCC220020EC22002008B5EFF30583C3F3080363B9EFF311832BB118F0E7F8BDE8084017F0E9BFBDE8084019F023BCBDE8084018F0DBB800BF10B5094C18F05EF8236813B1204618F03BFA002200230021C4E90823BDE81040024818F0C7B800BFC8210020D020002008B5EFF30583C3F3080363B9EFF311832BB118F093F8BDE8084017F0B9BFBDE8084019F01BBCBDE8084018F087B800BF30B501463B
S3FD08007B8883B06BB16D461C4628460023084A09F0BBF995E8030084E80300002003B030BD6846034A09F0B0F9002003B030BD00BF400A002030B5014683B06BB16D461C4628460023084A09F09FF995E8030084E80300002003B030BD6846034A09F094F9002003B030BD00BF2C0A002030B5014683B06BB16D461C4628460023084A09F083F995E8030084E80300002003B030BD6846034A09F078F9002003B030BD00BF180A002030B5014683B06BB16D461C4628460023084A09F067F995E8030084E80300002003B030BD6846034A09F05CF9002003B030BD00BFF009002030B5014683B06BB16D461C4628460023084A09F04BF995E8030084E810
S3FD08007C800300002003B030BD6846034A09F040F9002003B030BD00BFC809002030B5014683B06BB16D461C4628460023084A09F02FF995E8030084E80300002003B030BD6846034A09F024F9002003B030BD00BFB409002030B5014683B06BB16D461C4628460023084A09F013F995E8030084E80300002003B030BD6846034A09F008F9002003B030BD00BF8C09002000B583B0014600236846034A09F0FAF8002003B05DF804FB400A002000B583B0014600236846034A09F0ECF8002003B05DF804FB2C0A002000B583B0014600236846034A09F0DEF8002003B05DF804FB180A002000B583B0014600236846034A09F0D0F8002003B05DF804FB74
S3FD08007D78F009002000B583B0014600236846034A09F0C2F8002003B05DF804FBC809002000B583B0014600236846034A09F0B4F8002003B05DF804FBB409002000B583B0014600236846034A09F0A6F8002003B05DF804FB8C09002030B504460C4D83B0002289216B6811F0B5FC0DF1070220468E216B6811F0D2FC9DF807200AB903B030BD20468E216B6811F0A4FC03B030BD8C0800202DE9F0410229074614461D4682B06DD1D2F804800E4640465949FEF71BFE48B340465849FEF716FE20B340465649FEF711FE00B340465549FEF70CFED8B140465349FEF707FE002800F0988040465149FEF700FE002800F0918040464E49FEF7F9FD28B1A5
S3FD08007E7040464D49FEF7F4FD00283DD1042600E001264A4C00216268494811F0ABFC2068FFF79EFF01216268454811F0A3FC2068FFF796FF02216268414811F09BFC2068FFF78EFF626803213D4811F093FC2068FFF786FF032E626857D0042E4ED0022E45D00321364811F085FC3946354B364A684609F015F8DDE900230DB1C5E90023002002B0BDE8F0812268304938461DF03FFC2F4938461DF03BFC2E4938461DF037FC2D4938461DF033FC2C4938461DF02FFC2B4938461DF02BFC2A4938461DF027FC294938461DF023FC284938461DF01FFC384626491DF01BFC35B100230220C5E9003302B0BDE8F0810220C9E70021134811F03FFC39461A
S3FD08007F681E4BB8E70121104811F038FC39461C4BB1E702210C4811F031FC3946194BAAE703267AE7F8E6020804E7020808E7020818E702081CE7020828E702082CE702083CE702088C080020880A002040E70208A009002070E7020884E7020890E70208A4E70208CCE70208E0E7020808E802081CE8020844E802085CE802084CE7020864E7020858E702080023FFF70BBF00BFF0B51C46104D0646D5E9003183B018681EF006F88CB16F463146384600230B4A08F07AFF97E8030084E803002B6818681DF0A2FF002003B0F0BD234631466846024A08F069FFF1E7D0080020040A00200023FFF7D5BF00BFF0B51C46104D0646D5E9003183B01868B3
S3FD080080601DF0DAFF8CB16F463146384600230B4A08F04EFF97E8030084E803002B6818681DF076FF002003B0F0BD234631466846024A08F03DFFF1E7BC080020DC0900200023FFF7D5BF00BFF0B50D461646114607460122284683B01C460FF015FD01282ED0012D12D11F4B1F4A5A62F4B16D463946284600231D4A08F01AFF95E80300002384E80300184603B0F0BD00227068114620F037FC164B124A03FB00F35362002BE3D10223184603B0F0BD2346684639460E4A08F0FCFE2346184603B0F0BD326838460B491DF02BFB38460A491DF027FB384609491DF023FB0023184603B0F0BD00BF5C080020809698007809002040420F0084E80208D5
S3FD080081589CE80208A8E802080023FFF7A1BF00BFF0B5002604468DB03146202204A8CDE9026624F005FB31466B4604AA2046CDE90066FFF78DFFDDE90113039A009F11441F4404AA6B4603910546314620460297FFF794FDDDE901138446039A009F11441F4404AA6B4603912046314645EA0C050297FFF767FDDDE901138446039A009F11441F4404AA6B4603912046314645EA0C050297FFF73AFDDDE901138446039A009F11441F4404AA6B4603912046314645EA0C050297FFF71FFFDDE901138446039A009F11441F4404AA6B4603912046314645EA0C050297FFF7FCFCDDE901138446039A009F11441F4404AA6B4603912046314645EA0C05C0
S3FD080082500297FFF7D1FEDDE901138446039A009F11441F4404AA6B4603912046314645EA0C050297FFF7BEFCDDE901138446039A009F11441F4404AA6B4603912046314645EA0C050297FFF791FCDDE901738446039A0098314617441E1804AA6B462046CDE9026745EA0C05FFF764FCDDE901138446039A009E11442F4F1E4404AA6B4603912046022145EA0C0502960597FFF795FDDDE901138446039A009E1144274F1E4404AA6B4603912046022145EA0C0502960597FFF782FDDDE901160246039B009819441E4F6B460644039120460221154304AA02960597FFF770FD86460099DFF86CC001A8C1C86B4604AA07440E442046022145EA0E0522
S3FD08008348CDE90267CDF814C0FFF75CFDDDE901738446039A00990D4E0B443A4420460C49CDE9023245EA0C0505961DF005FA2046084A02A908F062FD28460DB0F0BD00BF28E7020804E7020818E70208F4F602087C480308DCE802083CE70208B2F57F4F70B5154628BF4FF47F45322D38BF32251C4C1D4B04F11006A183C0E90162DA68266912F002020660706001EB050620611BD10220B6B25E631A61D8605A6A521A92B2954200D970BD01F1330080B2DA6892070DD558635A6A521A92B295420AD9E36A43F00103E36270BD08481CF040FD07481CF03DFD013080B28142E7D105481CF036FDF8290020000C0040C4FD02080CFE0208A4FC020818
S3FD0800844070B505460C4617F0CFFB002D43D02B78043B012B3FD86B6ADA68910736D0DA6892073BD1186910F003002ED02020D3F8C011D3F8C421D3F8C861D3F8CC51C4E9046518611869850703D1586940F0100058612079C1F340031B01C1F3800520F0300043EA45130343980623712AD5A368C90861F31C03A36000202379110A62F30303120C23712170628070BD1A699207C5D1012070BD0E481CF0DEFC2020D3F8B011D3F8B421D3F8B861D3F8BC51C4E90465D860D8688607CBD1586940F002005861C6E72389490D61F30A032381D3E724FE0208426A0B7870B4946813F0200FC4F30164C3F3001318D048685B0043EAC00343F00403087833
S3FD0800853802EB041243F0010300F00F00D1E90265C2F88401C2F88861C2F88C51C2F8803170BC704788885B0043EA4053E7E700BFF0B54FF461644268274DC2F31A03A5FB0323264E9B09A6FB0326F60A04FB16330778234C07F1500C4578A4FB03248278C1F814C090F801C06409604640090138DFF87CE005F00F05013D8861C4EB0410A3EB800302F01F023EF815E0C1E90325CCF3001C013A0B60BB07C1E90146C1F820C0724407F2BC700BD10E4B0E4C03FB00F3B4EBB30F04D2012D00DD0132CA61F0BD084B094C03FB00F3B4EB331FF6D3012DF3DCF3E700BFD34D6210C5B3A29189888888295C8FC2285C8F020AD7A3009CFF020808B570B1B8
S3FD0800863003789A1E012A0AD8032B01D0002008BD4FF0FF31BDE80840083017F087BD01481CF022FC3CFE020870B4022501260024204B858403F120050561826080F826605E6AC16103F1380100F110058842C0E90563C0E90F44426435605D6227D0D968CB6A816213B15C6CA24219D30363C86200234FF0FF36002400250F49C0E91645CA6886640132CA6000F13802C0E9143370BCC362C36482637047596C8A4203D21C461B6B002BF8D103632063E0E71C669C66DDE7F8290020202C002008B517F07BFA074B1868984208D00021026853601A604163BDE8084017F0B2BA08BD00BF540A002070B40D4D05F110063346EC6805E013F8011B10F846
S3FD08008728012B914206D1A342F7D3007810B9EE6070BC704740F20112034B0120AA80AB6070BC7047302C0020ECE80208084B091A5B6A89B2181A80B2884201D20020704740F20111034B044A012099809A607047000C0040302C002000E9020810B5094C002918BF0C46FDF72FFE4FF06A51FDF783FE0549FDF780FEA0470349FDF730FF10BD00BFB96E02080000C84270B53023044683F3118817F053F91CF0A1FB23785A1E012A42D8234A012B626018D000224FF6FF76032511200221A3681A605A609A62DA60DE629A6942F4807242F001029A619D6018622170BDE870401DF066B8154B9C4212D0154B9C42E0D1144BDA6942F00402DA61DA69C3
S3FD080088201A6942F004021A611A6922F004021A611B69D0E70C4BDA6942F00202DA61DA691A6942F002021A611A6922F002021A611B69C0E705481CF01FFB00BF6C000308501600205C1600200010024018FE0208302370B583F31188244C17F0F5F81CF043FBA3682068002B17DBA0423AD15A1C002A8260C8BF836013DD17F023F900241B4D1CF01DFB17F0CDF82B68AB4221D1002383F31188204670BDA04222D00133A36003685C60236017F0D2F90022A3684263013B9342A360DFDA0D4D0520EE683460636873601E607463666017F048F9746BD6E7EA689B6892689A42D8D205481CF0CAFA04481CF0C7FA00BF042D0020F8290020D4FC0208F1
S3FD08008918B4FD020838B504460D46302383F3118817F09EF81CF0ECFA17F05AF9A368002B236811DB9C4208BFA56025D117F0CEF81CF0CAFA17F07AF8114B1A689A4213D1002383F3118838BD9C4215D0A5606FF001056068436863601C6017F07DF9456323689C42F5D1E1E7D96893688A689A42E6D204481CF084FA03481CF081FA00BFF8290020D4FC020864FD020838B53023044683F3118817F05BF81CF0A9FA17F083F81E4B9A681968002A13DB994231D1501E0028886011DB0024194D1CF084FA17F034F82B68AB4217D1002383F31188204638BD99421DD0511E9960ACB1104D2146EA68052013605C685363546022605A6017F06BFB0446F0
S3FD08008A10E0E7EA689B6892689A42E2D207481CF03BFA4FF0FF34044D9A60D3E704481CF033FA00BF042D0020F8290020D4FC020894FD020808B5302383F3118817F00CF81CF05AFA0E4B1868984205D00268002153601A6017F050F81CF03AFA16F0EAFF084B1A689A4203D1002383F3118808BDD96893688A689A42F6D203481CF004FA540A0020F8290020E0FC020838B5302383F3118816F0E0FF1CF02EFA17F09CF800220C4CE368DD6BDA631CF011FA16F0C1FF2368A34204D1002383F31188284638BDE2689B6892689A42F5D202481CF0DBF900BFF8290020ECFC020870B5144C3023E56883F3118816F0B6FF1CF004FAEE6B6EB10023EB63EC
S3FD08008B081CF0EAF916F09AFF2368A3420CD1002383F31188304670BD4FF0FF330A206B6317F02AF8EE6BE9E7E2689B6892689A42EDD202481CF0ACF9F8290020ECFC020838B5154C3023E56883F3118816F088FF1CF0D6F9EB6B03F00502052A05D005230B206B6317F008F8EB6B23F00503EB631CF0B2F916F062FF2368A34204D1002383F31188052038BDE2689B6892689A42F5D202481CF07CF9F8290020ECFC020810B53023044683F3118816F059FF1CF0A7F917F015F8236813B1204617F0F2F900220023C4E908231CF086F916F036FF084B1A689A4205D1002383F31188C4E90C3310BDD96893688A689A42F4D202481CF04EF9F82900207C
S3FD08008C0040FD020800B170470EB400B582B004AA0649074801921CF0C3F96FF0010017F06FFF02B05DF804EB03B0704714E90208F0220020F0B50446003887B018BF01200D4616467A230B4A0B49FFF7DBFF00237727A1880296206841F05001CDE9003305AA02238DF815508DF8147010F0D4FB07B0F0BD34E9020814E902082DE9F0430446DFF86C90DFF86C80003887B00D461E4618BF01204146174657234A46FFF7B1FF20684A46003818BF012041465823FFF7A8FF4A46414659230120FFF7A2FF00233F88A188029620683E0ACDE9003341F04001032305AA8DF816708DF815608DF8145010F098FB07B0BDE8F08300BF78E9020814E9020810
S3FD08008CF838B5836804460BB14368E3B1114D124A95F820351149022B18BF284641F2490308BF05F23C501CF02FFD6FF0010017F0EBFE238CD5F8402543F0040323846260C5F8404538BD028CA3F582731A42DDD1004DEEE7F0220020B8E90208D4E9020870B584B09DF80030BDF804400688857823F03F0343F00303002269466FF30A040848ADF808608DF80A508DF80030ADF8044014F01DF9A0F10300B0FA80F0400904B070BD00080020002908BF32282DE9704304460D46164610D21048104A90F820351049022B08BF00F23C504FF492731CF0DAFC6FF0010017F096FE4FF000084FF000090848094BC0E90689C0E90845C0E90A36BDE8704386
S3FD08008DF008F0ACB9F0220020F0E90208D4E90208C8210020AD7A00082DE9F04F03290E4604461546BBB006D10122294630460EF063FE002834D02A68134920461CF0A8FC124920461CF0A4FC114920461CF0A0FC104920461CF09CFC0F4920461CF098FC0E4920461CF094FC2946304601220EF043FE012803D002203BB0BDE8F08F00203BB0BDE8F08F00BF0CEA02082CEA020838EA020884EA0208B0EA0208C0EA020868681EF035F8FEF74DFB0646A8681EF02FF88046894630460021FDF7A1FC0028D9D13046BB49FDF7AFFC0028D3D149464046FEF737FB00210546FDF791FC07460028C8D129464FF07E50FDF795FBB249FDF7DEFA4FF07C51F5
S3FD08008EE8FDF7D2F9FDF722FD002908BF322880468946B4D3DFF8ECA24FF0FF330AF5816B4FF48072A74835A918F002FBDBF80030A54D2093DBF80430DAF810242193DAF814341E921F93DAF840321A93DAF844321B93D5F840321C93D5F844321D93D5F8C0322E93D5F8C4322F93D5F8C8322493D5F8CC322593D5F8D0321693D5F8D4321793D5F818332A93D5F81C332B93D5F820332693D5F824332793D5F828331293D5F82C331393D5F870332C93D5F874332D93D5F878332293D5F87C332393D5F880331493D5F884331593D5F8D8333093D5F8DC333193D5F8E0332893D5F8E4332993D5F8E8331893D5F8EC331993302383F3118816F044FD78
S3FD08008FE01BF092FF042249464046FFF7D9FE32A808F06EF86C493046FDF752FA4FF07C51FDF746F9FDF796FC4FF000084FF00009684B329ADF62339F801847EB0101664A664F98611846C3E90889D9619A6208F08DF81BF055FF16F005FD3B68BB4240F04383002383F3118840F2011018F054F9804635A9554818F02BFA18F0FF0F40F02C83302383F3118816F0FEFC1BF04CFF32A808F02DF84FF0000C5149329B339A5B1842EB0C0232A83293339208F01CF91BF026FF16F0D6FC3B68BB4240F01D83002383F3118823680A21DB6820469847444920461CF064FBD5E990231C992046521A1D9963EB01033F491CF059FB3F4920461CF055FBDAE934
S3FD080090D890231A992046521A1B9963EB010338491CF04AFB384920461CF046FBDBE90032209836491B1A0F6810934B682199204662EB010211921E9ADDE9109ABF1A1F9A2F4963EB02084A4653461CF02DFB3A46434620462B491CF027FB4A465346134340F07781284920461CF01EFBD5E9B232D5E9AEAB2499D5F8D0025B1A0093259BD5F8D49262EB03030193169B1799C31A69EB0101D5F8C0721A9008930991DDE900231A4920461097D5F8C4721CF0FCFADDE90823204616491CF0F6FADDE90023134340F0EC804FF0000825E00000704200247449D020002000180020D8200020257B0008F8290020A086010000EB020810EB020820EB0208BF
S3FD080091D030EB0208C02000203CEB020850EB02087CEB02088CEB0208A0EB0208B01C002031464046FDF708FAFDF774FE02460B46204699491CF0BCFA984920461CF0B8FAD5E9C832D5E9C4AB2699D5F828035B1A0293279BD5F82C9362EB03030393129B1399C31A69EB0101D5F8187308900A930B91DDE902238A4920460097D5F81C731CF096FADDE90A23204686491CF090FADDE90223134340F073814FF0000831464046FDF7C9F9FDF735FE02460B46204679491CF07DFA7C4920461CF079FAD5E9DE32D5E9DAAB2299D5F880035B1A0493239BD5F8849362EB03030593149B1599C31A69EB0101D5F8707302900C930D91DDE904236A49204649
S3FD080092C80097D5F874731CF057FADDE90C23204666491CF051FADDE90423134340F0DA804FF0000831464046FDF78AF9FDF7F6FD8046894642464B46594920461CF03CFA5C4920461CF038FAD5E9F832D5E9F4A62899D5F8E8035B1A0693299BD5F8EC7362EB03030793189B1999C31A67EB010102900E930F91DDE906234B4920460096D5E9F6651CF018FADDE90E23204647491CF012FADDE90623134340F04F8142464B4620463E491CF007FA002078E5DDE90001FDF74BF88046DDE90801FDF746F84146FDF73DF901464FF07E50FCF77AFF3949FDF781F8FDF7A1FD02460B46204636491CF0E9F9DDE90823DDE900018B4208BF8242BFF418AF9D
S3FD080093C05246204630491CF0DBF95A4620462F491CF0D6F9109B2E9A981A2F9A67EB0201FDF718F80346DDE900011A9F169AC71B61EB0901B818179A1F4641EB02021146FDF708F801463846FDF7FEF8FDF76AFD02460B4620461E491CF0B2F920461D49ABEB0A021CF0ACF9E2E641463846FCF7F1FF0746DDE91001FCF7ECFF01463846FDF7E2F801464FF07E50FCF71FFF0C49FDF726F8FDF746FD02460B4620460E491CF08EF96AE600BF2CEC020844EC02088CEB0208A0EB020854EC020864EC02080000C842B4EB0208CCEB0208E4EB0208FCEB020814EC020864EB0208DDE90401FCF7B8FF8046DDE90C01FCF7B3FF4146FDF7AAF801464FF00B
S3FD080094B87E50FCF7E7FE8A49FCF7EEFFFDF70EFD02460B46204687491CF056F9DDE90C23DDE904018B4208BF8242BFF403AF5246204681491CF048F95A4620467F491CF043F9009B2C9A981A2D9A67EB0201FCF785FF0346DDE90401029F149AC71B61EB0901B818159A1F4641EB02021146FCF775FF01463846FDF76BF8FDF7D7FC02460B4620466E491CF01FF920466D49ABEB0A021CF019F9CDE6DDE90201FCF75EFF8046DDE90A01FCF759FF4146FDF750F801464FF07E50FCF78DFE5D49FCF794FFFDF7B4FC02460B4620465A491CF0FCF8DDE90A23DDE902018B4208BF8242BFF46AAE5246204654491CF0EEF85A46204652491CF0E9F8009B8E
S3FD080095B02A9A981A2B9A67EB0201FCF72BFF0346DDE90201089F129AC71B61EB0901B818139A1F4641EB02021146FCF71BFF01463846FDF711F8FDF77DFC02460B46204641491CF0C5F820464049ABEB0A021CF0BFF834E6DDE90E01FCF704FF8346DDE90601FCF7FFFE01465846FCF7F5FF01464FF07E50FCF732FE2F49FCF739FFFDF759FC02460B4620462C491CF0A1F8DDE90E23DDE906018B4208BF8242BFF48BAE5246204626491CF093F8DDF800B020465A4624491CF08CF83099319B701A65EB0301FCF7CFFEDDE9061205460298189B0E1A62EB0701F018199B41EB03031946FCF7C0FE01462846FCF7B6FFFDF722FC02460B4620461449EA
S3FD080096A81CF06AF820461349ABEB0A021CF064F855E6F868414617F077FE8020FFF7D0BBFA689B6892689A42BFF4B7AC0A481BF0DFFBFA689B6892689A42BFF4DDACF5E70000C842B4EB0208CCEB0208E4EB0208FCEB020814EC020810FD02082DE9F04F03290E4604461546B1B006D10122294630460EF0E5F9002834D02A68134920461CF02AF8124920461CF026F8114920461CF022F8104920461CF01EF80F4920461CF01AF80E4920461CF016F82946304601220EF0C5F9012803D0022031B0BDE8F08F002031B0BDE8F08F00BF0CEA02082CEA020838EA020884EA0208B0EA020874EC020868681DF0B7FBFDF7CFFE0646A8681DF0B1FB804618
S3FD080097A0894630460021FDF723F80028D9D13046C149FDF731F80028D3D149464046FDF7B9FE00210546FDF713F882460028C8D129464FF07E50FCF717FFB849FCF760FE4FF07C51FCF754FDFDF7A4F8002908BF322880468946B4D3B14F4FF0FF334FF48072B0482BA917F087FED7F84032AE4D1093D7F84432DFF8E4B21193D7F868321693D7F86C321793D7F870320C93D7F874320D93D5F840320E93D5F844320F93D5F888322493D5F88C322593D5F890321293D5F894321393D5F8C8322693D5F8CC322793D5F8D0321493D5F8D4321593D5F810332293D5F814332393D5F818331893D5F81C331993D5F860332093D5F864332193D5F868336B
S3FD080098981E93D5F86C331F93DBF8A0301A93DBF8A4301B93DBF8A8301C93DBF8AC301D93302383F3118816F0D3F81BF021FB022240464946FFF768FA28A807F0FDFB79493046FCF7E1FD4FF07C51FCF7D5FCFDF725F884468E4600200021289A754B1CEB02029A61299ADFF800C2DFF80082C3E908014EEB02021846C3F82CA0DA61C3F828C007F017FC1BF0DFFA16F08FF8D8F80030434540F0D982002383F3118840F2011017F0DDFC81462BA9604817F0B4FD19F0FF0F40F0C282302383F3118816F087F81BF0D5FA28A807F0B6FB4FF0000C5949289B299A5B1842EB0C0228A82893299207F0A5FC1BF0AFFA16F05FF8D8F80030434540F0B38299
S3FD08009990002383F3118823680A21DB68204698474C4920461BF0ECFED7E9902310992046521A119963EB010347491BF0E1FE474920461BF0DDFED5E990230E992046521A0F9963EB010340491BF0D2FE404920461BF0CEFED7E99A321699D7F870825B1A0093179B0D9962EB030301930C9BD7F87472B8EB030A67EB0109DDE90023354920461BF0B5FE52464B46204632491BF0AFFEDDE90023134340F08781DDE900120C9BB1EB080062EB0701C0180D9B41EB03031946FCF7E6FC3146FCF7DDFDFDF749FA02460B46204624491BF091FE244920461BF08DFEDBE928201A99DBF8A830521A0A921B9ADBF8AC1060EB02020B921C9A1D98B3EB0208B7
S3FD08009A8861EB0009DDE90AAB184952465B4620461BF072FE4B464246204615491BF06CFE5AEA0B0340F027810023009328E000BF000070420024744900180020D0200020B01C0020D8200020A086010000EB020810EB020820EB0208B4EC0208C0EC0208D0EC0208F4EC02080CED020814ED020828ED020808210020257B0008F8290020DDF8008031464046FCF77AFDFDF7E6F902460B462046BA491BF02EFEB94920461BF02AFED5E9A432D5E9A09AD5E9A2B7129920465B1A0293139BB34962EB03030393DDE902231BF017FEDDE90201FCF75DFC41468046FCF753FDAC49FCF79CFCFDF7BCF902460B462046A9491BF004FEDDE90223134340F014
S3FD08009B80858140463146FCF73FFDFDF7ABF902460B462046A1491BF0F3FDA14920461BF0EFFDD5E9B432D5E9B09AD5E9B2B7149920465B1A0493159B954962EB03030593DDE904231BF0DCFDDDE90401FCF722FC00998046FCF718FD8E49FCF761FCFDF781F902460B4620468B491BF0C9FDDDE90423134340F0268140463146FCF704FDFDF770F902460B46204684491BF0B8FD844920461BF0B4FDD5E9C632D5E9C29AD5E9C4B7189920465B1A0693199B784962EB03030793DDE906231BF0A1FDDDE90601FCF7E7FB00998046FCF7DDFC7149FCF726FCFDF746F902460B4620466E491BF08EFDDDE90623134340F0A88040463146FCF7C9FCFDF7C6
S3FD08009C7835F902460B46204666491BF07DFD684920461BF079FDD5E9DA32D5E9D689D5E9D8AB1E9920465B1A08931F9B5A4962EB03030993DDE908231BF066FDDDE90801FCF7ACFB00990546FCF7A2FC5349FCF7EBFBFDF70BF902460B46204650491BF053FDDDE90823134349D131462846FCF78FFCFDF7FBF802460B46204649491BF043FD002032E5DDE90A01FCF787FB0746494600904046FCF781FB3946FCF778FC01464FF07E50FCF7B5FA3C49FCF7BCFBFDF7DCF802460B4620463E491BF024FDE6E649465046FCF769FB8146DDE90001FCF764FB01464846FCF75AFC01464FF07E50FCF797FA2D49FCF79EFBFDF7BEF802460B462046304983
S3FD08009D701BF006FD5AE6424620462E491BF000FD4A4620462C491BF0FBFC209BBAEB0300219B6BEB0301FCF73DFB2946FCF734FCFDF7A0F802460B46204624491BF0E8FC20462349A9EB08021BF0E2FC91E74A4620461C491BF0DCFC524620461A491BF0D7FC229B239ABBEB030067EB0201FCF719FB4146FCF710FCFDF77CF802460B46204612491BF0C4FC20461149AAEB09021BF0BEFC33E700BF3CED020854ED020868ED02080000C842B4EB02082CEC02087CED020890ED0208A4ED020864EB0208E0EC0208CCEB0208E4EB0208FCEB020814EC02084A4620462F491BF099FC524620462E491BF094FC269B279ABBEB030067EB0201FCF7D6FA5E
S3FD08009E684146FCF7CDFBFDF739F802460B46204625491BF081FC20462449AAEB09021BF07BFCB5E64A4620461D491BF075FC524620461C491BF070FC249B259ABBEB030067EB0201FCF7B2FA4146FCF7A9FBFDF715F802460B46204613491BF05DFC20461249AAEB09021BF057FC56E6D8F80C00494617F069FA802040E4D8F80C209B6892689A42BFF420AD09481AF0D1FFD8F80C209B6892689A42BFF446ADF4E700BFCCEB0208E4EB0208FCEB020814EC020810FD02082DE9F04F03290E460446154689B005D10122294630460DF0D9FD38B32A687B4920461BF01FFC7A4920461BF01BFC794920461BF017FC784920461BF013FC774920461BF054
S3FD08009F600FFC764920461BF00BFC2946304601220DF0BAFD012803D0022009B0BDE8F08F002009B0BDE8F08F68681CF0B9FFFDF7D1FA0346A8681D461CF0B2FF06460F4628460021FCF724FC0028E5D128466449FCF732FC0028DFD130463946FDF7BAFA00210646FCF714FC83460028D4D131464FF07E50FCF718FB5A49FCF761FA4FF07C51FCF755F9FCF7A5FC002908BF322806460F46C0D3DFF870814FF0FF334FF48072514803A917F087FAD8E9909A302383F3118815F028FD1AF076FF012239463046FEF7BDFE684607F052F828464549FCF736FA4FF07C51FCF72AF9FCF77AFC00260027009A019D404B801845EB01013F4A404D98611846AE
S3FD0800A058C3E90867C3F82CB0D9619A6207F072F81AF03AFF15F0EAFC2B68AB4249D1002383F3118840F2011017F03AF9064603A92F4817F011FA16F0FF0F34D1302383F31188002615F0E4FC1AF032FF684607F013F82B49009B019A5B1846EB020268460093019207F004F91AF00EFF15F0BEFC2B68AB4225D1002585F3118823680A21DB68204698471F4920461BF04DFBD8E99023B2EB090220461B4963EB0A031BF043FB28463DE7E868314617F055F9802037E7EA689B6892689A42B0D213481AF0BFFEEA689B6892689A42D4D2F6E700BF0CEA02082CEA020838EA020884EA0208B0EA0208B8ED02080000704200247449D0200020D820002051
S3FD0800A150257B0008F8290020A086010000EB020810EB020810FD020800180020F0B50F461546044687B068B30026244A04F50273204601940397059500960492029317F0EBFD80BBDDE90132552103F8011B9A42FBD8302383F3118815F05EFC1AF0ACFE684615F02BFD04461AF092FE15F042FC134B1A689A4219D1002383F31188204607B0F0BD0F48104A90F820350F49022B08BF00F23C50A7231BF0CAFA6FF0010016F086FCC0E70A481AF04EFED96893688A689A42E0D207481AF046FE1DB30008F8290020F0220020F4ED0208D4E902087CFD0208C8FC0208436870B505460C467BB11648164A90F820351649022B08BF00F23C508B231BF0C8
S3FD0800A2489BFA6FF0010016F057FC04F1080630466C6017F0B7FBA36D04F118005A6805F10801C5E907324FF0FF33022217F050F9D4F8B03030460133C4F8B030BDE8704016F096BDF022002028EE020868EE0208D0B5D1E900670446C0E90C23302383F3118815F0DDFB1AF02BFE002100200F4BC4E90801A3622046C4E90667E46206F041FF1AF009FE15F0B9FB094B1A689A4203D1002383F31188D0BDD96893688A689A42F6D203481AF0D3FD00BFF5790008F829002040FD0208F0B5036C044683B093B14068D3F89410856DD3F89820D5E90267761847F10007CDE90067683082B169460B4AFFF7B4FF94F8A0303BB91222D4F89830D4F89C000F
S3FD0800A34084F8A020984703B0F0BD12236946034AFFF7A2FFECE700BF01A300087DA5000838B505460C4648B1092C02D00F2C00D038BD2846BDE8384018F01ABA0848094A90F820350849022B08BF00F23C50BA231BF0F6F96FF0010016F0B2FBE4E700BFF0220020F4ED0208D4E902080346006C98B1884234BF002001205A6C62B110B4D3E912439C4205D88C4208D20C1BA24205D2002010BC704770470120EDE78B42F8D9591A8A4238BF0020F3E72DE9F043054683B000286AD04068002867D005F10801183017F054F86868083017F0DEFA05F14800FEF7C8FB00236868C5F88030046EA5427CD04F4EDFF844814E4F01E0002C5FD02346246C1D
S3FD0800A438AC42F9D12A6C1A64002669682A6A8B6D08465B682E649A4229D0EC69434FDFF81891DFF80C812468A3698BB997F820354146022B4A4640F2E94314BF38463D481BF082F96FF0010016F03EFBA3696968D1F858C0A26A013B002B08BF0126013AA4450846A361A262DDD1002E37D1C269D0F8B030013A013BC261C0F8B030083016F07EFC0020C5E90700C5E92600686003B0BDE8F0832548274A90F820352449022B08BF00F23C5040F2AA431BF04CF96FF0010016F008FB686884E796F820354246022B394640F2DB4314BF304619481BF03AF96FF0010016F0F6FA8EE7203017F01AF96868C2E72B6C0366A3B1D3F894308BB1816DD5F835
S3FD0800A5309820D1E90267F61847F10007CDE9006768304AB12B4669460A4AFFF7A5FE77E76830FEF729FB73E712236946064AFFF79BFE6DE7F022002068EE02082C28002028EE020801A300087DA5000838B5044680B92E482E4A90F820352E49022B08BF00F23C5040F231131BF0F2F86FF0010016F0AEFAEFF30583C3F3080333BB264BDB681BB39D68EFF31183002B39D0234B1A7882B301212248FDF794FAAB1EFC2B10D91A481A4A90F820351E49022B08BF00F23C5040F249131BF0CAF86FF0010016F086FAEFF3118383B138BD134B1A7832B91C700121BDE838401148FDF772BA0121BDE838400E48FDF76CBA2846BDE8384018F019B9012110
S3FD0800A62809481C70FDF762FACCE7BF2018F010F9C1E700BFF022002084EE020868EE0208F8290020E4220020C8220020D4E9020870B50E4615460446A8B1D4F898303BB394F8A02042B115B1284617F06DF83046BDE8704016F09CBB1122D4F89C0084F8A0209847EFE70C480C4A90F820350C49022B08BF00F23C5040F223331BF06CF86FF0010016F028FAD4F89830002BD7D11120FFF75FFFD6E7F022002028EE020868EE020838B5044628B3406818B304F10801183016F0E8FE6068083017F072F96068256A816DD0F8B0304A68013B9542C0F8B03007D0E3691B689A6A994202F1FF329A62F8D1083016F052FB0023C4E90733636038BD09487C
S3FD0800A720094A90F820350949022B08BF00F23C504FF4BD731BF024F86FF0010016F0E0F96068C8E7F022002028EE020868EE020810B5044630B1436823B12046FFF7B6FF002010BD0A480B4A90F820350A49022B08BF00F23C5040F2E9231BF001F86FF0010016F0BDF92046FFF7A0FF002010BDF022002028EE020868EE020810B5044630B1436823B12046FFF790FF002010BD0A480B4A90F820350A49022B08BF00F23C5040F237231AF0DBFF6FF0010016F097F92046FFF77AFF002010BDF022002028EE020868EE020810B5044630B1436823B12046FFF76AFF002010BD0A480B4A90F820350A49022B08BF00F23C504FF4F1731AF0B5FF6FF0F7
S3FD0800A818010016F071F92046FFF754FF002010BDF022002028EE020868EE020838B504460D4688B1D4E90C23D4E90A01521943F100038842C4E90C2301D8A84200D9A562A94238BFE56238BD0848094A90F820350849022B08BF00F23C50AF231AF084FF6FF0010016F040F9DCE700BFF022002028EE020868EE02082DE9F04F87B00546CDE90112DDF840800393002800F09F804068002800F09B80083017F08BF86B682A6A996D4868824200F0ED80EC696068824200F0E1800C6862681AB924686268002AFBD00027734EDFF8D491DFF8D4B1A2698AB999F820355A46022B18BF48464FF48A636C4908BF6C481AF03DFF6FF0010016F0F9F86B6865
S3FD0800A9109B6DA34200F08A80A3693022013B002B08BF0127A36182F3118815F09DF81AF0EBFA04A806F0CCFB1AF0D2FA15F082F83368B34240F098804FF0000C8CF31188D4E90223DDE904018B42D5F8803008BF82422CBFE246A0EB020AA34233D0B8F1000F01D0C8F800A0A36A2846013BA3625146FFF757FFD5E90E32D5F88800013342F10002C5E90E32002840D0D5E92332934233D8534558D9A2EB0A0C60452DD2524503D2AAEB030290422CD2A3696968002B62D0002228460831FFF745FE112007B0BDE8F08F05F14800FEF7E5F80023C5F88030C3E73448344A90F820353049022B08BF00F23C504FF486631AF0C0FE6FF0010016F07CF899
S3FD0800AA08686851E75245C5F88CA004D253469A45C5F890A0CED36B689A6D1846A2421FD024685DE763680399C5E9074319B1D4E90223C1E90023019B23B1D4E904121846FBF794FF029A002A3FF462AF636913605EE75245AAD36B689A6D1846A242DFD1A7B9083016F0A4F9002007B0BDE8F08FF2689B6892689A42BFF462AF0E481AF007FA01F120029AE7246823E7203016F05BFE6868E5E703F1080016F089F9E52092E700BFF829002068EE02082C280020F022002028EE020834FD02082DE9F04383B0884616461F460546DDF82890002800F09B804068002800F09780083016F071FF68682B6A826D51688B4200F00C81E9694868834200F08D
S3FD0800AB00D380146863681BB9246860680028FBD0A369002B00F090806368C5E907431FB1D4E90223C7E90023B8F1000F04D0D4E904124046FBF71EFF0EB163693360A3693022013BA36182F3118814F08DFF1AF0DBF9684606F0BCFA1AF0C2F914F072FF7D4B1A689A4240F0C880002686F31188D4E90223DDE900018B42D5F8803008BF824238BF861AA34268D0B9F1000F01D0C9F80060A36A3146013BA3622846FFF749FED5E90E32D5F88810013342F10002C5E90E3211B3D5E92332934215D8B34278D8B2421AD2F21A914213D26A68A36902F10801002B40F0998020322846FFF73BFD112003B0BDE8F083B242C5F88C6004D233469E42C5F83B
S3FD0800ABF89060E7D3A369002B4DD06868083016F0D7F8002003B0BDE8F0835248524A90F820355249022B08BF00F23C5040F27F331AF0AAFD6FF0010015F066FF686855E74848494A90F820354849022B08BF00F23C504FF467731AF097FD6FF0010015F053FF5DE76B689B6DA3426DD02268D5F88830C5F880203BBBD5F8841002F10803D3E900235218D5F8981043F10003CDE90023002960D069462B46354A05F14800FFF7FEFA75E76868203016F055FDACE70C68A369002B7FF433AFC1E7901B814297D2B24283D385E7D5E923718F42D3D8D5F8841029B33B449942CFD9D2E90201C018D5F8983041F10001CDE90001002BD1D1112305F14800A0
S3FD0800ACF069461E4AFFF7D0FA47E7D96893688A689A42BFF432AF1A481AF0C6F8002265E7083016F051F8E52078E73B44D2E90201D5F89820C01841F10001CDE90001002AADD1002B0CBF1023112305F14800D7E705F14800FDF730FF0023C5F880301CE7102305F14800CBE7F8290020F022002028EE020868EE0208FD7900087DA5000834FD02082DE9F0468A4616469946074683B0002873D04068002870D0083016F01DFE7868816D4B68002B7BD03A6AC36D9A4277D0FB69BD6B1C68FA6BA36A681C03F1FF33A36242F10003A142C7E90E0310D0023542F1000224682846A36A013503F1FF33A362134642F10002A142F3D1C7E90E036368C7E9FD
S3FD0800ADE80743B9F1000F03D0D4E90223C9E90023BAF1000F04D0D4E904125046FBF7B6FD0EB163693360302383F3118814F028FE1AF076F8684606F057F91AF05DF814F00DFE244B1A689A423BD1002383F31188DDE9000104F10805D5E900458D4208BF84422CBF1C46041B7868083015F0B0FF21463846FFF7EAFC0A9BF3B101201C6003B0BDE8F0861448144A90F820351449022B08BF00F23C5040F22B131AF07CFC6FF0010015F038FE78687BE7083015F08FFF002003B0BDE8F086012003B0BDE8F086D96893688A689A42BED2054819F0EFFF00BFF8290020F022002028EE020868EE020834FD0208F0B50D4616461F46044685B068B3436832
S3FD0800AEE05BB303A800903B46324629462046FFF741FF002833D0236C13B1039A934234D3626C92B1D4E912018842039B04D8984232D9CD1AAA422AD39942A364194602D2E1648B4225D88A4223D30A9BD3B10020039B0A9A136005B0F0BD1448144A90F820351449022B08BF00F23C5040F2A9231AF016FC6FF0010015F0D2FDC1E7E52005B0F0BD184605B0F0BD1020E3E7994204D3112005B0F0BD994205D2191A8A4219460346CDD3CBE71946CCE7F022002028EE020868EE02082DE9F04182B00D46164698460446089F78B143686BB143463246294620460097FFF7DCFE00280CBFE520002002B0BDE8F0810948094A90F820350949022B08BF0C
S3FD0800AFD800F23C5040F222231AF0CEFB6FF0010015F08AFDDFE700BFF022002028EE020868EE02082DE9F04182B00D46164698460446089F78B143686BB143463246294620460097FFF7AAFE00280CBFE520002002B0BDE8F0810948094A90F820350949022B08BF00F23C5040F2CD131AF09CFB6FF0010015F058FDDFE700BFF022002028EE020868EE02082DE9F04383B0894616461F460446DDF8288000285AD04068002857D0083016F0A5FCD4E907325968914261D063689B6D1D686B68C4E907531FB1D5E90223C7E90023B9F1000F04D0D5E904124846FBF761FC0EB16B693360302383F3118814F0D3FC19F021FF684606F002F819F008FFEF
S3FD0800B0D014F0B8FC294B1A689A4246D1002686F31188D5E90223DDE900018B4208BF8242A36B38BF861AA96AE26B0133606801F1FF3142F10002A9620830C4E90E3215F053FE31462046FFF78DFBB8F1000F20D00120C8F8006003B0BDE8F0831448154A90F820351449022B08BF00F23C50D9231AF01EFB6FF0010015F0DAFC606895E76068826D9A429BD1083015F02DFE0020E1E7012003B0BDE8F083D96893688A689A42B3D2054819F08FFE00BFF8290020F022002028EE020868EE020834FD0208F0B50D4616461F46044685B070B3436863B303A800903B46324629462046FFF757FF002834D0236C13B1039A934235D3626C9AB1D4E91201C0
S3FD0800B1C88842039B04D898422ED9CD1AAA4233D39942A36406D21A469342E26402D9112005B0F0BD0A9BD3B10020039B0A9A136005B0F0BD1248134A90F820351249022B08BF00F23C5040F25B231AF0B5FA6FF0010015F071FCC0E7E52005B0F0BD0A9805B0F0BD1020E3E79942DBD2191A8A42D5D31A460346CFE79942F7D3CFE700BFF022002028EE020868EE02082DE9F04182B00D46164698460446089F78B143686BB143463246294620460097FFF7F4FE00280CBFE520002002B0BDE8F0810948094A90F820350949022B08BF00F23C5040F202231AF070FA6FF0010015F02CFCDFE700BFF022002028EE020868EE02082DE9F04182B00D46C2
S3FD0800B2C0164698460446089F78B143686BB143463246294620460097FFF7C2FE00280CBFE520002002B0BDE8F0810948094A90F820350949022B08BF00F23C5040F2AD131AF03EFA6FF0010015F0FAFBDFE700BFF022002028EE020868EE02082DE9F04F044600F1240385B01946039301224FF0FF33994816F0F0F8A368002B00F0A4802046E168984740F00105DFF8708298F80030002B5FD0914EF36893F8259019F004093ED14FF0300A11E0D4E9043220469847D4E90E32013342F10002C4E90E3240F00105F36893F825305B0729D44FF0FF31284615F0B2FEC2070146E5D58AF3118814F061FB19F0AFFDD4F830B0C4F8309019F095FD14F079
S3FD0800B3B845FB3368B34266D189F311881BF0010F20D11BF0020FD9D00F216068FEF7C4FFF36893F825305B07D5D50F216068FEF7BBFFA36923B1204698F80010E26998470399674816F058F8002005B0BDE8F04F15F07ABB09216068FEF7A6FFB6E7624816F0D8FA218C614B01311B6889B221841BB95AE01B68002B57D01A8C9142F9D001398A422FD15A4B1E687EB3337A6BBB72681946009218461A463768B847A0F12002D2B2012A40F290805248524A90F820355249022B08BF00F23C5067231AF083F96FF0010015F03FFB012333720DE04FF0FF355DE7F2689B6892689A4293D2474819F0FDFC2120FFF76CF83E4815F087FC4FF0FF31012004
S3FD0800B4B015F0DEFD302383F3118814F0D5FA19F023FD236B354E23F00403236319F008FD14F0B8FA3368B34243D1002383F311883AE7314B1E68002E36D0337A022B22D00123726818460092274904223768B847B8B1202814D0212831D02848284A90F820352849022B08BF00F23C5090231AF02FF96FF0010015F0EBFA02233372B9E701203072B6E71D481D4A90F820351D49022B08BF00F23C508B231AF019F96FF0010015F0D5FACBE704210F48FCF7CAFAA0E7F2689B6892689A42B6D294E70223337298F80030002B94D1212388F8003090E721287FF47DAF0223012102483372FCF7B0FAEDE700BFC8220020F8290020CC220020DC220020E3
S3FD0800B5A8E8220020F0220020BCEE020868EE020840FD0208E4220020036810B5044683B10E480F4A90F820350E49022B08BF00F23C504FF48D731AF0CFF86FF0010015F08BFA094816F0EEF9084B07481A681C60226015F0DDFB002010BD00BFF022002084EE020868EE0208CC220020DC2200200346806D98B1884234BF00200120DA6D62B110B4D3E918439C4205D88C4208D20C1BA24205D2002010BC704770470120EDE78B42F8D9591A8A4238BF0020F3E738B5044600F10C05284616F0B3F9E36913B9A06A28B938BD284615F0A1FBF12038BD284615F09CFBF32038BD10B5044608B323681D4A934232D01D4A934233D01C4A93422ED01C4A9F
S3FD0800B6A0934212D01B481C4A90F820351B49022B08BF00F23C5040F2A1431AF061F86FF0010015F01DFAFF2010BD002010BD1148114A90F820351149022B08BF00F23C5040F296431AF04CF86FF0010015F008FA2368044A9342CCD1032010BD012010BD022010BD38FF020824FF020860FF02084CFF0208F0220020F4EE020868EE020838B504460D46E0B1E36D83B1D4E918218A420CD8A16D134429BB5A1C0AD0D4E90801C01841F10001C5E9000138BDA36D002BF2D14FF0FF324FF0FF33C5E9002338BD0B480B4A90F820350B49022B08BF00F23C504FF449731AF002F86FF0010015F0BEF9D0E78B4228BF0B46D5E700BFF0220020F4EE02080D
S3FD0800B79868EE020810B50446002833D02046FFF76DFF01280CD1E269136A1BB39968C4E901319C60A368002B37D05C60146210BD2046FFF75BFF0228EDD01948194A90F820351949022B08BF00F23C5040F2C51319F0CAFF6FF0010015F086F9E269136A002BDBD1D369002BD8D19369A3B1A3609461DAE70A480B4A90F820350A49022B08BF00F23C504FF4E27319F0ADFF6FF0010015F069F9B9E794615462146210BDF0220020F4EE020868EE020838B504460D4688B1D4E91023D4E90E01521943F100038842C4E9102301D8A84200D9A563A94238BFE56338BD0848094A90F820350849022B08BF00F23C5040F20B1319F07BFF6FF0010015F099
S3FD0800B89037F9DBE7F0220020F4EE020868EE020838B5044600283DD0E069083016F08EF86368002B2FD0A268E0699A60A268C169A14226D0056AA54217D0EAB15360D0E90E32013342F10002C0E90E32083015F06BFAD4E91431002201335141C4E91431C4E90122E261A26238BD994214BF194600210162002AE1D14362002BDFD09A60DDE7C361D9E7E069A26882619AB153606368CCE709480A4A90F820350949022B08BF00F23C50C82319F022FF6FF0010015F0DEF8B0E71346B9E700BFF0220020F4EE020868EE02082DE9F0410D4616461F46044682B0002865D004F10C084046002D47D016F02AF8E369002B73D0022D45D12046FFF78CFF62
S3FD0800B9884FF0F108302383F3118814F069F819F0B7FA684605F098FB19F09EFA14F04EF8434B1A689A4274D1002585F31188DDE90001D4E908238B4208BF824238BF851A04F16800FDF7ECF80EB1636B336007B13D6029462046FFF731FFB8F1000F20D1E36DF3B1D4E918218A423BD8AA4258D9481B834236D2A94255D33AE015F0DEFE38B3E3695BB340464FF0F10815F0D0F9404602B0BDE8F0811120FEF7ABFD4FF0110800234046A36202B0BDE8F0812148214A90F820352149022B08BF00F23C5040F2274319F098FE6FF0010015F054F887E74FF0F208404602B0BDE8F0814FF000088FE7A9422566DBD22A4695426566D7D2D4F8A030002BDE
S3FD0800BA80CED094F8A8204FF01108002ACDD1D4F8A40084F8A8809847C7E7D96893688A689A4285D2084819F0F7F9A942BDD2A91A8B42E2D3DEE700BFF8290020F0220020F4EE020868EE020828FD02082DE9F0410D4617469846044682B0002861D004F10C063046002D40D015F070FFE369002B6ED0022D3ED12046FFF7D2FEF126302383F3118813F0B0FF19F0FEF9684605F0DFFA19F0E5F913F095FF3A4B1A689A4261D1002585F31188DDE90001D4E908238B4208BF824238BF851AB8F1000F01D0C8F8005029462046FFF77CFE26B9A36DC3B1AB4216D210260023A36277B13046636B3B6002B0BDE8F08115F02BFE50B3E3696BB3304615F0D5
S3FD0800BB781FF9F126304602B0BDE8F081E36D002BE6D0D4E918218A4220D8AA422FD9481B83421BD2A9422CD31FE01948194A90F820351949022B08BF00F23C5040F2BB2319F0E2FD6FF0010014F09EFF8BE7F226304602B0BDE8F081002694E7A9422566BED22A4695426566BAD21126B8E7D96893688A689A4298D2084819F051F9A942AED2A91A8B42F0D3ECE700BFF8290020F0220020F4EE020868EE020828FD02082DE9F0410D4690461F46044682B000284ED004F10C063046002D3AD015F0CAFEE369002B42D0022D38D12046FFF72CFEF1260023A362B8F1000F02D0636BC8F80030302383F3118813F002FF19F050F9684605F031FA19F062
S3FD0800BC7037F913F0E7FE244A136893423BD1002585F31188DDE90001D4E908238B4208BF824238BF851A29462046FFF7D3FD07B13D60304602B0BDE8F08115F08BFDE8B1E3693BB13046F12615F07EF8304602B0BDE8F0810026C0E71048114A90F820351049022B08BF00F23C5040F23F2319F04FFD6FF0010014F00BFF9EE7F226304602B0BDE8F081D2689B6892689A42BED2054819F0C9F800BFF8290020F0220020F4EE020868EE020828FD02082DE9F0410D4690461F46044682B000284ED004F10C063046002D3AD015F048FEE369002B42D0022D38D12046FFF7AAFDF1260023A362B8F1000F02D0636BC8F80030302383F3118813F080FEC2
S3FD0800BD6819F0CEF8684605F0AFF919F0B5F813F065FE244A136893423BD1002585F31188DDE90001D4E908238B4208BF824238BF851A29462046FFF751FD07B13D60304602B0BDE8F08115F009FDE8B1E3693BB13046F12614F0FCFF304602B0BDE8F0810026C0E71048114A90F820351049022B08BF00F23C504FF4C37319F0CDFC6FF0010014F089FE9EE7F226304602B0BDE8F081D2689B6892689A42BED2054819F047F800BFF8290020F0220020F4EE020868EE020828FD020838B50446E0B1E369A26CD3E90C15E06C013145F10005013240F10000C3E90C15D96AC4E91220986AFBF784FEE069083014F0B2FF04F10C00BDE8384014F0ACBF4E
S3FD0800BE600848094A90F820350849022B08BF00F23C50AE2319F084FC6FF0010014F040FED1E700BFF0220020F4EE020868EE0208F8B50D4617461E46044630B3002D36D00023E561C4E90133302383F3118813F0DBFD19F029F804F1200005F009F919F00FF813F0BFFD1E4B1A689A4230D1002282F311883EB1EFF30581C1F3080101B9DA68C4E90A266763F8BD1648164A90F820351649022B08BF00F23C508D2319F03FFC6FF0010014F0FBFD002DC8D10D480D4A90F820350D49022B08BF00F23C508E2319F02DFC6FF0010014F0E9FDB7E7D968926889689142C9D2054818F0ACFFF8290020F0220020F4EE020868EE020828FD02082DE9F0412A
S3FD0800BF5884B00D461646984604460A9F002871D0002D00F08380236B002B00F094802946434632462046FFF787FFE16DA765B1B1D4E91832934212D819448FB1B9420FD3D4E90823D4F8A010D21943F10003CDE90223002946D1102304F16800A3E03946002934D105F1080015F004FDE369DA69002A7DD069462046FFF7A6FBE36902A99D692846FFF7A0FBDDE90067DDE902239F4208BF96420DD277E0AD6802A92846FFF792FBDDE90223DDE900679F4208BF96426AD3E269D3699D42EED199686360D46100297BD0A1604C609C6056E0D4E90823D4F8A000521843F10003CDE9022300285AD02346384A02A904F16800FEF727F9B7E73548364AFE
S3FD0800C05090F820353549022B08BF00F23C504FF4747319F08DFB6FF0010014F049FD002D7FF47DAF2B482C4A90F820352B49022B08BF00F23C5040F2D13319F079FB6FF0010014F035FD236B002B7FF46CAF002E3FF469AF1F48204A90F820351F49022B08BF00F23C5040F2D23319F061FB6FF0010014F01DFD56E79A69EAB1A260C3E9064454602046FFF7A3FE002004B0BDE8F081D5B16B68A56093B163609C606C60F0E7B9420CBF1023112304F168000C4A02A9FEF7C9F859E79C615C62DC61E1E7E3699C61EBE7546283E7E269D36979E7457A0008F0220020F4EE020868EE02087DA500082DE9F041069E0D46174698460446B8B14DB3206B9A
S3FD0800C14800283AD043463A4629462046FFF79CFE05F10800A66515F035FC2046FFF71AFB2046FFF759FE0020BDE8F0811D481E4A90F820351D49022B08BF00F23C5040F2892319F0F9FA6FF0010014F0B5FC002DD5D11448144A90F820351449022B08BF00F23C5040F28A2319F0E6FA6FF0010014F0A2FC206B0028C4D1002FC2D00948094A90F820350949022B08BF00F23C5040F28B2319F0D0FA6FF0010014F08CFCB0E700BFF0220020F4EE020868EE0208F8B50D4616461F460446A8B13DB3206B002838D03B46324629462046FFF73CFE05F1080015F0D6FB2046FFF7BBFA2046FFF7FAFD0020F8BD1D481E4A90F820351D49022B08BF00F273
S3FD0800C2403C5040F2032319F09BFA6FF0010014F057FC002DD7D11448144A90F820351449022B08BF00F23C504FF4017319F088FA6FF0010014F044FC206B0028C6D1002EC4D00948094A90F820350949022B08BF00F23C5040F2052319F072FA6FF0010014F02EFCB2E700BFF0220020F4EE020868EE0208F8B50E4617461D460446C8B15EB3236B002B3CD02B463A4631462046FFF7DEFD06F1080015F078FBE269536A002B42D0636020469C605462FFF798FD0020F8BD2048214A90F820352049022B08BF00F23C5040F24B1319F039FA6FF0010014F0F5FB002ED3D11748174A90F820351749022B08BF00F23C504FF4A67319F026FA6FF0010059
S3FD0800C33814F0E2FB236B002BC2D1002FC0D00C480C4A90F820350C49022B08BF00F23C5040F24D1319F010FA6FF0010014F0CCFBAEE7204694615462FFF756FD0020F8BDF0220020F4EE020868EE020810B51446CAB1D4F8583204F516709B689847D4F8983204F526709B689847D4F8E03204F538709B689847D4F8303304F54C709B68BDE8104018470848084A90F820350849022B08BF00F23C50F52319F0D5F96FF0010014F091FBD4E7F022002030EF020868EE02082DE9F04F87B014460391002A00F05B81039B9A0740F18180B34EDFF8008306F23C5904F54C770023D4F830230093156819461A463846A84794F818340546F3B1E5281ED063
S3FD0800C43096F82035A849022B0CBF4846304619F09FF945B196F82035A449022B0CBF4846304619F095F996F820354146022B0CBF4846304619F08CF9D3E7E528D1D1994FDFF8949207F23C5B04F5387805AE0023D4F8E0220096156819461A464046A84794F818340546002B00F0A080E52800F0A08097F820354046022B059900F0C080FDF77CFF8A4A8B4B8B49002808BF1A46384619F05DF96DB197F82035874A022B8749884B00F0E680102D08BF1A46384619F04EF997F820354946022B0CBF5846384619F045F9C2E7E52840F0AD80039B23F002030393039B5B074AD504F57877384615F05BFAD4F8F053002604F5767B002D37D005F10C0A47
S3FD0800C528504615F04FFAD4F8F413AA688D42C4F8F023AE6042D0D4F8F8138D4208BFC4F8F863D4F8FC1350468D4214BF5660C4F8FC63D5E9088914F02BFC384614F028FC504615F02FFAEA69934505D1D5E90801494508BF404524D0504614F019FC384615F020FAD4F8F053002DC7D1384614F00FFC039B23F004030393039B53B14B48039A90F820355249022B08BF00F23C5019F0E2F8062007B0BDE8F08FC4F8F463BFE7E96AEE616E630029D5D0A86AFBF7BDFAD1E7E5287FF44EAF3C4FDFF8248107F23C5904F526750023D4F8982200961946D2F800B028461A46D84794F81834F3B1E5281ED097F820350598022BD4E9B63139D09847FAF74F
S3FD0800C62061FC02460B463846414619F0A9F8DFE7FDF7BCFE2B4B2A4A2B49002808BF1A46584619F09DF83EE7E528D1D1214E2B4F06F23C5804F516750023D4F8582200931946D2F8009028461A46C84794F81834002B3FF441AFE5283FF441AF96F820353946022B0CBF4046304619F079F8E3E79847FAF727FC02460B464846414619F06FF8A5E7102D08BF1A46584619F068F818E70848124A90F820351249022B08BF00F23C50772319F05BF86FF0010014F017FA93E6F022002090EF020898EF02086CEF020874EF0208B0EF02087CEF0208BCEF020884EF0208F0EF0208E8EF020830EF020868EE02087C480308D0EF02082DE9F8430C4600295D
S3FD0800C71800F06D81C04BC14ADB68B4F84802DA61FBF7C6F90546002800F0FB80D4F85C3204F516779BB1BA4E96F82035B94A022B0CBFB948B64840F25E53B84919F014F86FF0010014F0D0F9002D00F0FC8038462946FDF75DFDD4F89C3204F526779BB1AB4E96F82035AB4A022B0CBFAA48A8484FF4B463A94918F0F7FF6FF0010014F0B3F9002D00F0FA800022A54B3846C4E9B6322946FDF73CFDD4E99387D4F8E43204F538799BB19A4E96F82035994A022B0CBF9948964840F2E753984918F0D4FF6FF0010014F090F9002D00F0F78000234FF0FF32C4E9C8874846C4E9CA232946FDF716FDD4E99369D4F83433D4F8548204F54C7783B186480A
S3FD0800C810864A90F820358749022B08BF00F23C5040F2776318F0ACFF6FF0010014F068F9D4F8703383B17C487C4A90F820357D49022B08BF00F23C5040F2796318F098FF6FF0010014F054F9D4F8B03383B17248724A90F820357349022B08BF00F23C5040F27C6318F084FF6FF0010014F040F9002D40D000234FF0FF32C4E9ED6905F10806C4E9EF23C4E9F23384F8D0333046C4F8C483C4F8345315F090F8AA6D2B6E5168C4E9D32133B923E0D3F89410D4F8C423914203D218461B6C002BF5D1C4F87033076404F54E7105F118004FF0FF33022214F019FEEA69D5F8B030013201333046EA61C5F8B03014F05EFA0620BDE8F8832F66E6E7484810
S3FD0800C908484A90F820354949022B08BF00F23C5040F27E6318F030FF6FF0010014F0ECF8ACE73F4E434A96F820354049022B18BF30464FF0590308BF06F23C5018F01CFF6FF0010014F0D8F8D4F85C3204F51677002B7FF4F1AE96F82035324A022B334940F25F530CBF30482D4818F005FF6FF0010014F0C1F838460021FDF751FCD4F89C3204F52677002B7FF4F3AE96F82035244A022B254940F2A1530CBF2248204818F0EAFE6FF0010014F0A6F80021204B3846C4E9B631FDF733FCD4E99387D4F8E43204F53879002B7FF4F6AE96F82035144A022B15494FF4BD630CBF1248104818F0CAFE6FF0010014F086F8F7E60C4E104A96F820350D49EC
S3FD0800CA00022B18BF30464FF04F0308BF06F23C5018F0B6FE6FF0010014F072F87EE600BFF8290020B0FE0208F022002028EE02082C28002068EE0208897A000830EF020810B514463AB1D4F8480204F51371BDE8104014F02DBD0C480C4990F820350C4A022B08BF00F23C5040F2451318F088FE6FF0010014F044F8D4F8480204F51371BDE8104014F014BDF022002068EE020828F002082DE9F04F0D4614468BB0002A00F0C980AE0700F195806B0740F18280D4F8C03363B30023D4F898131A464E6804F566700121B047F128064640F0CD8094F84834E3B19C4F9C4997F82035022B14BF384607F23C5018F04AFE102E97F8203500F05183112E2C
S3FD0800CAF800F0D581002E00F03183022B924900F0D2818F4818F038FED4F858336BB3D4F8303304F54C785E6840460022012108ABB047F128064640F0938094F84834E3B1834F864997F82035022B14BF384607F23C5018F019FE102E97F8203500F01B83112E00F0FB82002E00F00583022B7A4900F0F882764818F007FED4F8003363B1D4F8D8220121566808AB002204F53670B047F128064640F09580D4F8A8325BB10023D4F880121A464E6804F520700121B047F128064666D125F0040555B164482A4690F820356649022B08BF00F23C5018F0DAFD06200BB0BDE8F08F302383F3118812F045FF18F093F90023DFF8A081D4F85862C4F8583279
S3FD0800CBF018F076F912F026FFD8F80030434540F0D082002383F31188F00700F15481B10700F17A81720700F184804EB14A484F4990F82035022B08BF00F23C5018F0A8FD25F0020539E74448494A90F820354949022B08BF00F23C50672318F099FD6FF0010013F055FF25E704F54F7014F0ACF894F84834002B84D066E704F5697014F0A3F894F84834002B3FF44AAF2BE704F5237014F099F894F84834002B90D0002E8ED12D4F344997F82035022B14BF384607F23C5018F06CFD97F820352F49022B0CBF2F48244818F063FD79E704F5397014F07AF894F84834002B3FF462AF002E7FF45FAF1C4E274996F82035022B00F01882304618F04CFD2A
S3FD0800CCE896F82035022B00F019820898F9F77CFB1F49F9F785FC4FF07E51F9F7C5FA01464FF07E50F9F77CFCFAF7E8F802460B460B48184918F030FD37E71748B4F8789214F050FE154B1F6817B92BE03F684FB3BB889945FAD825D10F4814F039F835E0F0220020C0F00208F4F002080CF102082CF102088CF0020828F0020868EE020824F10208ECEF02082C2800201CF1020800007A44D4EF0208CC220020E0220020F8290020BC4814F013F8BC48BC4A90F82035BC49022B08BF00F23C50962318F0EBFC6FF0010013F0A7FE002794F84834002B40F0FC8104F566784046FEF748FCF12808D10023D4F898131A46D1F8049040460221C847D4F85F
S3FD0800CDE07C22D4F898330092404600223946D3F8009004F54C780423C8474046FEF72CFCF12808D10023D4F830131A46D1F8049040460221C847D4F87C22D4F830330092404600223946D3F8009004F536780423C8474046FEF710FCF12808D10023D4F8D8121A46D1F8049040460221C8474FF00009D4F8D832CDF8009040464A463946D3F800A004F520780423D0474046FEF7F3FBF12808D14B46D4F880220221D2F8049040461A46C8470022D4F880320092394640461F6826F004060423B847002E3FF4C6AEBAE6022B79497FF42EAE794818F066FC2CE6302383F3118812F0D4FD18F022F804A804F003F918F009F812F0B9FDD8F80030434542
S3FD0800CED840F0BA81002383F3118894F8483453B16648049A90F820356949022B08BF00F23C5018F041FC26F00106B1077FF586AE302383F3118812F0ABFD17F0F9FF06A804F0DAF817F0E0FF12F090FDD8F80030434540F09B81002383F3118894F8483453B15248069A90F820355649022B08BF00F23C5018F018FCD4E99A32D4F86002013342F10002C4E99A32083014F032FDD4F860B2DBF85870D7F800A0DAF81820DAF804306AB10BF1080013F019FFD4E99C32013342F10002C4E99C3226F002063CE63BB1DDE90601DAE90223994208BF9042E8D37B68002B00F06081DDE90601D7E90223994208BF904280F05781DAF80030D4463B6001E0B8
S3FD0800CFD01F461B685A68002AFAD0D3E9029A514508BF4845F4D2CCF80030C7F800C0DBF85800E2468445DBF8609000F03F81DBF85C300027591C05BF01231946CBF85C10CBF85C308245DDE90623CAE9022318BFDAF80030CAF8041014BF9969DBF81C10DAE908320133CAF82030DAF8283042F10002CAF81470CAF81810CAF8242033B1DBE92A32013342F10002CBE92A32DBF8B030CAF82830B9F1000F00F0DF8052462B46B2464D461646994603943FE000BFCC220020F022002028F0020868EE0208E0F002082C28002068F002087CF00208D5E923329342D5F884402ED81F446CB3BC422BD82746D5F880303BB1D3E90201DDE906238B4208BF72
S3FD0800D0C8824214D2DDE90623D5F89810D21943F10003CDE90823002900F08A802B467A4A08A905F14800FDF7D3F8C5F880602D6C002D00F09480D5F88870002FCCD1D5F884402746002FF2D0D1E706F23C5018F033FB96F82035022B7FF4E7AD0898F9F763F96A49F9F76CFA4FF07E51F9F7ACF801464FF07E50F9F763FAF9F7CFFE02460B466348634918F017FB1EE5022B62497FF408AD5E4818F00FFB06E5022B5F497FF4CFAC9FE6022B404608994BD0FEF74FFA5B4B5B4A5C49002808BF1A465B4818F0FAFAF1E4022B59497FF4EBACE1E7022B57497FF4B5AC85E6D8F80C209B6892689A42BFF429AD524817F071FE302383F3118812F054FCBF
S3FD0800D1C017F0A2FE08A803F083FF17F089FE12F039FCD8F8003043456AD1002383F311884448089A90F820354549022B08BF00F23C5018F0C5FAE2E5BC420CBF10231123404A08A905F14800FDF746F871E7FEF703FA354B354A3649002808BF1A462E4818F0AEFAA5E456464D46039CDBE92832013342F100020BF118000021CBE92832FAF758FCD4F86002083013F0B5FDA1E6D8F80C209B6892689A42BFF43FAE2A4817F01AFED8F80C209B6892689A42BFF45EAEF4E7DBF86090CBF858A0B9F1000F13D0D9F8941081B1DDE906235218D9F8981043F10003CDE9082381B14B461B4A08A90BF16800FCF7F7FFDBF85800A6E6D8F80C209B68926834
S3FD0800D2B89A428ED2CFE71223104A08A90BF16800FCF7E6FFEDE700BFFD79000800007A442C280020D4EF0208E0F00208ECEF020874EF02086CEF020814F10208F0220020C8F0020840FD02087CF002087DA500081CFD020801A3000810B50C4671B1104B1049DA68D4F84802D1614FF0FF33022204F5137114F0F4F8022010BD0A480B4A90F820350A49022B08BF00F23C504D2318F01AFA6FF0010013F0D6FBDFE700BFF82900209CFE0208F022002028F0020868EE02082DE9F84F00254FF000084FF000097B21634E644A644C654B1560C2E90A55C2E90689C2E9088906F13000614A614F30601D6004F10800C6E90455C6E90C55C6E91055C6E951
S3FD0800D3B00289C6E90889C6E90E89C6E914897560B561B562B564B565C3E90689C3E90889C3E90A55A180126025603F6012F0CAFA226804F1280304F1180004F12001C4E90C89C4E90E55C4E91289C4E91755C4E92089C4E92289C4E92455C4E92655C4E92889C4E92A89C4E90811E561E56225642565A566C4F8B050A061A365A36282B13C483D4A90F820353C49022B08BF00F23C504FF4AF7318F09BF96FF0010013F057FB374814F0BAFA364A13682BB19888A18888424CD301D923601460304813F0A3FC73687BB12B482F4A90F820352B49022B08BF00F23C50872318F079F96FF0010013F035FBDFF88C80DFF89C901B4DDFF888A0AB462D683D
S3FD0800D4A8002D49D06B687BB198F820354A46022B51464FF08A0314BF40461E4818F05CF96FF0010013F018FBB542E7D198F820354A46022B18BF40464FF08B03114908BF144818F049F96FF0010013F005FBD2E79A88914240F2048218461B68002BF7D10460AFE7501C0020C821002008210020D8200020D0200020C0210020F022002084EE020868EE0208CC220020EC22002064F102082C280020C64814F043FAA36DC54C1A68C348CBF800201E6013F030FC802104F502722046C4F80852FCF702FE014600220023BD48BD4EC4F80C12BD49C4E99023C4F81002C4F81862C4F82012C4F81442C4F81C42C4F82442A4F8285204F50270FEF710F801
S3FD0800D5A001237B20C4F8487284F84834FAF784FA0646002800F0AC8100254FF000084FF000094FF07B0A4FF0FF37A94BC4F86062C4F88032C4E99A89C4E99C89C4E9A155A448A4F878A2C4F87C5212F0C3F9A24BC4E9A889C4F8D832C4E9AA55C4E9AC55C4E9B089C4E9B289C4E9B489C4E9B7559A48C4F89C52C4F8BC52C4F8B87212F0A9F9974BC4E9BE89C4F83033C4E9C055C4E9C255C4E9C689C4E9C889C4E9CA89C4E9C475C4E9CD558E48C4F8F45212F091F98D4BC4E9D489C4F89833C4E9D655C4E9D855C4E9DC89C4E9DE89C4E9E089C4E9DA75C4E9E255C4E9E475C4E9E7558248C4F84C5312F075F9814B814EE3E802894221C4E9EE895F
S3FD0800D698C4E9F055C4E9F255C4E9F689C4E9F889C4E9FA89C4E9F475C4E9FC55C4E9FE75C3E9008906F50272C4F8B453C4F80054C4F82854C4F82C54C4F83054C4F83454C4F83854C4F83C5484F840543046C6F80852FCF73FFD6A496A4A6B4BC6F80C02C6F81012C6F81822C6F82032C6E9908906F50270C6F81462C6F81C62C6F82462A6F82852FDF750FF0120604B6049614AC6F8E032C6E99355C6E99D55C6E9A075C6E9A289C6E9A489C6E9AD55C6E9B075C6E9B289C6E9B489C6E9B655C6E9BF55C6E9C275C6E9C489C6E9C689524BA6F848A2C6F85452C6F85C52C6F89C52C6F8E452C6F8205386F81804C6F85812C6F89822C6F82453D6F8A6
S3FD0800D7900C42C6E9CA75C6E9D355C6E9D675C6E9D889C6E9DA89C6E9E489C6E9E689C6E9E855C6E9EA55C6E9EC55C6E9EE57C6E9F055C6E9F255C6F83453C6F87053C6F8785386F8D053C6F83033002C00F0B58000257B233348A6F8DC33C6F8D85312F0C1F80020002104272F4BD6F8D823E3E80201C6E9FD55C3E90001C6F8F053C6F8FC53C6F80044C6F8047482B12748284A90F820352749022B08BF00F23C504FF4E17317F0A5FF6FF0010013F061F9224814F0C4F8214A1368002B7BD09888B6F8DC13884251D36CD93AE000BF102100200018002011D3000895CA000841CA00084CFF02088C1A002060FF0208E41A002024FF02083C1B0020CA
