S02B00002F686F6D652F7069742F4153452F414D69526F2D417070732F636F6E66696775726174696F6E732F87
S3FD0800600000040020396200083B6200083B6200083B6200083B6200083B6200083B6200083B6200083B6200083B620008A1A201083B6200083B6200083B6200083B6200083B6200083B6200083B620008B9AD01083B6200083B6200083DB1010809B10108D5B00108A1B001086DB0010811AF0108F5AE0108D9AE0108BDAE0108A1AE010885AE010869AE01083B62000829B70108C5B6010861B601082DAF0108FDAF01083B6200083B6200083B6200083B620008B9B101083B6200083B6200083B6200083B62000831B4010879B301083B6200083B62000835D3010819D301083B62000881AF01083B6200083B6200083B6200083B6200083B62000898
S36D080060F83B6200083B6200083B6200083B6200083B6200083B6200083B6200083B6200083B6200083B6200084DAE010831AE010815AE010859AF01083B6200083B6200083B6200083B6200083B6200083B6200083B6200083B6200083B6200083B6200083B6200083B6200083B
S3FD0800616072B6264880F30888254880F30988254825490860022080F31488BFF36F8F14F0E9F802F083FC4FF0553020491B4A91423CBF41F8040BFAE71D49194A91423CBF41F8040BFAE71B491B4A1C4B9A423EBF51F8040B42F8040BF8E700201849194A91423CBF41F8040BFAE714F08BF814F0BFF8154C154DAC4203DA54F8041B8847F9E708F0A9FC124C124DAC4203DA54F8041B8847F9E714F0A9B8000000040020000800200060000808ED00E0000000200004002018A3020800080020441300204813002084FE00206061000860610008606100086061000892E700F000F8FEE72DE9F04FC1F80CD0C3689D46BDE8F08F15F0D8FA002383F336
S3FD0800625811882846A047002015F040FFFEE715F0DDFA14F0ADF915F0C9FA00DFFEE7000080F0004002E000BF81F0004142001FBF5FEA410392EA030F7FEA226C7FEA236C6AD04FEA1262D2EB1363C1BFD218414048404140B8BF5B42192B88BF704710F0004F40F4000020F07F4018BF404211F0004F41F4000121F07F4118BF494292EA030F3FD0A2F1010241FA03FC10EB0C00C3F1200301FA03F100F0004302D5494260EB4000B0F5000F13D3B0F1807F06D340084FEA310102F10102FE2A51D2B1F1004F40EBC25008BF20F0010040EA03007047490040EB0000013A28BFB0F5000FEDD2B0FA80FCACF1080CB2EB0C0200FA0CF0AABF00EBC250D0
S3FD0800635052421843BCBFD0401843704792F0000F81F4000106BF80F400000132013BB5E74FEA41037FEA226C18BF7FEA236C21D092EA030F04D092F0000F08BF0846704790EA010F1CBF0020704712F07F4F04D1400028BF40F00040704712F100723CBF00F50000704700F0004343F0FE4040F4000070477FEA226216BF08467FEA23630146420206BF5FEA412390EA010F40F4800070474FF0000304E000BF10F0004348BF40425FEA000C08BF704743F0964301464FF000001CE050EA010208BF70474FF000030AE000BF50EA010208BF704711F0004302D5404261EB41015FEA010C02BF84460146002043F0B64308BFA3F18053A3F50003BCFA21
S3FD080064488CF2083AA3EBC25310DB01FA02FC634400FA02FCC2F12002BCF1004F20FA02F243EB020008BF20F00100704702F1200201FA02FCC2F1200250EA4C0021FA02F243EB020008BF20EADC7070474FF0FF0C1CEAD0521EBF1CEAD15392EA0C0F93EA0C0F6FD01A4480EA010C400218BF5FEA41211ED04FF0006343EA501043EA5111A0FB01310CF00040B1F5000F3EBF490041EAD3715B0040EA010062F17F02FD2A1DD8B3F1004F40EBC25008BF20F00100704790F0000F0CF0004C08BF49024CEA502040EA51207F3AC2BFD2F1FF0340EAC250704740F400004FF00003013A5DDC12F1190FDCBF00F000407047C2F10002410021FA02F1C2F110
S3FD08006540200200FA02FC5FEA310040F1000053EA4C0308BF20EADC70704792F0000F00F0004C02BF400010F4000F013AF9D040EA0C0093F0000F01F0004C02BF490011F4000F013BF9D041EA0C018FE70CEAD15392EA0C0F18BF93EA0C0F0AD030F0004C18BF31F0004CD8D180EA010000F00040704790F0000F17BF90F0004F084691F0000F91F0004F14D092EA0C0F01D142020FD193EA0C0F03D14B0218BF084608D180EA010000F0004040F0FE4040F40000704740F0FE4040F4400070474FF0FF0C1CEAD0521EBF1CEAD15392EA0C0F93EA0C0F69D0A2EB030280EA010C49024FEA402037D04FF0805343EA111143EA10130CF000408B4238BFB3
S3FD080066385B0042F17D024FF4000C8B4224BF5B1A40EA0C00B3EB510F24BFA3EB510340EA5C00B3EB910F24BFA3EB910340EA9C00B3EBD10F24BFA3EBD10340EADC001B0118BF5FEA1C1CE0D1FD2A3FF650AF8B4240EBC25008BF20F0010070470CF0004C4CEA50207F32C2BFD2F1FF0340EAC250704740F400004FF00003013A37E792F0000F00F0004C02BF400010F4000F013AF9D040EA0C0093F0000F01F0004C02BF490011F4000F013BF9D041EA0C0195E70CEAD15392EA0C0F08D142027FF47DAF93EA0C0F7FF470AF084676E793EA0C0F04D14B023FF44CAF08466EE730F0004C18BF31F0004CCAD130F000427FF45CAF31F000437FF43CAF4F
S3FD080067305FE700BF4FF0FF3C06E000BF4FF0010C02E000BF4FF0010C4DF804CD4FEA40024FEA41037FEA226C18BF7FEA236C11D001B052EA530C18BF90EA010F58BFB2EB030088BFC81738BF6FEAE17018BF40F0010070477FEA226C02D15FEA402C05D17FEA236CE4D15FEA412CE1D05DF8040B704700BF844608466146FFE70FB5FFF7C9FF002848BF10F1000F0FBD4DF808EDFFF7F4FF0CBF012000205DF808FB00BF4DF808EDFFF7EAFF34BF012000205DF808FB00BF4DF808EDFFF7E0FF94BF012000205DF808FB00BF4DF808EDFFF7D2FF94BF012000205DF808FB00BF4DF808EDFFF7C8FF34BF012000205DF808FB00BF4FEA40024FEA4103A8
S3FD080068287FEA226C02D15FEA402C08D17FEA236C02D15FEA412C02D14FF0000070474FF0010070474FEA410212F5001215D211D56FF47873B3EB625212D94FEAC12343F0004343EA505311F0004F23FA02F018BF404270474FF00000704750EA013005D111F0004008BF6FF0004070474FF00000704700BF4FEA4002B2F1FE4F0FD34FF09E03B3EB12620DD94FEA002343F0004310F0004F23FA02F018BF404270474FF00000704712F1610F01D1420205D110F0004008BF6FF0004070474FF000007047D0B500F0D5FA00220B4B06460F4600F027FB00F0D5FD044600F0A8FA0022074B00F01EFB02460B463046394600F060F900F0C6FD2146D0BDB3
S3FD080069200000F03D0000F041844641EA000313F0030349D1403A23D30B6803604B6843608B688360CB68C3600B6903614B6943618B698361CB69C3610B6A03624B6A43628B6A8362CB6AC3620B6B03634B6B43638B6B8363CB6BC36340304031403ADBD230320BD30B6803604B6843608B688360CB68C36010301031103AF3D20C3205D351F8043B40F8043B043AF9D2043208D0D2071CBF11F8013B00F8013B01D30B8803806046704700BF082A13D38B07B1D010F00303AED0C3F10403D21ADB071CBF11F8013B00F8013BA4D331F8023B20F8023B9FE7043AD9D3013A11F8013B00F8013BF9D20B7803704B7843708B7883706046704780EA010C86
S3FD08006A181CF0030F37D110F0030C20F0030021F0030150F8042B08BF51F8043B0ED08CF0030C6FF07F434FEACC0C23FA0CFC51F8043B42EA0C0243EA0C0300BFA2F1013C9A4201BF2CEA020C1CF0803F50F8042B51F8043BF2D04FEA02604FEA1222012828BFB0EB036F08BF1B0AF4D003F0FF03000EC01A704710F0030F0AD010F8012B11F8013B012A28BF9A42F4D0A2EB030070474DF8045D50F8042B01F0030521F0030151F8043B022D26D04DD822F07F45B5EB132FA2F1013C2CEA020C0DD11CF0803C08BF51F8043B0AD185EA0205B5EB036F0CD150F8042BE8E74FEA13235BE03CF07F4C54D10B784FEA126554E04FEA126503F0FF034FE0D0
S3FD08006B104FEA0245A2F1013C4FEA15452CEA020CB5EB134F18D11CF0803C08BF51F8043B07D185EA0205B5EB034F09D150F8042BE6E75FEA0C4C2FD10B884FEA12452FE04FEA03434FEA12454FEA134328E000BF02F0FF05B5EB136FA2F1013C2CEA020C0DD11CF0803C08BF51F8043B0AD185EA0205B5EB032F0AD150F8042BE8E74FEA13630DE012F0FF0F06D051F8043B4FEA122523F07F4303E04FF0000020BC704705F0FF0203F0FF00012828BF904204BF2D0A1B0AF4D0A2EB000020BC704700BF81F0004102E000BF83F0004330B54FEA41044FEA430594EA050F08BF90EA020F1FBF54EA000C55EA020C7FEA645C7FEA655C00F0E2804FEAE7
S3FD08006C085454D4EB5555B8BF6D420CDD2C4480EA020281EA030382EA000083EA010180EA020281EA0303362D88BF30BD11F0004F4FEA01314FF4801C4CEA113102D0404261EB410113F0004F4FEA03334CEA133302D0524263EB430394EA050F00F0A780A4F10104D5F1200E0DDB02FA0EFC22FA05F2801841F1000103FA0EF2801843FA05F359410EE0A5F120050EF1200E012A03FA0EFC28BF4CF0020C43FA05F3C01851EBE37101F0004507D54FF0000EDCF1000C7EEB00006EEB0101B1F5801F1BD3B1F5001F0CD349085FEA30004FEA3C0C04F101044FEA445212F5800F80F09A80BCF1004F08BF5FEA500C50F1000041EB045141EA050130BD0F
S3FD08006D005FEA4C0C404141EB0101013C28BFB1F5801FE9D291F0000F04BF01460020B1FA81F308BF2033A3F10B03B3F120020CDA0C3208DD02F1140CC2F10C0201FA0CF021FA02F10CE002F11402D8BFC2F1200C01FA02F120FA0CFCDCBF41EA0C019040E41AA2BF01EB0451294330BD6FEA04041F3C1CDA0C340EDC04F11404C4F1200220FA04F001FA02F340EA030021FA04F345EA030130BDC4F10C04C4F1200220FA02F001FA04F340EA0300294630BD21FA04F0294630BD94F0000F83F4801306BF81F480110134013D4EE77FEA645C18BF7FEA655C29D094EA050F08BF90EA020F05D054EA000C04BF1946104630BD91EA030F1EBF00210020D4
S3FD08006DF830BD5FEA545C05D14000494128BF41F0004130BD14F580043CBF01F5801130BD01F0004545F0FE4141F470014FF0000030BD7FEA645C1ABF194610467FEA655C1CBF0B46024650EA013406BF52EA033591EA030F41F4002130BD00BF90F0000F04BF0021704730B54FF4806404F132044FF000054FF0000150E700BF90F0000F04BF0021704730B54FF4806404F1320410F0004548BF40424FF000013EE700BF42004FEAE2014FEA31014FEA02701FBF12F07F4393F07F4F81F06051704732F07F4208BF704793F07F4F04BF41F40021704730B54FF4607401F0004521F000411CE700BF50EA010208BF704730B54FF000050AE050EA010284
S3FD08006EF008BF704730B511F0004502D5404261EB41014FF4806404F132045FEA915C3FF4D8AE4FF003025FEADC0C18BF03325FEADC0C18BF033202EBDC02C2F1200300FA03FC20FA02F001FA03FE40EA0E0021FA02F11444BDE600BF70B54FF0FF0C4CF4E06C1CEA11541DBF1CEA135594EA0C0F95EA0C0F00F0DEF82C4481EA030621EA4C5123EA4C5350EA013518BF52EA033541F4801143F4801338D0A0FB02CE4FF00005E1FB02E506F00042E0FB03E54FF00006E1FB03569CF0000F18BF4EF0010EA4F1FF04B6F5007F64F5407404D25FEA4E0E6D4146EB060642EAC62141EA55514FEAC52040EA5E504FEACE2EB4F1FD0C88BFBCF5E06F1ED862
S3FD08006FE8BEF1004F08BF5FEA500E50F1000041EB045170BD06F0004646EA010140EA020081EA0301B4EB5C04C2BFD4EB0C0541EA045170BD41F480114FF0000E013C00F3AB8014F1360FDEBF002001F0004170BDC4F10004203C35DA0C341BDC04F11404C4F1200500FA05F320FA04F001FA05F240EA020001F0004221F0004110EBD37021FA04F642EB06015EEA430E08BF20EAD37070BDC4F10C04C4F1200500FA04F320FA05F001FA04F240EA020001F0004110EBD37041F100015EEA430E08BF20EAD37070BDC4F1200500FA05F24EEA020E20FA04F301FA05F243EA020321FA04F001F0004121FA04F220EA020000EBD3705EEA430E08BF20EAB1
S3FD080070E0D37070BD94F0000F0FD101F00046400041EB010111F4801F08BF013CF7D041EA060195F0000F18BF704703F00046520043EB030313F4801F08BF013DF7D043EA0603704794EA0C0F0CEA135518BF95EA0C0F0CD050EA410618BF52EA4306D1D181EA030101F000414FF0000070BD50EA410606BF1046194652EA430619D094EA0C0F02D150EA013613D195EA0C0F05D152EA03361CBF104619460AD181EA030101F0004141F0FE4141F470014FF0000070BD41F0FE4141F4780170BD70B54FF0FF0C4CF4E06C1CEA11541DBF1CEA135594EA0C0F95EA0C0F00F0A7F8A4EB050481EA030E52EA03354FEA013100F088804FEA03334FF08055A9
S3FD080071D845EA131343EA12634FEA022245EA111545EA10654FEA00260EF000419D4208BF964244F1FD0404F5407402D25B084FEA3202B61A65EB03055B084FEA32024FF480104FF4002CB6EB020E75EB030E22BFB61A754640EA0C005B084FEA3202B6EB020E75EB030E22BFB61A754640EA5C005B084FEA3202B6EB020E75EB030E22BFB61A754640EA9C005B084FEA3202B6EB020E75EB030E22BFB61A754640EADC0055EA060E18D04FEA051545EA16754FEA06164FEAC30343EA52734FEAC2025FEA1C1CC0D111F4801F0BD141EA00014FF000004FF0004CB6E711F4801F04BF01430020B4F1FD0C88BFBCF5E06F3FF6AFAEB5EB030C04BFB6EB42
S3FD080072D0020C5FEA500C50F1000041EB045170BD0EF0004E4EEA113114EB5C04C2BFD4EB0C0541EA045170BD41F480114FF0000E013C90E645EA060E8DE60CEA135594EA0C0F08BF95EA0C0F3FF43BAF94EA0C0F0AD150EA01347FF434AF95EA0C0F7FF425AF104619462CE795EA0C0F06D152EA03353FF4FDAE1046194622E750EA410618BF52EA43067FF4C5AE50EA41047FF40DAF52EA43057FF4EBAE12E74FF0FF3C06E000BF4FF0010C02E000BF4FF0010C4DF804CD4FEA410C7FEA6C5C4FEA430C18BF7FEA6C5C1BD001B050EA410C0CBF52EA430C91EA030F02BF90EA020F0020704710F1000F91EA030F58BF994208BF90422CBFD8176FEA6C
S3FD080073C8E37040F0010070474FEA410C7FEA6C5C02D150EA013C07D14FEA430C7FEA6C5CD6D152EA033CD3D05DF8040B704700BF8446104662468C461946634600E000BF01B5FFF7B7FF002848BF10F1000F01BD4DF808EDFFF7F4FF0CBF012000205DF808FB00BF4DF808EDFFF7EAFF34BF012000205DF808FB00BF4DF808EDFFF7E0FF94BF012000205DF808FB00BF4DF808EDFFF7CEFF94BF012000205DF808FB00BF4DF808EDFFF7C4FF34BF012000205DF808FB00BF4FEA410C7FEA6C5C02D150EA013C0AD14FEA430C7FEA6C5C02D152EA033C02D14FF0000070474FF0010070474A0011D212F5001211D20DD56FF47873B3EB62520ED44FEA00
S3FD080074C0C12343F0004343EA505323FA02F070474FF00000704750EA013002D14FF0FF3070474FF0000070474FEA4102B2F1E04324BFB3F5001CDCF1FE5C0DD901F0004C4FEAC0024CEA5070B2F1004F40EB830008BF20F00100704711F0804F21D113F13872BCBF01F00040704741F480114FEA5252C2F11802C2F1200C10FA0CF320FA02F018BF40F001004FEAC1234FEAD32303FA0CFC40EA0C0023FA02F34FEA4303CCE77FEA625307D150EA01331EBF4FF0FE4040F44000704701F0004040F0FE4040F40000704700BF7BB972B90029BEBF00204FF0004106E008BF00281CBF6FF000414FF0FF3000F0F1B9ADF1080C6DE904CE002909DB002BE9
S3FD080075B81ADB00F085F8DDF804E0DDE9022304B07047404261EB4101002B1BDB00F078F8DDF804E0DDE9022304B0404261EB4101524263EB43037047524263EB430300F067F8DDF804E0DDE9022304B0404261EB41017047524263EB430300F059F8DDF804E0DDE9022304B0524263EB4303704753B94AB9002908BF00281CBF4FF0FF314FF0FF3000F0A6B9ADF1080C6DE904CE00F03EF8DDF804E0DDE9022304B0704738B50C4605462146284600220023FFF7E1FE28B928462146BDE8384000F00AB8284604F1004100F005F8404261EB410138BD00BFD0B500220B4B06460F46FFF757FCFFF705FF0446FFF7D8FB0022074BFFF74EFC02460B467D
S3FD080076B030463946FFF790FAFFF7F6FE2146D0BD0000F03D0000F0412DE9F047089E0D4604468E46002B40F083808A42174647D9B2FA82F34BB1C3F1200105FA03FE20FA01F19F4041EA0E0E9C404FEA1748BEFBF8FC1FFA87F908FB1CE20CFB09F0210C41EA024290420AD9BA180CF1FF3180F01881904240F21581ACF1020C3A44121AB2FBF8F008FB102200FB09F1A4B244EA0244A14209D93C1900F1FF3280F00381A14240F2008102383C44641A002140EA0C401EB10022DC40C6E90042BDE8F08702B9FFDEB2FA82F3002B4FD18D1A01214FEA124E1FFA82F8B5FBFEFC0EFB1C5508FB0CF0220C42EA0545A84207D97D190CF1FF3202D2A842AD
S3FD080077A800F2E98094462D1AB5FBFEF00EFB105508FB00F8A4B244EA0544A04507D93C1900F1FF3202D2A04500F2D9801046A4EB080440EA0C40C0E78B4208D9002E00F0B1800021C6E900050846BDE8F087B3FA83F100294BD1AB4202D3824200F2B980841A65EB030301209E46002EAAD0C6E9004EA7E79F40C3F12002D1404FEA174EB1FBFEF01FFA87F80EFB101124FA02F29D4000FB08FC2A43150C45EA0145AC4504FA03F409D97D1900F1FF3180F08F80AC4540F28C8002383D44A5EB0C05B5FBFEF10EFB115C01FB08F995B245EA0C45A94507D97D1901F1FF3274D2A94572D902393D44A5EB090541EA004178E7C1F120078B4022FA07FCBD
S3FD080078A04CEA030C25FA07F44FEA1C4EB4FBFEF91FFA8CF80EFB194420FA07F309FB08FA8D401D432B0C43EA0444A24502FA01F200FA01F309D91CEB040409F1FF3048D2A24546D9A9F102096444A4EB0A04B4FBFEF00EFB104400FB08FAADB245EA0444A24508D91CEB040400F1FF352DD2A2452BD90238644440EA0940A0FB0289A4EB0A044C45C6464D4619D316D05EB1B3EB0E0264EB050404FA07F722FA01F31F43CC40C6E900740021BDE8F087314630460CE78C46EBE61046FFE64345E6D2B8EB020E69EB0C050138E0E72846D3E711468CE78146B9E7084673E7084649E7ACF1020C3D4413E702383C4424E7704700BF03460122F0B4002575
S3FD080079984027114C00F1D40643F8044B436000F10C0400F19403C164027200F1300100F154024561C0E90344856287630664C0E90822F0BCC0E91133C0E90C11C06200658261C361C363704734660208F0B54FF461644268274DC2F31A03A5FB0323264E9B09A6FB0326F60A04FB16330778234C07F1500C4578A4FB03248278C1F814C090F801C06409604640090138DFF87CE005F00F05013D8861C4EB0410A3EB800302F01F023EF815E0C1E90325CCF3001C013A0B60BB07C1E90146C1F820C0724407F2BC700BD10E4B0E4C03FB00F3B4EBB30F04D2012D00DD0132CA61F0BD084B094C03FB00F3B4EB331FF6D3012DF3DCF3E700BFD34D6210A2
S3FD08007A90C5B3A29189888888295C8FC2285C8F020AD7A300A865020830B40C4605460FCD0FC495E8030084E8030030BC704700BF0023C0E90633C0E90933C0E90B33C0E90D33C0E90F33036080F82030704700BFD1F89C3013B10433C1F89C30704700BFD1F8983013B10433C1F89830704700BF2DE9F0410C460646154684B001F1A008D4F89820236800921F6842462046D4F89C1002ABB84720B92146304602AAA847EEE704B0BDE8F081D1E90C30184700BF90F880309BB9826E2AB9102380F88030D0E91E301847D0E91B139942F5D8436E33B10A4493428CBF11231023EEE77047CA420CBF1023112380F88030D0E91E30184700BF90F888300D
S3FD08007B889BB9C26B2AB9102380F88830D0E920301847D0E910139942F5D8836B33B10A4493428CBF11231023EEE77047CA420CBF1023112380F88830D0E92030184700BFC36B30B48BB1D0E91024A2420DD8846B1344ACB95A1C0BD0D0E90845E41845F10005C1E9004530BC7047836B002BF1D130BC4FF0FF324FF0FF33C1E900237047A34228BF2346E5E7C269136A43B19968C0E90131986083685BB1586010627047D369002BF3D1936913B183609061F4E790615062106270474FF07E50704700BF70B584B09DF80030BDF804400688857823F03F0343F00303002269466FF30A040848ADF808608DF80A508DF80030ADF804400FF0D3FFA0F1A2
S3FD08007C800300B0FA80F0400904B070BD00080020F8B504460F4616460325236831462046DB689847013DF8D123682021DB68204698473946204614F0CFFF051D4F2D074610D8236820212046DB6898474B2F07F1050507D0236831462046DB6801359847502DF7D1236820460A21DB6898472846F8BD00BF10B504462F4914F0ADFF204625222E4914F0A8FF204638222C4914F0A3FF204620222B4914F09EFF20461C22294914F099FF20462022284914F094FF20469022264914F08FFF20460422254914F08AFF20462422234914F085FF20462C22224914F080FF20463422204914F07BFF204688221F4914F076FF204688221D4914F071FF2046BE
S3FD08007D7830221C4914F06CFF204638221A4914F067FF20463822194914F062FF20464822174914F05DFF20469022164914F058FF20469022144914F053FF002010BD00BF384B02084C4B02085C4B0208584B0208684B0208784B0208844B0208904B0208A04B0208B44B0208C84B0208DC4B0208F04B0208044C0208104C0208204C0208304C0208404C0208504C0208FFF776BF10B504460E4914F023FF20460D4A0E4914F01EFF204600220C4914F019FF204600220B4914F014FF20460022094914F00FFF20466422084914F00AFF002010BD44810208604C0208704C0208784C0208884C0208984C0208A84C0208D2F8101270B50868154620B10A
S3FD08007E70043113F055FED5F810120B6B73B10024A82606FB04F3C86A0134C258184493689847D5F810120B6BA342F2D870BD00BF10B50446406804F10801183013F038FE0020C4E90700606010BD00BF10B50446406804F10801183013F02AFE0020C4E90700606010BD00BF10B50446406804F10801183013F01CFE0020C4E90700606010BD00BF2DE9F0410C46896A82B071B1164622680746D2F804801D462046D4F89C3094F8AA1001AAC047A36A13B102B0BDE8F081324638462146A84704F10C0013F0D2FE02B0BDE8F08100BF70B50C46054601F108064160304613F049FFA36C04F118005A6805F10801C5E907324FF0FF33042213F00CFEF9
S3FD08007F683046BDE8704013F0B3BE00BF2DE9F0470C4601F10809804682B0484615461F46D1F840A013F028FFA669002E3DD006F10C002E6013F020FF00222968E0698B688142A3618A602ED0206A814208BF2262626A91420BBF0023002263625A60BAF1000F05D04A6B5046096BFEF7A9FC2968CE6AD1E90823B6FA86F6C5E90223D1F834A001F10C0013F073FE7609484613F06FFE404653462A4621460096B847012002B0BDE8F087E261D2E7484613F060FE30462E6002B0BDE8F08700BF2DE9F0410E4607460C4625462468002CFBD107F10808404613F0D0FEBB6C40461A682A601E6013F045FE2046BDE8F08138B505460B4813F0C1FE0B4BBF
S3FD080080601C6814B905E024681CB1A388AB42FAD304D1054813F030FE204638BD0024024813F02AFE204638BDFC1600201C170020F8B50D46044608680C3013F0A1FE2868C3699C4207D1D0E90867D5E902239F4208BF964209D00C3013F00EFE2B68D869844214BFF120F420F8BD0020F8BD00BF38B50446C069083013F082FE636813B3A268E0699A60A268C169A14219D0056AA5420AD082B15360083013F0EDFD0023C4E90133E361A36238BD994214BF194600210162002AEED14362002BECD09A60EAE7C361E6E7E069A268826112B153606368D9E71346D7E770B500250446818005600830164612F021FA0020002104F1180304F12002A3614E
S3FD0800815804F12803C4E90C01C4E91C01C4E91E01A3642048A362C4E90F55C4E91355C4E92055C4E92255C4E90822E561E562A663A56513F029FE184B1868A8B18188A28891420AD320D920601C60124813F098FD284670BD83889A420DD9014600680028F8D105460C60F0E705460A481C6013F087FD284670BD07D00025206005480C6013F07EFD284670BDE025024813F078FD284670BDFC1600201C17002030B5044600F10C05284683B013F0EEFDE369F3B9A36AE3B9D4F8A420206BD1B21AF040FD94F8AB30022B1DD00CD80022236800921D6820461023D4F8A420D4F89810A84703B030BD032BFBD1D4F89020EEE7284613F046FD00232168DE
S3FD080082501A464D6820460221A847D7E7A26CE1E738B50C468907154606D422070BD4E30614D4D5F8140238BDD2F81032586BFFF7B9FF2207F3D5D5F810220A4BD16B284601F13002FFF76EFEE306EAD5D5F810122846CA6B044B496B3032FFF723FED5F8140238BD55850008258500082DE9F8430E468907144610D5D2F810329A6B62B10025B027586B07FB0500FFF78BFFD4F8103201359A6BAA42F4D832071AD5D4F81022136CB3B100254FF05808DFF8609008FB05F7D16B4B46394401F130022046FFF730FED4F810220028F3D1136C0135AB42EDD8F30614D5D4F81022936B83B10025B027094E516B334607FB051100222046FFF7D7FDD4F8B3
S3FD0800834810220135916BA942F1D8D4F81402BDE8F88300BFE17A0008A196000870B50D468907144612D42A070BD5114ED4F810223346D16B204601F13002FFF7F7FD0028F4D1EB0608D4D4F8140270BDD2F81032586BFFF72BFFE6E7D4F810222046516B044B0022FFF7A2FDD4F8140270BD00BFA5950008E17A000808B5EFF30583C3F3080363B9EFF311832BB112F077FABDE8084012F071B9BDE8084013F005BBBDE8084012F06BBA00BF10B5044B1C781CB902210348FFF7E0FF204610BD14170020F816002038B50446EFF30583C3F308038BB9184BDB6873B19D68EFF311832BB3154B1A78E2B101211448FFF7C5FFEFF3118383B138BD104B66
S3FD080084401A7832B91C700121BDE838400D48FFF7B7BF0121BDE838400A48FFF7B1BF2846BDE8384013F0DABD012106481C70FFF7A7FFE0E7BF2013F0D1FDD5E7C8F2002014170020F816002038B5836F0D4614468BB190F8802042B114B1204613F0E6FB2846BDE8384013F017BC112280F88020C06F9847F0E71120FFF7A8FFECE700BF0078FFF7A3BF00BF08B5EFF30583C3F3080363B9EFF311832BB112F0D1F9BDE8084012F0EDB8BDE8084013F0A5BABDE8084012F0C5B900BF10B5044600202368DA6A5963D86132B903F10C0013F0E4FB0020206010BD986A1146FFF7D5FF2368F2E700BF38B5D0F810320C46D86B20B111461546FFF7ACFD2F
S3FD0800853830B1D4F89C3013B10433C4F89C3038BD01462846FFF7D4FFF3E700BFD0F81032586B08B1FFF74ABE10B5084611461446FFF792FD00B110BD01462046BDE81040FFF7BEBF10B50446C369D3E90A01FFF79FFFE069083013F0A3FB04F10C00BDE8104013F09DBB00BF49B110B504460021204613F08BF934EA0003F8D110BD4FF0FF3113F083B900BF10B5044620B10A49FEF724FA08B9012010BD20782D3803D0B0FA80F0400910BD6078733808BFA078B0FA80F04009F6E7B84C020810B513490446FEF70BFAD8B120461149FEF706FAB0B120460F49FEF701FA90B120460E49FEF7FCF968B120460C49FEF7F7F950B120460B49FEF7F2F93F
S3FD0800863000280CBF0220032010BD012010BD022010BD00BFC44C0208C84C0208CC4C0208D04C0208D44C0208D84C020810B5044620B11949FEF7D6F908B9012010BD20461649FEF7CFF90028F7D020461449FEF7C9F90028F1D020461249FEF7C3F90028EBD020461049FEF7BDF90028E5D020460E49FEF7B7F90028DFD020460C49FEF7B1F90028D9D020460A49FEF7ABF9B0FA80F0400910BD00BFC44C0208C84C0208CC4C0208D04C0208D44C0208D84C0208DC4C0208E04C0208B2F57F4FF8B5154628BF4FF47F454FF08043FA2D38BFFA251B4C4E19A183826004F110024260DA68276912F002020760786020611BD10220B6B25E631A61D86018
S3FD080087285A6A521A92B2954200D9F8BD01F1FB0080B2DA6892070DD558635A6A521A92B295420AD9636A43F001036362F8BD074811F0FEFD064811F0FBFD013080B28142E7D1044811F0F4FDC8F2002064630208B06302088062020870B505460C4612F015F8002D43D02B78043B012B3FD86B6ADA68910736D0DA6892073BD1186910F003002ED02020D3F8C011D3F8C421D3F8C861D3F8CC51C4E9046518611869850703D1586940F0100058612079C1F340031B01C1F3800520F0300043EA45130343980623712AD5A368C90861F31C03A36000202379110A62F30303120C23712170628070BD1A699207C5D1012070BD0E4811F09EFD2020D3F8F3
S3FD08008820B011D3F8B421D3F8B861D3F8BC51C4E90465D860D8688607CBD1586940F002005861C6E72389490D61F30A032381D3E7BC630208426A0B7870B4946813F0200FC4F30164C3F3001318D048685B0043EAC00343F00403087802EB041243F0010300F00F00D1E90265C2F88401C2F88861C2F88C51C2F8803170BC704788885B0043EA4053E7E700BF2DE9F0410126294C06FA00F503462068054218BF002001D0BDE8F081DFF890E028432060DEF81400DFF888C09F1944F8371040EA060804EBC7070CEB03107A6067688268CEF814801742DEF814104FEA031314D00E214FF0000E0CEB030672682F43767B15685CF803C0B14025F00F0542
S3FD0800891867601560CCF80410C2F800E0CCE74FF0A00EC27B5109890002F1604801F1604102F01F0201F5614106FA02F208F5614888F800E3C1F880210A60D3E77CF40020001002402064020810B5044611F09CFE134B9A681968002A07DB99421CD1501E0028886005DB002010BD994214D0511E99606CB10B4A2146D268052013605C68D361546022605A60BDE8104012F066B94FF0FF309A6010BD034811F0D1FC00BF90F50020C8F200204063020808B511F0F5FE074B1868984208D00021026853601A60C161BDE8084011F03EBF08BD00BFEC08002070B40D4D05F110063346EC6805E013F8011B10F8012B914206D1A342F7D3007810B9EE6063
S3FD08008A1070BC704740F20112034B0120AA80AB6070BC704754F40020E44C02084FF080435B6A091A1B1A89B29BB28B4201D20020704740F20111034B034A012099809A60704700BF54F40020F84C020810B5094C002918BF0C46FDF7BDFC4FF06A51FDF711FD0549FDF70EFDA0470349FDF7BEFD10BD00BFCDD301080000C8421B4A1346116841F0010111601A689107FCD500201968164A01F0F90119605860536813F00C0FFBD11168114B41F4803111601A689203FCD559680D4A41F4E8115960196841F08071196013689B01FCD51221084B0848506019605368044943F0020353604B6803F00C03082BFAD17047001002400020024000641D00FF
S3FD08008B0810B58CB001AA002114F0B4F901A803A9FEF764FF03A814F09FFE044613F03EFB0A4B5A689206FCD55A68094942F010025A600A68210CA4B29161D4615A6822F010025A6013F05EFB0CB010BD00280040A81300202DE9F0418EB0064613F01EFB1C4B5A681207FCD51A4A53689B06FCD5194B1B689F69DD69D3F810805C699969DA6905EB074502EB01429542F2D113F039FB00231149124A04EB084401FB0424104A6846A2FB042405A90095A40B019314F03AFC58B1214605A803AA14F05AF9314603A8FEF70AFF0EB0BDE8F081064811F0BEFB00280040A813002018FCFFFFB8A8B90383DE1B43CC6302084FF08042194B526A1B8870B558
S3FD08008C00D21A002392B2561C43F1000173019B1B4FEA411262EB010204465202580242EAD352831941EB02029501980145EA9365C31A65EB0202981942EB010110F1FF304FF00003074A41F1FF31FEF7EDFC064AD2E90032C01842EB0101C4E9000170BDD016002040420F00F016002010B5124CD4E910239A420DD204F13800002111F021FE236C04F1300001332364BDE81040FFF7B0BF11F08EFD236813B1204611F04FFF002200230021C4E90823BDE81040024811F007BE00BFA8EB0020E4EB00202DE9F043044683B00FE0DDE90089D4E90623994508BF904521D3D4E90A3100209847D4E90823134332D06846FFF782FFD4E9080150EA010322
S3FD08008CF8E7D0D4E90623DDE9008952EA030506D110EB080241EB0903C4E90623DDE7994508BF90451BD200216FF00200B2EB080663EB0907B94208BFB04216D211F03EFD236813B1204611F0FFFE234620466FF002011F4A11F03AFF03B0BDE8F083121841EB0303C4E90623B7E77B017201921B43EAD66363EB070351025B0243EAD2530A460021921947EB03039D01900145EA9265821A0F4865EB0303921947EB0303101843EB01010C4A0023FEF741FC054611F004FD236813B1204611F0C5FE294623462046054A11F001FF03B0BDE8F083498F00083F420F0040420F00098F0008F8B51E4C0A46D4E910318B4225D24FF47A7C00260027991C54
S3FD08008DF0DD1C05FB01F5D4E90C016D080CFB05F5013340190CFB03F5236441F10001124B1560C4E906012046C4E90867E262A362FFF74EFF04F138000021BDE8F84011F049BD11F0BFFC236813B1204611F080FE002300220021C4E90823BDE8F840034811F038BDA8EB0020D98D0008E4EB00202DE9F843254C0A46D4E910318B4234D2D4E90C014FF47A765F1C07FB03F56D0806FB05F5401903F1020503F1030303FB05F34FEA5303276406FB03F34FF000074FF0000641F10001C2E90001D4E90C8918EB0308124B204649F10009C4E90689C4E90867E262A362FFF7FAFE04F138000021BDE8F84311F0F5BC11F06BFC236813B1204611F02CFE45
S3FD08008EE8002300220021C4E90823BDE8F843034811F0E4BCA8EB0020618E0008E4EB002038B505460C46302383F3118812F03EF9D4E90A3128469847D4E90823134305D112F022F9002383F3118838BD2046FFF7C3FE12F019F9002383F3118838BD00BF10B530230C4683F3118812F01FF92046FFF7B2FE12F008F9002383F3118810BD2DE9F041804682B06846FFF73FFED8E90023DDE90001994208BF904240D26FF0020600270FE06FF00201082011F06EFE6846FFF72BFED8E90023DDE90001994208BF90422CD2141A63EB0105AF4208BFA642E8D36B016201121B43EAD46363EB050351025B0243EAD2530A460021121945EB03039E01900121
S3FD08008FE046EA9266821A0A4866EB0303121945EB0303101843EB0101064A0023FEF714FB0146082011F036FE02B0BDE8F08100BF3F420F0040420F0038B504460D46302383F3118812F0FEFB11F0C4FBA368002B23680FDB9C4208BFA56023D111F040FB12F0E0FB114B1A689A4213D1002383F3118838BD9C4215D0A5606FF001056068436863601C6011F0FBFBC56123689C42F5D1E3E7D96893688A689A42E6D2044811F06AF9034811F067F900BFC8F20020A46202081C630208302370B583F31188224C12F0BFFBA3682068002B15DBA04238D15A1C002A8260C8BF836011DD11F0FFFA00241A4D12F09DFB2B68AB4221D1002383F31188204642
S3FD080090D870BDA04222D00133A36003685C60236011F0BAFB0022A368C261013B9342A360E1DA0D4D0520EE683460636873601E60F461666011F020FBF469D8E7EA689B6892689A42D8D2054811F01AF9044811F017F900BF90F50020C8F20020A46202085463020808B5302383F3118812F06EFB0D4B1868984205D00268002153601A6011F0C4FA12F052FB084B1A689A4203D1002383F3118808BDD96893688A689A42F6D2034811F0ECF8EC080020C8F20020B062020838B5302383F3118812F046FB11F00CFB00220B4CE3685D6A5A6212F02DFB2368A34204D1002383F31188284638BDE2689B6892689A42F5D2024811F0C7F800BFC8F2002090
S3FD080091D0BC62020870B5144D3023EE6883F3118812F020FB706A70B1444220EA04037362044012F007FB2B68AB420CD1002383F31188204670BD4FF0FF330A20F36111F09FFA706AE8E7EA689B6892689A42EDD2024811F099F800BFC8F20020BC62020870B5124C3023E56883F3118812F0F2FA6E6A5EB100236B6212F0DCFA2368A3420CD1002383F31188304670BD4FF0FF330A20EB6111F074FA6E6AEBE7E2689B6892689A42EDD2024811F06EF8C8F20020BC62020838B5134C3023E56883F3118812F0C8FA6B6A03F00502052A05D005230B20EB6111F054FA6B6A23F005036B6212F0A8FA2368A34204D1002383F31188052038BDE2689B6847
S3FD080092C892689A42F5D2024811F042F8C8F20020BC6202082DE9F041474D82B0D5F8C846B4F1915F0BD0454B9C4224D0444B9C4218D08020C5F8C84602B0BDE8F08107460E46FFF763FF3060BB68184234D1D5F8C806844294BF80200020C5F8C84602B0BDE8F081002137480AF0DEFD4FF09154D5F8C806EDE7302383F3118812F06EFA6846FFF753FCDDE9003213F57A7342F100026846CDE90032FFF702FE12F04EFA294B1A689A4238D1002181F3118825480AF0BAFD254CCAE7694622480AF0D6FD302383F3118812F049FAFB685A0707D59DF80080B8F1000F1BD04FF0800807E04FF0800823B9BA68336823EA0203336012F024FA144B1A6887
S3FD080093C09A4216D1002383F31188D5F8C806B8F1000FA2D14FF098549FE723F00403FB60E4E7D96893688A689A42C1D20A4810F0B3FFD96893688A689A42E3D2F6E700BFF0EB00200000203100001012E4650208C8F2002000003031C862020870B50446002086B01E4E019101F5EC711D46029130230594039220600090049683F3118812F0F0F9684611F0C5F9064612F0DAF9144B1A689A421BD1002383F311880A98114920610B98114A60610C982384E061A160A2610E486660E56012F0B1FC0D4B0B481A681C60226012F026FC06B070BDD96893688A689A42DED2074810F05CFF51E90008C8F2002039970008657E0008FC1600200C1700206F
S3FD080094B89862020830B592F820301546013B04460A4685B00B2B11D8DFE803F014101016181A1010101C1E060C4B009321462346CDE9014404F5EC70FFF794FFC4F8105205B030BD064BF0E7064BEEE7064BECE7064BEAE7064BE8E7064BE6E76583000831950008A5A00008E1A0000845A1000861820008BD820008D0B58B07144682B003D4D4F8140202B0D0BD302383F3118812F06CF96846FFF751FB12F057F9114B1A689A4216D1002383F31188DDE90067D4F810229169D1E90001B94208BFB042D16938BF331A41F8043BD4F81402D16102B0D0BDD96893688A689A42E3D2024810F0DEFEC8F20020106302082DE9F0470C46C96C82B01546F4
S3FD080095B099469DF82870002946D0302383F311886E46DFF8D88012F02DF93046FFF712FB12F018F9D8F8003043454CD14FF0000C8CF31188D5E90223DDE900018B4208BF824228BF6246E36C38BF821A43F8042BE364A26C3023D2F800A083F3118812F009F93046FFF7EEFADDE9002312EB0A0243F100033046CDE90023FFF79DFC12F0E9F8D8F80030434526D1002383F3118837B102B0BDE8F0876E46DFF85080D8E729462046FEF71CFD0028F2D12B684A46216C186BFDF760F949462846FEF744FF02B0BDE8F087D8F80C209B6892689A42ACD2054810F068FED8F80C209B6892689A42D2D2F5E700BF10630208C8F200202DE9F0430C46C96C16
S3FD080096A883B015461E469DF82870F1B1302383F3118812F0B3F86846FFF798FA12F09EF8194B1A689A4227D1002383F31188D5E90201DDE900894945E26C08BF404538BFA8EB000342F8043BE26417B103B0BDE8F08329462046FEF7C7FC0028F6D12B683246216C186BFDF70BF931462846FEF7EFFE03B0BDE8F083D96893688A689A42D2D2024810F014FEC8F20020106302082DE9F04F00230D46D1F8101285B001900868C5F8143258B14FF0FF330431022212F012FAD5E9841343F00203C5F814328B6A83B100244E6A04EB440706EBC703988AFEF76BFCD5F8101201348B6A46F83700A342EFD80B6B002B00F0A5800026DFF81CB3A82707FB34
S3FD080097A006F7CA6AD41994F8A630032B00F28D80DFE813F0F400DB0069000400B8490023D1514FF0FF3A00210022C4E90733C4E91012C4E91212C4E90933C4E91433C4E91633C4E91833C4E91C33C4E91E336360A36684F88030B4F8A400C4F86CA0FEF729FC00238046D5F8102200F10809D26A1744D7F89020D7E922018037C4E919016267236784F880304846C4F86CA0E767C4F80480C4F878B012F0D2FAD8F84820D8F850305168C4E9072123B9C1E1596F626F914203D218465B6A002BF7D16362446208F118004FF0FF33042204F1080112F086F9D8F81C3048460133C8F81C3012F02AFA21E04FF000084FF0FF39854BB4F8A400D351C4E9E6
S3FD080098980788C4E90988C4E90B98C4F80480FEF7D5FBD5F810320146DB6A20461F44D7E90D23C4F82C90C4E90923C4F83080FEF739FBD5E984130A6B013643F00403B242C5F814323FF65EAF0B6C002B00F085800026DFF8D0913446B0466D4F12E06DD94AF80B303846C9F8006012F0E9F9D5E984130A6C08F1010843F008034245C5F814326AD9582303FB08FBD1F83CA0019B0AEB0B065A68B6F8503006F108004AF80B40B380009210F025FE0823009A3846C6E90A23C6E90644C6E9084412F044FAD9F80030002BCDD09A88B08882422BD3C5E700234F49B4F8A400D151C4E90733C4E909336360FEF769FBD5F810320146DB6A20461F44FB6ADC
S3FD080099903037C4E90937FEF7D1FA96E700234449B4F8A400D151C4E907336360FEF752FB01462046FEF7C2FA87E79A8890420FD99C461B68002BF8D13846CCF8006012F083F998E7384612F07FF9C6E90A4492E7F8D04AF80B303846CCF8006012F074F989E78B6B002B00F0EF800023DFF8BC900093DFF8BC804B6BB026009A06FB02F69C1994F8AB20032A31D8DFE802F0A8BD89020027234AD4F8A0B0D4F894A004F10C009A51C4E9017710F0A8FD002100204FF0FF32C4E90801C4E91801C4E91A01194904F18803C4E90A77C4E90D77C4E91177C4E91C77C4E91E77C4E92013C4F830B0E761C4F83CA084F8887022640A4FD5F8103238465C6B92
S3FD08009A883444B4F8A8A012F0A7F9D9F800B0BBF1000F18D11EE000BF4C65020838650208FC160020746502086065020844650208C184000810170020C8F20020DBF800B0BBF1000F06D0BBF804209245F6D801D04FF0000B384612F0FBF8D5F81022C4F898B0536B9919D1F89810002953D1302383F3118811F092FE02A8FFF777F8DDE9023213F57A7342F1000202A8CDE90232FFF726FA11F072FED8F8003043454BD1002383F31188A7E700272C49D4F8A020D4F84CA004F10C009951C4E90177019210F020FD4FF0FF3300200021019AC4E90A77C4E90C27C4E90E7AC4E90801E7616764236487E700271D4AD4F8A0A004F10C009A51C4E90177F4
S3FD08009B8010F004FD00220023C4E90A77C4E90CA7C4E90823E76172E70027144AE9E70098D5F81412926B013041F0100182420090C5F814123FF628AF084605B0BDE8F08FD8F80C209B6892689A42ADD2084810F0C3FBC8F8504044E6D5F8140205B0BDE8F08F00BF30650208586502086C6502081063020810B53023044683F3118811F011FE10F0D7FD236813B1204610F098FF00220023C4E9082311F0F4FD084B1A689A4205D1002383F31188C4E90C3310BDD96893688A689A42F4D2024810F08CFBC8F2002004630208D0B5D1E900670446C0E90C23302383F3118811F0E3FD002100200E4BC4E90801A3622046C4E90667E462FFF725F811F07B
S3FD08009C78C5FD094B1A689A4203D1002383F31188D0BDD96893688A689A42F6D2034810F05FFB00BF397B0008C8F200200463020870B50546406882B005F10801183011F033FF6868083012F08FF805F12800FFF795FF00236E682B66346DA5422CD02346646AAC42FBD16A6A5A620021B06C2A6A436869629A420AD0EB691B689A69013A002A08BF012198429A61F6D171B9F36906F10800013BF36111F0E2FF0020C5E90700C5E91E00686002B070BD06F1200011F0A0FF6E68EAE76B6A33659BB15B6F8BB1B16CAA6FD1E90201C01841F10001CDE9000106F158005AB12B466946084AFFF776FF03E006F15800FFF747FF6668BBE712236946034AFE
S3FD08009D70FFF76AFFF7E700BF819D00080D840008F0B5436A044683B083B14068596F856C9A6FD5E90267761847F10007CDE90067583072B169460A4AFFF74EFF94F880302BB91222A36FE06F84F88020984703B0F0BD12236946034AFFF73EFFEEE700BF819D00080D8400082DE9F04F83B005469DF830B000688A4691461E460830BBF1000F1BD011F0F4FF2C68A36CD3F80080D8F81830D8F8047003B3BBF1020F40F0CD8004F1200011F0E7FE831C00F0B380002800F0B080814810F096FA11F0ACFF002800F0E9802C68A36CD3F80080D8F81830002B40F0B280D8F8047047B1D6E90023D8E902018B4208BF8242C0F0D880A76CD7E90083002B54
S3FD08009E6800F0A880D6E90001D7E90223994208BF904280F09F80D8F800303B6001E01F461B685A68002AFAD0D3E902BC614508BF5845F4D2C8F80030C7F80080A36C276D984500F08A80E36C5146013305BF01221346E364E264D8F81000C8F80430D6E90023C8E902234A46FCF72AFDA36CC8F81490984516BFD8F80030E3699B69C8F81830002F3ED0DFF84891DFF840A12DE0D7E91B218A42D7F864E02CD803EB020CBEF1000F28D0E64526D8F4463B6E3BB1D3E90201D6E900238B4208BF824213D2D6E90023B96F12EB0C0243F10003CDE90023002959D03B464A46694607F12800FFF77EFEC7F860807F6A5FB1BB6E002BCED1D7F864E0F446D3
S3FD08009F60BCF1000FD6D17F6A002FF3D1002104F11800FEF725FA2868083011F0ADFE002003B0BDE8F08FD8F804302C68BB421CBFA36CD3F80080D8F8183018BFD8F80470002B7FF436AFD8F804704FE704F1080011F092FEE22003B0BDE8F08F276DC4F84880002F3FF473AF796F00293FF46FAFD6E900235218B96F43F10003CDE90023E1B13B466946124A04F15800FFF72CFE5DE7F4450CBF102311235246694607F12800FFF721FEA1E7E12003B0BDE8F08F04F1080011F060FEE420CCE712236946044A04F15800FFF70FFE40E7D8630208819D00080D840008417B000810B54368044684B03BB1027A0092D0E90312FFF7C3FE04B010BD302351
S3FD0800A05883F3118811F0E2FB02A8FEF7C7FD11F0CDFB0C4B1A689A420CD1002383F31188227A2046009202ABD4E90312FFF7A8FE04B010BDD96893688A689A42EDD2024810F05EF9C8F200201063020838B515468A070C4604D4630709D4D5F8140238BDD5F81032586AFFF7BDFF6307F5D5D5F810322846034AD96AFDF716FDD5F8140238BD00BF81A10008F8B515468A070E4611D5D5F810329A6A6AB100245B6A04EB440003EBC000FFF79DFFD5F8103201349A6AA242F2D8730713D5D5F810321A6B7AB10024A827084ED96A324607FB04112846FDF7E9FCD5F810320134196BA142F2D8D5F81402F8BDF17A000838B515468A070C4604D46307C3
S3FD0800A15009D4D5F8140238BDD5F81032586AFFF76DFF6307F5D5D5F810322846034AD96AFDF7C6FCD5F8140238BD00BFF17A0008D0F8103210B50C46996A31B9D4F8983013B10433C4F8983010BD586A4260FFF74DFFF3E72DE9F0410446406882B00830884616461F4611F013FE6068856C696800293BD0226AC36C9A4237D0C4E907511FB1D5E90223C7E90023B8F1000F04D0D5E904124046FCF79FFB0EB16B693360089BDBB1302383F3118811F013FB6846FEF7F8FC11F0FEFA144B1A689A421CD1002383F31188D5E90201DDE90067B942089A08BFB04238BF331A13606068083011F052FD012002B0BDE8F081083011F04BFD002002B0BDE8B6
S3FD0800A248F081D96893688A689A42DDD2024810F07FF800BFC8F20020F862020830B585B003AC00940446FFF799FF08B3636A13B1039A934222D3A26A92B1D4E90B018842039B04D8984220D9CD1AAA4218D39942E362194602D221638B4213D88A4211D3089B43B10020039B089A136005B030BDE52005B030BD184605B030BD1020F5E7994204D3112005B030BD994205D2191A8A4219460346DFD3DDE71946DEE700BF10B582B0049C0094FFF758FF00280CBFE520002002B010BD10B582B0049C0094FFF74CFF00280CBFE520002002B010BD2DE9F04F0446406887B00830CDE900238B46109F11F058FD6068226A836C59688A4200F0B180E1696C
S3FD0800A3404868824200F0A480D3F80080D8F804202AB94246126851680029FBD0904600251097A9462F46454604F128029D424FF0300A4E4EDDF84080039259D0AB69013B002B08BF0127AB618AF3118811F04AFA04A8FEF72FFC11F035FA3368B3426CD189F31188D5E90223DDE904018B42236E08BF82422CBF0022821AAB4222D0B8F1000F01D0C8F80020A36E53B3D4E91B1081421FD8914242D9A0EB020C634519D2904202D2501A834218D2AB696168002B4BD0002220460831FEF746F8112007B0BDE8F08F03980292FFF7F4FB029AC4F86090D4E79042E26603D211468A422267E3D36068836CAB421FD02D689D42A5D16B680199C4E9075382
S3FD0800A43819B1D5E90223C1E90023BBF1000F04D0D5E904125846FCF76BFA009A002A91D06B6913608EE79042C0D36068836CAB42DFD1A7B9083011F033FC002007B0BDE8F08FF2689B6892689A428DD20A480FF067FF01F12002B1E7D1F8008063E7203011F0E8FB6068E5E7083011F019FCE520A9E700BFC8F20020F86202082DE9F0470546406882B0083099468A4690460A9F11F08AFC68682C6A866C73689C4200F0C380EA6953689C4200F08F803468606818B9246860680028FBD0C5E90740B9F1000F03D0D4E90223C9E90023BAF1000F04D0D4E904125046FCF70AFAB8F1000F02D06369C8F80030A3693022013BA36182F3118811F07AF928
S3FD0800A5306846FEF75FFB11F065F95A4B1A689A4240F08380002686F31188D4E90223DDE900018B422B6E08BF824238BF861AA3422DD007B13E60AB6EFBB1D5E91B218A4214D8B24248D8B14217D2B11A8B4211D26A68A36902F10801002B67D120322846FDF77AFF112002B0BDE8F087B142EE6603D2324696422E67EAD3A36923B36868083011F091FB002002B0BDE8F0876B689B6CA34263D02268AB6E2A6613BB696E02F10803D3E900235218A96F43F10003CDE90023002959D069462B462E4A05F12800FFF729FBB4E76868203011F036FBD5E71468606874E7881B8342C6D2B142B3D3B5E7D5E91BC18C45D8D8696E21B363449942D4D9D2E91C
S3FD0800A6280201C018AB6F41F10001CDE90001002BD6D1112305F1280069461A4AFFF700FB8BE7D96893688A689A42BFF477AF16480FF07EFE002296E7083011F039FBE520A6E76344D2E90201AA6FC01841F10001CDE90001002AB3D1002B0CBF1023112305F12800D8E705F12800FFF7AFFA00232B6662E7102305F12800CDE7C8F20020417B00080D840008F86202082DE9F0430446406883B0083016461F468946DDF8288011F089FBD4E90732586890423CD063689B6C1D686B68C4E907531FB1D5E90223C7E90023B9F1000F04D0D5E904124846FCF715F90EB16B693360B8F1000F1BD0302383F3118811F088F86846FEF76DFA11F073F8154BE2
S3FD0800A7201A689A421ED1002383F31188D5E90201DDE90067B94208BFB04238BF331AC8F800306068083011F0C7FA012003B0BDE8F0836068826C9A42C0D1083011F0BCFA0020F3E7D96893688A689A42DBD202480FF0F2FDC8F20020F862020830B585B003AC00940446FFF795FF10B3636A13B1039A934223D3A26A9AB1D4E90B018842039B04D898421CD9CD1AAA4221D39942E36206D21A469342226302D9112005B030BD089B43B10020039B089A136005B030BDE52005B030BD089805B030BD1020F5E79942EDD2191A8A42E7D31A460346E1E79942F7D3E1E710B582B0049C0094FFF758FF00280CBFE520002002B010BD10B582B0049C009444
S3FD0800A818FFF74CFF00280CBFE520002002B010BD2DE9F041174811F0D7FA174B1C68CCB130274FF00008154E656887F3118810F0EDFF2B7E022B12D1284600210FF046FF10F0D4FF3368B3420CD188F311882468002CE9D1BDE8F041064811F031BA08480FF06EFDF2689B6892689A42EDD205480FF066FDFC1600200C170020C8F2002034630208986202082DE9F041044616461F4682B0002943D000F10C0840460D4611F092FAE369002B5CD0022D40D12046FDF702FC4FF0F108302383F3118810F0A5FF6846FEF78AF910F090FF394B1A689A4261D1002585F31188DDE90001D4E908238B4208BF824238BF851A04F14800FFF774F90EB1636B9C
S3FD0800A910336007B13D60B8F1000F23D1E36B0BB3D4E910218A422CD8AA4249D9481B834227D2A94246D32BE000F10C08404611F023FAA8B1E369CBB140464FF0F10811F0C3F9404602B0BDE8F0811120FDF756FD4FF0110800234046A36202B0BDE8F0814FF0F208404602B0BDE8F0814FF00008A6E7A9422564EDD22A4695426564E9D2D4F88030002BE0D094F888204FF01108002ADFD1D4F8840084F888809847D9E7D96893688A689A4298D205480FF0CCFCA942CFD2A91A8B42E2D3DEE7C8F20020EC6202082DE9F043044616461F4683B000293AD000F10C0840460D4611F0F8F9E369002B55D0022D37D12046FDF768FBF125302383F3118861
S3FD0800AA0810F00CFF6846FEF7F1F810F0F7FE2F4B1A689A424CD1002383F31188DDE90089D4E90801494508BF404538BFA8EB000307B13B6025B9A26BDAB19A4219D210250023A3628EB12846636B336003B0BDE8F08300F10C08404611F092F9C0B1E369DBB1404611F034F9F125284603B0BDE8F083E26B002AE3D0D4E9101081420ED899421DD9C71ABA4209D298421AD30DE0F225284603B0BDE8F0830025ADE798422364CDD219468B426364C9D21125C7E7D96893688A689A42ADD205480FF048FC9842BDD2581A8242F0D3ECE7C8F20020EC6202082DE9F04104461746984682B0002936D000F10C0630460D4611F074F9E369002B3DD0022DEE
S3FD0800AB0033D12046FDF7E4FAF1250023A3620FB1636B3B60B8F1000F1BD0302383F3118810F080FE6846FEF765F810F06BFE1A4B1A689A4228D1002383F31188D4E90801DDE90067B94208BFB04238BF331AC8F80030284602B0BDE8F08100F10C06304611F012F958B1E3693BB1F125304611F0B3F8284602B0BDE8F0810025C5E7F225284602B0BDE8F081D96893688A689A42D1D202480FF0E0FBC8F20020EC620208FFF79CBF70B5044600201D4616463023C4E90100E16183F3118810F033FE04F12000FEF717F810F01DFE0D4B1A689A420DD1002282F311883DB1EFF30581C1F3080101B9DA68C4E90A25666370BDD968926889689142ECD2B4
S3FD0800ABF802480FF0ADFB00BFC8F20020EC620208F0B5044685B00A9E0D46FFF7C7FFE36BA663B3B1D4E910218A4212D813448EB1B3420FD3D4E90823D4F88010921943F10003CDE90223002948D1102304F148006BE03346002B37D105F1080011F0C4F8E369DA69002A41D069462046FCF7B0FFE36902A99869FCF7ABFFDDE90067DDE902239F4208BF96420CD23BE0806802A9FCF79EFFDDE90223DDE900679F4208BF96422FD3E369DA698242EFD182686060DC61002A4AD0A260546084602046FDF761FC002005B0F0BDD4E90801D4F88020C01841F10001CDE9020102B323461E4A02A904F14800FEF7B3FFB5E79A690AB3A2602046C3E906442F
S3FD0800ACF05460FDF743FC002005B0F0BD20B34368A060E3B163609C6044602046FDF736FC002005B0F0BDB3420CBF1023112304F148000C4A02A9FEF78FFF91E720469C615C62DC61FDF722FC002005B0F0BDE3699C61E1E75C62B4E7E369D869AAE700BF857B00080D84000870B50D460446049EFFF720FF05F10800A66311F039F82046FCF74EFFFDF702FC002070BD38B50D460446FFF70FFF05F1080011F029F82046FCF73EFFFDF7F2FB002038BD38B50D460446FFF7FFFE05F1080011F019F8E269536A3BB1636020469C605462FDF7DEFB002038BD204694615462FDF7D7FB002038BD00BF2DE9F04F1F468BB09DF85030032F0546CDE9071228
S3FD0800ADE8069300F23B819F4BDA5D1346002601249D492846039611F02BFF9C4B06989C4A9C49B04208BF1A46284611F021FF2846994911F01DFF994A0296A2EB8203A340A3F52C33A3F5E673099302F5866304934FF00008DFF8809248461FFA88F1002208F10108FDF774F9A04509F19009F3D1002202218A4B02981A820132A242C3E902001860197103F11803F4D10022854BDFF848C2DDF80CE00EE0012F1ED0D86601320298A242C3E91C00A3F8781083F87A7003F1A80316D07B4891B2724518BF0020022F06D0032FE7D1784EC3E917665E66E4E7754EC3E90266E0E7029EC3F800C05E60DBE7DFF8C8B14FF4C8720BF68C5800216C4817F027
S3FD0800AEE0DBFE4FF0000A43460595A04655461C46DFF89091DDF824A025E04FF0040345458BF8203004D20123CBF82440CBF828300126CBF830604FF00406C4EBC40C0CEB0A03CBF82C305A46BE2148468BF82060FEF7C4FA6B1C43451DD81D460BF1440B09F5067918345846FCF7BAFD002DD4D1514B524D5A461D600123CBF828304FF00403BE218BF820304846CBF82440FEF7A5FA0123E1E7059DFFF756FC4FF0FF31079810F09FFC6423454E029A4446C6E91023302383F3118810F044FC42F21078002100204FF000093E4BC6E90601B362029B3046F362C6E90889FDF781FE10F021FC394A1368934244D1029B83F3118806990898FDF7E4FA81
S3FD0800AFD8DFF8A880FDF708FADDF81090D8F8DC0108F5067811F048F8C845F7D1029E2D492D480E6000212D4A2D4B06706FF0FF00894616601E6010F059FCDFF8B480DFF8B4B058F8041F09F1010900914B4622465946284611F014FEB9F1640FF1D1039B013401330393049B332C03F5067304937FF4F6AE00200BB0BDE8F08FD2689B6892689A42B5D217480FF07AF900221346C4E600BF7C620208204D0208144D02080C4D0208644D0208744D020820170020788F002074B0002018D1002040420F00E8810020E0EB0020A8EB00206D8C0008C8F200200C170020141700201C17002010170020E062020828940020417C000814D10020CC5C02082B
S3FD0800B0D02DE9F04F0C461E4605468BB09149CDE90542079311F0B8FD8F4B904A9049002E08BF1A46284611F0AFFD284642F210728C4911F0A9FD00238B4C8C4F8C4EDFF86882089304F5866B099550E0002383F31188D6E90C3213F57A7542F1000A302383F3118810F076FB002300228149B561814DC6E908237E48B162C6F81CA0F562FDF7B6FD10F056FBD8F80030434540F0A280002383F31188DDE90601774DFDF717FA2B78112B02D1089B013308934FF0000AFDF735F9D4F8DC0110F079FFD4F8F40310F075FF6E496E4B6F4AC1F800A06FF0FF005146C3F800A085F800A0C2F800A010F087FB644B2C37BB427DD0002542F2107C4FF0010ADE
S3FD0800B1C84FF00C09634B2946C4F860352C223846C4F85475C4F85055C4F85855C4F85C55C4F84CC5C4F8485517F052FD5846FCF763FC4F48584B5A46C4F8303400F59763C4F86434BF21C4F868A484F85094FEF751F94B4BA7F5895010382946C4F8B0352C22C4F8A855C4F8AC55A4F8B855C4F8B40517F02DFD4948FCF73EFC474ABF21A2F5177000F55473C4F8B034C4F8B4A484F89494FEF72EF9FFF7E2FA4FF0FF31059810F02BFB0B223023C6E9105283F3118810F0D3FA3A48FDF7B8FC10F0BEFAD8F8003043453FF445AFD8F80C209B6892689A42BFF43EAF32480FF059F8D8F80C209B6892689A42BFF457AF2D480FF04FF8099D2C49284641
S3FD0800B2C011F0CAFCDFF8B490574600261B4C0AF1010A0EE02368CB1ACDE901130092334652464946284611F0B7FC642E04F12C040BD0A4F5895354F82710103B53F8272001360029E6D10B46E6E7BAF10B0FDBD133462846089A174911F09EFC00200BB0BDE8F08F8C4D0208144D02080C4D0208644D0208A84D020820170020102E0020A8EB0020D98D0008403F0020141700200C170020101700201C17002000000103E0EB0020941B0020D8EB0020E0620208C04D0208044E0208C8F20020EC4D02082DE9F04F0C461E46054689B08C49CDE90342059311F060FC8A4B8B4A8B49002E08BF1A46284611F057FC284642F21072874911F051FC002397
S3FD0800B3B8864F874EA7F5AB54DFF85082069304F5866B079550E0002383F31188D6E90C3213F57A7542F1000A302383F3118810F01DFA002300227B49B5617B4DC6E908237748B162C6F81CA0F562FDF75DFC10F0FDF9D8F80030434540F0A180002383F31188DDE90401714DFDF7BEF82B78102B02D1069B013306934FF0000AFCF7DCFFD4F8DC0110F020FED4F8F40310F01CFE6749684B684AC1F800A06FF0FF005146C3F800A085F800A0C2F800A010F02EFA5D4B2837BB427CD0002542F2107C4FF0010A4FF00C095D4B2946C4F8603528223846C4F85475C4F85055C4F85855C4F85C55C4F848C5C4F84C5517F0F9FB5846FCF70AFB5248534BAC
S3FD0800B4B05A46C4F8303400F59763C4F86434BF21C4F868A484F85094FDF7F8FF444BA7F57A602946C4F8B0352822C4F8A855C4F8AC55A4F8B855C4F8B40517F0D5FB4448FCF7E6FA424ABF21A2F5177000F55473C4F8B034C4F8B4A484F89494FDF7D6FFFFF78AF94FF0FF31039810F0D3F90A223023C6E9105283F3118810F07BF93548FDF760FB10F066F9D8F8003043453FF446AFD8F80C209B6892689A42BFF43FAF2D480EF001FFD8F80C209B6892689A42BFF458AF28480EF0F7FE079D2749284611F072FBDFF8A080DFF8A090464600240AF1010AD6F8A03F56F8281B013401930091234652464946284611F05DFB642CF0D1BAF10A0F08F157
S3FD0800B5A80408E7D123462846069A174911F050FB002009B0BDE8F08F8C4D0208144D02080C4D0208644D0208184E0208802C0020A8EB0020D98D0008203C0020141700200C170020101700201C1700200000010320170020E0EB0020941B0020D8EB0020E0620208344E0208044E0208C8F20020E01C0020584E02082DE9F04F8BB0CDE907129DF85010032B80460993069100F210811A468C4B8D499C5C224611F008FB40468B4911F004FB22468849404611F0FFFA884B0698884A8849002808BF1A46404611F0F5FA4046854911F0F1FA01274FF000090025834C834EDFF850A2DDF824B01DE0BBF1010F2DD001234FF4C872C4F85465A4F860056B
S3FD0800B6A01D443046C4F85095C4F85895C4F85C9584F863B584F862350021164417F0ECFABD4204F1B00417D0BBF1020FA8B208D0BBF1030FDAD16F4BC4F84835C4F84C35D7E76C4BC4F80035C4F80435D1E7C4F8F0A4C4F8F494CCE76748FCF7E1F90B230024654A654DA2F58660C0F8305402F1880582F82030C2E90D57BF21FDF7CEFE5F4B604A1C820134BC42C3E90292C3E9009902F5C87203F15803F3D15A48FCF7BFF9594A594DA2F274400B23D56305461464A2F5177085F89434BF21FDF7AEFEFFF762F84FF0FF31079810F0ABF864234F4CC4E91093302383F3118810F052F842F210720023002100204A4DC4E90823C4E90601C4E90A5931
S3FD0800B7982046FDF791FA10F031F8454A136893424FD189F3118806990898FCF7F5FEFCF71BFE344B4FF0000B1C46D3F8DC0110F05BFCD4F8F40310F057FC3A4B3A483B4AC3F800903A4C3B4BC0F8009000216FF0FF0084F80090C2F80090059310F066F8DFF8DCA00024059D0BF1010B05F59C46203656F8043F55F8041F0134CDE901133A465B4651464046009411F019FA642CEFD1059BBB4503F5C8730593E2D1BBF1320F0BF101077FF41DAF00200BB0BDE8F08FD2689B6892689A42AAD21E480EF07FFD0022054911F0FBF94046044911F0F7F90024F0E600BF7C620208684E0208844E0208144D02080C4D0208644D02089C4E020820170020A3
S3FD0800B890889D002040420F00501B0020E0EB0020783E0020684F0020941B0020383E0020A8EB00206D8C0008C8F20020101700200C1700201C17002014170020644F0020E0620208417C0008CC4E02082DE9F04F8DB0CDE909129DF85810032B80460B93089100F22C811A469A4B9B499C5C224611F0AAF94046994911F0A6F922469649404611F0A1F9964B0898964A9649002808BF1A46404611F097F9944B4046B033934907934FF0040911F08EF90127914B8E4C914EDDF81CA0DDF82CB01DE0BBF1010F2CD000220125C4F85025C4F85435C4F85825C4F85C25A4F8602584F863B584F8625518464FF4C872002117F08CF9B034544500F5C87392
S3FD0800B98817D0BBF1020F08D0BBF1030FDBD17D4AC4F84825C4F84C25D8E77A4AC4F80025C4F80425D2E70022C4F8F064C4F8F424CCE74FF00B0A7448FCF77EF8724A734EA2F5866000F59763C0F86434C0F83064C0F8687480F850A4BF21044642F25876FDF768FD002342F25C7242F2607142F26470A351A35063501946654B42F2687C235018464FF0000344F6206224F80C3017F03EF904F27440FCF74EF804F27442A2F5177000F51453C4F8B034BF2184F894A4C4F8B454FDF73DFDFEF7F1FE4FF0FF3109980FF03AFF64230022514EC6E91023302383F311880FF0E0FE4E4900220023B16242F2107400210025C6E906233046F162C6E90845D2
S3FD0800BA80FDF71EF90FF0BEFE464A1368934256D1002383F3118808990A98FCF781FDFCF7A7FC364BDFF81CA11C46D3F8DC0110F0E7FAD4F8F40310F0E3FA00213A4B3B483B4A19603B4C344B01606FF0FF000D460593217011600FF0F5FE374B06933B462F469B46DDE9055600240137296856F8043F0134CDE901135A463B4651464046009411F0A9F8642C4D44EFD1059B5F4503F104030593069B03F5C8730693E1D1079B264AB0339342079307F1010709F104097FF404AF00200DB0BDE8F08FD2689B6892689A42A3D21D480EF005FC0022054911F081F84046044911F07DF80024D4E600BF7C620208E44E0208F84E0208144D02080C4D0208A1
S3FD0800BB78644D020820170020144F0208B08C0020417C000840420F00501B0020E0EB0020903E0020A8EB00206D8C0008C8F20020101700200C1700201C17002014170020AC8C0020303A0020E0620208CC4E02082DE9F04F032B89B0CDE9061298BF194605464FF000049DF84820039398BF884B059294BF5A5C0022864911F031F8864B0598864A8649A04208BF1A46284611F027F82846834911F023F827462346824A824EA2F1380A0495039A022A00F0E280032A00F0D980012A00F0D0807C484FF0010905464FF00B08C6F85835039B4FF4C872002186F86335C6F85075C6F85405C6F85C45A6F8607586F8629517F018F84FF480620021A5F5EF
S3FD0800BC70196017F011F8A5F53260FBF721FFA5F53262674BA2F58660C6F83034BF2100F59763C6F86434C6F8689486F85084FDF70DFC002CA5F5B26308BF00234FF480620021A5F5B260A5F5C875C6F8A835C6F8AC45C6F8B075C6F8B455A6F8B87516F0E3FF4FF4C8720021284616F0DDFFA5F64C10FBF7EDFEA5F64C12A2F5177000F55473BF21C6F8B034C6F8B49486F89484FDF7DCFBFEF790FD4FF0FF3106980FF0D9FD6423CAE91073302383F311880FF081FD4FF0000842F2107200234FF000093E49CAE90823CAE90A173D48CAE90689FCF7BEFF0FF05EFD3A4A1368934253D187F3118805990798FCF722FCFCF748FBD6F8DC0110F08CF976
S3FD0800BD68D6F8F40310F088F9314932480F600021314A324B07706FF0FF00894617601F60DFF8CC800FF09AFDDFF8C8B0049DD8F89421D8F8043009F10109CDE9003259464B462246284610F053FFB9F1640F08F10408ECD140F2044204349442204B04957FF42AAF002009B0BDE8F08F1D4AC6F8F474C6F8F02429E71B4AC6F84825C6F84C2523E7184AC6F80025C6F804251DE7D2689B6892689A42A6D214480EF0A8FA7C620208684E0208144D02080C4D0208644D0208444F0208E0EB002020170020702600206D8C0008A8EB0020C8F200200C170020141700201C17002010170020E01C0020417C000840420F00E0620208DC240020D04E0208E0
S3FD0800BE602DE9F04F1F468BB09DF85030032F0546CDE90712069300F216818C4BDA5D1346012400268A49284610F0E6FE894B0698894A8A49002808BF1A46284610F0DCFE8749284610F0D8FE864A874B02F586619B1A0391099300224FF0010C834B8449DFF83CE2DFF83C8212E0012F1BD00132A242C3E91861C3E91A66A3F8700083F872C083F873704FF0000103F1B0030DD0022F90B204D0032FE7D1C3E916EEE6E7C3E904EEE3E7C3E90086E0E74FF4C8726F48049116F0C0FE04996E4B19820131A142C3E90066C3E9026603F15803F5D14FF0000A2346DFF8D0810495444655469846DFF88091DFF890B1DDF824A005971EE00A2245458BF8C4
S3FD0800BF58202004D201210AEB4402CBE90D2101204FF00A0CCBE90F405A46BE2148468BF820C0FDF79FFA6B1C43451ED81D460BF1440B09F5067958345846FBF795FD002DDBD101250A204E4B4E4F0AEB440C1F605A468BF82000BE214846CBF83850CBF834C0FDF77FFA2B46E0E7DDE90457FEF72FFC4FF0FF3107980FF078FC6423424A4446C2E91063302383F311880FF01EFC42F21078002100204FF000093A4A3B4BC2E90601C2E90A361046C2E90889FCF75BFE0FF0FBFB364A136893423FD186F3118806990898FCF7BFFADFF8A080FCF7E3F9DDF80C90D8F8DC0108F5067810F023F8C845F7D12B492B480E6000212B4A2B4B06706FF0FF00A8
S3FD0800C050894616601E600FF035FCDFF8B080DFF8B0B058F8041F09F1010900914B4622465946284610F0F0FDB9F1640FF1D1039B013403F50673332C03937FF414AF00200BB0BDE8F08FD2689B6892689A42BAD216480EF059F900221346E9E67C6202086C4F0208144D02080C4D0208644D0208AC4F0208201700209843FFFFB08F002008C3002018B20020E8810020E0EB0020A8EB00206D8C0008C8F200200C170020141700201C17002010170020E062020840420F00417C000880B1002004C30020C84F02082DE9F043082304460F46164601258DB0013B4FEA4505FBD14FF0FF332A46944807A90FF023FD4FF0FF332A46914802A90FF01CFDB0
S3FD0800C148FB1E012B40F2C480BB1E012B40F2608138460122314606F0F5FF002800F00A814FF0000832688749204610F071FD8649204610F06DFD8549204610F069FD8449204610F065FD8349204610F061FD8249204610F05DFD8149204610F059FD8049204610F055FD7F49204610F051FD7E49204610F04DFD7D49204610F049FD7549204610F045FD7A49204610F041FD7949204610F03DFD7849204610F039FD7749204610F035FD7649204610F031FD7549204610F02DFD6749204610F029FD6649204610F025FD6549204610F021FD6449204610F01DFD6349204610F019FD6A49204610F015FD6949204610F011FD5949204610F00DFD58491C
S3FD0800C240204610F009FD5749204610F005FD5649204610F001FD5549204610F0FDFC5E49204610F0F9FC5D49204610F0F5FC4B49204610F0F1FC5A49204610F0EDFC5949204610F0E9FC5849204610F0E5FC5749204610F0E1FC5649204610F0DDFC5549204610F0D9FC5449204610F0D5FC2046524910F0D1FC07A932480FF031FC02A931480FF02DFC00216FF0FF000FF0FAFA40460DB0BDE8F083D6F8048048494046FAF798FB38B9D6F808904846FCF7B6F9002840F0E68140464249FAF78BFB002840F08581D6F808904846FCF7A7F9002840F0E88140463C49FAF77CFB002840F0948140463949FAF775FB002800F0AD8140463749FAF76EFBDC
S3FD0800C33800287FF409AFD6F8088034494046FAF765FB002840F0A681F068FCF735F92A46034629462046FFF70FF85FFA80F838460122314606F0EEFE00287FF4F9AEB8F1020F9CD14FF00208F4E600BFF8160020E4EB00202851020854510208605102086C510208AC510208C4510208FC510208345202086C520208A4520208B4520208DC520208145302084C53020884530208BC530208CC530208FC5302080C5402083C5402084C54020884540208B4540208E0540208EC54020808550208185502083455020850550208D84F0208E04F0208EC4F0208045002080C50020874550208BB497068FAF7FAFA804600287FF498AEB068FCF7C9F881465A
S3FD0800C4302D22B6492046FBF72BFC43462A4629462046CDF80090FFF70BFD2D22B0492046FBF71EFC01232A4629462046CDF80090FFF7FEFC2D22AB492046FBF711FC02232A4629462046CDF80090FFF7F1FC2D22A5492046FBF704FC03232A4629462046CDF80090FFF7E4FC2D22A0492046FBF7F7FB43462A4629462046CDF80090FFF78BFB2D229A492046FBF7EAFB01232A4629462046CDF80090FFF77EFB2D2295492046FBF7DDFB02232A4629462046CDF80090FFF771FB2D228F492046FBF7D0FB03232A4629462046CDF80090FFF764FB2D228A492046FBF7C3FB43462A4629462046CDF80090FFF7E1F92D2284492046FBF7B6FB01232A46BD
S3FD0800C52829462046CDF80090FFF7D4F92D227F492046FBF7A9FB02232A4629462046CDF80090FFF7C7F92D2279492046FBF79CFB03232A4629462046CDF80090FFF7BAF92D2274492046FBF78FFB43462A4629462046CDF80090FFF74FF82D226E492046FBF782FB01232A4629462046CDF80090FFF742F82D2269492046FBF775FB02232A4629462046CDF80090FFF735F82D2263492046FBF768FB03232A4629462046CDF80090FFF728F82D225E492046FBF75BFB4B462A4629462046FEF7CDFE2D2259492046FBF750FB2A4629464B462046FEF76AFD38460122314606F0A3FD00287FF4AEAD53E640465049FAF7FFF9C0B9D6F808904846FCF79C
S3FD0800C6201DF800283FF47DAE4846FBF7E3FF8046F068FBF7C5FF434600902A4629462046FFF74CF95FFA80F88DE640464249FAF7E1F900287FF465AED6F808904846FBF7FDFF00283FF45DAE4846FBF7C3FF8046F068FBF7A5FF434600902A4629462046FEF7CEFF5FFA80F86DE6D6F8088033494046FAF7BFF900283FF45AAE40463049FAF7B8F900287FF453ADF068FBF788FF2A46034629462046FEF70AFD5FFA80F851E64846FBF796FF8046F068FBF778FF434600902A4629462046FFF7C1FB5FFA80F840E64846FBF785FF8046F068FBF767FF434600902A4629462046FFF764FA5FFA80F82FE600BF1C50020824500208305002083C500208CF
S3FD0800C718485002085450020864500208745002088450020894500208A4500208B4500208C4500208D4500208E4500208F4500208045102081451020820510208EC4F0208F84F020874550208145002082DE9F04F0C46002705461E46A14689B08A4904930392059710F06CFA884B894ADFF864B2BE4208BF1A462846864910F061FAABF5C164284642F21072834910F059FA834E0795DFF844825D460694CB464CE087F31188D6E90C3213F57A7942F1000A302383F311880FF02AF8794B0022F36200237849C6E908237548B162C6F81890C6F81CA0FCF769FA0FF009F8D8F80030434540F09E8087F31188DDE90301DFF8EC91FBF7CAFE99F80030A7
S3FD0800C810122B02D1059B01330593FBF7E9FDD4F8DC010FF02DFCD4F8F4030FF029FC6449644B654A0F606FF0FF0000211F6089F8007017600FF03EF85B4B2835AB427DD000225E481146FBF76FFC02234FF0010A4FF0060984F8C0345948C4F8BC74C4F8C474C4F8C874A4F8CC74FBF721F9544A544BA2F58660C4F8303400F59763C4F85434BF21C4F858A484F85094FCF70EFE032042F210732822002184F80606C4F8F8552846C4F8FC75C4F80076A4F80476C4F8F035C4F8E875C4F8EC7516F0E4F94148FBF7F5F8404ABE21A2F5177000F55273C4F8A034C4F8A4A484F89494FCF7E5FDFDF799FF4FF0FF3158460EF0E2FF0A23C6E91073302323
S3FD0800C90883F311880EF08AFF3248FCF76FF90EF075FFD8F8003043453FF449AFD8F80C209B6892689A42BFF442AF2B480DF010FDD8F80C209B6892689A42BFF45BAF26480DF006FD0027079D2449284610F080F9DFF89C80DDF818904E4600240137D6F808160134009123463A464146284610F06FF9642C06F12806F1D10A2F09F10409EAD123462846059A154910F061F9002009B0BDE8F08F00BF80550208144D02080C4D0208644D0208A8550208A8EB0020C82C0020618E00080C170020101700201C170020F01B0020501B0020E0EB0020941B0020D8EB0020E0620208C0550208044E0208281D0020C8F2002014170020CC5C02082DE9F04F9B
S3FD0800CA0000261F4605460C4687B08D4903930496029210F021F98B4B8B4A8C49B74208BF1A4628468A4F10F017F9284642F210728849A24610F010F93446DFF85882864EA7F5C16B059548E084F31188D6E90C5215F57A7542F10009302282F311880EF0E1FE002200237D49B5617D4DC6E908237948F162C6F81C90B562FCF721F90EF0C1FED8F80020424540F09B8084F31188DDE90201734DFBF783FD2A78112A02D1049B01330493FBF7A3FCDBF8DC010FF0E7FADBF8F4030FF0E3FA6B496B486C4A0C60046000216FF0FF002C7014600EF0F9FE624B2C379F427DD0002265481146FBF72AFB02224FF0010906255B4B8BF8C024CBF8BC3460485A
S3FD0800CAF8CBF8C444CBF8C844ABF8CC44FAF7DCFF5B4A5C4BA2F58660CBF8303400F59763CBF85434BF21CBF858948BF85054FCF7C9FC032042F210732C2200218BF80606CBF8F8753846CBF8FC45CBF80046ABF80446CBF8EC35CBF8E845CBF8F04516F09FF84948FAF7B0FF474ABE21A2F5177000F55273CBF8A034CBF8A4948BF89454FCF7A0FCFDF754FE4FF0FF3150460EF09DFE0B22C6E91042302282F311880EF045FE3A48FCF72AF80EF030FED8F8002042453FF44DAFD8F80C10926889689142BFF446AF32480DF0CBFBD8F80C10926889689142BFF45EAF2D480DF0C1FB059D2C49284610F03CF84FF4C1680027DFF8B0A00BF5C169002495
S3FD0800CBF00137A9EB08060EE056F80810591ACDE900313A4623465146284610F025F8642C06F12C0606D0D6F808360134002BEBD11946ECE70B2FA8F10408E0D123462846049A174910F010F8002007B0BDE8F08F80550208144D02080C4D0208644D0208281D0020A84D0208A8EB0020582E0020618E0008141700200C1700201C17002010170020F01B0020501B0020E0EB0020941B0020D8EB0020E0620208D8550208044E0208C8F20020F85502082DE9F04F0026984605460C4689B088490493059603920FF0D1FF864B864A874FB04508BF1A46864928460FF0C7FFA7F5C16B284642F2107282490FF0BFFFA246DFF840823446CDF818B07F4EC0
S3FD0800CCE8079548E084F31188D6E90C3213F57A7542F10009302383F311880EF08FFD002300227749B561774DC6E908237348B162C6F81C90F562FBF7CFFF0EF06FFDD8F80030434540F09B8084F31188DDE903016D4DFBF731FC2B78102B02D1059B01330593FBF751FBDBF8DC010FF095F9DBF8F4030FF091F96549654B664A0C606FF0FF0000211C602C7014600EF0A7FD5D4B2837BB427DD000225F481146FBF7D8F902234FF001090625564A8BF8C034CBF8BC245A48CBF8C444CBF8C844ABF8CC44FAF78AFE554A564BA2F58660CBF8303400F59763CBF85434BF21CBF858948BF85054FCF777FB032042F21073282200218BF80606CBF8F87520
S3FD0800CDE03846CBF8FC45CBF80046ABF80446CBF8E835CBF8EC45CBF8F04515F04DFF4348FAF75EFE414ABE21A2F5177000F55273CBF8A034CBF8A4948BF89454FCF74EFBFDF702FD4FF0FF3150460EF04BFD0A23C6E91043302383F311880EF0F3FC3448FBF7D8FE0EF0DEFCD8F8003043453FF44DAFD8F80C209B6892689A42BFF446AF2C480DF079FAD8F80C209B6892689A42BFF45EAF27480DF06FFA0027079D264928460FF0E9FEDFF89C80DDF818904E4600240137D6F808160134009123463A46414628460FF0D8FE642C06F12806F1D10A2F09F10409EAD123462846059A17490FF0CAFE002009B0BDE8F08F80550208144D02080C4D0208FF
S3FD0800CED8281D0020644D0208184E0208A8EB0020618E0008C82C0020141700200C170020101700201C170020F01B0020501B0020E0EB0020941B0020D8EB0020E0620208C0550208044E0208C8F20020CC5C02082DE9F04F994687B09DF84030B9F1030F0746CDE90312029300F215818F4B904913F8094022460FF083FE38468D490FF07FFE22468A4938460FF07AFE8A4B02988A4A8B49002808BF1A4638460FF070FE384688490FF06CFE01264FF000080024854D2846A1B200220134FBF7D1F8B44205F19005F5D100220221804BA3F8CC247F480132B242C3F8BC0483F8C014C3F8C484C3F8C88403F11803EFD17948FAF77BFD784A784CA2F56E
S3FD0800CFD08660C0F8304400F59764C0F854444FF00504DFF804A280F85044C0F85864BF21FCF764FA53460025B2466E4C1E46DFF8ECB116E0B9F1010F23D04FF4C872C4E91B683046C4F87480A4F8783084F87A9000210135164415F037FE554504F1A80412D0B9F1020FABB207D0B9F1030FE1D15D4AC4E917226266DFE75B4AC4E90222DBE7C4E900B8D8E75848FAF731FD574A574CA2F51770C0E9A2454FF00504BE2180F87C42FCF722FAFDF7D6FB4FF0FF3103980EF01FFC64234E4C5646C4E91083302383F311880EF0C5FB42F21072002300210020484DC4E90823C4E90601C4E90A582046FBF704FE0EF0A4FB434A136893424CD188F31188BE
S3FD0800D0C802990498FBF768FAFBF78EF9334B4FF0000A1C46D3F8DC010EF0CEFFD4F8F4030EF0CAFF38493948394A3A4B3A4CC1F8008080F8008000216FF0FF00C2F80080C3F800800EF0DAFBCDF81490B1462646DFF8D4B0354600240AF1010A55F8041F0134CDE9004153464A46594638460FF08FFD642CF2D1CA4506F5C876EAD1BAF1320FDDF814900AF101067FF418AF002007B0BDE8F08FD2689B6892689A42ADD21E480DF0F5F8002205490FF071FD384604490FF06DFD0024EBE600BF7C6202080C56020834560208144D02080C4D0208644D0208585602088820002020170020D8EB0020501B0020E0EB0020D43C002040420F00941B0020AD
S3FD0800D1C0A83C0020A8EB00206D8C0008C8F200200C170020141700201C17002010170020745D0020E0620208785D0020417C0008785602082DE9F04F994689B09DF84830B9F1030F0746CDE90512049300F210818C4B8D4913F8094022460FF01DFD38468A490FF019FD4FF0000801262246864938460FF011FD864B0498864A8649404508BF1A4638460FF007FD384683490FF003FD834BA8330393002282481146FAF76BFF02238048814DA0F5866280F89030C0E92588C0F88C80A0F89C801446FAF71FFC0523012002F58662C4F8305402F18805C4F85454C4F8580484F85034BF212046FCF70BF9724D724BDDF80CA017E0B9F1010F28D0C4F858
S3FD0800D2B8F835C4F8FC85C4F80086A4F8048684F8069618464FF4C872002115F0E1FCA834544500F5C87318D0B9F1020F0AD0B9F1030FE1D1624AC4F8E825C4F8EC25C4F8F025DCE75E4AC4F89425C4F89825D6E7C4F88C55C4F89085D1E75A48FAF7D4FB0523584ABE21A2F5177000F5527580F87C32C0E9A256FCF7C5F8FDF779FA4FF0FF3105980EF0C2FA642300224E4CC4E91023302383F311884C4D0EF067FA42F21072002300210020A5620025C4E90823C4E90601E5622046FBF7A6FC0EF046FA434A136893424FD188F3118804990698FBF70AF9FBF730F8334B4FF0000B1C46D3F8DC010EF070FED4F8F4030EF06CFE38493948394A3A4BA4
S3FD0800D3B03A4CC1F8008080F8008000216FF0FF00C2F80080C3F800800EF07CFACDF81C90B1462646DFF8D0A0354600240BF1010B55F8041F0134CDE900415B464A46514638460FF031FC642CF2D1CB4506F5C876EAD1039B264AA8339342DDF81C9003930BF101067FF420AF002009B0BDE8F08FD2689B6892689A42AAD21E480CF094FF002205490FF010FC384604490FF00CFC0024F0E67C6202088C560208B8560208144D02080C4D0208644D0208DC56020820170020F01B0020501B0020E0EB0020417C0008503D002040420F00941B0020A8EB00206D8C0008C8F200200C170020141700201C170020101700204C3D002098380020E062020839
S3FD0800D4A8085702082DE9F04F0C461D468BB0CDE908429DF85040A1490746069307940FF0C7FB032D94BF2A4600244FF004084FF0010698BF9A4B9B4998BF9C5C384622460FF0B6FB954938460FF0B2FB964B0798964A9749002808BF1A46DFF8A89238460FF0A6FB384693490FF0A2FB09F11803049309F59763059300228F481146FAF707FE012E00F0FB804FF0000A8B4DDDF814B005F52D6400220023C5F818A0C5E902232946C5E900AAC5E904AA20462035FAF764FD5D45EED14B460221002204987F4C83F8E01AC3F8DC4AC3F8E42AC3F8E82AA3F8EC2A18338342F1D17948FAF79BFA0523774A784CA2F58660C9F83044BF2100F6D82489F8F2
S3FD0800D5A05034C9F85444C9F85864FBF787FF069B022B00F0A580032B00F0A780012B00F0988000246B48069D214644F6206240E9034400F8025C20F8044C40F8100C15F05BFB6548FAF76CFA01200523624ABE2102F6A435C9F8A404A2F5177089F89434C9F8A054FBF75AFFFDF70EF94FF0FF3108980EF057F96423584DC5E91043302383F311880EF0FEF84FF0000A42F2107200234FF0000B5249C5E908232846C5E90A14C5E906ABFBF73BFB0EF0DBF84D4A136893425FD1002484F31188A34607990998FAF79DFFFAF7C3FED9F8DC010EF007FDD9F8F4030EF003FD434B43491C60434A444B0C706FF0FF0021461C6014600EF018F9374BDFF8A2
S3FD0800D69818A103930024039D0BF1010B29680134CDE900415B463246514638460FF0D0FA642C4544F2D1039BB34503F104030393E8D1049BBBF1320F03F118030493059B08F1040803F1200305930BF101067FF41BAF00200BB0BDE8F08F0021284AC4F87015C4F86C2560E7264B274AC3E900225BE7264B244AC3E900229A6055E7D2689B6892689A429AD221480CF019FE002302220F4989F8E02AC9F8DC1AC9F8E43AC9F8E83AA9F8EC3A20E700BF1C5702087C6202082C570208144D02080C4D0208644D020858570208A8260020D81B0020D8EB0020501B0020E0EB0020E0270020941B0020A8EB00206D8C0008C8F200200C1700201417002034
S3FD0800D7901C17002010170020417C00086C27002040420F00C0270020E062020820170020805702082DE9F04F032B87B0CDE9041298BF194605469DF84020029398BF834B039294BF5A5C002281490FF03DFA814B0398814A8149002808BF1A4628460FF033FA7F4928460FF02FFA0022DFF838A211460AF5C360FAF797FC01244FF00008AAF59B690223774889F8E03AC9F8DC8AC9F8E48AC9F8E88AA9F8EC8AFAF748F9052301206F4A704EC9F85804C9F8306402F5D56689F85034BF21C9F85464A2F58660FBF733FE029B022B00F0AD80032B00F0A280012B00F09980029B634889F8263C4FF4C8720021C9F8180CC9F81C8CC9F8208CA9F8248C69
