S02B00002F686F6D652F7069742F4153452F414D69526F2D417070732F636F6E66696775726174696F6E732F87
S3FD0800600000040020396200083B6200083B6200083B6200083B6200083B6200083B6200083B6200083B6200083B620008DD6A01083B6200083B6200083B6200083B6200083B6200083B6200083B620008616B01083B6200083B620008457001080D700108D56F01089D6F0108656F0108F56D0108D56D0108B56D0108956D0108756D0108556D0108356D01083B62000825820108B581010845810108156E0108F16E01083B6200083B6200083B6200083B620008F16A01083B6200083B620008258101083D7F010805810108097F01083B6200083B620008D17A01083B6200083B620008716E01083B6200083B6200083B6200083B6200083B6200080E
S36D080060F83B6200083B6200083B6200083B620008C57C01083B6200083B6200083B6200083B6200083B620008156D0108F56C0108D56C0108456E01083B6200083B6200083B6200083B6200083B6200083B6200083B6200083B6200083B6200083B6200083B6200083B62000864
S3FD0800616072B6264880F30888254880F30988254825490860022080F31488BFF36F8F11F009F809F09BFF4FF0553020491B4A91423CBF41F8040BFAE71D49194A91423CBF41F8040BFAE71B491B4A1C4B9A423EBF51F8040B42F8040BF8E700201849194A91423CBF41F8040BFAE710F0ABFF10F0DFFF154C154DAC4203DA54F8041B8847F9E706F0EDF9124C124DAC4203DA54F8041B8847F9E710F0C9BF000000040020000800200060000808ED00E0000000200004002010CD0208000800207C13002080130020346100206061000860610008606100086061000892E700F000F8FEE72DE9F04FC1F80CD0C3689D46BDE8F08F12F060F810F0E0FFE1
S3FD08006258002383F311882846A047002012F07EFCFEE710F0E7FF12F0B3F811F003F812F04DF810F0CDFF00DFFEE7000080F0004002E000BF81F0004142001FBF5FEA410392EA030F7FEA226C7FEA236C6AD04FEA1262D2EB1363C1BFD218414048404140B8BF5B42192B88BF704710F0004F40F4000020F07F4018BF404211F0004F41F4000121F07F4118BF494292EA030F3FD0A2F1010241FA03FC10EB0C00C3F1200301FA03F100F0004302D5494260EB4000B0F5000F13D3B0F1807F06D340084FEA310102F10102FE2A51D2B1F1004F40EBC25008BF20F0010040EA03007047490040EB0000013A28BFB0F5000FEDD2B0FA80FCACF1080CB2EB15
S3FD080063500C0200FA0CF0AABF00EBC25052421843BCBFD0401843704792F0000F81F4000106BF80F400000132013BB5E74FEA41037FEA226C18BF7FEA236C21D092EA030F04D092F0000F08BF0846704790EA010F1CBF0020704712F07F4F04D1400028BF40F00040704712F100723CBF00F50000704700F0004343F0FE4040F4000070477FEA226216BF08467FEA23630146420206BF5FEA412390EA010F40F4800070474FF0000304E000BF10F0004348BF40425FEA000C08BF704743F0964301464FF000001CE050EA010208BF70474FF000030AE000BF50EA010208BF704711F0004302D5404261EB41015FEA010C02BF84460146002043F0B64336
S3FD0800644808BFA3F18053A3F50003BCFA8CF2083AA3EBC25310DB01FA02FC634400FA02FCC2F12002BCF1004F20FA02F243EB020008BF20F00100704702F1200201FA02FCC2F1200250EA4C0021FA02F243EB020008BF20EADC7070474FF0FF0C1CEAD0521EBF1CEAD15392EA0C0F93EA0C0F6FD01A4480EA010C400218BF5FEA41211ED04FF0006343EA501043EA5111A0FB01310CF00040B1F5000F3EBF490041EAD3715B0040EA010062F17F02FD2A1DD8B3F1004F40EBC25008BF20F00100704790F0000F0CF0004C08BF49024CEA502040EA51207F3AC2BFD2F1FF0340EAC250704740F400004FF00003013A5DDC12F1190FDCBF00F00040704748
S3FD08006540C2F10002410021FA02F1C2F1200200FA02FC5FEA310040F1000053EA4C0308BF20EADC70704792F0000F00F0004C02BF400010F4000F013AF9D040EA0C0093F0000F01F0004C02BF490011F4000F013BF9D041EA0C018FE70CEAD15392EA0C0F18BF93EA0C0F0AD030F0004C18BF31F0004CD8D180EA010000F00040704790F0000F17BF90F0004F084691F0000F91F0004F14D092EA0C0F01D142020FD193EA0C0F03D14B0218BF084608D180EA010000F0004040F0FE4040F40000704740F0FE4040F4400070474FF0FF0C1CEAD0521EBF1CEAD15392EA0C0F93EA0C0F69D0A2EB030280EA010C49024FEA402037D04FF0805343EA11114C
S3FD0800663843EA10130CF000408B4238BF5B0042F17D024FF4000C8B4224BF5B1A40EA0C00B3EB510F24BFA3EB510340EA5C00B3EB910F24BFA3EB910340EA9C00B3EBD10F24BFA3EBD10340EADC001B0118BF5FEA1C1CE0D1FD2A3FF650AF8B4240EBC25008BF20F0010070470CF0004C4CEA50207F32C2BFD2F1FF0340EAC250704740F400004FF00003013A37E792F0000F00F0004C02BF400010F4000F013AF9D040EA0C0093F0000F01F0004C02BF490011F4000F013BF9D041EA0C0195E70CEAD15392EA0C0F08D142027FF47DAF93EA0C0F7FF470AF084676E793EA0C0F04D14B023FF44CAF08466EE730F0004C18BF31F0004CCAD130F000423F
S3FD080067307FF45CAF31F000437FF43CAF5FE700BF4FF0FF3C06E000BF4FF0010C02E000BF4FF0010C4DF804CD4FEA40024FEA41037FEA226C18BF7FEA236C11D001B052EA530C18BF90EA010F58BFB2EB030088BFC81738BF6FEAE17018BF40F0010070477FEA226C02D15FEA402C05D17FEA236CE4D15FEA412CE1D05DF8040B704700BF844608466146FFE70FB5FFF7C9FF002848BF10F1000F0FBD4DF808EDFFF7F4FF0CBF012000205DF808FB00BF4DF808EDFFF7EAFF34BF012000205DF808FB00BF4DF808EDFFF7E0FF94BF012000205DF808FB00BF4DF808EDFFF7D2FF94BF012000205DF808FB00BF4DF808EDFFF7C8FF34BF012000205DF822
S3FD0800682808FB00BF4FEA40024FEA41037FEA226C02D15FEA402C08D17FEA236C02D15FEA412C02D14FF0000070474FF0010070474FEA4002B2F1FE4F0FD34FF09E03B3EB12620DD94FEA002343F0004310F0004F23FA02F018BF404270474FF00000704712F1610F01D1420205D110F0004008BF6FF0004070474FF0000070474FEA410212F5001215D211D56FF47873B3EB625212D94FEAC12343F0004343EA505311F0004F23FA02F018BF404270474FF00000704750EA013005D111F0004008BF6FF0004070474FF00000704700BF42000ED2B2F1FE4F0BD34FF09E03B3EB126209D44FEA002343F0004323FA02F070474FF00000704712F1610F41
S3FD0800692001D1420202D14FF0FF3070474FF00000704700BFD0B500F0D5FA00220B4B06460F4600F027FB00F0D5FD044600F0A8FA0022074B00F01EFB02460B463046394600F060F900F0C6FD2146D0BD0000F03D0000F041844641EA000313F0030349D1403A23D30B6803604B6843608B688360CB68C3600B6903614B6943618B698361CB69C3610B6A03624B6A43628B6A8362CB6AC3620B6B03634B6B43638B6B8363CB6BC36340304031403ADBD230320BD30B6803604B6843608B688360CB68C36010301031103AF3D20C3205D351F8043B40F8043B043AF9D2043208D0D2071CBF11F8013B00F8013B01D30B8803806046704700BF082A13D386
S3FD08006A188B07B1D010F00303AED0C3F10403D21ADB071CBF11F8013B00F8013BA4D331F8023B20F8023B9FE7043AD9D3013A11F8013B00F8013BF9D20B7803704B7843708B7883706046704780EA010C1CF0030F37D110F0030C20F0030021F0030150F8042B08BF51F8043B0ED08CF0030C6FF07F434FEACC0C23FA0CFC51F8043B42EA0C0243EA0C0300BFA2F1013C9A4201BF2CEA020C1CF0803F50F8042B51F8043BF2D04FEA02604FEA1222012828BFB0EB036F08BF1B0AF4D003F0FF03000EC01A704710F0030F0AD010F8012B11F8013B012A28BF9A42F4D0A2EB030070474DF8045D50F8042B01F0030521F0030151F8043B022D26D04DD82D
S3FD08006B1022F07F45B5EB132FA2F1013C2CEA020C0DD11CF0803C08BF51F8043B0AD185EA0205B5EB036F0CD150F8042BE8E74FEA13235BE03CF07F4C54D10B784FEA126554E04FEA126503F0FF034FE04FEA0245A2F1013C4FEA15452CEA020CB5EB134F18D11CF0803C08BF51F8043B07D185EA0205B5EB034F09D150F8042BE6E75FEA0C4C2FD10B884FEA12452FE04FEA03434FEA12454FEA134328E000BF02F0FF05B5EB136FA2F1013C2CEA020C0DD11CF0803C08BF51F8043B0AD185EA0205B5EB032F0AD150F8042BE8E74FEA13630DE012F0FF0F06D051F8043B4FEA122523F07F4303E04FF0000020BC704705F0FF0203F0FF00012828BF77
S3FD08006C08904204BF2D0A1B0AF4D0A2EB000020BC704700BF81F0004102E000BF83F0004330B54FEA41044FEA430594EA050F08BF90EA020F1FBF54EA000C55EA020C7FEA645C7FEA655C00F0E2804FEA5454D4EB5555B8BF6D420CDD2C4480EA020281EA030382EA000083EA010180EA020281EA0303362D88BF30BD11F0004F4FEA01314FF4801C4CEA113102D0404261EB410113F0004F4FEA03334CEA133302D0524263EB430394EA050F00F0A780A4F10104D5F1200E0DDB02FA0EFC22FA05F2801841F1000103FA0EF2801843FA05F359410EE0A5F120050EF1200E012A03FA0EFC28BF4CF0020C43FA05F3C01851EBE37101F0004507D54FF055
S3FD08006D00000EDCF1000C7EEB00006EEB0101B1F5801F1BD3B1F5001F0CD349085FEA30004FEA3C0C04F101044FEA445212F5800F80F09A80BCF1004F08BF5FEA500C50F1000041EB045141EA050130BD5FEA4C0C404141EB0101013C28BFB1F5801FE9D291F0000F04BF01460020B1FA81F308BF2033A3F10B03B3F120020CDA0C3208DD02F1140CC2F10C0201FA0CF021FA02F10CE002F11402D8BFC2F1200C01FA02F120FA0CFCDCBF41EA0C019040E41AA2BF01EB0451294330BD6FEA04041F3C1CDA0C340EDC04F11404C4F1200220FA04F001FA02F340EA030021FA04F345EA030130BDC4F10C04C4F1200220FA02F001FA04F340EA0300294674
S3FD08006DF830BD21FA04F0294630BD94F0000F83F4801306BF81F480110134013D4EE77FEA645C18BF7FEA655C29D094EA050F08BF90EA020F05D054EA000C04BF1946104630BD91EA030F1EBF0021002030BD5FEA545C05D14000494128BF41F0004130BD14F580043CBF01F5801130BD01F0004545F0FE4141F470014FF0000030BD7FEA645C1ABF194610467FEA655C1CBF0B46024650EA013406BF52EA033591EA030F41F4002130BD00BF90F0000F04BF0021704730B54FF4806404F132044FF000054FF0000150E700BF90F0000F04BF0021704730B54FF4806404F1320410F0004548BF40424FF000013EE700BF42004FEAE2014FEA31014FEAF7
S3FD08006EF002701FBF12F07F4393F07F4F81F06051704732F07F4208BF704793F07F4F04BF41F40021704730B54FF4607401F0004521F000411CE700BF50EA010208BF704730B54FF000050AE050EA010208BF704730B511F0004502D5404261EB41014FF4806404F132045FEA915C3FF4D8AE4FF003025FEADC0C18BF03325FEADC0C18BF033202EBDC02C2F1200300FA03FC20FA02F001FA03FE40EA0E0021FA02F11444BDE600BF70B54FF0FF0C4CF4E06C1CEA11541DBF1CEA135594EA0C0F95EA0C0F00F0DEF82C4481EA030621EA4C5123EA4C5350EA013518BF52EA033541F4801143F4801338D0A0FB02CE4FF00005E1FB02E506F00042E0FBA1
S3FD08006FE803E54FF00006E1FB03569CF0000F18BF4EF0010EA4F1FF04B6F5007F64F5407404D25FEA4E0E6D4146EB060642EAC62141EA55514FEAC52040EA5E504FEACE2EB4F1FD0C88BFBCF5E06F1ED8BEF1004F08BF5FEA500E50F1000041EB045170BD06F0004646EA010140EA020081EA0301B4EB5C04C2BFD4EB0C0541EA045170BD41F480114FF0000E013C00F3AB8014F1360FDEBF002001F0004170BDC4F10004203C35DA0C341BDC04F11404C4F1200500FA05F320FA04F001FA05F240EA020001F0004221F0004110EBD37021FA04F642EB06015EEA430E08BF20EAD37070BDC4F10C04C4F1200500FA04F320FA05F001FA04F240EA02001C
S3FD080070E001F0004110EBD37041F100015EEA430E08BF20EAD37070BDC4F1200500FA05F24EEA020E20FA04F301FA05F243EA020321FA04F001F0004121FA04F220EA020000EBD3705EEA430E08BF20EAD37070BD94F0000F0FD101F00046400041EB010111F4801F08BF013CF7D041EA060195F0000F18BF704703F00046520043EB030313F4801F08BF013DF7D043EA0603704794EA0C0F0CEA135518BF95EA0C0F0CD050EA410618BF52EA4306D1D181EA030101F000414FF0000070BD50EA410606BF1046194652EA430619D094EA0C0F02D150EA013613D195EA0C0F05D152EA03361CBF104619460AD181EA030101F0004141F0FE4141F4700185
S3FD080071D84FF0000070BD41F0FE4141F4780170BD70B54FF0FF0C4CF4E06C1CEA11541DBF1CEA135594EA0C0F95EA0C0F00F0A7F8A4EB050481EA030E52EA03354FEA013100F088804FEA03334FF0805545EA131343EA12634FEA022245EA111545EA10654FEA00260EF000419D4208BF964244F1FD0404F5407402D25B084FEA3202B61A65EB03055B084FEA32024FF480104FF4002CB6EB020E75EB030E22BFB61A754640EA0C005B084FEA3202B6EB020E75EB030E22BFB61A754640EA5C005B084FEA3202B6EB020E75EB030E22BFB61A754640EA9C005B084FEA3202B6EB020E75EB030E22BFB61A754640EADC0055EA060E18D04FEA051545EA03
S3FD080072D016754FEA06164FEAC30343EA52734FEAC2025FEA1C1CC0D111F4801F0BD141EA00014FF000004FF0004CB6E711F4801F04BF01430020B4F1FD0C88BFBCF5E06F3FF6AFAEB5EB030C04BFB6EB020C5FEA500C50F1000041EB045170BD0EF0004E4EEA113114EB5C04C2BFD4EB0C0541EA045170BD41F480114FF0000E013C90E645EA060E8DE60CEA135594EA0C0F08BF95EA0C0F3FF43BAF94EA0C0F0AD150EA01347FF434AF95EA0C0F7FF425AF104619462CE795EA0C0F06D152EA03353FF4FDAE1046194622E750EA410618BF52EA43067FF4C5AE50EA41047FF40DAF52EA43057FF4EBAE12E74FF0FF3C06E000BF4FF0010C02E000BF41
S3FD080073C84FF0010C4DF804CD4FEA410C7FEA6C5C4FEA430C18BF7FEA6C5C1BD001B050EA410C0CBF52EA430C91EA030F02BF90EA020F0020704710F1000F91EA030F58BF994208BF90422CBFD8176FEAE37040F0010070474FEA410C7FEA6C5C02D150EA013C07D14FEA430C7FEA6C5CD6D152EA033CD3D05DF8040B704700BF8446104662468C461946634600E000BF01B5FFF7B7FF002848BF10F1000F01BD4DF808EDFFF7F4FF0CBF012000205DF808FB00BF4DF808EDFFF7EAFF34BF012000205DF808FB00BF4DF808EDFFF7E0FF94BF012000205DF808FB00BF4DF808EDFFF7CEFF94BF012000205DF808FB00BF4DF808EDFFF7C4FF34BF012073
S3FD080074C000205DF808FB00BF4FEA410C7FEA6C5C02D150EA013C0AD14FEA430C7FEA6C5C02D152EA033C02D14FF0000070474FF0010070474A0011D212F5001211D20DD56FF47873B3EB62520ED44FEAC12343F0004343EA505323FA02F070474FF00000704750EA013002D14FF0FF3070474FF0000070474FEA4102B2F1E04324BFB3F5001CDCF1FE5C0DD901F0004C4FEAC0024CEA5070B2F1004F40EB830008BF20F00100704711F0804F21D113F13872BCBF01F00040704741F480114FEA5252C2F11802C2F1200C10FA0CF320FA02F018BF40F001004FEAC1234FEAD32303FA0CFC40EA0C0023FA02F34FEA4303CCE77FEA625307D150EA013326
S3FD080075B81EBF4FF0FE4040F44000704701F0004040F0FE4040F40000704700BF7BB972B90029BEBF00204FF0004106E008BF00281CBF6FF000414FF0FF3000F0F1B9ADF1080C6DE904CE002909DB002B1ADB00F085F8DDF804E0DDE9022304B07047404261EB4101002B1BDB00F078F8DDF804E0DDE9022304B0404261EB4101524263EB43037047524263EB430300F067F8DDF804E0DDE9022304B0404261EB41017047524263EB430300F059F8DDF804E0DDE9022304B0524263EB4303704753B94AB9002908BF00281CBF4FF0FF314FF0FF3000F0A6B9ADF1080C6DE904CE00F03EF8DDF804E0DDE9022304B0704738B50C460546214628460022B3
S3FD080076B00023FFF7E1FE28B928462146BDE8384000F00AB8284604F1004100F005F8404261EB410138BD00BFD0B500220B4B06460F46FFF757FCFFF705FF0446FFF7D8FB0022074BFFF74EFC02460B4630463946FFF790FAFFF7F6FE2146D0BD0000F03D0000F0412DE9F047089E0D4604468E46002B40F083808A42174647D9B2FA82F34BB1C3F1200105FA03FE20FA01F19F4041EA0E0E9C404FEA1748BEFBF8FC1FFA87F908FB1CE20CFB09F0210C41EA024290420AD9BA180CF1FF3180F01881904240F21581ACF1020C3A44121AB2FBF8F008FB102200FB09F1A4B244EA0244A14209D93C1900F1FF3280F00381A14240F2008102383C44641A57
S3FD080077A8002140EA0C401EB10022DC40C6E90042BDE8F08702B9FFDEB2FA82F3002B4FD18D1A01214FEA124E1FFA82F8B5FBFEFC0EFB1C5508FB0CF0220C42EA0545A84207D97D190CF1FF3202D2A84200F2E98094462D1AB5FBFEF00EFB105508FB00F8A4B244EA0544A04507D93C1900F1FF3202D2A04500F2D9801046A4EB080440EA0C40C0E78B4208D9002E00F0B1800021C6E900050846BDE8F087B3FA83F100294BD1AB4202D3824200F2B980841A65EB030301209E46002EAAD0C6E9004EA7E79F40C3F12002D1404FEA174EB1FBFEF01FFA87F80EFB101124FA02F29D4000FB08FC2A43150C45EA0145AC4504FA03F409D97D1900F1FF31D1
S3FD080078A080F08F80AC4540F28C8002383D44A5EB0C05B5FBFEF10EFB115C01FB08F995B245EA0C45A94507D97D1901F1FF3274D2A94572D902393D44A5EB090541EA004178E7C1F120078B4022FA07FC4CEA030C25FA07F44FEA1C4EB4FBFEF91FFA8CF80EFB194420FA07F309FB08FA8D401D432B0C43EA0444A24502FA01F200FA01F309D91CEB040409F1FF3048D2A24546D9A9F102096444A4EB0A04B4FBFEF00EFB104400FB08FAADB245EA0444A24508D91CEB040400F1FF352DD2A2452BD90238644440EA0940A0FB0289A4EB0A044C45C6464D4619D316D05EB1B3EB0E0264EB050404FA07F722FA01F31F43CC40C6E900740021BDE8F087CF
S3FD08007998314630460CE78C46EBE61046FFE64345E6D2B8EB020E69EB0C050138E0E72846D3E711468CE78146B9E7084673E7084649E7ACF1020C3D4413E702383C4424E7704700BF704700BF836933B1002219461A70DB68CA60002BF9D1002383610370704700BF70B51A4E04460FF0B1FC3368F068B34224D183680021A2686163934219D20FF015FC01230146054684F824302046F4600FF0BAFBEFF309832A6A243B9A4205D829462046BDE87040FEF7FCBB084816F0BFF92046BDE870400FF038BC9A6883689342D7D2034816F0B3F900BF205D0020708202089C9C02080239012970B5044615461FD92A681B49204616F0D3FD1A49204616F07C
S3FD08007A90CFFD1949204616F0CBFD1849204616F0C7FD1749204616F0C3FD1649204616F0BFFD2046144916F0BBFD0226304670BD506818F0ADFF064650B10128D8D10F4B20460F4983F8486316F0AAFD0026EDE70A4B20460B4983F8486316F0A1FDE5E7E0820208F48202080083020838830208408302086883020870830208A8460020B0820208808202082DE9F04F0F4600258849FB1E87B0022B04469046CDE9045503912DD8BB1E2E46DFF874A2019302F104090AE058460021FEF748FE0136F6B2F0B9019B35469E4254DA59F8040F18F05BFFFFF7E7FC834606AB20F0004203EB85051046514645F80CBC0092FEF756FE30B9009A51461046D2
S3FD08007B88FEF746FE0028D9D0D8F800206C49204616F04AFD6B49204616F046FD6A49204616F042FD6949204616F03EFD6849204616F03AFD6749204616F036FD6649204616F032FD6549204616F02EFD6449204616F02AFD6349204616F026FD6249204616F022FD6149204616F01EFD2046604916F01AFD022007B0BDE8F08FD8F804505C492846FEF728FF30B95B4B039AC3F8B42407B0BDE8F08F28465849FEF71CFF48B128465649FEF717FF58B9524B039AC3F8BC24DFE7504B039AC3F8B82407B0BDE8F08F28464F49FEF706FF48B128464D49FEF701FF48B9474B039AC3F8CC24C9E7454B039AC3F8C824C4E728464749FEF7F2FE20B9404B88
S3FD08007C80039AC3F8D024BAE728464349FEF7E8FE20B93B4B039AC3F8A024B0E728463F49FEF7DEFE20B9364B039AC3F8A424A6E728463B49FEF7D4FE20B9314B039AC3F8A8249CE728463749FEF7CAFE70B92C4B039A032FC3F8B4241CD0049A052FC3F8B82417D1059AC3F8BC2488E728462E49FEF7B6FE80B9224B039A032FC3F8C82408D0049A052FC3F8CC2403D1059AC3F8D02474E7002072E728462449FEF7A0FE00287FF435AF164B039A032FC3F8A024F0D0049A052FC3F8A424EBD1059AC3F8A8245CE70000C07FC0830208D8830208E08302081084020824840208508402086484020894840208A8840208D0840208E084020834850208E4
S3FD08007D7890850208E88502083016002094830208988302089C830208A0830208A4830208A8830208AC830208B0830208B4830208B8830208BC830208FFFF7F7F01F59563834200D07047D1F80C03022108F00AB90B461021D3F80C0308F004B938B501F5707398420C46054608D004F558739D420DD004F583639D4212D038BD0221D4F80C0308F0EFF804F558739D42F1D10821D4F80C0308F0E6F804F583639D42ECD1D4F80C030421BDE8384008F0DBB800BF2DE9F0410F468046487C45460130C0B211460024787402E00134322C40D095F848671035002EF7D14FF0010CC3F3050308EB041686F849370A79250105F24A7086F848C702F00F02E7
S3FD08007E7010314044FEF77EFDBB6933B92BE096F8492748780132904203D01946DB68002BF5D105F5E965454408EB0414C4F85437CD603B78032B01D0BDE8F0813A7C7B7CB3EB520FF8D101233B7008F566700821BDE8F0410FF020BB3B78032B08D005233B70BDE8F08105F5E9654544BD61E0E704223B7C3A70B0EB530FDDD13846BDE8F041FFF775BD00BFB2F57F4F70B5154628BF4FF47F45322D38BF32251C4C1D4B04F11006A183C0E90162DA68266912F002020660706001EB050620611BD10220B6B25E631A61D8605A6A521A92B2954200D970BD01F1330080B2DA6892070DD558635A6A521A92B295420AD9E36A43F00103E36270BD084828
S3FD08007F6815F030FF074815F02DFF013080B28142E7D1054815F026FF205D0020000C0040C49C0208E49C0208AC9B0208F8B51D4F1D4A3B4653F8105F526A9D421FFA82FC0A4629D0BB8B0646ACEB03039BB2CB1834BF1C460C46A868A04205D916E0AE4211D02D68241AA8688442F8D84FF0FF31B460AA686B68141B356073601E60C5E90164B961F8BD094815F0ECFE60460FF081F93D69A868E7E76146BDE8F840FFF777BF00BF205D0020000C0040B89B020870B505460C460FF0FBF9002D43D02B78043B012B3FD86B6ADA68910736D0DA6892073BD1186910F003002ED02020D3F8C011D3F8C421D3F8C861D3F8CC51C4E904651861186985075D
S3FD0800806003D1586940F0100058612079C1F340031B01C1F3800520F0300043EA45130343980623712AD5A368C90861F31C03A36000202379110A62F30303120C23712170628070BD1A699207C5D1012070BD0E4815F08CFE2020D3F8B011D3F8B421D3F8B861D3F8BC51C4E90465D860D8688607CBD1586940F002005861C6E72389490D61F30A032381D3E7FC9C0208426A0B7870B4946813F0200FC4F30164C3F3001318D048685B0043EAC00343F00403087802EB041243F0010300F00F00D1E90265C2F88401C2F88861C2F88C51C2F8803170BC704788885B0043EA4053E7E700BF2DE9F041044601260F4690460FF064F9274B06FA04F518680F
S3FD08008158054218BF002001D0BDE8F0812349284318604869DFF888C0A21943F8327040EA060E03EBC2020CEB04105F68C2F804808268C1F814E0174249694FEA041414D00E214FF0000E0CEB040672685CF804C0747B3D43A14014685D6024F00F041460CCF80410C2F800E0CEE74FF0500EC17B4A09920001F1604802F1604201F01F0102F561428E4008F5614888F800E3C2F880611660D4E700BF585F002000100240309E0208F0B54FF461644268274DC2F31A03A5FB0323264E9B09A6FB0326F60A04FB16330778234C07F1500C4578A4FB03248278C1F814C090F801C06409604640090138DFF87CE005F00F05013D8861C4EB0410A3EB8003CB
S3FD0800825002F01F023EF815E0C1E90325CCF3001C013A0B60BB07C1E90146C1F820C0724407F2BC700BD10E4B0E4C03FB00F3B4EBB30F04D2012D00DD0132CA61F0BD084B094C03FB00F3B4EB331FF6D3012DF3DCF3E700BFD34D6210C5B3A29189888888295C8FC2285C8F020AD7A3006C9F020870B4022501260024204B858403F120050561826080F826605E6AC16103F1380100F110058842C0E90563C0E90F44426435605D6227D0D968CB6A816213B15C6CA24219D30363C86200234FF0FF36002400250F49C0E91645CA6886640132CA6000F13802C0E9143370BCC362C36482637047596C8A4203D21C461B6B002BF8D103632063E0E71C66ED
S3FD080083489C66DDE7205D0020485F002010B5094C002918BF0C46FEF747F84FF06A51FEF79BF80549FEF798F8A0470349FEF748F910BD00BFF1FA01080000C84270B53023044683F311880EF055FF10F021F823785A1E012A42D8234A012B626018D000224FF6FF76032511200221A3681A605A609A62DA60DE629A6942F4807242F001029A619D6018622170BDE8704016F0FEBB154B9C4212D0154B9C42E0D1144BDA6942F00402DA61DA691A6942F004021A611A6922F004021A611B69D0E70C4BDA6942F00202DA61DA691A6942F002021A611A6922F002021A611B69C0E7054815F0D1FC00BFE49F0208381400204414002000100240F09C0208DC
S3FD0800844070B51F4E04463023F56883F311880EF0F5FE0FF0C1FFEB6B34EA030208D04FF0FF310B206C630FF0C3F900280FDBEB6B23EA0403EB630FF04DFF0EF0CDFE3368B3420FD1002383F31188204670BD0FF041FF0EF0C1FE3368B3420BD1002080F3118870BDF2689B6892689A42EAD2054815F08CFCF2689B6892689A42EED2F6E7205D0020E09B020810B586B0044630238DF80C1083F311880EF0B0FE0FF07CFF04A809F003F90FF015FF0EF095FE0C4B1A689A420CD1002383F311880122009304F5127004AB03A90AF0F8FF06B010BDD96893688A689A42EDD2024815F056FC205D0020349C020800B170470EB400B582B004AA0649074832
S3FD08008538019215F089FC6FF0010010F00FFB02B05DF804EB03B07047EC850208D853002030B50C460546003887B018BF01208D230E4A0F49FFF7DCFF00234FF0FF32FF2C08BF0024A988CDE90132009318BF44F004040123286841F070010DF117028DF8174014F0A9FE07B030BD00BF0C860208EC85020870B50E461546044686B018B10068003818BF012053230B4A0B49FFF7AFFF00234FF0FF3220681321CDE90132009305AA02238DF814608DF8155014F083FE06B070BD00BF50860208EC85020838B5836804460BB14368E3B1114D124A95F820351149022B18BF284641F2490308BF05F23C5016F007F86FF0010010F09DFA238CD5F84025F8
S3FD0800863043F0040323846260C5F8404538BD028CA3F582731A42DDD1004DEEE7D853002094860208B08602080022F0B57A4C7B4883B004F5E063C4F8F806C4F8003778480DF10701C4F8FC2614F0C0FF9DF80730012B11D094F82035724A022B18BF204640F20923704908BF04F23C5015F0C8FF6FF0010010F05EFA6C480DF1070114F0A5FF9DF807307BB194F82035654A022B654940F20B230CBF65485F4815F0B0FF6FF0010010F046FA62480DF1070114F08DFF9DF807307BB194F82035594A022B594940F213230CBF5948534815F098FF6FF0010010F02EFA0025574B57481D60574C584A5849594B3027046011601B6087F31188564E0EF05E
S3FD0800872889FD0FF055FE3368544C03F00F03544D04EBC302566044F833500FF0FBFD87F311880EF077FD0FF043FE424B31681B7921F00F003B40102B01F00F0166D0202B62D0BB420CBF032200220EF06BFA30270FF0E0FD87F31188424E0EF05BFD0FF027FE3368404903F00F0304EBC30244F8331056600FF0CEFD87F311880EF04AFD0FF016FE284B31681B7921F00F003B40102B01F00F013DD0202B3FD0BB420CBF032200220EF03EFA30270FF0B3FD87F311882E4E0EF02EFD0FF0FAFD336803F00F0304EBC30244F8335056600FF0A2FD87F311880EF01EFD0FF0EAFD174B31681B7921F00F003B40102B01F00F010FD0202B11D0BB420CBFD7
S3FD08008820032200220EF012FA0FF088FD03B0F0BD02229EE701229CE70122F3E70122C5E70222EFE70222C1E7D853002000001012D49F0208CC860208E8860208CC9F020814590020DC9F0208E0370020A4530020A8530020845300200000C07FDC3700209C08002070500020A5130108A008002061D60108A408002070B584B09DF80030BDF804400688857823F03F0343F00303002269466FF30A040848ADF808608DF80A508DF80030ADF8044014F0EBF9A0F10300B0FA80F0400904B070BD0008002070B50E4615460446A8B1D4F898303BB394F8A02042B115B128460FF03FFF3046BDE870400FF074BF1122D4F89C0084F8A0209847EFE70C4833
S3FD080089180C4A90F820350C49022B08BF00F23C5040F2233315F080FE6FF0010010F016F9D4F89830002BD7D1112007F08FFDD6E7D853002004870208E886020838B50C4689B11A4B1A4ADB68B4F84803DA6107F08BFB0546C0B12946022204F5547007F0D3FC022038BD1348134A90F820351349022B08BF00F23C50842315F04DFE6FF0010010F0E3F8DCE70A480B4A90F820350A49022B08BF00F23C508D2315F03CFE6FF0010010F0D2F8D5E700BF205D0020F09D0208D853002044870208E886020810B514463AB1D4F8503304F554709B68BDE8104018470848084A90F820350849022B08BF00F23C50F52315F015FE6FF0010010F0ABF8E6E7E8
S3FD08008A10D853002044870208E886020870B50C4651B32A4E2A4AF368B4F84004DA6107F027FB054688B32946082204F5896007F06FFC302383F311880EF0F8FB0FF0C4FC234642F210711F4A04F5956008F01AFF0FF058FC0EF0D8FB3368B34226D1002383F311880C2070BD1748184A90F820351749022B08BF00F23C50E42315F0D0FD6FF0010010F066F8C3E70F480F4A90F820350F49022B08BF00F23C50ED2315F0BFFD6FF0010010F055F8BCE7F2689B6892689A42D3D2074815F080F9205D0020009E0208B57D0008D853002084870208E88602084C9C020810B514463AB1D4F8483404F589609B68BDE8104018470948094A90F8203509491C
S3FD08008B08022B08BF00F23C504FF4967315F08CFD6FF0010010F022F8E5E700BFD853002084870208E886020838B50C46E9B1284B284ADB68B4F8A803DA6107F09DFA0546A8B32946022204F56C7007F0E5FBB4F8680207F091FA0546C0B12946042204F51C7007F0D9FB062038BD1B481B4A90F820351B49022B08BF00F23C50D52315F053FD6FF001000FF0E9FFD0E71248134A90F820351249022B08BF00F23C50E62315F042FD6FF001000FF0D8FFD5E70A480A4A90F820350A49022B08BF00F23C50E12315F031FD6FF001000FF0C7FFB8E7205D0020E49D0208D8530020C8870208E886020810B514466AB1D4F8703204F51C709B689847D4F81C
S3FD08008C00B03304F56C709B68BDE8104018470948094A90F820350949022B08BF00F23C5040F26F1315F004FD6FF001000FF09AFFDFE700BFD8530020C8870208E886020838B50C46E9B1284B284ADB68B4F84802DA6107F015FA0546A8B32946042204F5147007F05DFBB4F8880307F009FA0546C0B12946022204F5647007F051FB062038BD1B481B4A90F820351B49022B08BF00F23C50AC2315F0CBFC6FF001000FF061FFD0E71248134A90F820351249022B08BF00F23C50BD2315F0BAFC6FF001000FF050FFD5E70A480A4A90F820350A49022B08BF00F23C50B82315F0A9FC6FF001000FF03FFFB8E7205D0020D89D0208D853002010880208D9
S3FD08008CF8E886020810B514466AB1D4F8503204F514709B689847D4F8903304F564709B68BDE8104018470948094A90F820350949022B08BF00F23C504FF4987315F07CFC6FF001000FF012FFDFE700BFD853002010880208E88602082DE9F8430E4600285ED0002E6FD0454C4549E368454AD9613023C6F8442383F311880EF063FA0FF02FFB0EF04DFB404A06F54F7351685360C6F84C130FF0C2FA0EF042FA2368A34263D1002282F31188334606F5207083F8682A20338342FAD1D6F8F84624B3334FDFF8D090DFF8D08007E06368206829461A6807F0A9FA2469B4B1A08907F054F905460028F1D197F820354A46022B414640F2013314BF384686
S3FD08008DF0254815F01DFC6FF001000FF0B3FEE0E706F566700823022206F567710FF07EFCD6F8B003BDE8F8831A481C4A90F820351B49022B08BF00F23C5040F2E72315F0FFFB6FF001000FF095FE002E8FD11148124A90F820351249022B08BF00F23C504FF43A7315F0ECFB6FF001000FF082FE7DE7E2689B6892689A4296D2094814F0ADFF00BF205D00207C9D020859ED000800080020D85300201459002058880208E8860208289C020810B5144652B1D4F8F84634B1206803689B6898472469002CF8D110BD0848094A90F820350849022B08BF00F23C5040F29D3315F0B1FB6FF001000FF047FEE2E7D853002058880208E88602082DE9F04F37
S3FD08008EE80C4683B0002900F04E82C24DD4F8B863C14AEB68C14F30463946DA61FDF774FC002800F0A5814FF00009BD4EC4F8B873302383F311880EF08DF90FF059FA23463146B84A04F5707008F0B0FC0FF0EEF90EF06EF92B68AB4240F0C882002787F311884FF08048D4F8486441463046FDF74BFC002840F08981AB4F30463946FDF743FC002800F02082C4F848740127A74E302383F311880EF05DF90FF029FA23463146A04A04F5836008F080FC0FF0BEF90EF03EF92B68AB4240F0A182002383F31188DFF88082D4F8586341463046FDF71BFC002800F07481C4F858834FF00508934E302383F311880EF034F90FF000FA234631468B4A04F5B7
S3FD08008FE0587008F057FC0FF095F90EF015F92B68AB4240F07F82002383F3118894F854330C2B00F06181082B00F0FF8128204FF0000AD4F85033814E8149824A824DC3E90561DA61587403F10806072101230DF103022E608DF802A08DF803A0ADF804A014F0FCF92B6851461E69587A0DF102020123B04701232A689DF8021016691170507A19460DF10202B0472B689DF802201E695A710221587A0DF102020123B0472B689DF802201E699A710321587A0DF102020123B0472B689DF802201E69DA710621587A0DF102020123B0472B689DF802201E691A720421587A01AA0223B0472B68BDF804201E695A80587A0DF1020201230721B0472B6820
S3FD080090D89DF8022001A81A718DF803A08DF804A00DF02CFC78B99DF80430002B40F0E2812A6801231669507A3E210DF10302B047002800F0A3819DF80400002840F0328100232A688DF803308DF80430002A00F0888001A80DF00AFC78B99DF80430002B40F0C6812A6801231669507A41210DF10302B047002800F070819DF80400002840F00D8100232A688DF803308DF80430002A66D001A80DF0E9FB50B99DF80430002B40F0938101200DF0B8FB002800F055829DF80400002840F0EE8000232A688DF801308DF80230002A4AD00DF102000DF0CCFB50B99DF80230002B40F0708101200DF09BFB002800F054829DF80200002840F0DD80002307
S3FD080091D02A688DF803308DF8043072B301A80DF0B1FB28BB9DF80430002B40F0618101200DF080FB002800F0028219E0205D00200C9D020885EBF94029F40100D57D00080000C0400B8B0200854501003DD4010805D40108018401086C600020000040419DF80400002840F0A48094F854030DF0ABFB94F8543303F0FB03082B14BF0E201E2003B0BDE8F08FB54F30463946FDF7C7FA50B14FF6EC164FF00109C4F8B87352E6B04EC4F848847EE6AF4F30463946FDF7B6FA002840F0F480AC4F30463946FDF7AEFA002800F034814FF47A564FF00309C4F8B87337E6DFF8C08230464146FDF79EFA002800F09080C4F858834AF6D6164FF0040880E6B1
S3FD080092C8D4F85863D4F848A430465146FDF782FAD4F8B8B368B130465946FDF77BFA40B1302383F311880DF0A5FF0FF071F831461AE030465946FDF78BFA68B159465046FDF786FA40B1302383F311880DF092FF0FF05EF8594607E0302383F311880DF089FF0FF055F851464FF07E50FDF768F98149FDF7B1F84FF07C51FCF7A5FFFDF7D5FA234601467D4A04F58F6008F09EFA0EF0DCFF0DF05CFF2B68AB4240F03181002383F311884DE60DF012FB0EE70DF00FFBEFE60DF00CFBCAE60DF009FB58E70DF006FB1FE76E486E4A90F820356E49022B08BF00F23C508B2315F045F96FF001000FF0DBFBA0E54FF0824730463946FDF71AFA00285FD10E
S3FD080093C0644F30463946FDF713FA002800F0D280C4F84874604E0327CEE54FF0844830464146FDF705FA00284FD1DFF8848130464146FDF7FDF9002800F0D080C4F8588345F21D364FF00308DFE5D4F858A3D4F8B86350463146FDF7E1F9302300283FF464AF83F311880DF009FF0EF0D5FF51467EE79DF803302A6823F03F0343F021038DF80330D66801234121507A0DF10302B0477EE69DF803302A6823F003038DF80330D66801233E21507A0DF10302B0474DE64FF4FA464FF00209C4F8B8734BE5C4F84874354E022776E5C4F8588347F612264FF0070898E50DF07EFA00287FF491AE89E60DF078FA00287FF46EAE66E60DF072FA00287FF4CD
S3FD080094B8BBAE98E60DF06CFA00287FF424AE17E60DF066FA00287FF440AE33E6EA689B6892689A42BFF432AD1F4814F073FCEA689B6892689A42BFF459ADF5E7EA689B6892689A42BFF47BADEEE7184F30463946FDF772F9002863D1154F30463946FDF76BF9002800F025814FF47A664FF00509C4F8B873F4E400BF7B147A4120A107000000FA4100007A4200247449C97D0008D85300208C880208E886020800002041A086010048E80100409C02080000FA4200007A430000B84100003C42AB4F30463946FDF739F990BBA94F30463946FDF733F9002800F0FB80C4F848744CF250360527EDE44FF0854830464146FDF724F910BBDFF898823046A8
S3FD080095B04146FDF71DF9002800F0F280C4F8588342F2AD164FF00208FFE4EA689B6892689A42BFF4C9AE83E74FF4FA564FF00409C4F8B87398E4C4F84874904E0427C3E4C4F8588343F609564FF00608E5E42A6801231669507A09210DF10302B04700287FF40EAE9DF80330296823F007031F438DF80370CD680123487A0DF103020921A847FDE52A6801231669507A08210DF10302B04700287FF4A0AD9DF803302A6823F01C0343EA89098DF80390D66801230821507A0DF10302B0478EE52A6808F1FF33DBB2072B1669507A4FF001034FF00A010DF1010228BF4FF00008B04778B99DF80130296823F0380343EAC803CE68487A8DF801300A21C1
S3FD080096A801230DF10102B04700222B688DF80420002B3FF483AD1A79012A08D001200DF015F92B6818B11A79012A7FF477AD1E69587A0B21012301AAB0479DF8043000287FF46CAD03F00703042B7FF467AD2B688DF80400002B3FF461AD1A79012A08D001200DF0F3F82B6818B11A79012A7FF455AD1E69587A0D21012301AAB0479DF8046000287FF44AAD2B688DF803008DF80400002B3FF442AD01A80DF0FFF840B99DF80430002B4ED101200DF0CFF800284ED09DF8040000283FF430AD0DF018F92CE5314F30463946FDF73EF810B34FF4FA664FF00609C4F8B873FFF7C9BB2B4F30463946FDF730F8E8B1C4F8487449F640460627FFF7ECBBA4
S3FD080097A0DFF8A48030464146FDF722F8B8B1C4F8588341F2FC064FF0010806E41E4B4FF47A764FF00709C4F8B833FFF7A5BB1B4B48F235260727C4F84834FFF7CDBB184B80464FF4EF66C4F85833FFF7EEBB0DF0D3F80028B1D1ABE72A680123D2F81090507A0D210DF1030208F1FF38C847C6F3C203B8F1060F34D8DFE808F033332E3818381800000070410000A0416B0401000000FA430000C84100007A440000F04100C002440000E84200006643072B18BF0623002881D19DF80320296822F0380242EAC3038DF80330CE680123487A0DF103020D21B04770E7022B38BF0223DBB2E7E7012B38BF0123DBB2E2E7042B38BF0423DBB2DDE700BF1B
S3FD080098982DE9F0470D46144688B0002A00F0008115F00E0F0AD194F8543303F0FB03082B14BF0E201E2008B0BDE8F087302383F311880DF0B7FC0EF083FD06A807F00AFF0EF01CFD0DF09CFCA14B1A689A4240F0EB82002383F31188AA0778D594F854239C4E02F0FB02082A00F0FC8131688DF8103004F58167002967D00A79002A40F041820DF1100AD1F810800123487A52463B21C0479DF810308046DB0700F13E82B8F1000F51D18C4A336892E803000490ADF81410002B48D01A79002A40F065821E6952460821587A0623B04702469DF810309DF911009DF913C09DF812809DF915109DF8146043EA002048EA0C2846EA012652BBFDF798FA50
S3FD080099900022784BFDF728FCFDF7CCFD03464046C4F80834FDF78CFA0022724BFDF71CFCFDF7C0FD03463046C4F80C34FDF780FA6C4B0022FDF710FCFDF7B4FD02233946C4F8100400930C2206AB04F57C7009F08DFD25F002056E0700F1CC8029076DD4EB067FF55CAF5D4D5D4A2B6892E8030004F598670490ADF81410002B3FF44FAF1A79002A40F011821D692E21587A04AA0623A8479DF911509DF810309DF913109DF812609DF9152043EA05239DF8145046EA012645EA022500287FF430AF1846FDF736FA0022474BFDF7C6FBFDF76AFD03463046C4F8C034FDF72AFA0022414BFDF7BAFBFDF75EFD03462846C4F8C434FDF71EFA00223B4B39
S3FD08009A88FDF7AEFBFDF752FD0222C4F8C8043946009206AB0C2204F5956009F02BFD02E73348344A90F820353349022B08BF00F23C5040F2171314F0B7FD6FF001000FF04DF8EDE60027274E8DF81070336804F56A78002B00F018821A79002A40F0B5810DF1100A52463B211F69587A0123B8479DF810200346C2F34001920700F1A48033685FFA80F98DF80F108DF81010002B00F0018250460CF011FF002840F08B809DF81030002B40F0818033683B211F69587A0DF10F020123B84778B99DF80F30316823F0020343F002038DF80F30CF68487A01233B210DF10F02B847C7B26BE0205D00206C6000206882020800005940D85300208C88020862
S3FD08009B80E8860208C34EC44A336892E8030004F58D680490ADF81410002B48D01A79002A40F06B811E690E21587A04AA0623B0479DF911609DF810309DF913109DF812709DF9152043EA06239DF8146047EA012746EA022658BB1846FDF772F90022AF4BFDF7D8F9FDF7A6FC03463846C4F86834FDF766F90022A94BFDF7CCF9FDF79AFC03463046C4F86C34FDF75AF90022A34BFDF7C0F9FDF78EFC0223C4F87004414600930C2206AB04F58A6009F067FC25F00405DBE60CF0B0FE00283FF47AAFFF279DF81000002840F0508107EB09035BB2002B50D19049326803C90490ADF81410002A48D01179002940F01E81166906231421507A04AAB047AC
S3FD08009C7802469DF810309DF911009DF913C09DF812709DF915109DF8146043EA002047EA0C2746EA012652BBFDF70EF900227E4BFDF79EFAFDF742FC03463846C4F8A833FDF702F90022784BFDF792FAFDF736FC03463046C4F8AC33FDF7F6F80022724BFDF786FAFDF72AFC0223C4F8B003414600930C2206AB04F5647009F003FC25F0080579E66649326803C904F581680490ADF81410002A3FF468AE1179002940F0DC80166906232821507A04AAB0479DF911609DF810309DF913109DF812709DF9152043EA06239DF8146047EA012746EA022600287FF449AE1846FDF7B5F80022524BFDF745FAFDF7E9FB03463846C4F80834FDF7A9F8002213
S3FD08009D704C4BFDF739FAFDF7DDFB03463046C4F80C34FDF79DF8474B0022FDF72DFAFDF7D1FB02234146C4F810041BE618460CF0A9FD316800283FF4B8AD0B79002B3FF4B4AD16E6002332688DF80F308DF81030002A00F0A98050460CF0BCFD002840F096809DF81030002B40F08C8033683B21D3F81090587A0DF10F020123C84770B99DF80F30316823F001038DF80F30D1F80C90487A01233B210DF10F02C8475FFA80F99DF81000002874D1C8444FFA88F88AE540460CF066FD336800283FF494AD1A79002A3FF490ADD3E500200CF05AFD2B6800283FF4E8AD1A79002A3FF4E4AD2DE538460CF04EFD336800283FF444AE1A79002A3FF440AE14
S3FD08009E684FF0FF098DF80F708DF810700DF1100A50E600200CF03AFD336800283FF48EAE1A79002A3FF48AAECDE600BF6C600020688202080000B03F00208C400000594018460CF023FD326800283FF4DBAE1379002B3FF4D7AE1AE7D96893688A689A42BFF40FAD154813F07DFF18460CF00EFD326800283FF41DAF1379002B3FF419AF7BE50CF055FD0744FFB2AAE60CF050FD00283FF46FAF4FF0FF0986E70CF048FD81445FFA89F984E74FF081094F4698E64FF081097DE7812793E600BF409C0208F8B50C46002900F0A180634E634BF26804F56A70D361B4F8AC13EFF30583C3F30803002B18BF0022082306F071FF02215B4DEF1CD4F84C034E
S3FD08009F60FEF7FAFA822194F85023D4F84803FEF71DFB14228321D4F84803FEF717FB842194F85123D4F84803FEF710FB07228021D4F84803FEF70AFBBD4202D015F8011BDCE794F85033013BDBB2062B60D8474A4FF07E5052F82310FCF726FB4449FCF76FFA4FF07C51FCF763F9FCF793FC0546302383F311880DF031F90EF0FDF9234629463C4A04F5567007F054FC0EF092F90DF012F93368B34253D1002383F3118894F8511301F07001402948D01ED9602943D0702920D1304D302383F311880DF00DF90EF0D9F9234629462A4A04F5826007F030FC0EF06EF90DF0EEF83368B34237D1002383F311880E20F8BD202922D0302907D1214DDFE7A6
S3FD0800A058214B224D502918BF1D46D9E71E4B204D002918BF1D46D3E71E4DADE71E481F4A90F820351E49022B08BF00F23C509D2314F0D2FA6FF001000EF068FD4DE7194DBEE7194DBCE7194DBAE7F2689B6892689A42A6D2164813F08DFEF2689B6892689A42C2D2F6E700BF205D0020709D02088D9B0208909B0208002474490D000108A086010090D0030020A107000B8B020040420F0034D30700D8530020C8880208E88602081516050048E80100400D03001C9C02082DE9F04F0D46144693B0002A00F0318115F0060A4ED12B073DD5D4F8F833002B00F07C81B54890F82035022B39D040F2A113B34AB34914F075FA6FF001000EF00BFD0E20E8
S3FD0800A15013B0BDE8F08F109B032B05D8BDF8442003F5E87324F813203846314606F010FBA8B9D4F8E823109B176B032B98BF00223B4688BF012204F5687403F8022B03CCC7F80200596030460C2106F087FA25F00805002DC4D10E2013B0BDE8F08F40F2A113964A964900F23C5014F039FAC2E7302383F311880DF039F80EF005F90AA807F08CFA0EF09EF80DF01EF88D4B1A689A4240F0DD81002686F311880221D4F84C0305EA01030593FEF7AEF9BAF1060FDFF818B2DFF81892DFF8188212D0059B002B50D1690700F1C4800136042E00F0A4801BF8011BD4F84C03FEF795F9BAF1060FECD1D4F84873002F00F0E1803868003818BF012091238D
S3FD0800A2484A464146FEF76CF992234A4641460120FEF766F993234A4641460120FEF760F9852000234FF0FF31042209938DF8200009AB3868CDE9012100931321012308AA13F032F89DF824109DF825309DF8262043EA01239DF827700DA921F81630059B47EA02270FAA22F8167073BBB1E7D4F84873002F00F027813868003818BF01207B234A464146FEF72BF97C234A4641460120FEF725F9872000234FF0FF310222ADF824308DF8200009AB3868CDE90121009308AA0123132112F0F6FF9DF824309DF825700FAA47EA0327D4F8F83333B104F5806151F826303B4441F8263004F5687333F816300792C3F57F40FF300693FCF75EF80146364810
S3FD0800A340FCF762F90146069BF81A0F46FCF754F801463846FCF7A4F8FCF7CCFA079A22F816000136042E7FF45CAF059B002B40F099806A0700F18C8025F00605D1E62248224A90F820352249022B08BF00F23C5040F2091314F04CF96FF001000EF0E2FBBCE6D4F848736FB33868003818BF012066234A464146FEF7B7F867234A4641460120FEF7B1F8852000234FF0FF310222ADF824308DF8200009AB3868CDE9012100931321012308AA12F082FF9DF824109DF825300DAA43EA012322F816300CE7384620E70598D3E7D8530020C8880208E8860208205D002000FF7F478D9B020850860208EC85020804F56A7704F57A763846314600930FAABD
S3FD0800A43806F0D0F900283FF4AEAED4F8E8335B6B0C2B10D06148624A90F820356149022B08BF00F23C504FF4B07314F0E5F86FF001000EF07BFB9DF83C30032B3FF693AE01A252F823F000BF6FA5000857A1000831A5000813A5000802220AAB00920DA9082204F5886009F02DF869E702220AAB00920FA9082204F5627009F023F8D4F8F833002B3FF459AFD4F8FC2301329342C4F8FC237FF451AF04F56877384604F5806104F5826651F8042BB2FBF3F28E4220F8022BF7D104F57A76314604F56A7006F04AF90346002857D0002345F00805C4E9FE3331E73846DAE60023109AC4F8FC33C4F80034C4F80434C4F80834C4F80C34C4F8F82336E6E1
S3FD0800A53012AB04F5687813E9030088E803003846314606F025F9034600287FF428AEB8E80300D4F8E823146B224602F8023BC4F80200516030460C2106F0A0F817E63846314606F00DF9034600287FF410AED4F8E82304F56874176B03CC3A4602F8023BC7F80200516030460C2106F087F8FEE5D96893688A689A42BFF41DAE0C4813F00DFCD4F8E82303CFD2F830C0624602F8023BCCF80200516030460C2106F06EF897E700BFD8530020C8880208E88602081C9C020838B51446002A3ED0302383F311880CF023FE0DF0EFFE0CF00DFFD4F858331BB104F556700DF0B0F800230022264DC4E9DE230DF07DFE0CF0FDFD2B68AB4234D1002383F34C
S3FD0800A6281188302383F311880CF004FE0DF0D0FE0CF0EEFED4F8103404F5826413B120460DF090F800230022C4E908230DF05EFE0CF0DEFD2B68AB421DD1002383F3118838BD1148114A90F820351149022B08BF00F23C504FF4D87313F0D6FF6FF001000EF06CFAAEE7EA689B6892689A42C5D2084813F097FBEA689B6892689A42DCD2F6E700BF205D0020D8530020C8880208E88602081C9C020838B50C4671B30023234D2448EA68D4F86413D061C4F86433022204F5587005F01FFE00231E4AC4F8E033C4F8E433C4F8EC33C4F8E823302383F311880CF09EFD0DF06AFE04F5846006F0F0FF0DF002FE0CF082FD2B68AB4215D1002383F31188DB
S3FD0800A720062038BD0F48104A90F820350F49022B08BF00F23C504D2313F07AFF6FF001000EF010FABFE7EA689B6892689A42E4D2074813F03BFB00BF205D0020149E0208CDCCCC3DD853002000890208E8860208B89C0208000000002DE9F04F0D4614468DB0002A00F0C2806A0700F1A180AB0740F19A800022D4F8603304F57C7500925E68294608AB04F55870B047002840F08B800FCD04F58166D4F80474D4F8F093D4F8F4830FC60297D4F82034DDF820B0D4F824C4099A95E8030086E80300BBEB030062EB0C010392FBF714FE6249FBF70BFF039AD4F8ECA30546C4F82424C4F820B4504615F0F2F80646504615F094F9494683463046FBF7F4
S3FD0800A81843FE414603905846FBF73EFE039A01461046FBF72FFD2946FBF736FE0146D4F8E003FBF729FD02464946C4F8E0235846FBF72AFE0246414630461646FBF724FE01463046FBF716FD2946FBF71DFE0146D4F8E403FBF710FD2946C4F8E4030298FBF712FE5146FBF707FD0546FCF72EFB35A3D3E9002304F5846780468946FCF70DFE002847D132A3D3E9002340464946FCF7E6FD00284AD1C4F8EC5300223B46009204F57871102204F5527008F01AFE06200DB0BDE8F08F002304F5687708AE00933846324604A905F07CFF049B73B196E80F0004F5787686E80F00384604A905F04AFF18B9014604A805F0D3FE25F0040540E71B481C4ACA
S3FD0800A91090F820351B49022B08BF00F23C50752313F086FE6FF001000EF01CF92CE710A3D3E9002340464946FCF774F9FCF7FAFDC4F8EC03B6E70AA3D3E9002340464946FCF76AF9FCF7EEFDC4F8EC03AAE700BF1F85EB51B81E09401F85EB51B81E09C01F85EB51B81E194000247449D853002000890208E886020810B514463AB1D4F8603304F558709B68BDE8104018470848084A90F820350849022B08BF00F23C50CF2313F03DFE6FF001000EF0D3F8E6E7D853002000890208E88602082DE9F043044683B002200E46154605F033FB0746002800F09F800122294630460BF048FF01286AD0012E38DCDFF84882404606F0FDFA002840F0D280F1
S3FD0800AA084FF07C53D8F830908B4AC9F8002008250126C9F80430C9F83840013D4FEA4606FBD1D8F80030009540221C68394633468248A04746F001000DF07AFD012804462B46D8F8002000F0E780012154687B482A46A0477A480DF0C7FE284603B0BDE8F083686815F0D4FFFCF760FD20F00049804674494846FBF7D5FE002860D148467049FBF7C5FE00285AD140460021FBF7BFFE002854D0022E40F08C80DFF89C81404606F0A7FA00287CD16868D8F8309015F0AEFFFCF73AFD4FF07C53C9F80000A5E72A682046604913F0AEFD20465F4913F0AAFD20465E4913F0A6FD20465D4913F0A2FD20465C4913F09EFD20465B4913F09AFD20465A497C
S3FD0800AB0013F096FD2046594913F092FD2046584913F08EFD2046574913F08AFD002003B0BDE8F0835448554A90F820355449022B08BF00F23C5040F2BF2313F079FD6FF001000EF00FF84EE7022E02D0A86815F063FF2A6820463E4913F06AFD20463D4913F066FD20463C4913F062FD20463B4913F05EFD20463A4913F05AFD2046394913F056FD2046384913F052FD2046374913F04EFD2046364913F04AFD2046354913F046FD022003B0BDE8F0832046354913F03EFD012003B0BDE8F083A86815F02BFFFCF7B7FC20F0004806461F494046FBF72CFE0028BCD140461C49FBF71CFE0028B6D130460021FBF716FE0028B0D0144806F003FA00288C
S3FD0800ABF8D8D1DFF848806868D8F8309015F008FFFCF794FC0346A868C9F8003015F000FFFCF78CFC0346FAE60221556807481A46A84707480DF0E0FD154B2146D8680DF0DBFC802012E700BF0000A040101B00201C1B0020FFFF7F7F94890208C0890208CC890208E8890208F0890208208A02085C8A0208688A02089C8A0208188B0208D853002034890208E8860208548B0208205D002070B5694D0446D5F8D834002B00F0B9806649204613F0C6FCD5F8B404FCF71CF902460B462046624913F0BCFCD5F8B804FCF712F90B4602465E49204613F0B2FCD5F8D83400219E6A3046FBF79FFD002800F088803046FCF7FFF802460B462046554913F050
S3FD0800ACF09FFC5549204613F09BFCD5F8BC04FCF7F1F802460B462046504913F091FC5049204613F08DFCD5F8C804FCF7E3F802460B462046454913F083FCD5F8CC04FCF7D9F80B4602464249204613F079FCD5F8D8340021DE6A3046FBF766FD002859D03046FCF7C7F802460B462046394913F067FC3949204613F063FCD5F8D004FCF7B9F802460B462046344913F059FC3549204613F055FCD5F8A004FCF7ABF802460B462046294913F04BFCD5F8A404FCF7A1F80B4602462649204613F041FCD5F8D83400215E6A3046FBF72EFDE8B13046FCF790F802460B462046234913F030FC20461D4913F02CFCD5F8A804FCF782F802460B462046194900
S3FD0800ADE813F022FC002070BD20461A4913F01CFC7BE72046174913F017FCE5E72046154913F012FCA9E71448144A90F820351449022B08BF00F23C5040F2172313F004FC6FF001000DF09AFE34E700BF30160020788B0208888B0208948B0208AC8B020854BB0208C08B0208CC8B0208DC8B0208E88B0208B48B0208D853002034890208E8860208F0B5064683B001200F46144605F0E4F8054648B3022F3ADD294E304606F0B8F8F12806D1002331681A464F6830460221B847606815F0BAFDFCF746FB0246336BA0681A6015F0B2FDFCF73EFB0024326B336850610094294618221D6818482346A847204603B0F0BD1648174A90F820351649022BC0
S3FD0800AEE008BF00F23C504FF4F77313F0A1FB6FF001000DF037FE022FC4DC226830460F4913F096FB30460E4913F092FB30460D4913F08EFB30460C4913F08AFB30460B4913F086FB022003B0F0BD00BFA81B0020D853002034890208E8860208F48B0208188C0208288C0208508C02085C8C0208F0B50E461546044683B018B304F54A773846C4F81063C4F8245306F02DF8034650B9D4F828230090156838461822D4F88013A84703B0F0BD0F48104990F82025022A1A4608BF00F23C5003B0BDE8F04013F046BB08480A4A90F820350949022B08BF00F23C50502313F03AFB6FF001000DF0D0FDCAE700BFD8530020848C020810880208E8860208AB
S3FD0800AFD82DE9F0470E46144684B0B2B3B20713D54FF0000904F5647804F574770023D4F89023CDF80090156839461A464046A847E528F3D126F00206730711D54FF0000804F5147704F524760023D4F85022CDF80080156831461A463846A847E528F3D194F8E033022B00F0F080032B5DD0012B25D0062004B0BDE8F087A24FA24A97F82035A249022B14BF384607F23C50D22313F0E2FA6FF001000DF078FD97F82035994A022B99494FF066030CBF9848954813F0D2FA6FF001000DF068FDA6E749F64043B4F8D0539D4240F2EC80B4F8DE239A4240F2E780002204F2F32304F20B3103F8012F8B42FBD1864890F82035022B00F0F980874913F011
S3FD0800B0D0AFFA002384F8E03304F52675284605F073FF0028B1D1D4F8982200900346D4F8F012284615681822A847062004B0BDE8F087764F7A4997F82035DFF8D091022B14BF384607F23C5013F08AFADFF8F48109F23C5A04F5247504F5267697F820352A88022B0CBF504648464146023513F077FAB542F2D197F820356A49022B0CBF6548624813F06CFA97F820356649022B0CBF61485D4813F063FADFF87091DFF8A48109F23C5A04F5747504F5787697F820352A88022B0CBF504648464146023513F04EFAAE42F2D197F820355749022B0CBF51484D4813F043FA302383F3118800250CF043F80DF00FF902A806F096FA4F49029B039A5B18BF
S3FD0800B1C845EB020202A80293039206F0BDFB0DF09DF80CF01DF8494B1A689A4271D1002383F3118849F64043B4F8D0239A427FF628AFB4F8DE239A427FF623AF97F82035022B32D03749334813F00EFA0023062084F8E03304B0BDE8F087B4F89232B4F89402C3F5CB431033C01AFBF7E1F83449FBF732F9334902462046FFF785FE49F64043B4F8D0239A427FF6FBAEB4F8DE239A427FF6F6AE002220461146FFF774FE1C4B93F82035022BCCD11E491C4813F0DBF9CBE72246042004F2F32304F20B3103F8010F8B42FBD149F64046052104F2D23304F5787001E033F8025BB54205D982F8F41282F8F51282F8F612984202F10302F1D10CE70B4991
S3FD0800B2C000F23C5013F0B4F903E7D96893688A689A4288D20E4812F079FD00BFD853002010880208E886020814590020C48C0208D48C0208F48C0208F88C0208108D020840420F00205D002017B7D138CDCCCC3D589C0208EC8C02082DE9F04F0D4614468FB0002A00F0DE8011F00C0F40F00081AA0740F1D38094F84833002B00F01081012B40F0328194F8A034002B00F00881012B40F0C38005AE37464FF0625904F5916504F5936835F8020BB0F5804F28BF4FF48040FBF740F84946FBF791F8454547F8040FEFD1B0461625DFF80493DFF804A3DFF804B315E051463846FBF73CFA002840F0178159463846FBF735FA002814BF04210221EA1EF8
S3FD0800B3B86319D5B2FE2D83F8201409D058F8047F49463846FBF724FA0028E1D00121EEE74FF0000A9F4DD046DFF8B8B29E490DF1340903E055F8081C55F804BC56F8047F08353846FBF750F801464046FAF744FF594680463846FBF747F801465046FAF73BFFB1458246E5D14FF07C514046FBF73BF88E49FAF730FF4FF0814105465046FBF732F80021FAF727FF894E074696F820354046022B00F0CB80FBF747FD804638468946FBF742FD02460B462846CDE90423FBF73BFD02460B465046CDE90223FBF734FD4246CDE900014B463046794913F0D2F804F57279484605F099FD8046002800F0CF8096F820357349022B0CBF72486F4813F0C0F863
S3FD0800B4B004F55A784046C4F85053C4F8647305F083FD002840F0AF80D4F8682300900346156840461822D4F8C013A8470E200FB0BDE8F08F604E644A96F820356349022B14BF304606F23C504FF4827313F098F86FF001000DF02EFB15F00C0F3FF410AF96F82035584A022B58494FF070030CBF5448514813F084F86FF001000DF01AFB2B077FF5FDAE4FF0000904F5896804F5916A04F59367D4F84834CDF800901E683A46002351464046B047E528F3D1E7E6302383F3118800240BF068FE0CF034FF06A806F0BBF84249069B079A5B1844EB020206A8CDE9063206F0E2F90CF0C2FE0BF042FE3B4B1A689A421DD1002383F311880E200FB0BDE851
S3FD0800B5A8F08F2F48324A90F820353249022B08BF00F23C5040F2191313F036F86FF001000DF0CCFA0E200FB0BDE8F08F0821EEE6D96893688A689A42DCD2294812F0F2FBFBF77CFC804638468946FBF777FC02460B462846CDE90423FBF770FC02460B465046CDE90223FBF769FC4246CDE900014B46144906F23C5013F006F832E796F820251849022A02460CBF10480C4812F0FBFF4FE7B4F8380404F000FDD4F8C823CDF80080014643464846D2F800801822C04729E7FC9F0208000040BFCDCCCC3DD8530020148D0208388D02081459002084870208E886020840420F00205D00204C9C0208848C0208CDCC0C3F9A99193E0AD7233D000080BFCD
S3FD0800B6A030B5044683B0F8B104F56875284605F08BFC034650B9D4F8A0230090D4F81014284615681822A84703B030BD0F48104990F82025022A1A4608BF00F23C5003B0BDE8304012F0A4BF08480A4A90F820350949022B08BF00F23C50552312F098FF6FF001000DF02EFACEE700BFD8530020708D020844870208E88602080239012970B5044615462AD92A6820462B4912F07FFF20462A4912F07BFF2046294912F077FF2046284912F073FF2046274912F06FFF2046264912F06BFF2046254912F067FF2046244912F063FF2046234912F05FFF2046224912F05BFF022070BD506815F04EF9034668B101281ED00228CBD101261C4D1C4A2E70CE
S3FD0800B79820461C49137012F047FF05E0184A20461949137012F040FF0021184B03F1180203F8011F9342FBD11548FFF76DFF002070BD0F4D0D4A2B7020461249137012F02BFFE9E7588E02086C8E0208DC8E0208E48E020838830208188F0208688302083C8F0208648F02086C8F0208DC450020C04500201C8E0208B48D02089F450020A8410020E48D02082DE9F0430D46144685B042B16F4E33780BB1AB0714D4022005B0BDE8F0836C486C4A90F820356C49022B08BF00F23C50A02312F0EDFE6FF001000DF083F9E5E7002C34D008234FF00009039304F5547804F56475D4F85033CDF800901F6829460023404603AAB847E528F3D15B4B1B78F0
S3FD0800B890012B72D0022B2BD0002B60D004F57E752946182256481CF049FC60B928686968AA68EB68524C0FC42869696903C4022005B0BDE8F0832046FFF7EAFEEEE74848484A90F820354849022B08BF00F23C50642312F0A5FE6FF001000DF03BF9B9E742F2273044F2672746F2A71E4FF001094FF004084FF0050C032603AB04F5667135F8022B82421DD81E708D4203F10103F6D19DF80C009DF80D109DF80E209DF80F3084F80C0484F80D0484F80E1484F80F1484F8F82384F8F92384F8FA3384F8FB33A3E7BA423BD883F800C0DDE71D4604F20F4204F2F73303F8015F9A42FBD12046FFF795FE357090E741F287374EF65F2E4FF004084FF0D8
S3FD0800B988020C032603AA04F5667035F8021B632915D81670A84202F10102F6D19DF80C009DF80D109DF80E209DF80F3084F80C0484F80F1484F8F82384F8FB336AE7B94209D882F800C0E5E7724594BF83F8008083F800909DE7714594BF82F800801370D8E700BFDC450020D853002044870208E8860208C0450020C445002002B1704708B50948094A90F820350949022B08BF00F23C5040F2711312F006FEBDE808406FF001000DF09AB8D85300208C880208E8860208F0B50E461546044683B018B304F552773846C4F83063C4F8445305F0B7FA034650B9D4F848230090156838461822D4F8A013A84703B0F0BD0F48104990F82025022A1A46E0
S3FD0800BA8008BF00F23C5003B0BDE8F04012F0D0BD08480A4A90F820350949022B08BF00F23C50502312F0C4FD6FF001000DF05AF8CAE700BFD8530020848C0208C8870208E886020830B5044683B088B104F52E75284605F079FA034640B9D4F8B8220090D4F81013284615681822A84703B030BD0848094A90F820350849022B08BF00F23C50402312F094FD6FF001000DF02AF8DCE700BFD8530020C8870208E88602082DE9F04F30278BB087F3118800250BF085FBC94E0CF050FCD6E90212C74BC84C023259611D6103F118019D62DB62C6E902120CF00DFC638AC249E28A0B400A4043F4FF5343F01C0342F48052BE496382E282BE4BBE4AC4E9BD
S3FD0800BB780055C4E90255C3E90024E461A1611D7287F311880BF056FB0CF022FC0BF040FC726804F11003226273600CF0B7FB0BF037FBB24B1A689A4240F0B784002585F31188DFF874B3DFF874A30221AC4AAD4805F048FC29465846AB4A05F043FC50460121AA4A05F03EFC0821A94AA94805F039FC0921A84AA94805F034FC0621A84AA84805F02FFC0721A74AA84805F02AFC0421A74AA74805F025FC0321A64AA74805F020FC0A21A64AA64805F01BFC0C21A54AA64805F016FCA54EA649A64AA74BA74C0491029231464FF4027200930596FE230396019606F50270C6F8984206F0D1FD06F5187005F0D7FB022004F00CFA9C4C014606F5127051
S3FD0800BC7004F0F8FC04F5587004F0C6FB022004F0FFF903460A20C4F8643304F0F9F9014604F5527004F0E6FC9149924A924B04F542700594039401940491029221464FF442720093802306F0A1FDD4F80C230423052104F5687005F0B7F8884FDFF868C20497CDF808C000224FF0834C4FF000084FF000094FF080474FF0FF36804C814B81498248009304F59263059403940194C4F8B8C4C4F8CCC4C3E90089C4F8A014C4F8D804214604F54270C4F88824C4F88C24C4F89824C4F89C24C4F8A424C4F8A824C4F8AC24C4F8B024C4F8BC24C4F8C024C4F8C424C4F8D024C4F8B4744FF44272C4F8C874FE2306F050FD684BC4E9DE89C4E9E089C4F8FF
S3FD0800BD684833C4E9D95504F56470C4F84C53C4F87453C4F88853C4F8706305F045FBC4E9F055C4E9F255C4E9F655C4E9F855C4F8D05384F8E853C4F8D463022004F06CF90646D4F80C230423012104F58160C4F84C6305F03DF8D4F80C230823022104F5896005F035F84D494D4805F0D7F84D4805F01AFB4C494D4805F0D0F840F606614B4C4C4A4C4BA4F8501304F55670C4E9D22305F009FB0323C4E9E489C4E9E689C4E9E85504F58260C4F888B3C4E9FE55A4F8AC3305F0F8FA4049414A414BDFF814B104F5896E04F58A6C0594039401940491029221464FF44272009304F54270CEE90089CCE900898123C4F840A473E000080020F837002077
S3FD0800BE60805200200380FFFFA9FE0008746000203D480108205D0020601F0020A81E002090240020D02300202838002038380020E0450020F04500206815002078150020F038002000390020B8510020C8510020F050002000510020A84F0020B84F0020A4520020A8520020081C0020D1280108B13901085D2901084C9D0208804B002089A9000879A70008C1A600083901010830160020810101088FC2753D1C9D0208509F0208001C0020A81B0020701B0020681B0020101B0020781F00203409002028090020E5A500080DA10008299F000898240020D8230020290901085025002006F05CFC0BF5707005F062FA0BF5587005F05EFA0BF583601C
S3FD0800BF5805F05AFA0BF58F6005F056FA072004F08BF801460BF5647004F078FB092004F083F801460BF58A6004F070FB062004F07BF801460BF57C7004F068FB082004F073F801460BF5956004F060FB934C9449944A954BCDF814B0CDF80CB0CDF804B0049102920093CBF8B8434FF00804DFF858E2DFF858C259460BF54270CBF84874CBF850E3CBF858C38BF8544381234FF4427206F007FCDFF838C208266346E64643F8046F10264FF0180A4EF8086F202166467E4C46F80C1FC4F80C3D7C4BC4F8ECAC04F6085AC4F804AD03F1400AC4F808AD04F61C5AC4F818AD03F1800AC4F81CAD4FF0070A3146082604204FF00209A4F828AD04F5536AD3
S3FD0800C050C4F82CAD03F1C00A01226746C4F8FC6CC4F8106DC4F830AD0C264FF0060AC4F820EDDFF8B8E1E346CDF820C0CDF824C0C4F8F8CC84F82A9DCEF82C90CCF80000DFF89C91DFF89CC1C4F8F05CA4F8005DC4F8F43CA4F83CADAEF80450A4F8142D84F8162D84F83E2D0790C4F8E8EC84F8020DC4F8246DC9F800C0C4F8341DBC464021C4F8386D4CF8101F8026394641F8146F0E4639464FF48077C4F8905DA8460C2584F8522D84F8662DC4F8882D84F88E2D04F64452C4F8402D03F58072C4F8442D4FF0090241F8187F0F46C4F84C5D4FF400714FF00805A4F8502D04F65852C4F8542D03F5A072C4F8582D04F66C52C4F8682D03F5C07228
S3FD0800C148C4F86C2D4FF00A024BF81C1FA4F8645D10210C2503F5E073C4F8803D04F55863C4F87C3D04F6E843C4F8B433DFF8C0A0244BA4F8782D04F6F442C4F8605DA4F88C5DC4F85C6DCDF818C0C4F8741D84F87A0DC4F848CDC4F8707DCAF8003017460346194E194DC4F884BDC4F8F8268BB9174B324693F820352946022B08BF154840F2DA3318BF124812F02EFA6FF001000CF0C4FC00225FFA88F3234483F809233F6908F101082FB3BB7BE0E785EBF94005BA000899980008E58E0008202A0020205B00200400030058880208E8860208D853002014590020080900200000404184600020E05A00208060002001000500706000200225BD4A83
S3FD0800C240BD49BE4BB3F8FC3604920291BC4ABD4900920594039401944FF4427284F8083301F55670BF2384F8445784F8F456C4F840A7C4F8F09606F0C1FAD4E9CF23062102F0004203F0004342F0C04263F04043AD4DC4E9CF23C4F89853C4F84843C4F8B01305F515652868D4F85C23C36A818804F0C2FD2B68D4F8B023DB6AAD681343C4F8B033002DEED1A04901F28465A1F5047004F057FEA5F25C61A1F5C47004F051FEA5F23461A1F5807004F04BFE286804F08AF86B68D4F8B0231B682D691343C4F8B033002DF2D10426914C012084F8E053A4F84852A4F8886303F093FE03462846C4F8803303F08DFE034604F51470C4F8F03204F068F83A
S3FD0800C33804F5647004F064F804F53D7104F5267004F01CFE04F5447104F54A7004F016FE7E4F7F4A7F4B214604F5027005940394019402927C4C4FF4027200930497422306F040FA012084F80054A4F86852A4F8A86303F05BFE03462846C4F8A03303F055FE034604F51C70C4F8103304F030F804F56C7004F02CF80C2003F065FE014604F5127004F052F904F5457104F52E7004F0DCFD04F54C7104F5527004F0D6FD624D634A634B214605940394019404F50270029200934FF402724223049506F001FA022204F2133304F21F3403F8012FA342FBD10426584B03F10C0203F8016F9A42FBD15048FFF751FB00254FF0100C0127524C5249534AD1
S3FD0800C430534B0594039401940491029200934FF44272C4F898C48123214604F5427084F8A074A4F8406484F8485306F0CFF904F5547104F55A7004F08DFD04F5846104F5727004F087FD384603F0E4FD0346082604F58960C4F8C033A4F8385403F0BCFF04F5956004F0BCFF3A4C3B483B493C4B3C4A3D4F0490029100930594039401944223214604F5427015703D704FF44272A4F84853C4F8986306F098F904F57E7104F5687004F056FD284603F0B3FD034604F55470C4F8103403F08EFF2B480CF0E7FE2B480CF0E4FE2A480CF0E1FE2A480CF0DEFE29480CF0DBFE29480CF0D8FE28480CF0D5FE28480BB0BDE8F04F0CF0CFBED96893688A6865
S3FD0800C5289A42BFF443AB234811F04CFC998E0008F9EE0008D8530020518D0008202A0020B82D002090300020B8390020FD8C0008D9AF0008418C0008A03D0020ED8B000889E60008318B0008BF400020A8460020E98A000819B300081D8A0008A8410020D989000821B8000855890008C0450020DC4500205C0800204408002050080020380800202C080020B4080020C0080020A8080020049C02082DE9F04F0024B5B0079412F0B1F80020002101224FF0FF330425C24ECDE92801CDE92544C6E9014427943270249324A80AF018FE24A80AF0E7FD013DF7D1249A7368C6E90225002B41F0AD84B64CB74B7460A56223634FF0300E8EF3118862B686
S3FD0800C6204FF6FF0801274FF0FF3C4FF0200900230022AF496460C868A56000EA0808AD48E56248EA0000DFF87083C860D8F80C00A58340F08070C8F80C00DFF86083C4F89C50D8F80000C4E92D553843C4E93355C4F8A850C4F8AC50C4F8BC50C4F8D450C8F80000C4F818C081F81F90C4F8B0C081F822E004EB0901C4E9081104F1B00004F11001C4E93023C4F8C8C0C4E904112460C4F89850C4F8A070C4E936230AF0B1FD80228C4904F13800FBF7F9FDDFF8F0C255216346894A80F8247002620CF5A472DFF8E0E2E060CDE925C2844827972995CDF890E0289003F8011B9342FBD124A80AF09BFE0AF0CBFE022333700BF001FE0AF081FD23680C
S3FD0800C718A34241F02784002686F31188FF200CF0A3F9FBF795FF002200237448744D066074487549C5E9000605F108000E80A860724905F10C00E8607148C1E900230AF01FFD70480CF0B0FD6F480CF0ADFD6F480CF0AAFD6E480CF0A7FD01206D4B6E496E4F05F22452C5F81C15A5F82005B5F8FC16C5F82425C5F83C356948C5F84065C5F818750AF08AF801463846C5F848150AF084F8C5F84805002800F04982614EA6F1300004F028FE4FF480727F21C5F8806506F1180019F067FD5B480CF074FD5A480CF071FD5A480CF06EFD59480CF06BFD59480CF068FD08F0E6FAA6F5AF6044F20213012255490BF084FFA6F274504FF0FF33022252492D
S3FD0800C8100BF07CFF08F0C2F8042300214F4E504A3373504BB16073603260302383F311880AF004FD0BF0D0FD337B6A6843F001033373B2606E600BF065FD0AF0E5FC2368A34241F09483002686F31188424B434A434816601B600AF097FC424A4249434B0E6016604249434A0E701A60FFF750F94149214811F0D4FE40491F4811F0D0FE3F491D4811F0CCFE3E491B4811F0C8FE3D49194811F0C4FE3C49174811F0C0FE3B49154811F0BCFE3A49134811F0B8FE3949114811F0B4FE38490F4811F0B0FE37490D4811F0ACFE36490B4811F0A8FE72E000BF485F0020205D0020849F020800ED00E00003FA05989F0208000400206D6301088C53002017
S3FD0800C908D8530020F09E020888530020A8530020B83700206808002080080020740800208C080020189F0208A08F0208209E0208B08F020858590020CC080020D8080020F0080020E4080020FC080020541500204015002030150020889D020850140020B0530020C4530020B4530020D4530020C8530020D0530020CC530020746000202CBD0208C88F02081090020858900208A0900208EC900208349102087C910208C49102080C920208549202089C920208F0ED00E0001000E0005E0020988F0208A549A64811F030FEA549A44811F02CFEA449A24811F028FE32463146304610F0E9FFD5F8F836B3F1915F0FD095F820359D4A022B9D4940F2FA
S3FD0800CA0035230CBF9C48974811F012FE6FF001000CF0A8F8994EDFF880923746DFF87CA20121384607AA10F0C9FFE0B1079BB268134240F0EF80D9F808201A4040F0F38095F82015009202294FF41572514600F0F780844811F0ECFD0121384607AA10F0ADFF0028E2D1D5F8F8368046B3F1985F0FD095F820357E4A022B7E4940F259230CBF7D48774811F0D3FD6FF001000CF069F840F2FF70BDF86220BDF86630BDF88010774F42F4FF4223F4FF4360F30A0142F07C0223F07C031EA8ADF86630ADF86220ADF88010CDE91A700DF1600B302383F311884FF000090AF0B0FB0BF07CFC0AF09AFC674A2AAF5368C2F804B01C9308F04CF94FF0FF336C
S3FD0800CAF80822634963480BF005FE38464FF0FF3304222BA92A97CDF890900BF0FBFD3096ADF8CC90CDF81080049BDFF84091002B41F04B84D5F8F836B3F1005F00F01286B3F1995F00F0A48100F2B08023F48013B3F1985F00F06A810DF1C70840465A46032104F007FC8DF8CA00002800F0FD80022820D195F82035022B4FF0300300F03D8483F311880AF05DFB0BF029FC424BD3F824800BF0C2FB0AF042FB2368A34241F03E83002383F311883C4948461FFA88F211F041FD3023D4F80CA083F311880AF040FB0BF00CFCDAF83C30002B40F03D820BF0A3FB0AF023FB2368A34241F09581002383F311880793079B002BA1D0B268134241F0ED8320
S3FD0800CBF0294882681A4041F04D8395F82015009202294FF42472254901F05083154811F00FFD85E738460BF019FDC3057FF500AF4FF0100835E748460BF010FD95F820354FF41472022B5146079B00907FF409AF0D4811F0F5FCEBE64FF479632846144A084911F0EDFC6FF001000BF083FFAAE5E4920208D8530020C88F02082CBD02082C930208E88602081459002054150020EDFD000800080020C8370020DC370020000C00405C940208401500204893020894860208D24A93427FF452AF95F82035022B4FF0300300F0EF8383F311880AF0BDFA0BF089FBCB4BD3F824800BF022FB0AF0A2FA2368A34241F0BA82002383F31188C54948461FFA0C
S3FD0800CCE888F211F0A1FC302383F311880AF0A2FA0BF06EFB0AF08CFB249B13B124A80AF031FD0BF003FB0AF083FA2368A34241F03E81002383F3118803230DF1C7088DF8C430319940460BF025FF4046FBF7B0FD95F82035002840F04D81022B18BF4846AC4908BFAC4811F06FFC0021AB4810F0D7FDAB4BC5F8F836F8E695F82035022B4FF0300300F0F78283F311880AF062FA0BF02EFB9D4BD3F824800BF0C7FA0AF047FA2368A34241F03C82002383F311889C4948461FFA88F211F046FC9DF8C730022B8DF8C43017D003F0FD02012A00F0A28100238DF8C43095F820359249022B28D0484611F030FC874A079BC5F8F826002B3FF4A7AE03E773
S3FD0800CDE09DF8C8109DF8C93095F8202543EA0123022AADF8C53001F0D7804846BDF8C520844911F015FC844BD5F8F8269A4200F06C8395F820358149022BD6D1784811F007FCD5E795F820357D49022B14BF4846734811F0FDFB302383F311880AF0FEF90BF0CAFA0AF0E8FA249B13B124A80AF08DFC0AF0E1FA0022724B42F2107124A82793CDE92872FBF795F80BF053FA0AF0D3F92368A34241F0E481002383F31188694BC5F8F83663E695F82035022B4FF0300300F0E68283F311880AF0CFF90BF09BFA544BD3F824800BF034FA0AF0B4F92368A34241F0D381002383F311885B4948461FFA88F211F0B3FB0223002101228DF8C43095F8203598
S3FD0800CED88DF8C610022B14BF4846474852490DF1C708A5F8FC268DF8C52011F09DFB319940460BF03FFE4046FBF7CAFC95F82035002867D1022B18BF4846484908BF3A4811F08AFB302383F311880AF08BF90BF057FA0AF075FA249B13B124A80AF01AFC0AF06EFA0023DFF8E4A042F2107124A8CDE92873CDF89CA0FBF720F80BF0DEF90AF05EF92368A34241F06882002383F31188302383F31188314805900AF062F90BF02EFA0AF04CFA0598036813B10AF0F1FB059805900AF043FA00220598294B426103614FF47A71C0F80CA02448FAF7F5FF0BF0B3F90AF033F92368A34241F09B82002383F31188319AB5F8FE36C2F30F22ADF8CC20124A8B
S3FD0800CFD00133A5F8FE36C5F8F826BBE5022B18BF4846174908BF064811F022FBB2E500BF00104213000C0040D8930208E493020814590020D49F020800204213F49302084894020814940208000031132494020894930208B18B010802001113A4930208B0930208BC930208E0370020DC370020C8930208C3F1000823EA0802CAF83C2008EA03080BF05EF90AF0DEF82368A34241F0E180002383F311882D9BCDF81C8018EA030F00F08E8095F82035022B4FF0300300F0D38183F311880AF0D7F80BF0A3F9C04BD3F824800BF03CF90AF0BCF82368A34241F0C680002383F31188BA4948461FFA88F211F0BBFAD5F8F836B74A934200F0EE82B64A8A
S3FD0800D0C8934200F0328195F82035B449022B14BF4846B34811F0A8FAB24BC5F8F8362BA80BF0B0FA079B2D9A23EA02030793002B3FF418AD74E5012B15D195F82035AA49022B14BF4846A64811F08EFAD5F8F836A04A934295F8203500F04382022B9F497FF44FAE76E6002B3FF446AE032B7FF443AE95F820359D49022B14BF4846984811F072FA302383F311880AF073F80BF03FF90AF05DF9249B13B124A80AF002FB0BF0D4F80AF054F82368A34241F0B581002181F311888E4810F0C2FB8D4A079BC5F8F826002B3FF4CDAC29E5DFF840A2DAF8083018EA030F72D095F82035022B4FF0300300F08F8283F311880AF042F80BF00EF9754BD3F870
S3FD0800D1C024800BF0A7F80AF027F82368A34241F01481002383F31188794948461FFA88F211F026FA77480FA910F008FA9DF83C30002B40F06C8195F820357349022B14BF4846694811F014FA01216E4810F07CFB0021694810F078FB302383F311886B4805900AF00BF80BF0D7F80AF0F5F80598036813B10AF09AFA059805900AF0ECF800230598624A4361624B0261C3604FF47A715E48FAF79EFE0BF05CF809F0DCFF2368A34241F04B81002383F311885A480BF0ECF9079BDAF8082023EA02030793002B3FF453ACAFE4309B9B6818EA030F00F0418695F82035022B4FF0300300F0698183F3118809F0C9FF0BF095F8394BD3F824800BF02EF822
S3FD0800D2B809F0AEFF2368A34241F02B81002383F31188444948461FFA88F211F0ADF930980BF0B8F910F4804F80460AD095F820353D49022B14BF48462D4811F09DF928F4804818F0020F40F09781B8F1000F00F0C18195F820354246022B344914BF4846234811F089F93099079BCA6842EA0802CA60002B3FF4FEAB5AE495F820352C49022B14BF48461A4811F076F995F820352849022B00F0BB81484611F06DF924A810F08EFCC3E683F3118809F06BFF0BF037F80A4BD3F824800AF0D0FF09F050FF2368A34241F03680002383F311881A491FFA88F2064811F04FF907E5000C0040889402080200111300004113509402081459002000104213A3
S3FD0800D3B0FC93020834940208D49F020800204213F0940208DC9F0208FC940208E0370020DC370020B18B0108C8370020109502081C95020848950208C0940208D8940208F493020883F3118809F020FF0AF0ECFFC04BD3F824800AF085FF09F005FF2368A34240F0E487002383F31188BA491FFA88F2BA4811F004F9FFF7C1BB83F3118809F004FF0AF0D0FFB24BD3F824800AF069FF09F0E9FE2368A34240F0DD87002383F31188AE491FFA88F2AC4811F0E8F82BE683F3118809F0E9FE0AF0B5FFA54BD3F824800AF04EFF09F0CEFE2368A34241F00A80002383F31188A2491FFA88F29E4811F0CDF818E583F3118809F0CEFE0AF09AFF974BD3F8DB
S3FD0800D4A824800AF033FF09F0B3FE2368A34240F0C487002383F3118895491FFA88F2914811F0B2F80FE495F820359249022B14BF48468C4811F0A8F800218F4810F010FAC1E6BDF8C520BDF8CC309A427FF68DAC95F820358949022B14BF4846814811F093F8302383F3118809F094FE0AF060FF09F07EFF249B13B124A80AF023F909F077FF00227E4B42F2107124A82793CDE92872FAF72BFD0AF0E9FE09F069FE2368A34241F05680002383F31188B5F8FE36319A0133A5F8FE36079BC2F30F22ADF8CC20002B3FF4DEAAFFF73ABB83F3118809F060FE0AF02CFF604BD3F824800AF0C5FE09F045FE2368A34241F01080002383F3118863491FFAC0
S3FD0800D5A088F25A4811F044F895E6022B14BF484656485F4911F03CF801215E4810F0A4F9302383F3118809F039FE0AF005FF09F023FF249B13B124A80AF0C8F809F01CFF0022514B42F2107124A82793CDE92872FAF7D0FC0AF08EFE09F00EFE2368A34240F0EA87002383F3118895F820354A49022B14BF48463D4811F00AF84FF09953C5F8F836079B002B3FF480AAFFF7DCBA40480DA90FF0E2FF9DF83430012B95F8203500F03087022B14BF48462F483B4910F0EEFFD5F8F836394A934200F02B86384A934200F0708795F820353649022B14BF4846254810F0DBFF344BC5F8F83628F00208B8F1000F7FF43FAE309A079B926823EA02030793F0
S3FD0800D698002B3FF447AAFFF7A3BA95F820352A49022B14BF4846174810F0BEFF002295F820352649022BA5F8FC267FF445AE114810F0B2FF43E683F3118809F0B3FD0AF07FFE0A4BD3F824800AF018FE09F098FD2368A34240F00E87002383F3118818491FFA88F2034810F097FF6FE5000C00405C9402081459002088940208A4930208D893020808950208DC9F020820940208B18B01081095020804940208D49F020808940208289502080020421300003113509402080010421394940208AC940208F094020895F82035DDF81080022B00F00586A949A94810F05FFF302383F3118809F060FD0AF02CFE0AA803F0B3FF0AF0C5FD09F045FD2368BE
S3FD0800D790A34240F0CC86002383F311884FF0300A5A4608210DA803F0E1FD81468AF3118809F044FD0AF010FE08A803F097FF0AF0A9FD09F029FD2368A34240F09283002383F31188B9F1000F00F0CE84DDE90801DDE90A238B4208BF8242D9D2871A61EB03030393002342F20F720297DDE902018B4208BF8242CBD295F82035022B00F0548681497F4810F00BFF302383F3118809F00CFD0AF0D8FD59467C480FF0DAF8074607F0ABFA67B195F820357849022B0CBF7848734810F0F3FE6FF001000BF089F93769744827F480474FF0FF33042227F0020724A937610AF050FF95F820356E49022B0CBF6B48664810F0D9FE6C4FDFF8D891DFF88CA191
