S02B00002F686F6D652F7069742F4153452F414D69526F2D417070732F636F6E66696775726174696F6E732F87
S3FD08008000000400201D8300081F8300081F8300081F8300081F8300081F8300081F8300081F8300081F8300081F83000861B101081F8300081F8300081F8300081F8300081F8300081F83000819BE0108D9BD01081F8300081F830008F5C30108C5C3010895C3010865C3010835C3010889C1010855C1010821C10108EDC00108BDC0010889C0010855C00108E5C8010869C8010805C80108A1C70108B9C10108C9C201081F8300081F8300081F8300081F83000839CA0108E5C101081F83000885C70108ADC5010869C701087DC501081F8300081F83000869FF01081F8300081F83000851C2010885BD01081F8300081F8300081F8300081F83000805
S3ED080080F81F83000821C001081F8300081F8300081F8300081F8300081F8300081F8300081F8300081F830008F1BF0108BDBF010889BF010855BF010825BF01081F8300081F8300081F8300081F8300081F8300081F8300081F830008F1BE0108BDBE010889BE01081F8300081F8300081F8300081F8300081F8300081F8300081F8300081F8300081F8300081F8300081F8300081F8300081F8300081F8300081F8300081F8300081F8300081F8300081F8300081F8300081F8300081F8300081F8300081F8300081F8300081F8300081F8300081F8300081F8300081F8300081F8300081F8300081F830008F9
S3FD0800820072B6374880F30888364880F3098836483649086040F20000CCF200004EF63471CEF200010860BFF34F8FBFF36F8F40F20000C0F2F0004EF68851CEF200010860BFF34F8FBFF36F8F4FF00000E1EE100A4EF63C71CEF200010860062080F31488BFF36F8F13F044F802F0FCF94FF055301F491B4A91423CBF41F8040BFAE71D49184A91423CBF41F8040BFAE71A491B4A1B4B9A423EBF51F8040B42F8040BF8E700201849184A91423CBF41F8040BFAE712F0E6FF13F01AF8144C154DAC4203DA54F8041B8847F9E708F088FC114C124DAC4203DA54F8041B8847F9E713F004B800040020000800200080000808ED00E00000002000040020EA
S3FD080082F87CA60208000800205813002058130020BCEF0120E0810008E0810008E0810008E081000870E700F000F8FEE72DE9F04F2DED108AC1F80CD0C3689D46BDEC108ABDE8F08F14F03CFC002383F311882846A047002015F07CFDFEE714F041FC13F023F914F02DFC00DFFEE70000844641EA000313F003036DD1403A41D351F8043B40F8043B51F8043B40F8043B51F8043B40F8043B51F8043B40F8043B51F8043B40F8043B51F8043B40F8043B51F8043B40F8043B51F8043B40F8043B51F8043B40F8043B51F8043B40F8043B51F8043B40F8043B51F8043B40F8043B51F8043B40F8043B51F8043B40F8043B51F8043B40F8043B51F8043B92
S3FD080083F040F8043B403ABDD2303211D351F8043B40F8043B51F8043B40F8043B51F8043B40F8043B51F8043B40F8043B103AEDD20C3205D351F8043B40F8043B043AF9D2043208D0D2071CBF11F8013B00F8013B01D30B8803806046704700BF082A13D38B078DD010F003038AD0C3F10403D21ADB071CBF11F8013B00F8013B80D331F8023B20F8023B7BE7043AD9D3013A11F8013B00F8013BF9D20B7803704B7843708B788370604670470000000000000000A2EB0300704700BF02780B78012A28BF9A42F5D16DE9044540EA0104CDE902676FF0000C4FEA447212B380EA010414F0070F6AD100F0070420F0070004F0030521F007014FEAC505D0
S3FD080084E8F0E8042314F0040FF1E804670CFA05F462EA040266EA04060AD063EA0403624667EA0407664603E0F0E80423F1E8046782FA4CF582EA0604A4FA8CF46CBB83FA4CF583EA0705A5FA8CF595B950E9022351E9026782FA4CF582EA0604A4FA8CF483FA4CF583EA0705A5FA8CF52543DBD09CB92DBAB5FA85F424F0070427FA04F1DDE9026723FA04F303F0FF0001F0FF01FDE80445A0EB0100704724BAB4FA84F424F0070426FA04F1DDE9026722FA04F202F0FF0001F0FF01FDE80445A0EB0100704714F0030F3CD110F0030428D150F8082B51F8083B82FA4CF582EA0305A5FA8CF55DB950F8042C51F8043C82FA4CF582EA0305A5FA8CF5CD
S3FD080085E0002DE8D02DBAB5FA85F424F0070423FA04F122FA04F202F0FF0001F0FF01FDE80445A0EB010070474FEAC40420F0030050F8082B21F0030151F8083B0CFA04F462EA040263EA0403C9E710F003041AD0A1EB040120F00300E40750F8042B06D00FD28B785FFAA2F4E41A06D12BB1CB785FFAB2F4E41A00D11BB920465DF8104B704701F1040150F8042BCC0721F0030151F8043B48D824D222F07F4482FA4CF594EA1325A5FA8CF50AD165B951F8043B84EA0204B4EB036F0ED150F8042BEBE74FEA132355E035F07F454DD10878FDE80445C0F1000070474FEA126203F0FF0347E002EA1C4482FA4CF594EA1345A5FA8CF50AD165B951F82F
S3FD080086D8043B84EA0204B4EB034F0CD150F8042BEBE74FEA134330E015EA1C4528D10B884FEA124229E04FEA124203EA1C4324E002F0FF0482FA4CF594EA1365A5FA8CF50AD165B951F8043B84EA0204B4EB032F09D150F8042BEBE74FEA13630DE015F0FF0F05D10B684FEA122223F07F4304E04FF00000FDE80445704712BA1BBA82FA4CF482EA0304A4FA8CF5B5FA85F402FA04F203FA04F34FEA1260FDE80445A0EB136070470000000090F800F06DE9024520F007016FF0000C10F0070491F820F040F049804FF000046FF00700D1E9002391F840F000F1080082FA4CF2A4FA8CF283FA4CF3A2FA8CF34BBBD1E9022382FA4CF200F10800A4FA06
S3FD080087D08CF283FA4CF3A2FA8CF3E3B9D1E9042382FA4CF200F10800A4FA8CF283FA4CF3A2FA8CF37BB9D1E9062301F1200182FA4CF200F10800A4FA8CF283FA4CF3A2FA8CF3002BC6D0002A04BF04301A4612BAB2FA82F2FDE8024500EBD2007047D1E9002304F00305C4F100004FEAC50514F0040F91F840F00CFA05F562EA05021CBF63EA050362464FF00004A9E70000000001F0FF01102A2BDB10F0070F08D010F8013B013A8B422DD010F0070F42B3F6D1F0B441EA012141EA014122F007047FF000070023F0E80256083C85EA010586EA010685FA47F5A3FA87F586FA47F6A5FA87F68EB9EED1F0BC01F0FF0102F0070232B110F8013B013AD3
S3FD080088C883EA010313B1F8D10020704701387047002D06BF35460338073815F0010F07D1013015F4807F02BF013015F4C03F0130F0BC0138704700BF81F0004102E000BF83F0004330B54FEA41044FEA430594EA050F08BF90EA020F1FBF54EA000C55EA020C7FEA645C7FEA655C00F0E2804FEA5454D4EB5555B8BF6D420CDD2C4480EA020281EA030382EA000083EA010180EA020281EA0303362D88BF30BD11F0004F4FEA01314FF4801C4CEA113102D0404261EB410113F0004F4FEA03334CEA133302D0524263EB430394EA050F00F0A780A4F10104D5F1200E0DDB02FA0EFC22FA05F2801841F1000103FA0EF2801843FA05F359410EE0A5F158
S3FD080089C020050EF1200E012A03FA0EFC28BF4CF0020C43FA05F3C01851EBE37101F0004507D54FF0000EDCF1000C7EEB00006EEB0101B1F5801F1BD3B1F5001F0CD349085FEA30004FEA3C0C04F101044FEA445212F5800F80F09A80BCF1004F08BF5FEA500C50F1000041EB045141EA050130BD5FEA4C0C404141EB0101013C28BFB1F5801FE9D291F0000F04BF01460020B1FA81F308BF2033A3F10B03B3F120020CDA0C3208DD02F1140CC2F10C0201FA0CF021FA02F10CE002F11402D8BFC2F1200C01FA02F120FA0CFCDCBF41EA0C019040E41AA2BF01EB0451294330BD6FEA04041F3C1CDA0C340EDC04F11404C4F1200220FA04F001FA02F38A
S3FD08008AB840EA030021FA04F345EA030130BDC4F10C04C4F1200220FA02F001FA04F340EA0300294630BD21FA04F0294630BD94F0000F83F4801306BF81F480110134013D4EE77FEA645C18BF7FEA655C29D094EA050F08BF90EA020F05D054EA000C04BF1946104630BD91EA030F1EBF0021002030BD5FEA545C05D14000494128BF41F0004130BD14F580043CBF01F5801130BD01F0004545F0FE4141F470014FF0000030BD7FEA645C1ABF194610467FEA655C1CBF0B46024650EA013406BF52EA033591EA030F41F4002130BD00BF90F0000F04BF0021704730B54FF4806404F132044FF000054FF0000150E700BF90F0000F04BF0021704730B5CB
S3FD08008BB04FF4806404F1320410F0004548BF40424FF000013EE700BF42004FEAE2014FEA31014FEA02701FBF12F07F4393F07F4F81F06051704732F07F4208BF704793F07F4F04BF41F40021704730B54FF4607401F0004521F000411CE700BF50EA010208BF704730B54FF000050AE050EA010208BF704730B511F0004502D5404261EB41014FF4806404F132045FEA915C3FF4D8AE4FF003025FEADC0C18BF03325FEADC0C18BF033202EBDC02C2F1200300FA03FC20FA02F001FA03FE40EA0E0021FA02F11444BDE600BF70B54FF0FF0C4CF4E06C1CEA11541DBF1CEA135594EA0C0F95EA0C0F00F0DEF82C4481EA030621EA4C5123EA4C5350EA1C
S3FD08008CA8013518BF52EA033541F4801143F4801338D0A0FB02CE4FF00005E1FB02E506F00042E0FB03E54FF00006E1FB03569CF0000F18BF4EF0010EA4F1FF04B6F5007F64F5407404D25FEA4E0E6D4146EB060642EAC62141EA55514FEAC52040EA5E504FEACE2EB4F1FD0C88BFBCF5E06F1ED8BEF1004F08BF5FEA500E50F1000041EB045170BD06F0004646EA010140EA020081EA0301B4EB5C04C2BFD4EB0C0541EA045170BD41F480114FF0000E013C00F3AB8014F1360FDEBF002001F0004170BDC4F10004203C35DA0C341BDC04F11404C4F1200500FA05F320FA04F001FA05F240EA020001F0004221F0004110EBD37021FA04F642EB060137
S3FD08008DA05EEA430E08BF20EAD37070BDC4F10C04C4F1200500FA04F320FA05F001FA04F240EA020001F0004110EBD37041F100015EEA430E08BF20EAD37070BDC4F1200500FA05F24EEA020E20FA04F301FA05F243EA020321FA04F001F0004121FA04F220EA020000EBD3705EEA430E08BF20EAD37070BD94F0000F0FD101F00046400041EB010111F4801F08BF013CF7D041EA060195F0000F18BF704703F00046520043EB030313F4801F08BF013DF7D043EA0603704794EA0C0F0CEA135518BF95EA0C0F0CD050EA410618BF52EA4306D1D181EA030101F000414FF0000070BD50EA410606BF1046194652EA430619D094EA0C0F02D150EA0136FD
S3FD08008E9813D195EA0C0F05D152EA03361CBF104619460AD181EA030101F0004141F0FE4141F470014FF0000070BD41F0FE4141F4780170BD70B54FF0FF0C4CF4E06C1CEA11541DBF1CEA135594EA0C0F95EA0C0F00F0A7F8A4EB050481EA030E52EA03354FEA013100F088804FEA03334FF0805545EA131343EA12634FEA022245EA111545EA10654FEA00260EF000419D4208BF964244F1FD0404F5407402D25B084FEA3202B61A65EB03055B084FEA32024FF480104FF4002CB6EB020E75EB030E22BFB61A754640EA0C005B084FEA3202B6EB020E75EB030E22BFB61A754640EA5C005B084FEA3202B6EB020E75EB030E22BFB61A754640EA9C005C
S3FD08008F905B084FEA3202B6EB020E75EB030E22BFB61A754640EADC0055EA060E18D04FEA051545EA16754FEA06164FEAC30343EA52734FEAC2025FEA1C1CC0D111F4801F0BD141EA00014FF000004FF0004CB6E711F4801F04BF01430020B4F1FD0C88BFBCF5E06F3FF6AFAEB5EB030C04BFB6EB020C5FEA500C50F1000041EB045170BD0EF0004E4EEA113114EB5C04C2BFD4EB0C0541EA045170BD41F480114FF0000E013C90E645EA060E8DE60CEA135594EA0C0F08BF95EA0C0F3FF43BAF94EA0C0F0AD150EA01347FF434AF95EA0C0F7FF425AF104619462CE795EA0C0F06D152EA03353FF4FDAE1046194622E750EA410618BF52EA43067FF4F9
S3FD08009088C5AE50EA41047FF40DAF52EA43057FF4EBAE12E74FF0FF3C06E000BF4FF0010C02E000BF4FF0010C4DF804CD4FEA410C7FEA6C5C4FEA430C18BF7FEA6C5C1BD001B050EA410C0CBF52EA430C91EA030F02BF90EA020F0020704710F1000F91EA030F58BF994208BF90422CBFD8176FEAE37040F0010070474FEA410C7FEA6C5C02D150EA013C07D14FEA430C7FEA6C5CD6D152EA033CD3D05DF8040B704700BF8446104662468C461946634600E000BF01B5FFF7B7FF002848BF10F1000F01BD4DF808EDFFF7F4FF0CBF012000205DF808FB00BF4DF808EDFFF7EAFF34BF012000205DF808FB00BF4DF808EDFFF7E0FF94BF012000205DF851
S3FD0800918008FB00BF4DF808EDFFF7CEFF94BF012000205DF808FB00BF4DF808EDFFF7C4FF34BF012000205DF808FB00BF4FEA410C7FEA6C5C02D150EA013C0AD14FEA430C7FEA6C5C02D152EA033C02D14FF0000070474FF0010070474A0011D212F5001211D20DD56FF47873B3EB62520ED44FEAC12343F0004343EA505323FA02F070474FF00000704750EA013002D14FF0FF3070474FF0000070474FEA4102B2F1E04324BFB3F5001CDCF1FE5C0DD901F0004C4FEAC0024CEA5070B2F1004F40EB830008BF20F00100704711F0804F21D113F13872BCBF01F00040704741F480114FEA5252C2F11802C2F1200C10FA0CF320FA02F018BF40F0010007
S3FD080092784FEAC1234FEAD32303FA0CFC40EA0C0023FA02F34FEA4303CCE77FEA625307D150EA01331EBF4FF0FE4040F44000704701F0004040F0FE4040F40000704700BF53B94AB9002908BF00281CBF4FF0FF314FF0FF3000F0A4B9ADF1080C6DE904CE00F03CF8DDF804E0DDE9022304B0704738B50022002304460D46FFF733FF28B920462946BDE8384000F00AB8204605F1004100F005F8404261EB410138BD00BFD0B50C4B002206460F46FFF7A9FCFFF757FF0446FFF72AFC074B0022FFF7A0FC02460B4630463946FFF7E2FAFFF748FF2146D0BD0000F03D0000F0412DE9F047089D04468C46002B40F083808A42174647D9B2FA82F242B147
S3FD08009370C2F1200024FA00F09140974040EA010C94404FEA1748230CBCFBF8F61FFA87FE08FB16C143EA014306FB0EF1994209D9FB1806F1FF3080F01981994240F21681023E3B445B1AA4B2B3FBF8F008FB103344EA034400FB0EFEA64509D93C1900F1FF3380F00581A64540F2028102383C4440EA0640A4EB0E0400261DB1D4400023C5E900433146BDE8F08702B9FFDEB2FA82F2002A50D1CB1B4FEA174E1FFA87F80126B3FBFEFC210C0EFB1C3341EA034108FB0CF38B4207D979180CF1FF3002D28B4200F2E9808446C91AA3B2B1FBFEF00EFB101143EA014408FB00F8A04507D93C1900F1FF3302D2A04500F2D9801846A4EB080440EA0C4006
S3FD08009468BFE78B4209D9002D00F0B1800026C5E9000130463146BDE8F087B3FA83F6002E4AD18B4202D3824200F2B880841A61EB030101208C46002DA8D0C5E9004CA5E7C2F1200320FA03F6974001FA02F04FEA174ED9403043030CB1FBFEF61FFA87F80EFB161143EA014306FB08F1994204FA02F409D9FB1806F1FF3C80F08D80994240F28A80023E3B445B1A81B2B3FBFEF00EFB103341EA034100FB08F38B4207D9791800F1FF3C73D28B4271D902383944CB1A40EA064678E7C6F1200C03FA06F422FA0CF31C4320FA0CF701FA06F34FEA144E21FA0CF11F433B0CB1FBFEF91FFA84F80EFB191143EA014109FB08FA8A4502FA06F200FA06F3ED
S3FD0800956008D9611809F1FF3048D28A4546D9A9F102092144A1EB0A01BFB2B1FBFEF00EFB101147EA014700FB08F8B84507D9E71900F1FF312ED2B8452CD90238274440EA0940A7EB0807A0FB02894F45C64649461AD317D05DB1B3EB0E0267EB010707FA0CFCF2404CEA0202F740C5E9002700263146BDE8F0872E4628460BE70646E9E61846FDE64345E5D2B8EB020E69EB04010138DFE70846D2E760468DE78146B9E7664675E730464AE7ACF1020C394413E702383C4424E700BF704700BF4FEA410212F5001215D211D56FF47873B3EB625212D94FEAC12343F0004343EA505311F0004F23FA02F018BF404270474FF00000704750EA013005D13B
S3FD0800965811F0004008BF6FF0004070474FF00000704700BF7BB972B90029BEBF00204FF0004106E008BF00281CBF6FF000414FF0FF30FFF7C5BFADF1080C6DE904CE002909DB002B1ADBFFF759FEDDF804E0DDE9022304B07047404261EB4101002B1BDBFFF74CFEDDF804E0DDE9022304B0404261EB4101524263EB43037047524263EB4303FFF73BFEDDF804E0DDE9022304B0404261EB41017047524263EB4303FFF72DFEDDF804E0DDE9022304B0524263EB43037047D0B5FFF75BFA0C4B002206460F46FFF7ADFAFFF75BFD0446FFF72EFA074B0022FFF7A4FA02460B4630463946FFF7E6F8FFF74CFD2146D0BD0000F03D0000F04130B40546A4
S3FD080097500C460FCD0FC495E8030084E8030030BC704700BF0023C0E90633C0E90933C0E90B33C0E90D33C0E90F33036080F82030704700BFD1F89C3013B10433C1F89C30704700BFD1F8983013B10433C1F89830704700BF2DE9F0410C4684B00546164601F1A0082368D4F8982000921F68D4F89C1002AB42462046B847034602AA214628460BB9B047EDE704B0BDE8F08100BFD1E90C30184700BF90F880309BB9826E2AB9102380F88030D0E91E301847D0E91B139942F5D8436E33B10A4493428CBF11231023EEE77047CA420CBF1023112380F88030D0E91E30184700BF90F888309BB9C26B2AB9102380F88830D0E920301847D0E910139942D9
S3FD08009848F5D8836B33B10A4493428CBF11231023EEE77047CA420CBF1023112380F88830D0E92030184700BFC36B30B48BB1D0E91024A2420DD8846B1344ACB95A1C0BD0D0E90845E41845F10005C1E9004530BC7047836B002BF1D14FF0FF324FF0FF3330BCC1E900237047A34228BF2346E5E7C269136A43B19968C0E90131986083685BB1586010627047D369002BF3D1936913B183609061F4E790615062106270474FF07E50704700BF30B585B00A469DF80030BDF8044002F03F0523F03F032B4301466FF30A0402A88DF80030ADF80440FEF724FD6946002204480FF051FFA0F10300B0FA80F0400905B030BD00080020F8B504460F4616464D
S3FD08009940032523683146DB6820469847013DF8D123682021DB68204698473946204615F0DFFF051D4F2D074610D823682021DB68204698474B2F07F1050507D023680135DB68314620469847502DF7D123682046DB680A2198472846F8BD00BF10B53049044615F0BDFF2F492046252215F0B8FF2D492046382215F0B3FF2C492046202215F0AEFF2A4920461C2215F0A9FF29492046202215F0A4FF27492046902215F09FFF26492046042215F09AFF24492046242215F095FF234920462C2215F090FF21492046342215F08BFF20492046882215F086FF1E492046882215F081FF1D492046302215F07CFF1B492046382215F077FF1A492046382203
S3FD08009A3815F072FF18492046482215F06DFF17492046902215F068FF15492046902215F063FF002010BD00BFE04F0208F44F0208045002080050020810500208205002082C50020838500208485002085C500208705002088450020898500208AC500208B8500208C8500208D8500208E8500208F8500208FFF776BF10B50F49044615F033FF0E4A0E49204615F02EFF0D492046002215F029FF0C492046002215F024FF0A492046002215F01FFF09492046642215F01AFF002010BDF89B0208085102081851020820510208305102084051020850510208D2F8E012086870B5154620B1043113F0C9FAD5F8E0120B6B73B10024A826C96A06FB04F363
S3FD08009B30C818CB589B689847D5F8E0120B6B0134A342F2D870BD00BF10B500F1080104464068183013F0ACFA0020C4E90700606010BD00BF10B500F1080104464068183013F09EFA0020C4E90700606010BD00BF10B500F1080104464068183013F090FA0020C4E90700606010BD00BF2DE9F0410C46896A82B071B11646226894F8AA10D2F8048007461D4601AAD4F89C302046C047A36A13B102B0BDE8F081324638462146A84704F10C0013F046FB02B0BDE8F08100BF70B50C4601F1080605464160304613F0BBFBA36CEB615B682B6204F1180005F108014FF0FF33042213F080FA3046BDE8704013F027BB00BF2DE9F0470C4601F1080984B01C
S3FD08009C2880464846D1F840A015461F4613F09AFBA669002E3DD006F10C002E6013F092FB2968E0698B68A361002281428A602ED0206A814208BF2262626A91420BBF0023002263625A60BAF1000F05D0D1E90C125046FEF773FB2968CE6AD1E9082301F10C00C5E90223B6FA86F64B6B0393760913F0E6FA484613F0E3FA4046039B00962A462146B847012004B0BDE8F087E261D2E7484613F0D4FA30462E6004B0BDE8F08700BFF0B50E4683B007460C4625462468002CFBD107F10800019013F042FBBB6C01981A682A601E6013F0B9FA204603B0F0BD38B505460B4813F033FB0B4B1C6814B905E024681CB1A388AB42FAD304D1054813F0A4FAE3
S3FD08009D20204638BD0248002413F09EFA204638BD94160020B4160020F8B5044608680D460C3013F013FB2868C3699C4207D1D0E90867D5E902239F4208BF964209D00C3013F082FA2B68D869844214BFF120F420F8BD0020F8BD00BF38B50446C069083013F0F4FA636813B3A2689A60A268E069C169A14219D0056AA5420AD082B15360083013F061FA0023C4E90133E361A36238BD994214BF194600210162002AEED14362002BECD09A60EAE7C361E6E7E069A268826112B153606368D9E71346D7E770B500250446818005600830164611F0ABFB04F11803002204F1280104F12000A3610023C4E90800C4E90C23C4E91C23C4E91E231F48E56119
S3FD08009E18C4E90E65C4E91355C4E92055C4E92255E5622564A565A164A16213F09BFA184B1868A8B18188A28891420AD320D920601C60124813F00CFA284670BD83889A420DD9014600680028F8D10C600546F0E705460A481C6013F0FBF9284670BD07D02060002505480C6013F0F2F9284670BD0248E02513F0ECF9284670BD94160020B416002030B5044685B00C30039013F061FAE3690398F3B9A36AE3B9D4F8A420206BD1B218F080FF94F8AB30022B1CD00CD80022236800921D68D4F8A420D4F8981010232046A84705B030BD032BFBD1D4F89020EEE713F0BBF922680023556802211A462046A847D8E7A26CE2E700BF38B50C468907154648
S3FD08009F1006D422070BD4E30614D4D5F8E40238BDD2F8E032586BFFF7B9FF2207F3D5D5F8E0220A4BD16B284601F13002FFF76EFEE306EAD5D5F8E012054BCA6B496B28463032FFF723FED5F8E40238BDF9A10008C9A100082DE9F8430E468907144610D5D2F8E0329A6B62B10025B027586B07FB0500FFF78BFFD4F8E0329A6B0135AA42F4D832071AD5D4F8E022136CB3B1DFF8689000254FF0580808FB05F7D16B394401F130024B462046FFF730FED4F8E0220028F3D1136C0135AB42EDD8F30614D5D4F8E022936B83B10A4F0025B026516B3B4606FB051100222046FFF7D7FDD4F8E022916B0135A942F1D8D4F8E402BDE8F88300BF85970008D3
S3FD0800A008ADB5000870B50D468907144612D42A070BD5114ED4F8E022D16B334601F130022046FFF7F7FD0028F4D1EB0608D4D4F8E40270BDD2F8E032586BFFF72BFFE6E7D4F8E022054B516B20460022FFF7A2FDD4F8E40270BD00BFB5B400088597000808B5EFF30583C3F3080363B9EFF311832BB111F00BFCBDE8084011F003BBBDE8084012F075BFBDE8084011F0FFBB00BF10B5044B1C781CB903480221FFF7E0FF204610BDAC1600209016002038B50446EFF30583C3F308038BB9184BDB6873B19D68EFF311832BB3154B1A78E2B115480121FFF7C5FFEFF3118383B138BD104B1A7832B91C70BDE838400E480121FFF7B7BFBDE838400B48C0
S3FD0800A1000121FFF7B1BF2846BDE8384013F05ABD06481C700121FFF7A7FFE0E7BF2013F051FDD5E730DF0120AC1600209016002038B5836F0D4614468BB190F8802042B114B1204613F05AF82846BDE8384013F08BB8112280F88020C06F9847F0E71120FFF7A8FFECE700BF0078FFF7A3BF00BF08B5EFF30583C3F3080363B9EFF311832BB111F065FBBDE8084011F07FBABDE8084012F019BFBDE8084011F059BB00BF10B504460068C26A41630021C1612AB90C3013F059F80020206010BD806A1146FFF7D6FF2068F3E738B5D0F8E032D86B0C4620B111461546FFF7AEFD30B1D4F89C3013B10433C4F89C3038BD01462846FFF7D6FFF3E700BFEE
S3FD0800A1F8D0F8E032586B08B1FFF74CBE10B5084611461446FFF794FD00B110BD01462046BDE81040FFF7C0BFC36910B50446D3E90A01FFF7A1FFE069083013F019F804F10C00BDE8104013F013B800BF49B110B504460021204612F0FDFD34EA0003F8D110BD4FF0FF3112F0F5BD00BF10B5044620B10A49FEF71CF908B9012010BD20782D3803D0B0FA80F0400910BD6078733808BFA078B0FA80F04009F6E76051020810B513490446FEF703F9D8B111492046FEF7FEF8B0B110492046FEF7F9F890B10E492046FEF7F4F868B10D492046FEF7EFF850B10B492046FEF7EAF800280CBF0220032010BD012010BD022010BD00BF6C5102087051020822
S3FD0800A2F074510208785102087C5102088051020810B5044620B11949FEF7CEF808B9012010BD17492046FEF7C7F80028F7D015492046FEF7C1F80028F1D013492046FEF7BBF80028EBD011492046FEF7B5F80028E5D00F492046FEF7AFF80028DFD00D492046FEF7A9F80028D9D00B492046FEF7A3F8B0FA80F0400910BD00BF6C5102087051020874510208785102087C51020880510208845102088851020870B51B4C04F11005E161C0E901524FF080432669DD680660962A38BF962215F002057060206101EB02001BD1022658631D61DE60586A401A824200D970BD9620DD680130AD0701EB00060ED55E635D6A6D1AAA42F4D99628F0D9636AD7
S3FD0800A3E843F00103636270BD034810F07FFF034810F07CFF30DF01200C6802086868020838B505460C4611F0B7F9002D43D02B78043B012B3FD86B6ADA68920736D0DA6892073BD1186910F003002ED0D3F8C011D3F8C421D3F8C801D3F8CC5120612020656118611869850703D1586940F0100058612079C1F340031B01C1F3800520F0300043EA45130343980623712AD5A368C90861F31C03A3602379110A62F30303120C237121706280002038BD1A699507C5D1012038BD0E4810F028FFD3F8B011D3F8B421D3F8B801D3F8BC51206120206561D860D8688007CBD1586940F002005861C6E72389490D61F30A032381D3E784680208426A0B781D
S3FD0800A4E070B4946813F0200FC4F30164C3F3001318D048685B0043EAC00343F00403D1E90265087802EB041243F0010300F00F00C2F88401C2F88861C2F88C5170BCC2F88031704788885B0043EA4053E7E700BF70B5064611F09AF8134B9A68002A08DB1C689C421DD1551E002DA56006DB002070BD1968994214D0511E99606EB10B4AD26813605C685460D361314622600520BDE870405A6011F05FBB9A604FF0FF3070BD034810F0B6FEE4E2012030DF0120E867020808B511F0F3F8074B1868984208D002681A6000215360BDE80840C16111F03EB908BD00BF1C09002070B40D4D05F11006EC68334605E013F8011B10F8012B914206D1A34299
S3FD0800A5D8F7D3007810B9EE6070BC7047044BAB6040F20112AA80012070BC70478CE101208C5102084FF08043091A5B6A181A884201D200207047044B044A9A6040F201129A800120704700BF8CE10120A051020808B507EE900A2DED028BFBEECB7A9FED098A094B67EE887A002908BF194617EE900A884707EE900A87EE880ABDEC028B08BD00BF0000C842C9010208734A7449136940F2FF100343F0B413611369714E714D724C23F4FF7323F0010313611369136B03431363136D03431365176D6C4800234FF0FF3C4FF6FF774B60C1F808C0CE604F610D62674D4D62674D0D6049F608714FF400156160C4F808C0E36067612562624D6562624D96
S3FD0800A6D025604FF2882444604EF6FF64C0F808C0C36044614FF4EE445C49036244625C4C0460042048605B48C1F808C05A4EC8605A4D5B4C4F6110200B624B6208605948736001F5A051B360F36073613362736233606B60A6F5D036AB60EB606B612B626B622B606360A360E36063612362636223600F2443604FF0805584604FF44044C36047610362436203604B608B60CB604B610B624B620B6015643460136843F00103136013689E07FCD591682D4B21F0030191609A6812F00C02FBD11868294900F0F90018609A601A6842F480321A600B689D03FCD54A6F224B42F001024A675A6F9407FCD5304A5A601A682F4942F080721A604B685804D7
S3FD0800A7C8FCD51A4B1A689201FCD52B492B4A996012682B4B9A421ED02A4B40F205721A60284A136803F00F03052BFAD10F4B9A6842F002029A609A6802F00C02082AFAD15A6C42F480425A645A6E42F480425A66F0BC5B6E70471C4A1C4B12689A42DBD1184B40F205121A60DAE700BF0038024000000240040010000077505500040240000802407097090080A8A92A444470075C08AA49000C02404040A45545555555001002400014024000180240001C0240085440070070004000948838002004E011640020003C024000ED00E041C20F412DE9F041054614F0FBF9514B5A68D3689906FCD5D2F82880146856689768D36823F02003D36014F01A
S3FD0800A8C043FA4A484A4BDFF848C14A4AC4F3034100FB01F0C4F3015103FB010004F00F014FF47A7303FB0101C4F302330CFB031102FB08F2C4F303234EF6602000FB0313C4F3021442F2107102F5792201FB043302F61842DFF8FCC037493848384C03EB922323F07843C6F30032ACFB03C39B094FEA820C9444A1FB03E1C6F30322C90A02EB4C024FF4616C0CFB1133C6F3011C0CEB8C0C06F00F0802F00F02A0FB03E0013A08EB4C08C6F3035C4009C7F380470CEB8C0CA960C6F3034134F812E02F6208F01F04C0EB001701EB4C0C5FFA8CF1A3EB8703C6F34236671EC5E90030013E774401F1500C8B07C5E90342C5E90667C5F814C001F2BC708E
S3FD0800A9B80CD1124B124903FB00F3B1EBB30F05D2012A01DD0137EF61BDE8F0810B4B0D4903FB00F3B1EB331FF2D2BDE8F08100BF3814002080EE36000051250218FCFFFFC5B3A29189888888546A0208295C8FC2285C8F020AD7A300C0270900D34D62101A4A4FF0804312685B6A9B1A01334FF00001494170B54A015C01E41A42EAD36262EB01026502520242EAD452EC1841EB02029601A50146EA94662C1B66EB0202E31842EB0101044613F1FF30084A41F1FF310023FEF724FC064AD2E90032C31842EB0101C4E9003170BD00BF5016002040420F008816002010B5124CD4E910239A420DD204F13800002110F0F7FE236C013304F130002364E3
S3FD0800AAB0BDE81040FFF7B0BF10F062FE236813B1204611F025F800220023C4E908230448BDE81040002110F0DDBE00BF40D701207CD701202DE9F043044683B010E0DDE90089D4E90623994508BF90454FF0000020D3D4E90A319847D4E90823134332D06846FFF781FFD4E9080150EA0103E6D0D4E9062352EA0305DDE9008906D110EB080241EB0903C4E90623DCE7994508BF90451BD2B2EB080663EB090700236FF00202BB4208BFB24216D210F011FE236813B1204610F0D4FF204A234620466FF0020111F00DF803B0BDE8F083121841EB0303C4E90623B6E77B017201921B43EAD66363EB070351025B0243EAD2538A1947EB03039901900112
S3FD0800ABA841EA9261821A104861EB0303921947EB03030021101843EB01010C4A0023FEF777FB054610F0D8FD236813B1204610F09BFF074A29462346204610F0D5FF03B0BDE8F08361AD00083F420F0040420F0029AD00082DE9F8431E4CD4E91030834227D20A46DD1C991CD4E90C8905FB01F54FF47A766D08013306FB05F518EB050806FB03F6236449F100091660124BE262204600260027C4E90689C4E90867A362FFF74CFF04F138000021BDE8F84310F01DBE10F091FD236813B1204610F054FF00230022C4E908230448BDE8F843002110F00CBE40D70120FDAB00087CD701202DE9F843234CD4E91030834231D25F1C0A4607FB03F5D4E950
S3FD0800ACA00C014FF47A766D0806FB05F5401941F100012764C2E90001991C033303FB01F3D4E90C015B0806FB03F3C61841F10007134BE26220464FF000084FF00009C4E90667C4E90889A362FFF7FCFE04F138000021BDE8F84310F0CDBD10F041FD236813B1204610F004FF00230022C4E908230448BDE8F843002110F0BCBD40D7012089AC00087CD7012010B582B00C460190302383F3118811F087FBD4E90A3101989847D4E90823134306D111F06BFB002383F3118802B010BD2046FFF7C3FEF4E700B583B03023019183F3118811F06CFB0198FFF7B7FE11F055FB002383F3118803B05DF804FB00BF2DE9F04D82B080466846FFF741FED8E9B1
S3FD0800AD980023DDE900459D4208BF944241D26FF0020A4FF0000B0CE010F042FF6846FFF72FFED8E90023DDE900459D4208BF94422FD2161B63EB0507BB4508BFB2456FF002014FF00800E7D37B017201921B43EAD66363EB070351025B0243EAD2538A1947EB03039901900141EA9261821A0A4861EB0303921947EB03030021101843EB0101064A0023FEF74BFA0146082010F007FF02B0BDE8F08D3F420F0040420F00F8B5302383F3118811F0CAFE694A1078431E012B00F2CB80674951604C68946000230128D3607CD0D069036043638363C3630364436250690D68B0FBF5F35F1EB7F5803F80F0A68003FB05F3984240F0A180CD68D669C86AE9
S3FD0800AE90B76205F00F03013C012BF462706077D0022B76D000234C6904F00F00012803D0022803D143F0200343F01003C86900F00F07012F03D0022F03D143F4007343F480734F6A07F00F0CBCF1010F04D0BCF1020F03D143F4005343F4805392F818C0BCF1000F50D005F0F005102D03D0202D03D143F0080343F0040304F0F004102C03D0202C03D143F0800343F0400300F0F00010284BD0202847D007F0F007102F03D0202F4DD143F40043486B43F48043336220F0FF000124002374613361F0600B6B43F40043736427E0264BD569186C40F002001864186E40F002001866186E186A40F002001862186A20F0020018621B6A1D4B536146F6EA
S3FD0800AF886800A861E8616EE7002343F0010386E7496B336221F0FF0301217161C6F810C0F360852333600223137014F0C3FC0020F8BD43F4006307F0F007102F43F48063B3D1B6E70B4810F091F9486B3362012420F0FF03002074613061F360B4E7064810F084F9181400203C0900200038024000BD01051C6802084468020808B5302383F3118811F0E4FD124B1A78511E01291DD8022A08D0012100221970DA605A60BDE8084014F086BCDA69187E00211160D160116100B15164074A116C21F002011164116E21F002011166126EE3E7034810F04CF918140020003802406068020838B504460D46302383F3118811F0B0FD10F082FBA368002B68
S3FD0800B08023680FDB9C4208BFA56023D110F0FEFA11F092FD114B1A689A4213D1002383F3118838BD9C4215D0A5606FF001056068436863601C6010F0BBFBC56123689C42F5D1E3E7D96893688A689A42E6D2044810F010F9034810F00DF900BF30DF01204C670208C467020870B5302383F31188224C11F071FDA3682068002B15DBA04238D15A1C002A8260C8BF836011DD10F0BDFA1B4D002411F04FFD2B68AB4221D1002383F31188204670BDA04222D00133A360036823605C6010F07AFBA3680022013B9342C261A360E1DA0D4DEE6834606368736005201E60F461666010F0DEFAF469D8E7EA689B6892689A42D8D2054810F0C0F8044810F0CC
S3FD0800B178BDF800BFE4E2012030DF01204C670208FC67020808B5302383F3118811F020FD0D4B1868984205D002681A605360002110F082FA11F004FD084B1A689A4203D1002383F3118808BDD96893688A689A42F6D2034810F092F81C09002030DF01205867020870B5302383F311880D4C11F0F7FCE56810F0C8FA00236E6A6B6211F0DFFC2368A34204D1002383F31188304670BDE2689B6892689A42F5D2024810F06DF800BF30DF01206467020870B5144D3023EE6883F3118811F0D2FC706A70B1444220EA04037362044011F0B9FC2B68AB420CD1002383F31188204670BD4FF0FF330A20F36110F05DFA706AE8E7EA689B6892689A42EDD25A
S3FD0800B270024810F03FF800BF30DF01206467020870B5124C3023E56883F3118811F0A4FC6E6A5EB100236B6211F08EFC2368A3420CD1002383F31188304670BD4FF0FF33EB610A2010F032FA6E6AEBE7E2689B6892689A42EDD2024810F014F830DF01206467020838B5134C3023E56883F3118811F07AFC6B6A03F00502052A05D00523EB610B2010F012FA6B6A23F005036B6211F05AFC2368A34204D1002383F31188052038BDE2689B6892689A42F5D202480FF0E8FF30DF01206467020870B586B0044601F52A75002001911D49029505941D460392206000900491302383F3118811F042FC684610F023FA064611F02CFC144B1A689A421BD1E5
S3FD0800B368002383F311880A9820610B981049114A60610C98E0612384A160A2610E486660E56011F0EFFF0D4B0B481A6822601C6011F066FF06B070BDD96893688A689A42DED207480FF0A2FFE909010830DF012045B600080D9B000894160020A41600204067020870B592F82050013D164684B004460A460B2D11D8DFE805F014101016181A1010101C1E060C4B0093CDE901442346214604F52A70FFF794FFC4F8E06204B070BD064BF0E7064BEEE7064BECE7064BEAE7064BE8E7064BE6E70DA0000841B40008A1BF0008DDBF000841C00008099F0008659F0008D0B58B0782B0144603D4D4F8E40202B0D0BD302383F3118811F0BEFB6846FFF7C2
S3FD0800B460DBFA11F0A9FB114B1A689A4216D1002383F31188D4F8E0229169DDE90067D1E90001B94208BFB042D16938BF331A41F8043BD4F8E402D16102B0D0BDD96893688A689A42E3D202480FF024FF30DF0120B86702082DE9F0470C4682B0C96C9DF8287015469946002945D0302383F31188DFF8D4806E4611F07FFB3046FFF79CFA11F06AFBD8F8003043454BD14FF0000C8CF31188D5E90223DDE900018B4208BF8242E36C34BF821A624643F8042BE364A26C3023D2F800A083F3118811F05CFB3046FFF779FADDE9002312EB0A0243F100033046CDE90023FFF726FC11F03CFBD8F80030434526D1002383F3118837B102B0BDE8F087DFF872
S3FD0800B55850806E46D8E729462046FEF7E9FB0028F2D12B68216C186B4A46FCF7F7FE49462846FEF711FE02B0BDE8F087D8F80C209B6892689A42ADD204480FF0AFFED8F80C209B6892689A42D2D2F5E7B867020830DF01202DE9F0430C4683B0C96C9DF8287015461E46F1B1302383F3118811F007FB6846FFF724FA11F0F2FA194B1A689A4227D1002383F31188D5E90201DDE900894945E26C08BF404538BFA8EB000342F8043BE26417B103B0BDE8F08329462046FEF795FB0028F6D12B68216C186B3246FCF7A3FE31462846FEF7BDFD03B0BDE8F083D96893688A689A42D2D202480FF05CFE30DF0120B86702082DE9F04F0D46D1F8E01285B0EC
S3FD0800B6500B6801900022C5F8E42263B10431184602224FF0FF3311F053FDD5E9B81343F00203C5F8E4328B6A83B100244E6A04EB440706EBC7030134988AFEF737FBD5F8E01246F837008B6AA342EFD80B6B002B00F0A180DFF838A4DFF820940027CA6AA82606FB07F6941994F8A630032B00F28780DFE813F0EF00D5006400040042F806A00023002100224FF0FF3BC4E91012C4E91212C4E90733C4E90933C4E91433C4E91633C4E91833C4E91C33C4E91E336360A36684F88030B4F8A400C4F86CB0FEF7F4FAD5F8E022D26A32440646D2E92210D2F8903063678032002306F10808C4E91910E267236784F88030C4F86CB06660C4F878904046A5
S3FD0800B74811F010FEB26C336D5168C4E9072123B9C8E1596F626F914203D218465B6A002BF7D16362446206F1180004F108014FF0FF33042211F0C8FCF36901334046F36111F06EFD20E04FF00008C94B93514FF0FF3BC4E90788C4E90988C4E90BB8B4F8A400C4F80480FEF7A5FAD5F8E032DB6A1E44D6E90D320146C4E90A2B6362C4F830802046FEF70AFAD5E9B8130A6B013743F00403BA42C5F8E4323FF664AF0B6C002B00F086800026DFF8F092B14F3446B04612E06ED94AF80B303846C9F8006011F02EFDD5E9B8130A6C08F1010843F008034245C5F8E4326BD9019BD1F83CA05A680092582303FB08FB0AEB0B0606F10800B6F850304AF825
S3FD0800B8400B40B3800FF080FE009A0823C6E90A23C6E90644C6E90844384611F087FDD9F80030002BCDD09A88B08882422CD3C5E7934B93510023C4E90733C4E909336360B4F8A400FEF73AFAD5F8E032DB6A1E4406F13003F26A0146C4E909232046FEF7A1F995E7874B93510023C4E90733B4F8A4006360FEF722FA01462046FEF792F986E79A8890420FD99C461B68002BF8D1CCF80060384611F0C7FC97E7384611F0C3FCC6E90A4491E7F8D04AF80B303846CCF8006011F0B8FC88E78B6B002B00F0F78000224B6BDFF8DC91DFF8DC810092009AB02606FB02F69C1994F8AB20032A32D8DFE802F097AC7702D4F8A02001920027654AD4F894A07A
S3FD0800B9389A5104F10C00C4E901770FF001FE00200021C4E90801C4E91801C4E91A015D49019A226304F18803C4E90A77C4E90D77C4E91177C4E91C77C4E91E77C4E920134FF0FF30E761C4F83CA084F8887020644C4FD5F8E0325C6B34443846B4F8A8A011F0E8FCD9F800B0BBF1000F05D10BE0DBF800B0BBF1000F06D0BBF804209245F6D801D04FF0000B384611F051FCD5F8E022C4F898B0536B9919D1F89810002953D1302383F3118811F0FAF802A8FFF717F8DDE9023213F57A7342F1000202A8CDE90232FFF7C4F911F0DAF8D8F8003043454BD1002383F31188BAE700272E49D4F8A020D4F84CA0995104F10C00C4E9017701920FF08CFDA8
S3FD0800BA30019A22634FF0FF3100220023C4E90A77C4E90D77C4E90823E761C4F83CA06764216499E71F4AD4F8A0A09A510027C4E9017704F10C000FF06FFD00220023C4E90A77C4E90CA7C4E90823E76184E7164AE9E70098D5F8E412926B013041F0100182420090C5F8E4123FF63AAF084605B0BDE8F08FD8F80C209B6892689A42ADD20A480FF01FFC00BFE469020894160020206A02080C6A0208F069020869A10008DC690208046A0208186A0208B8670208F8690208A816002030DF012034653EE6D5F8E40205B0BDE8F08F00BF10B53023044683F3118811F067F80FF039FE236813B120460FF0FCFF00220023C4E9082311F04AF8084B1A6887
S3FD0800BB289A4205D1002383F31188C4E90C3310BDD96893688A689A42F4D202480FF0D6FB30DF0120AC670208D0B5C0E90C23D1E900670446302383F3118811F039F80F4BA36200210020C4E90801C4E906672046E462FEF7B3FF11F01BF8094B1A689A4203D1002383F31188D0BDD96893688A689A42F6D203480FF0A9FB00BFE197000830DF0120AC670208F0B500F108010546406883B0183011F077FA6868083011F0D1FB05F12800FFF795FF6868046D0023A5422B662AD02346646AAC42FBD16A6A5A62846C2A6A636800219A4269620AD0EB691B689A69013A002A08BF01219C429A61F6D169B9C369013BC361083011F027FB0020C5E9070095
S3FD0800BC20C5E91E00686003B0F0BD203011F0E6FA6868ECE76B6A036593B15B6F83B1816CAA6FD1E90267F61847F10007CDE90067583052B1084A2B466946FFF779FF02E05830FFF74BFF6068BFE7044A12236946FFF76EFFF7E700BF81BC0008B5A00008F0B5436A83B0044683B14068596F856C9A6FD5E90267761847F10007CDE90067583072B10A4A6946FFF752FF94F880302BB9122384F88030D4E91E30984703B0F0BD044A12236946FFF742FFEEE700BF81BC0008B5A000082DE9F04F83B005469DF830B000688A4691461E460830BBF1000F1BD011F03AFB2C68A36CD3F80080D8F81830D8F8047003B3BBF1020F40F0CB8004F1200011F0F3
S3FD0800BD182FFA831C00F0B180002800F0AE8080480FF0E4FA11F0F4FA002800F0E7802C68A36CD3F80080D8F81830002B40F0B080D8F8047047B1D6E90023D8E902018B4208BF8242C0F0D680A76CD7E90083002B00F0A680D6E90001D7E90223994208BF904280F09D80D8F800303B6001E01F461B685A68002AFAD0D3E902BC614508BF5845F4D2C8F80030C7F80080A36C276D984500F08880E36CD8F81000D6E90012013308BF0123E364C8E90212C8F8043051464A46FCF7CAFAA36CC8F81490984516BFD8F80030E3699B69C8F81830002F3ED0DFF84891DFF840A12DE0D7E91B218A42D7F864E02CD803EB020CBEF1000F28D0E64526D8F446AA
S3FD0800BE103B6E3BB1D3E90201D6E900238B4208BF824213D2D6E90023B96F12EB0C0243F10003CDE90023002959D03B464A46694607F12800FFF784FEC7F860807F6A5FB1BB6E002BCED1D7F864E0F446BCF1000FD6D17F6A002FF3D104F118000021FEF7FBF82868083011F0F7F9002003B0BDE8F08FD8F804302C68BB421CBFA36CD3F80080D8F8183018BFD8F80470002B7FF438AFD8F8047051E704F1080011F0DCF9E22003B0BDE8F08F276DC4F84880002F3FF475AF796F00293FF471AFD6E90023B86F521843F10003CDE90023E0B1134A3B46694604F15800FFF732FE5FE7F4450CBF102311235246694607F12800FFF727FEA1E7E12003B0DE
S3FD0800BF08BDE8F08F04F1080011F0AAF9E420CCE7054A1223694604F15800FFF715FE42E72467020881BC0008B5A00008E997000810B5436884B004463BB1027A0092D0E90312FFF7C5FE04B010BD302383F3118810F03EFE02A8FEF75BFD10F029FE0C4B1A689A420CD1002383F31188237A0093D4E9031202AB2046FFF7AAFE04B010BDD96893688A689A42EDD202480FF0AEF930DF0120B867020838B515468A070C4604D4630709D4D5F8E40238BDD5F8E032586AFFF7BDFF6307F5D5D5F8E032044AD96A2846FDF7EAFBD5F8E40238BD00BF7DC00008F8B515468A070E4611D5D5F8E0329A6A6AB100245B6A04EB440003EBC000FFF79DFFD5F8BA
S3FD0800C000E0329A6A0134A242F2D8730713D5D5F8E0321A6B7AB1094F0024A826D96A3A4606FB04112846FDF7BDFBD5F8E032196B0134A142F2D8D5F8E402F8BD9597000838B515468A070C4604D4630709D4D5F8E40238BDD5F8E032586AFFF76DFF6307F5D5D5F8E032044AD96A2846FDF79AFBD5F8E40238BD00BF95970008D0F8E032986A10B50C4630B9D4F8983013B10433C4F8983010BD586A4260FFF74DFFF3E72DE9F0410446406882B00830884616461F4611F05BF96068856C696800293BD0226AC36C9A4237D0C4E907511FB1D5E90201C7E90001B8F1000F04D0D5E904124046FCF73FF90EB16B693360089BDBB1302383F3118810F0D9
S3FD0800C0F86FFD6846FEF78CFC10F05AFD144B1A689A421CD1002383F31188D5E90201DDE90067B942089A08BFB04238BF331A13606068083011F09CF8012002B0BDE8F081083011F095F8002002B0BDE8F081D96893688A689A42DDD202480FF0CFF800BF30DF0120A067020830B585B003AC00940446FFF799FF08B3636A13B1039A93421FD3A26A92B1D4E90B018842039B04D898421DD9CD1AAA4215D39942E362194602D221638B4210D88A420ED3089B13B1089A039B1360002005B030BDE52005B030BD1020F8E7994204D3112005B030BD994205D2191A8A4219460346E2D3E0E71946E1E710B582B0049C0094FFF75CFF00280CBFE5200020DC
S3FD0800C1F002B010BD10B582B0049C0094FFF750FF00280CBFE520002002B010BD2DE9F04F2DED028B0446406887B00830CDE901238B46129F11F0A2F86068226A836C59688A4200F0B780E1694868824200F0AA80D3F80080D8F804202AB94246126851680029FBD0904600251297A9462F46454604F128029D42524EDDF8488008EE102A4FF0300A5CD0AB69013B002B08BF0127AB618AF3118810F0A7FC04A8FEF7C4FB10F092FC3368B34271D189F31188D5E90223DDE904018B42236E08BF824234BF821A0022AB4224D0B8F1000F01D0C8F80020A36E6BB3D4E91B10814222D8914245D9A0EB020C63451CD2904202D2501A83421BD2AB69616803
S3FD0800C2E8002B50D0002220460831FDF71DFF112007B0BDEC028BBDE8F08F18EE100A0392FFF7F8FB039AC4F86090D1E79042E26603D211468A422267E0D36068836CAB421FD02D689D42A2D16B680299C4E9075319B1D5E90223C1E90023BBF1000F04D0D5E904125846FCF709F8019A002A8ED06B6913608BE79042BDD36068836CAB42DFD1B7B9083010F07BFF002007B0BDEC028BBDE8F08FF2689B6892689A4288D20A480EF0B3FF01F12002ACE7D1F800805DE7203010F02EFF6068E3E7083010F05FFFE520A4E700BF30DF0120A06702082DE9F0470546406882B0083099460A9F8A46904610F0CEFF68682C6A866C73689C4200F0C280EA698F
S3FD0800C3E053689C4200F08D803468606818B9246860680028FBD0C5E90740B9F1000F03D0D4E90223C9E90023BAF1000F04D0D4E904125046FBF7A6FFB8F1000F02D06369C8F80030A369013BA361302383F3118810F0D2FB6846FEF7EFFA10F0BDFB5A4B1A689A4240F08280002686F31188D4E90223DDE900018B422B6E08BF824238BF861AA3422DD007B13E60AB6EFBB1D5E91B218A4214D8B24246D8B14217D2B11A8B4211D26A68A36902F10801002B66D120322846FDF74CFE112002B0BDE8F087B142EE6603D2324696422E67EAD3A36913B36868083010F0D7FE002002B0BDE8F0876B689B6CA34262D0AB6E22682A6603BB696EA86FD2E9A5
S3FD0800C4D80223521843F10003CDE9002300285AD0304A69462B4605F12800FFF72DFBB6E76868203010F07EFED7E71468606876E7881B8342C8D2B142B5D3B7E7D5E91BE18E45DAD8696E29B303EB0E008142D5D9D2E90223A96F121843F10003CDE900230029D5D105F1280011231B4A6946FFF703FB8CE7D96893688A689A42BFF478AF16480EF0CBFE002297E7083010F080FEE520A7E7D2E902017344C018AA6F41F10001CDE90001002AB2D1002B0CBF1023112305F12800D8E705F12800FFF7B2FA00232B6663E705F128001023CDE700BF30DF0120E9970008B5A00008A06702082DE9F0430446406883B0083016461F46DDF82880894610F033
S3FD0800C5D0CDFED4E90732586890423CD063689B6C1D686B68C4E907531FB1D5E90223C7E90023B9F1000F04D0D5E904124846FBF7B1FE0EB16B693360B8F1000F1BD0302383F3118810F0E0FA6846FEF7FDF910F0CBFA154B1A689A421ED1002383F31188D5E90201DDE90067B94208BFB04238BF331AC8F800306068083010F00DFE012003B0BDE8F0836068826C9A42C0D1083010F002FE0020F3E7D96893688A689A42DBD202480EF03EFE30DF0120A067020830B585B003AC00940446FFF795FF10B3636A13B1039A934220D3A26A9AB1D4E90B018842039B04D8984219D9CD1AAA421ED39942E36206D21A469342226302D9112005B030BD089BFE
S3FD0800C6C813B1089A039B1360002005B030BDE52005B030BD1020F8E79942F0D2191A8A42EAD31A460346E4E79942F7D3E4E700BF10B582B0049C0094FFF75AFF00280CBFE520002002B010BD10B582B0049C0094FFF74EFF00280CBFE520002002B010BD2DE9F041174810F01DFE174B1C68CCB1164E30274FF00008656887F3118810F047FA2B7E022B12D1284600210EF0ACFF10F02EFA3368B3420CD188F311882468002CE9D1BDE8F041064810F079BD08480EF0BCFDF2689B6892689A42EDD205480EF0B4FD94160020A416002030DF0120DC670208406702082DE9F041044682B016461F46002943D000F10C0840460D4610F0D8FDE369002B0D
S3FD0800C7C05CD0022D40D12046FDF7D6FA4FF0F108302383F3118810F0FFF96846FEF71CF910F0EAF9394B1A689A4261D1002585F31188DDE90001D4E908238B4208BF824238BF851A04F14800FFF778F90EB1636B336007B13D60B8F1000F23D1E36B0BB3D4E910218A422CD8AA4249D9481B834227D2A94246D32BE000F10C08404610F06BFDA8B1E369CBB1404610F00DFD4FF0F108404602B0BDE8F0811120FDF72AFC4FF0110800234046A36202B0BDE8F0814FF0F208404602B0BDE8F0814FF00008A6E7A9422564EDD22A4695426564E9D2D4F88030002BE0D094F888204FF01108002ADFD1D4F8840084F888809847D9E7D96893688A689A4226
S3FD0800C8B898D205480EF01AFDA942CFD2A91A8B42E2D3DEE730DF0120946702082DE9F043044683B016461F4600293AD000F10C0840460D4610F03EFDE369002B55D0022D37D12046FDF73CFAF125302383F3118810F066F96846FEF783F810F051F92F4B1A689A424CD1002383F31188DDE90089D4E90801494508BF404538BFA8EB000307B13B6025B9A26BDAB19A4219D210250023A3628EB1636B3360284603B0BDE8F08300F10C08404610F0DAFCC0B1E369DBB1404610F07CFCF125284603B0BDE8F083E26B002AE3D0D4E9101081420ED899421DD9C71ABA4209D298421AD30DE0F225284603B0BDE8F0830025ADE798422364CDD219468B42EC
S3FD0800C9B06364C9D21125C7E7D96893688A689A42ADD205480EF096FC9842BDD2581A8242F0D3ECE730DF0120946702082DE9F041044682B017469846002936D000F10C0630460D4610F0BAFCE369002B3DD0022D33D12046FDF7B8F9F1250023A3620FB1636B3B60B8F1000F1BD0302383F3118810F0DAF86846FDF7F7FF10F0C5F81A4B1A689A4228D1002383F31188D4E90801DDE90067B94208BFB04238BF331AC8F80030284602B0BDE8F08100F10C06304610F05AFC58B1E3693BB1304610F0FCFBF125284602B0BDE8F0810025C5E7F225284602B0BDE8F081D96893688A689A42D1D202480EF02EFC30DF012094670208FFF79CBF70B504466D
S3FD0800CAA800201D46C4E90100E1611646302383F3118810F08DF804F12000FDF7A9FF10F077F80D4B1A689A420DD1002282F311883DB1EFF30581C1F3080101B9DA68C4E90A25666370BDD968926889689142ECD202480EF0FBFB00BF30DF012094670208F0B5044685B00D460A9EFFF7C7FFE26BA663B2B1D4E910318B4212D813448EB1B3420FD3D4E90823D4F88010921943F10003CDE90223002948D104F1480010236BE03346002B37D105F1080010F00AFCE369DA69002A41D069462046FCF784FEE36902A99869FCF77FFEDDE90067DDE902239F4208BF96420BD23BE08068FCF773FEDDE90223DDE900679F4208BF964230D3E369DA69824234
S3FD0800CBA002A9EFD182686060DC61002A4AD0A260546084602046FDF733FB002005B0F0BDD4E90801D4F88020C01841F10001CDE9020102B31E4A234602A904F14800FEF7B7FFB5E79A690AB3A2602046C3E906445460FDF715FB002005B0F0BD20B34368A060E3B163609C6044602046FDF708FB002005B0F0BDB3420CBF1023112304F148000C4A02A9FEF793FF91E720469C615C62DC61FDF7F4FA002005B0F0BDE3699C61E1E75C62B4E7E369D869AAE700BF2D980008B5A0000870B504460D46049EFFF720FF05F10800A66310F07FFB2046FCF722FEFDF7D4FA002070BD38B50D460446FFF70FFF05F1080010F06FFB2046FCF712FEFDF7C4FAD4
S3FD0800CC98002038BD38B504460D46FFF7FFFE05F1080010F05FFBE269536A3BB1636020469C605462FDF7B0FA002038BD204694615462FDF7A9FA002038BD00BF2DE9F04F2DED048B87B01F469DF85030032F09EE101A09EE902A08EE903A054600F23B819E4BDA5D13469E49284612F00DFE9D4B9D4A9E4918EE900A002808BF1A46284612F002FE9A49284612F0FEFD994AA2EB82035B00A3F56A33A3F51B730026059302F5BA63029601240393DFF884924FF000081FFA88F14846002208F10108FDF743F8A04509F19009F3D18B4B002202211A820132A242C3E902661E60197103F11803F5D1854BDFF84CC2DDF808E00022A8460DE0012F1DD006
S3FD0800CD900132A242C3E91B065E67A3F8781083F87A7003F1A80314D07B48724518BF0020022F91B206D0032FE8D1784D5D66C3E91755E5E7754DC3E90255E1E7C3E900C6DEE7DFF8CCA17048DFF8B09145464FF0000B4FF47A72002115F0EAFF08EE105A04970AF68C585F46DDF814B024E04FF00403A7428AF8203004D20123CAF82480CAF828300125C8EBC8035B44CAF830505246BE2148464FF0040501378AF82050CAF82C30FEF7CAFAA7421DD80AF1440A09F53A7908F118085046FCF78BFC002FD5D1534B534D1D600123CAF8283052464FF00403BE214846CAF824808AF820300127FEF7ABFAE1E7049FFFF755FC19EE100A4FF0FF310FF028
S3FD0800CE88E1FF474AFA23C2E9106318EE105A302383F311880FF09CFE4148424B42F21072C0E90A364FF0000800234FF00009C0E90823C0E90689FDF711FE0FF079FE3A4A1368934247D186F3118818EE901A19EE900AFDF7B3F9DFF8AC80FDF7D9F8DDF80C90D8F8AC0208F53A7810F05FFFC845F7D12E492E482F4A2F4B0E60067000216FF0FF0016601E600FF09CFFDFF8B880DFF8B8B04FF0000958F8043F009309F101094B4622465946284612F0F5FCB9F1FA0FF1D1029B01330293039B013403F53A73332C03937FF4F8AE002007B0BDEC048BBDE8F08FD2689B6892689A42B2D216480EF0C3F900221346C4E620670208C8510208BC5102085C
S3FD0800CF80B45102080C5202081C520208B816002080B800207CD9002020FA002040420F00F0AA002078D7012040D7012091AA000830DF0120A4160020AC160020B4160020A81600208867020830BD0020E99800081CFA0020746102082DE9F04F2DED048B0D4687B09B499C4CDFF8B0829B4FDFF8B4921E4608EE102A08EE903AAA46054612F08EFC964B974A9749002E08BF1A46284612F085FC9549284642F2107212F07FFC0023CDF8108009EE105A04F5BA6B0593D04654E0002383F31188D7E90C3213F57A7642F1000A302383F311880FF0C3FD874D874BBB6200210022C7E908127E48FD62C7E9066AFDF73CFD0FF0A4FDD9F800304B4540F051
S3FD0800D078AA80002383F311887D4E18EE901A18EE100AFDF7DBF83378112B02D1059B01330593FCF7FDFFD4F8AC0210F087FED4F8940510F083FE734B049D734A4FF0000AC3F800A0714B86F800A02C3551466FF0FF00C3F800A00495C2F800A00FF0BAFE654BAB4200F081800026314642F210730498674DC4F8EC362C22C4F80057C4F8F406C4F8F066C4F8F866C4F8FC66C4F8E86615F059FE5846FCF728FB50485D4DC4F8D055012300F5CB654FF00C0A5A46BF21C4F80836C4F8045684F8F0A5FEF749F9049BC4F84867A3F52B5031464A4BC4F850372C223838C4F84C67A4F85867C4F8540715F030FEA5F14400FCF7FEFAA5F14402A2F54B70B0
S3FD0800D1700123BF21C4F8543600F58463C4F8503684F834A6FEF722F9FFF7CEFA4FF0FF3140460FF05BFE0B23C7E91063302383F311880FF019FD3A48FDF736FC0FF004FDD9F800304B453FF43EAFD9F80C209B6892689A42BFF437AF32480EF093F8D9F80C209B6892689A42BFF44FAF2D480EF089F82D49DFF8C08019EE100A19EE105A12F096FB5746294C0AF1010A00260EE02368CB1ACDE901130092334652464146284612F085FBFA2E04F12C040BD0A4F52B53383B54F8271053F8272001360029E6D10B46E6E7BAF10B0FDBD1059A18493346284612F06CFB002007B0BDEC048BBDE8F08F34520208B816002040D70120BC510208B4510208D4
S3FD0800D2680C5202085052020808740020FDAB0008AC160020A4160020B4160020A81600200000010378D7012070D70120886702086852020810490020AC52020830DF0120945202082DE9F04F2DED048B0D4687B09849994CDFF8A882984FDFF8A89206469A4608EE102A08EE903A12F025FB944B944A9549BAF1000F08BF1A46304612F01BFB9249304642F2107212F015FB0023CDF80C8009EE106A059404F5BA6B0493A84654E0002383F31188D7E90C3213F57A7542F1000A302383F311880FF058FC834BBB6200210022C7E9065A814D7B48FD62C7E90812FDF7D1FB0FF039FCD9F800304B4540F0AA80002383F311887A4D18EE901A18EE100AEC
S3FD0800D360FCF770FF2B78102B02D1049B01330493FCF792FED4F8AC0210F01CFDD4F8940510F018FD4FF0000A6E4B85F800A0039DC3F800A06C4A6D4BC2F800A0283551466FF0FF00C3F800A003950FF04FFD634B9D4200F0818000250398654EC4F80067294642F210732822C4F8F406C4F8F056C4F8F856C4F8FC56C4F8E836C4F8EC5615F0EEFC5846FCF7BDF94D48594EC4F8D065012300F5CB664FF00C0A5A46C4F80836BF21C4F8046684F8F0A5FDF7DEFF039BC4F84857A3F51C501038474BC4F8503729462822C4F84C57A4F85857C4F8540715F0C5FCA6F14400FCF793F9A6F14402A2F54B700123C4F8543600F58463C4F85036BF2184F8D1
S3FD0800D45834A6FDF7B7FFFFF763F94FF0FF3140460FF0F0FC0A23C7E91053302383F311880FF0AEFB3648FDF7CBFA0FF099FBD9F800304B453FF43EAFD9F80C209B6892689A42BFF437AF2F480DF028FFD9F80C209B6892689A42BFF44FAF2A480DF01EFF2949DFF8B48019EE100A12F02DFA19EE106ADDF8149042F670670AF1010A4D460024EB59D5F86017009101340193524623464146304612F017FAFA2C05F12805EFD1BAF10A0F09F10409E6D1049A17492346304612F008FA002007B0BDEC048BBDE8F08F34520208B816002040D70120BC510208B45102080C520208C0520208FDAB0008386C0020AC160020A4160020B4160020A8160020BF
S3FD0800D5500000010378D7012070D7012088670208DC520208AC5202082845002030DF0120005302082DE9F04F2DED028B89B008EE101A032B9DF85010079308EE902A8046069100F215811A468E4B8F499A5C059212F0BEF98D49404612F0BAF9059A8A49404612F0B5F98A4B06988A4A8A49002808BF1A46404612F0ABF98849404612F0A7F901274FF0000A854C864EDFF85892DDF81CB000251DE0BBF1010F2DD00123C4F8F466A4F800074FF47A72C4F8F0A6C4F8F8A6C4F8FCA6304684F803B784F8023701350021164415F0D2FBBD4204F1B00417D0BBF1020FA8B208D0BBF1030FDAD1714BC4F8E836C4F8EC36D7E76E4BC4F8A036C4F8A4361A
S3FD0800D648D1E7C4F89096C4F894A6CCE769486A4DFCF784F8674AA2F5BA600B23C0F8D05500F5CB6580F8F035BF21C0F80456C0F80876FDF7A7FE614B614A00241C820134BC42C3E902A2C3E900AA02F57A7203F15803F3D15B485C4DFCF760F8594AA2F21460D56305460B231464A2F54B7085F83436BF21FDF786FE544CFFF731F818EE100A4FF0FF310FF0BDFBFA23C4E910A3302383F311880FF07BFA4D4900220023C4E9062342F210720023C4E90823C4E90A1A2046FDF7F2F90FF05AFA454A1368934251D18AF31188374C0699DFF8249118EE900AFCF792FDFCF7BAFC3E4BD4F8AC02059310F042FBD4F8940510F03EFB3A4B3B49C3F800A061
S3FD0800D7403A4A3B4B81F800A06FF0FF000021C2F800A0C3F800A00FF079FB4FF0000B059D05F543460BF1010B5036002456F8043F55F8041F0134CDE9011300945B463A464946404612F0CCF8FA2CEFD1059BBB4503F57A730593E2D1BBF1320F0BF101077FF41AAF002009B0BDEC028BBDE8F08FD2689B6892689A42A8D21E480DF09AFD0022054912F0ACF80449404612F0A8F80022ECE620670208105302082C530208BC510208B45102080C52020844530208B8160020F013012040420F00881C002078D70120B03F0020A0500020CC1C0020703F002040D7012091AA000830DF01209C500020A4160020AC160020B4160020A81600208867020895
S3FD0800D838E9980008745302082DE9F04F2DED028B8BB008EE101A032B9DF85810099308EE902A8046089100F22E811A469B4B9C499A5C059212F058F89A49404612F054F8059A9749404612F04FF8974B0898974A9749002808BF1A46404612F045F8954B9549B0334046079312F03EF84FF0040B0127924B924E8F4CDDF81CA0DDF824901DE0B9F1010F2CD000220125C4F8F026C4F8F436C4F8F826C4F8FC26A4F8002784F8039784F8025718464FF47A72002115F06AFAB034544500F57A7317D0B9F1020F08D0B9F1030FDBD17E4AC4F8E826C4F8EC26D8E77B4AC4F8A026C4F8A426D2E70022C4F89066C4F89426CCE77648764EFBF71BFF744ADC
S3FD0800D930A2F5BA6000F5CB644FF00B09C0F8044680F8F095C0F8D065C0F80876BF210646FDF73CFD42F6F801002406F52453745042F6FC02A3F524511C608C50A3F52453214642F60410644C1C5042F6081620464FF000049C534CF2503215F019FA5F485F4C604EFBF7E6FE5C4AA2F54B70C0E9DA4580F84C93BF21FDF710FDFEF7BCFE18EE100A4FF0FF310FF048FAFA230022C6E91023302383F311880FF005F95249B16200220023002142F210740025C6E906233046F162C6E90845FDF77BF80FF0E3F84A4A1368934259D1002383F311883A4C0899DFF8349118EE900AFCF71AFCFCF742FB3C4B0593D4F8AC02404B069310F0C8F9D4F8940529
S3FD0800DA2810F0C4F93D4A3E4B0021116019703D4A3D4B00216FF0FF0019604FF0000A11600FF000FA3B4657469A46DDE9055601370024296856F8043F0134CDE9011300943B4652464946404611F056FFFA2C5D44EFD1059B04330593069B574503F57A730693E2D1079B294AB0339342079307F101070BF1040B7FF404AF00200BB0BDEC028BBDE8F08FD2689B6892689A42A0D21F480DF01BFC0022054911F02DFF0549404611F029FF0022D3E600BF206702088C530208A0530208BC510208B45102080C520208B8160020BC53020818030120E998000840420F00881C002078D70120C83F0020CC1C0020703F002040D7012091AA000830DF0120FE
S3FD0800DB2014030120A4160020AC160020B4160020A8160020C839002088670208745302082DE9F04F2DED048B85B0032B09EE902A9DF84820039309EE101A9CBF19468F4B8F4E08EE902A98BF5A5C8E4988BF0022054611F0D5FE8C4B8C4A8D4918EE900A002808BF1A46284611F0CAFE8949284611F0C6FE884B002408EE105AA3F1380A27462346039A022A00F0EA80032A00F0E180012A00F0D8808048C6F8F8360546039B86F803374FF001084FF47A720021C6F8F076C6F8F406C6F8FC46A6F8007786F8028715F0ECF84FF480620021A5F6E83015F0E5F8A5F67850FBF7B3FDA5F67852A2F5BA606C4BC6F8D0354FF00B0900F5CB63BF21C6F8EE
S3FD0800DC180436C6F8088686F8F095FDF7D3FB002CA5F5FD634FF4806208BF00230021A5F5FD60A5F57A75C6F84837C6F84C47C6F85077C6F85457A6F8587715F0B5F84FF47A720021284615F0AFF8A5F64C10FBF77DFDA5F64C12A2F54B7000F58463BF21C6F85036C6F8548686F83496FDF7A2FBFEF74EFD19EE100A4FF0FF310FF0DAF8FA23CAE91073302383F311880EF098FF4549464842F2107200234FF000084FF00009CAE90823CAE90A17CAE90689FCF70DFF0EF075FF3E4A136893425AD187F3118818EE901A19EE900AFCF7AFFAFCF7D7F9D6F8AC02DFF8FC80DFF8FC9010F05DF8D6F8940510F059F8324A324B17601F70324A324B176079
S3FD0800DD1000216FF0FF001F600FF098F818EE105A4FF0000BD8F8EC23D8F804300BF1010BCDE9003249465B462246284611F0F0FDBBF1FA0F08F10408ECD1043440F20442944208EE105A214B7FF424AF002005B0BDEC048BBDE8F08F1D4AC6F89026C6F8947621E71B4AC6F8E826C6F8EC261BE7184AC6F8A026C6F8A42615E7D2689B6892689A429FD214480DF0ACFA20670208B816002010530208BC510208B45102080C520208EC53020878D70120002A002091AA000840D7012030DF0120A4160020AC160020B4160020A8160020181E0020E998000840420F008867020814260020785302082DE9F04F2DED048B87B01F469DF85030032F09EE08
S3FD0800DE08101A09EE902A08EE903A054600F21A818E4BDA5D13468E49284611F07DFD8D4B8D4A8E4918EE900A002808BF1A46284611F072FD8A49284611F06EFD894A8A4B02F5BA619B1A0391059301240026874BDFF84CE2DFF84C82854900224FF0010C12E0012F1BD00132A242C3E91861C3E91A66A3F8700083F872C083F873704FF0000103F1B0030DD0022F90B204D0032FE7D1C3E916EEE6E7C3E904EEE3E7C3E90086E0E7724804914FF47A7214F084FF704B049919820131A142C3E90066C3E9026603F15803F5D14FF0000B0497DFF8A8A1DFF8D481DFF88C915F4608EE105ADDF814B01DE00A23A7428AF8203004D20BEB48020123CAE99F
S3FD0800DF000D230120CAE90F800A235246BE21484601378AF82030FDF759FAA7421ED80AF1440A09F53A7908F158085046FBF71AFC002FDCD15248534D05600BEB480301274FF00A0C5246BE214846CAF83430CAF838708AF820C0FDF739FAE0E7049FFEF7E3FB19EE100A4FF0FF310EF06FFF464AFA23C2E9106318EE105A302383F311880EF02AFE4048414B42F21072C0E90A364FF0000800234FF00009C0E90823C0E90689FCF79FFD0EF007FE394A1368934244D186F3118818EE901A19EE900AFCF741F9DFF8A880FCF767F8DDF80C90D8F8AC0208F53A780FF0EDFEC845F7D12D492D482E4A2E4B0E60067000216FF0FF0016601E600EF02AFF5F
S3FD0800DFF8DFF8B880DFF8B8B04FF0000958F8043F009309F101094B4622465946284611F083FCB9F1FA0FF1D1039B013403F53A73332C03937FF413AF002007B0BDEC048BBDE8F08FD2689B6892689A42B5D217480DF054F900221346E5E600BF2067020814540208BC510208B45102080C52020854540208B8160020281AFFFFB8B8002010EC002020DB0020F0AA002078D7012040D7012091AA000830DF0120A4160020AC160020B4160020A81600208867020840420F00E998000888DA00200CEC0020705402082DE9F04308238FB004460F4616460125013B4FEA4505FBD1954809A94FF0FF332A460FF017F84FF0FF33924804A92A460FF010F8F3
S3FD0800E0F0FB1E012B40F2C480BB1E012B40F2608138460122314606F013FD002800F00A814FF0000832688749204611F001FC8649204611F0FDFB8549204611F0F9FB8449204611F0F5FB8349204611F0F1FB8249204611F0EDFB8149204611F0E9FB8049204611F0E5FB7F49204611F0E1FB7E49204611F0DDFB7D49204611F0D9FB7549204611F0D5FB7A49204611F0D1FB7949204611F0CDFB7849204611F0C9FB7749204611F0C5FB7649204611F0C1FB7549204611F0BDFB6749204611F0B9FB6649204611F0B5FB6549204611F0B1FB6449204611F0ADFB6349204611F0A9FB6A49204611F0A5FB6949204611F0A1FB5949204611F09DFB5849B2
S3FD0800E1E8204611F099FB5749204611F095FB5649204611F091FB5549204611F08DFB5E49204611F089FB5D49204611F085FB4B49204611F081FB5A49204611F07DFB5949204611F079FB5849204611F075FB5749204611F071FB5649204611F06DFB5549204611F069FB5449204611F065FB5349204611F061FB09A932480EF025FF04A931480EF021FF00216FF0FF000EF0EAFD40460FB0BDE8F083D6F8048048494046FAF70EF938B9D6F808904846FCF734F8002840F0E88143494046FAF701F9002840F08581D6F808904846FCF725F8002840F0EB813C494046FAF7F2F8002840F095813A494046FAF7EBF8002800F0AF8137494046FAF7E4F87E
S3FD0800E2E000287FF409AFD6F8088034494046FAF7DBF8002840F0A881F068FBF7B3FF2A46034629462046FEF7D1FF5FFA80F838460122314606F00CFC00287FF4F9AEB8F1020F9CD14FF00208F4E600BF901600207CD70120D0550208FC5502080856020814560208545602086C560208A4560208DC560208145702084C5702085C57020884570208BC570208F45702082C5802086458020874580208A4580208B4580208E4580208F45802082C5902085C5902088859020894590208B0590208C0590208DC590208F8590208805402088854020894540208AC540208B45402081C5A0208BD497068FAF770F8804600287FF498AEB068FBF747FFB949CC
S3FD0800E3D881462D222046FBF7ABFA43462A462946CDF800902046FFF701FDB3492D222046FBF79EFA01232A462946CDF800902046FFF7F4FCAD492D222046FBF791FA02232A462946CDF800902046FFF7E7FCA8492D222046FBF784FA03232A462946CDF800902046FFF7DAFCA2492D222046FBF777FA43462A462946CDF800902046FFF773FB9D492D222046FBF76AFA01232A462946CDF800902046FFF766FB97492D222046FBF75DFA02232A462946CDF800902046FFF759FB92492D222046FBF750FA03232A462946CDF800902046FFF74CFB8C492D222046FBF743FA43462A462946CDF800902046FFF7BFF987492D222046FBF736FA01232A46CF
S3FD0800E4D02946CDF800902046FFF7B2F981492D222046FBF729FA02232A462946CDF800902046FFF7A5F97C492D222046FBF71CFA03232A462946CDF800902046FFF798F976492D222046FBF70FFA43462A462946CDF800902046FFF725F871492D222046FBF702FA01232A462946CDF800902046FFF718F86B492D222046FBF7F5F902232A462946CDF800902046FFF70BF866492D222046FBF7E8F903232A462946CDF800902046FEF7FEFF60492D222046FBF7DBF94B462A4629462046FEF78FFE5C492D222046FBF7D0F92A4629464B462046FEF71AFD38460122314606F0C1FA00287FF4AEAD53E653494046F9F775FFC8B9D6F808904846FBF7C3
S3FD0800E5C89BFE00283FF47DAE4846FBF761FE0346F0680393FBF742FE039B00902A4629462046FFF729F95FFA80F88CE644494046F9F756FF00287FF464AED6F808904846FBF77AFE00283FF45CAE4846FBF740FE0346F0680393FBF721FE039B00902A4629462046FEF7A2FF5FFA80F86BE6D6F8088034494046F9F733FF00283FF458AE31494046F9F72CFF00287FF451ADF068FBF704FE2A46034629462046FEF7B8FC5FFA80F84FE64846FBF712FE0346F0680393FBF7F3FD039B00902A4629462046FFF7B4FB5FFA80F83DE64846FBF700FE0346F0680393FBF7E1FD039B00902A4629462046FFF748FA5FFA80F82BE600BFC4540208CC54020834
S3FD0800E6C0D8540208E4540208F0540208FC5402080C5502081C5502082C5502083C5502084C5502085C5502086C5502087C5502088C5502089C550208AC550208BC550208C855020894540208A05402081C5A0208BC5402082DE9F04F2DED048B0C4685B09149DFF89082914FDFF88C92064608EE902A09EE103A08EE104A1C4611F0F0F88B4B8C4A8C49002C08BF1A46304611F0E7F83046894942F2107211F0E1F8A8F5F564002309EE906ACDE9023404F5BA6B1D4646464CE085F31188D7E90C3213F57A7A42F10008302383F311880EF024FA7B4B7C4A00210020C7E90801C7E90A327248C7E906A8FCF79DF90EF005FAD9F800304B4540F0A08084
S3FD0800E7B885F31188DFF8FC8119EE101A18EE900AFBF73CFD98F80030122B02D1029B01330293FBF75DFCD4F8AC020FF0E7FAD4F894050FF0E3FA6649664B674A0D606FF0FF0000211D6088F8005015600EF022FB5E4B2836B3427DD0002211465F48FBF7E3FA0223584684F86036C4F85C56C4F86456C4F86856A4F86C56FAF797FF5848584BC4F8D0354FF0010800F5CB634FF0060A5A46C4F8F435BF21C4F8F88584F8F0A5FCF7B7FD032042F210732822002184F8A607C4F89867C4F89C57C4F8A057A4F8A4573046C4F89037C4F88857C4F88C5714F099FA4448FAF768FF424AC4F84486A2F54B7000F58363C4F84036BE2184F834A6FCF78EFDAC
S3FD0800E8B0FDF73AFF18EE100A4FF0FF310EF0C6FA0A23C7E91053302383F311880EF084F93448FCF7A1F80EF06FF9D9F800304B453FF449AFD9F80C209B6892689A42BFF442AF2D480CF0FEFCD9F80C209B6892689A42BFF459AF28480CF0F4FC2749DFF8B08019EE900A11F003F819EE906ADDF80C90002701374D460024D5F8A8370093013423463A464146304610F0F1FFFA2C05F12805F1D10A2F09F10409EAD1029A17492346304610F0E3FF002005B0BDEC048BBDE8F08F00BF285A020840D70120BC510208B45102080C520208505A020889AC000870450020A4160020A8160020B4160020281D0020B816002078D70120CC1C002070D7012049
S3FD0800E9A888670208685A0208AC520208601E002030DF0120AC160020746102082DE9F04F2DED048B0C4685B09849DFF8AC82984FDFF8A892064608EE902A09EE103A08EE104A1C4610F098FF924B934A9349002C08BF1A46304610F08FFF3046904942F2107210F089FF002309EE906A0393A8F5F564A8F5EC7B1D4646464CE085F31188D7E90C2312F57A7843F1000A302282F311880EF0CDF8834B8349FB6200220023C7E908237A48B962C7E9068AFCF746F80EF0AEF8D9F800304B4540F0A18085F31188DFF81C8219EE101A18EE900AFBF7E5FB98F80030112B02D1039B01330393FBF706FBD4F8AC020FF090F9D4F894050FF08CF96D496E4BF9
S3FD0800EAA06E4A0D606FF0FF0000211D6088F8005015600EF0CBF9654B2C369E427ED0002211466748FBF78CF9604AC4F85C260223584684F86036C4F86456C4F86856A4F86C56FAF73FFE5F485F4BC4F8D0354FF0010800F5CB634FF0060A5A46C4F8F435BF21C4F8F88584F8F0A5FCF75FFC032042F210732C22002184F8A607C4F89867C4F89C57C4F8A057A4F8A4573046C4F88C37C4F88857C4F8905714F041F94B48FAF710FE494AC4F84486A2F54B7000F58363C4F84036BE2184F834A6FCF736FCFDF7E2FD18EE100A4FF0FF310EF06EF90B23C7E91053302383F311880EF02CF83B48FBF749FF0EF017F8D9F800304B453FF448AFD9F80C205E
S3FD0800EB989B6892689A42BFF441AF34480CF0A6FBD9F80C209B6892689A42BFF458AF2F480CF09CFB2E49DFF8CC8019EE900A10F0ABFE19EE906A04F5F5644FF4F5694FF0000A0AF1010AA4EB090700250EE057F80910591ACDE9003152462B464146304610F092FEFA2D07F12C0706D0D7F8A8370135002BEBD11946ECE7BAF10B0FA9F10409DED1039A17492B46304610F07CFE002005B0BDEC048BBDE8F08F285A020840D70120BC510208B45102080C520208505202085849002089AC0008A4160020A8160020B4160020281D0020B816002078D70120CC1C002070D7012088670208805A0208AC520208601E002030DF0120AC160020A05A0208DE
S3FD0800EC902DE9F04F2DED048B0C4685B09149DFF89082914FDFF88C92064608EE902A09EE103A08EE104A1C4610F032FE8B4B8C4A8C49002C08BF1A46304610F029FE3046894942F2107210F023FEA8F5F564002309EE906ACDE9023404F5BA6B1D4646464CE085F31188D7E90C3213F57A7A42F10008302282F311880DF066FF7B4B7C49FB6200220023C7E908237348B962C7E906A8FBF7DFFE0DF047FFD9F800304B4540F0A18085F31188DFF8FC8119EE101A18EE900AFBF77EFA98F80030102B02D1029B01330293FBF79FF9D4F8AC020FF029F8D4F894050FF025F86649664B674A0D606FF0FF0000211D6088F8005015600EF064F85D4B2836B3
S3FD0800ED88B3427ED0002211465F48FBF725F8594AC4F85C260223584684F86036C4F86456C4F86856A4F86C56FAF7D8FC5748584BC4F8D0354FF0010800F5CB634FF0060A5A46C4F8F435BF21C4F8F88584F8F0A5FCF7F8FA032042F210732822002184F8A607C4F89867C4F89C57C4F8A057A4F8A4573046C4F88837C4F88C57C4F8905713F0DAFF4348FAF7A9FC424AC4F84486A2F54B7000F58363C4F84036BE2184F834A6FCF7CFFAFDF77BFC18EE100A4FF0FF310EF007F80A23C7E91053302383F311880DF0C5FE3448FBF7E2FD0DF0B0FED9F800304B453FF448AFD9F80C209B6892689A42BFF441AF2C480CF03FFAD9F80C209B6892689A4241
S3FD0800EE80BFF458AF27480CF035FA2749DFF8AC8019EE900A10F044FD19EE906ADDF80C90002701374D460024D5F8A8370093013423463A464146304610F032FDFA2C05F12805F1D10A2F09F10409EAD1029A17492346304610F024FD002005B0BDEC048BBDE8F08F285A020840D70120BC510208B45102080C520208C05202087045002089AC0008A4160020A8160020B4160020281D0020B816002078D70120CC1C002070D7012088670208685A0208AC520208601E002030DF0120AC160020746102082DE9F04F2DED048B85B09A46BAF1030F9DF84830029308EE101A08EE902A074600F21981914B924913F80A20039210F0D7FC9049384610F028
S3FD0800EF78D3FC039A8C49384610F0CEFC8C4B02988C4A8D49002808BF1A46384610F0C4FC8A49384610F0C0FC01264FF00009884D0024A1B2284600220134FAF715FFB44205F19005F5D1834B00220221A3F86C2601328148C3F85C06B24283F86016C3F86496C3F8689603F11803EFD17B487C4CDFF82082DFF820B2FAF7B8FB774AA2F5BA60C0F8D04500F5CB64C0F8F4454FF0050480F8F045BF21C0F8F86509EE107AFCF7D8F96F4C0025474616E0BAF1010F23D0C4E91B794FF47A723846C4F87490A4F8783084F87AA001350021174413F0BBFEB54204F1A80412D0BAF1020FABB207D0BAF1030FE1D15F4A6266C4E91722DFE75D4AC4E90222C3
S3FD0800F070DBE7C4E900B9D8E75A48FAF773FB594AA2F54B7000F51154C0E9D6454FF0050480F84C43BE21FCF799F9534CFDF744FB18EE100A4FF0FF310DF0D0FEFA23C4E9109319EE107A302383F311880DF08CFD4A4900220023C4E9062342F210720023C4E90823C4E90A192046FBF703FD0DF06BFD434A136893424DD189F31188374C0299404DDFF81C8118EE900AFBF7A2F8FAF7CAFFD4F8AC020EF054FED4F894050EF050FE384A394BC2F8009083F80090374A384BC2F8009000216FF0FF00C3F800904FF0000B0DF089FECDF80CA0AA460BF1010B5546002455F8041F0134CDE900415B4632464146384610F0E1FBFA2CF2D1B3450AF57A7A8B
S3FD0800F168EAD1BBF1320FDDF80CA00BF101067FF416AF002005B0BDEC048BBDE8F08FD2689B6892689A42ACD21D480CF0AFF80022054910F0C1FB0549384610F0BDFB0022E8E600BF20670208B45A0208DC5A0208BC510208B45102080C520208005B0208C0210020B816002070D70120881C002078D701200C3E002040420F00CC1C002040D7012091AA000830DF0120AC5E0020A4160020AC160020B4160020A816002088670208B05E0020E9980008205B02082DE9F04F2DED028B87B09A46BAF1030F9DF84830049308EE101A08EE902A074600F214818E4B8F4913F80A20039210F06BFB8D49384610F067FB039A8949384610F062FB894B0498B3
S3FD0800F260894A8A49002808BF1A46384610F058FB8749384610F054FB864BA8334FF00009039301260022844D8448DFF848821146FAF7A6FDA5F508500223A0F5BA6280F89030C0E92599C0F88C90A0F89C901446FAF758FA7A48C4F8D00502F5BA6202F1880001210523C4F8F405C4F8F81584F8F035BF212046FCF779F8DDF80CB017E0BAF1010F28D0C4F89857C4F89C97C4F8A097A4F8A49784F8A6A728464FF47A72A834002113F05CFD5C4505F57A7518D0BAF1020F0AD0BAF1030FE1D1614BC4F88837C4F88C37C4F89037DCE75D4BC4F83437C4F83837D6E7C4F82C87C4F83097D1E75948594CFAF70DFA574AA2F54B70052300F5836580F8E9
S3FD0800F3584C33C0E9D656BE21FCF734F8FDF7E0F918EE100A4FF0FF310DF06CFDFA230022C4E91023302383F311880DF029FC4A49A16200220023C4E90623002142F210720023C4E908232046E162FBF79FFB0DF007FC424A1368934250D189F31188374C04993F4DDFF8188118EE900AFAF73EFFFAF766FED4F8AC020EF0F0FCD4F894050EF0ECFC374A384BC2F8009083F80090364A374BC2F8009000216FF0FF00C3F800904FF0000B0DF025FDCDF814A0AA460BF1010B5546002455F8041F0134CDE900415B4632464146384610F07DFAFA2CF2D1B3450AF57A7AEAD1039B254ADDF814A0A833934203930BF101067FF41EAF002007B0BDEC028B4C
S3FD0800F450BDE8F08FD2689B6892689A42A9D21C480BF048FF0022054910F05AFA0449384610F056FA0022EDE620670208345B0208605B0208BC510208B45102080C520208845B0208B8160020883E0020281D002078D7012040420F00CC1C002040D7012091AA000830DF0120843E0020A4160020AC160020B4160020A81600203038002088670208E9980008B05B02082DE9F04F2DED028B89B01D469DF8504006930B46A249079408EE103A074608EE902A10F00FFA032D98BF9E4B9E49DFF8D89296BF2A4600249C5C3846224610F001FA9749384610F0FDF9984B0798984A9849002808BF1A46384610F0F3F99649384610F0EFF909F118030493A2
S3FD0800F54809F5CB6305934FF004080126002290481146FAF741FC012E00F0FE808D4DDDF814B04FF0000A05F52D6400220023C5E90223C5F818A0C5E900AAC5E904AA294620462035FAF79EFB5D45EED104984B4602210022804CC3F87C4C83F8801CC3F8842CC3F8882CA3F88C2C18338342F1D17A487B4CFAF7D2F8784AC9F8D045A2F5BA60052300F67844BF2189F8F035C9F8F445C9F8F865FBF7F5FE069B022B00F0A880032B00F0AA80012B00F09B806D48069D00F8025C002421464CF2503240E9034420F8044C40F8100C13F0D5FB6648FAF7A4F8644A012002F6A4350523BE21C9F84406A2F54B7089F83436C9F84056FBF7C8FE5D4DFDF7D9
S3FD0800F64073F818EE100A4FF0FF310DF0FFFBFA23C5E91043302383F311880DF0BDFA4FF0000A42F2107200235349A9624FF0000BC5E908232846C5E906ABEC62FBF732FA0DF09AFA4D4A1368934261D1002484F311880799DFF850A118EE900AFAF7D2FDFAF7FAFC414BD9F8AC0203930EF082FBD9F894050EF07EFB414A424B14601C70414A424B146021466FF0FF001C600DF0BDFBA346039D0BF1010B002429680134CDE900415B4632465146384610F018F9FA2C4544F2D1039BB34503F104030393E8D1049B18330493059BBBF1320F03F1200308F1040805930BF101067FF41AAF002009B0BDEC028BBDE8F08F284AC4F86C250022C4F87025ED
S3FD0800F7385DE7264B264AC3E9002258E7254B244A9A60C3E9002252E7D2689B6892689A4298D221480BF0CAFD00230F49C9F87C1C022289F8802CC9F8843CC9F8883CA9F88C3C1DE7C45B020820670208D45B0208BC510208B45102080C520208005C0208E0270020101D002070D70120881C002078D7012018290020CC1C002040D7012091AA000830DF0120A4160020AC160020B4160020A8160020E9980008A428002040420F00F828002088670208B8160020285C02082DE9F04F2DED048B85B0032B09EE102A9DF84820039308EE901A9CBF1946894BDFF87CA208EE102A98BF5A5C864988BF0022054610F07EF8844B854A854918EE100A0028FE
S3FD0800F83008BF1A46284610F073F88249284610F06FF8002211460AF5C360FAF7C9FAAAF5CF6901244FF0000802237B4889F8803CC9F87C8CC9F8848CC9F8888CA9F88C8CF9F778FF744A754EC9F8D0650523012002F5D566C9F8F80589F8F035BF21C9F8F465A2F5BA60FBF799FD039B022B00F0B380032B00F0A880012B00F09F80039B674889F8C63D4FF47A720021C9F8B80DC9F8BC8DC9F8C08DA9F8C48D13F078FA6048F9F747FF5F4A052302F20C76012089F83436BE21C9F84066C9F84406A2F54B70FBF76BFD584EFCF716FF18EE900A4FF0FF310DF0A2FAFA23C6E91083302383F311880DF060F9504900220023C6E9062342F210720023A4
