S02B00002F686F6D652F7069742F4153452F414D69526F2D417070732F636F6E66696775726174696F6E732F87
S3FD08008000000400201D8300081F8300081F8300081F8300081F8300081F8300081F8300081F8300081F8300081F830008151702081F8300081F8300081F8300081F8300081F8300081F830008D11702088D1702081F8300081F8300083520020801200208CD1F0208991F0208651F0208711D0208391D0208011D0208C91C0208951C02085D1C0208251C020801290208A92E0208392E0208C92D0208A51D0208F51E02081F8300081F8300081F8300081F830008612A0208091E02081F830008E1280208F1260208C1280208BD2602081F8300081F830008952B02081F8300081F830008791E0208351702081F8300081F8300081F8300081F8300087A
S3ED080080F81F830008ED1B02081F8300081F8300081F8300081F8300081F8300081F8300081F8300081F830008B91B0208811B0208491B0208111B0208DD1A02081F8300081F8300081F8300081F8300081F8300081F8300081F830008A51A02086D1A0208351A02081F8300081F8300081F8300081F8300081F8300081F8300081F8300081F8300081F8300081F8300081F8300081F8300081F8300081F8300081F8300081F8300081F8300081F8300081F8300081F8300081F8300081F8300081F8300081F8300081F8300081F8300081F8300081F8300081F8300081F8300081F8300081F8300081F8300081A
S3FD0800820072B6374880F30888364880F3098836483649086040F20000CCF200004EF63471CEF200010860BFF34F8FBFF36F8F40F20000C0F2F0004EF68851CEF200010860BFF34F8FBFF36F8F4FF00000E1EE100A4EF63C71CEF200010860062080F31488BFF36F8F19F088FF09F0A6FC4FF055301F491B4A91423CBF41F8040BFAE71D49184A91423CBF41F8040BFAE71A491B4A1B4B9A423EBF51F8040B42F8040BF8E700201849184A91423CBF41F8040BFAE719F02AFF19F05EFF144C154DAC4203DA54F8041B8847F9E707F020FC114C124DAC4203DA54F8041B8847F9E719F048BF00040020000800200080000808ED00E0000000200004002061
S3FD080082F8E46C0308000800203816002038160020703F0020E0810008E0810008E0810008E081000870E700F000F8FEE72DE9F04F2DED108AC1F80CD0C3689D46BDEC108ABDE8F08F20F012FC19F0FCFF002383F311882846A047002021F064FBFEE71AF017FD20F017FC20F05DF920F0FFFB19F0E9FF00DFFEE70000844641EA000313F003036DD1403A41D351F8043B40F8043B51F8043B40F8043B51F8043B40F8043B51F8043B40F8043B51F8043B40F8043B51F8043B40F8043B51F8043B40F8043B51F8043B40F8043B51F8043B40F8043B51F8043B40F8043B51F8043B40F8043B51F8043B40F8043B51F8043B40F8043B51F8043B40F8043B34
S3FD080083F051F8043B40F8043B51F8043B40F8043B403ABDD2303211D351F8043B40F8043B51F8043B40F8043B51F8043B40F8043B51F8043B40F8043B103AEDD20C3205D351F8043B40F8043B043AF9D2043208D0D2071CBF11F8013B00F8013B01D30B8803806046704700BF082A13D38B078DD010F003038AD0C3F10403D21ADB071CBF11F8013B00F8013B80D331F8023B20F8023B7BE7043AD9D3013A11F8013B00F8013BF9D20B7803704B7843708B7883706046704700000000000000000000000000000000000000000000000000000000A2EB0300704700BF02780B78012A28BF9A42F5D16DE9044540EA0104CDE902676FF0000C4FEA4472FC
S3FD080084E812B380EA010414F0070F6AD100F0070420F0070004F0030521F007014FEAC505F0E8042314F0040FF1E804670CFA05F462EA040266EA04060AD063EA0403624667EA0407664603E0F0E80423F1E8046782FA4CF582EA0604A4FA8CF46CBB83FA4CF583EA0705A5FA8CF595B950E9022351E9026782FA4CF582EA0604A4FA8CF483FA4CF583EA0705A5FA8CF52543DBD09CB92DBAB5FA85F424F0070427FA04F1DDE9026723FA04F303F0FF0001F0FF01FDE80445A0EB0100704724BAB4FA84F424F0070426FA04F1DDE9026722FA04F202F0FF0001F0FF01FDE80445A0EB0100704714F0030F3CD110F0030428D150F8082B51F8083B82FA57
S3FD080085E04CF582EA0305A5FA8CF55DB950F8042C51F8043C82FA4CF582EA0305A5FA8CF5002DE8D02DBAB5FA85F424F0070423FA04F122FA04F202F0FF0001F0FF01FDE80445A0EB010070474FEAC40420F0030050F8082B21F0030151F8083B0CFA04F462EA040263EA0403C9E710F003041AD0A1EB040120F00300E40750F8042B06D00FD28B785FFAA2F4E41A06D12BB1CB785FFAB2F4E41A00D11BB920465DF8104B704701F1040150F8042BCC0721F0030151F8043B48D824D222F07F4482FA4CF594EA1325A5FA8CF50AD165B951F8043B84EA0204B4EB036F0ED150F8042BEBE74FEA132355E035F07F454DD10878FDE80445C0F100007047FC
S3FD080086D84FEA126203F0FF0347E002EA1C4482FA4CF594EA1345A5FA8CF50AD165B951F8043B84EA0204B4EB034F0CD150F8042BEBE74FEA134330E015EA1C4528D10B884FEA124229E04FEA124203EA1C4324E002F0FF0482FA4CF594EA1365A5FA8CF50AD165B951F8043B84EA0204B4EB032F09D150F8042BEBE74FEA13630DE015F0FF0F05D10B684FEA122223F07F4304E04FF00000FDE80445704712BA1BBA82FA4CF482EA0304A4FA8CF5B5FA85F402FA04F203FA04F34FEA1260FDE80445A0EB1360704700000000000000000000000000000000000000000000000000000000000000000000000090F800F06DE9024520F007016FF0000CB4
S3FD080087D010F0070491F820F040F049804FF000046FF00700D1E9002391F840F000F1080082FA4CF2A4FA8CF283FA4CF3A2FA8CF34BBBD1E9022382FA4CF200F10800A4FA8CF283FA4CF3A2FA8CF3E3B9D1E9042382FA4CF200F10800A4FA8CF283FA4CF3A2FA8CF37BB9D1E9062301F1200182FA4CF200F10800A4FA8CF283FA4CF3A2FA8CF3002BC6D0002A04BF04301A4612BAB2FA82F2FDE8024500EBD2007047D1E9002304F00305C4F100004FEAC50514F0040F91F840F00CFA05F562EA05021CBF63EA050362464FF00004A9E70000000001F0FF01102A2BDB10F0070F08D010F8013B013A8B422DD010F0070F42B3F6D1F0B441EA012141EA20
S3FD080088C8014122F007047FF000070023F0E80256083C85EA010586EA010685FA47F5A3FA87F586FA47F6A5FA87F68EB9EED1F0BC01F0FF0102F0070232B110F8013B013A83EA010313B1F8D10020704701387047002D06BF35460338073815F0010F07D1013015F4807F02BF013015F4C03F0130F0BC0138704700BF81F0004102E000BF83F0004330B54FEA41044FEA430594EA050F08BF90EA020F1FBF54EA000C55EA020C7FEA645C7FEA655C00F0E2804FEA5454D4EB5555B8BF6D420CDD2C4480EA020281EA030382EA000083EA010180EA020281EA0303362D88BF30BD11F0004F4FEA01314FF4801C4CEA113102D0404261EB410113F0004F23
S3FD080089C04FEA03334CEA133302D0524263EB430394EA050F00F0A780A4F10104D5F1200E0DDB02FA0EFC22FA05F2801841F1000103FA0EF2801843FA05F359410EE0A5F120050EF1200E012A03FA0EFC28BF4CF0020C43FA05F3C01851EBE37101F0004507D54FF0000EDCF1000C7EEB00006EEB0101B1F5801F1BD3B1F5001F0CD349085FEA30004FEA3C0C04F101044FEA445212F5800F80F09A80BCF1004F08BF5FEA500C50F1000041EB045141EA050130BD5FEA4C0C404141EB0101013C28BFB1F5801FE9D291F0000F04BF01460020B1FA81F308BF2033A3F10B03B3F120020CDA0C3208DD02F1140CC2F10C0201FA0CF021FA02F10CE002F1B0
S3FD08008AB81402D8BFC2F1200C01FA02F120FA0CFCDCBF41EA0C019040E41AA2BF01EB0451294330BD6FEA04041F3C1CDA0C340EDC04F11404C4F1200220FA04F001FA02F340EA030021FA04F345EA030130BDC4F10C04C4F1200220FA02F001FA04F340EA0300294630BD21FA04F0294630BD94F0000F83F4801306BF81F480110134013D4EE77FEA645C18BF7FEA655C29D094EA050F08BF90EA020F05D054EA000C04BF1946104630BD91EA030F1EBF0021002030BD5FEA545C05D14000494128BF41F0004130BD14F580043CBF01F5801130BD01F0004545F0FE4141F470014FF0000030BD7FEA645C1ABF194610467FEA655C1CBF0B46024650EABC
S3FD08008BB0013406BF52EA033591EA030F41F4002130BD00BF90F0000F04BF0021704730B54FF4806404F132044FF000054FF0000150E700BF90F0000F04BF0021704730B54FF4806404F1320410F0004548BF40424FF000013EE700BF42004FEAE2014FEA31014FEA02701FBF12F07F4393F07F4F81F06051704732F07F4208BF704793F07F4F04BF41F40021704730B54FF4607401F0004521F000411CE700BF50EA010208BF704730B54FF000050AE050EA010208BF704730B511F0004502D5404261EB41014FF4806404F132045FEA915C3FF4D8AE4FF003025FEADC0C18BF03325FEADC0C18BF033202EBDC02C2F1200300FA03FC20FA02F001FA51
S3FD08008CA803FE40EA0E0021FA02F11444BDE600BF70B54FF0FF0C4CF4E06C1CEA11541DBF1CEA135594EA0C0F95EA0C0F00F0DEF82C4481EA030621EA4C5123EA4C5350EA013518BF52EA033541F4801143F4801338D0A0FB02CE4FF00005E1FB02E506F00042E0FB03E54FF00006E1FB03569CF0000F18BF4EF0010EA4F1FF04B6F5007F64F5407404D25FEA4E0E6D4146EB060642EAC62141EA55514FEAC52040EA5E504FEACE2EB4F1FD0C88BFBCF5E06F1ED8BEF1004F08BF5FEA500E50F1000041EB045170BD06F0004646EA010140EA020081EA0301B4EB5C04C2BFD4EB0C0541EA045170BD41F480114FF0000E013C00F3AB8014F1360FDEBF06
S3FD08008DA0002001F0004170BDC4F10004203C35DA0C341BDC04F11404C4F1200500FA05F320FA04F001FA05F240EA020001F0004221F0004110EBD37021FA04F642EB06015EEA430E08BF20EAD37070BDC4F10C04C4F1200500FA04F320FA05F001FA04F240EA020001F0004110EBD37041F100015EEA430E08BF20EAD37070BDC4F1200500FA05F24EEA020E20FA04F301FA05F243EA020321FA04F001F0004121FA04F220EA020000EBD3705EEA430E08BF20EAD37070BD94F0000F0FD101F00046400041EB010111F4801F08BF013CF7D041EA060195F0000F18BF704703F00046520043EB030313F4801F08BF013DF7D043EA0603704794EA0C0F8F
S3FD08008E980CEA135518BF95EA0C0F0CD050EA410618BF52EA4306D1D181EA030101F000414FF0000070BD50EA410606BF1046194652EA430619D094EA0C0F02D150EA013613D195EA0C0F05D152EA03361CBF104619460AD181EA030101F0004141F0FE4141F470014FF0000070BD41F0FE4141F4780170BD70B54FF0FF0C4CF4E06C1CEA11541DBF1CEA135594EA0C0F95EA0C0F00F0A7F8A4EB050481EA030E52EA03354FEA013100F088804FEA03334FF0805545EA131343EA12634FEA022245EA111545EA10654FEA00260EF000419D4208BF964244F1FD0404F5407402D25B084FEA3202B61A65EB03055B084FEA32024FF480104FF4002CB6EB0A
S3FD08008F90020E75EB030E22BFB61A754640EA0C005B084FEA3202B6EB020E75EB030E22BFB61A754640EA5C005B084FEA3202B6EB020E75EB030E22BFB61A754640EA9C005B084FEA3202B6EB020E75EB030E22BFB61A754640EADC0055EA060E18D04FEA051545EA16754FEA06164FEAC30343EA52734FEAC2025FEA1C1CC0D111F4801F0BD141EA00014FF000004FF0004CB6E711F4801F04BF01430020B4F1FD0C88BFBCF5E06F3FF6AFAEB5EB030C04BFB6EB020C5FEA500C50F1000041EB045170BD0EF0004E4EEA113114EB5C04C2BFD4EB0C0541EA045170BD41F480114FF0000E013C90E645EA060E8DE60CEA135594EA0C0F08BF95EA0C0F9E
S3FD080090883FF43BAF94EA0C0F0AD150EA01347FF434AF95EA0C0F7FF425AF104619462CE795EA0C0F06D152EA03353FF4FDAE1046194622E750EA410618BF52EA43067FF4C5AE50EA41047FF40DAF52EA43057FF4EBAE12E74FF0FF3C06E000BF4FF0010C02E000BF4FF0010C4DF804CD4FEA410C7FEA6C5C4FEA430C18BF7FEA6C5C1BD001B050EA410C0CBF52EA430C91EA030F02BF90EA020F0020704710F1000F91EA030F58BF994208BF90422CBFD8176FEAE37040F0010070474FEA410C7FEA6C5C02D150EA013C07D14FEA430C7FEA6C5CD6D152EA033CD3D05DF8040B704700BF8446104662468C461946634600E000BF01B5FFF7B7FF0028F8
S3FD0800918048BF10F1000F01BD4DF808EDFFF7F4FF0CBF012000205DF808FB00BF4DF808EDFFF7EAFF34BF012000205DF808FB00BF4DF808EDFFF7E0FF94BF012000205DF808FB00BF4DF808EDFFF7CEFF94BF012000205DF808FB00BF4DF808EDFFF7C4FF34BF012000205DF808FB00BF4FEA410C7FEA6C5C02D150EA013C0AD14FEA430C7FEA6C5C02D152EA033C02D14FF0000070474FF0010070474A0011D212F5001211D20DD56FF47873B3EB62520ED44FEAC12343F0004343EA505323FA02F070474FF00000704750EA013002D14FF0FF3070474FF0000070474FEA4102B2F1E04324BFB3F5001CDCF1FE5C0DD901F0004C4FEAC0024CEA5070FE
S3FD08009278B2F1004F40EB830008BF20F00100704711F0804F21D113F13872BCBF01F00040704741F480114FEA5252C2F11802C2F1200C10FA0CF320FA02F018BF40F001004FEAC1234FEAD32303FA0CFC40EA0C0023FA02F34FEA4303CCE77FEA625307D150EA01331EBF4FF0FE4040F44000704701F0004040F0FE4040F40000704700BF53B94AB9002908BF00281CBF4FF0FF314FF0FF3000F0A4B9ADF1080C6DE904CE00F03CF8DDF804E0DDE9022304B0704738B50022002304460D46FFF733FF28B920462946BDE8384000F00AB8204605F1004100F005F8404261EB410138BD00BFD0B50C4B002206460F46FFF7A9FCFFF757FF0446FFF72AFC96
S3FD08009370074B0022FFF7A0FC02460B4630463946FFF7E2FAFFF748FF2146D0BD0000F03D0000F0412DE9F047089D04468C46002B40F083808A42174647D9B2FA82F242B1C2F1200024FA00F09140974040EA010C94404FEA1748230CBCFBF8F61FFA87FE08FB16C143EA014306FB0EF1994209D9FB1806F1FF3080F01981994240F21681023E3B445B1AA4B2B3FBF8F008FB103344EA034400FB0EFEA64509D93C1900F1FF3380F00581A64540F2028102383C4440EA0640A4EB0E0400261DB1D4400023C5E900433146BDE8F08702B9FFDEB2FA82F2002A50D1CB1B4FEA174E1FFA87F80126B3FBFEFC210C0EFB1C3341EA034108FB0CF38B4207D9E5
S3FD0800946879180CF1FF3002D28B4200F2E9808446C91AA3B2B1FBFEF00EFB101143EA014408FB00F8A04507D93C1900F1FF3302D2A04500F2D9801846A4EB080440EA0C40BFE78B4209D9002D00F0B1800026C5E9000130463146BDE8F087B3FA83F6002E4AD18B4202D3824200F2B880841A61EB030101208C46002DA8D0C5E9004CA5E7C2F1200320FA03F6974001FA02F04FEA174ED9403043030CB1FBFEF61FFA87F80EFB161143EA014306FB08F1994204FA02F409D9FB1806F1FF3C80F08D80994240F28A80023E3B445B1A81B2B3FBFEF00EFB103341EA034100FB08F38B4207D9791800F1FF3C73D28B4271D902383944CB1A40EA064678E7A8
S3FD08009560C6F1200C03FA06F422FA0CF31C4320FA0CF701FA06F34FEA144E21FA0CF11F433B0CB1FBFEF91FFA84F80EFB191143EA014109FB08FA8A4502FA06F200FA06F308D9611809F1FF3048D28A4546D9A9F102092144A1EB0A01BFB2B1FBFEF00EFB101147EA014700FB08F8B84507D9E71900F1FF312ED2B8452CD90238274440EA0940A7EB0807A0FB02894F45C64649461AD317D05DB1B3EB0E0267EB010707FA0CFCF2404CEA0202F740C5E9002700263146BDE8F0872E4628460BE70646E9E61846FDE64345E5D2B8EB020E69EB04010138DFE70846D2E760468DE78146B9E7664675E730464AE7ACF1020C394413E702383C4424E700BF50
S3FD08009658704700BF4FEA410212F5001215D211D56FF47873B3EB625212D94FEAC12343F0004343EA505311F0004F23FA02F018BF404270474FF00000704750EA013005D111F0004008BF6FF0004070474FF00000704700BF80F0004002E000BF81F0004142001FBF5FEA410392EA030F7FEA226C7FEA236C6AD04FEA1262D2EB1363C1BFD218414048404140B8BF5B42192B88BF704710F0004F40F4000020F07F4018BF404211F0004F41F4000121F07F4118BF494292EA030F3FD0A2F1010241FA03FC10EB0C00C3F1200301FA03F100F0004302D5494260EB4000B0F5000F13D3B0F1807F06D340084FEA310102F10102FE2A51D2B1F1004F40EB1B
S3FD08009750C25008BF20F0010040EA03007047490040EB0000013A28BFB0F5000FEDD2B0FA80FCACF1080CB2EB0C0200FA0CF0AABF00EBC25052421843BCBFD0401843704792F0000F81F4000106BF80F400000132013BB5E74FEA41037FEA226C18BF7FEA236C21D092EA030F04D092F0000F08BF0846704790EA010F1CBF0020704712F07F4F04D1400028BF40F00040704712F100723CBF00F50000704700F0004343F0FE4040F4000070477FEA226216BF08467FEA23630146420206BF5FEA412390EA010F40F4800070474FF0000304E000BF10F0004348BF40425FEA000C08BF704743F0964301464FF000001CE050EA010208BF70474FF00003BA
S3FD080098480AE000BF50EA010208BF704711F0004302D5404261EB41015FEA010C02BF84460146002043F0B64308BFA3F18053A3F50003BCFA8CF2083AA3EBC25310DB01FA02FC634400FA02FCC2F12002BCF1004F20FA02F243EB020008BF20F00100704702F1200201FA02FCC2F1200250EA4C0021FA02F243EB020008BF20EADC7070477BB972B90029BEBF00204FF0004106E008BF00281CBF6FF000414FF0FF30FFF7B7BEADF1080C6DE904CE002909DB002B1ADBFFF74BFDDDF804E0DDE9022304B07047404261EB4101002B1BDBFFF73EFDDDF804E0DDE9022304B0404261EB4101524263EB43037047524263EB4303FFF72DFDDDF804E0DDE906
S3FD08009940022304B0404261EB41017047524263EB4303FFF71FFDDDF804E0DDE9022304B0524263EB43037047D0B5FFF74DF90C4B002206460F46FFF79FF9FFF74DFC0446FFF720F9074B0022FFF796F902460B4630463946FEF7D8FFFFF73EFC2146D0BD0000F03D0000F041D1E90C30184700BF90F8A030ABB9D0F888202AB9102380F8A030D0E926301847D0E923139942F5D8D0F8843033B10A4493428CBF11231023EDE77047CA420CBF1023112380F8A030D0E92630184700BF90F8A8309BB9C26D2AB9102380F8A830D0E928301847D0E918139942F5D8836D33B10A4493428CBF11231023EEE77047CA420CBF1023112380F8A830D0E928300B
S3FD08009A38184700BF07EE900ADFED076AB8EE677AC7EE267AB7EE007A77EE877AC7EE277A17EE900A704700BF00007A44014818F0ADBB00BFD023002038B505460B481AF01DFB0B4B1C6814B905E024681CB1A388AB42FAD304D1054819F004FD204638BD0248002419F0FEFC204638BDFC2400201C25002008B5EFF30583C3F3080363B9EFF311832BB118F081FBBDE808401EF029BEBDE8084019F0B9BFBDE8084018F075BB00BF10B5094C1EF06AFE236813B120461EF0B9FE00220023C4E908230448BDE81040002118F061BB00BFD8230020E022002008B5EFF30583C3F3080363B9EFF311832BB118F02DFBBDE808401EF0F9BDBDE8084019F0DA
S3FD08009B30B5BFBDE8084018F021BB00BF30B50D4D83B06B680446002289211DF0F9FF0DF107026B6820468E211EF016F89DF807200AB903B030BD6B6820468E211DF0E8FF03B030BD5C0800202DE9F041022982B0804614461F466AD155680E4628468749FEF79AFC002860D085492846FEF794FC48B384492846FEF78FFC002800F0EF8081492846FEF788FC002800F0DA807F492846FEF781FC002800F0E3807C492846FEF77AFC002800F0E0807A492846FEF773FC002800F0D78077492846FEF76CFC002834D10826754C754B2360754D0123E3606268002128461DF0E6FF2068FFF795FF6268012128461DF0DEFF2068FFF78DFF62680221284694
S3FD08009C281DF0D6FF2068FFF785FF6268032128461DF0CEFF2068FFF77DFFB11E62682846062900F2A880DFE801F0848A6C78727E58000126CBE722685D4940461FF04CFC5C4940461FF048FC5B4940461FF044FC5A4940461FF040FC594940461FF03CFC584940461FF038FC574940461FF034FC564940461FF030FC554940461FF02CFC544940461FF028FC534940461FF024FC524940461FF020FC514940461FF01CFC504940461FF018FC4F4940461FF014FC4E4940461FF010FC4D4940461FF00CFC4C4940461FF008FC002F46D00023C7E90033022002B0BDE8F08100211DF068FF454B4146454A684608F07CFE0020DDE900232060E06097B3A1
S3FD08009D20C7E9002302B0BDE8F08100211DF054FF3D4B4146EAE703211DF04EFF3B4B4146E4E701211DF048FF394B4146DEE702211DF042FF374B4146D8E703211DF03CFF354B4146D2E702211DF036FF334B4146CCE70426154C324B23601023314DE3603FE70220BAE7384602B0BDE8F081032631E70526EEE70726ECE70626EAE701211DF01AFF284B4146B0E700BF5CF4020864F402086CF4020874F402087CF4020884F402088CF4020894F402085C08002050090020440900209CF50208B0F50208BCF50208C4F50208E8F50208F0F5020814F602081CF6020840F6020848F602086CF6020874F6020898F60208A0F60208C4F60208CCF6020887
S3FD08009E18F0F60208F8F602087CF50208E8080020FCF402083CF502081CF502085CF50208BCF40208DCF402084C0900203C0900209CF4020870B51B4C04F11005E161C0E901524FF080432669DD680660322A38BF322215F002057060206101EB02001BD1022658631D61DE60586A401A824200D970BD3220DD680130AD0701EB00060ED55E635D6A6D1AAA42F4D93228F0D9E36A43F00103E36270BD03481EF077FB03481EF074FBF82C0020C00B0308040C030838B505460C461EF073FC002D43D02B78043B012B3FD86B6ADA68920736D0DA6892073BD1186910F003002ED0D3F8C011D3F8C421D3F8C801D3F8CC5120612020656118611869850751
S3FD08009F1003D1586940F0100058612079C1F340031B01C1F3800520F0300043EA45130343980623712AD5A368C90861F31C03A3602379110A62F30303120C237121706280002038BD1A699507C5D1012038BD0E481EF020FBD3F8B011D3F8B421D3F8B801D3F8BC51206120206561D860D8688007CBD1586940F002005861C6E72389490D61F30A032381D3E7100C0308426A0B7870B4946813F0200FC4F30164C3F3001318D048685B0043EAC00343F00403D1E90265087802EB041243F0010300F00F00C2F88401C2F88861C2F88C5170BCC2F88031704788885B0043EA4053E7E700BF224B8260F0B40226012503F1200480F82650046186845E6A6F
S3FD0800A008C16103F1380100F1100500248842C0E90563C0E90F44426435605D6227D0D9688162CB6A13B15C6CA24219D30363C8621149CA68002300F138074FF0FF36002400250132C0E9164587638664C0E91333F0BCCA60C36243657047596C8A4203D21C461B6B002BF8D103632063E0E71C669C66DDE7F82C0020F02F002008B51EF097FB074B1868984208D002681A6000215360BDE8084041631EF0CEBB08BD00BFFC08002070B40D4D05F11006EC68334605E013F8011B10F8012B914206D1A342F7D3007810B9EE6070BC7047044BAB6040F20112AA80012070BC7047003000201CF702084FF08043091A5B6A181A884201D200207047044B3B
S3FD0800A100044A9A6040F201129A800120704700BF0030002030F7020808B507EE900A2DED028BFBEECB7A9FED098A094B67EE887A002908BF194617EE900A884707EE900A87EE880ABDEC028B08BD00BF0000C84275A50208F8B5302383F3118818F014FE1EF014FD694A1078431E012B00F2CB80674951604C68946000230128D3607CD0D069036043638363C3630364436250690D68B0FBF5F35F1EB7F5803F80F0A68003FB05F3984240F0A180CD68D669C86AB76205F00F03013C012BF462706077D0022B76D000234C6904F00F00012803D0022803D143F0200343F01003C86900F00F07012F03D0022F03D143F4007343F480734F6A07F00F0C3B
S3FD0800A1F8BCF1010F04D0BCF1020F03D143F4005343F4805392F818C0BCF1000F50D005F0F005102D03D0202D03D143F0080343F0040304F0F004102C03D0202C03D143F0800343F0400300F0F00010284BD0202847D007F0F007102F03D0202F4DD143F40043486B43F48043336220F0FF000124002374613361F0600B6B43F40043736427E0264BD569186C40F002001864186E40F002001866186E186A40F002001862186A20F0020018621B6A1D4B536146F66800A861E8616EE7002343F0010386E7496B336221F0FF0301217161C6F810C0F36085233360022313701FF0B3FC0020F8BD43F4006307F0F007102F43F48063B3D1B6E70B481EF067
S3FD0800A2F059F9486B3362012420F0FF03002074613061F360B4E706481EF04CF9F8160020040900200038024000BD0105D00B0308E00B030808B5302383F3118818F02CFD1EF02CFC124B1A78511E01291DD8022A08D0012100221970DA605A60BDE808401FF074BCDA69187E00211160D160116100B15164074A116C21F002011164116E21F002011166126EE3E703481EF012F9F816002000380240FC0B030870B5302305460C46164683F3118818F0F5FC1EF0F5FB1EF009FA002D52D02B78022B4DD103232B702378686AAE600122C5E903240BB140F48070D5E9073212686188D660516010601068256AE66840F001001060D4E90420013945EA13
S3FD0800A3E8015100251D60D860A0691861A08B5862E08B9862D4E9095046F08066D96246F4807651001D6358635E6010D442F4407242F001029A601EF0A1FB17F08BFF104B1A689A4213D1002383F3118870BD22F0804140F2033021F002010143024399609A60E8E7052BAFD006481EF0A7F8D96893688A689A42E6D203481EF09FF800BFF82C0020200C0308AC0A030870B5302383F31188244C18F083FC1EF083FBA3682068002B17DBA0423AD15A1C002A8260C8BF836013DD1EF03DF91C4D00241EF05DFB17F047FF2B68AB4221D1002383F31188204670BDA04222D00133A360036823605C601EF0B8F9A3680022013B93424263A360DFDA0D4DC5
S3FD0800A4E0EE6834606368736005201E60746366601EF088FB746BD6E7EA689B6892689A42D8D205481EF04EF804481EF04BF800BFD4300020F82C0020D00A0308B00B030838B504460D46302383F3118818F02CFC1EF02CFB1EF040F9A368002B236811DB9C4208BFA56025D11EF0E8F81EF00AFB17F0F4FE114B1A689A4213D1002383F3118838BD9C4215D0A5606FF001056068436863601C601EF063F9456323689C42F5D1E1E7D96893688A689A42E6D204481EF008F803481EF005F800BFF82C0020D00A0308600B030870B53023064683F3118818F0E9FB1EF0E9FA1EF09DF81E4B9A68002A14DB1C689C4232D1551E002DA56012DB194C0025E8
S3FD0800A5D81EF0C4FA17F0AEFE2368A34218D1002383F31188284670BD196899421DD0511E9960AEB10F4CE26813605868506053633146026005205A601EF074FB0546DFE7E2689B6892689A42E1D207481DF0BEFF044C9A604FF0FF35D2E704481DF0B6FFD4300020F82C0020D00A0308900B030808B5302383F3118818F09AFB1EF09AFA0E4B1868984205D002681A60536000211EF06AF81EF07AFA17F064FE084B1A689A4203D1002383F3118808BDD96893688A689A42F6D203481DF088FFFC080020F82C0020DC0A030870B5302383F311880F4C18F06DFB1EF06DFAE5681EF080F80023EE6BEB631EF051FA17F03BFE2368A34204D1002383F384
S3FD0800A6D01188304670BDE2689B6892689A42F5D202481DF05FFF00BFF82C0020E80A030870B5144C3023E56883F3118818F044FB1EF044FAEE6B6EB10023EB631EF02AFA17F014FE2368A3420CD1002383F31188304670BD4FF0FF336B630A201EF06AFAEE6BE9E7E2689B6892689A42EDD202481DF030FFF82C0020E80A030838B5154C3023E56883F3118818F016FB1EF016FAEB6B03F00502052A05D005236B630B201EF048FAEB6B23F00503EB631EF0F2F917F0DCFD2368A34204D1002383F31188052038BDE2689B6892689A42F5D202481DF000FFF82C0020E80A030810B53023044683F3118818F0E7FA1EF0E7F91DF0FBFF236813B1204638
S3FD0800A7C81EF04AF800220023C4E908231EF0C6F917F0B0FD084B1A689A4205D1002383F31188C4E90C3310BDD96893688A689A42F4D202481DF0D2FEF82C00203C0B030800B170470EB400B582B004AA0649074801921EF0A5FA6FF001001FF0FBF802B05DF804EB03B0704744F702082025002070B50446003886B018BF01200D4616460B490C4A7A23FFF7DBFFA1880296002320688DF81550CDE9003341F050017724022305AA8DF814401CF0B0FE06B070BD44F7020864F702082DE9F043DFF86C90DFF86C800446003887B00D461E4618BF01204146174657234A46FFF7B1FF2068003818BF01204A4641465823FFF7A8FF4A4641465923012034
S3FD0800A8C0FFF7A2FF3F88A1880296002320688DF81670CDE900333E0A41F04001032305AA8DF815608DF814501CF074FE07B0BDE8F08300BFA8F7020844F70208F0B50E4687B017461D46044618B10068003818BF01200E4A0E494423FFF776FF281E18BF01200A4A0A494523FFF76EFF0C9B0095CDE901730DF1170220688DF8176001235A211CF047FE07B0F0BD00BFE8F7020844F702082DE9F04387B004AF8846BD6A14469946064618B10068003818BF0120144A15495823FFF747FF124A124959230120FFF741FF04F1080303F4FC73ADEB030D4946631C22460DF111007B608DF81080FDF7E5FC029500217B68306804AACDE900115A211CF0C8
S3FD0800A9B80DFE0C37BD46BDE8F08300BFE8F7020844F7020838B50D46044620B163681B682B60002038BD0848084A90F8F0350849022B08BF00F20C60CD231EF085FD6FF001001FF00FF8E9E72025002028F802084CF8020838B5836804460BB14368E3B1114D124A95F8F0351149022B08BF05F20C6041F2490318BF28461EF065FD6FF001001EF0EFFF238CD5F81026626043F004032384C5F8104638BD028CA3F582731A42DDD1004DEEE72025002068F802084CF80208F0B5A04CA04BC4F8C83783B004F5FA630022C4F8D0379D48C4F8CC270DF107011DF04AFC9DF80730012B11D094F8F035974A9849022B08BF04F20C6040F2092318BF20460B
S3FD0800AAB01EF026FD6FF001001EF0B0FF91480DF107011DF02FFC9DF807307BB194F8F0358A4A8B49022B0CBF8B48854840F20B231EF00EFD6FF001001EF098FF87480DF107011DF017FC9DF807307BB194F8F0357E4A7F49022B0CBF7F48794840F20F231EF0F6FC6FF001001EF080FF7C480DF107011DF0FFFB9DF807307BB194F8F035724A7349022B0CBF73486D4840F213231EF0DEFC6FF001001EF068FF714C72487249734B0022226000250024C1E9004502601B60302787F311886E4E6E4C6F4D18F00AF91EF00AF8336803F00F0304EBC30244F83350566011F014FF87F3118818F0FAF81DF0FAFF5A4B31681B793B40102B21F00F0001F06D
S3FD0800ABA80F0100F09380202B00F08E80BB420CBF0322002216F094FE302711F0F7FE87F31188594E18F0DCF81DF0DCFF336803F00F0304EBC30244F83350566011F0E6FE87F3118818F0CCF81DF0CCFF404B31681B793B40102B21F00F0001F00F016BD0202B6BD0BB420CBF0322002216F068FE302711F0CBFE87F31188444E18F0B0F81DF0B0FF336803F00F0304EBC30244F83350566011F0BAFE87F3118818F0A0F81DF0A0FF2F4B31681B793B40102B21F00F0001F00F013DD0202B43D0BB420CBF0322002216F03CFE302711F09FFE87F311882F4E18F084F81DF084FF336803F00F0304EBC30244F83350566011F08EFE87F3118818F074F8E8
S3FD0800ACA01DF074FF1A4B31681B793B40102B21F00F0001F00F010FD0202B15D0BB420CBF0322002216F010FE11F074FE03B0F0BD022273E7012271E70122F3E70122C5E7012297E7022295E70222EBE70222BDE72025002000001012A40D030884F80208A0F802089C0D03082C2B0020AC0D0308B40D0308BC24002058180020B0240020541800206C080020082400201999010870080020740800207808002030B585B00A469DF80030BDF8044002F03F0523F03F032B4301466FF30A0402A88DF80030ADF80440FDF704FB69460022044815F0BBF8A0F10300B0FA80F0400905B030BD000800200EB410B5044683B070B106AA0F49019220461DF07B
S3FD0800AD98E7FF0E4920461EF0AFFB03B0BDE8104003B070470A480B4A90F8F0350A49022B08BF00F20C60BE231EF09EFB6FF001001EF028FEDFE700BFD8F80208705F030820250020BCF802084CF80208002908BF322870B504460D46164610D20F48104A90F8F0350F49022B08BF00F20C604FF492731EF079FB6FF001001EF003FE0A480A4BC662C0E9084500240025C0E90645BDE87040836208F0EBBD00BF2025002004F902084CF80208D8230020659A00082DE9F04F2DED048B0329BBB00F460446164607D10122314638460EF021FD054600283BD03268154920461EF045FB144920461EF041FB134920461EF03DFB124920461EF039FB11494F
S3FD0800AE9020461EF035FB104920461EF031FB3146384601220EF000FD012805D002203BB0BDEC048BBDE8F08F00203BB0BDEC048BBDE8F08F20F9020840F902084CF9020898F90208C4F90208D4F90208000070420024744970681FF06FFBFEF7B5F908EE100AB0681FF068FBB5EEC08AF1EE10FAD4D95FED0A7AB4EEE78AF1EE10FACDDCFEF7A2F907EE900AF5EEC07AF1EE10FAC4D9F7EE006A86EEA77A5FED138A67EE287AB6EE009A77EE897A17EE900AFEF713FD002908BF322806460F46AED3DFF864A3C748DFF8608335A94FF0FF334FF4807218F04FFEDAF844342D93DAF84C342393DAF854341593DAF8AC34DAF84024319308F59B6BDAF8E6
S3FD0800AF88B4342C922993DAF84824DAF8BC34229208F59C69DAF850241993DBF8003014922093DAF8A824DBF8043030922193DAF8B024D9F8003028921E93DAF8B824D9F8043018921F93DAF810331C93DAF814331D93D8F810331A93D8F814331B93DAF890332E93DAF894332F93DAF898332493DAF89C332593DAF8A0331693DAF8A4331793DAF8E8332A93DAF8EC332B93DAF8F0332693DAF8F4332793DAF8F8331293DAF8FC331393302383F3118817F0A8FE1DF0A8FD394604223046FFF7CFFE32A808F0A2FC68EE288A884F894E78EE897A17EE900AFEF784FC329BFD62C018339BB86143EB0101002200233846F9618149B962C7E9082308F0DB
S3FD0800B080C3FC1DF06FFD17F059F93368B34240F06783002383F3118840F2011018F09EFC35A90546724818F079FD15F0FF0F40F05083302383F3118817F066FE1DF066FD32A808F065FC329B6D49339A5B184FF0000141EB020232A8CDE9323208F058FD1DF040FD17F02AF93368B34240F04183002383F3118823680A21DB6820469847604920461EF0FCF9DAE9C4231C985E49121A1D9863EB000320461EF0F1F95B4920461EF0EDF9D8E9C4231A985649121A1B9863EB000320461EF0E2F9544920461EF0DEF9DBE90032209852491B1A1093219BD9E9005662EB030311931E9BDDE91078ED1A1F9B3A4666EB0306204643461EF0C6F92A4633467D
S3FD0800B178474920461EF0C0F93A464346134340F07481444920461EF0B7F9DAE9E632249841491B1A0093259B179862EB0303DAE9E8560193169BEB1A66EB000008930990DDE900232046DAE9E278DAE9E49B1EF09BF9DDE90823354920461EF095F9DDE90023134340F0E780DFED318AC8EE887A17EE900AFDF70CFD02460B4620462D491EF082F92C4920461EF07EF9DAE9FC32269825491B1A0293279B139862EB0303DAE9FE560393129BEB1A66EB00000A930B90DDE902232046DAE9F878DAE9FA9B1EF062F9DDE90A23184920461EF05CF9DDE90223134340F0BB81DFED158AC8EE887A17EE900AFDF7D3FC02460B46204610491EF049F925E0C4
S3FD0800B270E0220020E8220020F82C0020DD9A0008A086010014FA020824FA020834FA020844FA020850FA020864FA020890FA0208A0FA0208B4FA02080000000040FB020858FB020870180020F01D0020AF4920461EF01EF9AE4AAF48AF49DAF83874DAF83C84D2E90032D0E9009B22981B1A0493239B1598D1E9005662EB03030593149BA649EB1A66EB00000C930D90DDE9042320461EF0FDF8DDE90C23A14920461EF0F7F8DDE90423134340F0CD80DFED9D8AC8EE887A17EE900AFDF76EFC06460F4632463B46984920461EF0E2F8974920461EF0DEF89648974A9749DAF8A094DAF8A4A4D0E900B0D2E90032009028981B1A0693299B1998D1E993
S3FD0800B368005862EB03030793189B8649EB1A68EB00000E930F90DDE9062320461EF0BCF8DDE90E23804920461EF0B6F8DDE90623134340F077817E4932463B4620461EF0ABF800207FE5DDE90001FEF743FA0346DDE9080108EE903AFEF73CFA07EE900A87EEA87AF7EE007A77EEC77A9FED7B7A67EE877A17EE900AFDF712FC02460B46204670491EF088F8DDE90823DDE900018B4208BF8242BFF4F1AE3A466A4920461EF07AF84246694920461EF075F82E9BB9EB03002F9B6BEB0301FEF70BFADDE900BC169A0346BBEB05006CEB06018018179A41EB0202114609EE103AFEF7FAF907EE900AC9EE277A17EE900AFDF7D8FB02460B46204656494E
S3FD0800B4601EF04EF85549A8EB070220461EF048F8B8E631462846FEF7E1F90346DDE9100108EE903AFEF7DAF907EE900A88EEA77AF7EE007A77EEC77A9FED4A7A67EE877A17EE900AFDF7B0FB02460B46204644491EF026F869E6DDE90401FEF7BFF90346DDE90C0108EE903AFEF7B8F907EE900A87EEA87AF7EE007A77EEC77A9FED397A67EE877A17EE900AFDF78EFB02460B4620462E491EF004F8DDE90C23DDE904018B4208BF8242BFF40BAF3A46284920461DF0F6FF4246274920461DF0F1FF2C9BB9EB03002D9B6BEB0301FEF787F9DDE904BC149A0346BBEB05006CEB06018018159A41EB0202114609EE103AFEF776F907EE900AC9EE277A20
S3FD0800B55817EE900AFDF754FB02460B46204614491DF0CAFF1349A8EB070220461DF0C4FFD2E600BF68FB0208B81C0020B01C0020C01C0020A0FA0208B4FA02080000000040FB020878FB0208181D0020201D0020281D0020C8FA0208E0FA0208F8FA020810FB020828FB020878FA02080000C842DDE90201FEF736F90346DDE90A0108EE903AFEF72FF907EE900A87EEA87AF7EE007A77EEC77A1FED0B7A67EE877A17EE900AFDF705FB02460B4620465E491DF07BFFDDE90A23DDE902018B4208BF8242BFF41DAE3A46594920461DF06DFF4246574920461DF068FF2A9BB9EB03002B9B6BEB0301FEF7FEF8DDE902BC129A0346BBEB05006CEB0601FE
S3FD0800B6508018139A41EB0202114609EE103AFEF7EDF807EE900AC9EE277A17EE900AFDF7CBFA02460B46204644491DF041FF4449A8EB070220461DF03BFFE4E5DDE90E01FEF7D4F80346DDE9060108EE103AFEF7CDF807EE900A88EE277AF7EE007A77EEC77A9FED387A67EE877A17EE900AFDF7A3FA02460B4620462D491DF019FFDDE90E23DDE906018B4208BF8242BFF45FAE4A46284920461DF00BFF5246264920461DF006FF309B319ABBEB0300009B63EB0201FEF79BF8DDE906BC189A0346BBEB05006CEB08018018199A41EB0202114608EE103AFEF78AF807EE900AC8EE277A17EE900AFDF768FA02460B46204613491DF0DEFE1249AAEBF5
S3FD0800B748090220461DF0D8FE25E6F068294618F0A1F98020FFF7A7BBF2689B6892689A42BFF493AC0A481CF019FFF2689B6892689A42BFF4B9ACF5E7C8FA0208E0FA0208F8FA020810FB020828FB02080000C8420C0B03082DE9F04F2DED048B0329B1B00F460446154607D10122294638460EF077F8064600283BD02A68154920461DF09BFE144920461DF097FE134920461DF093FE124920461DF08FFE114920461DF08BFE104920461DF087FE2946384601220EF056F8012805D0022031B0BDEC048BBDE8F08F002031B0BDEC048BBDE8F08F20F9020840F902084CF9020898F90208C4F9020888FB0208000070420024744968681EF0C5FEFDF761
S3FD0800B8400BFD08EE100AA8681EF0BEFEB5EEC08AF1EE10FAD4D95FED0A7AB4EEE78AF1EE10FACDDCFDF7F8FC07EE900AF5EEC07AF1EE10FAC4D9F7EE006A86EEA77A5FED138A67EE287AB6EE009A77EE897A17EE900AFEF769F8002908BF322880468946AED3CC4DCC48CD4FDFF87CA305F5866B2BA94FF0FF334FF4807218F0A3F9DBF800302093DBF804302193D5F83C341F93D5F810330E93D5F814330F93D5F858332493D5F85C332593D5F860331293D5F864331393D5F898332693D5F89C332793D5F8A0331493D5F8A4331593D5F8E033D5F838242293D5F8E4331E922393D5F8E8331893D5F8EC331993D7F810331093D7F814331193D7F853
S3FD0800B93838331693D7F83C331793D7F840330A93D7F844330B93DAF8A0301A93DAF8A4301B93DAF8A8301C93DAF8AC301D93302383F3118817F00CFA1DF00CF9494602224046FFF733FA28A808F006F868EE288ADFF8A092DFF8A08278EE897A17EE900AFDF7E6FF289BC9F82C60C018299BC9F8180043EB0101002200234846C9F81C108949C9F82810C9E9082308F021F81DF0CDF816F0B7FCD8F80030434540F0DB82002383F3118840F2011017F0FBFF2BA906467B4818F0D6F816F0FF0F40F0C482302383F3118817F0C3F91DF0C3F828A807F0C2FF289B7549299A5B184FF0000141EB020228A8CDE9283208F0B5F81DF09DF816F087FCD8F8BF
S3FD0800BA300030434540F0D482002383F3118823680A21DB6820469847674920461DF058FDD7E9C42310986549121A119863EB000320461DF04DFD624920461DF049FDD5E9C4230E985D49121A0F9863EB000320461DF03EFD5B4920461DF03AFDD7E9CE32169859491B1A0093179B0B9862EB0303D7E9D06701930A9BB6EB030967EB0008DDE9002320461DF023FD4A4643464F4920461DF01DFDDDE90023134340F09F81DDE900120A9B881B62EB0701C0180B9B41EB03031946FDF7A9FE07EE900AC7EE887A17EE900AFDF787F802460B4620463F491DF0FDFC3F4920461DF0F9FCDAE928321A983C491B1A08931B9B1D9862EB0303DAE92A670993CF
S3FD0800BB28DDE908891C9BF61A67EB000742464B4620461DF0E1FC3B463249324620461DF0DBFC58EA090340F03C81DFED2F8AC8EE887A17EE900AFDF753F802460B4620462A491DF0C9FC2A4920461DF0C5FCD5E9D832129827491B1A0293139B62EB03030393DDE902232046D5E9D467D5E9D6891DF0B2FCDDE90201FDF74CFE09EE100A89EE287ADFED1C7A67EE277A17EE900AFDF726F802460B46204618491DF09CFCDDE90223134340F0B1812FE0F01D0020E022002070180020DD9A0008A086010014FA020824FA020834FA0208C8FB0208D4FB0208E4FB020808FC020820FC020828FC02083CFC02080000000050FC020868FC02087CFC020854
S3FD0800BC200000C842C8FA020818230020E8220020F82C0020C9EE087A17EE900AFCF7E4FF02460B462046D7491DF05AFCD64920461DF056FCD5E9E8321498D4491B1A0493159B62EB03030593DDE904232046D5E9E467D5E9E6891DF043FCDDE90401FDF7DDFD09EE100A89EE287ADFEDC97A67EE277A17EE900AFCF7B7FF02460B462046C4491DF02DFCDDE90423134340F01C81C9EE087A17EE900AFCF7A6FF02460B462046B8491DF01CFCBB4920461DF018FCD5E9FA321898B5491B1A0693199B62EB03030793DDE906232046D5E9F667D5E9F8891DF005FCDDE90601FDF79FFD09EE100A89EE287ADFEDAA7A67EE277A17EE900AFCF779FF024689
S3FD0800BD180B462046A5491DF0EFFBDDE90623134340F0B880C9EE087A17EE900AFCF768FF02460B46204699491DF0DEFB9D4920461DF0DAFB9C4A1E989649D5F82864D5F82C54D2E900321B1A0C931F9B62EB03030D93DDE90C9A20464A465346DBE900781DF0C2FB51464846FDF75CFD09EE100A89EE287ADFED887A67EE277A17EE900AFCF736FF0B460246844920461DF0ACFB59EA0A0351D1C9EE087A17EE900AFCF727FF02460B46204678491DF09DFB00201BE5DDE90801FDF735FD39460346304608EE903AFDF72EFD07EE900A87EEA87AF7EE007A77EEC77A9FED6F7A67EE877A17EE900AFCF704FF02460B4620466F491DF07AFBA3E64146B0
S3FD0800BE104846FDF713FD0346DDE9000108EE903AFDF70CFD07EE900A88EEA77AF7EE007A77EEC77A9FED5E7A67EE877A17EE900AFCF7E2FE02460B4620465F491DF058FB3EE632465D4920461DF052FB2A465C4920461DF04DFB209BF81A219B68EB0301FDF7E4FC07EE900AC7EE897A17EE900AFCF7C2FE02460B46204652491DF038FB5149AA1B20461DF033FB88E732464B4920461DF02DFB3A46494920461DF028FB229BB8EB0300239B69EB0301FDF7BEFC07EE900AC7EE897A17EE900AFCF79CFE02460B4620463F491DF012FB3E49BA1B20461DF00DFB21E73246384920461DF007FB3A46364920461DF002FB269BB8EB0300279B69EB030140
S3FD0800BF08FDF798FC07EE900AC7EE897A17EE900AFCF776FE02460B4620462C491DF0ECFA2B49BA1B20461DF0E7FABDE63246254920461DF0E1FA3A46234920461DF0DCFA249BB8EB0300259B69EB0301FDF772FC07EE900AC7EE897A17EE900AFCF750FE02460B46204619491DF0C6FA1849BA1B20461DF0C1FA59E6D8F80C00314617F089FD802039E4D8F80C209B6892689A42BFF41EAD0F481CF001FB00BF40FB020890FC02087CFC02080000C842C8FA0208A4FC0208B8FC02082822002078FA0208F4FB0208E0FA0208F8FA020810FB020828FB02080C0B0308D8F80C209B6892689A42BFF425ADD5E72DE9F04F2DED048B032989B00E46044694
S3FD0800C000154606D10122294630460DF04DFC074658B32A687D4920461DF072FA7C4920461DF06EFA7B4920461DF06AFA7A4920461DF066FA794920461DF062FA784920461DF05EFA2946304601220DF02DFC012805D0022009B0BDEC048BBDE8F08F002009B0BDEC048BBDE8F08F68681EF0ACFAFDF7F2F808EE100AA8681EF0A5FAB5EEC08AF1EE10FAE4D9DFED667AB4EEE78AF1EE10FADDDCFDF7DFF807EE900AF5EEC07AF1EE10FAD4D9F7EE006A86EEA77A9FED5D9A67EE097AF6EE008A77EEA87A17EE900AFDF750FC002908BF322880468946BED3554E564803A94FF0FF334FF4807217F08FFDD6E9C4AB302383F3118816F04AFE1CF04AFD9B
S3FD0800C0F8012240464946FEF771FE684607F044FC28EE098A494DDFF83C8178EE287A17EE900AFDF725FC009BEF62C018019BA86143EB0101002200232846E9614049A962C5E9082307F064FC1CF010FD16F0FAF8D8F8003043454CD1002383F3118840F2011017F03FFC03A90546334817F01AFD15F0FF0F36D1302383F3118816F008FE1CF008FD684607F007FC009B2D49019A5B184FF0000141EB02026846CDE9003207F0FAFC1CF0E2FC16F0CCF8D8F80030434527D1002585F3118823680A21DB6820469847204920461DF09EF9D6E9C423B2EB0A021D49204663EB0B031DF094F928463BE7D8F80C00294617F05BFC802034E7D8F80C209B6869
S3FD0800C1F092689A42ACD214481CF0D4F9D8F80C209B6892689A42D1D2F5E700BF20F9020840F902084CF9020898F90208C4F90208CCFC0208000070420024744970180020E0220020E8220020DD9A0008A086010014FA020824FA02080C0B0308F82C0020F0B50F4687B01546044668B3244B0194002604F5367220460397059500960292049318F099FA80BBDDE90131552203F8012B9942FBD8302383F3118816F07CFD1CF07CFC68461CF0A1FA04461CF062FC16F04CF8134B1A689A4219D1002383F31188204607B0F0BD0F48104A90F8F0350F49022B08BF00F20C60A7231DF018F96FF001001DF0A2FBC0E70A481CF062F9D96893688A689A4202
S3FD0800C2E8E0D207481CF05AF9F5D30008F82C00202025002008FD02084CF80208780B0308C40A0308436870B505460C467BB11648164A90F8F0351649022B08BF00F20C608B231DF0E9F86FF001001DF073FB04F1080630466C6017F0B9FEA36DEB615B682B6204F1180005F108014FF0FF33022217F054FCD4F8B03001333046C4F8B030BDE8704017F096B8202500203CFD0208A0F80208D0B5C0E90C23D1E900670446302383F3118816F0FBFC1CF0FBFB104BA36200210020C4E90801C4E906672046E46207F02DFB1CF0D9FB15F0C3FF094B1A689A4203D1002383F31188D0BDD96893688A689A42F6D203481CF0E7F800BFA9990008F82C002054
S3FD0800C3E03C0B0308F0B5036C83B0044693B14068D3F89410856DD3F89820D5E90267761847F10007CDE90067683072B10A4A6946FFF7B4FF94F8A0302BB9122384F8A030D4E92630984703B0F0BD044A12236946FFF7A4FFEEE700BFE5C3000865C6000838B50C46054648B1092C02D00F2C00D038BD2846BDE8384018F08CBF0848094A90F8F0350849022B08BF00F20C60BA231DF046F86FF001001DF0D0FAE4E700BF2025002008FD02084CF80208036CB3B18B4234BF00230123426C72B110B4D0E91240844205D88C420BD20C1BA24208D2002318465DF8044B7047184670470123EAE78842F5D9411A8A4238BF0023F0E72DE9F043054683B0C7
S3FD0800C4D800286BD04068002868D005F10801183017F058FB6868083017F0E0FD05F14800FEF758F96868046E0023A542C5F880307DD0504EDFF848814F4F01E0002C60D02346246CAC42F9D12A6C1A6469682A6A8B6D5B6800269A4208462E642AD0EC69444FDFF81C91DFF810812468A3698BB997F8F035022B414640F2E9434A46384608BF3E481CF0D0FF6FF001001DF05AFAA3696968D1F858C0A26A013B002B02F1FF3208BF0126A445A361A2620846DCD1002E37D1C269D0F8B030013A013BC261C0F8B030083016F07DFF0020C5E90700C5E92600686003B0BDE8F0832548284A90F8F0352449022B08BF00F20C6040F2AA431CF099FF6FF0C8
S3FD0800C5D001001DF023FA686883E796F8F035022B304640F2DB4308BF1A48424639461CF087FF6FF001001DF011FA8DE7203017F01DFC6868C2E72B6C0366A3B1D3F894308BB1816DD5F89820D1E90267F61847F10007CDE9006768304AB10C4A2B466946FFF7A4FE76E76830FEF7B8F872E7084A12236946FFF79AFE6CE700BF20250020A0F802082C2B00203CFD0208E5C3000865C6000838B5044680B92E482E4A90F8F0352E49022B08BF00F20C6040F231131CF03EFF6FF001001DF0C8F9EFF30583C3F3080333BB264BDB681BB39D68EFF31183002B39D0234B1A7882B322480121FDF7FCF9AB1EFC2B10D91A481A4A90F8F0351E49022B08BF3A
S3FD0800C6C800F20C6040F249131CF016FF6FF001001DF0A0F9EFF3118383B138BD134B1A7832B91C70BDE8384011480121FDF7DAB9BDE838400E480121FDF7D4B92846BDE8384018F087BE0A481C700121FDF7CAF9CCE7BF2018F07EFEC1E700BF202500207CFD0208A0F80208F82C002014250020F82400204CF8020870B50E4615460446A8B1D4F898303BB394F8A02042B115B1284617F06FFB3046BDE8704016F09ABE1122D4F89C0084F8A0209847EFE70C480C4A90F8F0350C49022B08BF00F20C6040F223331CF0B8FE6FF001001DF042F9D4F89830002BD7D11120FFF75FFFD6E7202500203CFD0208A0F8020838B5044628B3406818B304F172
S3FD0800C7C00801183017F0EAF96068083017F072FC6068256A816DD0F8B0304A68013B9542C0F8B03007D0E3691B689A6A994202F1FF329A62F8D1083016F050FE0023C4E90733636038BD0948094A90F8F0350949022B08BF00F20C604FF4BD731CF070FE6FF001001DF0FAF86068C8E7202500203CFD0208A0F8020810B5044630B1436823B12046FFF7B6FF002010BD0A480B4A90F8F0350A49022B08BF00F20C6040F2E9231CF04DFE6FF001001DF0D7F82046FFF7A0FF002010BD202500203CFD0208A0F8020810B5044630B1436823B12046FFF790FF002010BD0A480B4A90F8F0350A49022B08BF00F20C6040F237231CF027FE6FF001001DF0E8
S3FD0800C8B8B1F82046FFF77AFF002010BD202500203CFD0208A0F8020810B5044630B1436823B12046FFF76AFF002010BD0A480B4A90F8F0350A49022B08BF00F20C604FF4F1731CF001FE6FF001001DF08BF82046FFF754FF002010BD202500203CFD0208A0F8020838B50D46044688B1D4E90C23D4E90A01521943F100038842C4E90C2301D8A84200D9A562A94238BFE56238BD0848094A90F8F0350849022B08BF00F20C60AF231CF0D0FD6FF001001DF05AF8DCE700BF202500203CFD0208A0F802082DE9F04F87B0CDE90112DDF8408003930546002800F09F804068002800F09B80083017F08BFB6B682A6A996D4868824200F0ED80EC6960687D
S3FD0800C9B0824200F0E1800C6862681AB924686268002AFBD0734EDFF8D891DFF8D8B10027A2698AB999F8F0356F49022B08BF6F484FF48A635A4618BF48461CF089FD6FF001001DF013F86B689B6DA34200F08A80A369013B002BA36108BF0127302383F3118816F0B9F91CF0B9F804A806F0B8FF1CF0A0F815F08AFC3368B34240F098804FF0000C8CF31188D4E90223DDE904018B42D5F8803008BF824234BFA0EB020AE246A34233D0B8F1000F01D0C8F800A0A36A013BA36228465146FFF757FFD5E90E32D5F88800013342F10002C5E90E32002840D0D5E92332934233D8534558D9A2EB0A0C60452DD2524503D2AAEB030290422CD2A3696968EC
S3FD0800CAA8002B62D0002228460831FFF745FE112007B0BDE8F08F05F14800FDF773FE0023C5F88030C3E73448344A90F8F0353049022B08BF00F20C604FF486631CF00CFD6FF001001CF096FF686851E75245C5F88CA004D253469A45C5F890A0CED36B689A6DA24218461FD024685DE763680399C5E9074319B1D4E90223C1E90023019B23B1D4E904121846FBF71EFC029A002A3FF462AF636913605EE75245AAD36B689A6DA2421846DFD1A7B9083016F0A2FC002007B0BDE8F08FF2689B6892689A42BFF462AF0E481BF019FD01F120029AE7246823E7203017F05DF96868E5E703F1080016F087FCE52092E700BFF82C0020A0F802082C2B002022
S3FD0800CBA0202500203CFD0208300B03082DE9F04383B08846DDF8289016461F460546002800F09B804068002800F09780083017F071FA68682B6A826D51688B4200F00B81E9694868834200F0D180146863681BB9246860680028FBD0A369002B00F090806368C5E907431FB1D4E90223C7E90023B8F1000F04D0D4E904124046FBF7A8FB0EB163693360A369013BA361302383F3118816F0A9F81BF0A9FF684606F0A8FE1BF090FF15F07AFB7D4B1A689A4240F0C780002686F31188D4E90223DDE900018B42D5F8803008BF824238BF861AA34268D0B9F1000F01D0C9F80060A36A013BA36231462846FFF749FED5E90E32D5F88810013342F10002DF
S3FD0800CC98C5E90E3211B3D5E92332934215D8B34276D8B2421AD2F21A914213D26A68A36902F10801002B40F0988020322846FFF73BFD112003B0BDE8F083B242C5F88C6004D233469E42C5F89060E7D3A369002B4BD06868083016F0D5FB002003B0BDE8F0835248524A90F8F0355249022B08BF00F20C6040F27F331CF0F6FB6FF001001CF080FE686855E74848494A90F8F0354849022B08BF00F20C604FF467731CF0E3FB6FF001001CF06DFE5DE76B689B6DA3426CD0D5F888302268C5F880202BBBD5F88470D5F89810D2E90223D21943F10003CDE90023002961D0374A69462B4605F14800FFF7FEFA77E76868203017F059F8AEE70C68A369B6
S3FD0800CD90002B7FF435AFC3E7901B814299D2B24285D387E7D5E923C18C45D5D8D5F8847037B303EB0C008742D0D9D2E90223D5F89810121843F10003CDE900230029D0D105F1480011231F4A6946FFF7CFFA48E7D96893688A689A42BFF433AF1A481BF0D9FB002266E7083016F050FBE52079E7D2E902016344C018D5F8982041F10001CDE90001002AACD1002B0CBF1023112305F14800D7E705F14800FDF7BFFC0023C5F880301DE705F148001023CBE700BFF82C0020202500203CFD0208A0F80208B199000865C60008300B03082DE9F0468A4683B0164699460746002871D0406800286ED0083017F01DF97868816D4B68002B79D03A6AC36DC5
S3FD0800CE889A4275D0FB69BD6B1C68FA6BA36A681C03F1FF33A36242F10003A142C7E90E030FD0023542F100022468A36A2846013B0135A362134642F10002A142F4D1C7E90E036368C7E90743B9F1000F03D0D4E90223C9E90023BAF1000F04D0D4E904125046FBF741FA0EB163693360302383F3118815F045FF1BF045FE684606F044FD1BF02CFE15F016FA234B1A689A423AD1002383F31188DDE90001D4E902458D4208BF844238BF041B786828BF1C46083016F0B0FA21463846FFF7ECFC0A9BF3B101201C6003B0BDE8F0861448144A90F8F0351449022B08BF00F20C6040F22B131CF0CAFA6FF001001CF054FD78687DE7083016F08FFA00203A
S3FD0800CF8003B0BDE8F086012003B0BDE8F086D96893688A689A42BFD205481BF003FB00BFF82C0020202500203CFD0208A0F80208300B0308F0B50D4685B016461F46044668B343685BB303A800903B46324629462046FFF743FF002833D0236C13B1039A934231D3626C92B1D4E912018842039B04D898422FD9CD1AAA4227D39942A364194602D2E1648B4222D88A4220D30A9B13B10A9A039B1360002005B0F0BD1348134A90F8F0351349022B08BF00F20C6040F2A9231CF064FA6FF001001CF0EEFCC1E7E52005B0F0BD1020E6E7994204D3112005B0F0BD994205D2191A8A4219460346D0D3CEE71946CFE700BF202500203CFD0208A0F80208E4
S3FD0800D0782DE9F04182B00D46089F16469846044678B143686BB100974346324629462046FFF7E0FE00280CBFE520002002B0BDE8F0810948094A90F8F0350949022B08BF00F20C6040F222231CF01EFA6FF001001CF0A8FCDFE700BF202500203CFD0208A0F802082DE9F04182B00D46089F16469846044678B143686BB100974346324629462046FFF7AEFE00280CBFE520002002B0BDE8F0810948094A90F8F0350949022B08BF00F20C6040F2CD131CF0ECF96FF001001CF076FCDFE700BF202500203CFD0208A0F802082DE9F04383B08946DDF8288016461F46044600285AD04068002857D0083016F0A9FFD4E907325968914261D063689B6D30
S3FD0800D1701D686B68C4E907531FB1D5E90223C7E90023B9F1000F04D0D5E904124846FBF7EFF80EB16B693360302383F3118815F0F3FD1BF0F3FC684606F0F2FB1BF0DAFC15F0C4F8294B1A689A4246D1002686F31188D5E90223DDE900018B4208BF8242A36BA96A38BF861AE26B6068013301F1FF3142F10002A9620830C4E90E3216F055F931462046FFF791FBB8F1000F20D0C8F80060012003B0BDE8F0831448154A90F8F0351449022B08BF00F20C60D9231CF06EF96FF001001CF0F8FB606895E76068826D9A429BD1083016F02FF90020E1E7012003B0BDE8F083D96893688A689A42B3D205481BF0A5F900BFF82C0020202500203CFD0208BE
S3FD0800D268A0F80208300B0308F0B50D4685B016461F46044670B3436863B303A800903B46324629462046FFF757FF002834D0236C13B1039A934232D3626C9AB1D4E912018842039B04D898422BD9CD1AAA4230D39942A36406D21A469342E26402D9112005B0F0BD0A9B13B10A9A039B1360002005B0F0BD1048114A90F8F0351049022B08BF00F20C6040F25B231CF005F96FF001001CF08FFBC0E7E52005B0F0BD1020E6E79942DED2191A8A42D8D31A460346D2E79942F7D3D2E7202500203CFD0208A0F802082DE9F04182B00D46089F16469846044678B143686BB100974346324629462046FFF7F8FE00280CBFE520002002B0BDE8F0810948D7
S3FD0800D360094A90F8F0350949022B08BF00F20C6040F202231CF0C4F86FF001001CF04EFBDFE700BF202500203CFD0208A0F802082DE9F04182B00D46089F16469846044678B143686BB100974346324629462046FFF7C6FE00280CBFE520002002B0BDE8F0810948094A90F8F0350949022B08BF00F20C6040F2AD131CF092F86FF001001CF01CFBDFE700BF202500203CFD0208A0F802082DE9F04F2DED028B00F124030446194608EE103A9C484FF0FF3383B0012216F0F7FBA368002B00F0A780E1682046984740F00105DFF8748298F80030002B62D0924EF36893F8259019F004093ED14FF0300A11E0D4E9043220469847D4E90E32013342F182
S3FD0800D4580002C4E90E3240F00105F36893F825305B0729D44FF0FF31284616F0B5F9C2070146E5D58AF3118815F082FC1BF082FBD4F830B0C4F830901BF068FB14F052FF3368B34269D189F311881BF0010F23D11BF0020FD9D060680F21FEF7C5FFF36893F825305B07D5D560680F21FEF7BCFFA36923B198F80010E2692046984718EE101A684816F05EFB002003B0BDEC028BBDE8F04F1CF096BA60680921FEF7A4FFB3E7624816F0DAFD218C614B01311B6889B221841BB95AE01B68002B57D01A8C9142F9D001398A422FD15A4B1E687EB3337A6BBB7268009219461A4618463768B847A0F12003DBB2012B40F290805248524A90F8F035524976
S3FD0800D550022B08BF00F20C6067231BF0D1FF6FF001001CF05BFA012333720DE04FF0FF355AE7F2689B6892689A4290D247481BF011F82120FFF76EF83E4815F087FF4FF0FF31012016F0DEF8302383F3118815F0F3FB1BF0F3FA236B354E23F0040323631BF0D8FA14F0C2FE3368B34243D1002383F3118837E7314B1E68002E36D0337A022B22D07368009301232849376818460422B847B8B1202814D0212831D02848284A90F8F0352849022B08BF00F20C6090231BF07DFF6FF001001CF007FA02233372B9E701203072B6E71D481D4A90F8F0351D49022B08BF00F20C608B231BF067FF6FF001001CF0F1F9CBE70F480421FCF734FAA0E7F2686F
S3FD0800D6489B6892689A42B6D294E70223337298F80030002B94D1212388F8003090E721287FF47DAF0223034833720121FCF71AFAEDE700BFF8240020F82C0020FC2400200C2500201825002020250020B4FD0208A0F802083C0B030814250020036810B5044683B10E480F4A90F8F0350E49022B08BF00F20C604FF48D731BF01DFF6FF001001CF0A7F9094816F0F0FC084B07481A6822601C6015F0DDFE002010BD00BF202500207CFD0208A0F80208FC2400200C250020836DB3B18B4234BF00230123C26D72B110B4D0E91840844205D88C420BD20C1BA24208D2002318465DF8044B7047184670470123EAE78842F5D9411A8A4238BF0023F0E767
S3FD0800D74010B5044682B00C30019016F0B3FCE369019823B9A36A3BB9184602B010BD15F09DFEF12002B010BD15F098FEF32002B010BD00BF10B5044608B323681D4A934232D01D4A934233D01C4A93422ED01C4A934212D01B481C4A90F8F0351B49022B08BF00F20C6040F2A1431BF0A9FE6FF001001CF033F9FF2010BD002010BD1148114A90F8F0351149022B08BF00F20C6040F296431BF094FE6FF001001CF01EF92368044A9342CCD1032010BD012010BD022010BD200D03080C0D0308480D0308340D030820250020ECFD0208A0F8020838B50D460446E0B1E36D83B1D4E918218A420CD8A16D134429BB5A1C0AD0D4E90801C01841F10001D7
S3FD0800D838C5E9000138BDA36D002BF2D14FF0FF324FF0FF33C5E9002338BD0B480B4A90F8F0350B49022B08BF00F20C604FF449731BF04AFE6FF001001CF0D4F8D0E78B4228BF0B46D5E700BF20250020ECFD0208A0F8020810B50446002833D02046FFF76DFF01280CD1E269136A1BB39968C4E901319C60A368002B37D05C60146210BD2046FFF75BFF0228EDD01948194A90F8F0351949022B08BF00F20C6040F2C5131BF012FE6FF001001CF09CF8E269136A002BDBD1D369002BD8D19369A3B1A3609461DAE70A480B4A90F8F0350A49022B08BF00F20C604FF4E2731BF0F5FD6FF001001CF07FF8B9E794615462146210BD20250020ECFD02083F
S3FD0800D930A0F8020838B50D46044688B1D4E91023D4E90E01521943F100038842C4E9102301D8A84200D9A563A94238BFE56338BD0848094A90F8F0350849022B08BF00F20C6040F20B131BF0C3FD6FF001001CF04DF8DBE720250020ECFD0208A0F8020838B5044600283ED0E069083016F08AFB6368002B30D0A2689A60A268E069C169A14227D0056AA54218D0F2B15360D0E90E32013342F10002C0E90E32083015F065FDD4E91432013342F100010022C4E91431C4E90122E261A26238BD994214BF194600210162002AE0D14362002BDED09A60DCE7C361D8E7E069A26882619AB153606368CBE70948094A90F8F0350949022B08BF00F20C6043
S3FD0800DA28C8231BF069FD6FF001001BF0F3FFAFE71346B8E720250020ECFD0208A0F802082DE9F0410D4682B016461F460446002865D004F10C084046002D47D016F026FBE369002B73D0022D45D12046FFF78CFF4FF0F108302383F3118815F081F91BF081F8684605F080FF1BF068F814F052FC434B1A689A4274D1002585F31188DDE90001D4E908238B4208BF824238BF851A04F16800FCF776FE0EB1636B336007B13D6029462046FFF731FFB8F1000F20D1E36DF3B1D4E918218A423BD8AA4258D9481B834236D2A94255D33AE016F0DCF938B3E3695BB3404615F0CCFC4FF0F108404602B0BDE8F0811120FEF7A7FD4FF0110800234046A3623A
S3FD0800DB2002B0BDE8F0812148214A90F8F0352149022B08BF00F20C6040F227431BF0E0FC6FF001001BF06AFF87E74FF0F208404602B0BDE8F0814FF000088FE7A9422566DBD22A4695426566D7D2D4F8A030002BCED094F8A8204FF01108002ACDD1D4F8A40084F8A8809847C7E7D96893688A689A4285D208481AF005FDA942BDD2A91A8B42E2D3DEE700BFF82C002020250020ECFD0208A0F80208240B03082DE9F0410D4682B0174698460446002861D004F10C063046002D40D016F06CFAE369002B6ED0022D3ED12046FFF7D2FEF126302383F3118815F0C8F81AF0C8FF684605F0C7FE1AF0AFFF14F099FB3A4B1A689A4261D1002585F3118820
S3FD0800DC18DDE90001D4E908238B4208BF824238BF851AB8F1000F01D0C8F8005029462046FFF77CFE26B9A36DC3B1AB4216D210260023A36277B1636B3B60304602B0BDE8F08116F029F950B3E3696BB3304615F019FCF126304602B0BDE8F081E36D002BE6D0D4E918218A4220D8AA422FD9481B83421BD2A9422CD31FE01948194A90F8F0351949022B08BF00F20C6040F2BB231BF02AFC6FF001001BF0B4FE8BE7F226304602B0BDE8F081002694E7A9422566BED22A4695426566BAD21126B8E7D96893688A689A4298D208481AF05FFCA942AED2A91A8B42F0D3ECE700BFF82C002020250020ECFD0208A0F80208240B03082DE9F0410D4682B0AC
S3FD0800DD1090461F46044600284ED004F10C063046002D3AD016F0C6F9E369002B42D0022D38D12046FFF72CFEF1260023A362B8F1000F02D0636BC8F80030302383F3118815F01AF81AF01AFF684605F019FE1AF001FF14F0EBFA244A136893423BD1002585F31188DDE90001D4E908238B4208BF824238BF851A29462046FFF7D3FD07B13D60304602B0BDE8F08116F089F8E8B1E3693BB1304615F079FBF126304602B0BDE8F0810026C0E71048114A90F8F0351049022B08BF00F20C6040F23F231BF097FB6FF001001BF021FE9EE7F226304602B0BDE8F081D2689B6892689A42BED205481AF0D7FB00BFF82C002020250020ECFD0208A0F8020814
S3FD0800DE08240B03082DE9F0410D4682B090461F46044600284ED004F10C063046002D3AD016F044F9E369002B42D0022D38D12046FFF7AAFDF1260023A362B8F1000F02D0636BC8F80030302383F3118814F098FF1AF098FE684605F097FD1AF07FFE14F069FA244A136893423BD1002585F31188DDE90001D4E908238B4208BF824238BF851A29462046FFF751FD07B13D60304602B0BDE8F08116F007F8E8B1E3693BB1304615F0F7FAF126304602B0BDE8F0810026C0E71048114A90F8F0351049022B08BF00F20C604FF4C3731BF015FB6FF001001BF09FFD9EE7F226304602B0BDE8F081D2689B6892689A42BED205481AF055FB00BFF82C0020C4
S3FD0800DF0020250020ECFD0208A0F80208240B030838B50446E0B1E369A26CE06CD3E90C15013145F10005013240F10000C3E90C15D96AC4E91220986AFBF7E8FDE069083015F0ACFA04F10C00BDE8384015F0A6BA0848094A90F8F0350849022B08BF00F20C60AE231BF0CCFA6FF001001BF056FDD1E700BF20250020ECFD0208A0F80208F8B50D4617461E46044630B3002D36D00023C4E90133E561302383F3118814F0F3FE1AF0F3FD04F1200005F0F1FC1AF0D9FD14F0C3F91E4B1A689A4230D1002282F311883EB1EFF30581C1F3080101B9DA68C4E90A266763F8BD1648164A90F8F0351649022B08BF00F20C608D231BF087FA6FF001001BF016
S3FD0800DFF811FD002DC8D10D480D4A90F8F0350D49022B08BF00F20C608E231BF075FA6FF001001BF0FFFCB7E7D968926889689142C9D205481AF0BAFAF82C002020250020ECFD0208A0F80208240B03082DE9F04184B00D460A9F164698460446002871D0002D00F08380236B002B00F094802946434632462046FFF787FFE16DA765B1B1D4E91832934212D819448FB1B9420FD3D4E90823D4F8A010D21943F10003CDE90223002946D104F168001023A3E03946002934D105F1080016F000F8E369DA69002A7DD069462046FFF7A6FBE3699D6902A92846FFF7A0FBDDE90067DDE902239F4208BF96420CD277E0AD682846FFF793FBDDE90223DDE9E3
S3FD0800E0F000679F4208BF96426BD3E269D3699D4202A9EED199686360D46100297BD0A1604C609C6056E0D4E90823D4F8A000521843F10003CDE9022300285AD0384A234602A904F16800FEF721F9B7E73548364A90F8F0353549022B08BF00F20C604FF474731BF0D5F96FF001001BF05FFC002D7FF47DAF2B482C4A90F8F0352B49022B08BF00F20C6040F2D1331BF0C1F96FF001001BF04BFC236B002B7FF46CAF002E3FF469AF1F48204A90F8F0351F49022B08BF00F20C6040F2D2331BF0A9F96FF001001BF033FC56E79A69EAB1A260C3E9064454602046FFF7A3FE002004B0BDE8F081D5B16B68A56093B163609C606C60F0E7B9420CBF10232E
S3FD0800E1E8112304F168000C4A02A9FEF7C3F859E79C615C62DC61E1E7E3699C61EBE7546283E7E269D36979E7F999000820250020ECFD0208A0F8020865C600082DE9F041069E0D46174698460446B8B14DB3206B00283AD043463A4629462046FFF79CFE05F10800A66515F031FF2046FFF71AFB2046FFF759FE0020BDE8F0811D481E4A90F8F0351D49022B08BF00F20C6040F289231BF041F96FF001001BF0CBFB002DD5D11448144A90F8F0351449022B08BF00F20C6040F28A231BF02EF96FF001001BF0B8FB206B0028C4D1002FC2D00948094A90F8F0350949022B08BF00F20C6040F28B231BF018F96FF001001BF0A2FBB0E700BF20250020BC
S3FD0800E2E0ECFD0208A0F80208F8B50D4616461F460446A8B13DB3206B002838D03B46324629462046FFF73CFE05F1080015F0D2FE2046FFF7BBFA2046FFF7FAFD0020F8BD1D481E4A90F8F0351D49022B08BF00F20C6040F203231BF0E3F86FF001001BF06DFB002DD7D11448144A90F8F0351449022B08BF00F20C604FF401731BF0D0F86FF001001BF05AFB206B0028C6D1002EC4D00948094A90F8F0350949022B08BF00F20C6040F205231BF0BAF86FF001001BF044FBB2E700BF20250020ECFD0208A0F80208F8B50E4617461D460446C8B15EB3236B002B3CD02B463A4631462046FFF7DEFD06F1080015F074FEE269536A002B42D06360204621
S3FD0800E3D89C605462FFF798FD0020F8BD2048214A90F8F0352049022B08BF00F20C6040F24B131BF081F86FF001001BF00BFB002ED3D11748174A90F8F0351749022B08BF00F20C604FF4A6731BF06EF86FF001001BF0F8FA236B002BC2D1002FC0D00C480C4A90F8F0350C49022B08BF00F20C6040F24D131BF058F86FF001001BF0E2FAAEE7204694615462FFF756FD0020F8BD20250020ECFD0208A0F8020810B51446CAB1D4F8283304F54A709B689847D4F8683304F55A709B689847D4F8B03304F56C709B689847D4F8003404F580609B68BDE8104018470848084A90F8F0350849022B08BF00F20C60F5231BF01DF86FF001001BF0A7FAD4E76E
S3FD0800E4D02025002028FE0208A0F802082DE9F04F87B014460391002A00F05A81039B9A0740F18180B34EDFF8008306F20C6904F580670023D4F800240093156819461A463846A84794F8E8340546F3B1E5281ED096F8F035A849022B0CBF484630461AF0E7FF45B196F8F035A449022B0CBF484630461AF0DDFF96F8F035022B41460CBF484630461AF0D4FFD3E7E528D1D1994FDFF8949207F20C6B04F56C7805AED4F8B02300960023156819461A464046A84794F8E8340546002B00F09F80E52800F09F8097F8F0350599022B404600F0BF80FDF774FF8A4A8B4B8B49002808BF1A4638461AF0A5FF6DB197F8F035874A8849022B884B00F0E5808E
S3FD0800E5C8102D08BF1A4638461AF096FF97F8F035022B49460CBF584638461AF08DFFC2E7E52840F0AC80039B23F002030393039B5B0749D504F59667384615F057FDD4F8C05404F5956B0026BDB305F10C0A504615F04CFDD4F8C414AA68C4F8C0248D42AE6042D0D4F8C8148D4208BFC4F8C864D4F8CC148D4214BF5660C4F8CC645046D5E9088914F026FF384614F023FF504615F02CFDEA69934505D1D5E90801494508BF404524D0504614F014FF384615F01DFDD4F8C054002DC7D1384614F00AFF039B23F004030393039B53B14B48039A90F8F0355249022B08BF00F20C601AF02BFF062007B0BDE8F08FC4F8C464BFE7E96AEE616E63002941
S3FD0800E6C0D5D0A86AFBF722FAD1E7E5287FF44FAF3C4FDFF8288107F20C6904F55A75D4F8682300960023D2F800B019461A462846D84794F8E834F3B1E5281ED097F8F0350598022BD4E9EA3139D09847FAF77CFA02460B46384641461AF0F2FEDFE7FDF7B5FE2C4B2A4A2C49002808BF1A4658461AF0E6FE3FE7E528D1D1224E2B4F06F20C6804F54A750023D4F828230093D2F8009019461A462846C84794F8E834002B3FF442AFE528394630463FF440AF96F8F035022B08BF40461AF0C2FEE3E79847FAF742FA02460B46484641461AF0B8FEA5E7102D08BF1A4658461AF0B1FE19E70848134A90F8F0351249022B08BF00F20C6077231AF0A4FEE6
S3FD0800E7B86FF001001BF02EF994E600BF2025002088FE020890FE020864FE02086CFE0208A8FE020874FE0208B4FE02087CFE0208E8FE0208E0FE020828FE0208A0F80208705F0308C8FE02082DE9F8430C46002900F07981C54BC64ADB68B4F81803DA61FBF72AF90546002800F00581D4F82C3304F54A779BB1BF4E96F8F035BE4ABF49022B0CBFBE48BB4840F25E531AF05CFE6FF001001BF0E6F8002D00F0068138462946FDF757FDD4F86C3304F55A779BB1B04E96F8F035B04AB049022B0CBFB048AC484FF4B4631AF03FFE6FF001001BF0C9F8002D00F00481AA4BC4F8A83300233846C4F8AC332946FDF734FDD4F8B433D4E9C78704F56C796F
S3FD0800E8B09BB19E4E96F8F0359D4A9E49022B0CBF9D489A4840F2E7531AF01AFE6FF001001BF0A4F8002D00F0018100234FF0FF32C4E9FC87C4E9FE2348462946FDF70EFDD4F80434D4F82483D4E9C79604F5806783B18A488A4A90F8F0358A49022B08BF00F20C6040F277631AF0F2FD6FF001001BF07CF8D4F8403483B18048804A90F8F0358049022B08BF00F20C6040F279631AF0DEFD6FF001001BF068F8D4F8803483B17648764A90F8F0357649022B08BF00F20C6040F27C631AF0CAFD6FF001001BF054F8002D48D000234FF0FF32C4F8886405F10806C4F88C24C4F89034C4F89834C4F89C3484F8A034C4F88494C4F89484C4F8045430460D
S3FD0800E9A815F084FBAA6D2B6E5168C4F82014C4F81C2433B923E0D3F89410D4F89424914203D218461B6C002BF5D1C4F84034076404F5816105F118004FF0FF33022215F00DF9EA69D5F8B030013201333046EA61C5F8B03014F04EFD0620BDE8F8832F66E6E74848484A90F8F0354849022B08BF00F20C6040F27E631AF06EFD6FF001001AF0F8FFA4E73F4E434A96F8F0353F49022B08BF06F20C604FF0590318BF30461AF05AFD6FF001001AF0E4FFD4F82C3304F54A77002B7FF4E7AE96F8F035324A3249022B0CBF32482E4840F25F531AF043FD6FF001001AF0CDFF38460021FDF741FCD4F86C3304F55A77002B7FF4E9AE96F8F035244A254910
S3FD0800EAA0022B0CBF2448214840F2A1531AF028FD6FF001001AF0B2FF204BC4F8A83300213846C4F8AC13FDF721FCD4F8B433D4E9C78704F56C79002B7FF4ECAE96F8F035134A1449022B0CBF134810484FF4BD631AF006FD6FF001001AF090FFEDE60B4E0F4A96F8F0350B49022B0CBF06F20C6030464F231AF0F4FC6FF001001AF07EFF74E600BFF82C0020980C0308202500203CFD0208A0F802082C2B00203D9A000828FE020810B514463AB1D4F8180304F54771BDE8104015F021B80C480C4990F8F0350C4A022B08BF00F20C6040F245131AF0C6FC6FF001001AF050FFD4F8180304F54771BDE8104015F008B820250020A0F8020820FF020820
S3FD0800EB982DE9F04F0D468BB01446002A00F0C980AE0700F195806B0740F18280D4F8903463B3D4F868240023566801211A4604F58D60B047F128064640F0CD8094F81835E3B19D4F9D4997F8F035022B0CBF07F20C6038461AF088FC102E97F8F03500F05283112E00F0D781002E00F03283022B934900F0D48190481AF076FCD4F828346BB3D4F8003404F580685E68404608AB00220121B047F128064640F0938094F81835E3B1844F874997F8F035022B0CBF07F20C6038461AF057FC102E97F8F03500F01C83112E00F0FC82002E00F00683022B7B4900F0F98277481AF045FCD4F8D03363B1D4F8A82308AB56680121002204F56A70B047F128F6
S3FD0800EC90064640F09580D4F878335BB1D4F850230023566801211A4604F55470B047F128064666D125F0040555B16548684990F8F035022B2A4608BF00F20C601AF018FC06200BB0BDE8F08F302383F3118814F053F8DFF8AC8119F051FF0023D4F82863C4F8283319F036FF13F020FBD8F80030434540F0D182002383F31188F00700F15681B10700F17C81720700F185804EB14B48504990F8F035022B08BF00F20C601AF0E6FB25F0020539E745484A4A90F8F0354A49022B08BF00F20C6067231AF0D7FB6FF001001AF061FE25E704F20C4014F09CFB94F81835002B84D066E704F2744014F093FB94F81835002B3FF44AAF2BE704F5577014F055
S3FD0800ED8889FB94F81835002B90D0002E8ED12E4F354997F8F035022B0CBF07F20C6038461AF0AAFB97F8F0353049022B0CBF304825481AF0A1FB79E704F56D7014F06AFB94F81835002B3FF462AF002E7FF45FAF1D4E284996F8F035022B00F0188230461AF08AFB96F8F035022B00F019829DED087A9FED216AB8EE477AF7EE006AC7EE067A77EEA67AC6EEA77A17EE900AF9F7F7FE02460B460C4818491AF06DFB36E71748B4F8489315F041F9164B1F6817B92CE03F6857B3BB889945FAD826D1104814F028FB36E000BF20250020B8FF0208ECFF0208040003082400030884FF020820FF0208A0F802081C000308E4FE02082C2B002014000308E0
S3FD0800EE8000007A44CCFE0208FC24002010250020F82C0020BB4814F001FBBB48BB4A90F8F035BB49022B08BF00F20C6096231AF027FB6FF001001AF0B1FD002794F81835002B40F0FB8104F58D684046FEF738FCF12808D1D4F868240023D2F8049002211A464046C847D4F86834D4F84C230092D3F80090404604230022394604F58068C8474046FEF71CFCF12808D1D4F800240023D2F8049002211A464046C847D4F80034D4F84C230092D3F80090404604230022394604F56A78C8474046FEF700FCF12808D1D4F8A8230023D2F8049002211A464046C847D4F8A8334FF00009CDF80090D3F800A040464A460423394604F55478D0474046FEF728
S3FD0800EF78E3FBF12808D1D4F850234B460221D2F8049040461A46C847D4F8503300220092394640461F6826F004060423B847002E3FF4C4AEB8E6022B78497FF42CAE78481AF0A2FA2AE6302383F3118813F0E0FE19F0E0FD04A804F0DFFC19F0C7FD13F0B1F9D8F80030434540F0B981002383F3118894F8183553B16548049A90F8F0356849022B08BF00F20C601AF07DFA26F00106B1077FF584AE302383F3118813F0B7FE19F0B7FD06A804F0B6FC19F09EFD13F088F9D8F80030434540F09A81002383F3118894F8183553B15148069A90F8F0355549022B08BF00F20C601AF054FAD4E9CE32D4F83003013342F10002C4E9CE32083015F022F8E4
S3FD0800F070D4F830B3DBF85870D7F800A0DAF81820DAF804306AB10BF1080014F007FAD4E9D032013342F10002C4E9D03226F002063AE63BB1DDE90601DAE90223994208BF9042E8D37B68002B00F05F81DDE90601D7E90223994208BF904280F05681DAF800303B60D44601E01F461B685A68002AFAD0D3E9029A514508BF4845F4D2CCF80030C7F800C0DBF85800DBF860908445E24600F03E81DBF85C30DDE90612013308BF01238245CBF85C30CAF8043018BFDAF80030CAE902124FF00001CAF8141014BF9969DBF81C10CAF81810DAE908320133CAF82030DAF8283042F10002CAF8242033B1DBE92A32013342F10002CBE92A32DBF8B030CAF8B8
S3FD0800F1682830B9F1000F00F0E08052462B46B2464D460394994616463FE000BFFC2400202025002020FF0208A0F80208D8FF02082C2B002060FF020874FF0208D5E923329342D5F884402ED81F446CB3BC422BD82746D5F880303BB1D3E90201DDE906238B4208BF824214D2DDE90623D5F89810D21943F10003CDE90823002900F08B807A4A2B4608A905F14800FDF7C3F8C5F880602D6C002D00F09580D5F88870002FCCD1D5F884402746002FF2D0D1E706F20C601AF071F996F8F035022B7FF4E7AD9DED087A9FED6A6AB8EE477AF7EE006AC7EE067A77EEA67AC6EEA77A17EE900AF9F7DEFC02460B46624863491AF054F91DE5022B61497FF421
S3FD0800F26007AD5E481AF04CF905E5022B5E497FF4CEACA0E6022B089940464BD0FEF73EFA5A4E5B4A5B49002818BF32465A481AF037F9F0E4022B59497FF4EAACE1E7022B56497FF4B4AC86E6D8F80C209B6892689A42BFF428AD524819F074F9302383F3118813F061FD19F061FC08A804F060FB19F048FC13F032F8D8F8003043456AD1002383F311884448089A90F8F0354549022B08BF00F20C601AF002F9E3E5424ABC420CBF1023112308A905F14800FDF735F870E7FEF7F2F9344E354A3549002818BF32462D481AF0EBF8A4E4039C56464D46DBE92832013342F100020BF11800CBE928320021FAF7B1FBD4F83003083014F0A4F8A2E6D8F89C
S3FD0800F3580C209B6892689A42BFF440AE294819F01DF9D8F80C209B6892689A42BFF45FAEF4E7DBF86090CBF858A0B9F1000F13D0D9F8941081B1DDE90623D9F89800521843F10003CDE9082380B11B4A4B4608A90BF16800FCF7E6FFDBF85800A7E6D8F80C209B6892689A428ED2CFE7104A122308A90BF16800FCF7D5FFEDE7B199000800007A442C2B0020CCFE0208D8FF0208E4FE020864FE02086CFE02080C00030820250020C0FF02083C0B030874FF020865C60008180B0308E5C3000810B50C4671B1104B104ADB68D4F81803DA6104F547714FF0FF33022214F0E8FB022010BD0A480B4A90F8F0350A49022B08BF00F20C604D231AF058F819
S3FD0800F4506FF001001AF0E2FADFE700BFF82C0020840C03082025002020FF0208A0F802082DE9F84F674E684C684B694A6949DFF8C4A1096000254FF000084FF0000906F13000C2E90A55C2E90689C2E90889306015601D607B2204F10800C6E90455C6E90C55C6E91055C6E90289C6E90889C6E90E89C6E914897560B561B562B564B565C3E90689C3E90889C3E90A55A280CAF800A0256012F0B0FE2268E56104F1280304F1180004F12001C4E90C89C4E90E55C4E91289C4E91755C4E92089C4E92289C4E92455C4E92655C4E92889C4E92A89C4E90811E56225642565A566C4F8B050A061A365A36282B13B483C4A90F8F0353B49022B08BF00F271
S3FD0800F5480C604FF4AF7319F0D7FF6FF001001AF061FA364814F0AAFD354A13682BB19888A18888424BD301D9236014602F4813F091FF73687BB12A482E4A90F8F0352A49022B08BF00F20C60872319F0B5FF6FF001001AF03FFA224DDFF898801B4FDFF88890BB463F68002F4AD07B687BB195F8F035022B28464FF08A0308BF1E484246494619F099FF6FF001001AF023FAB742E7D195F8F0351449022B08BF16484FF08B03424618BF284619F086FF6FF001001AF010FAD2E79A88914240F23B8218461B68002BF7D10460B0E700BF901D002018230020E8220020D8230020E0220020202500207CFD0208A0F80208FC2400201C2500205C0003089A
S3FD0800F6402C2B0020D0230020E748E84D14F032FDA36DE5481A68CBF800201E6013F01EFF05F5367280212846C5F8D872FCF7F0FDDF4BE049C5F8E03200220023DE4CC5F8DC02C5E9C423C5F8F01205F53670C5F8E452C5F8EC52C5F8F452A5F8F872C5F8E842FDF7FFFF01237B20C5F818A385F81835FAF7DDF90646002800F0E38100244FF000084FF00009CC4BDFF884A3C5F83063C5F85033C5E9CE89C5E9D089C5E9D544C748C5F84C434FF07B0B4FF0FF37A5F848B312F0A8FDC24BC5F8A833C5E9DC89C5E9DE44C5E9E044C5E9E489C5E9E689C5E9E889C5E9EB44AAF16C00C5F86C43C5F88C43C5F8887312F08DFDB64BC5F80034C5E9F2895F
S3FD0800F738C5E9F444C5E9F644C5E9FA89C5E9FC89C5E9FE89C5E9F874AAF11400C5F8C443C5F80444C5F8084412F072FD5346E3E80889A84EC5F81C44C3E90089A64BC5F86834C5F82844C5F82C44C5F83044C5F83444C5F83C44C5F83874C5F85844C5F85C44C5F86074C5F86444C5F86C44C5F870440AF15400CAE90A89CAE90C8912F047FDC5F88444C5F89044C5F89444C5F89844C5F89C44C5F8A444C5F8A074C5F8C044C5F8C444C5F8C874C5F8CC44C5F8D044C5F8F844C5F8FC44C5F80045C5F80445C5F80845C5F80C4585F8104506F536724221CAE91A89CAE92289CAE92489CAE92689CAE93289CAE934893046C6F8D842FCF711FD7949FB
S3FD0800F830794A7A4BC6F8DC02C6F8E012C6F8E822C6F8F032C6E9C48906F53670C6F8E462C6F8EC62C6F8F462A6F8F842FDF722FF6F49704A704BC6F82813012086F8E804C6F86823C6F8B033C6E9C744C6E9D144C6E9D474C6E9D689C6E9D889C6E9E144C6E9E474C6E9E689C6E9E889C6E9EA44C6E9F344C6E9F674C6E9F889C6E9FA89A6F818B3C6F82443C6F82C43C6F86C43C6F8B443C6F8F043C6F8F443D6F8DC52DFF880C1C6F8F87306F5866006F5876106F58C6206F58D63C0E90089C1E90089C2E90089C3E90089C6F8FC43C6F80444C6F81C44C6F82044C6F82874C6F82C44C6F84044C6F84844C6F87044C6F87444C6F87844C6F87C4486
