S02B00002F686F6D652F7069742F4153452F414D69526F2D417070732F636F6E66696775726174696F6E732F87
S3FD08008000000400201D8300081F8300081F8300081F8300081F8300081F8300081F8300081F8300081F8300081F8300082D8201081F8300081F8300081F8300081F8300081F8300081F830008798C0108358C01081F8300081F830008B992010885920108519201081D920108E991010829900108F18F0108B98F0108818F01084D8F0108158F0108DD8E0108099A01088199010811990108A19801085D900108799101081F8300081F8300081F8300081F830008699B01088D9001081F8300088198010891960108619801085D9601081F8300081F8300089D9C01081F8300081F830008FD900108DD8B01081F8300081F8300081F8300081F83000843
S3ED080080F81F830008A58E01081F8300081F8300081F8300081F8300081F8300081F8300081F8300081F830008718E0108398E0108018E0108C98D0108958D01081F8300081F8300081F8300081F8300081F8300081F8300081F8300085D8D0108258D0108ED8C01081F8300081F8300081F8300081F8300081F8300081F8300081F8300081F8300081F8300081F8300081F8300081F8300081F8300081F8300081F8300081F8300081F8300081F8300081F8300081F8300081F8300081F8300081F8300081F8300081F8300081F8300081F8300081F8300081F8300081F8300081F8300081F8300081F830008A2
S3FD0800820072B6374880F30888364880F3098836483649086040F20000CCF200004EF63471CEF200010860BFF34F8FBFF36F8F40F20000C0F2F0004EF68851CEF200010860BFF34F8FBFF36F8F4FF00000E1EE100A4EF63C71CEF200010860062080F31488BFF36F8F10F0C4F801F0F4FE4FF055301F491B4A91423CBF41F8040BFAE71D49184A91423CBF41F8040BFAE71A491B4A1B4B9A423EBF51F8040B42F8040BF8E700201849184A91423CBF41F8040BFAE710F066F810F09AF8144C154DAC4203DA54F8041B8847F9E704F022FE114C124DAC4203DA54F8041B8847F9E710F084B800040020000800200080000808ED00E0000000200004002068
S3FD080082F86C6B0208000800208013002080130020FC410020E0810008E0810008E0810008E081000870E700F000F8FEE72DE9F04F2DED108AC1F80CD0C3689D46BDEC108ABDE8F08F11F0DCFD10F092F8002383F311882846A047002012F024FAFEE710F099F811F049FE10F0DBF911F0C9FD10F07FF800DFFEE70000844641EA000313F003036DD1403A41D351F8043B40F8043B51F8043B40F8043B51F8043B40F8043B51F8043B40F8043B51F8043B40F8043B51F8043B40F8043B51F8043B40F8043B51F8043B40F8043B51F8043B40F8043B51F8043B40F8043B51F8043B40F8043B51F8043B40F8043B51F8043B40F8043B51F8043B40F8043B5B
S3FD080083F051F8043B40F8043B51F8043B40F8043B403ABDD2303211D351F8043B40F8043B51F8043B40F8043B51F8043B40F8043B51F8043B40F8043B103AEDD20C3205D351F8043B40F8043B043AF9D2043208D0D2071CBF11F8013B00F8013B01D30B8803806046704700BF082A13D38B078DD010F003038AD0C3F10403D21ADB071CBF11F8013B00F8013B80D331F8023B20F8023B7BE7043AD9D3013A11F8013B00F8013BF9D20B7803704B7843708B7883706046704700000000000000000000000000000000000000000000000000000000A2EB0300704700BF02780B78012A28BF9A42F5D16DE9044540EA0104CDE902676FF0000C4FEA4472FC
S3FD080084E812B380EA010414F0070F6AD100F0070420F0070004F0030521F007014FEAC505F0E8042314F0040FF1E804670CFA05F462EA040266EA04060AD063EA0403624667EA0407664603E0F0E80423F1E8046782FA4CF582EA0604A4FA8CF46CBB83FA4CF583EA0705A5FA8CF595B950E9022351E9026782FA4CF582EA0604A4FA8CF483FA4CF583EA0705A5FA8CF52543DBD09CB92DBAB5FA85F424F0070427FA04F1DDE9026723FA04F303F0FF0001F0FF01FDE80445A0EB0100704724BAB4FA84F424F0070426FA04F1DDE9026722FA04F202F0FF0001F0FF01FDE80445A0EB0100704714F0030F3CD110F0030428D150F8082B51F8083B82FA57
S3FD080085E04CF582EA0305A5FA8CF55DB950F8042C51F8043C82FA4CF582EA0305A5FA8CF5002DE8D02DBAB5FA85F424F0070423FA04F122FA04F202F0FF0001F0FF01FDE80445A0EB010070474FEAC40420F0030050F8082B21F0030151F8083B0CFA04F462EA040263EA0403C9E710F003041AD0A1EB040120F00300E40750F8042B06D00FD28B785FFAA2F4E41A06D12BB1CB785FFAB2F4E41A00D11BB920465DF8104B704701F1040150F8042BCC0721F0030151F8043B48D824D222F07F4482FA4CF594EA1325A5FA8CF50AD165B951F8043B84EA0204B4EB036F0ED150F8042BEBE74FEA132355E035F07F454DD10878FDE80445C0F100007047FC
S3FD080086D84FEA126203F0FF0347E002EA1C4482FA4CF594EA1345A5FA8CF50AD165B951F8043B84EA0204B4EB034F0CD150F8042BEBE74FEA134330E015EA1C4528D10B884FEA124229E04FEA124203EA1C4324E002F0FF0482FA4CF594EA1365A5FA8CF50AD165B951F8043B84EA0204B4EB032F09D150F8042BEBE74FEA13630DE015F0FF0F05D10B684FEA122223F07F4304E04FF00000FDE80445704712BA1BBA82FA4CF482EA0304A4FA8CF5B5FA85F402FA04F203FA04F34FEA1260FDE80445A0EB1360704700000000000000000000000000000000000000000000000000000000000000000000000090F800F06DE9024520F007016FF0000CB4
S3FD080087D010F0070491F820F040F049804FF000046FF00700D1E9002391F840F000F1080082FA4CF2A4FA8CF283FA4CF3A2FA8CF34BBBD1E9022382FA4CF200F10800A4FA8CF283FA4CF3A2FA8CF3E3B9D1E9042382FA4CF200F10800A4FA8CF283FA4CF3A2FA8CF37BB9D1E9062301F1200182FA4CF200F10800A4FA8CF283FA4CF3A2FA8CF3002BC6D0002A04BF04301A4612BAB2FA82F2FDE8024500EBD2007047D1E9002304F00305C4F100004FEAC50514F0040F91F840F00CFA05F562EA05021CBF63EA050362464FF00004A9E70000000001F0FF01102A2BDB10F0070F08D010F8013B013A8B422DD010F0070F42B3F6D1F0B441EA012141EA20
S3FD080088C8014122F007047FF000070023F0E80256083C85EA010586EA010685FA47F5A3FA87F586FA47F6A5FA87F68EB9EED1F0BC01F0FF0102F0070232B110F8013B013A83EA010313B1F8D10020704701387047002D06BF35460338073815F0010F07D1013015F4807F02BF013015F4C03F0130F0BC0138704700BF81F0004102E000BF83F0004330B54FEA41044FEA430594EA050F08BF90EA020F1FBF54EA000C55EA020C7FEA645C7FEA655C00F0E2804FEA5454D4EB5555B8BF6D420CDD2C4480EA020281EA030382EA000083EA010180EA020281EA0303362D88BF30BD11F0004F4FEA01314FF4801C4CEA113102D0404261EB410113F0004F23
S3FD080089C04FEA03334CEA133302D0524263EB430394EA050F00F0A780A4F10104D5F1200E0DDB02FA0EFC22FA05F2801841F1000103FA0EF2801843FA05F359410EE0A5F120050EF1200E012A03FA0EFC28BF4CF0020C43FA05F3C01851EBE37101F0004507D54FF0000EDCF1000C7EEB00006EEB0101B1F5801F1BD3B1F5001F0CD349085FEA30004FEA3C0C04F101044FEA445212F5800F80F09A80BCF1004F08BF5FEA500C50F1000041EB045141EA050130BD5FEA4C0C404141EB0101013C28BFB1F5801FE9D291F0000F04BF01460020B1FA81F308BF2033A3F10B03B3F120020CDA0C3208DD02F1140CC2F10C0201FA0CF021FA02F10CE002F1B0
S3FD08008AB81402D8BFC2F1200C01FA02F120FA0CFCDCBF41EA0C019040E41AA2BF01EB0451294330BD6FEA04041F3C1CDA0C340EDC04F11404C4F1200220FA04F001FA02F340EA030021FA04F345EA030130BDC4F10C04C4F1200220FA02F001FA04F340EA0300294630BD21FA04F0294630BD94F0000F83F4801306BF81F480110134013D4EE77FEA645C18BF7FEA655C29D094EA050F08BF90EA020F05D054EA000C04BF1946104630BD91EA030F1EBF0021002030BD5FEA545C05D14000494128BF41F0004130BD14F580043CBF01F5801130BD01F0004545F0FE4141F470014FF0000030BD7FEA645C1ABF194610467FEA655C1CBF0B46024650EABC
S3FD08008BB0013406BF52EA033591EA030F41F4002130BD00BF90F0000F04BF0021704730B54FF4806404F132044FF000054FF0000150E700BF90F0000F04BF0021704730B54FF4806404F1320410F0004548BF40424FF000013EE700BF42004FEAE2014FEA31014FEA02701FBF12F07F4393F07F4F81F06051704732F07F4208BF704793F07F4F04BF41F40021704730B54FF4607401F0004521F000411CE700BF50EA010208BF704730B54FF000050AE050EA010208BF704730B511F0004502D5404261EB41014FF4806404F132045FEA915C3FF4D8AE4FF003025FEADC0C18BF03325FEADC0C18BF033202EBDC02C2F1200300FA03FC20FA02F001FA51
S3FD08008CA803FE40EA0E0021FA02F11444BDE600BF70B54FF0FF0C4CF4E06C1CEA11541DBF1CEA135594EA0C0F95EA0C0F00F0DEF82C4481EA030621EA4C5123EA4C5350EA013518BF52EA033541F4801143F4801338D0A0FB02CE4FF00005E1FB02E506F00042E0FB03E54FF00006E1FB03569CF0000F18BF4EF0010EA4F1FF04B6F5007F64F5407404D25FEA4E0E6D4146EB060642EAC62141EA55514FEAC52040EA5E504FEACE2EB4F1FD0C88BFBCF5E06F1ED8BEF1004F08BF5FEA500E50F1000041EB045170BD06F0004646EA010140EA020081EA0301B4EB5C04C2BFD4EB0C0541EA045170BD41F480114FF0000E013C00F3AB8014F1360FDEBF06
S3FD08008DA0002001F0004170BDC4F10004203C35DA0C341BDC04F11404C4F1200500FA05F320FA04F001FA05F240EA020001F0004221F0004110EBD37021FA04F642EB06015EEA430E08BF20EAD37070BDC4F10C04C4F1200500FA04F320FA05F001FA04F240EA020001F0004110EBD37041F100015EEA430E08BF20EAD37070BDC4F1200500FA05F24EEA020E20FA04F301FA05F243EA020321FA04F001F0004121FA04F220EA020000EBD3705EEA430E08BF20EAD37070BD94F0000F0FD101F00046400041EB010111F4801F08BF013CF7D041EA060195F0000F18BF704703F00046520043EB030313F4801F08BF013DF7D043EA0603704794EA0C0F8F
S3FD08008E980CEA135518BF95EA0C0F0CD050EA410618BF52EA4306D1D181EA030101F000414FF0000070BD50EA410606BF1046194652EA430619D094EA0C0F02D150EA013613D195EA0C0F05D152EA03361CBF104619460AD181EA030101F0004141F0FE4141F470014FF0000070BD41F0FE4141F4780170BD70B54FF0FF0C4CF4E06C1CEA11541DBF1CEA135594EA0C0F95EA0C0F00F0A7F8A4EB050481EA030E52EA03354FEA013100F088804FEA03334FF0805545EA131343EA12634FEA022245EA111545EA10654FEA00260EF000419D4208BF964244F1FD0404F5407402D25B084FEA3202B61A65EB03055B084FEA32024FF480104FF4002CB6EB0A
S3FD08008F90020E75EB030E22BFB61A754640EA0C005B084FEA3202B6EB020E75EB030E22BFB61A754640EA5C005B084FEA3202B6EB020E75EB030E22BFB61A754640EA9C005B084FEA3202B6EB020E75EB030E22BFB61A754640EADC0055EA060E18D04FEA051545EA16754FEA06164FEAC30343EA52734FEAC2025FEA1C1CC0D111F4801F0BD141EA00014FF000004FF0004CB6E711F4801F04BF01430020B4F1FD0C88BFBCF5E06F3FF6AFAEB5EB030C04BFB6EB020C5FEA500C50F1000041EB045170BD0EF0004E4EEA113114EB5C04C2BFD4EB0C0541EA045170BD41F480114FF0000E013C90E645EA060E8DE60CEA135594EA0C0F08BF95EA0C0F9E
S3FD080090883FF43BAF94EA0C0F0AD150EA01347FF434AF95EA0C0F7FF425AF104619462CE795EA0C0F06D152EA03353FF4FDAE1046194622E750EA410618BF52EA43067FF4C5AE50EA41047FF40DAF52EA43057FF4EBAE12E74FF0FF3C06E000BF4FF0010C02E000BF4FF0010C4DF804CD4FEA410C7FEA6C5C4FEA430C18BF7FEA6C5C1BD001B050EA410C0CBF52EA430C91EA030F02BF90EA020F0020704710F1000F91EA030F58BF994208BF90422CBFD8176FEAE37040F0010070474FEA410C7FEA6C5C02D150EA013C07D14FEA430C7FEA6C5CD6D152EA033CD3D05DF8040B704700BF8446104662468C461946634600E000BF01B5FFF7B7FF0028F8
S3FD0800918048BF10F1000F01BD4DF808EDFFF7F4FF0CBF012000205DF808FB00BF4DF808EDFFF7EAFF34BF012000205DF808FB00BF4DF808EDFFF7E0FF94BF012000205DF808FB00BF4DF808EDFFF7CEFF94BF012000205DF808FB00BF4DF808EDFFF7C4FF34BF012000205DF808FB00BF4FEA410C7FEA6C5C02D150EA013C0AD14FEA430C7FEA6C5C02D152EA033C02D14FF0000070474FF0010070474A0011D212F5001211D20DD56FF47873B3EB62520ED44FEAC12343F0004343EA505323FA02F070474FF00000704750EA013002D14FF0FF3070474FF0000070474FEA4102B2F1E04324BFB3F5001CDCF1FE5C0DD901F0004C4FEAC0024CEA5070FE
S3FD08009278B2F1004F40EB830008BF20F00100704711F0804F21D113F13872BCBF01F00040704741F480114FEA5252C2F11802C2F1200C10FA0CF320FA02F018BF40F001004FEAC1234FEAD32303FA0CFC40EA0C0023FA02F34FEA4303CCE77FEA625307D150EA01331EBF4FF0FE4040F44000704701F0004040F0FE4040F40000704700BF53B94AB9002908BF00281CBF4FF0FF314FF0FF3000F0A4B9ADF1080C6DE904CE00F03CF8DDF804E0DDE9022304B0704738B50022002304460D46FFF733FF28B920462946BDE8384000F00AB8204605F1004100F005F8404261EB410138BD00BFD0B50C4B002206460F46FFF7A9FCFFF757FF0446FFF72AFC96
S3FD08009370074B0022FFF7A0FC02460B4630463946FFF7E2FAFFF748FF2146D0BD0000F03D0000F0412DE9F047089D04468C46002B40F083808A42174647D9B2FA82F242B1C2F1200024FA00F09140974040EA010C94404FEA1748230CBCFBF8F61FFA87FE08FB16C143EA014306FB0EF1994209D9FB1806F1FF3080F01981994240F21681023E3B445B1AA4B2B3FBF8F008FB103344EA034400FB0EFEA64509D93C1900F1FF3380F00581A64540F2028102383C4440EA0640A4EB0E0400261DB1D4400023C5E900433146BDE8F08702B9FFDEB2FA82F2002A50D1CB1B4FEA174E1FFA87F80126B3FBFEFC210C0EFB1C3341EA034108FB0CF38B4207D9E5
S3FD0800946879180CF1FF3002D28B4200F2E9808446C91AA3B2B1FBFEF00EFB101143EA014408FB00F8A04507D93C1900F1FF3302D2A04500F2D9801846A4EB080440EA0C40BFE78B4209D9002D00F0B1800026C5E9000130463146BDE8F087B3FA83F6002E4AD18B4202D3824200F2B880841A61EB030101208C46002DA8D0C5E9004CA5E7C2F1200320FA03F6974001FA02F04FEA174ED9403043030CB1FBFEF61FFA87F80EFB161143EA014306FB08F1994204FA02F409D9FB1806F1FF3C80F08D80994240F28A80023E3B445B1A81B2B3FBFEF00EFB103341EA034100FB08F38B4207D9791800F1FF3C73D28B4271D902383944CB1A40EA064678E7A8
S3FD08009560C6F1200C03FA06F422FA0CF31C4320FA0CF701FA06F34FEA144E21FA0CF11F433B0CB1FBFEF91FFA84F80EFB191143EA014109FB08FA8A4502FA06F200FA06F308D9611809F1FF3048D28A4546D9A9F102092144A1EB0A01BFB2B1FBFEF00EFB101147EA014700FB08F8B84507D9E71900F1FF312ED2B8452CD90238274440EA0940A7EB0807A0FB02894F45C64649461AD317D05DB1B3EB0E0267EB010707FA0CFCF2404CEA0202F740C5E9002700263146BDE8F0872E4628460BE70646E9E61846FDE64345E5D2B8EB020E69EB04010138DFE70846D2E760468DE78146B9E7664675E730464AE7ACF1020C394413E702383C4424E700BF50
S3FD08009658704700BF4FEA410212F5001215D211D56FF47873B3EB625212D94FEAC12343F0004343EA505311F0004F23FA02F018BF404270474FF00000704750EA013005D111F0004008BF6FF0004070474FF00000704700BF80F0004002E000BF81F0004142001FBF5FEA410392EA030F7FEA226C7FEA236C6AD04FEA1262D2EB1363C1BFD218414048404140B8BF5B42192B88BF704710F0004F40F4000020F07F4018BF404211F0004F41F4000121F07F4118BF494292EA030F3FD0A2F1010241FA03FC10EB0C00C3F1200301FA03F100F0004302D5494260EB4000B0F5000F13D3B0F1807F06D340084FEA310102F10102FE2A51D2B1F1004F40EB1B
S3FD08009750C25008BF20F0010040EA03007047490040EB0000013A28BFB0F5000FEDD2B0FA80FCACF1080CB2EB0C0200FA0CF0AABF00EBC25052421843BCBFD0401843704792F0000F81F4000106BF80F400000132013BB5E74FEA41037FEA226C18BF7FEA236C21D092EA030F04D092F0000F08BF0846704790EA010F1CBF0020704712F07F4F04D1400028BF40F00040704712F100723CBF00F50000704700F0004343F0FE4040F4000070477FEA226216BF08467FEA23630146420206BF5FEA412390EA010F40F4800070474FF0000304E000BF10F0004348BF40425FEA000C08BF704743F0964301464FF000001CE050EA010208BF70474FF00003BA
S3FD080098480AE000BF50EA010208BF704711F0004302D5404261EB41015FEA010C02BF84460146002043F0B64308BFA3F18053A3F50003BCFA8CF2083AA3EBC25310DB01FA02FC634400FA02FCC2F12002BCF1004F20FA02F243EB020008BF20F00100704702F1200201FA02FCC2F1200250EA4C0021FA02F243EB020008BF20EADC7070477BB972B90029BEBF00204FF0004106E008BF00281CBF6FF000414FF0FF30FFF7B7BEADF1080C6DE904CE002909DB002B1ADBFFF74BFDDDF804E0DDE9022304B07047404261EB4101002B1BDBFFF73EFDDDF804E0DDE9022304B0404261EB4101524263EB43037047524263EB4303FFF72DFDDDF804E0DDE906
S3FD08009940022304B0404261EB41017047524263EB4303FFF71FFDDDF804E0DDE9022304B0524263EB43037047D0B5FFF74DF90C4B002206460F46FFF79FF9FFF74DFC0446FFF720F9074B0022FFF796F902460B4630463946FEF7D8FFFFF73EFC2146D0BD0000F03D0000F04130B405460C460FCD0FC495E8030084E8030030BC704700BF07EE900A9FED086ADFED086AB8EE677AC7EE067AB1EE047A67EEA67A67EE877A17EE900A704700BF00F07F4533335340836933B100221A701946DB68CA60002BF9D1002383610370704700BFD1E90C30184700BF90F8A030ABB9D0F888202AB9102380F8A030D0E926301847D0E923139942F5D8D0F884303C
S3FD08009A3833B10A4493428CBF11231023EDE77047CA420CBF1023112380F8A030D0E92630184700BF90F8A8309BB9C26D2AB9102380F8A830D0E928301847D0E918139942F5D8836D33B10A4493428CBF11231023EEE77047CA420CBF1023112380F8A830D0E92830184700BF70B505460C4616460EF004FF002D49D0002C47D02B78022B42D103232B702378696AAE600122C5E903240BB141F48071D5E907031B686288DE605A6019601968256AE66841F001011960D4E90431013A45EA025200250560C160A1690161A18B4162E18B8162D4E9095146F08066C26246F480765A000563416346600AD523F0804240F2033122F002020A430B43826083
S3FD08009B30836070BD43F4407343F00103836070BD052BBAD001480EF0A7FC00BFD4410208F8B50C460968CB698342054607D1D1E90867D4E902239F4208BF96420AD001F10C0010F013FB2368D869A84214BFF120F420F8BD0020F8BD38B505460B4810F095FD0B4B1C6814B905E024681CB1A388AB42FAD304D1054810F0F8FA204638BD0248002410F0F2FA204638BDC4330020D833002038B505460B4810F077FD0B4B1C6814B905E024681CB1A388AB42FAD304D1054810F0DAFA204638BD0248002410F0D4FA204638BDC4330020E43300202DE9F0414C7C0F4601348046E0B2114678744546002402E00134322C3FD095F818681035002EF7D13C
S3FD08009C2808EB0416C3F3050386F819380A792501012305F61A0086F8183802F00F0210314044FEF791FBBB6933B92BE096F8192848780132904203D01946DB68002BF5D108EB041405F618054544C4F82438CD603B78032B01D0BDE8F0813A7C7B7CB3EB520FF8D101233B7008F58D600821BDE8F0410EF083BE3B78032B08D005233B70BDE8F08105F618054544BD61E0E73B7C0422B0EB530F3A70DDD13846BDE8F041FFF792BE08B5EFF30583C3F3080363B9EFF311832BB10EF061FEBDE808400EF097BDBDE8084010F091B9BDE808400EF055BE00BF0A4A0B68B2F8CE27013393420B6000D0704710B50C46D1E901010EF045FE0023C4E9003317
S3FD08009D20C4E9023310BD00BFE8330020042900D0704710B53023044683F311880EF0A0FB0FF0EAFAA06920B102210EF007FE0023A3610FF0CBFA0EF081FB002383F3118810BD00BF70B51B4C04F11005E161C0E901524FF080432669DD680660322A38BF322215F002057060206101EB02001BD1022658631D61DE60586A401A824200D970BD3220DD680130AD0701EB00060ED55E635D6A6D1AAA42F4D93228F0D9E36A43F00103E36270BD03480EF065FB03480EF062FB003D00204C410208A8410208F8B51C4F3B464FF0804253F8105FD2F824C09D420C4627D0FB69AA68ACEB0303CB1838BF1C46A242064605D916E0AE4211D02D68A41AAA6842
S3FD08009E189442F8D8B460D5E90132141B4FF0FF32356073601E60C5E90164BA61F8BD08480EF02EFB60460EF0ABFC3D69AA68E7E70A46BDE8F8406146FFF788BF003D0020D03F020838B505460C460EF027FD002D43D02B78043B012B3FD86B6ADA68920736D0DA6892073BD1186910F003002ED0D3F8C011D3F8C421D3F8C801D3F8CC5120612020656118611869850703D1586940F0100058612079C1F340031B01C1F3800520F0300043EA45130343980623712AD5A368C90861F31C03A3602379110A62F30303120C237121706280002038BD1A699507C5D1012038BD0E480EF0D0FAD3F8B011D3F8B421D3F8B801D3F8BC51206120206561D860E0
S3FD08009F10D8688007CBD1586940F002005861C6E72389490D61F30A032381D3E7C4410208426A0B7870B4946813F0200FC4F30164C3F3001318D048685B0043EAC00343F00403D1E90265087802EB041243F0010300F00F00C2F88401C2F88861C2F88C5170BCC2F88031704788885B0043EA4053E7E700BF224B8260F0B40226012503F1200480F82650046186845E6AC16103F1380100F1100500248842C0E90563C0E90F44426435605D6227D0D9688162CB6A13B15C6CA24219D30363C8621149CA68002300F138074FF0FF36002400250132C0E9164587638664C0E91333F0BCCA60C36243657047596C8A4203D21C461B6B002BF8D103632063C4
S3FD0800A008E0E71C669C66DDE7003D0020F83F002008B507EE900A2DED028BFBEECB7A9FED098A094B67EE887A002908BF194617EE900A884707EE900A87EE880ABDEC028B08BD00BF0000C84245E20108734A744913697448F0B440F2FF152B4313611369714E724C23F4FF7323F0010313611369136B2B431363136D2B4313654FF0FF3C00234FF48015176D4B604FF6FF77C1F808C0CD60664D4F610E624D62654D0D6049F608714FF400156160C4F808C0E36067612562604D6562604D25604FF2882444604EF6FF64C0F808C0C36044614FF4EE445B49036244625A4C0460042048605948C1F808C0594EC860594D594C4F6110200B624B6208603B
S3FD0800A1005748736001F5A051B360F36073613362736233606B60A6F5D036AB60EB606B612B626B622B606360A360E36063612362636223600F2443604FF0805584604FF44044C36047610362436203604B608B60CB604B610B624B620B6015643460136843F00103136013689E07FCD591682D4B21F0030191609A6812F00C02FBD11868284900F0F90018609A601A6842F480321A600B689D03FCD54A6F224B42F001024A675A6F9407FCD52E4A5A601A682E4942F080721A604B685804FCD5194B1A689201FCD529492A4A99601268294B9A421ED0294B40F205721A60274A136803F00F03052BFAD10F4B9A6842F002029A609A6802F00C02082A63
S3FD0800A1F8FAD15A6C42F480425A645A6E42F480425A66F0BC5B6E70471A4A1B4B12689A42DBD1174B40F205121A60DAE700380240000002400008024000775055000402407097090080A8A92A444470075C08AA49000C02404040A45545555555001002400014024000180240001C0240085440070070004000948838002004E011640020003C024000ED00E041C20F412DE9F043044683B010E0DDE90089D4E90623994508BF90454FF0000020D3D4E90A319847D4E90823134337D0684607F037FCD4E9080150EA0103E6D0D4E9062352EA0305DDE9008906D110EB080241EB0903C4E90623DCE7994508BF904520D2B2EB080663EB090700236FF048
S3FD0800A2F00202BB4208BFB2421BD20EF0DBFA236813B120460EF09CFB0EF0D4FA244A24610023E260636120466FF00201FFF760FD03B0BDE8F083121841EB0303C4E90623B1E77B017201921B43EAD66363EB070351025B0243EAD2538A1947EB03039901900141EA9261821A124861EB0303921947EB03030021101843EB01010E4A0023FEF7C2FF05460EF09DFA236813B120460EF05EFB0EF096FA084A246100232946E26063612046FFF723FD03B0BDE8F083F1A300083F420F0040420F00B1A3000810B582B00C460190302383F311880EF05FF80EF0A9FFD4E90A3101989847D4E90823134308D10EF089FF0EF03FF8002383F3118802B010BD42
S3FD0800A3E82046FFF74BFFF2E700B583B03023019183F311880EF040F80EF08AFF0198FFF73DFF0EF06FFF0EF025F8002383F3118803B05DF804FB00BFF8B5302383F311880EF030F80FF0E0FD694A1078431E012B00F2CB80674951604C68946000230128D3607CD0D069036043638363C3630364436250690D68B0FBF5F35F1EB7F5803F80F0A68003FB05F3984240F0A180CD68D669C86AB76205F00F03013C012BF462706077D0022B76D000234C6904F00F00012803D0022803D143F0200343F01003C86900F00F07012F03D0022F03D143F4007343F480734F6A07F00F0CBCF1010F04D0BCF1020F03D143F4005343F4805392F818C0BCF1000F36
S3FD0800A4E050D005F0F005102D03D0202D03D143F0080343F0040304F0F004102C03D0202C03D143F0800343F0400300F0F00010284BD0202847D007F0F007102F03D0202F4DD143F40043486B43F48043336220F0FF000124002374613361F0600B6B43F40043736427E0264BD569186C40F002001864186E40F002001866186E186A40F002001862186A20F0020018621B6A1D4B536146F66800A861E8616EE7002343F0010386E7496B336221F0FF0301217161C6F810C0F360852333600223137013F0CBF90020F8BD43F4006307F0F007102F43F48063B3D1B6E70B480DF06DFF486B3362012420F0FF03002074613061F360B4E706480DF060FF50
S3FD0800A5D840140020400900200038024000BD01055C4102088441020808B5302383F311880DF048FF0FF0F8FC124B1A78511E01291DD8022A08D0012100221970DA605A60BDE8084013F08CB9DA69187E00211160D160116100B15164074A116C21F002011164116E21F002011166126EE3E703480DF026FF4014002000380240A041020870B5164D3023EE6883F311880DF012FF0FF0C2FCF06B80B1444220EA0403F36304400FF03DFC0DF0F3FE2B68AB420CD1002383F31188204670BD4FF0FF330A2073630FF067FFF06BE6E7EA689B6892689A42EDD202480DF0F3FE00BF003D00201C40020870B51F4E0446F568302383F311880DF0DFFE0FF095
S3FD0800A6D08FFCEB6B34EA030208D06C634FF0FF310B2010F069F800280FDBEB6B23EA0403EB630FF001FC0DF0B7FE3368B3420FD1002383F31188204670BD0FF0F5FB0DF0ABFE3368B3420BD1002080F3118870BDF2689B6892689A42EAD205480DF0B4FEF2689B6892689A42EED2F6E7003D00201C40020838B5EFF30583C3F3080323BBEFF31183DBB9044618B30D46302383F311880DF093FE0FF043FC294620460EF0F5F80EF051F80FF0BFFB0DF075FE0E4B1A689A4210D1002383F3118838BD0EF0E5F8BDE838400EF03FB8BDE838400EF0DDB806480DF078FED96893688A689A42E9D203480DF070FE003D00200C4102081C40020838B501F5FE
S3FD0800A7C8C66398420C46054604D004F5E0639D4209D038BDD4F8DC050221FFF7AFFF04F5E0639D42F5D1D4F8DC050421BDE83840FFF7A4BF01F54673834200D07047D1F8DC020421FFF79ABF08B50FF071FB0DF027FE084B1A689A4203D1002383F3118808BDD96893688A689A42F6D202480DF02FFE00BF003D00204040020800B170470EB400B582B004AA06490748019210F04BFA6FF001000FF09DFF02B05DF804EB03B0704738310208E8330020F0B5144E144A87B005460C4610273146662301208DF81370FFF7DAFF31460E4A67230120FFF7D4FF0C4B28680293022205ABCDE9003255210DF11302012312F0C9FD9DF815209DF8143043EA63
S3FD0800A8C00223238007B0F0BD383102085831020840420F0010B582B004460DF106010D48FFF7C8FF01A90C48FFF7C4FFBDF80430BDF8062009491A44642303FB02F381FB031352101B0AA4F85223A4F8503302B010BD00BF88090020940900200533262138B5064D04462846FFF7D4FFB5F850230349204610F0A8FD002038BDE02D002098310208FFF7ECBF30B50546003887B00C4618BF01200F4A0F498D23FFF772FFA9882868FF2C4FF000034FF0FF32CDE9013214BF44F004040024009341F0700101230DF117028DF8174012F05DFD07B030BD00BFB43102083831020870B50E4686B01546044618B10068003818BF01200B4A0C495323FFF7CD
S3FD0800A9B845FF00234FF0FF3220680093CDE901321321022305AA8DF814608DF8155012F037FD06B070BD00BFF83102083831020838B5836804460BB14368E3B1114D124A95F8F0351149022B08BF05F20C6041F2490318BF284610F03BFD6FF001000FF0C1FE238CD5F81026626043F004032384C5F8104638BD028CA3F582731A42DDD1004DEEE7E83300203C3202085832020830B585B00A469DF80030BDF8044002F03F0523F03F032B4301466FF30A0402A88DF80030ADF80440FDF77EFC69460022044812F0BDF9A0F10300B0FA80F0400905B030BD0008002030B589B0014400250592114A0793CDE90301029506920FF001FCB0B9DDE9033196
S3FD0800AAB0552203F8012B9942FBD8302383F311880DF0E4FC0FF094FA02A80DF005FF01900FF074FA019809B030BD02480DF0DCFC95C30008D040020810B5144652B1D4F8C84734B1206803689B6898472469002CF8D110BD0848094A90F8F0350849022B08BF00F20C6040F29D3310F0B5FC6FF001000FF03BFEE2E7E833002074320208A832020870B51446002A3FD0302383F311880DF0A3FC0FF053FA0DF0B3FED4F8303604F5C66513B128460DF071FF00230022264EC5E908230FF0C6F90DF07CFC3368B34234D1002383F31188302383F311880DF083FC0FF033FA0DF093FED4F8003704F5E06413B120460DF051FF00230022C4E908230FF08F
S3FD0800ABA8A7F90DF05DFC3368B3421DD1002383F3118870BD1048114A90F8F0351049022B08BF00F20C604FF4ED7310F059FC6FF001000FF0DFFDADE7F2689B6892689A42C5D208480DF054FCF2689B6892689A42DCD2F6E7003D0020E8330020C4320208A8320208944002082DE9F047089C002850D001284BD10D464D48002116461F4612F042F800283ED0E27DE18A90F800C0B0F804E0C2F380131B01C2F340122CF03F0C43EA4213C1F38A0243EA0C0362F30A0E0370A0F804E001463D4811F0ACFF302383F311880DF00DFC0FF0BDF92268384B02F10109C4F80090B3F8CEA70FF037F90DF0EDFB344B1A689A4258D14FF0000888F31188D14569
S3FD0800ACA048D0C4E90156E7602020BDE8F08739462846FFF70BF82120BDE8F08763687BB12648284A90F8F0352749022B08BF00F20C60A12310F0D8FB6FF001000FF05EFDA3687BB11D481F4A90F8F0351E49022B08BF00F20C60A22310F0C6FB6FF001000FF04CFDE36893B11448164A90F8F0351549022B08BF00F20C60A32310F0B4FB6FF001000FF03AFD2020BDE8F0872020BDE8F08728463146FEF7C8FFC4E90088C4E902884046B7E7D96893688A689A42A1D206480DF0A0FB00080020E8330020003D002010330208A83202084C4002080B8870B50C461A461749054610F084FB638816491A46284610F07EFBA38814491A46284610F078FB08
S3FD0800AD98E38812491A46284610F072FB238910491A46284610F06CFB63890E491A46284610F066FBA3890C491A46284610F060FBE3890A4928461A46BDE8704010F058BB6433020884330208A4330208C4330208E43302080434020824340208443402082DE9F84F8B46002800F0D080BBF1000F00F0E1807D4C7E49E3687E4AD9613023CBF8142483F311880DF034FB0FF0E4F80DF044FD784B5A68CBF81C240BF20C425A600FF05DF80DF013FB2368A34240F0D480002282F311885B460BF5207183F8382B20338B42FAD1DBF8C867002E6CD06A4FDFF8B8A1B089FEF7A8FE0446002800F08280D6E90053D3F800900DB16B688BB197F8F035624A8B
S3FD0800AE90022B08BF614840F25E530EBF51465146384610F0F1FA6FF001000FF077FC002C53D0B9F1000F11D197F8F035564A022B08BF56484FF4AC630EBF51465146384610F0DAFA6FF001000FF060FC0DB16B688BB197F8F0354C4A022B08BF4B484FF08B030EBF51465146384610F0C5FA6FF001000FF04BFC04F1080840466C600FF0D5FBA36DEB615B682B624A4605F108014FF0FF3304F118000FF000F9D4F8B03001334046C4F8B0300FF030F93669002E95D10BF58D60082302220BF26C410FF0EDF8DBF88004BDE8F88F97F8F0352E4A022B08BF2D4840F25F530EBF51465146384610F089FA6FF001000FF00FFC98E797F8F035264A022B63
S3FD0800AF8808BF244840F20133514618BF384610F077FA6FF001000FF0FDFB6BE71B481E4A90F8F0351D49022B08BF00F20C6040F2E72310F065FA6FF001000FF0EBFBBBF1000F7FF41FAF1148134A90F8F0351349022B08BF00F20C604FF43A7310F050FA6FF001000FF0D6FB0CE7E2689B6892689A42BFF426AF0A480DF04AFA003D00203842020811B2000800080020E833002064340208F439002074320208A8320208884002082DE9F04F894681B08046002874D0B9F1000F00F08680D8F8080098F80420C0F3835AC0F3826BC0F31C035146DE46C0F38F1002F00F024C4600254FF0FF3C07E0BCF1FF3F04F120042BD00135142D2FD094F8386B78
S3FD0800B080B71E032FF2D894F83B7B8F42EED194F8397B8742EAD194F83A7B7745E6D1990600F08E80042E40F0A18009EB4513680193F8482B93F8493BB3EB520F69D100F63830484401B0BDE8F04FFEF791BC002ED1D14FFA85FC0135142DCFD1BCF1FF3F5AD009EB4C1402200021C3F38F1584F8380B980684F83ABB84F83BAB84F8395B84F8491BC4F84C1B33D009EB4C11C4F84C2B01F638314246484601B0BDE8F04FFEF76EBD3748384A90F8F0353749022B08BF00F20C6040F2351310F0A5F96FF001000FF02BFBB9F1000F7FF47AAF2D482D4A90F8F0352D49022B08BF00F20C604FF49B7310F090F96FF001000FF016FB67E703230CF15A003F
S3FD0800B17884F8383B09EB4010013A08F11001FDF7F3F898F8173084F8483B01B0BDE8F08F1A481B4A90F8F0351A49022B08BF00F20C604FF4A17310F06BF96FF0010001B0BDE8F04F0FF0EEBA052E09EB45140CBF0423032305F15A0084F8383B013A09EB401008F11001FDF7C7F898F8173084F8483BD2E709EB45164846D6F84C1B8C18C6F84C4B424606F638318AE7E833002074320208A832020838B505460C4669B3002D3ED0AB68C3F38352C3F31C030F2A09D8DFE802F05C09080908090809480908090809080938BD94F8C4070028FAD0D4F8C0270138C0B202EB4000C3F38F13023A01E09042EED032F8021F9942F9D121462846BDE8384082
S3FD0800B270FFF7DCBE29482A4A90F8F0352949022B08BF00F20C6040F2A72310F0FDF86FF001000FF083FA002DC0D12048204A90F8F0352049022B08BF00F20C604FF42A7310F0EAF86FF001000FF070FAAEE7D4F88424002ABBD0C3F38F1302E09268002AB5D0116889889942F8D121462846BDE83840FFF7A3BE94F814080028A7D0D4F810280138C0B202EB4000C3F38F13023A01E090429BD032F8021F9942F9D121462846BDE83840FFF789BE00BFE833002074320208A83202082DE9F84F88469246814638B309EB4A174FEA4A1AD7F8504BD4B10020834601E028461446D7F84C6B00F10805B5422CBF321A0822404404F1020128BF3546FDF732
S3FD0800B36803F8E26884F800B0C4F80CB0002AE7D1D1440023C9F8503BBDE8F88F0848094A90F8F0350849022B08BF00F20C605E2310F076F86FF001000FF0FCF9C6E700BFE833002074320208A832020838B51446002A60D0D4F870331D6935B12868002112F060FA6D68002DF8D1D4F8540310B1002112F041FAD4F870331D68002D6CD0302383F311880DF04DF80EF0FDFD2B789A1E012A61D8022B29D13B4D0EF078FD0DF02EF82B68AB425AD1002383F31188302383F311880DF035F80EF0E5FD0DF045FAD4F818331BB104F546700DF004FB00230022C4E9CE230EF05AFD0DF010F82B68AB4244D1002383F3118838BD28460CF060FF6869002397
S3FD0800B46002222B612A700028CBD090F82420032A3AD16B616FF001010DF0E0F9C1E71D4D1D4A95F8F0351D49022B0CBF05F20C6028464FF4A6730FF0F7FF6FF001000FF07DF995F8F035144A1449022B0CBF14481048B3230FF0E8FF6FF001000FF06EF97CE710480CF0E8FFEA689B6892689A429FD20D480CF0E0FFEA689B6892689A42B5D20A480CF0D8FF09480CF0D5FF00BF003D0020E8330020A4340208A8320208F4390020E8410208E03F02087C4002083C410208D0B5C0E90C23D1E900670446302383F311880CF0B1FF0EF061FD104BA36200210020C4E90801C4E906672046E462FEF79FFE0EF0D7FC0CF08DFF094B1A689A4203D100235F
S3FD0800B55883F31188D0BDD96893688A689A42F6D203480CF095FF00BF0D9A0008003D002070400208F0B5036C83B0044693B14068D3F89410856DD3F89820D5E90267761847F10007CDE90067683072B10A4A6946FFF7B4FF94F8A0302BB9122384F8A030D4E92630984703B0F0BD044A12236946FFF7A4FFEEE700BF7DB500080DB7000838B50C46054648B1092C02D00F2C00D038BD2846BDE838400EF0A8BE0848094A90F8F0350849022B08BF00F20C60BA230FF03EFF6FF001000FF0C4F8E4E700BFE8330020E034020858320208F8B50446002581800560083016460DF051F804F118032768A3610022002304F1280104F12000C4E90F55C4E982
S3FD0800B6501755C4E92455C4E92655C4E90800C4E90C23C4E91223C4E92023C4E92223C4E92823C4E92A23E561E562A6632565A566C4F8B050A165A16287B11B481B4A90F8F0351B49022B08BF00F20C604FF4AF730FF0F2FE6FF001000FF078F815480FF005F8154B1D68ADB1A988A28891420BD317D925601C6000250E480EF067FD2846F8BDAB889A4207D929462D68002DF8D10C60F1E71C60EFE703D0256000250C60EAE7E025E8E700BFE833002014350208A8320208C4330020E433002038B5044680B92E482E4A90F8F0352E49022B08BF00F20C6040F231130FF0AEFE6FF001000FF034F8EFF30583C3F3080333BB264BDB681BB39D68EFF356
S3FD0800B7481183002B39D0234B1A7882B322480121FEF7B8FAAB1EFC2B10D91A481A4A90F8F0351E49022B08BF00F20C6040F249130FF086FE6FF001000FF00CF8EFF3118383B138BD134B1A7832B91C70BDE8384011480121FEF796BABDE838400E480121FEF790BA2846BDE838400EF00DBE0A481C700121FEF786FACCE7BF200EF004FEC1E700BFE833002014350208A8320208003D0020DC330020C03300205832020838B5044628B3406818B304F1080118300EF064FC606808300EF05CFF6068256A816DD0F8B0304A68013B9542C0F8B03007D0E3691B689A6A994202F1FF329A62F8D108300EF0B6FC0020C4E90700606038BD194D194A95F833
S3FD0800B840F0351949022B0CBF05F20C6028464FF4F1730FF019FE6FF001000EF09FFF84B995F8F035022B13D00E4A0F490C484FF4BD730FF009FE6FF001000EF08FFF6068B7E760680028B4D195F8F035022BEBD1044A054905484FF4BD730FF0F5FDEAE7E833002064340208A8320208F439002038B50D46044688B1D4E90C23D4E90A01521943F100038842C4E90C2301D8A84200D9A562A94238BFE56238BD0848094A90F8F0350849022B08BF00F20C60AF230FF0CAFD6FF001000EF050FFDCE700BFE833002064340208A83202082DE9F04782B08A460A9F904699460446002877D04068002874D008300EF0C8FE6068816D4B68002B00F09980E1
S3FD0800B938226AC36D9A4200F09480E369A66B1D68E36BAA6A701C02F1FF32AA6243F10002A942C4E90E020FD0023643F100032D68AA6A3046013A0136AA621A4643F10003A942F4D1C4E90E026B68C4E90753B9F1000F03D0D5E90223C9E90023BAF1000F04D0D5E904125046FCF7E6FCB8F1000F02D06B69C8F80030302383F311880CF069FD0EF019FB684606F0B0F80EF098FA0CF04EFD344B1A689A425DD1002383F31188D5E90201DDE90089494508BF404538BFA8EB0005606828BF1D4608300EF0D1FB29462046FFF757FF002F38D000203D6002B0BDE8F087244D254A95F8F0352449022B0CBF05F20C60284640F2CD130FF02EFD6FF001005D
S3FD0800BA300EF0B4FE84B995F8F035022B20D01A4A1A49184840F22B130FF01EFD6FF001000EF0A4FE606866E7606800287FF463AF95F8F035022BEAD10AE008300EF096FBE52002B0BDE8F087384602B0BDE8F087094A0A490A4840F22B130FF0FDFCDDE7D96893688A689A429CD206480CF0FCFC003D0020E833002064340208A8320208F4390020644002082DE9F04383B089460A9F16469846044600285AD04068002857D008300EF0F2FDD4E90732596891427AD063689B6D1D686B68C4E90753B8F1000F03D0D5E90223C8E90023B9F1000F04D0D5E904124846FCF732FC0EB16B693360302383F311880CF0B8FC0EF068FA684605F0FFFF0EF043
S3FD0800BB28E7F90CF09DFC384B1A689A4264D1002686F31188D5E90223DDE900018B4208BF8242A36BA96A38BF861AE26B6068013301F1FF3142F10002A9620830C4E90E320EF018FB31462046FFF79EFE002F38D03E60002003B0BDE8F083244D244A95F8F0352449022B0CBF05F20C60284640F2AD130FF075FC6FF001000EF0FBFD7CB995F8F035022B20D0194A1A491748D9230FF066FC6FF001000EF0ECFD606884E76068002881D195F8F035022BECD10CE06068826D934282D108300EF0DBFAE520C8E7384603B0BDE8F083094A09490A48D9230FF045FCDDE7D96893688A689A4295D206480CF044FC003D0020E833002064340208A83202084A
S3FD0800BC20F4390020644002082DE9F04F80468068D8F80C5087B0013045F10005C8E902059DF84040D8F800000193CDE902210830002C00F092800EF031FDD8F80090D9F858301E68B36972680092002B00F09580022C40F0B981B94FFB681A6C09F108039A420FD0B64BB74A93F8F035B649022B0CBFB648B2484D230FF0F6FB6FF001000EF07CFD302383F311880CF0EFFB0EF09FF9D7F80CA0DAF840500CF09BFD002D00F09F810CF096FDAB689A4540F09C81EC68CAF840400CF08DFD2B689D4200F08081DAF844B05CB10CF084FD23689C4203D09B689B4538BF9B46E468002CF3D1CAF808B02868016C03682B605D60C5E9020105640CF012FEF1
S3FD0800BD1809F12004CAF83440234604E09968DAF80820914202D31B689C42F7D159680720CAE90031C1F800A0C3F804A00EF012FC2846DAF834400EF041FC0EF0D1F80CF087FB3B68BB4240F05681002383F31188A31C00F00981002C00F006817E480CF08FFB0EF069FA002800F00E81D8F80090D9F858301E68B369002B40F0298173680093009B4BB1019BD6E90201D3E900238B4208BF8242C0F05381D9F858301D68029B002B00F0FB802B69002B00F03781D9F858406368002B00F00281019BD3E90001D4E90223994208BF904280F0F8802E68266001E0344636687368002BFAD0D6E90223994208BF9042F4D22E602560D9F85830D9F86040AC
S3FD0800BE10AB4217D1B4B1D4F8941099B1019BD4F89800D3E90023521843F10003CDE90423002800F01E814F4A234604A909F16800FFF768FB019AD9F85C3003992869D2E90067013308BF0123C9F85C30C5E90267029E6B603246FCF783FAD9F858306E61AB4216BF2B68D9F81C109969A961D5E9083201332B62AB6A42F100026A6233B1D9E92A32013342F10002C9E92A32D9F8B030AB62002C44D0AA46334E334F019DCDF80090C3462DE0D4E923329342D4F884002DD8194460B388422AD80146D4F880303BB1D3E90289D5E900234B4508BF424515D2D5E90023D4F898C0521843F10003CDE90423BCF1000F00F091802346324604A904F14800B6
S3FD0800BF08FFF704FBC4F880A0246C5CB1D4F888100029CDD1D4F8840001460029D3D1246C002CF3D1DDF80090D846D9E92832013342F10002C9E9283209F118000021FDF7C1FED8F8000008300EF024F9002007B0BDE8F08F003D0020E8330020E034020858320208F4390020C03F02087DB50008159A00080DB700087368009AD8F8009093421FBFD9F858301E6873680093B369002B7FF46DAEFAE6D8E90432013342F10002C8E90432E12007B0BDE8F08F3348334A90F8F0353349022B08BF00F20C604A230FF05DFA6FF001000EF0E3FBF3E6D9F86040C9F8585018E70023AB6097E609F108000EF0D6F8D8E90432013342F10002C8E90432E220AE
S3FD0800C000D6E723480CF048FA22480CF045FAFA689B6892689A42BFF4A4AE1F480CF03CFA81420CBF102311233A4604A904F14800FFF770FA6AE71348134A90F8F0351349022B08BF00F20C604B230FF01DFA6FF001000EF0A3FBB7E609F108000EF09EF8D8E90432013342F10002C8E90432E4209EE70A4A122304A909F16800FFF74AFAE0E600BFE83300204C350208A8320208B8400208E8400208104002080DB700082DE9F04F0C4683B015460027C2B1022967D004292AD0AD4E96F8F035AC4AAD49022B0CBFAC48A9484FF49E730FF0DCF96FF001000EF062FB062003B0BDE8F08FA24EA34A96F8F035A249022B0CBF06F20C60304640F20B1309
S3FD0800C0F80FF0C6F96FF001000EF04CFB022C2DD0042CD5D1D5F85833002BE1D02846FEF7DDFB05F55274302383F311880CF0B2F90DF062FF204605F0F9FC0DF0E1FE0CF097F9904A1368934240F09880002383F311880422009305F55471234605F55670FFF766FD062003B0BDE8F08F96F8F035814A8249022B0CBF81487E48B3230FF087F96FF001000EF00DFBD5F870331C6934B12068002111F07DFB6468002CF8D1D5F8540310B1002111F05EFBD5F87033DFF8D081D3F804A0002240F6FF71CAF81C108AF80020CAF808204FF0300900261C4654F808BB89F311880CF05BF90DF00BFFDBF81430BBBB224651465846FDF75BFCDBF814A0D8F8BD
S3FD0800C1F00C300BF11402BAF1000F2CD1CBF814304FF0FF315A6303200EF0D6FA0DF074FE0CF02AF9D8F8003043451FD1002383F31188D5F8703386B11A895C8994421ED001D9BC421BD3944201D2BC4217D80136642E20D0D3F804A0BEE71F893A46ECE74B480CF021F94B480CF01EF9D8F80C209B6892689A42D9D247480CF015F9D3F804A0A8E7D2689B6892689A42BFF462AF42480CF009F91E6994422CBF00270127002E5FD03068394611F0F8FA7668002EF8D1D5F8540310B1394611F0D9FAD5F870331A895C89A24213D12C482C4A90F8F0352C49022B08BF00F20C60CC230FF0DBF86FF001000EF061FAD5F870331A895C895D68944240F6A0
S3FD0800C2E8FF722CD2944228BF1446EC83AA83264AAA6001212970EFF30582C2F308020AB9D8F80CA01C46302354F8086BC6F818A083F311880CF0B6F80DF066FE224629463046FDF7B9FB0DF0E3FD0CF099F8D8F8003043450FD1002383F31188C8E6944228BF14460022AC83EA83D0E7D5F854030028A5D1C1E7D8F80C209B6892689A42E9D27DE7E8330020A4340208A8320208F4390020003D0020FC41020824410208E03F02087C4002082D9D00082DE9F04F2DED028B00F124030446194608EE103A9B484FF0FF3383B001220DF0BBFEA368002B00F0A780E1682046984740F00105DFF8708298F80030002B62D0914EF36893F8259019F00409F7
S3FD0800C3E03ED14FF0300A11E0D4E9043220469847D4E90E32013342F10002C4E90E3240F00105F36893F825305B0729D44FF0FF3128460EF003FAC2070146E5D58AF311880CF034F80DF0E4FDD4F830B0C4F830900DF062FD0CF018F83368B34269D189F311881BF0010F23D11BF0020FD9D060680F21FFF7C1F8F36893F825305B07D5D560680F21FFF7B8F8A36923B198F80010E2692046984718EE101A67480DF022FE002003B0BDEC028BBDE8F04F0EF086B960680921FFF7A0F8B3E761480EF00EF9218C604B01311B6889B221841BB958E01B68002B55D01A8C9142F9D001398A422FD1594B1E687EB3337A6BBB7268009219461A46184637688E
S3FD0800C4D8B847A0F12003DBB2012B40F28E805148514A90F8F0355149022B08BF00F20C6067230EF0C5FF6FF001000EF04BF9012333720DE04FF0FF355AE7F2689B6892689A4290D246480BF0BBFF2120FFF7F2F83D480DF037FE0120FEF7C4F8302383F311880BF0A7FF0DF057FD236B354E23F0040323630DF0D4FC0BF08AFF3368B34243D1002383F3118839E7314B1E68002E36D0337A022B22D07368009301232849376818460422B847B8B1202814D0212831D02848284A90F8F0352849022B08BF00F20C6090230EF073FF6FF001000EF0F9F802233372BBE701203072B8E71D481D4A90F8F0351D49022B08BF00F20C608B230EF05DFF6FF08F
S3FD0800C5D001000EF0E3F8CBE70F480421FDF776FBA2E7F2689B6892689A42B6D296E70223337298F80030002B96D1212388F8003092E721287FF47FAF0223034833720121FDF75CFBEDE700BFC0330020003D0020C4330020D4330020E0330020E833002088350208A832020870400208DC330020036810B5044683B10E480F4A90F8F0350E49022B08BF00F20C604FF48D730EF013FF6FF001000EF099F809480EF026F8084B07481A6822601C600DF08FFD002010BD00BFE833002014350208A8320208C4330020D433002038B50D46044660B1006850B1C16A45630022C261C1B90C300DF074FD0020206038BD0C480C4A90F8F0350C49022B08BF21
S3FD0800C6C800F20C604FF48C730EF0DAFE6FF001000EF060F82068E1E7806AFEF72FF82068E1E700BFE8330020C0350208A832020838B50B680C46054683B90D480D4A90F8F0350D49022B08BF00F20C60E8230EF0B7FE6FF001000EF03DF8236803F10C000DF0C8FF21462846BDE83840FDF70CBAE8330020C0350208A83202082DE9F04383B00D46DDF8288091461E460446002846D0002D56D004F1080738460DF0AAFFA369002B66D003F10C002B600DF0A2FF2868E1698368A36100228842826063D0216A884208BF2262626A90420BBF0023002263625A60B9F1000F07D0016B002954D0426B4846FBF7DFFD2868D0E90823C5E902230EB1436B5D
S3FD0800C7C03360B8F1000F05D0C36AB3FA83F35B0988F800300C300DF0E1FC38460DF0DEFC012003B0BDE8F0832648274A90F8F0352649022B08BF00F20C609E230EF044FE6FF001000DF0CAFF002DA8D11D481E4A90F8F0351D49022B08BF00F20C609F230EF032FE04F108076FF001000DF0B6FF38460DF043FFA369002B98D1384601930DF0ACFC019B2B60184603B0BDE8F083E2619DE70B480C4A90F8F0350B49022B08BF00F20C60C6230EF00EFE6FF001000DF094FF2868016B426B4846FBF778FD286897E7E8330020C0350208A83202082DE9F04F2DED028B0E4695B01546002A00F06B8116F006039B4655D1330742D5D5F8D836002B00F01F
S3FD0800C8B88781BA4890F8F035022B40D0B84AB94940F2CB130EF0DCFD6FF001000DF062FF0E2015B0BDEC028BBDE8F08F109B072B05D803F54F73BDF8442025F8132038462146FFF7FDFEC0B9D5F8C836109FD3F830C0072F05F5CF650FCD98BF0027654688BF012705F8027BCCF802006960AA60EB6020461421FFF7B3FE26F00806002EBFD10E2015B0BDEC028BBDE8F08F984A984940F2CB1300F20C600EF099FDBBE7302383F311880BF095FD0DF045FB08A805F0DCF80DF0C4FA0BF07AFD8E4B1A689A4240F0DD81002181F3118806F00203049301230596DFF82C82884F9FED888ADFF824A2DFF824920C461E460AE0059B590700F1B5800134EC
S3FD0800C9B0082C64D058F8046B17F8011B05EB8606D6F82006FDF7C0FFBBF1060F62D0049B002BE8D0D6F81866002E00F0E0803068003818BF01207B2352464946FDF72AFF7C23524649460120FDF724FF872200238DF81820ADF81C304FF0FF31022207AB30680093CDE90121012306AA132110F013FD9DF81C209DF81D300BA843EA0223D5F8D82632B105F5DC6151F824201A4441F8242005F5CF6232F81410C1F57F42FF3207EE902AF8EEE77A5B1A88EE277A07EE903AF8EEE77A67EE277AFCEEE77A17EE903A20F814300134082C9AD1DDE90436002B40F0D880720700F10C8126F006060BE7D6F81866002E00F0C9803068003818BF0120912370
S3FD0800CAA852464946FDF7CAFE9223524649460120FDF7C4FE9323524649460120FDF7BEFE852200238DF8182007934FF0FF31042207AB30680093CDE90121012306AA132110F0AEFC9DF81CC09DF81D209DF81E609DF81F300FA942EA0C2221F814200BA8049A43EA062320F81430002A8CD14AE7D6F81866002E00F089803068003818BF0120662352464946FDF788FE6723524649460120FDF782FE852200238DF81820ADF81C304FF0FF31022207AB30680093CDE90121012306AA132110F071FC9DF81C109DF81D300FAA43EA012322F8143019E70A480A4A90F8F0350A49022B08BF00F20C604FF499730EF07AFC6FF001000DF000FE82E63046F4
S3FD0800CBA021E700BFE8330020C4320208A8320208003D00209D3F020800FF7F47803F0208F83102083831020805F5D16705F5D9640093384621460FAAFFF7B4FD00283FF4A8AED5F8C8365B6B142B10D06048614A90F8F0356049022B08BF00F20C604FF4C5730EF041FC6FF001000DF0C7FD9DF83C30032B3FF68DAE01A252F823F000BF17CD0008E5C80008E9CC0008BBCC0008304638E7049878E7022300930BA908AB102205F5CC60FEF7EFFFD5F8D81600293FF41AAFD5F8DC3601339942C5F8DC367FF412AF05F5CF67384605F5DC6205F5E06452F8043BB3FBF1F3944220F8023BF7D105F5D968414605F5D160FFF734FD8446002859D0002334
S3FD0800CC9846F00806C5F8D836C5F8DC36F0E60222009208AB10220FA905F5E660FEF7B8FFE9E6109BC5F8D8360023C5F8DC36C5F8E036C5F8E436C5F8E836C5F8EC36C5F8F036C5F8F436C5F8F836C5F8FC3624E614AB13E90F0005F5CF6888E80F0038462146FFF7FDFC074600287FF416AED5F8C836D3F830C0B8E80F00654602E638462146FFF7EDFC074600287FF406AED5F8C836D3F830C005F5CF650FCD6546F1E5D96893688A689A42BFF41DAE0D480BF0A7FBD5F8C8363C461F6B0FCC3C4604F802CBC7F802006160A260E36040461421FFF796FC93E700BFE8330020C4320208A8320208944002082DE9F041884617461D46044600286BD0EE
S3FD0800CD90002F58D07DB94748474A90F8F0354749022B08BF00F20C606F230EF06DFB6FF001000DF0F3FC002604F10800A4F8048026600BF089FC236800200021C4E90666C4E90866C4E90A75C4E90C01C4E90E0183B13448364A90F8F0353449022B08BF00F20C604FF4E1730EF046FB6FF001000DF0CCFC2F480DF059FC2F4B1D682DB1A988A28891420BD33AD9256029481C600DF0BCF90020BDE8F081AB889A422ED929462D68002DF8D122480C600DF0AEF92846BDE8F0811B481B4A90F8F0351B49022B08BF00F20C606E230EF015FB6FF001000DF09BFC95E71248134A90F8F0351249022B08BF00F20C6069230EF004FB6FF001000DF08AFCA7
S3FD0800CE88002F83D1DBE708D10C480DF083F90023C4E90A33F020BDE8F081256007480C600DF078F90020BDE8F08100BFE8330020C0350208A832020814350208C4330020D833002070B50F4B036000250446C0E901550C300E460BF0FBFB00230022C4E90823C4E91023C4E91223C4E914234FF0FF33C4E90A55C4E90C65C4E90E35E56170BD00BF044302082DE9F04F2DED028BADB00024049410F003FF00220023CDE92023D44E1D944FF0FF331C9304230293CDE91E441CABC6E90144012208EE103A3270042518EE100A0BF090FA18EE100A0BF05EFA013DF5D11C9A73680295C6E90225002B41F0A682C34CC44B029A7460A2622363302080F310
S3FD0800CF80118862B6C04BC14AD968029DA5604FF6FF0C01EA0C010CF1604C0A43ACF60F3C6460DA60DCF80C20029DB949E56242F08072CCF80C200A68029DE5614FF0200E42F00102C4E92A55C4E92D55C4E93355C4F89C50C4F8BC50C4F8D4500A6083F81FE083F82200029BC4F8983004F110024FF0FF31002304EB0E0C4FF00108C4E904220022C4E908CCA16104F1B0002460C4F8B010C4E93023C4E93623C4F8C810C4F8A0800BF026FA9A49802204F13800FCF7A8FF984B994A026203F5067280F82480E060CDE91D3202989549DFF87CC22091CDF87C802190CDF870C05521054603F8011B9342FBD118EE100A02950BF033FC0BF063FC022302
S3FD0800D07833700CF03DFF0BF0F3F92368A34241F01C824FF0000888F31188844EFF200DF09BF906F5FA63824AC6F8D0378148C6F8CC8718EE101AC6F8C82710F001FC9DF87030012B11D096F8F0357B4A7B49022B08BF06F20C6040F2092318BF30460EF0D7F96FF001000DF05DFB18EE101A744810F0E6FB9DF870307BB196F8F0356E4A6E49022B0CBF6F48684840F20B230EF0BFF96FF001000DF045FB18EE101A6A4810F0CEFB9DF870307BB196F8F035624A6249022B0CBF63485C4840F20F230EF0A7F96FF001000DF02DFB18EE101A5F4810F0B6FB9DF87030002B41F01681DFF878E1DFF878C1DFF87881594BC8F80080002200200021CCE931
S3FD0800D17000011A60CEF800204FF0300B8BF31188DFF858A1DFF85881DFF858910BF07EF90CF02EFFDAF8003003F00F0308EBC30248F83390C2F804A004F07EFB8BF311880BF06CF90CF01CFF3F4BDAF800101B7903EA0B03102B21F00F0001F00F0101F0F380202B01F011815B450CBF032200220BF004FA4FF0300A04F05EFB8AF31188DFF8F4B00BF04AF90CF0FAFEDBF8003003F00F0308EBC30248F83390C2F804B004F04AFB8AF311880BF038F90CF0E8FE224BDBF800101B7903EA0A03102B21F00F0001F00F0101F0BC80202B01F0F28053450CBF032200220BF0D0F94FF0300A04F02AFB8AF31188DFF890B00BF016F90CF0C6FEDBF8003077
S3FD0800D26803F00F0308EBC30248F83390C2F804B03AE000BFF83F0020003D00204843020800ED00E00003FA05001000E05C430208E03D002000040020E5810108E833002000001012F843020804360208A8320208E8430208F4390020004402080844020884330020FC350208A831002078330020A4310020A4080020F0310020211F0108AC080020B008002004F0DAFA8AF311880BF0C8F80CF078FEDF4BDBF800101B7903EA0A03102B21F00F0001F00F0101F04980202B01F07F8053450CBF032200220BF060F94FF0300A04F0BAFA8AF31188DFF8B0B30BF0A6F80CF056FEDBF8003003F00F0308EBC30248F83390C2F804B004F0A6FA8AF3118851
S3FD0800D3600BF094F80CF044FEC64BDBF800101B7903EA0A03102B21F00F0001F00F0101F01280202B01F0488053450CBF03220022DFF85CA3DFF85CB30BF028F904F084FAB948BA49BA4AC6F808A00AF10403F360002303600B6000200021C2E90001B54A73603260B4480BF087F9B44808F04AFCB34808F047FCB34808F044FCB24808F041FC0023B14AB248C6F810360AF2EC510123C6F8F415C6F8EC05B6F8CC17A6F8F035C6F80C26AB48C6F8E8B503F0ECFF0146C6F81816584603F0E6FFC6F8180658B9A54AA549AAF108004FF479630EF02BF86FF001000DF0B1F9A148002201460023E1E8022300F1180CC1E9002300234FF480727F21C6F8A4
S3FD0800D45850C6C6F82036C6F84836C6F84C36303013F0E6FC954808F0F9FB954808F0F6FB944808F0F3FB944808F0F0FB934808F0EDFB4FF0300B8BF31188DFF864A20AF0F9FF0CF0A9FDDAF8003003F00F0308EBC30248F83390C2F804A0FDF7ADF98BF311880AF0E7FF0CF097FD854B1B7903EA0B03102B00F07787202B00F0AA875B450CBF03220022DAF8000000F00F0120F00F000BF07FF84FF0300AFDF78DF98AF31188DFF800B20AF0C5FF0CF075FDDBF8003003F00F0308EBC30248F83390C2F804B0FDF779F98AF311880AF0B3FF0CF063FD6C4BDBF800101B7903EA0A03102B21F00F0001F00F0100F04087202B00F0888753450CBF03224C
S3FD0800D55000220BF04BF84FF0300AFDF759F98AF31188DFF89CB10AF091FF0CF041FDDBF8003003F00F0308EBC30248F83390C2F804B0FDF745F98AF311880AF07FFF0CF02FFD534BDBF800101B7903EA0A03102B21F00F0001F00F0100F01287202B00F0518753450CBF032200220BF017F84FF0300AFDF725F98AF31188DFF838B10AF05DFF0CF00DFDDBF8003003F00F0308EBC30248F83390C2F804B0FDF711F98AF311880AF04BFF0CF0FBFC3A4BDBF800101B7903EA0A03102B21F00F0001F00F0100F0DB86202B00F01A8753450CBF032200220AF0E3FF4FF0300AFDF7F1F88AF31188DFF8D4B00AF029FF0CF0D9FCDBF8003003F00F0308EBF1
S3FD0800D648C30248F83390C2F804B0FDF7DDF88AF311880AF017FF0CF0C7FC214BDBF800101B7903EA0A03102B21F00F0001F00F0100F0BC8646E000BF00440208084402089C33002080330020B8330020A442020880310020440800205C0800205008002068080020CC42020820360208303602083C320208A8320208203A0020C0080020CC080020E4080020D8080020F0080020C8430208C0430208B0430208B8430208A8430208B4080020F0330020944202089408002090080020880800208C08002084080020202B00F09B8653450CBF032200220AF067FF4FF0300AFDF775F88AF31188DFF8C4B30AF0ADFE0CF05DFCDBF8003003F00F0308EB8B
S3FD0800D740C30248F83390C2F804B0FDF761F88AF311880AF09BFE0CF04BFCD14BDBF800101B7903EA0A03102B21F00F0001F00F0100F03D86202B00F0648653450CBF032200220AF033FF4FF0300AFDF741F88AF31188DFF860B30AF079FE0CF029FCDBF8003003F00F0308EBC30248F83390C2F804B0FDF72DF88AF311880AF067FE0CF017FCB84BDBF800101B7903EA0A03102B21F00F0001F00F0100F00686202B00F02D8653450CBF032200220AF0FFFE4FF0300AFDF70DF88AF31188DFF8FCB20AF045FE0CF0F5FBDBF8003003F00F0308EBC30248F83390C2F804B0FCF7F9FF8AF311880AF033FE0CF0E3FB9F4BDBF800101B7903EA0A03102BF9
S3FD0800D83821F00F0001F00F0100F0CF85202B00F0F68553450CBF032200220AF0CBFE4FF0300AFCF7D9FF8AF31188DFF898B20AF011FE0CF0C1FBDBF8003003F00F0308EBC30248F83390C2F804B0FCF7C5FF8AF311880AF0FFFD0CF0AFFB864BDBF800101B7903EA0A03102B21F00F0001F00F0100F09885202B00F0BF8553450CBF032200220AF097FE4FF0300AFCF7A5FF8AF31188DFF834B20AF0DDFD0CF08DFBDBF8003003F00F0308EBC30248F83390C2F804B0FCF791FF8AF311880AF0CBFD0CF07BFB6D4BDBF800101B7903EA0A03102B21F00F0001F00F0100F06185202B00F0A38553450CBF032200220AF063FEFCF773FF624962484BF236
S3FD0800D930080301220CF0FAFB604961484FF0FF3302220CF0F3FB302383F311880AF09EFD0CF04EFB5B4B1B7A5A1E012A00F2BA85012B09D1584B5A6C42F010025A645A6E42F010025A665B6E524BD3E935324FF4E13102F56142B2FBF1F240219A60012219615A6142F22C110022D9601A6018685B68484BFF21022283F8DC101A720CF0A3FA0AF059FD2368A34240F09F854FF0000888F311884149DFF838914B68DFF838A13F484B451A4628BF4A46534594BF012302234A600B7210F022F839493A484B6899454A4628BF1A46534594BF4FF0010A4FF0020A4A6081F808A010F010F8302383F311880AF039FD0CF0E9FA2F4B93F8009009F1FF3382
S3FD0800DA28012B00F281852B4BB9F1010FC3F8048000F01585274ADFF8CC80DFF8CCB00223137010F053F9FCF7E7FC234B5B69C8F80030FCF7C9FDD8F800304FF47A62B3FBF2F3C8F80430FCF7D7FCDBF800801B4ADBF810301A49C8F818200020194AC8F81C10C8F82020CBF80400002B4AD0DBF80810029D3BE000BFD043020818440208E0430208F04302081044020864150020F033002050150020F4330020601400200038024028090020D01300203409002008140020801300204014002015940108859301084193010898080020BC080020A0080020A8080020B8080020801A0600A0860100400900200008002013465A69C3E904011946002A4F
S3FD0800DB20F8D10295CBF81020CBF80830D14BD249CBF820301A1DCBF8242008330022CBF82830CBE90612CBF81420302383F311880AF09CFC0CF04CFA98F80030012B40F0EA84C64BC64AC8F8042098454FF0020288F8002000F04484D8F8243001221A605A68D1070AD4029D012108200CF014FED8F824305A68D207F6D50295D8F80420B849D2E9000C0422C3F81CC01860596188F800200CF0B4F9B34AB44B42F8043BB14BB348DB6219464FF0FF35DB671D67DBF800708867012301F10C000B724A6001F13003002201F17008C1E90300C1E908338B61C1F81C804A618A627FB996F8F035A44AA449022B0CBFA448A44840F22A430DF039FC6FF0CF
S3FD0800DC1801000CF0BFFD302383F311880AF032FC0CF0E2F9DBF800301B78043B012B0CD996F8F0359949022B0CBF964896480DF01FFC6FF001000CF0A5FD8D4B1B7A013B012B0CD996F8F0359149022B0CBF8D488D480DF00DFC6FF001000CF093FD844F8C4BC7F884305B687B670AF017FEDBF80430DFF89892C7F88030CBF8048002233B720CF05BF9844B844AC9F80420C9F800300022042389F80C30C9F80820302383F311880AF0E6FB0CF096F999F80C307268C9F8082043F0010389F80C30C6F804900CF00DF90AF0C3FB2368A34240F029844FF0000989F31188714B714A7248C2F800901B600AF0EBFC704A7049C2F80090704A704B82F834
S3FD0800DD100090704AC1F8009017461A604FF0300A8AF311880AF0B2FB0CF062F9DBE902236949DFF8F4814A61C1F81090C1E90A9102331831CBE902130CF004F9B8F812306249B8F816C0624887F808900B400CEA010243F4FF535F49386043F01C0342F48052C8E90099C8E90299C7F80480C8F81C80A8F81230A8F81620C8F818108AF311880AF07BFB0CF02BF90AF08BFDDBF80430C8F8203008F11003CBF804300CF0A3F80AF059FB2368A34240F0C883002383F31188484A4948DFF860810421FDF729FC474A47480321FDF724FC464A47480021FDF71FFC464A46480121FDF71AFC454A46480B21FDF715FC4549C8F88C13002308F56571C8F847
S3FD0800DE089833C8F890134148414A424BDFF818C1C8F8783340F6BA0100234FF00009C8F89403C8F87C2308F56370A8F882134FF0000A08F55E71384AC8F85833C8E9D033C8E9CC9AC8E9CE9AC8F81833C8F8D832C8F884C308F53673C8F88803C8F85423C8F870134046C02260E000BF20080020D1D30108A8130020204402085B87010008400020204302082D8B01084C36020858320208F4390020E8330020683602087C360208284402084442020860140020C0330020D4330020C4330020D8330020E4330020DC330020E0330020B8400020C03100200380FFFF11AC0008FD9C0008481E0020581E0020801D0020901D00207032002078320020EB
S3FD0800DF007815002080150020101F0020181F00207809002080090020FC08002080130020B80900204015002030330020E02D0020C19900084FF43671FCF7AAFDDF49E04AE04BC8F8E82284464FF00000C8E9C49AC8E9B7C1A8F8F802C8F8F032C8F8E482C8F8EC82C8F8F48208F53670FEF768FBD54B029D93E8030018EE102A82E80300D3E902010023039310AB83E8030018EE108A994658F8043B002B00F0B88259F8043B002B00F099820399002901F0CD80C648109A1C9BC0F820261D9AC0F81836C0F81C26C24B119AC0F82426C0F860360246C04BC0F8303740F6066100F5E36E00F5C96C00F5CA6800F5CD6A00F5CE69A0F82816029500200F
S3FD0800DFF815460021CCE90001C8E90001CAE9000102F5E86C1046002102F5BB6305F5E4670022CEE900128846C9E90012C7E9001291462F4605F5E7614FF0040A0025CCE90089C1E90089C0F83056C0F85856C0F85C56C0F87856C0F87C56C0F88056C0F88456C0F8D856C0F8DC56C0F80057C0F82857C0F82C578122A0F88CA64FF4BB61C0F8D855FCF708FD3B4684469449954AC7F8DCC507F5C260934DC7F8E475C7F8EC75C7F8F4754FF0000760E80E89C3F8E015C3F8E825C3F8F055A3F8F875FEF7C3FA8A48DFF85882894B039DC8F8D40D01460022C8F8CC2D042241F8042F8446C8F8E81D88F8DE2D202104224CF8081F4FF0020EC8F8002EF6
S3FD0800E0F000221021C0F800E0C8F8082E08207B4AA3F84450D862D966C8F8FCCD9F8003F1400CC8F8B83D08F6F85302F1400008F6C45E08F6E459C8F8F43D714BC8F8C0EDC8F8C4CD02F1800EC8F8D81DC8F8EC1DC8F8E09DC8F8E40D4FF018094FF0030C0B214FF48030A8F8DCAD88F8F25D88F8065EC8F8D02DC8F8BC9D08F55D62C8F8C89D08F6B85AC8F8F8EDA8F8F0CDA8F8041E1860DDF80890C8F884A4C8F8C8271546AB7B7BB996F8F035564A5649022B0CBF5648564840F2DA330DF06DF96FF001000CF0F3FA58FA89F3002283F8D9232D6909F10109002DE3D1B6F8CC274D4B4749C8F81018012AA94638BF01220221A3F5856088F8D82390
S3FD0800E1E888F8141880224FF47671C8F8C09788F8C497C8F8289403F13805FCF745FC002103460022284660E80E12C8F82C343C493C4A3D4BC8F83014C8F83824C8F84034C8F83484C8F83C84C8F84484A8F84894FEF702FAD8F80C24D8F81034C8F8188402F0004203F0004305F1080042F0C04263F040430621C8F80C24C8F81034C8F8680405F65815C8F880142868D8F82C24C36A8188FEF780FD2B68D8F88024DB6AAD681343C8F88034002DEED11F4901F5D269A1F50470FEF715FEA9F5CD61A1F5C470FEF70FFEA9F5C861A1F58070FEF709FE4DE0B5110108A1C00008B5B300082831020838160020581E0020901D0020A10F010891C800088D
S3FD0800E2E035AB0008C4400020C03B0020403C0020B440002074320208A8320208F4390020E8330020F8230020F9AD0008ADF70008E9AA000810270020D01F002000234FF0FF31D9F804202B62C5E90A13D8F880141268D9F81090BE4828600A4300200021C5E90C01C5E90E016B60EB61C8F88024B9F1000F00F00781D9F80050002DDDD196F8F035B34AB449022B0CBFB348B44840F243530DF088F86FF001000CF00EFACCE796F8F035AF4AAB49022B0CBFAB48AB4840F213230DF077F86FF001000CF0FDF9FEF7D8BE0122FEF7F2BF0122FEF7BBBF0122FEF748BF0122FEF711BF0122FFF78DB80122FFF7C4B80122FFF729B90122FFF7F2B80122E8
S3FD0800E3D8FFF7A3BA0122FFF76CBA0122FFF735BA0122FFF7FEB90122FFF7C7B90122FFF790B90222FEF7F0BE914B1A6C42F000721A641A6E42F000721A661B6EFFF7B0BB0222FEF7B9BF0222FEF782BF0222FEF70FBF0222FFF757B80222FFF742BA0222FFF70BBA0222FFF7D4B90222FFF79DB90222FFF766B90222FFF7E7B80222FFF7B0B80222FFF779B80222FFF75EBA0AF025FA784B784A06210C2009F0EBFE754B1862002870D00268714B744991605A6C42F480725A645A6E42F480725A665B6E6C4AD1F8B832D26903F4400343F48033C1F8B832C2F80480C2F80880C2F80890FFF7C0BA664809F0EBFFE2689B6892689A42BEF4DEAD63484A
S3FD0800E4D009F0E2FF624809F0DFFF96F8F035614A5549022B0CBF5548554840F20A230CF0CBFF6FF001000CF051F955E5E2689B6892689A42BFF45BAA574809F0C5FF96F8F035544A4849022B0CBF4848484840F209230CF0B1FF6FF001000CF037F936E54E4809F0B1FF4E4809F0AEFFE2689B6892689A42BFF4D1AB4A4809F0A5FFE2689B6892689A42BFF432AC474809F09CFF464809F099FF4648DFF85481454DDFF8549107F077FB444807F074FB434930480CF082FF42492E480CF07EFF41492C480CF07AFF40492A480CF076FF3F4928480CF072FF3E4926480CF06EFF3D4924480CF06AFF3C4922480CF066FF3B4920480CF062FF3A491E488B
S3FD0800E5C80CF05EFF39491C480CF05AFF38491A480CF056FF374918480CF052FF2A4916480CF04EFF274914480CF04AFF04AA0821002005F0B1FB002800F02282049BD8F8082013425CD1AA681A4040F0B28196F8F015009202290CBF064807484FF40B7249460CF02DFFE1E70C43020864340208A8320208F4390020E8330020043602080038024080130020A19A01084C200140A0400208F83F020808420208C4320208EC3F02086C41020878410208284002084C400208B441020838080020501500202C080020CC5702088C360208D43602081C37020864370208B0370208F83702084038020888380208D03802081839020860390208A839020843
S3FD0800E6C064150020F0390208C4480BF0CFFC870490D54FF01009BDF84220BDF84630BDF86010BF48129042F4FF4240F2FF7023F4FF4360F30A0142F07C0223F07C0316A8ADF84630ADF84220ADF860101390302383F3118809F0BAFE0BF06AFC0AF0CAF8DBF80430149310ABCBF80430FCF770F8AC49AD484FF0FF3308220BF0F7FC002522A84FF0FF3323A904221C9522900BF0EDFC4FF00003A54DCDF8A080ADF8AC30B9F1000F0AD06DE018EE100A04AA10A905F028FE049B002B40F0C981D6F8C837B3F1005FF0D107A803F00CF9DDE908219201090302F47C6501F4F83245EA020107980B9A0A9B0C9D00F03F004FEA825E5B040D9A014303F455
S3FD0800E7B878130B434FEA824C0EF07072C1171A43C5F391130B4388480E9900EA41500F990CF4E01C43EA0C03002942EA856243EA000304D0D4BF4FF000414FF080410B4396F8F0158DF81730180E022912BA8DF814007A490CBF7A487A4806921A0C1B0A8DF816308DF815200CF032FE082105A8FCF70EF996F8F035002840F01B84022B714900F01B846F480CF022FE302383F3118809F01FFE0BF0CFFB6C4810A90EF071F90546FBF7D8FF65B196F8F0356849022B0CBF624863480CF00AFE6FF001000BF090FFD8F81050624825F4104518EE101A25F008054FF0FF330422C8F810500BF048FC96F8F0355B495C4D022B0CBF534854480CF0ECFD4C
S3FD0800E8B0FBF7D2FED8F808300490184255D1AB6818426AD11E9B034077D196F8F02547490093022A034640F20E320CBF464847480CF0D2FDB9F1000F03D11E9A049B9A42DED196F8F0354849022B0CBF3E483F480CF0C2FDB9F1000F00F05083012343484FF4807210A90BF009FC41480BF0CEFE404B1D68CA46002D00F00981D5F80490302383F3118809F0A9FD0BF059FB99F82430022B40F08F834846002109F076FF0BF0D2FA09F088FD2368A34240F07A83002383F311882D68DDE71C480BF07EFB8204B7D54FF01009BBE728460BF076FB96F8F0350090022B049B4FD04FF40A7249461A480CF078FD2CE628460BF066FB96F8F0350090022BAD
S3FD0800E9A8049B46D00F49134840F203320CF068FD94E718EE100A0BF055FB96F8F0351849022B4FF004020CBF09480A4820920CF057FD83E764150020A999000890310020A4310020F03902080000E03F583A0208F4390020E83300207C3A020800080020883A0208B83B0020AC3A020850150020CC570208C0330020C4330020D4330020D03A02084FF40A72494688480CF028FDDCE58749854840F203320CF021FD4DE7D6F8C837B3F1915F0FD096F8F035814A8149022B0CBF7D4880484FF40C730CF00FFD6FF001000BF095FE7D4D04AA0121284605F071F970B3049BD8F80820134211D1784A92681A4013D196F8F0150092022908BF6D486E490A
S3FD0800EAA018BF70484FF415720CF0EEFCE2E728460BF0DCFA8004DDD50BE66C480BF0D6FA96F8F03564490090022B08BF6148049B18BF64484FF414720CF0D6FCCAE7D6F8C837B3F1985F81463FF4F5AD96F8F0355A4A5B49022B0CBF56485A4840F259230CF0C2FC6FF001000BF048FEE3E5D8F80820134240F0C482544A9268134240F0AE8296F8F025CDF80090022A0CBF49484C484FF4247229460CF0A6FC1EE64C48484DD1460BF02AFBB9F1000F40F09680FBF782FD0490042850D8DFE800F03F361E4F030018EE100A0BF080FA430708D596F8F0353F49022B0CBF364828460CF083FCD8F810303C4843F4805318EE101AC8F810300BF096FA73
S3FD0800EB98D6E734480BF066FA431E0F2B44D8DFE813F08A02A00243009D0243004300430040004300430043004300430043004300B20227480BF04EFA10F4005F18BF4FF01009D2E796F8F0351D49022B4FF0000308BF1A48009340F2923218BF28460CF047FCC2E7B0F5807F10D096F8F035154A1549022B08BF11484FF4677318BF28460CF036FC6FF001000BF0BCFD10A80BF021FA4FF02309A8E796F8F03508490090022B08BF0548049B0EBF40F2773240F2773228460CF01CFC97E700BFF4390020F03902083C3A0208A8320208E83300206415002050150020C4330020E03A0208B83B0020D6F8C837B3F1005F0FD096F8F035B14AB149022BEA
S3FD0800EC900CBFB148B14840F263530CF0F5FB6FF001000BF07BFDAE4BC6F8C837B9F1100F40F00082302383F3118809F0E7FB0BF097F909F0F7FDA74B1B6813B1A54809F0B7FE0BF011F909F0C7FB2368A34240F00D82002383F311889F4801210EF05CFDA9F110099D4BC6F8C837B9F1140F1AD8DFE819F01702190019001900190019001900190019001900190019001900190019001900190012020D020802150090498A480CF0A9FB8D4BD6F8C8279A420FD096F8F0358B4A8349022B0CBF824883484FF472730CF098FB6FF001000BF01EFD854B1B781BB985480221FAF7AFFF834810A90BF0A7F9804B1A7842B196F8F0357F49022B0CBF744800
S3FD0800ED8874480CF07DFB02F05DFF302383F3118809F078FB0BF028F9784B1B7A013B012B0CD996F8F0357649022B0CBF684869480CF066FB6FF001000BF0ECFC6F490122D1F884300A720D46186870310DF0B2FE09F06CFDAB696B62002205F10C002B626A616FF0010109F0F7FD0BF0AFF8DBF80050002D00F07B81302383F3118809F041FB0BF0F1F82B78012B40F06D812846012300276F606FF0010100F8103B09F0DBFD05F108006FF0010109F0D5FD09F0EFFC0BF071F8FBF7D7FB302383F3118809F020FB0BF0D0F84E4B1B785A1E012A00F28681022B00F086814A4A01230025137055600EF042FF47480EF07BFD47480EF078FD2A46294633
S3FD0800EE80284604F06DFF444BD6F8C8279A420FD096F8F035374A2F49022B0CBF2E482F4840F2FA330CF0F0FA6FF001000BF076FC062009F04DFA072009F04AFA082009F047FA092009F044FA0A2009F041FA172009F03EFA282009F03BFA1C2009F038FA1D2009F035FA252009F032FA2B4B2C4A1968914203D15A79012A00F04C81294916480CF0C1FA336814485B6A00220221984772B6D4E92723134340F01A8196F8F0352149022B0CBF0B480C480CF0ACFA6FF001000BF032FC6FF001000BF02EFC6FF001002DB0BDEC028BBDE8F08F00BF04360208A8320208F4390020E83300200000103184330020F843020800002031803B02083C3A02082B
S3FD0800EF78DC330020C0330020A43B0208084000207C36020880130020D01300200814002000003031C00100084C422D41B43B0208F03B02089E489F4D3D2104F091FA9E499B480CF065FA336899485B6A02214A4698479A489A4A826003230384994B03601F46C0F80490FBF703FD9748974A826040F20113C0E900790384FBF7F9FC28460BF058F9002840F0A1804FF4BB612B465522013903F8012BFBD18A46302383F3118809F037FA0AF0E7FF894B894A8A49C6F8642503F164004222C6F88415C6F894358649C6F8A855C6F86855FAF79EFF514609F0F7FB0AF0B5FF5BE4E2689B6892689A42BFF480AC7D4809F019FA7D4809F016FA022B7C49CD
S3FD0800F0707FF4E5AB7B480CF007FAFFF7E3BB7A480AF0F4FF96F8F0350090022B049B63D04FF42372294664480CF0F6F9FFF76EBB72480AF0E3FF81047FF568AB4FF01009FFF7C8BB01216E480EF076FBFAE596F8F0356C49022B4FF00103009308BF6548049B0EBF40F2673240F2673228460CF0D3F94EE54FF024094BE54FF0210948E5042B3FF490AE604809F0CEF9E2689B6892689A42BFF4EDAD5C4809F0C5F94FF0220936E55A4944480CF0B6F90BE6594941480CF0B1F906E657493F480CF0ACF901E6564801210AF06DFF55493A480CF0A3F9F8E5534809F0A7F901230393FEF721BF514809F0A0F94FF42372294641480CF092F9FFF70ABBF6
S3FD0800F1684C4809F095F94C490D46086A09F078FAEA694A4B2F62576097605A6C22F480725A645A6E22F480725A665B6E65E69B79002B3FF4B0AEB9F1140F3FF6BCAE01A353F829F021F200081FEF00081FEF00081FEF00081FEF00081FEF00081FEF00081FEF00081FEF00081FEF00081FEF00081FEF00081FEF00081FEF00081FEF00081FEF00081FEF000819F2000811F2000809F2000801F20008294B9B6998478AE6274B5B69984786E6254B1B69984782E6234BDB6998477EE6214B1B6A98477AE6E8330020F8330020CC57020854330020601400206C42020890400020084000200C390020616001083D830008D83A0208044002081841020825
S3FD0800F260803A0208F43900205015002064150020E8430208F03902089841020834400208603B0208403B0208283B0208F4330020083B0208F8400208E83B0208904102088013002000380240C001000810B5044682B00C3001900BF001FAE369019823B9A36A3BB9184602B010BD0AF067FFF12002B010BD0AF062FFF32002B010BD00BF2DE9F04304469FB004200E461546FAF74BFC0746002800F00B8108A803A9FDF7E5FD022E7ED0042E4BD0032E0BD16E68B5493046F9F7D8F8002800F0138133782D2B00F007812A68B04920460CF0ACF8AF4920460CF0A8F8AE4920460CF0A4F8AD4920460CF0A0F8AC4920460CF09CF8AB4920460CF098F8AC
S3FD0800F358AA4920460CF094F8A94920460CF090F8A84920460CF08CF80822A74920460CF087F8A64920460CF083F8A54920460CF07FF8A44920460CF07BF8A34920460CF077F802201FB0BDE8F0836E689F493046F9F78EF840B133782D2BB8D17378732BB5D1B378002BB2D108A8FFF773FFD5F80880149E96494FF0010986F800904046F9F776F8002800F0E58092494046F9F76FF8002800F0E9808F494046F9F768F8002840F0E58002237360D4E06E688B493046F9F75DF838B133782D2B2DD17378672B2AD1B37843BB08A8FFF743FF149E089B00254FF0FF3235700092394614221F6808A80423B8470420FBF73BF908992B462A4608A84D68B4
S3FD0800F4500221A8473578002D40F09880B11C2046FBF786FC0BA80AF099FE28461FB0BDE8F0832A685D4920460CF006F85C4920460CF002F85B4920460BF0FEFF5A4920460BF0FAFF594920460BF0F6FF584920460BF0F2FF574920460BF0EEFF564920460BF0EAFF554920460BF0E6FF0822544920460BF0E1FF534920460BF0DDFF524920460BF0D9FF514920460BF0D5FF504920460BF0D1FF6C6853492046F8F7ECFF00283FF453AF23782D2B7FF44EAF6378682B7FF44AAFA07800283FF447AF44E74A484B4A90F8F0354A49022B08BF00F20C6040F251230BF0AFFF6FF001000BF035F9E2E67378612B7FF4F5AEB378002B7FF4F1AE08A8FFF7E4
S3FD0800F548B1FE149EA86803230022337011460FF01BFF089B70604FF0FF3200921D6839460423142208A8A8470420FBF7A3F8089A0023556808A81A460221A8473578002D3FF468AF2E4920460BF07AFF0BA80AF001FE01201FB0BDE8F0830022404611460FF0F2FE706000221146E8680FF0ECFE089B30814FF0FF32CFE7C6F80490F2E720494046F8F77CFF10B903237360EAE71D494046F8F774FFC0BB04237360E2E7543C02085C3C0208803C0208A83C0208B43C0208D03C0208DC3C0208183D0208243D02084C3D0208783D0208BC3D0208F03D0208FC3D0208203E02082C3C0208343C0208383C02083C3C02081C3C02086C3E0208E833002011
S3FD0800F640C4320208A8320208243C0208403C0208443C02080C494046F8F736FF10B905237360A4E709494046F8F72EFF10B9062373609CE706494046F8F726FF002890D10723736093E700BF483C02084C3C0208503C020810B5044608B323681D4A934232D01D4A934233D01C4A93422ED01C4A934212D01B481C4A90F8F0351B49022B08BF00F20C6040F2A1430BF0DDFE6FF001000BF063F8FF2010BD002010BD1148114A90F8F0351149022B08BF00F20C6040F296430BF0C8FE6FF001000BF04EF82368044A9342CCD1032010BD012010BD022010BDFC420208F44202081843020804430208E8330020743E0208A832020838B50D460446E0B1E9
S3FD0800F738E36D83B1D4E918218A420CD8A16D134429BB5A1C0AD0D4E90801C01841F10001C5E9000138BDA36D002BF2D14FF0FF324FF0FF33C5E9002338BD0B480B4A90F8F0350B49022B08BF00F20C604FF449730BF07EFE6FF001000BF004F8D0E78B4228BF0B46D5E700BFE8330020743E0208A83202082DE9F04F2DED028B9BB002AF9346F962002A00F04782FB6A9A0700F1E881FB6A580723D50BF5F763BB620BF5E8630BF5A66A7B6287F82090DAF8283063B1DAF8002000235468012107F138025046A0470646002800F02D81BB6A0233BB627B6A0AF1B00A5345E7D197F82090DBF88484B8F1000F3ED0DFF850A487F8149004E0D8F80880AE
S3FD0800F830B8F1000F32D0D8F80000FA6AC36A1A42F4D0D8F80430DBF88844073323F007036A46ADEB030D02ABBB620BF5916308EE102ABB61002C00F0E582DBF89834002B00F02B84DBF8A834002B00F02B8418EE102AD8F80030D8F80880DB6A9546FA6A22EA0303FB62B8F1000FCCD197F81490DBF8C8A7BAF1000F00F0D1800023BB62564606E0BB6A36690133BB62002E00F0C6807368FA6A1B681A42F3D0BB6A5BFA83F2FA6192F8D9330133DBB282F8D933B27B9A42E6D8B3687E62073323F007036A46ADEB030D02AB3B6207F1340308EE902A08EE103A002507F1380A7B6A18680024036800941E68396A18EE102A5346B047E52800F0858087
