S02B00002F686F6D652F7069742F4153452F414D69526F2D417070732F636F6E66696775726174696F6E732F87
S3FD0800600000040020396200083B6200083B6200083B6200083B6200083B6200083B6200083B6200083B6200083B62000821E201083B6200083B6200083B6200083B6200083B6200083B6200083B620008F5EC01083B6200083B620008C5F001088DF0010855F001081DF00108E5EF010875EE010855EE010835EE010815EE0108F5ED0108D5ED0108B5ED01083B620008B1F6010841F60108D1F5010895EE010871EF01083B6200083B6200083B6200083B62000885EC01083B6200083B620008B1F50108C9F3010891F5010895F301083B6200083B620008ED5202083B6200083B620008F1EE01083B6200083B6200083B6200083B6200083B6200082A
S36D080060F83B6200083B6200083B6200083B62000851F101083B6200083B6200083B6200083B6200083B62000895ED010875ED010855ED0108C5EE01083B6200083B6200083B6200083B6200083B6200083B6200083B6200083B6200083B6200083B6200083B6200083B62000861
S3FD0800616072B6264880F30888254880F30988254825490860022080F31488BFF36F8F18F0A9F809F013FF4FF0553020491B4A91423CBF41F8040BFAE71D49194A91423CBF41F8040BFAE71B491B4A1C4B9A423EBF51F8040B42F8040BF8E700201849194A91423CBF41F8040BFAE718F04BF818F07FF8154C154DAC4203DA54F8041B8847F9E707F0DDFD124C124DAC4203DA54F8041B8847F9E718F069B8000000040020000800200060000808ED00E00000002000040020383E0308000800203C15002040150020C43600206061000860610008606100086061000892E700F000F8FEE72DE9F04FC1F80CD0C3689D46BDE8F08F19F0A6FA18F068F88F
S3FD08006258002383F311882846A04700201BF092FCFEE718F06FF819F0ABFA18F0E5F919F093FA18F055F800DFFEE7000080F0004002E000BF81F0004142001FBF5FEA410392EA030F7FEA226C7FEA236C6AD04FEA1262D2EB1363C1BFD218414048404140B8BF5B42192B88BF704710F0004F40F4000020F07F4018BF404211F0004F41F4000121F07F4118BF494292EA030F3FD0A2F1010241FA03FC10EB0C00C3F1200301FA03F100F0004302D5494260EB4000B0F5000F13D3B0F1807F06D340084FEA310102F10102FE2A51D2B1F1004F40EBC25008BF20F0010040EA03007047490040EB0000013A28BFB0F5000FEDD2B0FA80FCACF1080CB2EBAC
S3FD080063500C0200FA0CF0AABF00EBC25052421843BCBFD0401843704792F0000F81F4000106BF80F400000132013BB5E74FEA41037FEA226C18BF7FEA236C21D092EA030F04D092F0000F08BF0846704790EA010F1CBF0020704712F07F4F04D1400028BF40F00040704712F100723CBF00F50000704700F0004343F0FE4040F4000070477FEA226216BF08467FEA23630146420206BF5FEA412390EA010F40F4800070474FF0000304E000BF10F0004348BF40425FEA000C08BF704743F0964301464FF000001CE050EA010208BF70474FF000030AE000BF50EA010208BF704711F0004302D5404261EB41015FEA010C02BF84460146002043F0B64336
S3FD0800644808BFA3F18053A3F50003BCFA8CF2083AA3EBC25310DB01FA02FC634400FA02FCC2F12002BCF1004F20FA02F243EB020008BF20F00100704702F1200201FA02FCC2F1200250EA4C0021FA02F243EB020008BF20EADC7070474FF0FF0C1CEAD0521EBF1CEAD15392EA0C0F93EA0C0F6FD01A4480EA010C400218BF5FEA41211ED04FF0006343EA501043EA5111A0FB01310CF00040B1F5000F3EBF490041EAD3715B0040EA010062F17F02FD2A1DD8B3F1004F40EBC25008BF20F00100704790F0000F0CF0004C08BF49024CEA502040EA51207F3AC2BFD2F1FF0340EAC250704740F400004FF00003013A5DDC12F1190FDCBF00F00040704748
S3FD08006540C2F10002410021FA02F1C2F1200200FA02FC5FEA310040F1000053EA4C0308BF20EADC70704792F0000F00F0004C02BF400010F4000F013AF9D040EA0C0093F0000F01F0004C02BF490011F4000F013BF9D041EA0C018FE70CEAD15392EA0C0F18BF93EA0C0F0AD030F0004C18BF31F0004CD8D180EA010000F00040704790F0000F17BF90F0004F084691F0000F91F0004F14D092EA0C0F01D142020FD193EA0C0F03D14B0218BF084608D180EA010000F0004040F0FE4040F40000704740F0FE4040F4400070474FF0FF0C1CEAD0521EBF1CEAD15392EA0C0F93EA0C0F69D0A2EB030280EA010C49024FEA402037D04FF0805343EA11114C
S3FD0800663843EA10130CF000408B4238BF5B0042F17D024FF4000C8B4224BF5B1A40EA0C00B3EB510F24BFA3EB510340EA5C00B3EB910F24BFA3EB910340EA9C00B3EBD10F24BFA3EBD10340EADC001B0118BF5FEA1C1CE0D1FD2A3FF650AF8B4240EBC25008BF20F0010070470CF0004C4CEA50207F32C2BFD2F1FF0340EAC250704740F400004FF00003013A37E792F0000F00F0004C02BF400010F4000F013AF9D040EA0C0093F0000F01F0004C02BF490011F4000F013BF9D041EA0C0195E70CEAD15392EA0C0F08D142027FF47DAF93EA0C0F7FF470AF084676E793EA0C0F04D14B023FF44CAF08466EE730F0004C18BF31F0004CCAD130F000423F
S3FD080067307FF45CAF31F000437FF43CAF5FE700BF4FF0FF3C06E000BF4FF0010C02E000BF4FF0010C4DF804CD4FEA40024FEA41037FEA226C18BF7FEA236C11D001B052EA530C18BF90EA010F58BFB2EB030088BFC81738BF6FEAE17018BF40F0010070477FEA226C02D15FEA402C05D17FEA236CE4D15FEA412CE1D05DF8040B704700BF844608466146FFE70FB5FFF7C9FF002848BF10F1000F0FBD4DF808EDFFF7F4FF0CBF012000205DF808FB00BF4DF808EDFFF7EAFF34BF012000205DF808FB00BF4DF808EDFFF7E0FF94BF012000205DF808FB00BF4DF808EDFFF7D2FF94BF012000205DF808FB00BF4DF808EDFFF7C8FF34BF012000205DF822
S3FD0800682808FB00BF4FEA40024FEA41037FEA226C02D15FEA402C08D17FEA236C02D15FEA412C02D14FF0000070474FF0010070474FEA410212F5001215D211D56FF47873B3EB625212D94FEAC12343F0004343EA505311F0004F23FA02F018BF404270474FF00000704750EA013005D111F0004008BF6FF0004070474FF00000704700BF4FEA4002B2F1FE4F0FD34FF09E03B3EB12620DD94FEA002343F0004310F0004F23FA02F018BF404270474FF00000704712F1610F01D1420205D110F0004008BF6FF0004070474FF00000704742000ED2B2F1FE4F0BD34FF09E03B3EB126209D44FEA002343F0004323FA02F070474FF00000704712F1610F41
S3FD0800692001D1420202D14FF0FF3070474FF00000704700BFD0B500F0D5FA00220B4B06460F4600F027FB00F0D5FD044600F0A8FA0022074B00F01EFB02460B463046394600F060F900F0C6FD2146D0BD0000F03D0000F041844641EA000313F0030349D1403A23D30B6803604B6843608B688360CB68C3600B6903614B6943618B698361CB69C3610B6A03624B6A43628B6A8362CB6AC3620B6B03634B6B43638B6B8363CB6BC36340304031403ADBD230320BD30B6803604B6843608B688360CB68C36010301031103AF3D20C3205D351F8043B40F8043B043AF9D2043208D0D2071CBF11F8013B00F8013B01D30B8803806046704700BF082A13D386
S3FD08006A188B07B1D010F00303AED0C3F10403D21ADB071CBF11F8013B00F8013BA4D331F8023B20F8023B9FE7043AD9D3013A11F8013B00F8013BF9D20B7803704B7843708B7883706046704780EA010C1CF0030F37D110F0030C20F0030021F0030150F8042B08BF51F8043B0ED08CF0030C6FF07F434FEACC0C23FA0CFC51F8043B42EA0C0243EA0C0300BFA2F1013C9A4201BF2CEA020C1CF0803F50F8042B51F8043BF2D04FEA02604FEA1222012828BFB0EB036F08BF1B0AF4D003F0FF03000EC01A704710F0030F0AD010F8012B11F8013B012A28BF9A42F4D0A2EB030070474DF8045D50F8042B01F0030521F0030151F8043B022D26D04DD82D
S3FD08006B1022F07F45B5EB132FA2F1013C2CEA020C0DD11CF0803C08BF51F8043B0AD185EA0205B5EB036F0CD150F8042BE8E74FEA13235BE03CF07F4C54D10B784FEA126554E04FEA126503F0FF034FE04FEA0245A2F1013C4FEA15452CEA020CB5EB134F18D11CF0803C08BF51F8043B07D185EA0205B5EB034F09D150F8042BE6E75FEA0C4C2FD10B884FEA12452FE04FEA03434FEA12454FEA134328E000BF02F0FF05B5EB136FA2F1013C2CEA020C0DD11CF0803C08BF51F8043B0AD185EA0205B5EB032F0AD150F8042BE8E74FEA13630DE012F0FF0F06D051F8043B4FEA122523F07F4303E04FF0000020BC704705F0FF0203F0FF00012828BF77
S3FD08006C08904204BF2D0A1B0AF4D0A2EB000020BC704700BF81F0004102E000BF83F0004330B54FEA41044FEA430594EA050F08BF90EA020F1FBF54EA000C55EA020C7FEA645C7FEA655C00F0E2804FEA5454D4EB5555B8BF6D420CDD2C4480EA020281EA030382EA000083EA010180EA020281EA0303362D88BF30BD11F0004F4FEA01314FF4801C4CEA113102D0404261EB410113F0004F4FEA03334CEA133302D0524263EB430394EA050F00F0A780A4F10104D5F1200E0DDB02FA0EFC22FA05F2801841F1000103FA0EF2801843FA05F359410EE0A5F120050EF1200E012A03FA0EFC28BF4CF0020C43FA05F3C01851EBE37101F0004507D54FF055
S3FD08006D00000EDCF1000C7EEB00006EEB0101B1F5801F1BD3B1F5001F0CD349085FEA30004FEA3C0C04F101044FEA445212F5800F80F09A80BCF1004F08BF5FEA500C50F1000041EB045141EA050130BD5FEA4C0C404141EB0101013C28BFB1F5801FE9D291F0000F04BF01460020B1FA81F308BF2033A3F10B03B3F120020CDA0C3208DD02F1140CC2F10C0201FA0CF021FA02F10CE002F11402D8BFC2F1200C01FA02F120FA0CFCDCBF41EA0C019040E41AA2BF01EB0451294330BD6FEA04041F3C1CDA0C340EDC04F11404C4F1200220FA04F001FA02F340EA030021FA04F345EA030130BDC4F10C04C4F1200220FA02F001FA04F340EA0300294674
S3FD08006DF830BD21FA04F0294630BD94F0000F83F4801306BF81F480110134013D4EE77FEA645C18BF7FEA655C29D094EA050F08BF90EA020F05D054EA000C04BF1946104630BD91EA030F1EBF0021002030BD5FEA545C05D14000494128BF41F0004130BD14F580043CBF01F5801130BD01F0004545F0FE4141F470014FF0000030BD7FEA645C1ABF194610467FEA655C1CBF0B46024650EA013406BF52EA033591EA030F41F4002130BD00BF90F0000F04BF0021704730B54FF4806404F132044FF000054FF0000150E700BF90F0000F04BF0021704730B54FF4806404F1320410F0004548BF40424FF000013EE700BF42004FEAE2014FEA31014FEAF7
S3FD08006EF002701FBF12F07F4393F07F4F81F06051704732F07F4208BF704793F07F4F04BF41F40021704730B54FF4607401F0004521F000411CE700BF50EA010208BF704730B54FF000050AE050EA010208BF704730B511F0004502D5404261EB41014FF4806404F132045FEA915C3FF4D8AE4FF003025FEADC0C18BF03325FEADC0C18BF033202EBDC02C2F1200300FA03FC20FA02F001FA03FE40EA0E0021FA02F11444BDE600BF70B54FF0FF0C4CF4E06C1CEA11541DBF1CEA135594EA0C0F95EA0C0F00F0DEF82C4481EA030621EA4C5123EA4C5350EA013518BF52EA033541F4801143F4801338D0A0FB02CE4FF00005E1FB02E506F00042E0FBA1
S3FD08006FE803E54FF00006E1FB03569CF0000F18BF4EF0010EA4F1FF04B6F5007F64F5407404D25FEA4E0E6D4146EB060642EAC62141EA55514FEAC52040EA5E504FEACE2EB4F1FD0C88BFBCF5E06F1ED8BEF1004F08BF5FEA500E50F1000041EB045170BD06F0004646EA010140EA020081EA0301B4EB5C04C2BFD4EB0C0541EA045170BD41F480114FF0000E013C00F3AB8014F1360FDEBF002001F0004170BDC4F10004203C35DA0C341BDC04F11404C4F1200500FA05F320FA04F001FA05F240EA020001F0004221F0004110EBD37021FA04F642EB06015EEA430E08BF20EAD37070BDC4F10C04C4F1200500FA04F320FA05F001FA04F240EA02001C
S3FD080070E001F0004110EBD37041F100015EEA430E08BF20EAD37070BDC4F1200500FA05F24EEA020E20FA04F301FA05F243EA020321FA04F001F0004121FA04F220EA020000EBD3705EEA430E08BF20EAD37070BD94F0000F0FD101F00046400041EB010111F4801F08BF013CF7D041EA060195F0000F18BF704703F00046520043EB030313F4801F08BF013DF7D043EA0603704794EA0C0F0CEA135518BF95EA0C0F0CD050EA410618BF52EA4306D1D181EA030101F000414FF0000070BD50EA410606BF1046194652EA430619D094EA0C0F02D150EA013613D195EA0C0F05D152EA03361CBF104619460AD181EA030101F0004141F0FE4141F4700185
S3FD080071D84FF0000070BD41F0FE4141F4780170BD70B54FF0FF0C4CF4E06C1CEA11541DBF1CEA135594EA0C0F95EA0C0F00F0A7F8A4EB050481EA030E52EA03354FEA013100F088804FEA03334FF0805545EA131343EA12634FEA022245EA111545EA10654FEA00260EF000419D4208BF964244F1FD0404F5407402D25B084FEA3202B61A65EB03055B084FEA32024FF480104FF4002CB6EB020E75EB030E22BFB61A754640EA0C005B084FEA3202B6EB020E75EB030E22BFB61A754640EA5C005B084FEA3202B6EB020E75EB030E22BFB61A754640EA9C005B084FEA3202B6EB020E75EB030E22BFB61A754640EADC0055EA060E18D04FEA051545EA03
S3FD080072D016754FEA06164FEAC30343EA52734FEAC2025FEA1C1CC0D111F4801F0BD141EA00014FF000004FF0004CB6E711F4801F04BF01430020B4F1FD0C88BFBCF5E06F3FF6AFAEB5EB030C04BFB6EB020C5FEA500C50F1000041EB045170BD0EF0004E4EEA113114EB5C04C2BFD4EB0C0541EA045170BD41F480114FF0000E013C90E645EA060E8DE60CEA135594EA0C0F08BF95EA0C0F3FF43BAF94EA0C0F0AD150EA01347FF434AF95EA0C0F7FF425AF104619462CE795EA0C0F06D152EA03353FF4FDAE1046194622E750EA410618BF52EA43067FF4C5AE50EA41047FF40DAF52EA43057FF4EBAE12E74FF0FF3C06E000BF4FF0010C02E000BF41
S3FD080073C84FF0010C4DF804CD4FEA410C7FEA6C5C4FEA430C18BF7FEA6C5C1BD001B050EA410C0CBF52EA430C91EA030F02BF90EA020F0020704710F1000F91EA030F58BF994208BF90422CBFD8176FEAE37040F0010070474FEA410C7FEA6C5C02D150EA013C07D14FEA430C7FEA6C5CD6D152EA033CD3D05DF8040B704700BF8446104662468C461946634600E000BF01B5FFF7B7FF002848BF10F1000F01BD4DF808EDFFF7F4FF0CBF012000205DF808FB00BF4DF808EDFFF7EAFF34BF012000205DF808FB00BF4DF808EDFFF7E0FF94BF012000205DF808FB00BF4DF808EDFFF7CEFF94BF012000205DF808FB00BF4DF808EDFFF7C4FF34BF012073
S3FD080074C000205DF808FB00BF4FEA410C7FEA6C5C02D150EA013C0AD14FEA430C7FEA6C5C02D152EA033C02D14FF0000070474FF0010070474A0011D212F5001211D20DD56FF47873B3EB62520ED44FEAC12343F0004343EA505323FA02F070474FF00000704750EA013002D14FF0FF3070474FF0000070474FEA4102B2F1E04324BFB3F5001CDCF1FE5C0DD901F0004C4FEAC0024CEA5070B2F1004F40EB830008BF20F00100704711F0804F21D113F13872BCBF01F00040704741F480114FEA5252C2F11802C2F1200C10FA0CF320FA02F018BF40F001004FEAC1234FEAD32303FA0CFC40EA0C0023FA02F34FEA4303CCE77FEA625307D150EA013326
S3FD080075B81EBF4FF0FE4040F44000704701F0004040F0FE4040F40000704700BF7BB972B90029BEBF00204FF0004106E008BF00281CBF6FF000414FF0FF3000F0F1B9ADF1080C6DE904CE002909DB002B1ADB00F085F8DDF804E0DDE9022304B07047404261EB4101002B1BDB00F078F8DDF804E0DDE9022304B0404261EB4101524263EB43037047524263EB430300F067F8DDF804E0DDE9022304B0404261EB41017047524263EB430300F059F8DDF804E0DDE9022304B0524263EB4303704753B94AB9002908BF00281CBF4FF0FF314FF0FF3000F0A6B9ADF1080C6DE904CE00F03EF8DDF804E0DDE9022304B0704738B50C460546214628460022B3
S3FD080076B00023FFF7E1FE28B928462146BDE8384000F00AB8284604F1004100F005F8404261EB410138BD00BFD0B500220B4B06460F46FFF757FCFFF705FF0446FFF7D8FB0022074BFFF74EFC02460B4630463946FFF790FAFFF7F6FE2146D0BD0000F03D0000F0412DE9F047089E0D4604468E46002B40F083808A42174647D9B2FA82F34BB1C3F1200105FA03FE20FA01F19F4041EA0E0E9C404FEA1748BEFBF8FC1FFA87F908FB1CE20CFB09F0210C41EA024290420AD9BA180CF1FF3180F01881904240F21581ACF1020C3A44121AB2FBF8F008FB102200FB09F1A4B244EA0244A14209D93C1900F1FF3280F00381A14240F2008102383C44641A57
S3FD080077A8002140EA0C401EB10022DC40C6E90042BDE8F08702B9FFDEB2FA82F3002B4FD18D1A01214FEA124E1FFA82F8B5FBFEFC0EFB1C5508FB0CF0220C42EA0545A84207D97D190CF1FF3202D2A84200F2E98094462D1AB5FBFEF00EFB105508FB00F8A4B244EA0544A04507D93C1900F1FF3202D2A04500F2D9801046A4EB080440EA0C40C0E78B4208D9002E00F0B1800021C6E900050846BDE8F087B3FA83F100294BD1AB4202D3824200F2B980841A65EB030301209E46002EAAD0C6E9004EA7E79F40C3F12002D1404FEA174EB1FBFEF01FFA87F80EFB101124FA02F29D4000FB08FC2A43150C45EA0145AC4504FA03F409D97D1900F1FF31D1
S3FD080078A080F08F80AC4540F28C8002383D44A5EB0C05B5FBFEF10EFB115C01FB08F995B245EA0C45A94507D97D1901F1FF3274D2A94572D902393D44A5EB090541EA004178E7C1F120078B4022FA07FC4CEA030C25FA07F44FEA1C4EB4FBFEF91FFA8CF80EFB194420FA07F309FB08FA8D401D432B0C43EA0444A24502FA01F200FA01F309D91CEB040409F1FF3048D2A24546D9A9F102096444A4EB0A04B4FBFEF00EFB104400FB08FAADB245EA0444A24508D91CEB040400F1FF352DD2A2452BD90238644440EA0940A0FB0289A4EB0A044C45C6464D4619D316D05EB1B3EB0E0264EB050404FA07F722FA01F31F43CC40C6E900740021BDE8F087CF
S3FD08007998314630460CE78C46EBE61046FFE64345E6D2B8EB020E69EB0C050138E0E72846D3E711468CE78146B9E7084673E7084649E7ACF1020C3D4413E702383C4424E7704700BF30B40C4605460FCD0FC495E8030084E8030030BC704700BFD1E90C30184700BF90F8A030ABB9D0F888202AB9102380F8A030D0E926301847D0E923139942F5D8D0F8843033B10A4493428CBF11231023EDE77047CA420CBF1023112380F8A030D0E92630184700BF90F8A8309BB9C26D2AB9102380F8A830D0E928301847D0E918139942F5D8836D33B10A4493428CBF11231023EEE77047CA420CBF1023112380F8A830D0E92830184700BF08B5FEF7B1FC064977
S3FD08007A90FEF7BAFD4FF07E51FEF7FAFB01464FF07E50FEF7B1FD08BD00007A44014816F015BF00BF2821002038B505460B4819F06FF80B4B1C6814B905E024681CB1A388AB42FAD304D1054818F076F9204638BD0024024818F070F9204638BD342200205422002008B5EFF30583C3F3080363B9EFF311832BB116F0E9FEBDE8084016F01FBEBDE8084017F06BBFBDE8084016F0DDBE00BF10B5094C16F060FE236813B1204616F081FF002200230021C4E90823BDE81040024816F0C9BE00BF302100203820002008B5EFF30583C3F3080363B9EFF311832BB116F095FEBDE8084016F0EFBDBDE8084017F063BFBDE8084016F089BE00BF30B50146D6
S3FD08007B8883B06BB16D461C4628460023084A09F06DF995E8030084E80300002003B030BD6846034A09F062F9002003B030BD00BFDC09002030B5014683B06BB16D461C4628460023084A09F051F995E8030084E80300002003B030BD6846034A09F046F9002003B030BD00BFC809002030B5014683B06BB16D461C4628460023084A09F035F995E8030084E80300002003B030BD6846034A09F02AF9002003B030BD00BFB409002030B5014683B06BB16D461C4628460023084A09F019F995E8030084E80300002003B030BD6846034A09F00EF9002003B030BD00BFA009002030B5014683B06BB16D461C4628460023084A09F0FDF895E8030084E84E
S3FD08007C800300002003B030BD6846034A09F0F2F8002003B030BD00BF8C09002010B51C4682B00146064B6846064A09F0E3F81CB1DDE90032C4E90032002002B010BD00BF48D20208780900200023FFF7E7BF00BF30B5014683B06BB16D461C4628460023084A09F0C7F895E8030084E80300002003B030BD6846034A09F0BCF8002003B030BD00BF6409002000B583B0014600236846034A09F0AEF8002003B05DF804FBDC09002000B583B0014600236846034A09F0A0F8002003B05DF804FBC809002000B583B0014600236846034A09F092F8002003B05DF804FBB409002000B583B0014600236846034A09F084F8002003B05DF804FBA0090020FF
S3FD08007D7800B583B0014600236846034A09F076F8002003B05DF804FB8C09002000B583B0014600236846034A09F068F8002003B05DF804FB6409002030B504460C4D83B0002289216B6811F01BFA0DF1070220468E216B6811F038FA9DF807200AB903B030BD20468E216B6811F00AFA03B030BDB80800202DE9F0410229074614461D4682B06DD1D2F804800E4640465949FEF72BFE48B340465849FEF726FE20B340465649FEF721FE00B340465549FEF71CFED8B140465349FEF717FE002800F0988040465149FEF710FE002800F0918040464E49FEF709FE28B140464D49FEF704FE00283DD1042600E001264A4C00216268494811F011FA2068B9
S3FD08007E70FFF79EFF01216268454811F009FA2068FFF796FF02216268414811F001FA2068FFF78EFF626803213D4811F0F9F92068FFF786FF032E626857D0042E4ED0022E45D00321364811F0EBF93946354B364A684608F0D7FFDDE900230DB1C5E90023002002B0BDE8F0812268304938461CF0E3FB2F4938461CF0DFFB2E4938461CF0DBFB2D4938461CF0D7FB2C4938461CF0D3FB2B4938461CF0CFFB2A4938461CF0CBFB294938461CF0C7FB284938461CF0C3FB384626491CF0BFFB35B100230220C5E9003302B0BDE8F0810220C9E70021134811F0A5F939461E4BB8E70121104811F09EF939461C4BB1E702210C4811F097F93946194BAAE7A4
S3FD08007F6803267AE754D2020860D2020864D2020874D2020878D2020884D2020888D2020898D20208B80800204C0A00209CD20208F0090020C0D20208D4D20208E0D20208F4D202081CD3020830D3020858D302086CD3020894D30208ACD3020848D20208B4D20208A8D202080023FFF70BBF00BFF0B50D461646114607460122284683B01C460FF083FA01282ED0012D12D11F4B1F4A5A62F4B16D463946284600231D4A08F034FF95E80300002384E80300184603B0F0BD0022706811461FF043FA164B124A03FB00F35362002BE3D10223184603B0F0BD2346684639460E4A08F016FF2346184603B0F0BD326838460B491CF027FB38460A491CF064
S3FD0800806023FB384609491CF01FFB0023184603B0F0BD00BF5C080020809698005009002040420F00D4D30208ECD30208F8D302080023FFF7A1BF00BFF0B5002604468DB03146202204A8CDE9026623F011F931466B4604AA2046CDE90066FFF78DFFDDE90113039A009F11441F4404AA6B4603910546314620460297FFF7FAFDDDE901138446039A009F11441F4404AA6B4603912046314645EA0C050297FFF7CFFDDDE901138446039A009F11441F4404AA6B4603912046314645EA0C050297FFF7A2FDDDE901138446039A009F11441F4404AA6B4603912046314645EA0C050297FFF775FDDDE901138446039A009F11441F4404AA6B4603912046F5
S3FD08008158314645EA0C050297FFF748FDDDE901138446039A009F11441F4404AA6B4603912046314645EA0C050297FFF71BFDDDE901738446039A0098314617441E1804AA6B462046CDE9026745EA0C05FFF7EEFCDDE901138446039A009E11442F4F1E4404AA6B4603912046022145EA0C0502960597FFF70FFEDDE901138446039A009E1144274F1E4404AA6B4603912046022145EA0C0502960597FFF7FCFDDDE901160246039B009819441E4F6B460644039120460221154304AA02960597FFF7EAFD86460099DFF86CC001A8C1C86B4604AA07440E442046022145EA0E05CDE90267CDF814C0FFF7D6FDDDE901738446039A00990D4E0B443A4478
S3FD0800825020460C49CDE9023245EA0C0505961CF023FA2046084A02A908F09EFD28460DB0F0BD00BF84D2020860D2020874D202088CE202087C3203082CD4020898D20208B2F57F4F70B5154628BF4FF47F45322D38BF32251C4C1D4B04F11006A183C0E90162DA68266912F002020660706001EB050620611BD10220B6B25E631A61D8605A6A521A92B2954200D970BD01F1330080B2DA6892070DD558635A6A521A92B295420AD9E36A43F00103E36270BD084816F02AF8074816F027F8013080B28142E7D1054816F020F860290020000C004010E9020858E90208F0E7020870B505460C4616F05BFA002D43D02B78043B012B3FD86B6ADA6891077F
S3FD0800834836D0DA6892073BD1186910F003002ED02020D3F8C011D3F8C421D3F8C861D3F8CC51C4E9046518611869850703D1586940F0100058612079C1F340031B01C1F3800520F0300043EA45130343980623712AD5A368C90861F31C03A36000202379110A62F30303120C23712170628070BD1A699207C5D1012070BD0E4815F0C8FF2020D3F8B011D3F8B421D3F8B861D3F8BC51C4E90465D860D8688607CBD1586940F002005861C6E72389490D61F30A032381D3E770E90208426A0B7870B4946813F0200FC4F30164C3F3001318D048685B0043EAC00343F00403087802EB041243F0010300F00F00D1E90265C2F88401C2F88861C2F88C51E3
S3FD08008440C2F8803170BC704788885B0043EA4053E7E700BF2DE9F041044601260F46904616F0C4F9274B06FA04F51868054218BF002001D0BDE8F0812349284318604869DFF888C0A21943F8327040EA060E03EBC2020CEB04105F68C2F804808268C1F814E0174249694FEA041414D00E214FF0000E0CEB040672685CF804C0747B3D43A14014685D6024F00F041460CCF80410C2F800E0CEE74FF0500EC17B4A09920001F1604802F1604201F01F0102F561428E4008F5614888F800E3C2F880611660D4E700BFC02B00200010024010EA0208F0B54FF461644268274DC2F31A03A5FB0323264E9B09A6FB0326F60A04FB16330778234C07F1500C08
S3FD080085384578A4FB03248278C1F814C090F801C06409604640090138DFF87CE005F00F05013D8861C4EB0410A3EB800302F01F023EF815E0C1E90325CCF3001C013A0B60BB07C1E90146C1F820C0724407F2BC700BD10E4B0E4C03FB00F3B4EBB30F04D2012D00DD0132CA61F0BD084B094C03FB00F3B4EB331FF6D3012DF3DCF3E700BFD34D6210C5B3A29189888888295C8FC2285C8F020AD7A30098EB020870B4022501260024204B858403F120050561826080F826605E6AC16103F1380100F110058842C0E90563C0E90F44426435605D6227D0D968CB6A816213B15C6CA24219D30363C86200234FF0FF36002400250F49C0E91645CA6886646B
S3FD080086300132CA6000F13802C0E9143370BCC362C36482637047596C8A4203D21C461B6B002BF8D103632063E0E71C669C66DDE760290020882B002008B516F0BFF8074B1868984208D00021026853601A604163BDE8084016F0F6B808BD00BF040A002070B40D4D05F110063346EC6805E013F8011B10F8012B914206D1A342F7D3007810B9EE6070BC704740F20112034B0120AA80AB6070BC7047982B00203CD40208084B091A5B6A89B2181A80B2884201D20020704740F20111034B044A012099809A607047000C0040982B002050D4020810B5094C002918BF0C46FDF771FE4FF06A51FDF7C5FE0549FDF7C2FEA0470349FDF772FF10BD00BF0E
S3FD08008728055A02080000C84270B53023044683F3118815F007FE17F043F823785A1E012A42D8234A012B626018D000224FF6FF76032511200221A3681A605A609A62DA60DE629A6942F4807242F001029A619D6018622170BDE870401BF0DCBF154B9C4212D0154B9C42E0D1144BDA6942F00402DA61DA691A6942F004021A611A6922F004021A611B69D0E70C4BDA6942F00202DA61DA691A6942F002021A611A6922F002021A611B69C0E7054815F0C1FD00BF68EC0208F8150020041600200010024064E90208302370B583F31188244C15F0A9FD16F0E5FFA3682068002B17DBA0423AD15A1C002A8260C8BF836013DD15F09BFF00241B4D16F093
S3FD08008820BFFF15F081FD2B68AB4221D1002383F31188204670BDA04222D00133A36003685C60236016F016F80022A3684263013B9342A360DFDA0D4D0520EE683460636873601E607463666018F050F8746BD6E7EA689B6892689A42D8D2054815F06CFD044815F069FD00BFD42C00206029002020E8020800E9020838B504460D46302383F3118815F052FD16F08EFF15F09EFFA368002B236811DB9C4208BFA56025D115F046FF16F06CFF15F02EFD114B1A689A4213D1002383F3118838BD9C4215D0A5606FF001056068436863601C6015F0C1FF456323689C42F5D1E1E7D96893688A689A42E6D2044815F026FD034815F023FD00BF60290020CD
S3FD0800891820E80208B0E8020838B53023044683F3118815F00FFD16F04BFF15F0FBFE1E4B9A681968002A13DB994231D1501E0028886011DB0024194D16F026FF15F0E8FC2B68AB4217D1002383F31188204638BD99421DD0511E9960ACB1104D2146EA68052013605C685363546022605A6019F011F90446E0E7EA689B6892689A42E2D2074815F0DDFC4FF0FF34044D9A60D3E7044815F0D5FC00BFD42C00206029002020E80208E0E8020808B5302383F3118815F0C0FC16F0FCFE0E4B1868984205D00268002153601A6015F0C8FE16F0DCFE15F09EFC084B1A689A4203D1002383F3118808BDD96893688A689A42F6D2034815F0A6FC040A00201D
S3FD08008A10602900202CE8020838B5302383F3118815F094FC16F0D0FE15F0E0FE00220C4CE368DD6BDA6316F0B3FE15F075FC2368A34204D1002383F31188284638BDE2689B6892689A42F5D2024815F07DFC00BF6029002038E8020870B5144C3023E56883F3118815F06AFC16F0A6FEEE6B6EB10023EB6316F08CFE15F04EFC2368A3420CD1002383F31188304670BD4FF0FF330A206B6317F032FFEE6BE9E7E2689B6892689A42EDD2024815F04EFC6029002038E8020838B5154C3023E56883F3118815F03CFC16F078FEEB6B03F00502052A05D005230B206B6317F010FFEB6B23F00503EB6316F054FE15F016FC2368A34204D1002383F3118838
S3FD08008B08052038BDE2689B6892689A42F5D2024815F01EFC6029002038E8020810B53023044683F3118815F00DFC16F049FE15F059FE236813B1204615F07AFF00220023C4E9082316F028FE15F0EAFB084B1A689A4205D1002383F31188C4E90C3310BDD96893688A689A42F4D2024815F0F0FB602900208CE8020800B170470EB400B582B004AA0649074801921BF099F96FF0010018F0F7FF02B05DF804EB03B0704764D4020858220020F0B50446003887B018BF01200D4616467A230B4A0B49FFF7DBFF00237727A1880296206841F05001CDE9003305AA02238DF815508DF8147010F06CF907B0F0BD84D4020864D402082DE9F0430446DFF8A1
S3FD08008C006C90DFF86C80003887B00D461E4618BF01204146174657234A46FFF7B1FF20684A46003818BF012041465823FFF7A8FF4A46414659230120FFF7A2FF00233F88A188029620683E0ACDE9003341F04001032305AA8DF816708DF815608DF8145010F030F907B0BDE8F08300BFC8D4020864D4020838B5836804460BB14368E3B1114D124A95F820351149022B18BF284641F2490308BF05F23C501BF005FD6FF0010018F073FF238CD5F8402543F0040323846260C5F8404538BD028CA3F582731A42DDD1004DEEE75822002008D5020824D5020870B584B09DF80030BDF804400688857823F03F0343F00303002269466FF30A040848ADF872
S3FD08008CF808608DF80A508DF80030ADF8044013F027FFA0F10300B0FA80F0400904B070BD000800200EB410B5044683B070B106AA20460F4901921BF0CBF820460D491BF0B7FC03B0BDE8104003B070470A480B4A90F820350A49022B08BF00F23C50BE231BF0A6FC6FF0010018F014FFDFE700BF5CD502087C3203085822002040D5020824D50208002908BF32282DE9704304460D46164610D21048104A90F820351049022B08BF00F23C504FF492731BF080FC6FF0010018F0EEFE4FF000084FF000090848094BC0E90689C0E90845C0E90A36BDE8704308F070B95822002088D5020824D5020830210020AD7A00082DE9F04F03290E460446154615
S3FD08008DF0BBB006D10122294630460EF07BFB002834D02A68134920461BF04EFC124920461BF04AFC114920461BF046FC104920461BF042FC0F4920461BF03EFC0E4920461BF03AFC2946304601220EF05BFB012803D002203BB0BDE8F08F00203BB0BDE8F08F00BFA4D50208C4D50208D0D502081CD6020848D6020858D6020868681CF0EDFDFEF75FFB0646A8681CF0E7FD8046894630460021FDF7B3FC0028D9D13046BB49FDF7C1FC0028D3D149464046FEF749FB00210546FDF7A3FC07460028C8D129464FF07E50FDF7A7FBB249FDF7F0FA4FF07C51FDF7E4F9FDF734FD002908BF322880468946B4D3DFF8ECA24FF0FF330AF5816B4FF480727D
S3FD08008EE8A74835A916F05CFEDBF80030A54D2093DBF80430DAF810242193DAF814341E921F93DAF840321A93DAF844321B93D5F840321C93D5F844321D93D5F8C0322E93D5F8C4322F93D5F8C8322493D5F8CC322593D5F8D0321693D5F8D4321793D5F818332A93D5F81C332B93D5F820332693D5F824332793D5F828331293D5F82C331393D5F870332C93D5F874332D93D5F878332293D5F87C332393D5F880331493D5F884331593D5F8D8333093D5F8DC333193D5F8E0332893D5F8E4332993D5F8E8331893D5F8EC331993302383F3118815F0C8F916F004FC042249464046FFF7D9FE32A808F032F86C493046FDF764FA4FF07C51FDF758F9F4
S3FD08008FE0FDF7A8FC4FF000084FF00009684B329ADF62339F801847EB0101664A664F98611846C3E90889D9619A6208F051F816F0C7FB15F089F93B68BB4240F04383002383F3118840F2011017F0CCFC804635A9554816F085FD18F0FF0F40F02C83302383F3118815F082F916F0BEFB32A807F0F1FF4FF0000C5149329B339A5B1842EB0C0232A83293339208F0E0F816F098FB15F05AF93B68BB4240F01D83002383F3118823680A21DB6820469847444920461BF00AFBD5E990231C992046521A1D9963EB01033F491BF0FFFA3F4920461BF0FBFADAE990231A992046521A1B9963EB010338491BF0F0FA384920461BF0ECFADBE900322098364922
S3FD080090D81B1A0F6810934B682199204662EB010211921E9ADDE9109ABF1A1F9A2F4963EB02084A4653461BF0D3FA3A46434620462B491BF0CDFA4A465346134340F07781284920461BF0C4FAD5E9B232D5E9AEAB2499D5F8D0025B1A0093259BD5F8D49262EB03030193169B1799C31A69EB0101D5F8C0721A9008930991DDE900231A4920461097D5F8C4721BF0A2FADDE90823204616491BF09CFADDE90023134340F0EC804FF0000825E00000704200247449382000206817002040200020257B000860290020A086010098D60208A8D60208B8D60208C8D6020828200020D4D60208E8D6020814D7020824D7020838D70208181C002031464046E2
S3FD080091D0FDF71AFAFDF786FE02460B46204699491BF062FA984920461BF05EFAD5E9C832D5E9C4AB2699D5F828035B1A0293279BD5F82C9362EB03030393129B1399C31A69EB0101D5F8187308900A930B91DDE902238A4920460097D5F81C731BF03CFADDE90A23204686491BF036FADDE90223134340F073814FF0000831464046FDF7DBF9FDF747FE02460B46204679491BF023FA7C4920461BF01FFAD5E9DE32D5E9DAAB2299D5F880035B1A0493239BD5F8849362EB03030593149B1599C31A69EB0101D5F8707302900C930D91DDE904236A4920460097D5F874731BF0FDF9DDE90C23204666491BF0F7F9DDE90423134340F0DA804FF00008C9
S3FD080092C831464046FDF79CF9FDF708FE8046894642464B46594920461BF0E2F95C4920461BF0DEF9D5E9F832D5E9F4A62899D5F8E8035B1A0693299BD5F8EC7362EB03030793189B1999C31A67EB010102900E930F91DDE906234B4920460096D5E9F6651BF0BEF9DDE90E23204647491BF0B8F9DDE90623134340F04F8142464B4620463E491BF0ADF9002078E5DDE90001FDF75DF88046DDE90801FDF758F84146FDF74FF901464FF07E50FCF78CFF3949FDF793F8FDF7B3FD02460B46204636491BF08FF9DDE90823DDE900018B4208BF8242BFF418AF5246204630491BF081F95A4620462F491BF07CF9109B2E9A981A2F9A67EB0201FDF72AF8FD
S3FD080093C00346DDE900011A9F169AC71B61EB0901B818179A1F4641EB02021146FDF71AF801463846FDF710F9FDF77CFD02460B4620461E491BF058F920461D49ABEB0A021BF052F9E2E641463846FDF703F80746DDE91001FCF7FEFF01463846FDF7F4F801464FF07E50FCF731FF0C49FDF738F8FDF758FD02460B4620460E491BF034F96AE600BFC4D70208DCD7020824D7020838D70208ECD70208FCD702080000C8424CD7020864D702087CD7020894D70208ACD70208FCD60208DDE90401FCF7CAFF8046DDE90C01FCF7C5FF4146FDF7BCF801464FF07E50FCF7F9FE8A49FDF700F8FDF720FD02460B46204687491BF0FCF8DDE90C23DDE9040100
S3FD080094B88B4208BF8242BFF403AF5246204681491BF0EEF85A4620467F491BF0E9F8009B2C9A981A2D9A67EB0201FCF797FF0346DDE90401029F149AC71B61EB0901B818159A1F4641EB02021146FCF787FF01463846FDF77DF8FDF7E9FC02460B4620466E491BF0C5F820466D49ABEB0A021BF0BFF8CDE6DDE90201FCF770FF8046DDE90A01FCF76BFF4146FDF762F801464FF07E50FCF79FFE5D49FCF7A6FFFDF7C6FC02460B4620465A491BF0A2F8DDE90A23DDE902018B4208BF8242BFF46AAE5246204654491BF094F85A46204652491BF08FF8009B2A9A981A2B9A67EB0201FCF73DFF0346DDE90201089F129AC71B61EB0901B818139A1F465F
S3FD080095B041EB02021146FCF72DFF01463846FDF723F8FDF78FFC02460B46204641491BF06BF820464049ABEB0A021BF065F834E6DDE90E01FCF716FF8346DDE90601FCF711FF01465846FDF707F801464FF07E50FCF744FE2F49FCF74BFFFDF76BFC02460B4620462C491BF047F8DDE90E23DDE906018B4208BF8242BFF48BAE5246204626491BF039F8DDF800B020465A4624491BF032F83099319B701A65EB0301FCF7E1FEDDE9061205460298189B0E1A62EB0701F018199B41EB03031946FCF7D2FE01462846FCF7C8FFFDF734FC02460B46204614491BF010F820461349ABEB0A021BF00AF855E6F868414616F0D1F98020FFF7D0BBFA689B68FC
S3FD080096A892689A42BFF4B7AC0A4814F051FEFA689B6892689A42BFF4DDACF5E70000C8424CD7020864D702087CD7020894D70208ACD702085CE802082DE9F04F03290E4604461546B1B006D10122294630460DF0FDFE002834D02A68134920461AF0D0FF124920461AF0CCFF114920461AF0C8FF104920461AF0C4FF0F4920461AF0C0FF0E4920461AF0BCFF2946304601220DF0DDFE012803D0022031B0BDE8F08F002031B0BDE8F08F00BFA4D50208C4D50208D0D502081CD6020848D602080CD8020868681CF06FF9FDF7E1FE0646A8681CF069F98046894630460021FDF735F80028D9D13046C149FDF743F80028D3D149464046FDF7CBFE0021AC
S3FD080097A00546FDF725F882460028C8D129464FF07E50FCF729FFB849FCF772FE4FF07C51FCF766FDFDF7B6F8002908BF322880468946B4D3B14F4FF0FF334FF48072B0482BA916F0E1F9D7F84032AE4D1093D7F84432DFF8E4B21193D7F868321693D7F86C321793D7F870320C93D7F874320D93D5F840320E93D5F844320F93D5F888322493D5F88C322593D5F890321293D5F894321393D5F8C8322693D5F8CC322793D5F8D0321493D5F8D4321593D5F810332293D5F814332393D5F818331893D5F81C331993D5F860332093D5F864332193D5F868331E93D5F86C331F93DBF8A0301A93DBF8A4301B93DBF8A8301C93DBF8AC301D93302383F358
S3FD08009898118814F057FD15F093FF022240464946FFF768FA28A807F0C1FB79493046FCF7F3FD4FF07C51FCF7E7FCFDF737F884468E4600200021289A754B1CEB02029A61299ADFF800C2DFF80082C3E908014EEB02021846C3F82CA0DA61C3F828C007F0DBFB15F051FF14F013FDD8F80030434540F0D982002383F3118840F2011017F055F881462BA9604816F00EF919F0FF0F40F0C282302383F3118814F00BFD15F047FF28A807F07AFB4FF0000C5949289B299A5B1842EB0C0228A82893299207F069FC15F021FF14F0E3FCD8F80030434540F0B382002383F3118823680A21DB68204698474C4920461AF092FED7E9902310992046521A119906
S3FD0800999063EB010347491AF087FE474920461AF083FED5E990230E992046521A0F9963EB010340491AF078FE404920461AF074FED7E99A321699D7F870825B1A0093179B0D9962EB030301930C9BD7F87472B8EB030A67EB0109DDE90023354920461AF05BFE52464B46204632491AF055FEDDE90023134340F08781DDE900120C9BB1EB080062EB0701C0180D9B41EB03031946FCF7F8FC3146FCF7EFFDFDF75BFA02460B46204624491AF037FE244920461AF033FEDBE928201A99DBF8A830521A0A921B9ADBF8AC1060EB02020B921C9A1D98B3EB020861EB0009DDE90AAB184952465B4620461AF018FE4B464246204615491AF012FE5AEA0B0318
S3FD08009A8840F027810023009328E000BF00007042002474496817002038200020181C002040200020A086010098D60208A8D60208B8D602084CD8020858D8020868D802088CD80208A4D80208ACD80208C0D8020870200020257B000860290020DDF8008031464046FCF78CFDFDF7F8F902460B462046BA491AF0D4FDB94920461AF0D0FDD5E9A432D5E9A09AD5E9A2B7129920465B1A0293139BB34962EB03030393DDE902231AF0BDFDDDE90201FCF76FFC41468046FCF765FDAC49FCF7AEFCFDF7CEF902460B462046A9491AF0AAFDDDE90223134340F0858140463146FCF751FDFDF7BDF902460B462046A1491AF099FDA14920461AF095FDD5E956
S3FD08009B80B432D5E9B09AD5E9B2B7149920465B1A0493159B954962EB03030593DDE904231AF082FDDDE90401FCF734FC00998046FCF72AFD8E49FCF773FCFDF793F902460B4620468B491AF06FFDDDE90423134340F0268140463146FCF716FDFDF782F902460B46204684491AF05EFD844920461AF05AFDD5E9C632D5E9C29AD5E9C4B7189920465B1A0693199B784962EB03030793DDE906231AF047FDDDE90601FCF7F9FB00998046FCF7EFFC7149FCF738FCFDF758F902460B4620466E491AF034FDDDE90623134340F0A88040463146FCF7DBFCFDF747F902460B46204666491AF023FD684920461AF01FFDD5E9DA32D5E9D689D5E9D8AB1E99A1
S3FD08009C7820465B1A08931F9B5A4962EB03030993DDE908231AF00CFDDDE90801FCF7BEFB00990546FCF7B4FC5349FCF7FDFBFDF71DF902460B46204650491AF0F9FCDDE90823134349D131462846FCF7A1FCFDF70DF902460B46204649491AF0E9FC002032E5DDE90A01FCF799FB0746494600904046FCF793FB3946FCF78AFC01464FF07E50FCF7C7FA3C49FCF7CEFBFDF7EEF802460B4620463E491AF0CAFCE6E649465046FCF77BFB8146DDE90001FCF776FB01464846FCF76CFC01464FF07E50FCF7A9FA2D49FCF7B0FBFDF7D0F802460B46204630491AF0ACFC5AE6424620462E491AF0A6FC4A4620462C491AF0A1FC209BBAEB0300219B6BEBFB
S3FD08009D700301FCF74FFB2946FCF746FCFDF7B2F802460B46204624491AF08EFC20462349A9EB08021AF088FC91E74A4620461C491AF082FC524620461A491AF07DFC229B239ABBEB030067EB0201FCF72BFB4146FCF722FCFDF78EF802460B46204612491AF06AFC20461149AAEB09021AF064FC33E700BFD4D80208ECD8020800D902080000C8424CD70208C4D7020814D9020828D902083CD90208FCD6020878D8020864D702087CD7020894D70208ACD702084A4620462F491AF03FFC524620462E491AF03AFC269B279ABBEB030067EB0201FCF7E8FA4146FCF7DFFBFDF74BF802460B46204625491AF027FC20462449AAEB09021AF021FCB5E6C8
S3FD08009E684A4620461D491AF01BFC524620461C491AF016FC249B259ABBEB030067EB0201FCF7C4FA4146FCF7BBFBFDF727F802460B46204613491AF003FC20461249AAEB09021AF0FDFB56E6D8F80C00494615F0C3FD802040E4D8F80C209B6892689A42BFF420AD094814F043FAD8F80C209B6892689A42BFF446ADF4E700BF64D702087CD7020894D70208ACD702085CE802082DE9F04F03290E460446154689B005D10122294630460DF0F1FA38B32A687B4920461AF0C5FB7A4920461AF0C1FB794920461AF0BDFB784920461AF0B9FB774920461AF0B5FB764920461AF0B1FB2946304601220DF0D2FA012803D0022009B0BDE8F08F002009B09B
S3FD08009F60BDE8F08F68681BF071FDFDF7E3FA0346A8681D461BF06AFD06460F4628460021FCF736FC0028E5D128466449FCF744FC0028DFD130463946FDF7CCFA00210646FCF726FC83460028D4D131464FF07E50FCF72AFB5A49FCF773FA4FF07C51FCF767F9FCF7B7FC002908BF322806460F46C0D3DFF870814FF0FF334FF48072514803A915F0E1FDD8E9909A302383F3118814F0ACF915F0E8FB012239463046FEF7BDFE684607F016F828464549FCF748FA4FF07C51FCF73CF9FCF78CFC00260027009A019D404B801845EB01013F4A404D98611846C3E90867C3F82CB0D9619A6207F036F815F0ACFB14F06EF92B68AB4249D1002383F3118847
S3FD0800A05840F2011016F0B2FC064603A92F4815F06BFD16F0FF0F34D1302383F31188002614F068F915F0A4FB684606F0D7FF2B49009B019A5B1846EB020268460093019207F0C8F815F080FB14F042F92B68AB4225D1002585F3118823680A21DB68204698471F4920461AF0F3FAD8E99023B2EB090220461B4963EB0A031AF0E9FA28463DE7E868314615F0AFFC802037E7EA689B6892689A42B0D2134814F031F9EA689B6892689A42D4D2F6E700BFA4D50208C4D50208D0D502081CD6020848D6020850D9020800007042002474493820002040200020257B000860290020A086010098D60208A8D602085CE8020868170020F0B50F46154604466D
S3FD0800A15087B068B30026244A04F50273204601940397059500960492029315F0CBFF80BBDDE90132552103F8011B9A42FBD8302383F3118814F0E2F815F01EFB684614F03FFB044615F004FB14F0C6F8134B1A689A4219D1002383F31188204607B0F0BD0F48104A90F820350F49022B08BF00F23C50A7231AF070FA6FF0010017F0DEFCC0E70A4814F0C0F8D96893688A689A42E0D2074814F0B8F8F9B2000860290020582200208CD9020824D50208C8E8020814E80208436870B505460C467BB11648164A90F820351649022B08BF00F23C508B231AF041FA6FF0010017F0AFFC04F1080630466C6016F0B3FCA36D04F118005A6805F10801C5E987
S3FD0800A24807324FF0FF33022215F0AAFCD4F8B03030460133C4F8B030BDE8704015F0B0BD58220020C0D9020800DA0208D0B5D1E900670446C0E90C23302383F3118814F061F815F09DFA002100200F4BC4E90801A3622046C4E90667E46206F005FF15F07BFA14F03DF8094B1A689A4203D1002383F31188D0BDD96893688A689A42F6D2034814F045F800BFF5790008602900208CE80208F0B5036C044683B093B14068D3F89410856DD3F89820D5E90267761847F10007CDE90067683082B169460B4AFFF7B4FF94F8A0303BB91222D4F89830D4F89C0084F8A020984703B0F0BD12236946034AFFF7A2FFECE700BFDDA2000859A5000838B50546CE
S3FD0800A3400C4648B1092C02D00F2C00D038BD2846BDE8384015F07EBF0848094A90F820350849022B08BF00F23C50BA231AF09CF96FF0010017F00AFCE4E700BF582200208CD9020824D502080346006C98B1884234BF002001205A6C62B110B4D3E912439C4205D88C4208D20C1BA24205D2002010BC704770470120EDE78B42F8D9591A8A4238BF0020F3E72DE9F043054683B000286AD04068002867D005F10801183015F0AEFB6868083016F0DAFB05F14800FEF798FB00236868C5F88030046EA5427CD04F4EDFF844814E4F01E0002C5FD02346246CAC42F9D12A6C1A64002669682A6A8B6D08465B682E649A4229D0EC69434FDFF81891DFF847
S3FD0800A4380C812468A3698BB997F820354146022B4A4640F2E94314BF38463D481AF028F96FF0010017F096FBA3696968D1F858C0A26A013B002B08BF0126013AA4450846A361A262DDD1002E37D1C269D0F8B030013A013BC261C0F8B030083015F098FC0020C5E90700C5E92600686003B0BDE8F0832548274A90F820352449022B08BF00F23C5040F2AA431AF0F2F86FF0010017F060FB686884E796F820354246022B394640F2DB4314BF304619481AF0E0F86FF0010017F04EFB8EE7203015F02EFC6868C2E72B6C0366A3B1D3F894308BB1816DD5F89820D1E90267F61847F10007CDE9006768304AB12B4669460A4AFFF7A5FE77E76830FEF743
S3FD0800A530F9FA73E712236946064AFFF79BFE6DE75822002000DA020894270020C0D90208DDA2000859A5000838B5044680B92E482E4A90F820352E49022B08BF00F23C5040F231131AF098F86FF0010017F006FBEFF30583C3F3080333BB264BDB681BB39D68EFF31183002B39D0234B1A7882B301212248FDF7A6FAAB1EFC2B10D91A481A4A90F820351E49022B08BF00F23C5040F249131AF070F86FF0010017F0DEFAEFF3118383B138BD134B1A7832B91C700121BDE838401148FDF784BA0121BDE838400E48FDF77EBA2846BDE8384015F07DBE012109481C70FDF774FACCE7BF2015F074FEC1E700BF582200201CDA020800DA02086029002015
S3FD0800A6284C2200203022002024D5020870B50E4615460446A8B1D4F898303BB394F8A02042B115B1284615F081FB3046BDE8704015F0B6BB1122D4F89C0084F8A0209847EFE70C480C4A90F820350C49022B08BF00F23C5040F223331AF012F86FF0010017F080FAD4F89830002BD7D11120FFF75FFFD6E758220020C0D9020800DA020838B5044628B3406818B304F10801183015F042FA6068083016F06EFA6068256A816DD0F8B0304A68013B9542C0F8B03007D0E3691B689A6A994202F1FF329A62F8D1083015F06CFB0023C4E90733636038BD0948094A90F820350949022B08BF00F23C504FF4BD7319F0CAFF6FF0010017F038FA6068C8E7A8
S3FD0800A72058220020C0D9020800DA020810B5044630B1436823B12046FFF7B6FF002010BD0A480B4A90F820350A49022B08BF00F23C5040F2E92319F0A7FF6FF0010017F015FA2046FFF7A0FF002010BD58220020C0D9020800DA020810B5044630B1436823B12046FFF790FF002010BD0A480B4A90F820350A49022B08BF00F23C5040F2372319F081FF6FF0010017F0EFF92046FFF77AFF002010BD58220020C0D9020800DA020810B5044630B1436823B12046FFF76AFF002010BD0A480B4A90F820350A49022B08BF00F23C504FF4F17319F05BFF6FF0010017F0C9F92046FFF754FF002010BD58220020C0D9020800DA020838B504460D4688B1FC
S3FD0800A818D4E90C23D4E90A01521943F100038842C4E90C2301D8A84200D9A562A94238BFE56238BD0848094A90F820350849022B08BF00F23C50AF2319F02AFF6FF0010017F098F9DCE700BF58220020C0D9020800DA02082DE9F04F87B00546CDE90112DDF840800393002800F09F804068002800F09B80083016F087F96B682A6A996D4868824200F0ED80EC696068824200F0E1800C6862681AB924686268002AFBD00027734EDFF8D491DFF8D4B1A2698AB999F820355A46022B18BF48464FF48A636C4908BF6C4819F0E3FE6FF0010017F051F96B689B6DA34200F08A80A3693022013B002B08BF0127A36182F3118813F021FD14F05DFF04A8A6
S3FD0800A91006F090FB14F044FF13F006FD3368B34240F098804FF0000C8CF31188D4E90223DDE904018B42D5F8803008BF82422CBFE246A0EB020AA34233D0B8F1000F01D0C8F800A0A36A2846013BA3625146FFF757FFD5E90E32D5F88800013342F10002C5E90E32002840D0D5E92332934233D8534558D9A2EB0A0C60452DD2524503D2AAEB030290422CD2A3696968002B62D0002228460831FFF745FE112007B0BDE8F08F05F14800FEF7B5F80023C5F88030C3E73448344A90F820353049022B08BF00F23C504FF4866319F066FE6FF0010017F0D4F8686851E75245C5F88CA004D253469A45C5F890A0CED36B689A6D1846A2421FD024685DE7B2
S3FD0800AA0863680399C5E9074319B1D4E90223C1E90023019B23B1D4E904121846FBF7A6FF029A002A3FF462AF636913605EE75245AAD36B689A6D1846A242DFD1A7B9083015F0BEF9002007B0BDE8F08FF2689B6892689A42BFF462AF0E4813F079FC01F120029AE7246823E7203015F06FF96868E5E703F1080015F0A3F9E52092E700BF6029002000DA02089427002058220020C0D9020880E802082DE9F04383B0884616461F460546DDF82890002800F09B804068002800F09780083016F06DF868682B6A826D51688B4200F00C81E9694868834200F0D380146863681BB9246860680028FBD0A369002B00F090806368C5E907431FB1D4E9022342
S3FD0800AB00C7E90023B8F1000F04D0D4E904124046FBF730FF0EB163693360A3693022013BA36182F3118813F011FC14F04DFE684606F080FA14F034FE13F0F6FB7D4B1A689A4240F0C880002686F31188D4E90223DDE900018B42D5F8803008BF824238BF861AA34268D0B9F1000F01D0C9F80060A36A3146013BA3622846FFF749FED5E90E32D5F88810013342F10002C5E90E3211B3D5E92332934215D8B34278D8B2421AD2F21A914213D26A68A36902F10801002B40F0998020322846FFF73BFD112003B0BDE8F083B242C5F88C6004D233469E42C5F89060E7D3A369002B4DD06868083015F0F1F8002003B0BDE8F0835248524A90F82035524958
S3FD0800ABF8022B08BF00F23C5040F27F3319F050FD6FF0010016F0BEFF686855E74848494A90F820354849022B08BF00F23C504FF4677319F03DFD6FF0010016F0ABFF5DE76B689B6DA3426DD02268D5F88830C5F880203BBBD5F8841002F10803D3E900235218D5F8981043F10003CDE90023002960D069462B46354A05F14800FFF7FEFA75E76868203015F069F8ACE70C68A369002B7FF433AFC1E7901B814297D2B24283D385E7D5E923718F42D3D8D5F8841029B33B449942CFD9D2E90201C018D5F8983041F10001CDE90001002BD1D1112305F1480069461E4AFFF7D0FA47E7D96893688A689A42BFF432AF1A4813F038FB002265E7083015F024
S3FD0800ACF06BF8E52078E73B44D2E90201D5F89820C01841F10001CDE90001002AADD1002B0CBF1023112305F14800D7E705F14800FDF700FF0023C5F880301CE7102305F14800CBE76029002058220020C0D9020800DA0208FD79000859A5000880E802082DE9F0468A4616469946074683B0002873D04068002870D0083015F019FF7868816D4B68002B7BD03A6AC36D9A4277D0FB69BD6B1C68FA6BA36A681C03F1FF33A36242F10003A142C7E90E0310D0023542F1000224682846A36A013503F1FF33A362134642F10002A142F3D1C7E90E036368C7E90743B9F1000F03D0D4E90223C9E90023BAF1000F04D0D4E904125046FBF7C8FD0EB16369E0
S3FD0800ADE83360302383F3118813F0ACFA14F0E8FC684606F01BF914F0CFFC13F091FA244B1A689A423BD1002383F31188DDE9000104F10805D5E900458D4208BF84422CBF1C46041B7868083014F0CAFF21463846FFF7EAFC0A9BF3B101201C6003B0BDE8F0861448144A90F820351449022B08BF00F23C5040F22B1319F022FC6FF0010016F090FE78687BE7083014F0A9FF002003B0BDE8F086012003B0BDE8F086D96893688A689A42BED2054813F061FA00BF6029002058220020C0D9020800DA020880E80208F0B50D4616461F46044685B068B343685BB303A800903B46324629462046FFF741FF002833D0236C13B1039A934234D3626C92B14A
S3FD0800AEE0D4E912018842039B04D8984232D9CD1AAA422AD39942A364194602D2E1648B4225D88A4223D30A9BD3B10020039B0A9A136005B0F0BD1448144A90F820351449022B08BF00F23C5040F2A92319F0BCFB6FF0010016F02AFEC1E7E52005B0F0BD184605B0F0BD1020E3E7994204D3112005B0F0BD994205D2191A8A4219460346CDD3CBE71946CCE758220020C0D9020800DA02082DE9F04182B00D46164698460446089F78B143686BB143463246294620460097FFF7DCFE00280CBFE520002002B0BDE8F0810948094A90F820350949022B08BF00F23C5040F2222319F074FB6FF0010016F0E2FDDFE700BF58220020C0D9020800DA02089C
S3FD0800AFD82DE9F04182B00D46164698460446089F78B143686BB143463246294620460097FFF7AAFE00280CBFE520002002B0BDE8F0810948094A90F820350949022B08BF00F23C5040F2CD1319F042FB6FF0010016F0B0FDDFE700BF58220020C0D9020800DA02082DE9F04383B0894616461F460446DDF8288000285AD04068002857D0083015F0A1FDD4E907325968914261D063689B6D1D686B68C4E907531FB1D5E90223C7E90023B9F1000F04D0D5E904124846FBF773FC0EB16B693360302383F3118813F057F914F093FB684605F0C6FF14F07AFB13F03CF9294B1A689A4246D1002686F31188D5E90223DDE900018B4208BF8242A36B38BFE3
S3FD0800B0D0861AA96AE26B0133606801F1FF3142F10002A9620830C4E90E3214F06DFE31462046FFF78DFBB8F1000F20D00120C8F8006003B0BDE8F0831448154A90F820351449022B08BF00F23C50D92319F0C4FA6FF0010016F032FD606895E76068826D9A429BD1083014F047FE0020E1E7012003B0BDE8F083D96893688A689A42B3D2054813F001F900BF6029002058220020C0D9020800DA020880E80208F0B50D4616461F46044685B070B3436863B303A800903B46324629462046FFF757FF002834D0236C13B1039A934235D3626C9AB1D4E912018842039B04D898422ED9CD1AAA4233D39942A36406D21A469342E26402D9112005B0F0BD5A
S3FD0800B1C80A9BD3B10020039B0A9A136005B0F0BD1248134A90F820351249022B08BF00F23C5040F25B2319F05BFA6FF0010016F0C9FCC0E7E52005B0F0BD0A9805B0F0BD1020E3E79942DBD2191A8A42D5D31A460346CFE79942F7D3CFE700BF58220020C0D9020800DA02082DE9F04182B00D46164698460446089F78B143686BB143463246294620460097FFF7F4FE00280CBFE520002002B0BDE8F0810948094A90F820350949022B08BF00F23C5040F2022319F016FA6FF0010016F084FCDFE700BF58220020C0D9020800DA02082DE9F04182B00D46164698460446089F78B143686BB143463246294620460097FFF7C2FE00280CBFE520002033
S3FD0800B2C002B0BDE8F0810948094A90F820350949022B08BF00F23C5040F2AD1319F0E4F96FF0010016F052FCDFE700BF58220020C0D9020800DA02082DE9F04F044600F1240385B01946039301224FF0FF33994814F04AFCA368002B00F0A4802046E168984740F00105DFF8708298F80030002B5FD0914EF36893F8259019F004093ED14FF0300A11E0D4E9043220469847D4E90E32013342F10002C4E90E3240F00105F36893F825305B0729D44FF0FF31284616F08AFCC2070146E5D58AF3118812F0E5FF14F021FAD4F830B0C4F8309014F007FA12F0C9FF3368B34266D189F311881BF0010F20D11BF0020FD9D00F216068FEF7C4FFF36893F8CC
S3FD0800B3B825305B07D5D50F216068FEF7BBFFA36923B1204698F80010E26998470399674814F0B2FB002005B0BDE8F04F16F0D2BB09216068FEF7A6FFB6E7624815F0D4FB218C614B01311B6889B221841BB95AE01B68002B57D01A8C9142F9D001398A422FD15A4B1E687EB3337A6BBB72681946009218461A463768B847A0F12002D2B2012A40F290805248524A90F820355249022B08BF00F23C50672319F029F96FF0010016F097FB012333720DE04FF0FF355DE7F2689B6892689A4293D2474812F06FFF2120FFF76CF83E4814F0A1FC4FF0FF31012016F0B6FB302383F3118812F059FF14F095F9236B354E23F00403236314F07AF912F03CFFE8
S3FD0800B4B03368B34243D1002383F311883AE7314B1E68002E36D0337A022B22D00123726818460092274904223768B847B8B1202814D0212831D02848284A90F820352849022B08BF00F23C50902319F0D5F86FF0010016F043FB02233372B9E701203072B6E71D481D4A90F820351D49022B08BF00F23C508B2319F0BFF86FF0010016F02DFBCBE704210F48FCF7DCFAA0E7F2689B6892689A42B6D294E70223337298F80030002B94D1212388F8003090E721287FF47DAF0223012102483372FCF7C2FAEDE700BF30220020602900203422002044220020502200205822002054DA020800DA02088CE802084C220020036810B5044683B10E480F4A25
S3FD0800B5A890F820350E49022B08BF00F23C504FF48D7319F075F86FF0010016F0E3FA094815F0EAFA084B07481A681C60226014F0F7FB002010BD00BF582200201CDA020800DA020834220020442200200346806D98B1884234BF00200120DA6D62B110B4D3E918439C4205D88C4208D20C1BA24205D2002010BC704770470120EDE78B42F8D9591A8A4238BF0020F3E738B5044600F10C05284615F0AFFAE36913B9A06A28B938BD284614F0BBFBF12038BD284614F0B6FBF32038BD10B5044608B323681D4A934232D01D4A934233D01C4A93422ED01C4A934212D01B481C4A90F820351B49022B08BF00F23C5040F2A14319F007F86FF0010016F0A1
S3FD0800B6A075FAFF2010BD002010BD1148114A90F820351149022B08BF00F23C5040F2964318F0F2FF6FF0010016F060FA2368044A9342CCD1032010BD012010BD022010BD34EB020820EB02085CEB020848EB0208582200208CDA020800DA020838B504460D46E0B1E36D83B1D4E918218A420CD8A16D134429BB5A1C0AD0D4E90801C01841F10001C5E9000138BDA36D002BF2D14FF0FF324FF0FF33C5E9002338BD0B480B4A90F820350B49022B08BF00F23C504FF4497318F0A8FF6FF0010016F016FAD0E78B4228BF0B46D5E700BF582200208CDA020800DA020810B50446002833D02046FFF76DFF01280CD1E269136A1BB39968C4E901319C6063
S3FD0800B798A368002B37D05C60146210BD2046FFF75BFF0228EDD01948194A90F820351949022B08BF00F23C5040F2C51318F070FF6FF0010016F0DEF9E269136A002BDBD1D369002BD8D19369A3B1A3609461DAE70A480B4A90F820350A49022B08BF00F23C504FF4E27318F053FF6FF0010016F0C1F9B9E794615462146210BD582200208CDA020800DA020838B504460D4688B1D4E91023D4E90E01521943F100038842C4E9102301D8A84200D9A563A94238BFE56338BD0848094A90F820350849022B08BF00F23C5040F20B1318F021FF6FF0010016F08FF9DBE7582200208CDA020800DA020838B5044600283DD0E069083015F08AF96368002BBE
S3FD0800B8902FD0A268E0699A60A268C169A14226D0056AA54217D0EAB15360D0E90E32013342F10002C0E90E32083014F085FAD4E91431002201335141C4E91431C4E90122E261A26238BD994214BF194600210162002AE1D14362002BDFD09A60DDE7C361D9E7E069A26882619AB153606368CCE709480A4A90F820350949022B08BF00F23C50C82318F0C8FE6FF0010016F036F9B0E71346B9E700BF582200208CDA020800DA02082DE9F0410D4616461F46044682B0002865D004F10C084046002D47D015F026F9E369002B73D0022D45D12046FFF78CFF4FF0F108302383F3118812F0EDFC13F029FF684605F05CFB13F010FF12F0D2FC434B1A6822
S3FD0800B9889A4274D1002585F31188DDE90001D4E908238B4208BF824238BF851A04F16800FDF7BCF80EB1636B336007B13D6029462046FFF731FFB8F1000F20D1E36DF3B1D4E918218A423BD8AA4258D9481B834236D2A94255D33AE014F04CFA38B3E3695BB340464FF0F10814F0EAF9404602B0BDE8F0811120FEF7ABFD4FF0110800234046A36202B0BDE8F0812148214A90F820352149022B08BF00F23C5040F2274318F03EFE6FF0010016F0ACF887E74FF0F208404602B0BDE8F0814FF000088FE7A9422566DBD22A4695426566D7D2D4F8A030002BCED094F8A8204FF01108002ACDD1D4F8A40084F8A8809847C7E7D96893688A689A4285D264
S3FD0800BA80084812F069FCA942BDD2A91A8B42E2D3DEE700BF60290020582200208CDA020800DA020874E802082DE9F0410D4617469846044682B0002861D004F10C063046002D40D015F06CF8E369002B6ED0022D3ED12046FFF7D2FEF126302383F3118812F034FC13F070FE684605F0A3FA13F057FE12F019FC3A4B1A689A4261D1002585F31188DDE90001D4E908238B4208BF824238BF851AB8F1000F01D0C8F8005029462046FFF77CFE26B9A36DC3B1AB4216D210260023A36277B13046636B3B6002B0BDE8F08114F099F950B3E3696BB3304614F039F9F126304602B0BDE8F081E36D002BE6D0D4E918218A4220D8AA422FD9481B83421BD2EF
S3FD0800BB78A9422CD31FE01948194A90F820351949022B08BF00F23C5040F2BB2318F088FD6FF0010015F0F6FF8BE7F226304602B0BDE8F081002694E7A9422566BED22A4695426566BAD21126B8E7D96893688A689A4298D2084812F0C3FBA942AED2A91A8B42F0D3ECE700BF60290020582200208CDA020800DA020874E802082DE9F0410D4690461F46044682B000284ED004F10C063046002D3AD014F0C6FFE369002B42D0022D38D12046FFF72CFEF1260023A362B8F1000F02D0636BC8F80030302383F3118812F086FB13F0C2FD684605F0F5F913F0A9FD12F06BFB244A136893423BD1002585F31188DDE90001D4E908238B4208BF824238BF95
S3FD0800BC70851A29462046FFF7D3FD07B13D60304602B0BDE8F08114F0F9F8E8B1E3693BB13046F12614F098F8304602B0BDE8F0810026C0E71048114A90F820351049022B08BF00F23C5040F23F2318F0F5FC6FF0010015F063FF9EE7F226304602B0BDE8F081D2689B6892689A42BED2054812F03BFB00BF60290020582200208CDA020800DA020874E802082DE9F0410D4690461F46044682B000284ED004F10C063046002D3AD014F044FFE369002B42D0022D38D12046FFF7AAFDF1260023A362B8F1000F02D0636BC8F80030302383F3118812F004FB13F040FD684605F073F913F027FD12F0E9FA244A136893423BD1002585F31188DDE900013F
S3FD0800BD68D4E908238B4208BF824238BF851A29462046FFF751FD07B13D60304602B0BDE8F08114F077F8E8B1E3693BB13046F12614F016F8304602B0BDE8F0810026C0E71048114A90F820351049022B08BF00F23C504FF4C37318F073FC6FF0010015F0E1FE9EE7F226304602B0BDE8F081D2689B6892689A42BED2054812F0B9FA00BF60290020582200208CDA020800DA020874E8020838B50446E0B1E369A26CD3E90C15E06C013145F10005013240F10000C3E90C15D96AC4E91220986AFBF796FEE069083013F0CCFF04F10C00BDE8384013F0C6BF0848094A90F820350849022B08BF00F23C50AE2318F02AFC6FF0010015F098FED1E700BF5E
S3FD0800BE60582200208CDA020800DA0208F8B50D4617461E46044630B3002D36D00023E561C4E90133302383F3118812F05FFA13F09BFC04F1200005F0CDF813F081FC12F043FA1E4B1A689A4230D1002282F311883EB1EFF30581C1F3080101B9DA68C4E90A266763F8BD1648164A90F820351649022B08BF00F23C508D2318F0E5FB6FF0010015F053FE002DC8D10D480D4A90F820350D49022B08BF00F23C508E2318F0D3FB6FF0010015F041FEB7E7D968926889689142C9D2054812F01EFA60290020582200208CDA020800DA020874E802082DE9F04184B00D461646984604460A9F002871D0002D00F08380236B002B00F09480294643463246F1
S3FD0800BF582046FFF787FFE16DA765B1B1D4E91832934212D819448FB1B9420FD3D4E90823D4F8A010D21943F10003CDE90223002946D1102304F16800A3E03946002934D105F1080014F000FEE369DA69002A7DD069462046FFF7A6FBE36902A99D692846FFF7A0FBDDE90067DDE902239F4208BF96420DD277E0AD6802A92846FFF792FBDDE90223DDE900679F4208BF96426AD3E269D3699D42EED199686360D46100297BD0A1604C609C6056E0D4E90823D4F8A000521843F10003CDE9022300285AD02346384A02A904F16800FEF727F9B7E73548364A90F820353549022B08BF00F23C504FF4747318F033FB6FF0010015F0A1FD002D7FF47DAF70
S3FD0800C0502B482C4A90F820352B49022B08BF00F23C5040F2D13318F01FFB6FF0010015F08DFD236B002B7FF46CAF002E3FF469AF1F48204A90F820351F49022B08BF00F23C5040F2D23318F007FB6FF0010015F075FD56E79A69EAB1A260C3E9064454602046FFF7A3FE002004B0BDE8F081D5B16B68A56093B163609C606C60F0E7B9420CBF1023112304F168000C4A02A9FEF7C9F859E79C615C62DC61E1E7E3699C61EBE7546283E7E269D36979E7457A0008582200208CDA020800DA020859A500082DE9F041069E0D46174698460446B8B14DB3206B00283AD043463A4629462046FFF79CFE05F10800A66514F031FD2046FFF71AFB2046FFF7A8
S3FD0800C14859FE0020BDE8F0811D481E4A90F820351D49022B08BF00F23C5040F2892318F09FFA6FF0010015F00DFD002DD5D11448144A90F820351449022B08BF00F23C5040F28A2318F08CFA6FF0010015F0FAFC206B0028C4D1002FC2D00948094A90F820350949022B08BF00F23C5040F28B2318F076FA6FF0010015F0E4FCB0E700BF582200208CDA020800DA0208F8B50D4616461F460446A8B13DB3206B002838D03B46324629462046FFF73CFE05F1080014F0D2FC2046FFF7BBFA2046FFF7FAFD0020F8BD1D481E4A90F820351D49022B08BF00F23C5040F2032318F041FA6FF0010015F0AFFC002DD7D11448144A90F820351449022B08BFC4
S3FD0800C24000F23C504FF4017318F02EFA6FF0010015F09CFC206B0028C6D1002EC4D00948094A90F820350949022B08BF00F23C5040F2052318F018FA6FF0010015F086FCB2E700BF582200208CDA020800DA0208F8B50E4617461D460446C8B15EB3236B002B3CD02B463A4631462046FFF7DEFD06F1080014F074FCE269536A002B42D0636020469C605462FFF798FD0020F8BD2048214A90F820352049022B08BF00F23C5040F24B1318F0DFF96FF0010015F04DFC002ED3D11748174A90F820351749022B08BF00F23C504FF4A67318F0CCF96FF0010015F03AFC236B002BC2D1002FC0D00C480C4A90F820350C49022B08BF00F23C5040F24D131F
S3FD0800C33818F0B6F96FF0010015F024FCAEE7204694615462FFF756FD0020F8BD582200208CDA020800DA020810B51446CAB1D4F8583204F516709B689847D4F8983204F526709B689847D4F8E03204F538709B689847D4F8303304F54C709B68BDE8104018470848084A90F820350849022B08BF00F23C50F52318F07BF96FF0010015F0E9FBD4E758220020C8DA020800DA02082DE9F04F87B014460391002A00F05B81039B9A0740F18180B34EDFF8008306F23C5904F54C770023D4F830230093156819461A463846A84794F818340546F3B1E5281ED096F82035A849022B0CBF4846304618F045F945B196F82035A449022B0CBF4846304618F074
S3FD0800C4303BF996F820354146022B0CBF4846304618F032F9D3E7E528D1D1994FDFF8949207F23C5B04F5387805AE0023D4F8E0220096156819461A464046A84794F818340546002B00F0A080E52800F0A08097F820354046022B059900F0C080FDF77CFF8A4A8B4B8B49002808BF1A46384618F003F96DB197F82035874A022B8749884B00F0E680102D08BF1A46384618F0F4F897F820354946022B0CBF5846384618F0EBF8C2E7E52840F0AD80039B23F002030393039B5B074AD504F57877384614F057FBD4F8F053002604F5767B002D37D005F10C0A504614F04BFBD4F8F413AA688D42C4F8F023AE6042D0D4F8F8138D4208BFC4F8F863D4F87C
S3FD0800C528FC1350468D4214BF5660C4F8FC63D5E9088913F045FC384613F042FC504614F02BFBEA69934505D1D5E90801494508BF404524D0504613F033FC384614F01CFBD4F8F053002DC7D1384613F029FC039B23F004030393039B53B14B48039A90F820355249022B08BF00F23C5018F088F8062007B0BDE8F08FC4F8F463BFE7E96AEE616E630029D5D0A86AFBF7CFFAD1E7E5287FF44EAF3C4FDFF8248107F23C5904F526750023D4F8982200961946D2F800B028461A46D84794F81834F3B1E5281ED097F820350598022BD4E9B63139D09847FAF773FC02460B463846414618F04FF8DFE7FDF7BCFE2B4B2A4A2B49002808BF1A46584618F0F0
S3FD0800C62043F83EE7E528D1D1214E2B4F06F23C5804F516750023D4F8582200931946D2F8009028461A46C84794F81834002B3FF441AFE5283FF441AF96F820353946022B0CBF4046304618F01FF8E3E79847FAF739FC02460B464846414618F015F8A5E7102D08BF1A46584618F00EF818E70848124A90F820351249022B08BF00F23C50772318F001F86FF0010015F06FFA93E65822002028DB020830DB020804DB02080CDB020848DB020814DB020854DB02081CDB020888DB020880DB0208C8DA020800DA02087C32030868DB02082DE9F8430C46002900F06D81C04BC14ADB68B4F84802DA61FBF7D8F90546002800F0FB80D4F85C3204F5167737
S3FD0800C7189BB1BA4E96F82035B94A022B0CBFB948B64840F25E53B84917F0BAFF6FF0010015F028FA002D00F0FC8038462946FDF75DFDD4F89C3204F526779BB1AB4E96F82035AB4A022B0CBFAA48A8484FF4B463A94917F09DFF6FF0010015F00BFA002D00F0FA800022A54B3846C4E9B6322946FDF73CFDD4E99387D4F8E43204F538799BB19A4E96F82035994A022B0CBF9948964840F2E753984917F07AFF6FF0010015F0E8F9002D00F0F78000234FF0FF32C4E9C8874846C4E9CA232946FDF716FDD4E99369D4F83433D4F8548204F54C7783B18648864A90F820358749022B08BF00F23C5040F2776317F052FF6FF0010015F0C0F9D4F87033FF
S3FD0800C81083B17C487C4A90F820357D49022B08BF00F23C5040F2796317F03EFF6FF0010015F0ACF9D4F8B03383B17248724A90F820357349022B08BF00F23C5040F27C6317F02AFF6FF0010015F098F9002D40D000234FF0FF32C4E9ED6905F10806C4E9EF23C4E9F23384F8D0333046C4F8C483C4F8345314F08CF9AA6D2B6E5168C4E9D32133B923E0D3F89410D4F8C423914203D218461B6C002BF5D1C4F87033076404F54E7105F118004FF0FF33022213F073F9EA69D5F8B030013201333046EA61C5F8B03013F078FA0620BDE8F8832F66E6E74848484A90F820354949022B08BF00F23C5040F27E6317F0D6FE6FF0010015F044F9ACE73F4E6A
S3FD0800C908434A96F820354049022B18BF30464FF0590308BF06F23C5017F0C2FE6FF0010015F030F9D4F85C3204F51677002B7FF4F1AE96F82035324A022B334940F25F530CBF30482D4817F0ABFE6FF0010015F019F938460021FDF751FCD4F89C3204F52677002B7FF4F3AE96F82035244A022B254940F2A1530CBF2248204817F090FE6FF0010015F0FEF80021204B3846C4E9B631FDF733FCD4E99387D4F8E43204F53879002B7FF4F6AE96F82035144A022B15494FF4BD630CBF1248104817F070FE6FF0010015F0DEF8F7E60C4E104A96F820350D49022B18BF30464FF04F0308BF06F23C5017F05CFE6FF0010015F0CAF87EE600BF602900206F
S3FD0800CA00ECE9020858220020C0D902089427002000DA0208897A0008C8DA020810B514463AB1D4F8480204F51371BDE8104013F087B80C480C4990F820350C4A022B08BF00F23C5040F2451317F02EFE6FF0010015F09CF8D4F8480204F51371BDE8104013F06EB85822002000DA0208C0DB02082DE9F04F0D4614468BB0002A00F0C980AE0700F195806B0740F18280D4F8C03363B30023D4F898131A464E6804F566700121B047F128064640F0CD8094F84834E3B19C4F9C4997F82035022B14BF384607F23C5017F0F0FD102E97F8203500F05183112E00F0D581002E00F03183022B924900F0D2818F4817F0DEFDD4F858336BB3D4F8303304F57E
S3FD0800CAF84C785E6840460022012108ABB047F128064640F0938094F84834E3B1834F864997F82035022B14BF384607F23C5017F0BFFD102E97F8203500F01B83112E00F0FB82002E00F00583022B7A4900F0F882764817F0ADFDD4F8003363B1D4F8D8220121566808AB002204F53670B047F128064640F09580D4F8A8325BB10023D4F880121A464E6804F520700121B047F128064666D125F0040555B164482A4690F820356649022B08BF00F23C5017F080FD06200BB0BDE8F08F302383F3118811F0C9FB12F005FE0023DFF8A081D4F85862C4F8583212F0E8FD11F0AAFBD8F80030434540F0D082002383F31188F00700F15481B10700F17A8187
S3FD0800CBF0720700F184804EB14A484F4990F82035022B08BF00F23C5017F04EFD25F0020539E74448494A90F820354949022B08BF00F23C50672317F03FFD6FF0010014F0ADFF25E704F54F7013F0C6F894F84834002B84D066E704F5697013F0BDF894F84834002B3FF44AAF2BE704F5237013F0B3F894F84834002B90D0002E8ED12D4F344997F82035022B14BF384607F23C5017F012FD97F820352F49022B0CBF2F48244817F009FD79E704F5397013F094F894F84834002B3FF462AF002E7FF45FAF1C4E274996F82035022B00F01882304617F0F2FC96F82035022B00F019820898F9F78EFB1F49F9F797FC4FF07E51F9F7D7FA01464FF07E50AE
S3FD0800CCE8F9F78EFCFAF7FAF802460B460B48184917F0D6FC37E71748B4F8789213F04CFF154B1F6817B92BE03F684FB3BB889945FAD825D10F4813F053F835E05822002058DC02088CDC0208A4DC0208C4DC020824DC0208C0DB020800DA0208BCDC020884DB020894270020B4DC020800007A446CDB0208342200204822002060290020BC4813F02DF8BC48BC4A90F82035BC49022B08BF00F23C50962317F091FC6FF0010014F0FFFE002794F84834002B40F0FC8104F566784046FEF748FCF12808D10023D4F898131A46D1F8049040460221C847D4F87C22D4F898330092404600223946D3F8009004F54C780423C8474046FEF72CFCF12808D178
S3FD0800CDE00023D4F830131A46D1F8049040460221C847D4F87C22D4F830330092404600223946D3F8009004F536780423C8474046FEF710FCF12808D10023D4F8D8121A46D1F8049040460221C8474FF00009D4F8D832CDF8009040464A463946D3F800A004F520780423D0474046FEF7F3FBF12808D14B46D4F880220221D2F8049040461A46C8470022D4F880320092394640461F6826F004060423B847002E3FF4C6AEBAE6022B79497FF42EAE794817F00CFC2CE6302383F3118811F058FA12F094FC04A804F0C7F812F07BFC11F03DFAD8F80030434540F0BA81002383F3118894F8483453B16648049A90F820356949022B08BF00F23C5017F0CE
S3FD0800CED8E7FB26F00106B1077FF586AE302383F3118811F02FFA12F06BFC06A804F09EF812F052FC11F014FAD8F80030434540F09B81002383F3118894F8483453B15248069A90F820355649022B08BF00F23C5017F0BEFBD4E99A32D4F86002013342F10002C4E99A32083013F02EFED4F860B2DBF85870D7F800A0DAF81820DAF804306AB10BF1080012F033FFD4E99C32013342F10002C4E99C3226F002063CE63BB1DDE90601DAE90223994208BF9042E8D37B68002B00F06081DDE90601D7E90223994208BF904280F05781DAF80030D4463B6001E01F461B685A68002AFAD0D3E9029A514508BF4845F4D2CCF80030C7F800C0DBF85800E24654
S3FD0800CFD08445DBF8609000F03F81DBF85C300027591C05BF01231946CBF85C10CBF85C308245DDE90623CAE9022318BFDAF80030CAF8041014BF9969DBF81C10DAE908320133CAF82030DAF8283042F10002CAF81470CAF81810CAF8242033B1DBE92A32013342F10002CBE92A32DBF8B030CAF82830B9F1000F00F0DF8052462B46B2464D461646994603943FE000BF3422002058220020C0DB020800DA020878DC02089427002000DC020814DC0208D5E923329342D5F884402ED81F446CB3BC422BD82746D5F880303BB1D3E90201DDE906238B4208BF824214D2DDE90623D5F89810D21943F10003CDE90823002900F08A802B467A4A08A905F104
S3FD0800D0C84800FDF7D3F8C5F880602D6C002D00F09480D5F88870002FCCD1D5F884402746002FF2D0D1E706F23C5017F0D9FA96F82035022B7FF4E7AD0898F9F775F96A49F9F77EFA4FF07E51F9F7BEF801464FF07E50F9F775FAF9F7E1FE02460B466348634917F0BDFA1EE5022B62497FF408AD5E4817F0B5FA06E5022B5F497FF4CFAC9FE6022B404608994BD0FEF74FFA5B4B5B4A5C49002808BF1A465B4817F0A0FAF1E4022B59497FF4EBACE1E7022B57497FF4B5AC85E6D8F80C209B6892689A42BFF429AD524811F0E3F8302383F3118811F0D8F812F014FB08A803F047FF12F0FBFA11F0BDF8D8F8003043456AD1002383F311884448089A35
S3FD0800D1C090F820354549022B08BF00F23C5017F06BFAE2E5BC420CBF10231123404A08A905F14800FDF746F871E7FEF703FA354B354A3649002808BF1A462E4817F054FAA5E456464D46039CDBE92832013342F100020BF118000021CBE92832FAF76AFCD4F86002083012F0CFFDA1E6D8F80C209B6892689A42BFF43FAE2A4811F08CF8D8F80C209B6892689A42BFF45EAEF4E7DBF86090CBF858A0B9F1000F13D0D9F8941081B1DDE906235218D9F8981043F10003CDE9082381B14B461B4A08A90BF16800FCF7F7FFDBF85800A6E6D8F80C209B6892689A428ED2CFE71223104A08A90BF16800FCF7E6FFEDE700BFFD79000800007A4494270020F5
S3FD0800D2B86CDB020878DC020884DB02080CDB020804DB0208ACDC02085822002060DC02088CE8020814DC020859A5000868E80208DDA2000810B50C4671B1104B1049DA68D4F84802D1614FF0FF33022204F5137112F04EFC022010BD0A480B4A90F820350A49022B08BF00F23C504D2317F0C0F96FF0010014F02EFCDFE700BF60290020D8E9020858220020C0DB020800DA02082DE9F84F00254FF000084FF000097B21634E644A644C654B1560C2E90A55C2E90689C2E9088906F13000614A614F30601D6004F10800C6E90455C6E90C55C6E91055C6E90289C6E90889C6E90E89C6E914897560B561B562B564B565C3E90689C3E90889C3E90A55E9
S3FD0800D3B0A180126025603F6011F0E8F8226804F1280304F1180004F12001C4E90C89C4E90E55C4E91289C4E91755C4E92089C4E92289C4E92455C4E92655C4E92889C4E92A89C4E90811E561E56225642565A566C4F8B050A061A365A36282B13C483D4A90F820353C49022B08BF00F23C504FF4AF7317F041F96FF0010014F0AFFB374813F0B6FB364A13682BB19888A18888424CD301D923601460304812F0BDFC73687BB12B482F4A90F820352B49022B08BF00F23C50872317F01FF96FF0010014F08DFBDFF88C80DFF89C901B4DDFF888A0AB462D68002D49D06B687BB198F820354A46022B51464FF08A0314BF40461E4817F002F96FF00100BB
S3FD0800D4A814F070FBB542E7D198F820354A46022B18BF40464FF08B03114908BF144817F0EFF86FF0010014F05DFBD2E79A88914240F2048218461B68002BF7D10460AFE7B81B00203021002070200020402000203820002028210020582200201CDA020800DA02083422002054220020FCDC020894270020C64813F03FFBA36DC54C1A68C348CBF800201E6012F04AFC802104F502722046C4F80852FCF702FE014600220023BD48BD4EC4F80C12BD49C4E99023C4F81002C4F81862C4F82012C4F81442C4F81C42C4F82442A4F8285204F50270FEF710F801237B20C4F8487284F84834FAF796FA0646002800F0AC8100254FF000084FF000094FF092
S3FD0800D5A07B0A4FF0FF37A94BC4F86062C4F88032C4E99A89C4E99C89C4E9A155A448A4F878A2C4F87C5210F0E1FFA24BC4E9A889C4F8D832C4E9AA55C4E9AC55C4E9B089C4E9B289C4E9B489C4E9B7559A48C4F89C52C4F8BC52C4F8B87210F0C7FF974BC4E9BE89C4F83033C4E9C055C4E9C255C4E9C689C4E9C889C4E9CA89C4E9C475C4E9CD558E48C4F8F45210F0AFFF8D4BC4E9D489C4F89833C4E9D655C4E9D855C4E9DC89C4E9DE89C4E9E089C4E9DA75C4E9E255C4E9E475C4E9E7558248C4F84C5310F093FF814B814EE3E802894221C4E9EE89C4E9F055C4E9F255C4E9F689C4E9F889C4E9FA89C4E9F475C4E9FC55C4E9FE75C3E900891E
S3FD0800D69806F50272C4F8B453C4F80054C4F82854C4F82C54C4F83054C4F83454C4F83854C4F83C5484F840543046C6F80852FCF73FFD6A496A4A6B4BC6F80C02C6F81012C6F81822C6F82032C6E9908906F50270C6F81462C6F81C62C6F82462A6F82852FDF750FF0120604B6049614AC6F8E032C6E99355C6E99D55C6E9A075C6E9A289C6E9A489C6E9AD55C6E9B075C6E9B289C6E9B489C6E9B655C6E9BF55C6E9C275C6E9C489C6E9C689524BA6F848A2C6F85452C6F85C52C6F89C52C6F8E452C6F8205386F81804C6F85812C6F89822C6F82453D6F80C42C6E9CA75C6E9D355C6E9D675C6E9D889C6E9DA89C6E9E489C6E9E689C6E9E855C6E97B
S3FD0800D790EA55C6E9EC55C6E9EE57C6E9F055C6E9F255C6F83453C6F87053C6F8785386F8D053C6F83033002C00F0B58000257B233348A6F8DC33C6F8D85310F0DFFE0020002104272F4BD6F8D823E3E80201C6E9FD55C3E90001C6F8F053C6F8FC53C6F80044C6F8047482B12748284A90F820352749022B08BF00F23C504FF4E17316F04BFF6FF0010014F0B9F9224813F0C0F9214A1368002B7BD09888B6F8DC13884251D36CD93AE000BF7820002068170020EDD2000871CA00081DCA000848EB0208F41900205CEB02084C1A002020EB0208A41A002034EB02080C1B0020801B0020181C0020EDC60008C9C3000861C3000828EB020850EB020807
